{
  "contractName": "Calendar",
  "abi": [
    {
      "inputs": [],
      "stateMutability": "nonpayable",
      "type": "constructor"
    },
    {
      "inputs": [
        {
          "internalType": "uint256",
          "name": "",
          "type": "uint256"
        }
      ],
      "name": "Available",
      "outputs": [
        {
          "internalType": "string",
          "name": "",
          "type": "string"
        }
      ],
      "stateMutability": "view",
      "type": "function"
    },
    {
      "inputs": [
        {
          "internalType": "uint256",
          "name": "",
          "type": "uint256"
        },
        {
          "internalType": "uint256",
          "name": "",
          "type": "uint256"
        }
      ],
      "name": "PreorderOpen",
      "outputs": [
        {
          "internalType": "uint256",
          "name": "",
          "type": "uint256"
        }
      ],
      "stateMutability": "view",
      "type": "function"
    },
    {
      "inputs": [
        {
          "internalType": "uint256",
          "name": "",
          "type": "uint256"
        },
        {
          "internalType": "uint256",
          "name": "",
          "type": "uint256"
        }
      ],
      "name": "Preorderend",
      "outputs": [
        {
          "internalType": "uint256",
          "name": "",
          "type": "uint256"
        }
      ],
      "stateMutability": "view",
      "type": "function"
    },
    {
      "inputs": [
        {
          "internalType": "uint256",
          "name": "",
          "type": "uint256"
        },
        {
          "internalType": "uint256",
          "name": "",
          "type": "uint256"
        }
      ],
      "name": "Preorderstart",
      "outputs": [
        {
          "internalType": "address",
          "name": "",
          "type": "address"
        }
      ],
      "stateMutability": "view",
      "type": "function"
    },
    {
      "inputs": [
        {
          "internalType": "uint256",
          "name": "dataStart",
          "type": "uint256"
        },
        {
          "internalType": "uint256",
          "name": "dataEnd",
          "type": "uint256"
        },
        {
          "internalType": "uint256",
          "name": "_id",
          "type": "uint256"
        }
      ],
      "name": "Pre_Order",
      "outputs": [
        {
          "internalType": "bool",
          "name": "suc",
          "type": "bool"
        }
      ],
      "stateMutability": "nonpayable",
      "type": "function"
    },
    {
      "inputs": [
        {
          "internalType": "uint256",
          "name": "idA",
          "type": "uint256"
        },
        {
          "internalType": "uint256",
          "name": "_dataStart",
          "type": "uint256"
        },
        {
          "internalType": "uint256",
          "name": "_dataEnd",
          "type": "uint256"
        }
      ],
      "name": "CheckAvialable",
      "outputs": [
        {
          "internalType": "bool",
          "name": "ret",
          "type": "bool"
        }
      ],
      "stateMutability": "nonpayable",
      "type": "function"
    },
    {
      "inputs": [
        {
          "internalType": "uint256",
          "name": "idA",
          "type": "uint256"
        },
        {
          "internalType": "string",
          "name": "Status",
          "type": "string"
        }
      ],
      "name": "setAvailable",
      "outputs": [
        {
          "internalType": "bool",
          "name": "",
          "type": "bool"
        }
      ],
      "stateMutability": "nonpayable",
      "type": "function"
    },
    {
      "inputs": [],
      "name": "setFusoOraio",
      "outputs": [],
      "stateMutability": "nonpayable",
      "type": "function"
    },
    {
      "inputs": [
        {
          "internalType": "uint256",
          "name": "_id1",
          "type": "uint256"
        }
      ],
      "name": "Relese",
      "outputs": [],
      "stateMutability": "nonpayable",
      "type": "function"
    },
    {
      "inputs": [
        {
          "internalType": "uint256",
          "name": "date",
          "type": "uint256"
        },
        {
          "internalType": "bool",
          "name": "next",
          "type": "bool"
        }
      ],
      "name": "Converter",
      "outputs": [
        {
          "internalType": "uint256",
          "name": "",
          "type": "uint256"
        }
      ],
      "stateMutability": "nonpayable",
      "type": "function"
    },
    {
      "inputs": [
        {
          "internalType": "uint256",
          "name": "_dateS",
          "type": "uint256"
        },
        {
          "internalType": "uint256",
          "name": "idP",
          "type": "uint256"
        }
      ],
      "name": "AcquirePre",
      "outputs": [
        {
          "internalType": "bool",
          "name": "ret",
          "type": "bool"
        }
      ],
      "stateMutability": "nonpayable",
      "type": "function"
    }
  ],
  "bytecode": "0x608060405234801561001057600080fd5b50611747806100206000396000f3fe608060405234801561001057600080fd5b50600436106100a95760003560e01c80634abc9325116100715780634abc93251461017857806360a48f7c1461019457806394cfd453146101c45780639ff3b46d146101f4578063b99ad1bc14610224578063e201d8bd14610254576100a9565b806304e4deaa146100ae57806319b4818d146100de57806323ba900e1461010e57806332a119a41461011857806335b6773114610148575b600080fd5b6100c860048036038101906100c39190610f29565b610284565b6040516100d59190610f78565b60405180910390f35b6100f860048036038101906100f39190610f93565b6102da565b6040516101059190610fe2565b60405180910390f35b6101166102fc565b005b610132600480360381019061012d9190610ffd565b610320565b60405161013f9190610fe2565b60405180910390f35b610162600480360381019061015d9190611050565b610526565b60405161016f9190611116565b60405180910390f35b610192600480360381019061018d9190611050565b6105c6565b005b6101ae60048036038101906101a99190610ffd565b6106c3565b6040516101bb9190610fe2565b60405180910390f35b6101de60048036038101906101d99190610f93565b610c33565b6040516101eb9190610f78565b60405180910390f35b61020e6004803603810190610209919061126d565b610c58565b60405161021b9190610fe2565b60405180910390f35b61023e60048036038101906102399190610f93565b610d7b565b60405161024b9190610f78565b60405180910390f35b61026e60048036038101906102699190610f93565b610dac565b60405161027b919061130a565b60405180910390f35b60008082156102935761384090505b600062015180856102a49190611354565b9050613840816102b49190611354565b90508181866102c391906113b4565b6102cd91906113e8565b9050809250505092915050565b60006102e4610dee565b60006102f36003546000610284565b90505092915050565b6000600454141561031557610e1060048190555061031e565b60006004819055505b565b6000600454600a4261033291906113b4565b61033c91906113e8565b6003819055508360035410610386576040517f08c379a000000000000000000000000000000000000000000000000000000000815260040161037d9061148a565b60405180910390fd5b6000610393856001610284565b905060006103a2856001610284565b90508082106103e6576040517f08c379a00000000000000000000000000000000000000000000000000000000081526004016103dd906114f6565b60405180910390fd5b6103f18483836106c3565b1561051d576006600085815260200190815260200160002082908060018154018082558091505060019003906000526020600020016000909190919091505533600080868152602001908152602001600020600084815260200190815260200160002060006101000a81548173ffffffffffffffffffffffffffffffffffffffff021916908373ffffffffffffffffffffffffffffffffffffffff16021790555080600160008681526020019081526020016000206000848152602001908152602001600020819055506040518060400160405280600a81526020017f5072656f72646572656400000000000000000000000000000000000000000000815250600260008681526020019081526020016000209080519060200190610517929190610e04565b50600192505b50509392505050565b6002602052806000526040600020600091509050805461054590611545565b80601f016020809104026020016040519081016040528092919081815260200182805461057190611545565b80156105be5780601f10610593576101008083540402835291602001916105be565b820191906000526020600020905b8154815290600101906020018083116105a157829003601f168201915b505050505081565b6040518060400160405280600781526020017f57616974696e670000000000000000000000000000000000000000000000000081525080519060200120600260008381526020019081526020016000206040516106239190611616565b60405180910390201461063557600080fd5b6000610676826040518060400160405280600981526020017f417661696c61626c650000000000000000000000000000000000000000000000815250610c58565b905060011515811515146106bf576040517f08c379a00000000000000000000000000000000000000000000000000000000081526004016106b690611679565b60405180910390fd5b5050565b60006040518060400160405280600a81526020017f5072656f7264657265640000000000000000000000000000000000000000000081525080519060200120600260008681526020019081526020016000206040516107229190611616565b6040518091039020148061079857506040518060400160405280600481526020017f4275737900000000000000000000000000000000000000000000000000000000815250805190602001206002600086815260200190815260200160002060405161078e9190611616565b6040518091039020145b15610bbc576001905060005b6006600086815260200190815260200160002080549050811015610bba5760006006600087815260200190815260200160002082815481106107e9576107e8611699565b5b90600052602060002001541115610ba757836006600087815260200190815260200160002082815481106108205761081f611699565b5b90600052602060002001541115801561088c575060016000868152602001908152602001600020600060066000888152602001908152602001600020838154811061086e5761086d611699565b5b90600052602060002001548152602001908152602001600020548411155b806108c55750836006600087815260200190815260200160002082815481106108b8576108b7611699565b5b9060005260206000200154145b8061092257508360016000878152602001908152602001600020600060066000898152602001908152602001600020848154811061090657610905611699565b5b9060005260206000200154815260200190815260200160002054145b8061095b57508260066000878152602001908152602001600020828154811061094e5761094d611699565b5b9060005260206000200154145b806109b857508260016000878152602001908152602001600020600060066000898152602001908152602001600020848154811061099c5761099b611699565b5b9060005260206000200154815260200190815260200160002054145b80610a515750826006600087815260200190815260200160002082815481106109e4576109e3611699565b5b906000526020600020015411158015610a505750600160008681526020019081526020016000206000600660008881526020019081526020016000208381548110610a3257610a31611699565b5b90600052602060002001548152602001908152602001600020548311155b5b80610aea575082600660008781526020019081526020016000208281548110610a7d57610a7c611699565b5b906000526020600020015411158015610ae95750600160008681526020019081526020016000206000600660008881526020019081526020016000208381548110610acb57610aca611699565b5b90600052602060002001548152602001908152602001600020548311155b5b80610b835750600660008681526020019081526020016000208181548110610b1557610b14611699565b5b90600052602060002001548411158015610b82575082600160008781526020019081526020016000206000600660008981526020019081526020016000208481548110610b6557610b64611699565b5b906000526020600020015481526020019081526020016000205411155b5b15610ba65760009150600660008681526020019081526020016000208054905090505b5b8080610bb2906116c8565b9150506107a4565b505b6040518060400160405280600981526020017f417661696c61626c6500000000000000000000000000000000000000000000008152508051906020012060026000868152602001908152602001600020604051610c199190611616565b60405180910390201415610c2c57600190505b9392505050565b6001602052816000526040600020602052806000526040600020600091509150505481565b60006040518060400160405280600481526020017f42757379000000000000000000000000000000000000000000000000000000008152508051906020012082805190602001201480610ced57506040518060400160405280600981526020017f417661696c61626c650000000000000000000000000000000000000000000000815250805190602001208280519060200120145b80610d3a57506040518060400160405280600781526020017f57616974696e6700000000000000000000000000000000000000000000000000815250805190602001208280519060200120145b15610d705781600260008581526020019081526020016000209080519060200190610d66929190610e04565b5060019050610d75565b600090505b92915050565b60066020528160005260406000208181548110610d9757600080fd5b90600052602060002001600091509150505481565b60006020528160005260406000206020528060005260406000206000915091509054906101000a900473ffffffffffffffffffffffffffffffffffffffff1681565b60045442610dfc91906113e8565b600381905550565b828054610e1090611545565b90600052602060002090601f016020900481019282610e325760008555610e79565b82601f10610e4b57805160ff1916838001178555610e79565b82800160010185558215610e79579182015b82811115610e78578251825591602001919060010190610e5d565b5b509050610e869190610e8a565b5090565b5b80821115610ea3576000816000905550600101610e8b565b5090565b6000604051905090565b600080fd5b600080fd5b6000819050919050565b610ece81610ebb565b8114610ed957600080fd5b50565b600081359050610eeb81610ec5565b92915050565b60008115159050919050565b610f0681610ef1565b8114610f1157600080fd5b50565b600081359050610f2381610efd565b92915050565b60008060408385031215610f4057610f3f610eb1565b5b6000610f4e85828601610edc565b9250506020610f5f85828601610f14565b9150509250929050565b610f7281610ebb565b82525050565b6000602082019050610f8d6000830184610f69565b92915050565b60008060408385031215610faa57610fa9610eb1565b5b6000610fb885828601610edc565b9250506020610fc985828601610edc565b9150509250929050565b610fdc81610ef1565b82525050565b6000602082019050610ff76000830184610fd3565b92915050565b60008060006060848603121561101657611015610eb1565b5b600061102486828701610edc565b935050602061103586828701610edc565b925050604061104686828701610edc565b9150509250925092565b60006020828403121561106657611065610eb1565b5b600061107484828501610edc565b91505092915050565b600081519050919050565b600082825260208201905092915050565b60005b838110156110b757808201518184015260208101905061109c565b838111156110c6576000848401525b50505050565b6000601f19601f8301169050919050565b60006110e88261107d565b6110f28185611088565b9350611102818560208601611099565b61110b816110cc565b840191505092915050565b6000602082019050818103600083015261113081846110dd565b905092915050565b600080fd5b600080fd5b7f4e487b7100000000000000000000000000000000000000000000000000000000600052604160045260246000fd5b61117a826110cc565b810181811067ffffffffffffffff8211171561119957611198611142565b5b80604052505050565b60006111ac610ea7565b90506111b88282611171565b919050565b600067ffffffffffffffff8211156111d8576111d7611142565b5b6111e1826110cc565b9050602081019050919050565b82818337600083830152505050565b600061121061120b846111bd565b6111a2565b90508281526020810184848401111561122c5761122b61113d565b5b6112378482856111ee565b509392505050565b600082601f83011261125457611253611138565b5b81356112648482602086016111fd565b91505092915050565b6000806040838503121561128457611283610eb1565b5b600061129285828601610edc565b925050602083013567ffffffffffffffff8111156112b3576112b2610eb6565b5b6112bf8582860161123f565b9150509250929050565b600073ffffffffffffffffffffffffffffffffffffffff82169050919050565b60006112f4826112c9565b9050919050565b611304816112e9565b82525050565b600060208201905061131f60008301846112fb565b92915050565b7f4e487b7100000000000000000000000000000000000000000000000000000000600052601260045260246000fd5b600061135f82610ebb565b915061136a83610ebb565b92508261137a57611379611325565b5b828206905092915050565b7f4e487b7100000000000000000000000000000000000000000000000000000000600052601160045260246000fd5b60006113bf82610ebb565b91506113ca83610ebb565b9250828210156113dd576113dc611385565b5b828203905092915050565b60006113f382610ebb565b91506113fe83610ebb565b9250827fffffffffffffffffffffffffffffffffffffffffffffffffffffffffffffffff0382111561143357611432611385565b5b828201905092915050565b7f4e6f7420706f737369626c6520696e2074686520706173740000000000000000600082015250565b6000611474601883611088565b915061147f8261143e565b602082019050919050565b600060208201905081810360008301526114a381611467565b9050919050565b7f3c00000000000000000000000000000000000000000000000000000000000000600082015250565b60006114e0600183611088565b91506114eb826114aa565b602082019050919050565b6000602082019050818103600083015261150f816114d3565b9050919050565b7f4e487b7100000000000000000000000000000000000000000000000000000000600052602260045260246000fd5b6000600282049050600182168061155d57607f821691505b6020821081141561157157611570611516565b5b50919050565b600081905092915050565b60008190508160005260206000209050919050565b600081546115a481611545565b6115ae8186611577565b945060018216600081146115c957600181146115da5761160d565b60ff1983168652818601935061160d565b6115e385611582565b60005b83811015611605578154818901526001820191506020810190506115e6565b838801955050505b50505092915050565b60006116228284611597565b915081905092915050565b7f4e6f6e20646973706f6e6962696c653300000000000000000000000000000000600082015250565b6000611663601083611088565b915061166e8261162d565b602082019050919050565b6000602082019050818103600083015261169281611656565b9050919050565b7f4e487b7100000000000000000000000000000000000000000000000000000000600052603260045260246000fd5b60006116d382610ebb565b91507fffffffffffffffffffffffffffffffffffffffffffffffffffffffffffffffff82141561170657611705611385565b5b60018201905091905056fea2646970667358221220cc5c86195019783d49c0a1499917e683021af8ef0ec3cb44ec6662783e2e5f4464736f6c634300080a0033",
  "immutableReferences": {},
  "source": "\r\npragma solidity ^0.8.0;\r\n\r\n\r\n\r\ncontract Calendar   {\r\n\t\r\n\t  mapping(uint256=>mapping(uint256=>address)) public Preorderstart;\r\n\t  mapping(uint256=>mapping(uint256=>uint256)) public Preorderend;\r\n    mapping(uint256 => string) public Available;\r\n    uint256 time;\r\n    uint256 fusoorario;\r\n    uint256[] Status;\r\n\r\n    mapping(uint256=>uint256[]) public PreorderOpen;\r\n\t\t    \r\n\r\n \r\n\r\n\tconstructor() public { \r\n      \r\n\r\n\r\n\r\n\t}\r\n  \tfunction Time() internal {\r\n        time = block.timestamp+ fusoorario;\r\n      }\r\n\r\n\r\n\tfunction Pre_Order(uint256 dataStart, uint256 dataEnd, uint256 _id)  external returns(bool suc) {\r\n    suc = false;\r\n    time =block.timestamp-10 + fusoorario;\r\n    require(time < dataStart,\"Not possible in the past\");\r\n    uint256 date1 = Converter(dataStart,true);\r\n    uint256 date2 = Converter(dataEnd,true);\r\n\r\n\t\trequire(date1<date2,\"<\");//la prenotazione vale almeno se dura 4 ore\r\n      \r\n        if(CheckAvialable(_id,date1,date2)){\r\n    PreorderOpen[_id].push(date1);\r\n\t\tPreorderstart[_id][date1]= msg.sender;\r\n\t\tPreorderend[_id][date1]=date2;\t\r\n\t\tAvailable[_id]=\"Preordered\";\r\n\t\t\t\tsuc = true;\r\n\t\t}\r\n\t\treturn suc;\r\n\t\t}\r\n\r\n\tfunction CheckAvialable(uint256 idA,uint256 _dataStart, uint256 _dataEnd) public returns(bool ret) {\r\n\t\t\r\n\t\t\t\t//in caso in cui sia occupato controllare se le date inserite sia valide per il preorder\r\n\t\tif(keccak256(bytes(Available[idA])) == keccak256(bytes(\"Preordered\"))||keccak256(bytes(Available[idA])) == keccak256(bytes(\"Busy\"))){\r\n\t\t\tret = true;\r\n\r\n\t\t\t\tfor(uint256 i=0; i < PreorderOpen[idA].length; i++){\r\n\t\t\t\tif( PreorderOpen[idA][i]>0 ){\r\n\t\t\t\t\tif((PreorderOpen[idA][i]<= _dataStart && _dataStart<=Preorderend[idA][PreorderOpen[idA][i]])\r\n\t\t\t\t\t\t|| (PreorderOpen[idA][i] == _dataStart) || (Preorderend[idA][PreorderOpen[idA][i]] == _dataStart)\r\n\t\t\t\t\t\t|| (PreorderOpen[idA][i] == _dataEnd )  || (Preorderend[idA][PreorderOpen[idA][i]] == _dataEnd)\r\n\t\t\t\t\t\t|| (PreorderOpen[idA][i] <= _dataEnd && _dataEnd<=Preorderend[idA][PreorderOpen[idA][i]])\r\n\t\t\t\t\t\t|| (PreorderOpen[idA][i]<= _dataEnd && _dataEnd<=Preorderend[idA][PreorderOpen[idA][i]])\r\n\t\t\t\t\t\t|| (_dataStart<= PreorderOpen[idA][i] && Preorderend[idA][PreorderOpen[idA][i]]<=_dataEnd)\r\n\t\t\t\t\t\t){\r\n\t\t\t\t\t\tret = false;\r\n\t\t\t\t\t\ti = PreorderOpen[idA].length;\r\n\t\t\t\t\t}\r\n\r\n\t\t\t\t}\r\n\t\t\t}\r\n\r\n\t\t/*\r\n\t\t\tfor(uint256 i=_dataStart;i <= _dataEnd;i= i + 14400){\r\n\t\t\t\tif(Preorderstart[idA][i]!=address(0x0) || Preorderend[idA][i]==i){\r\n\t\t\t\t\tret =false;\r\n\t\t\t\t\ttest=\"Sono Qui\";\r\n\r\n\t\t\t\t}\r\n\t\t\t}*/\r\n\t\t}\r\n\t\tif(keccak256(bytes(Available[idA])) == keccak256(bytes(\"Available\"))){\r\n\t\tret = true;\r\n\t\t}\r\n\t\treturn ret;\r\n\r\n\t\t//creare un evento per data suggerita nel caso l'item non sia disponibile\r\n\r\n\t}\t\r\n\tfunction Update()internal {\r\n\t\t\t\t\r\n\t\t\t}\r\n\tfunction setAvailable(uint256 idA,string memory Status)public returns(bool){\r\n\tif(keccak256(bytes(Status)) == keccak256(bytes(\"Busy\"))||keccak256(bytes(Status)) == keccak256(bytes(\"Available\"))||keccak256(bytes(Status)) == keccak256(bytes(\"Waiting\")) ){\r\n\t\t\tAvailable[idA]=Status;\r\n\t\t\treturn true;\r\n\t\t\r\n\t\t}\r\n\t\treturn false;\r\n\r\n\t\t\t}\t\t\t\t\r\nfunction setFusoOraio()public{\r\n\tif (fusoorario==0){\r\n\t\tfusoorario= 3600;\r\n\t}\r\n\telse{\r\n\t\tfusoorario=0;\r\n\t}\r\n}\r\nfunction Relese(uint256 _id1) external{\r\n\t require(keccak256(bytes(Available[_id1])) == keccak256(bytes(\"Waiting\")));\r\n\t  bool k;\r\n          k = setAvailable(_id1,\"Available\"); \r\n          require(k == true, \"Non disponibile3\");\r\n}\r\nfunction Converter(uint256 date, bool next)public returns(uint256){\r\n     uint256 lest;\r\n     if(next)\r\n     lest = 14400;\r\n    uint256 date1 = date % 86400; //tempo mod giorni\r\n    date1= date1 % 14400;  //mod 4 ore\r\n\t\tdate1 = date - date1 + lest; //avro il giorno attuale + a mod di 4 ore\r\n                               //es 6 nov - 0:00 - 4:00 - 8:00 - 12:00 - 16:00 ecc... \r\n                               //se sono le 17:11 la prenotazione sar allo slot successivo\r\n                               //alle 20\r\n                               return date1;\r\n}\r\nfunction AcquirePre(uint256 _dateS,uint256 idP) public returns(bool ret){\r\n\tret = false;\r\n\tTime();\r\n  \r\n  uint256 time1 = Converter(time,false);\r\n//PreorderOpen verificare la data che ci sia come il proprietario del pre-ordine sia \r\n//quello giusto\r\n\r\n\r\n\r\n}\r\n\t\r\n}",
  "sourcePath": "C:\\Users\\Luca\\Desktop\\tesi\\My-tesi\\src\\contracts\\LitemCalendar.sol",
  "compiler": {
    "name": "solc",
    "version": "0.8.10+commit.fc410830.Emscripten.clang"
  },
  "schemaVersion": "3.4.1",
  "updatedAt": "2021-11-22T17:15:31.156Z",
  "devdoc": {
    "kind": "dev",
    "methods": {},
    "version": 1
  },
  "userdoc": {
    "kind": "user",
    "methods": {},
    "version": 1
  }
}