{
  "contractName": "Calendar",
  "abi": [
    {
      "inputs": [],
      "stateMutability": "nonpayable",
      "type": "constructor"
    },
    {
      "inputs": [
        {
          "internalType": "uint256",
          "name": "",
          "type": "uint256"
        }
      ],
      "name": "Available",
      "outputs": [
        {
          "internalType": "string",
          "name": "",
          "type": "string"
        }
      ],
      "stateMutability": "view",
      "type": "function"
    },
    {
      "inputs": [],
      "name": "Orders",
      "outputs": [
        {
          "internalType": "uint256",
          "name": "",
          "type": "uint256"
        }
      ],
      "stateMutability": "view",
      "type": "function"
    },
    {
      "inputs": [
        {
          "internalType": "uint256",
          "name": "",
          "type": "uint256"
        },
        {
          "internalType": "uint256",
          "name": "",
          "type": "uint256"
        }
      ],
      "name": "PreorderOpen",
      "outputs": [
        {
          "internalType": "uint256",
          "name": "",
          "type": "uint256"
        }
      ],
      "stateMutability": "view",
      "type": "function"
    },
    {
      "inputs": [
        {
          "internalType": "uint256",
          "name": "",
          "type": "uint256"
        },
        {
          "internalType": "uint256",
          "name": "",
          "type": "uint256"
        }
      ],
      "name": "Preorderend",
      "outputs": [
        {
          "internalType": "uint256",
          "name": "",
          "type": "uint256"
        }
      ],
      "stateMutability": "view",
      "type": "function"
    },
    {
      "inputs": [
        {
          "internalType": "uint256",
          "name": "",
          "type": "uint256"
        },
        {
          "internalType": "uint256",
          "name": "",
          "type": "uint256"
        }
      ],
      "name": "Preorderstart",
      "outputs": [
        {
          "internalType": "address",
          "name": "",
          "type": "address"
        }
      ],
      "stateMutability": "view",
      "type": "function"
    },
    {
      "inputs": [],
      "name": "time",
      "outputs": [
        {
          "internalType": "uint256",
          "name": "",
          "type": "uint256"
        }
      ],
      "stateMutability": "view",
      "type": "function"
    },
    {
      "inputs": [],
      "name": "Time",
      "outputs": [
        {
          "internalType": "uint256",
          "name": "",
          "type": "uint256"
        }
      ],
      "stateMutability": "nonpayable",
      "type": "function"
    },
    {
      "inputs": [
        {
          "internalType": "uint256",
          "name": "i",
          "type": "uint256"
        }
      ],
      "name": "TimeAdd",
      "outputs": [],
      "stateMutability": "nonpayable",
      "type": "function"
    },
    {
      "inputs": [
        {
          "internalType": "uint256",
          "name": "dataStart",
          "type": "uint256"
        },
        {
          "internalType": "uint256",
          "name": "dataEnd",
          "type": "uint256"
        },
        {
          "internalType": "uint256",
          "name": "_id",
          "type": "uint256"
        },
        {
          "internalType": "address",
          "name": "_usr",
          "type": "address"
        }
      ],
      "name": "Pre_Order",
      "outputs": [
        {
          "internalType": "bool",
          "name": "suc",
          "type": "bool"
        }
      ],
      "stateMutability": "nonpayable",
      "type": "function"
    },
    {
      "inputs": [
        {
          "internalType": "uint256",
          "name": "idA",
          "type": "uint256"
        },
        {
          "internalType": "uint256",
          "name": "_dataStart",
          "type": "uint256"
        },
        {
          "internalType": "uint256",
          "name": "_dataEnd",
          "type": "uint256"
        }
      ],
      "name": "CheckAvialable",
      "outputs": [
        {
          "internalType": "bool",
          "name": "ret",
          "type": "bool"
        }
      ],
      "stateMutability": "nonpayable",
      "type": "function"
    },
    {
      "inputs": [],
      "name": "Update",
      "outputs": [],
      "stateMutability": "nonpayable",
      "type": "function"
    },
    {
      "inputs": [
        {
          "internalType": "uint256",
          "name": "idA",
          "type": "uint256"
        },
        {
          "internalType": "string",
          "name": "Status",
          "type": "string"
        }
      ],
      "name": "setAvailable",
      "outputs": [
        {
          "internalType": "bool",
          "name": "",
          "type": "bool"
        }
      ],
      "stateMutability": "nonpayable",
      "type": "function"
    },
    {
      "inputs": [],
      "name": "setFusoOraio",
      "outputs": [],
      "stateMutability": "nonpayable",
      "type": "function"
    },
    {
      "inputs": [
        {
          "internalType": "uint256",
          "name": "_id1",
          "type": "uint256"
        },
        {
          "internalType": "uint256",
          "name": "_dateS",
          "type": "uint256"
        }
      ],
      "name": "Back",
      "outputs": [
        {
          "internalType": "bool",
          "name": "",
          "type": "bool"
        }
      ],
      "stateMutability": "nonpayable",
      "type": "function"
    },
    {
      "inputs": [
        {
          "internalType": "uint256",
          "name": "date",
          "type": "uint256"
        },
        {
          "internalType": "bool",
          "name": "next",
          "type": "bool"
        }
      ],
      "name": "Converter",
      "outputs": [
        {
          "internalType": "uint256",
          "name": "",
          "type": "uint256"
        }
      ],
      "stateMutability": "view",
      "type": "function"
    },
    {
      "inputs": [
        {
          "internalType": "uint256",
          "name": "idP",
          "type": "uint256"
        },
        {
          "internalType": "address",
          "name": "usr",
          "type": "address"
        }
      ],
      "name": "AcquirePre",
      "outputs": [
        {
          "internalType": "bool",
          "name": "ret",
          "type": "bool"
        }
      ],
      "stateMutability": "nonpayable",
      "type": "function"
    },
    {
      "inputs": [
        {
          "internalType": "uint256",
          "name": "idP",
          "type": "uint256"
        },
        {
          "internalType": "address",
          "name": "usr",
          "type": "address"
        },
        {
          "internalType": "uint256",
          "name": "_dataF",
          "type": "uint256"
        }
      ],
      "name": "Acquire",
      "outputs": [
        {
          "internalType": "bool",
          "name": "ret",
          "type": "bool"
        }
      ],
      "stateMutability": "nonpayable",
      "type": "function"
    },
    {
      "inputs": [
        {
          "internalType": "uint256",
          "name": "i",
          "type": "uint256"
        }
      ],
      "name": "preOrderOpenGet",
      "outputs": [
        {
          "internalType": "uint256[]",
          "name": "",
          "type": "uint256[]"
        }
      ],
      "stateMutability": "view",
      "type": "function"
    },
    {
      "inputs": [
        {
          "internalType": "uint256",
          "name": "_id1",
          "type": "uint256"
        }
      ],
      "name": "Relese",
      "outputs": [],
      "stateMutability": "nonpayable",
      "type": "function"
    }
  ],
  "bytecode": "0x608060405234801561001057600080fd5b506128d8806100206000396000f3fe608060405234801561001057600080fd5b50600436106101215760003560e01c8063580f79d3116100ad578063af4b7f1411610071578063af4b7f1414610354578063b99ad1bc1461035e578063d9d92d1e1461038e578063e201d8bd146103be578063f8e157ea146103ee57610121565b8063580f79d31461028a57806360a48f7c146102a857806394cfd453146102d85780639ff3b46d14610308578063ae59e24b1461033857610121565b80633097c98e116100f45780633097c98e146101ae57806335b67731146101de5780634abc93251461020e5780634bbbff061461022a5780634e2b132e1461025a57610121565b806304e4deaa1461012657806316ada547146101565780631b227ed71461017457806323ba900e146101a4575b600080fd5b610140600480360381019061013b9190611d04565b61040c565b60405161014d9190611d53565b60405180910390f35b61015e610462565b60405161016b9190611d53565b60405180910390f35b61018e60048036038101906101899190611dcc565b610468565b60405161019b9190611e1b565b60405180910390f35b6101ac6106d1565b005b6101c860048036038101906101c39190611e36565b6106f5565b6040516101d59190611e1b565b60405180910390f35b6101f860048036038101906101f39190611e9d565b6109b0565b6040516102059190611f63565b60405180910390f35b61022860048036038101906102239190611e9d565b610a50565b005b610244600480360381019061023f9190611f85565b610c40565b6040516102519190611e1b565b60405180910390f35b610274600480360381019061026f9190611e9d565b610e9c565b6040516102819190612083565b60405180910390f35b610292610f07565b60405161029f9190611d53565b60405180910390f35b6102c260048036038101906102bd91906120a5565b610f0d565b6040516102cf9190611e1b565b60405180910390f35b6102f260048036038101906102ed9190611f85565b61159b565b6040516102ff9190611d53565b60405180910390f35b610322600480360381019061031d919061222d565b6115c0565b60405161032f9190611e1b565b60405180910390f35b610352600480360381019061034d9190611e9d565b611730565b005b61035c611747565b005b61037860048036038101906103739190611f85565b6119ad565b6040516103859190611d53565b60405180910390f35b6103a860048036038101906103a39190612289565b6119de565b6040516103b59190611e1b565b60405180910390f35b6103d860048036038101906103d39190611f85565b611b7f565b6040516103e591906122eb565b60405180910390f35b6103f6611bc1565b6040516104039190611d53565b60405180910390f35b600080821561041b5761384090505b6000620151808561042c9190612335565b90506138408161043c9190612335565b905081818661044b9190612395565b61045591906123c9565b9050809250505092915050565b60035481565b6000610472611747565b60005b60076000858152602001908152602001600020805490508110156106c9578273ffffffffffffffffffffffffffffffffffffffff1660008086815260200190815260200160002060006007600088815260200190815260200160002084815481106104e3576104e261241f565b5b9060005260206000200154815260200190815260200160002060009054906101000a900473ffffffffffffffffffffffffffffffffffffffff1673ffffffffffffffffffffffffffffffffffffffff1614156106b65760076000858152602001908152602001600020818154811061055e5761055d61241f565b5b90600052602060002001546003541015801561064957506040518060400160405280600981526020017f417661696c61626c65000000000000000000000000000000000000000000000081525080519060200120600260008681526020019081526020016000206040516105d2919061254e565b6040518091039020148061064857506040518060400160405280600a81526020017f5072656f72646572656400000000000000000000000000000000000000000000815250805190602001206002600086815260200190815260200160002060405161063e919061254e565b6040518091039020145b5b156106b5576040518060400160405280600481526020017f42757379000000000000000000000000000000000000000000000000000000008152506002600086815260200190815260200160002090805190602001906106aa929190611bdf565b5060019150506106cb565b5b80806106c190612565565b915050610475565b505b92915050565b600060045414156106ea57610e106004819055506106f3565b60006004819055505b565b6000808514156107055760035494505b600090506000841161074c576040517f08c379a0000000000000000000000000000000000000000000000000000000008152600401610743906125fa565b60405180910390fd5b846003541115610791576040517f08c379a000000000000000000000000000000000000000000000000000000000815260040161078890612666565b60405180910390fd5b600061079e86600161040c565b905060006107ad86600161040c565b90508082106107f1576040517f08c379a00000000000000000000000000000000000000000000000000000000081526004016107e8906126d2565b60405180910390fd5b60065485111561080357846006819055505b61080e858383610f0d565b156109a6576007600086815260200190815260200160002082908060018154018082558091505060019003906000526020600020016000909190919091505583600080878152602001908152602001600020600084815260200190815260200160002060006101000a81548173ffffffffffffffffffffffffffffffffffffffff021916908373ffffffffffffffffffffffffffffffffffffffff1602179055508060016000878152602001908152602001600020600084815260200190815260200160002081905550600260008681526020019081526020016000206040516108f8919061254e565b60405180910390206040518060400160405280600981526020017f417661696c61626c6500000000000000000000000000000000000000000000008152508051906020012014156109a1576040518060400160405280600a81526020017f5072656f7264657265640000000000000000000000000000000000000000000081525060026000878152602001908152602001600020908051906020019061099f929190611bdf565b505b600192505b5050949350505050565b600260205280600052604060002060009150905080546109cf9061247d565b80601f01602080910402602001604051908101604052809291908181526020018280546109fb9061247d565b8015610a485780601f10610a1d57610100808354040283529160200191610a48565b820191906000526020600020905b815481529060010190602001808311610a2b57829003601f168201915b505050505081565b6040518060400160405280600781526020017f57616974696e67000000000000000000000000000000000000000000000000008152508051906020012060026000838152602001908152602001600020604051610aad919061254e565b604051809103902014610af5576040517f08c379a0000000000000000000000000000000000000000000000000000000008152600401610aec9061273e565b60405180910390fd5b6000610b228262015f90600354610b0c9190612395565b62278d00600354610b1d91906123c9565b610f0d565b610bb357610b65826040518060400160405280600a81526020017f5072656f726465726564000000000000000000000000000000000000000000008152506115c0565b90506001151581151514610bae576040517f08c379a0000000000000000000000000000000000000000000000000000000008152600401610ba5906127aa565b60405180910390fd5b610c3c565b610bf2826040518060400160405280600981526020017f417661696c61626c6500000000000000000000000000000000000000000000008152506115c0565b90506001151581151514610c3b576040517f08c379a0000000000000000000000000000000000000000000000000000000008152600401610c32906127aa565b60405180910390fd5b5b5050565b6000610c4d82600061040c565b915060006001600085815260200190815260200160002060008481526020019081526020016000205411610cb6576040517f08c379a0000000000000000000000000000000000000000000000000000000008152600401610cad90612816565b60405180910390fd5b6040518060400160405280600481526020017f42757379000000000000000000000000000000000000000000000000000000008152508051906020012060026000858152602001908152602001600020604051610d13919061254e565b6040518091039020148015610d285750600082115b15610e91576000610d6e846040518060400160405280600781526020017f57616974696e67000000000000000000000000000000000000000000000000008152506115c0565b90508015610e8f57600080858152602001908152602001600020600084815260200190815260200160002060006101000a81549073ffffffffffffffffffffffffffffffffffffffff02191690556001600085815260200190815260200160002060008481526020019081526020016000206000905560005b6007600086815260200190815260200160002080549050811015610e8d5783600760008781526020019081526020016000208281548110610e2b57610e2a61241f565b5b90600052602060002001541415610e7a57600760008681526020019081526020016000208181548110610e6157610e6061241f565b5b9060005260206000200160009055600192505050610e96565b8080610e8590612565565b915050610de7565b505b505b600090505b92915050565b606060076000838152602001908152602001600020805480602002602001604051908101604052809291908181526020018280548015610efb57602002820191906000526020600020905b815481526020019060010190808311610ee7575b50505050509050919050565b60065481565b60006040518060400160405280600a81526020017f5072656f726465726564000000000000000000000000000000000000000000008152508051906020012060026000868152602001908152602001600020604051610f6c919061254e565b60405180910390201480610fe257506040518060400160405280600481526020017f42757379000000000000000000000000000000000000000000000000000000008152508051906020012060026000868152602001908152602001600020604051610fd8919061254e565b6040518091039020145b8061104f57506040518060400160405280600781526020017f57616974696e67000000000000000000000000000000000000000000000000008152508051906020012060026000868152602001908152602001600020604051611045919061254e565b6040518091039020145b15611523576001905060005b60076000868152602001908152602001600020805490508110156115215760006007600087815260200190815260200160002082815481106110a05761109f61241f565b5b90600052602060002001541180156111575750600073ffffffffffffffffffffffffffffffffffffffff1660008087815260200190815260200160002060006007600089815260200190815260200160002084815481106111045761110361241f565b5b9060005260206000200154815260200190815260200160002060009054906101000a900473ffffffffffffffffffffffffffffffffffffffff1673ffffffffffffffffffffffffffffffffffffffff1614155b1561150e57836007600087815260200190815260200160002082815481106111825761118161241f565b5b9060005260206000200154111580156111ee57506001600086815260200190815260200160002060006007600088815260200190815260200160002083815481106111d0576111cf61241f565b5b90600052602060002001548152602001908152602001600020548411155b8061122757508360076000878152602001908152602001600020828154811061121a5761121961241f565b5b9060005260206000200154145b806112845750836001600087815260200190815260200160002060006007600089815260200190815260200160002084815481106112685761126761241f565b5b9060005260206000200154815260200190815260200160002054145b806112bd5750826007600087815260200190815260200160002082815481106112b0576112af61241f565b5b9060005260206000200154145b8061131a5750826001600087815260200190815260200160002060006007600089815260200190815260200160002084815481106112fe576112fd61241f565b5b9060005260206000200154815260200190815260200160002054145b806113b35750826007600087815260200190815260200160002082815481106113465761134561241f565b5b9060005260206000200154111580156113b257506001600086815260200190815260200160002060006007600088815260200190815260200160002083815481106113945761139361241f565b5b90600052602060002001548152602001908152602001600020548311155b5b8061144c5750826007600087815260200190815260200160002082815481106113df576113de61241f565b5b90600052602060002001541115801561144b575060016000868152602001908152602001600020600060076000888152602001908152602001600020838154811061142d5761142c61241f565b5b90600052602060002001548152602001908152602001600020548311155b5b806114e557506007600086815260200190815260200160002081815481106114775761147661241f565b5b906000526020600020015484111580156114e45750826001600087815260200190815260200160002060006007600089815260200190815260200160002084815481106114c7576114c661241f565b5b906000526020600020015481526020019081526020016000205411155b5b1561150d57600760008681526020019081526020016000208054905090506000915050611594565b5b808061151990612565565b91505061105b565b505b6040518060400160405280600981526020017f417661696c61626c6500000000000000000000000000000000000000000000008152508051906020012060026000868152602001908152602001600020604051611580919061254e565b6040518091039020141561159357600190505b5b9392505050565b6001602052816000526040600020602052806000526040600020600091509150505481565b60006040518060400160405280600481526020017f4275737900000000000000000000000000000000000000000000000000000000815250805190602001208280519060200120148061165557506040518060400160405280600981526020017f417661696c61626c650000000000000000000000000000000000000000000000815250805190602001208280519060200120145b806116a257506040518060400160405280600781526020017f57616974696e6700000000000000000000000000000000000000000000000000815250805190602001208280519060200120145b806116ef57506040518060400160405280600a81526020017f5072656f72646572656400000000000000000000000000000000000000000000815250805190602001208280519060200120145b15611725578160026000858152602001908152602001600020908051906020019061171b929190611bdf565b506001905061172a565b600090505b92915050565b8060035461173e91906123c9565b60038190555050565b60005b60065481116119aa576040518060400160405280600a81526020017f5072656f7264657265640000000000000000000000000000000000000000000081525080519060200120600260008381526020019081526020016000206040516117b0919061254e565b604051809103902014156119975760005b6007600083815260200190815260200160002080549050811015611995576007600083815260200190815260200160002081815481106118045761180361241f565b5b9060005260206000200154620151806003546118209190612395565b1061198257600080838152602001908152602001600020600060076000858152602001908152602001600020838154811061185e5761185d61241f565b5b9060005260206000200154815260200190815260200160002060006101000a81549073ffffffffffffffffffffffffffffffffffffffff02191690556001600083815260200190815260200160002060006007600085815260200190815260200160002083815481106118d4576118d361241f565b5b90600052602060002001548152602001908152602001600020600090556040518060400160405280600781526020017f57616974696e670000000000000000000000000000000000000000000000000081525060026000848152602001908152602001600020908051906020019061194d929190611bdf565b506007600083815260200190815260200160002081815481106119735761197261241f565b5b90600052602060002001600090555b808061198d90612565565b9150506117c1565b505b80806119a290612565565b91505061174a565b50565b600760205281600052604060002081815481106119c957600080fd5b90600052602060002001600091509150505481565b60006119e8611747565b600354821115611b73576000611a33856040518060400160405280600481526020017f42757379000000000000000000000000000000000000000000000000000000008152506115c0565b90506001151581151514611a7c576040517f08c379a0000000000000000000000000000000000000000000000000000000008152600401611a7390612882565b60405180910390fd5b6000611a86611bc1565b50611a94600354600061040c565b9050611aa184600161040c565b93506007600087815260200190815260200160002081908060018154018082558091505060019003906000526020600020016000909190919091505584600080888152602001908152602001600020600083815260200190815260200160002060006101000a81548173ffffffffffffffffffffffffffffffffffffffff021916908373ffffffffffffffffffffffffffffffffffffffff1602179055508360016000888152602001908152602001600020600083815260200190815260200160002081905550600192505050611b78565b600090505b9392505050565b60006020528160005260406000206020528060005260406000206000915091509054906101000a900473ffffffffffffffffffffffffffffffffffffffff1681565b600060045442611bd191906123c9565b600381905550600354905090565b828054611beb9061247d565b90600052602060002090601f016020900481019282611c0d5760008555611c54565b82601f10611c2657805160ff1916838001178555611c54565b82800160010185558215611c54579182015b82811115611c53578251825591602001919060010190611c38565b5b509050611c619190611c65565b5090565b5b80821115611c7e576000816000905550600101611c66565b5090565b6000604051905090565b600080fd5b600080fd5b6000819050919050565b611ca981611c96565b8114611cb457600080fd5b50565b600081359050611cc681611ca0565b92915050565b60008115159050919050565b611ce181611ccc565b8114611cec57600080fd5b50565b600081359050611cfe81611cd8565b92915050565b60008060408385031215611d1b57611d1a611c8c565b5b6000611d2985828601611cb7565b9250506020611d3a85828601611cef565b9150509250929050565b611d4d81611c96565b82525050565b6000602082019050611d686000830184611d44565b92915050565b600073ffffffffffffffffffffffffffffffffffffffff82169050919050565b6000611d9982611d6e565b9050919050565b611da981611d8e565b8114611db457600080fd5b50565b600081359050611dc681611da0565b92915050565b60008060408385031215611de357611de2611c8c565b5b6000611df185828601611cb7565b9250506020611e0285828601611db7565b9150509250929050565b611e1581611ccc565b82525050565b6000602082019050611e306000830184611e0c565b92915050565b60008060008060808587031215611e5057611e4f611c8c565b5b6000611e5e87828801611cb7565b9450506020611e6f87828801611cb7565b9350506040611e8087828801611cb7565b9250506060611e9187828801611db7565b91505092959194509250565b600060208284031215611eb357611eb2611c8c565b5b6000611ec184828501611cb7565b91505092915050565b600081519050919050565b600082825260208201905092915050565b60005b83811015611f04578082015181840152602081019050611ee9565b83811115611f13576000848401525b50505050565b6000601f19601f8301169050919050565b6000611f3582611eca565b611f3f8185611ed5565b9350611f4f818560208601611ee6565b611f5881611f19565b840191505092915050565b60006020820190508181036000830152611f7d8184611f2a565b905092915050565b60008060408385031215611f9c57611f9b611c8c565b5b6000611faa85828601611cb7565b9250506020611fbb85828601611cb7565b9150509250929050565b600081519050919050565b600082825260208201905092915050565b6000819050602082019050919050565b611ffa81611c96565b82525050565b600061200c8383611ff1565b60208301905092915050565b6000602082019050919050565b600061203082611fc5565b61203a8185611fd0565b935061204583611fe1565b8060005b8381101561207657815161205d8882612000565b975061206883612018565b925050600181019050612049565b5085935050505092915050565b6000602082019050818103600083015261209d8184612025565b905092915050565b6000806000606084860312156120be576120bd611c8c565b5b60006120cc86828701611cb7565b93505060206120dd86828701611cb7565b92505060406120ee86828701611cb7565b9150509250925092565b600080fd5b600080fd5b7f4e487b7100000000000000000000000000000000000000000000000000000000600052604160045260246000fd5b61213a82611f19565b810181811067ffffffffffffffff8211171561215957612158612102565b5b80604052505050565b600061216c611c82565b90506121788282612131565b919050565b600067ffffffffffffffff82111561219857612197612102565b5b6121a182611f19565b9050602081019050919050565b82818337600083830152505050565b60006121d06121cb8461217d565b612162565b9050828152602081018484840111156121ec576121eb6120fd565b5b6121f78482856121ae565b509392505050565b600082601f830112612214576122136120f8565b5b81356122248482602086016121bd565b91505092915050565b6000806040838503121561224457612243611c8c565b5b600061225285828601611cb7565b925050602083013567ffffffffffffffff81111561227357612272611c91565b5b61227f858286016121ff565b9150509250929050565b6000806000606084860312156122a2576122a1611c8c565b5b60006122b086828701611cb7565b93505060206122c186828701611db7565b92505060406122d286828701611cb7565b9150509250925092565b6122e581611d8e565b82525050565b600060208201905061230060008301846122dc565b92915050565b7f4e487b7100000000000000000000000000000000000000000000000000000000600052601260045260246000fd5b600061234082611c96565b915061234b83611c96565b92508261235b5761235a612306565b5b828206905092915050565b7f4e487b7100000000000000000000000000000000000000000000000000000000600052601160045260246000fd5b60006123a082611c96565b91506123ab83611c96565b9250828210156123be576123bd612366565b5b828203905092915050565b60006123d482611c96565b91506123df83611c96565b9250827fffffffffffffffffffffffffffffffffffffffffffffffffffffffffffffffff0382111561241457612413612366565b5b828201905092915050565b7f4e487b7100000000000000000000000000000000000000000000000000000000600052603260045260246000fd5b7f4e487b7100000000000000000000000000000000000000000000000000000000600052602260045260246000fd5b6000600282049050600182168061249557607f821691505b602082108114156124a9576124a861244e565b5b50919050565b600081905092915050565b60008190508160005260206000209050919050565b600081546124dc8161247d565b6124e681866124af565b94506001821660008114612501576001811461251257612545565b60ff19831686528186019350612545565b61251b856124ba565b60005b8381101561253d5781548189015260018201915060208101905061251e565b838801955050505b50505092915050565b600061255a82846124cf565b915081905092915050565b600061257082611c96565b91507fffffffffffffffffffffffffffffffffffffffffffffffffffffffffffffffff8214156125a3576125a2612366565b5b600182019050919050565b7f64617461456e6420697320300000000000000000000000000000000000000000600082015250565b60006125e4600c83611ed5565b91506125ef826125ae565b602082019050919050565b60006020820190508181036000830152612613816125d7565b9050919050565b7f4e6f7420706f737369626c6520696e2074686520706173740000000000000000600082015250565b6000612650601883611ed5565b915061265b8261261a565b602082019050919050565b6000602082019050818103600083015261267f81612643565b9050919050565b7f3c00000000000000000000000000000000000000000000000000000000000000600082015250565b60006126bc600183611ed5565b91506126c782612686565b602082019050919050565b600060208201905081810360008301526126eb816126af565b9050919050565b7f4d6120636f736100000000000000000000000000000000000000000000000000600082015250565b6000612728600783611ed5565b9150612733826126f2565b602082019050919050565b600060208201905081810360008301526127578161271b565b9050919050565b7f4e6f6e20646973706f6e6962696c653300000000000000000000000000000000600082015250565b6000612794601083611ed5565b915061279f8261275e565b602082019050919050565b600060208201905081810360008301526127c381612787565b9050919050565b7f4572726f72650000000000000000000000000000000000000000000000000000600082015250565b6000612800600683611ed5565b915061280b826127ca565b602082019050919050565b6000602082019050818103600083015261282f816127f3565b9050919050565b7f4e6f6e20646973706f6e6962696c653200000000000000000000000000000000600082015250565b600061286c601083611ed5565b915061287782612836565b602082019050919050565b6000602082019050818103600083015261289b8161285f565b905091905056fea2646970667358221220aae7e8189a5255f2eb3cb31849524856d27ef91e258a1f152c83c42523e4e96564736f6c634300080c0033",
  "immutableReferences": {},
  "source": "\npragma solidity ^0.8.0;\n\n\n\ncontract Calendar   {\n\t\n\t  mapping(uint256=>mapping(uint256=>address)) public Preorderstart;\n\t  mapping(uint256=>mapping(uint256=>uint256)) public Preorderend;\n    mapping(uint256 => string) public Available;\n    uint256 public time;\n    uint256 fusoorario;\n    uint256[] Status;\n    uint256 public Orders;\n    mapping(uint256=>uint256[]) public PreorderOpen;\n  \n\tconstructor() public { \n      \n\n\n\n\t}\n  \tfunction Time() public returns(uint256) {\n        time = block.timestamp+ fusoorario;\n        return time;\n      }\n\t/*Funzione per testare le scadenze in update*/\n   \n      function TimeAdd(uint256 i) public {\n        \n        time = time + i;\n      }\n\tfunction Pre_Order(uint256 dataStart, uint256 dataEnd, uint256 _id,address _usr)  external returns(bool suc) {\n  //  Time();\n\n    if(dataStart==0){\n    dataStart= time;\n  \t}\n    suc = false;\n   \trequire(dataEnd>0,\"dataEnd is 0\");\n    require(time <= dataStart,\"Not possible in the past\");\n    uint256 date1 = Converter(dataStart,true);\n    uint256 date2 = Converter(dataEnd,true);\n\n\n   \n\t\trequire(date1<date2,\"<\");//la prenotazione vale almeno se dura 4 ore\n      if(_id>Orders)\n        Orders= _id;\n\n        if(CheckAvialable(_id,date1,date2)){\n    PreorderOpen[_id].push(date1);\n\t\tPreorderstart[_id][date1]= _usr;\n\t\tPreorderend[_id][date1]=date2;\n\t\tif(keccak256(bytes(\"Available\"))==keccak256(bytes(Available[_id])))\t\n\t\tAvailable[_id]=\"Preordered\";\n\t\t\t\tsuc = true;\n\t\t}\n\t\treturn suc;\n\t\t}\n\n\tfunction CheckAvialable(uint256 idA,uint256 _dataStart, uint256 _dataEnd) public returns(bool ret) {\n\t\t\n\t\t\t\t//in caso in cui sia occupato controllare se le date inserite sia valide per il preorder\n\t\tif(keccak256(bytes(Available[idA])) == keccak256(bytes(\"Preordered\"))||keccak256(bytes(Available[idA])) == keccak256(bytes(\"Busy\")) || keccak256(bytes(Available[idA])) == keccak256(bytes(\"Waiting\"))){\n\t\t\tret = true;\n\n\t\t\t\tfor(uint256 i=0; i < PreorderOpen[idA].length; i++){\n\t\t\t\tif( PreorderOpen[idA][i]>0 && Preorderstart[idA][PreorderOpen [idA][i]] != address(0x0)){\n\n\n\t\t\t\t\tif((PreorderOpen[idA][i]<= _dataStart && _dataStart<=Preorderend[idA][PreorderOpen[idA][i]])\n\t\t\t\t\t\t|| (PreorderOpen[idA][i] == _dataStart) || (Preorderend[idA][PreorderOpen[idA][i]] == _dataStart)\n\t\t\t\t\t\t|| (PreorderOpen[idA][i] == _dataEnd )  || (Preorderend[idA][PreorderOpen[idA][i]] == _dataEnd)\n\t\t\t\t\t\t|| (PreorderOpen[idA][i] <= _dataEnd && _dataEnd<=Preorderend[idA][PreorderOpen[idA][i]])\n\t\t\t\t\t\t|| (PreorderOpen[idA][i]<= _dataEnd && _dataEnd<=Preorderend[idA][PreorderOpen[idA][i]])\n\t\t\t\t\t\t|| (_dataStart<= PreorderOpen[idA][i] && Preorderend[idA][PreorderOpen[idA][i]]<=_dataEnd)\n\t\t\t\t\t\t){\n\t\t\t\t\t\ti = PreorderOpen[idA].length;\n\t\t\t\t\t\n\t\t\t\t\t\tret = false;\n\t\t\t\t\t\treturn ret;\n\n\t\t\t\t\t\t\n\t\t\t\t\t}\n\n\t\t\t\t}\n\t\t\t}\n\n\t\t/*\n\t\t\tfor(uint256 i=_dataStart;i <= _dataEnd;i= i + 14400){\n\t\t\t\tif(Preorderstart[idA][i]!=address(0x0) || Preorderend[idA][i]==i){\n\t\t\t\t\tret =false;\n\t\t\t\t\ttest=\"Sono Qui\";\n\n\t\t\t\t}\n\t\t\t}*/\n\t\t}\n\t\tif(keccak256(bytes(Available[idA])) == keccak256(bytes(\"Available\"))){\n\t\tret = true;\n\t\t}\n\t\treturn ret;\n\n\t\t//creare un evento per data suggerita nel caso l'item non sia disponibile\n\n\t}\t\n\tfunction Update()public {\n\t\t//controllo che i preOrdini aperti siano scaduti\n\t\t//se si li cancello e li metto in waiting in attesa che\n\t\t//la cauzione venga restituita\n\t//\tTime();\n\t\tfor(uint256 i; i<= Orders; i++){\n\t\t    if(keccak256(bytes(Available[i])) == keccak256(bytes(\"Preordered\"))){\n\t\t    \tfor(uint256 j;j < PreorderOpen[i].length; j++){\n\t\t\t\t  \n\t\t\t\tif(time - 86400 >= PreorderOpen[i][j]){//caso in cui sia passato un giorno senza aver \n\t\t\t\t\t\t\t\t\t\t\t    //ritirato item adr ad annullare la prenotazione\n\n\t\t\t\tdelete Preorderstart[i][PreorderOpen[i][j]];\n\t\t\t\tdelete Preorderend[i][PreorderOpen[i][j]];\n\t\t\t\tAvailable[i]=\"Waiting\";\n\t\t\t\tdelete PreorderOpen[i][j];\n\t\t\t\t}\n                     \n\n\t\t\t\t}\n\t\t\t}}\n\t\t    }\n\n\n\tfunction setAvailable(uint256 idA,string memory Status)public returns(bool){\n\tif(keccak256(bytes(Status)) == keccak256(bytes(\"Busy\"))||keccak256(bytes(Status)) == keccak256(bytes(\"Available\"))||keccak256(bytes(Status)) == keccak256(bytes(\"Waiting\"))||keccak256(bytes(Status)) == keccak256(bytes(\"Preordered\")) ){\n\t\t\tAvailable[idA]=Status;\n\t\t\treturn true;\n\t\t\n\t\t}\n\t\treturn false;\n\n\t\t\t}\t\t\t\t\nfunction setFusoOraio()public{\n\tif (fusoorario==0){\n\t\tfusoorario= 3600;\n\t}\n\telse{\n\t\tfusoorario=0;\n\t}\n}\nfunction Back(uint256 _id1,uint256 _dateS) external returns(bool){\n\n\t_dateS = Converter(_dateS,false);\n\n    require(Preorderend[_id1][_dateS]>0,\"Errore\");\n\t if(keccak256(bytes(Available[_id1])) == keccak256(bytes(\"Busy\"))&& _dateS>0){\n\n\n\t  bool k;\n          k = setAvailable(_id1,\"Waiting\"); \n         if(k){\n\n\n         delete\tPreorderstart[_id1][_dateS];\n\t\t\t\t delete Preorderend[_id1][_dateS];\n\t\t\t\t for(uint256 i; i< PreorderOpen[_id1].length;i++){\n\t\t\t\t \tif(PreorderOpen[_id1][i]==_dateS){\n\t\t\t\t \t\tdelete PreorderOpen[_id1][i];\n\t\t\t\t \t\treturn true;\n\n\t\t\t\t \t}\n\n         } }\n       }\n       return false;\n}\nfunction Converter(uint256 date, bool next)public view virtual returns(uint256){\n     uint256 lest;\n     if(next)\n     lest = 14400;\n    uint256 date1 = date % 86400; //tempo mod giorni\n    date1= date1 % 14400;  //mod 4 ore\n\t\tdate1 = date - date1 + lest; //avro il giorno attuale + a mod di 4 ore\n                               //es 6 nov - 0:00 - 4:00 - 8:00 - 12:00 - 16:00 ecc... \n                               //se sono le 17:11 la prenotazione sar allo slot successivo\n                               //alle 20\n                               return date1;\n}\nfunction AcquirePre(uint256 idP,address usr) public   returns(bool ret){\n\tret = false;\n\n  Update();\n\n  \t\tfor(uint256 i;i< PreorderOpen[idP].length; i++ ){\n  \t\t\tif(Preorderstart[idP][PreorderOpen[idP][i]]==usr ){//fifo\n  \t\t\t\tif( time>=PreorderOpen[idP][i] && ((keccak256(bytes(Available[idP])) == keccak256(bytes(\"Available\")))|| keccak256(bytes(Available[idP])) == keccak256(bytes(\"Preordered\")))){\n  \t\t\t\tAvailable[idP]=\"Busy\";\t\t\t\t\t\t\t\n  \t\t\t\treturn true;}\n  \t\t}\n\t\t}\t\n//PreorderOpen verificare la data che ci sia come il proprietario del pre-ordine sia \n//quello giusto\n\n\treturn ret;\n}\nfunction Acquire(uint256 idP,address usr,uint256 _dataF) public   returns(bool ret){\n \n\nUpdate();\n \n if(_dataF>time){\n         bool k;\n      k =  setAvailable(idP,\"Busy\"); \n      require(k == true, \"Non disponibile2\");\n      uint256 dateSt;\n      Time();\n\t\t\tdateSt = Converter(time,false);\n   \t\t_dataF = Converter(_dataF,true);\n   \t\tPreorderOpen[idP].push(dateSt);\n   \t\tPreorderstart[idP][dateSt]= usr;\n\t\t  Preorderend[idP][dateSt]=_dataF;\n      return true;\n}\n\nreturn false;}\n\n\t\n\tfunction preOrderOpenGet(uint256 i) external  view virtual returns(uint256[] memory){\n     \n  return  PreorderOpen[i];\n\t}\n  function Relese(uint256 _id1) external{\n  \t//Update();\n\n\t require(keccak256(bytes(Available[_id1])) == keccak256(bytes(\"Waiting\")),\"Ma cosa\");\n\t  bool k;\n\t  if(!(CheckAvialable(_id1,time-90000,time+2592000))){//dataS -1 un giorno, dataE + 30gg \n           k = setAvailable(_id1,\"Preordered\");\n          require(k == true, \"Non disponibile3\");\n          }else{\n          k = setAvailable(_id1,\"Available\"); \n          require(k == true, \"Non disponibile3\");}\n}\n}\n",
  "sourcePath": "C:\\Users\\Luca\\Desktop\\tesi\\My-tesi\\src\\contracts\\LitemCalendar.sol",
  "compiler": {
    "name": "solc",
    "version": "0.8.12+commit.f00d7308.Emscripten.clang"
  },
  "schemaVersion": "3.4.1",
  "updatedAt": "2022-02-21T09:24:04.583Z",
  "devdoc": {
    "kind": "dev",
    "methods": {},
    "version": 1
  },
  "userdoc": {
    "kind": "user",
    "methods": {},
    "version": 1
  }
}