{
  "contractName": "Calendar",
  "abi": [
    {
      "inputs": [],
      "stateMutability": "nonpayable",
      "type": "constructor"
    },
    {
      "inputs": [
        {
          "internalType": "uint256",
          "name": "",
          "type": "uint256"
        }
      ],
      "name": "Available",
      "outputs": [
        {
          "internalType": "string",
          "name": "",
          "type": "string"
        }
      ],
      "stateMutability": "view",
      "type": "function"
    },
    {
      "inputs": [
        {
          "internalType": "uint256",
          "name": "",
          "type": "uint256"
        },
        {
          "internalType": "uint256",
          "name": "",
          "type": "uint256"
        }
      ],
      "name": "PreorderOpen",
      "outputs": [
        {
          "internalType": "uint256",
          "name": "",
          "type": "uint256"
        }
      ],
      "stateMutability": "view",
      "type": "function"
    },
    {
      "inputs": [
        {
          "internalType": "uint256",
          "name": "",
          "type": "uint256"
        },
        {
          "internalType": "uint256",
          "name": "",
          "type": "uint256"
        }
      ],
      "name": "Preorderend",
      "outputs": [
        {
          "internalType": "uint256",
          "name": "",
          "type": "uint256"
        }
      ],
      "stateMutability": "view",
      "type": "function"
    },
    {
      "inputs": [
        {
          "internalType": "uint256",
          "name": "",
          "type": "uint256"
        },
        {
          "internalType": "uint256",
          "name": "",
          "type": "uint256"
        }
      ],
      "name": "Preorderstart",
      "outputs": [
        {
          "internalType": "address",
          "name": "",
          "type": "address"
        }
      ],
      "stateMutability": "view",
      "type": "function"
    },
    {
      "inputs": [
        {
          "internalType": "uint256",
          "name": "i",
          "type": "uint256"
        }
      ],
      "name": "TimeAdd",
      "outputs": [],
      "stateMutability": "nonpayable",
      "type": "function"
    },
    {
      "inputs": [
        {
          "internalType": "uint256",
          "name": "dataStart",
          "type": "uint256"
        },
        {
          "internalType": "uint256",
          "name": "dataEnd",
          "type": "uint256"
        },
        {
          "internalType": "uint256",
          "name": "_id",
          "type": "uint256"
        }
      ],
      "name": "Pre_Order",
      "outputs": [
        {
          "internalType": "bool",
          "name": "suc",
          "type": "bool"
        }
      ],
      "stateMutability": "nonpayable",
      "type": "function"
    },
    {
      "inputs": [
        {
          "internalType": "uint256",
          "name": "idA",
          "type": "uint256"
        },
        {
          "internalType": "uint256",
          "name": "_dataStart",
          "type": "uint256"
        },
        {
          "internalType": "uint256",
          "name": "_dataEnd",
          "type": "uint256"
        }
      ],
      "name": "CheckAvialable",
      "outputs": [
        {
          "internalType": "bool",
          "name": "ret",
          "type": "bool"
        }
      ],
      "stateMutability": "nonpayable",
      "type": "function"
    },
    {
      "inputs": [],
      "name": "Update",
      "outputs": [],
      "stateMutability": "nonpayable",
      "type": "function"
    },
    {
      "inputs": [
        {
          "internalType": "uint256",
          "name": "idA",
          "type": "uint256"
        },
        {
          "internalType": "string",
          "name": "Status",
          "type": "string"
        }
      ],
      "name": "setAvailable",
      "outputs": [
        {
          "internalType": "bool",
          "name": "",
          "type": "bool"
        }
      ],
      "stateMutability": "nonpayable",
      "type": "function"
    },
    {
      "inputs": [],
      "name": "setFusoOraio",
      "outputs": [],
      "stateMutability": "nonpayable",
      "type": "function"
    },
    {
      "inputs": [
        {
          "internalType": "uint256",
          "name": "_id1",
          "type": "uint256"
        }
      ],
      "name": "Relese",
      "outputs": [],
      "stateMutability": "nonpayable",
      "type": "function"
    },
    {
      "inputs": [
        {
          "internalType": "uint256",
          "name": "date",
          "type": "uint256"
        },
        {
          "internalType": "bool",
          "name": "next",
          "type": "bool"
        }
      ],
      "name": "Converter",
      "outputs": [
        {
          "internalType": "uint256",
          "name": "",
          "type": "uint256"
        }
      ],
      "stateMutability": "view",
      "type": "function"
    },
    {
      "inputs": [
        {
          "internalType": "uint256",
          "name": "_dateS",
          "type": "uint256"
        },
        {
          "internalType": "uint256",
          "name": "idP",
          "type": "uint256"
        },
        {
          "internalType": "address",
          "name": "usr",
          "type": "address"
        }
      ],
      "name": "AcquirePre",
      "outputs": [
        {
          "internalType": "bool",
          "name": "ret",
          "type": "bool"
        }
      ],
      "stateMutability": "nonpayable",
      "type": "function"
    },
    {
      "inputs": [],
      "name": "preOrderOpenGet",
      "outputs": [
        {
          "internalType": "uint256[]",
          "name": "",
          "type": "uint256[]"
        }
      ],
      "stateMutability": "view",
      "type": "function"
    }
  ],
  "bytecode": "0x608060405234801561001057600080fd5b50611e7e806100206000396000f3fe608060405234801561001057600080fd5b50600436106100ea5760003560e01c80639ff3b46d1161008c578063b140621111610066578063b14062111461025b578063b5c5daa414610279578063b99ad1bc146102a9578063e201d8bd146102d9576100ea565b80639ff3b46d14610205578063ae59e24b14610235578063af4b7f1414610251576100ea565b806335b67731116100c857806335b67731146101595780634abc93251461018957806360a48f7c146101a557806394cfd453146101d5576100ea565b806304e4deaa146100ef57806323ba900e1461011f57806332a119a414610129575b600080fd5b61010960048036038101906101049190611501565b610309565b6040516101169190611550565b60405180910390f35b61012761035f565b005b610143600480360381019061013e919061156b565b610383565b60405161015091906115cd565b60405180910390f35b610173600480360381019061016e91906115e8565b61059b565b60405161018091906116ae565b60405180910390f35b6101a3600480360381019061019e91906115e8565b61063b565b005b6101bf60048036038101906101ba919061156b565b610738565b6040516101cc91906115cd565b60405180910390f35b6101ef60048036038101906101ea91906116d0565b610ca8565b6040516101fc9190611550565b60405180910390f35b61021f600480360381019061021a9190611845565b610ccd565b60405161022c91906115cd565b60405180910390f35b61024f600480360381019061024a91906115e8565b610df0565b005b610259610e07565b005b610263611075565b604051610270919061195f565b60405180910390f35b610293600480360381019061028e91906119df565b6110df565b6040516102a091906115cd565b60405180910390f35b6102c360048036038101906102be91906116d0565b611353565b6040516102d09190611550565b60405180910390f35b6102f360048036038101906102ee91906116d0565b611384565b6040516103009190611a41565b60405180910390f35b60008082156103185761384090505b600062015180856103299190611a8b565b9050613840816103399190611a8b565b90508181866103489190611aeb565b6103529190611b1f565b9050809250505092915050565b6000600454141561037857610e10600481905550610381565b60006004819055505b565b6000600454600a426103959190611aeb565b61039f9190611b1f565b60038190555083600354106103e9576040517f08c379a00000000000000000000000000000000000000000000000000000000081526004016103e090611bc1565b60405180910390fd5b60006103f6856001610309565b90506000610405856001610309565b9050808210610449576040517f08c379a000000000000000000000000000000000000000000000000000000000815260040161044090611c2d565b60405180910390fd5b60065484111561045b57836006819055505b610466848383610738565b15610592576007600085815260200190815260200160002082908060018154018082558091505060019003906000526020600020016000909190919091505533600080868152602001908152602001600020600084815260200190815260200160002060006101000a81548173ffffffffffffffffffffffffffffffffffffffff021916908373ffffffffffffffffffffffffffffffffffffffff16021790555080600160008681526020019081526020016000206000848152602001908152602001600020819055506040518060400160405280600a81526020017f5072656f7264657265640000000000000000000000000000000000000000000081525060026000868152602001908152602001600020908051906020019061058c9291906113dc565b50600192505b50509392505050565b600260205280600052604060002060009150905080546105ba90611c7c565b80601f01602080910402602001604051908101604052809291908181526020018280546105e690611c7c565b80156106335780601f1061060857610100808354040283529160200191610633565b820191906000526020600020905b81548152906001019060200180831161061657829003601f168201915b505050505081565b6040518060400160405280600781526020017f57616974696e670000000000000000000000000000000000000000000000000081525080519060200120600260008381526020019081526020016000206040516106989190611d4d565b6040518091039020146106aa57600080fd5b60006106eb826040518060400160405280600981526020017f417661696c61626c650000000000000000000000000000000000000000000000815250610ccd565b90506001151581151514610734576040517f08c379a000000000000000000000000000000000000000000000000000000000815260040161072b90611db0565b60405180910390fd5b5050565b60006040518060400160405280600a81526020017f5072656f7264657265640000000000000000000000000000000000000000000081525080519060200120600260008681526020019081526020016000206040516107979190611d4d565b6040518091039020148061080d57506040518060400160405280600481526020017f427573790000000000000000000000000000000000000000000000000000000081525080519060200120600260008681526020019081526020016000206040516108039190611d4d565b6040518091039020145b15610c31576001905060005b6007600086815260200190815260200160002080549050811015610c2f57600060076000878152602001908152602001600020828154811061085e5761085d611dd0565b5b90600052602060002001541115610c1c578360076000878152602001908152602001600020828154811061089557610894611dd0565b5b90600052602060002001541115801561090157506001600086815260200190815260200160002060006007600088815260200190815260200160002083815481106108e3576108e2611dd0565b5b90600052602060002001548152602001908152602001600020548411155b8061093a57508360076000878152602001908152602001600020828154811061092d5761092c611dd0565b5b9060005260206000200154145b8061099757508360016000878152602001908152602001600020600060076000898152602001908152602001600020848154811061097b5761097a611dd0565b5b9060005260206000200154815260200190815260200160002054145b806109d05750826007600087815260200190815260200160002082815481106109c3576109c2611dd0565b5b9060005260206000200154145b80610a2d575082600160008781526020019081526020016000206000600760008981526020019081526020016000208481548110610a1157610a10611dd0565b5b9060005260206000200154815260200190815260200160002054145b80610ac6575082600760008781526020019081526020016000208281548110610a5957610a58611dd0565b5b906000526020600020015411158015610ac55750600160008681526020019081526020016000206000600760008881526020019081526020016000208381548110610aa757610aa6611dd0565b5b90600052602060002001548152602001908152602001600020548311155b5b80610b5f575082600760008781526020019081526020016000208281548110610af257610af1611dd0565b5b906000526020600020015411158015610b5e5750600160008681526020019081526020016000206000600760008881526020019081526020016000208381548110610b4057610b3f611dd0565b5b90600052602060002001548152602001908152602001600020548311155b5b80610bf85750600760008681526020019081526020016000208181548110610b8a57610b89611dd0565b5b90600052602060002001548411158015610bf7575082600160008781526020019081526020016000206000600760008981526020019081526020016000208481548110610bda57610bd9611dd0565b5b906000526020600020015481526020019081526020016000205411155b5b15610c1b5760009150600760008681526020019081526020016000208054905090505b5b8080610c2790611dff565b915050610819565b505b6040518060400160405280600981526020017f417661696c61626c6500000000000000000000000000000000000000000000008152508051906020012060026000868152602001908152602001600020604051610c8e9190611d4d565b60405180910390201415610ca157600190505b9392505050565b6001602052816000526040600020602052806000526040600020600091509150505481565b60006040518060400160405280600481526020017f42757379000000000000000000000000000000000000000000000000000000008152508051906020012082805190602001201480610d6257506040518060400160405280600981526020017f417661696c61626c650000000000000000000000000000000000000000000000815250805190602001208280519060200120145b80610daf57506040518060400160405280600781526020017f57616974696e6700000000000000000000000000000000000000000000000000815250805190602001208280519060200120145b15610de55781600260008581526020019081526020016000209080519060200190610ddb9291906113dc565b5060019050610dea565b600090505b92915050565b80600354610dfe9190611b1f565b60038190555050565b60005b6006548111611072576040518060400160405280600a81526020017f5072656f726465726564000000000000000000000000000000000000000000008152508051906020012060026000838152602001908152602001600020604051610e709190611d4d565b6040518091039020141561105f5760005b600760008381526020019081526020016000208054905081101561105d57610ea76113c6565b600760008381526020019081526020016000208181548110610ecc57610ecb611dd0565b5b906000526020600020015462015180600354610ee89190611aeb565b1061104a576000808381526020019081526020016000206000600760008581526020019081526020016000208381548110610f2657610f25611dd0565b5b9060005260206000200154815260200190815260200160002060006101000a81549073ffffffffffffffffffffffffffffffffffffffff0219169055600160008381526020019081526020016000206000600760008581526020019081526020016000208381548110610f9c57610f9b611dd0565b5b90600052602060002001548152602001908152602001600020600090556040518060400160405280600781526020017f57616974696e67000000000000000000000000000000000000000000000000008152506002600084815260200190815260200160002090805190602001906110159291906113dc565b5060076000838152602001908152602001600020818154811061103b5761103a611dd0565b5b90600052602060002001600090555b808061105590611dff565b915050610e81565b505b808061106a90611dff565b915050610e0a565b50565b606060076000600881526020019081526020016000208054806020026020016040519081016040528092919081815260200182805480156110d557602002820191906000526020600020905b8154815260200190600101908083116110c1575b5050505050905090565b60006110e96113c6565b6110f1610e07565b60006110fe856001610309565b905062278d006003546111119190611aeb565b8111801561112157508060035410155b80156111fc57506040518060400160405280600981526020017f417661696c61626c65000000000000000000000000000000000000000000000081525080519060200120600260008681526020019081526020016000206040516111859190611d4d565b604051809103902014806111fb57506040518060400160405280600a81526020017f5072656f7264657265640000000000000000000000000000000000000000000081525080519060200120600260008681526020019081526020016000206040516111f19190611d4d565b6040518091039020145b5b1561134a5760005b6007600086815260200190815260200160002080549050811015611343578373ffffffffffffffffffffffffffffffffffffffff16600080878152602001908152602001600020600060076000898152602001908152602001600020848154811061127257611271611dd0565b5b9060005260206000200154815260200190815260200160002060009054906101000a900473ffffffffffffffffffffffffffffffffffffffff1673ffffffffffffffffffffffffffffffffffffffff161415611330576040518060400160405280600481526020017f42757379000000000000000000000000000000000000000000000000000000008152506002600087815260200190815260200160002090805190602001906113249291906113dc565b5060019250505061134c565b808061133b90611dff565b915050611204565b505061134c565b505b9392505050565b6007602052816000526040600020818154811061136f57600080fd5b90600052602060002001600091509150505481565b60006020528160005260406000206020528060005260406000206000915091509054906101000a900473ffffffffffffffffffffffffffffffffffffffff1681565b600454426113d49190611b1f565b600381905550565b8280546113e890611c7c565b90600052602060002090601f01602090048101928261140a5760008555611451565b82601f1061142357805160ff1916838001178555611451565b82800160010185558215611451579182015b82811115611450578251825591602001919060010190611435565b5b50905061145e9190611462565b5090565b5b8082111561147b576000816000905550600101611463565b5090565b6000604051905090565b600080fd5b600080fd5b6000819050919050565b6114a681611493565b81146114b157600080fd5b50565b6000813590506114c38161149d565b92915050565b60008115159050919050565b6114de816114c9565b81146114e957600080fd5b50565b6000813590506114fb816114d5565b92915050565b6000806040838503121561151857611517611489565b5b6000611526858286016114b4565b9250506020611537858286016114ec565b9150509250929050565b61154a81611493565b82525050565b60006020820190506115656000830184611541565b92915050565b60008060006060848603121561158457611583611489565b5b6000611592868287016114b4565b93505060206115a3868287016114b4565b92505060406115b4868287016114b4565b9150509250925092565b6115c7816114c9565b82525050565b60006020820190506115e260008301846115be565b92915050565b6000602082840312156115fe576115fd611489565b5b600061160c848285016114b4565b91505092915050565b600081519050919050565b600082825260208201905092915050565b60005b8381101561164f578082015181840152602081019050611634565b8381111561165e576000848401525b50505050565b6000601f19601f8301169050919050565b600061168082611615565b61168a8185611620565b935061169a818560208601611631565b6116a381611664565b840191505092915050565b600060208201905081810360008301526116c88184611675565b905092915050565b600080604083850312156116e7576116e6611489565b5b60006116f5858286016114b4565b9250506020611706858286016114b4565b9150509250929050565b600080fd5b600080fd5b7f4e487b7100000000000000000000000000000000000000000000000000000000600052604160045260246000fd5b61175282611664565b810181811067ffffffffffffffff821117156117715761177061171a565b5b80604052505050565b600061178461147f565b90506117908282611749565b919050565b600067ffffffffffffffff8211156117b0576117af61171a565b5b6117b982611664565b9050602081019050919050565b82818337600083830152505050565b60006117e86117e384611795565b61177a565b90508281526020810184848401111561180457611803611715565b5b61180f8482856117c6565b509392505050565b600082601f83011261182c5761182b611710565b5b813561183c8482602086016117d5565b91505092915050565b6000806040838503121561185c5761185b611489565b5b600061186a858286016114b4565b925050602083013567ffffffffffffffff81111561188b5761188a61148e565b5b61189785828601611817565b9150509250929050565b600081519050919050565b600082825260208201905092915050565b6000819050602082019050919050565b6118d681611493565b82525050565b60006118e883836118cd565b60208301905092915050565b6000602082019050919050565b600061190c826118a1565b61191681856118ac565b9350611921836118bd565b8060005b8381101561195257815161193988826118dc565b9750611944836118f4565b925050600181019050611925565b5085935050505092915050565b600060208201905081810360008301526119798184611901565b905092915050565b600073ffffffffffffffffffffffffffffffffffffffff82169050919050565b60006119ac82611981565b9050919050565b6119bc816119a1565b81146119c757600080fd5b50565b6000813590506119d9816119b3565b92915050565b6000806000606084860312156119f8576119f7611489565b5b6000611a06868287016114b4565b9350506020611a17868287016114b4565b9250506040611a28868287016119ca565b9150509250925092565b611a3b816119a1565b82525050565b6000602082019050611a566000830184611a32565b92915050565b7f4e487b7100000000000000000000000000000000000000000000000000000000600052601260045260246000fd5b6000611a9682611493565b9150611aa183611493565b925082611ab157611ab0611a5c565b5b828206905092915050565b7f4e487b7100000000000000000000000000000000000000000000000000000000600052601160045260246000fd5b6000611af682611493565b9150611b0183611493565b925082821015611b1457611b13611abc565b5b828203905092915050565b6000611b2a82611493565b9150611b3583611493565b9250827fffffffffffffffffffffffffffffffffffffffffffffffffffffffffffffffff03821115611b6a57611b69611abc565b5b828201905092915050565b7f4e6f7420706f737369626c6520696e2074686520706173740000000000000000600082015250565b6000611bab601883611620565b9150611bb682611b75565b602082019050919050565b60006020820190508181036000830152611bda81611b9e565b9050919050565b7f3c00000000000000000000000000000000000000000000000000000000000000600082015250565b6000611c17600183611620565b9150611c2282611be1565b602082019050919050565b60006020820190508181036000830152611c4681611c0a565b9050919050565b7f4e487b7100000000000000000000000000000000000000000000000000000000600052602260045260246000fd5b60006002820490506001821680611c9457607f821691505b60208210811415611ca857611ca7611c4d565b5b50919050565b600081905092915050565b60008190508160005260206000209050919050565b60008154611cdb81611c7c565b611ce58186611cae565b94506001821660008114611d005760018114611d1157611d44565b60ff19831686528186019350611d44565b611d1a85611cb9565b60005b83811015611d3c57815481890152600182019150602081019050611d1d565b838801955050505b50505092915050565b6000611d598284611cce565b915081905092915050565b7f4e6f6e20646973706f6e6962696c653300000000000000000000000000000000600082015250565b6000611d9a601083611620565b9150611da582611d64565b602082019050919050565b60006020820190508181036000830152611dc981611d8d565b9050919050565b7f4e487b7100000000000000000000000000000000000000000000000000000000600052603260045260246000fd5b6000611e0a82611493565b91507fffffffffffffffffffffffffffffffffffffffffffffffffffffffffffffffff821415611e3d57611e3c611abc565b5b60018201905091905056fea264697066735822122043554e90842328ee82511e743666c12f4ff0f6b2bf9e66618db7a63116d572fc64736f6c634300080a0033",
  "immutableReferences": {},
  "source": "\r\npragma solidity ^0.8.0;\r\n\r\n\r\n\r\ncontract Calendar   {\r\n\t\r\n\t  mapping(uint256=>mapping(uint256=>address)) public Preorderstart;\r\n\t  mapping(uint256=>mapping(uint256=>uint256)) public Preorderend;\r\n    mapping(uint256 => string) public Available;\r\n    uint256 time;\r\n    uint256 fusoorario;\r\n    uint256[] Status;\r\n    uint256 Orders;\r\n    mapping(uint256=>uint256[]) public PreorderOpen;\r\n\t\t    \r\n\r\n \r\n\r\n\tconstructor() public { \r\n      \r\n\r\n\r\n\r\n\t}\r\n  \tfunction Time() internal {\r\n        time = block.timestamp+ fusoorario;\r\n      }\r\n\t/*Funzione per testare le scadenze in update*/\r\n   \r\n      function TimeAdd(uint256 i) public {\r\n        time = time + i;\r\n      }\r\n\tfunction Pre_Order(uint256 dataStart, uint256 dataEnd, uint256 _id)  external returns(bool suc) {\r\n    suc = false;\r\n    time =block.timestamp-10 + fusoorario;\r\n    require(time < dataStart,\"Not possible in the past\");\r\n    uint256 date1 = Converter(dataStart,true);\r\n    uint256 date2 = Converter(dataEnd,true);\r\n\r\n\t\trequire(date1<date2,\"<\");//la prenotazione vale almeno se dura 4 ore\r\n      if(_id>Orders)\r\n        Orders= _id;\r\n\r\n        if(CheckAvialable(_id,date1,date2)){\r\n    PreorderOpen[_id].push(date1);\r\n\t\tPreorderstart[_id][date1]= msg.sender;\r\n\t\tPreorderend[_id][date1]=date2;\t\r\n\t\tAvailable[_id]=\"Preordered\";\r\n\t\t\t\tsuc = true;\r\n\t\t}\r\n\t\treturn suc;\r\n\t\t}\r\n\r\n\tfunction CheckAvialable(uint256 idA,uint256 _dataStart, uint256 _dataEnd) public returns(bool ret) {\r\n\t\t\r\n\t\t\t\t//in caso in cui sia occupato controllare se le date inserite sia valide per il preorder\r\n\t\tif(keccak256(bytes(Available[idA])) == keccak256(bytes(\"Preordered\"))||keccak256(bytes(Available[idA])) == keccak256(bytes(\"Busy\"))){\r\n\t\t\tret = true;\r\n\r\n\t\t\t\tfor(uint256 i=0; i < PreorderOpen[idA].length; i++){\r\n\t\t\t\tif( PreorderOpen[idA][i]>0 ){\r\n\t\t\t\t\tif((PreorderOpen[idA][i]<= _dataStart && _dataStart<=Preorderend[idA][PreorderOpen[idA][i]])\r\n\t\t\t\t\t\t|| (PreorderOpen[idA][i] == _dataStart) || (Preorderend[idA][PreorderOpen[idA][i]] == _dataStart)\r\n\t\t\t\t\t\t|| (PreorderOpen[idA][i] == _dataEnd )  || (Preorderend[idA][PreorderOpen[idA][i]] == _dataEnd)\r\n\t\t\t\t\t\t|| (PreorderOpen[idA][i] <= _dataEnd && _dataEnd<=Preorderend[idA][PreorderOpen[idA][i]])\r\n\t\t\t\t\t\t|| (PreorderOpen[idA][i]<= _dataEnd && _dataEnd<=Preorderend[idA][PreorderOpen[idA][i]])\r\n\t\t\t\t\t\t|| (_dataStart<= PreorderOpen[idA][i] && Preorderend[idA][PreorderOpen[idA][i]]<=_dataEnd)\r\n\t\t\t\t\t\t){\r\n\t\t\t\t\t\tret = false;\r\n\t\t\t\t\t\ti = PreorderOpen[idA].length;\r\n\t\t\t\t\t}\r\n\r\n\t\t\t\t}\r\n\t\t\t}\r\n\r\n\t\t/*\r\n\t\t\tfor(uint256 i=_dataStart;i <= _dataEnd;i= i + 14400){\r\n\t\t\t\tif(Preorderstart[idA][i]!=address(0x0) || Preorderend[idA][i]==i){\r\n\t\t\t\t\tret =false;\r\n\t\t\t\t\ttest=\"Sono Qui\";\r\n\r\n\t\t\t\t}\r\n\t\t\t}*/\r\n\t\t}\r\n\t\tif(keccak256(bytes(Available[idA])) == keccak256(bytes(\"Available\"))){\r\n\t\tret = true;\r\n\t\t}\r\n\t\treturn ret;\r\n\r\n\t\t//creare un evento per data suggerita nel caso l'item non sia disponibile\r\n\r\n\t}\t\r\n\tfunction Update()public {\r\n\t\t//controllo che i preOrdini aperti siano scaduti\r\n\t\t//se si li cancello e li metto in waiting in attesa che\r\n\t\t//la cauzione venga restituita\r\n\t\tfor(uint256 i; i<= Orders; i++){\r\n\t\t    if(keccak256(bytes(Available[i])) == keccak256(bytes(\"Preordered\"))){\r\n\t\t    \tfor(uint256 j;j < PreorderOpen[i].length; j++){\r\n\t\t\t\t  Time();\r\n\t\t\t\tif(time - 86400 >= PreorderOpen[i][j]){//caso in cui sia passato un giorno senza aver \r\n\t\t\t\t\t\t\t\t\t\t\t    //ritirato item adr ad annullare la prenotazione\r\n\r\n\t\t\t\tdelete Preorderstart[i][PreorderOpen[i][j]];\r\n\t\t\t\tdelete Preorderend[i][PreorderOpen[i][j]];\r\n\t\t\t\tAvailable[i]=\"Waiting\";\r\n\t\t\t\tdelete PreorderOpen[i][j];\r\n\t\t\t\t}\r\n                     \r\n\r\n\t\t\t\t}\r\n\t\t\t}}\r\n\t\t    }\r\n\tfunction setAvailable(uint256 idA,string memory Status)public returns(bool){\r\n\tif(keccak256(bytes(Status)) == keccak256(bytes(\"Busy\"))||keccak256(bytes(Status)) == keccak256(bytes(\"Available\"))||keccak256(bytes(Status)) == keccak256(bytes(\"Waiting\")) ){\r\n\t\t\tAvailable[idA]=Status;\r\n\t\t\treturn true;\r\n\t\t\r\n\t\t}\r\n\t\treturn false;\r\n\r\n\t\t\t}\t\t\t\t\r\nfunction setFusoOraio()public{\r\n\tif (fusoorario==0){\r\n\t\tfusoorario= 3600;\r\n\t}\r\n\telse{\r\n\t\tfusoorario=0;\r\n\t}\r\n}\r\nfunction Relese(uint256 _id1) external{\r\n\t require(keccak256(bytes(Available[_id1])) == keccak256(bytes(\"Waiting\")));\r\n\t  bool k;\r\n          k = setAvailable(_id1,\"Available\"); \r\n          require(k == true, \"Non disponibile3\");\r\n}\r\nfunction Converter(uint256 date, bool next)public view virtual returns(uint256){\r\n     uint256 lest;\r\n     if(next)\r\n     lest = 14400;\r\n    uint256 date1 = date % 86400; //tempo mod giorni\r\n    date1= date1 % 14400;  //mod 4 ore\r\n\t\tdate1 = date - date1 + lest; //avro il giorno attuale + a mod di 4 ore\r\n                               //es 6 nov - 0:00 - 4:00 - 8:00 - 12:00 - 16:00 ecc... \r\n                               //se sono le 17:11 la prenotazione sar allo slot successivo\r\n                               //alle 20\r\n                               return date1;\r\n}\r\nfunction AcquirePre(uint256 _dateS,uint256 idP,address usr) public   returns(bool ret){\r\n\tret = false;\r\n\tTime();\r\n  Update();\r\n  \tuint256 time2 = Converter(_dateS,true);\r\n      \r\n\r\n  \tif(time2>time - 2592000 /*non pi vecchio di 30g*/  &&time>=time2 && ((keccak256(bytes(Available[idP])) == keccak256(bytes(\"Available\")))|| keccak256(bytes(Available[idP])) == keccak256(bytes(\"Preordered\")))){\r\n  \t\tfor(uint256 i;i< PreorderOpen[idP].length; i++ ){\r\n  \t\tif(Preorderstart[idP][PreorderOpen[idP][i]]==usr ){//fifo\r\n  \t\tAvailable[idP]=\"Busy\";\t\t\t\t\t\t\t\r\n  \t\t\treturn true;\r\n  \t\t}\r\n\t\t}\r\n\t\treturn ret;\r\n  \t}\r\n//PreorderOpen verificare la data che ci sia come il proprietario del pre-ordine sia \r\n//quello giusto\r\n\r\n\treturn ret;\r\n}\r\n\t\r\n\tfunction preOrderOpenGet(/*uint256 i*/) external  view virtual returns(uint256[] memory){\r\n     \r\n  return  PreorderOpen[8];\r\n\t}\r\n}",
  "sourcePath": "C:\\Users\\Luca\\Desktop\\tesi\\My-tesi\\src\\contracts\\LitemCalendar.sol",
  "compiler": {
    "name": "solc",
    "version": "0.8.10+commit.fc410830.Emscripten.clang"
  },
  "schemaVersion": "3.4.1",
  "updatedAt": "2021-11-26T17:20:27.404Z",
  "devdoc": {
    "kind": "dev",
    "methods": {},
    "version": 1
  },
  "userdoc": {
    "kind": "user",
    "methods": {},
    "version": 1
  }
}