{
  "contractName": "Calendar",
  "abi": [
    {
      "inputs": [],
      "stateMutability": "nonpayable",
      "type": "constructor"
    },
    {
      "inputs": [
        {
          "internalType": "uint256",
          "name": "",
          "type": "uint256"
        }
      ],
      "name": "Available",
      "outputs": [
        {
          "internalType": "string",
          "name": "",
          "type": "string"
        }
      ],
      "stateMutability": "view",
      "type": "function"
    },
    {
      "inputs": [
        {
          "internalType": "uint256",
          "name": "",
          "type": "uint256"
        },
        {
          "internalType": "uint256",
          "name": "",
          "type": "uint256"
        }
      ],
      "name": "PreorderOpen",
      "outputs": [
        {
          "internalType": "uint256",
          "name": "",
          "type": "uint256"
        }
      ],
      "stateMutability": "view",
      "type": "function"
    },
    {
      "inputs": [
        {
          "internalType": "uint256",
          "name": "",
          "type": "uint256"
        },
        {
          "internalType": "uint256",
          "name": "",
          "type": "uint256"
        }
      ],
      "name": "Preorderend",
      "outputs": [
        {
          "internalType": "uint256",
          "name": "",
          "type": "uint256"
        }
      ],
      "stateMutability": "view",
      "type": "function"
    },
    {
      "inputs": [
        {
          "internalType": "uint256",
          "name": "",
          "type": "uint256"
        },
        {
          "internalType": "uint256",
          "name": "",
          "type": "uint256"
        }
      ],
      "name": "Preorderstart",
      "outputs": [
        {
          "internalType": "address",
          "name": "",
          "type": "address"
        }
      ],
      "stateMutability": "view",
      "type": "function"
    },
    {
      "inputs": [
        {
          "internalType": "uint256",
          "name": "i",
          "type": "uint256"
        }
      ],
      "name": "TimeAdd",
      "outputs": [],
      "stateMutability": "nonpayable",
      "type": "function"
    },
    {
      "inputs": [
        {
          "internalType": "uint256",
          "name": "dataStart",
          "type": "uint256"
        },
        {
          "internalType": "uint256",
          "name": "dataEnd",
          "type": "uint256"
        },
        {
          "internalType": "uint256",
          "name": "_id",
          "type": "uint256"
        }
      ],
      "name": "Pre_Order",
      "outputs": [
        {
          "internalType": "bool",
          "name": "suc",
          "type": "bool"
        }
      ],
      "stateMutability": "nonpayable",
      "type": "function"
    },
    {
      "inputs": [
        {
          "internalType": "uint256",
          "name": "idA",
          "type": "uint256"
        },
        {
          "internalType": "uint256",
          "name": "_dataStart",
          "type": "uint256"
        },
        {
          "internalType": "uint256",
          "name": "_dataEnd",
          "type": "uint256"
        }
      ],
      "name": "CheckAvialable",
      "outputs": [
        {
          "internalType": "bool",
          "name": "ret",
          "type": "bool"
        }
      ],
      "stateMutability": "nonpayable",
      "type": "function"
    },
    {
      "inputs": [],
      "name": "Update",
      "outputs": [],
      "stateMutability": "nonpayable",
      "type": "function"
    },
    {
      "inputs": [
        {
          "internalType": "uint256",
          "name": "idA",
          "type": "uint256"
        },
        {
          "internalType": "string",
          "name": "Status",
          "type": "string"
        }
      ],
      "name": "setAvailable",
      "outputs": [
        {
          "internalType": "bool",
          "name": "",
          "type": "bool"
        }
      ],
      "stateMutability": "nonpayable",
      "type": "function"
    },
    {
      "inputs": [],
      "name": "setFusoOraio",
      "outputs": [],
      "stateMutability": "nonpayable",
      "type": "function"
    },
    {
      "inputs": [
        {
          "internalType": "uint256",
          "name": "_id1",
          "type": "uint256"
        }
      ],
      "name": "Relese",
      "outputs": [],
      "stateMutability": "nonpayable",
      "type": "function"
    },
    {
      "inputs": [
        {
          "internalType": "uint256",
          "name": "date",
          "type": "uint256"
        },
        {
          "internalType": "bool",
          "name": "next",
          "type": "bool"
        }
      ],
      "name": "Converter",
      "outputs": [
        {
          "internalType": "uint256",
          "name": "",
          "type": "uint256"
        }
      ],
      "stateMutability": "view",
      "type": "function"
    },
    {
      "inputs": [
        {
          "internalType": "uint256",
          "name": "_dateS",
          "type": "uint256"
        },
        {
          "internalType": "uint256",
          "name": "idP",
          "type": "uint256"
        },
        {
          "internalType": "address",
          "name": "usr",
          "type": "address"
        }
      ],
      "name": "AcquirePre",
      "outputs": [
        {
          "internalType": "bool",
          "name": "ret",
          "type": "bool"
        }
      ],
      "stateMutability": "nonpayable",
      "type": "function"
    },
    {
      "inputs": [
        {
          "internalType": "uint256",
          "name": "i",
          "type": "uint256"
        }
      ],
      "name": "preOrderOpenGet",
      "outputs": [
        {
          "internalType": "uint256[]",
          "name": "",
          "type": "uint256[]"
        }
      ],
      "stateMutability": "view",
      "type": "function"
    }
  ],
  "bytecode": "0x608060405234801561001057600080fd5b50611da2806100206000396000f3fe608060405234801561001057600080fd5b50600436106100ea5760003560e01c806394cfd4531161008c578063af4b7f1411610066578063af4b7f1414610281578063b5c5daa41461028b578063b99ad1bc146102bb578063e201d8bd146102eb576100ea565b806394cfd453146102055780639ff3b46d14610235578063ae59e24b14610265576100ea565b806335b67731116100c857806335b67731146101595780634abc9325146101895780634e2b132e146101a557806360a48f7c146101d5576100ea565b806304e4deaa146100ef57806323ba900e1461011f57806332a119a414610129575b600080fd5b61010960048036038101906101049190611425565b61031b565b6040516101169190611474565b60405180910390f35b610127610371565b005b610143600480360381019061013e919061148f565b610395565b60405161015091906114f1565b60405180910390f35b610173600480360381019061016e919061150c565b6105ad565b60405161018091906115d2565b60405180910390f35b6101a3600480360381019061019e919061150c565b61064d565b005b6101bf60048036038101906101ba919061150c565b61074a565b6040516101cc91906116b2565b60405180910390f35b6101ef60048036038101906101ea919061148f565b6107b5565b6040516101fc91906114f1565b60405180910390f35b61021f600480360381019061021a91906116d4565b610d25565b60405161022c9190611474565b60405180910390f35b61024f600480360381019061024a9190611849565b610d4a565b60405161025c91906114f1565b60405180910390f35b61027f600480360381019061027a919061150c565b610e6d565b005b610289610e84565b005b6102a560048036038101906102a09190611903565b611109565b6040516102b291906114f1565b60405180910390f35b6102d560048036038101906102d091906116d4565b611277565b6040516102e29190611474565b60405180910390f35b610305600480360381019061030091906116d4565b6112a8565b6040516103129190611965565b60405180910390f35b600080821561032a5761384090505b6000620151808561033b91906119af565b90506138408161034b91906119af565b905081818661035a9190611a0f565b6103649190611a43565b9050809250505092915050565b6000600454141561038a57610e10600481905550610393565b60006004819055505b565b6000600454600a426103a79190611a0f565b6103b19190611a43565b60038190555083600354106103fb576040517f08c379a00000000000000000000000000000000000000000000000000000000081526004016103f290611ae5565b60405180910390fd5b600061040885600161031b565b9050600061041785600161031b565b905080821061045b576040517f08c379a000000000000000000000000000000000000000000000000000000000815260040161045290611b51565b60405180910390fd5b60065484111561046d57836006819055505b6104788483836107b5565b156105a4576007600085815260200190815260200160002082908060018154018082558091505060019003906000526020600020016000909190919091505533600080868152602001908152602001600020600084815260200190815260200160002060006101000a81548173ffffffffffffffffffffffffffffffffffffffff021916908373ffffffffffffffffffffffffffffffffffffffff16021790555080600160008681526020019081526020016000206000848152602001908152602001600020819055506040518060400160405280600a81526020017f5072656f7264657265640000000000000000000000000000000000000000000081525060026000868152602001908152602001600020908051906020019061059e929190611300565b50600192505b50509392505050565b600260205280600052604060002060009150905080546105cc90611ba0565b80601f01602080910402602001604051908101604052809291908181526020018280546105f890611ba0565b80156106455780601f1061061a57610100808354040283529160200191610645565b820191906000526020600020905b81548152906001019060200180831161062857829003601f168201915b505050505081565b6040518060400160405280600781526020017f57616974696e670000000000000000000000000000000000000000000000000081525080519060200120600260008381526020019081526020016000206040516106aa9190611c71565b6040518091039020146106bc57600080fd5b60006106fd826040518060400160405280600981526020017f417661696c61626c650000000000000000000000000000000000000000000000815250610d4a565b90506001151581151514610746576040517f08c379a000000000000000000000000000000000000000000000000000000000815260040161073d90611cd4565b60405180910390fd5b5050565b6060600760008381526020019081526020016000208054806020026020016040519081016040528092919081815260200182805480156107a957602002820191906000526020600020905b815481526020019060010190808311610795575b50505050509050919050565b60006040518060400160405280600a81526020017f5072656f7264657265640000000000000000000000000000000000000000000081525080519060200120600260008681526020019081526020016000206040516108149190611c71565b6040518091039020148061088a57506040518060400160405280600481526020017f427573790000000000000000000000000000000000000000000000000000000081525080519060200120600260008681526020019081526020016000206040516108809190611c71565b6040518091039020145b15610cae576001905060005b6007600086815260200190815260200160002080549050811015610cac5760006007600087815260200190815260200160002082815481106108db576108da611cf4565b5b90600052602060002001541115610c99578360076000878152602001908152602001600020828154811061091257610911611cf4565b5b90600052602060002001541115801561097e57506001600086815260200190815260200160002060006007600088815260200190815260200160002083815481106109605761095f611cf4565b5b90600052602060002001548152602001908152602001600020548411155b806109b75750836007600087815260200190815260200160002082815481106109aa576109a9611cf4565b5b9060005260206000200154145b80610a145750836001600087815260200190815260200160002060006007600089815260200190815260200160002084815481106109f8576109f7611cf4565b5b9060005260206000200154815260200190815260200160002054145b80610a4d575082600760008781526020019081526020016000208281548110610a4057610a3f611cf4565b5b9060005260206000200154145b80610aaa575082600160008781526020019081526020016000206000600760008981526020019081526020016000208481548110610a8e57610a8d611cf4565b5b9060005260206000200154815260200190815260200160002054145b80610b43575082600760008781526020019081526020016000208281548110610ad657610ad5611cf4565b5b906000526020600020015411158015610b425750600160008681526020019081526020016000206000600760008881526020019081526020016000208381548110610b2457610b23611cf4565b5b90600052602060002001548152602001908152602001600020548311155b5b80610bdc575082600760008781526020019081526020016000208281548110610b6f57610b6e611cf4565b5b906000526020600020015411158015610bdb5750600160008681526020019081526020016000206000600760008881526020019081526020016000208381548110610bbd57610bbc611cf4565b5b90600052602060002001548152602001908152602001600020548311155b5b80610c755750600760008681526020019081526020016000208181548110610c0757610c06611cf4565b5b90600052602060002001548411158015610c74575082600160008781526020019081526020016000206000600760008981526020019081526020016000208481548110610c5757610c56611cf4565b5b906000526020600020015481526020019081526020016000205411155b5b15610c985760009150600760008681526020019081526020016000208054905090505b5b8080610ca490611d23565b915050610896565b505b6040518060400160405280600981526020017f417661696c61626c6500000000000000000000000000000000000000000000008152508051906020012060026000868152602001908152602001600020604051610d0b9190611c71565b60405180910390201415610d1e57600190505b9392505050565b6001602052816000526040600020602052806000526040600020600091509150505481565b60006040518060400160405280600481526020017f42757379000000000000000000000000000000000000000000000000000000008152508051906020012082805190602001201480610ddf57506040518060400160405280600981526020017f417661696c61626c650000000000000000000000000000000000000000000000815250805190602001208280519060200120145b80610e2c57506040518060400160405280600781526020017f57616974696e6700000000000000000000000000000000000000000000000000815250805190602001208280519060200120145b15610e625781600260008581526020019081526020016000209080519060200190610e58929190611300565b5060019050610e67565b600090505b92915050565b80600354610e7b9190611a43565b60038190555050565b60005b6006548111611106576040518060400160405280600a81526020017f5072656f726465726564000000000000000000000000000000000000000000008152508051906020012060026000838152602001908152602001600020604051610eed9190611c71565b604051809103902014156110f35760005b60076000838152602001908152602001600020805490508110156110f157600760008381526020019081526020016000208181548110610f4157610f40611cf4565b5b906000526020600020015462015180600354610f5d9190611a0f565b106110de5760008060008481526020019081526020016000206000600760008681526020019081526020016000208481548110610f9d57610f9c611cf4565b5b9060005260206000200154815260200190815260200160002060006101000a81548173ffffffffffffffffffffffffffffffffffffffff021916908373ffffffffffffffffffffffffffffffffffffffff16021790555060006001600084815260200190815260200160002060006007600086815260200190815260200160002084815481106110305761102f611cf4565b5b90600052602060002001548152602001908152602001600020819055506040518060400160405280600781526020017f57616974696e67000000000000000000000000000000000000000000000000008152506002600084815260200190815260200160002090805190602001906110a9929190611300565b506007600083815260200190815260200160002081815481106110cf576110ce611cf4565b5b90600052602060002001600090555b80806110e990611d23565b915050610efe565b505b80806110fe90611d23565b915050610e87565b50565b60006111136112ea565b6000611122600354600061031b565b9050600061113186600161031b565b9050600354861061126d5760005b600760008781526020019081526020016000208054905081101561126b578473ffffffffffffffffffffffffffffffffffffffff166000808881526020019081526020016000206000600760008a815260200190815260200160002084815481106111ad576111ac611cf4565b5b9060005260206000200154815260200190815260200160002060009054906101000a900473ffffffffffffffffffffffffffffffffffffffff1673ffffffffffffffffffffffffffffffffffffffff161480156112475750816201518060076000898152602001908152602001600020838154811061122f5761122e611cf4565b5b90600052602060002001546112449190611a43565b10155b156112585760019350505050611270565b808061126390611d23565b91505061113f565b505b50505b9392505050565b6007602052816000526040600020818154811061129357600080fd5b90600052602060002001600091509150505481565b60006020528160005260406000206020528060005260406000206000915091509054906101000a900473ffffffffffffffffffffffffffffffffffffffff1681565b600454426112f89190611a43565b600381905550565b82805461130c90611ba0565b90600052602060002090601f01602090048101928261132e5760008555611375565b82601f1061134757805160ff1916838001178555611375565b82800160010185558215611375579182015b82811115611374578251825591602001919060010190611359565b5b5090506113829190611386565b5090565b5b8082111561139f576000816000905550600101611387565b5090565b6000604051905090565b600080fd5b600080fd5b6000819050919050565b6113ca816113b7565b81146113d557600080fd5b50565b6000813590506113e7816113c1565b92915050565b60008115159050919050565b611402816113ed565b811461140d57600080fd5b50565b60008135905061141f816113f9565b92915050565b6000806040838503121561143c5761143b6113ad565b5b600061144a858286016113d8565b925050602061145b85828601611410565b9150509250929050565b61146e816113b7565b82525050565b60006020820190506114896000830184611465565b92915050565b6000806000606084860312156114a8576114a76113ad565b5b60006114b6868287016113d8565b93505060206114c7868287016113d8565b92505060406114d8868287016113d8565b9150509250925092565b6114eb816113ed565b82525050565b600060208201905061150660008301846114e2565b92915050565b600060208284031215611522576115216113ad565b5b6000611530848285016113d8565b91505092915050565b600081519050919050565b600082825260208201905092915050565b60005b83811015611573578082015181840152602081019050611558565b83811115611582576000848401525b50505050565b6000601f19601f8301169050919050565b60006115a482611539565b6115ae8185611544565b93506115be818560208601611555565b6115c781611588565b840191505092915050565b600060208201905081810360008301526115ec8184611599565b905092915050565b600081519050919050565b600082825260208201905092915050565b6000819050602082019050919050565b611629816113b7565b82525050565b600061163b8383611620565b60208301905092915050565b6000602082019050919050565b600061165f826115f4565b61166981856115ff565b935061167483611610565b8060005b838110156116a557815161168c888261162f565b975061169783611647565b925050600181019050611678565b5085935050505092915050565b600060208201905081810360008301526116cc8184611654565b905092915050565b600080604083850312156116eb576116ea6113ad565b5b60006116f9858286016113d8565b925050602061170a858286016113d8565b9150509250929050565b600080fd5b600080fd5b7f4e487b7100000000000000000000000000000000000000000000000000000000600052604160045260246000fd5b61175682611588565b810181811067ffffffffffffffff821117156117755761177461171e565b5b80604052505050565b60006117886113a3565b9050611794828261174d565b919050565b600067ffffffffffffffff8211156117b4576117b361171e565b5b6117bd82611588565b9050602081019050919050565b82818337600083830152505050565b60006117ec6117e784611799565b61177e565b90508281526020810184848401111561180857611807611719565b5b6118138482856117ca565b509392505050565b600082601f8301126118305761182f611714565b5b81356118408482602086016117d9565b91505092915050565b600080604083850312156118605761185f6113ad565b5b600061186e858286016113d8565b925050602083013567ffffffffffffffff81111561188f5761188e6113b2565b5b61189b8582860161181b565b9150509250929050565b600073ffffffffffffffffffffffffffffffffffffffff82169050919050565b60006118d0826118a5565b9050919050565b6118e0816118c5565b81146118eb57600080fd5b50565b6000813590506118fd816118d7565b92915050565b60008060006060848603121561191c5761191b6113ad565b5b600061192a868287016113d8565b935050602061193b868287016113d8565b925050604061194c868287016118ee565b9150509250925092565b61195f816118c5565b82525050565b600060208201905061197a6000830184611956565b92915050565b7f4e487b7100000000000000000000000000000000000000000000000000000000600052601260045260246000fd5b60006119ba826113b7565b91506119c5836113b7565b9250826119d5576119d4611980565b5b828206905092915050565b7f4e487b7100000000000000000000000000000000000000000000000000000000600052601160045260246000fd5b6000611a1a826113b7565b9150611a25836113b7565b925082821015611a3857611a376119e0565b5b828203905092915050565b6000611a4e826113b7565b9150611a59836113b7565b9250827fffffffffffffffffffffffffffffffffffffffffffffffffffffffffffffffff03821115611a8e57611a8d6119e0565b5b828201905092915050565b7f4e6f7420706f737369626c6520696e2074686520706173740000000000000000600082015250565b6000611acf601883611544565b9150611ada82611a99565b602082019050919050565b60006020820190508181036000830152611afe81611ac2565b9050919050565b7f3c00000000000000000000000000000000000000000000000000000000000000600082015250565b6000611b3b600183611544565b9150611b4682611b05565b602082019050919050565b60006020820190508181036000830152611b6a81611b2e565b9050919050565b7f4e487b7100000000000000000000000000000000000000000000000000000000600052602260045260246000fd5b60006002820490506001821680611bb857607f821691505b60208210811415611bcc57611bcb611b71565b5b50919050565b600081905092915050565b60008190508160005260206000209050919050565b60008154611bff81611ba0565b611c098186611bd2565b94506001821660008114611c245760018114611c3557611c68565b60ff19831686528186019350611c68565b611c3e85611bdd565b60005b83811015611c6057815481890152600182019150602081019050611c41565b838801955050505b50505092915050565b6000611c7d8284611bf2565b915081905092915050565b7f4e6f6e20646973706f6e6962696c653300000000000000000000000000000000600082015250565b6000611cbe601083611544565b9150611cc982611c88565b602082019050919050565b60006020820190508181036000830152611ced81611cb1565b9050919050565b7f4e487b7100000000000000000000000000000000000000000000000000000000600052603260045260246000fd5b6000611d2e826113b7565b91507fffffffffffffffffffffffffffffffffffffffffffffffffffffffffffffffff821415611d6157611d606119e0565b5b60018201905091905056fea2646970667358221220dad71f4ffb2220bc0b8500c931c635d6df5f9e74e8e5db604fc4e05397f006c164736f6c634300080a0033",
  "immutableReferences": {},
  "source": "\r\npragma solidity ^0.8.0;\r\n\r\n\r\n\r\ncontract Calendar   {\r\n\t\r\n\t  mapping(uint256=>mapping(uint256=>address)) public Preorderstart;\r\n\t  mapping(uint256=>mapping(uint256=>uint256)) public Preorderend;\r\n    mapping(uint256 => string) public Available;\r\n    uint256 time;\r\n    uint256 fusoorario;\r\n    uint256[] Status;\r\n    uint256 Orders;\r\n    mapping(uint256=>uint256[]) public PreorderOpen;\r\n\t\t    \r\n\r\n \r\n\r\n\tconstructor() public { \r\n      \r\n\r\n\r\n\r\n\t}\r\n  \tfunction Time() internal {\r\n        time = block.timestamp+ fusoorario;\r\n      }\r\n\t/*Funzione per testare le scadenze in update*/\r\n      function TimeAdd(uint256 i) public {\r\n        time = time + i;\r\n      }\r\n\r\n\tfunction Pre_Order(uint256 dataStart, uint256 dataEnd, uint256 _id)  external returns(bool suc) {\r\n    suc = false;\r\n    time =block.timestamp-10 + fusoorario;\r\n    require(time < dataStart,\"Not possible in the past\");\r\n    uint256 date1 = Converter(dataStart,true);\r\n    uint256 date2 = Converter(dataEnd,true);\r\n\r\n\t\trequire(date1<date2,\"<\");//la prenotazione vale almeno se dura 4 ore\r\n      if(_id>Orders)\r\n        Orders= _id;\r\n\r\n        if(CheckAvialable(_id,date1,date2)){\r\n    PreorderOpen[_id].push(date1);\r\n\t\tPreorderstart[_id][date1]= msg.sender;\r\n\t\tPreorderend[_id][date1]=date2;\t\r\n\t\tAvailable[_id]=\"Preordered\";\r\n\t\t\t\tsuc = true;\r\n\t\t}\r\n\t\treturn suc;\r\n\t\t}\r\n\r\n\tfunction CheckAvialable(uint256 idA,uint256 _dataStart, uint256 _dataEnd) public returns(bool ret) {\r\n\t\t\r\n\t\t\t\t//in caso in cui sia occupato controllare se le date inserite sia valide per il preorder\r\n\t\tif(keccak256(bytes(Available[idA])) == keccak256(bytes(\"Preordered\"))||keccak256(bytes(Available[idA])) == keccak256(bytes(\"Busy\"))){\r\n\t\t\tret = true;\r\n\r\n\t\t\t\tfor(uint256 i=0; i < PreorderOpen[idA].length; i++){\r\n\t\t\t\tif( PreorderOpen[idA][i]>0 ){\r\n\t\t\t\t\tif((PreorderOpen[idA][i]<= _dataStart && _dataStart<=Preorderend[idA][PreorderOpen[idA][i]])\r\n\t\t\t\t\t\t|| (PreorderOpen[idA][i] == _dataStart) || (Preorderend[idA][PreorderOpen[idA][i]] == _dataStart)\r\n\t\t\t\t\t\t|| (PreorderOpen[idA][i] == _dataEnd )  || (Preorderend[idA][PreorderOpen[idA][i]] == _dataEnd)\r\n\t\t\t\t\t\t|| (PreorderOpen[idA][i] <= _dataEnd && _dataEnd<=Preorderend[idA][PreorderOpen[idA][i]])\r\n\t\t\t\t\t\t|| (PreorderOpen[idA][i]<= _dataEnd && _dataEnd<=Preorderend[idA][PreorderOpen[idA][i]])\r\n\t\t\t\t\t\t|| (_dataStart<= PreorderOpen[idA][i] && Preorderend[idA][PreorderOpen[idA][i]]<=_dataEnd)\r\n\t\t\t\t\t\t){\r\n\t\t\t\t\t\tret = false;\r\n\t\t\t\t\t\ti = PreorderOpen[idA].length;\r\n\t\t\t\t\t}\r\n\r\n\t\t\t\t}\r\n\t\t\t}\r\n\r\n\t\t/*\r\n\t\t\tfor(uint256 i=_dataStart;i <= _dataEnd;i= i + 14400){\r\n\t\t\t\tif(Preorderstart[idA][i]!=address(0x0) || Preorderend[idA][i]==i){\r\n\t\t\t\t\tret =false;\r\n\t\t\t\t\ttest=\"Sono Qui\";\r\n\r\n\t\t\t\t}\r\n\t\t\t}*/\r\n\t\t}\r\n\t\tif(keccak256(bytes(Available[idA])) == keccak256(bytes(\"Available\"))){\r\n\t\tret = true;\r\n\t\t}\r\n\t\treturn ret;\r\n\r\n\t\t//creare un evento per data suggerita nel caso l'item non sia disponibile\r\n\r\n\t}\t\r\n\tfunction Update()public {\r\n\t\t//controllo che i preOrdini aperti siano scaduti\r\n\t\t//se si li cancello e li metto in waiting in attesa che\r\n\t\t//la cauzione venga restituita\r\n\t\tfor(uint256 i; i<= Orders; i++){\r\n\t\t    if(keccak256(bytes(Available[i])) == keccak256(bytes(\"Preordered\"))){\r\n\t\t    \tfor(uint256 j;j < PreorderOpen[i].length; j++){\r\n\t\t\t\t//Time();\r\n\t\t\t\tif(time - 86400 >= PreorderOpen[i][j]){//caso in cui sia passato un giorno senza aver \r\n\t\t\t\t\t\t\t\t\t\t\t    //ritirato item adr ad annullare la prenotazione\r\n\r\n\t\t\t\tPreorderstart[i][PreorderOpen[i][j]]= address(0);\r\n\t\t\t\tPreorderend[i][PreorderOpen[i][j]]=0;\r\n\t\t\t\tAvailable[i]=\"Waiting\";\r\n\t\t\t\tdelete PreorderOpen[i][j];\r\n\t\t\t\t}\r\n                      //Preorderstart[][]= address(0);\r\n                      //Preorderend[][].delete();\r\n                     // delete  Preorderend[][];\r\n                     //eliminazione su preorderOpen\r\n\r\n\t\t\t\t}\r\n\t\t\t}}\r\n\t\t    }\r\n\tfunction setAvailable(uint256 idA,string memory Status)public returns(bool){\r\n\tif(keccak256(bytes(Status)) == keccak256(bytes(\"Busy\"))||keccak256(bytes(Status)) == keccak256(bytes(\"Available\"))||keccak256(bytes(Status)) == keccak256(bytes(\"Waiting\")) ){\r\n\t\t\tAvailable[idA]=Status;\r\n\t\t\treturn true;\r\n\t\t\r\n\t\t}\r\n\t\treturn false;\r\n\r\n\t\t\t}\t\t\t\t\r\nfunction setFusoOraio()public{\r\n\tif (fusoorario==0){\r\n\t\tfusoorario= 3600;\r\n\t}\r\n\telse{\r\n\t\tfusoorario=0;\r\n\t}\r\n}\r\nfunction Relese(uint256 _id1) external{\r\n\t require(keccak256(bytes(Available[_id1])) == keccak256(bytes(\"Waiting\")));\r\n\t  bool k;\r\n          k = setAvailable(_id1,\"Available\"); \r\n          require(k == true, \"Non disponibile3\");\r\n}\r\nfunction Converter(uint256 date, bool next)public view virtual returns(uint256){\r\n     uint256 lest;\r\n     if(next)\r\n     lest = 14400;\r\n    uint256 date1 = date % 86400; //tempo mod giorni\r\n    date1= date1 % 14400;  //mod 4 ore\r\n\t\tdate1 = date - date1 + lest; //avro il giorno attuale + a mod di 4 ore\r\n                               //es 6 nov - 0:00 - 4:00 - 8:00 - 12:00 - 16:00 ecc... \r\n                               //se sono le 17:11 la prenotazione sar allo slot successivo\r\n                               //alle 20\r\n                               return date1;\r\n}\r\nfunction AcquirePre(uint256 _dateS,uint256 idP,address usr) public returns(bool ret){\r\n\tret = false;\r\n\tTime();\r\n  \tuint256 time1 = Converter(time,false);\r\n  \tuint256 time2 = Converter(_dateS,true);\r\n      \r\n\r\n  \tif(_dateS>=time){\r\n  \t\tfor(uint256 i;i< PreorderOpen[idP].length; i++ ){\r\n  \t\tif(Preorderstart[idP][PreorderOpen[idP][i]]==usr && PreorderOpen[idP][i]+86400 >= time2){\r\n  \t\t\t\t\t\t\t\t\t\t\t\t//dopo un giorno dalla scadenza viene cancellato il pre-order\r\n  \t\t\treturn true;\r\n  \t\t}\r\n\t\t}\r\n  \t}\r\n//PreorderOpen verificare la data che ci sia come il proprietario del pre-ordine sia \r\n//quello giusto\r\n\r\n\r\n}\r\n\t\r\n\tfunction preOrderOpenGet(uint256 i) external  view virtual returns(uint256[] memory){\r\n     \r\n  return  PreorderOpen[i];\r\n\t}\r\n}",
  "sourcePath": "C:\\Users\\Luca\\Desktop\\tesi\\My-tesi\\src\\contracts\\LitemCalendar.sol",
  "compiler": {
    "name": "solc",
    "version": "0.8.10+commit.fc410830.Emscripten.clang"
  },
  "schemaVersion": "3.4.1",
  "updatedAt": "2021-11-24T17:45:22.111Z",
  "devdoc": {
    "kind": "dev",
    "methods": {},
    "version": 1
  },
  "userdoc": {
    "kind": "user",
    "methods": {},
    "version": 1
  }
}