{
  "contractName": "Calendar",
  "abi": [
    {
      "inputs": [],
      "stateMutability": "nonpayable",
      "type": "constructor"
    },
    {
      "inputs": [
        {
          "internalType": "uint256",
          "name": "",
          "type": "uint256"
        }
      ],
      "name": "Available",
      "outputs": [
        {
          "internalType": "string",
          "name": "",
          "type": "string"
        }
      ],
      "stateMutability": "view",
      "type": "function"
    },
    {
      "inputs": [
        {
          "internalType": "uint256",
          "name": "",
          "type": "uint256"
        },
        {
          "internalType": "uint256",
          "name": "",
          "type": "uint256"
        }
      ],
      "name": "PreorderOpen",
      "outputs": [
        {
          "internalType": "uint256",
          "name": "",
          "type": "uint256"
        }
      ],
      "stateMutability": "view",
      "type": "function"
    },
    {
      "inputs": [
        {
          "internalType": "uint256",
          "name": "",
          "type": "uint256"
        },
        {
          "internalType": "uint256",
          "name": "",
          "type": "uint256"
        }
      ],
      "name": "Preorderend",
      "outputs": [
        {
          "internalType": "uint256",
          "name": "",
          "type": "uint256"
        }
      ],
      "stateMutability": "view",
      "type": "function"
    },
    {
      "inputs": [
        {
          "internalType": "uint256",
          "name": "",
          "type": "uint256"
        },
        {
          "internalType": "uint256",
          "name": "",
          "type": "uint256"
        }
      ],
      "name": "Preorderstart",
      "outputs": [
        {
          "internalType": "address",
          "name": "",
          "type": "address"
        }
      ],
      "stateMutability": "view",
      "type": "function"
    },
    {
      "inputs": [],
      "name": "test",
      "outputs": [
        {
          "internalType": "string",
          "name": "",
          "type": "string"
        }
      ],
      "stateMutability": "view",
      "type": "function"
    },
    {
      "inputs": [
        {
          "internalType": "uint256",
          "name": "dataStart",
          "type": "uint256"
        },
        {
          "internalType": "uint256",
          "name": "dataEnd",
          "type": "uint256"
        },
        {
          "internalType": "uint256",
          "name": "_id",
          "type": "uint256"
        }
      ],
      "name": "Pre_Order",
      "outputs": [],
      "stateMutability": "nonpayable",
      "type": "function"
    },
    {
      "inputs": [
        {
          "internalType": "uint256",
          "name": "idA",
          "type": "uint256"
        },
        {
          "internalType": "uint256",
          "name": "_dataStart",
          "type": "uint256"
        },
        {
          "internalType": "uint256",
          "name": "_dataEnd",
          "type": "uint256"
        }
      ],
      "name": "CheckAvialable",
      "outputs": [
        {
          "internalType": "bool",
          "name": "ret",
          "type": "bool"
        }
      ],
      "stateMutability": "nonpayable",
      "type": "function"
    },
    {
      "inputs": [
        {
          "internalType": "uint256",
          "name": "idA",
          "type": "uint256"
        },
        {
          "internalType": "string",
          "name": "Status",
          "type": "string"
        }
      ],
      "name": "setAvailable",
      "outputs": [
        {
          "internalType": "bool",
          "name": "",
          "type": "bool"
        }
      ],
      "stateMutability": "nonpayable",
      "type": "function"
    },
    {
      "inputs": [],
      "name": "setFusoOraio",
      "outputs": [],
      "stateMutability": "nonpayable",
      "type": "function"
    }
  ],
  "bytecode": "0x608060405234801561001057600080fd5b50611486806100206000396000f3fe608060405234801561001057600080fd5b50600436106100935760003560e01c806394cfd4531161006657806394cfd4531461011e5780639ff3b46d1461014e578063b99ad1bc1461017e578063e201d8bd146101ae578063f8a8fd6d146101de57610093565b806323ba900e1461009857806332a119a4146100a257806335b67731146100be57806360a48f7c146100ee575b600080fd5b6100a06101fc565b005b6100bc60048036038101906100b79190610d08565b610220565b005b6100d860048036038101906100d39190610d5b565b61047c565b6040516100e59190610e21565b60405180910390f35b61010860048036038101906101039190610d08565b61051c565b6040516101159190610e5e565b60405180910390f35b61013860048036038101906101339190610e79565b6109d2565b6040516101459190610ec8565b60405180910390f35b61016860048036038101906101639190611018565b6109f7565b6040516101759190610e5e565b60405180910390f35b61019860048036038101906101939190610e79565b610b1a565b6040516101a59190610ec8565b60405180910390f35b6101c860048036038101906101c39190610e79565b610b4b565b6040516101d591906110b5565b60405180910390f35b6101e6610b8d565b6040516101f39190610e21565b60405180910390f35b6000600454141561021557610e1060048190555061021e565b60006004819055505b565b600454600a4261023091906110ff565b61023a9190611133565b6003819055508260035410610284576040517f08c379a000000000000000000000000000000000000000000000000000000000815260040161027b906111d5565b60405180910390fd5b600062015180846102959190611224565b9050613840816102a59190611224565b905061384081856102b691906110ff565b6102c09190611133565b9050600062015180846102d39190611224565b9050613840816102e39190611224565b905061384081856102f491906110ff565b6102fe9190611133565b9050808210610342576040517f08c379a0000000000000000000000000000000000000000000000000000000008152600401610339906112a1565b60405180910390fd5b61034d83838361051c565b15610475576007600084815260200190815260200160002082908060018154018082558091505060019003906000526020600020016000909190919091505533600080858152602001908152602001600020600084815260200190815260200160002060006101000a81548173ffffffffffffffffffffffffffffffffffffffff021916908373ffffffffffffffffffffffffffffffffffffffff16021790555080600160008581526020019081526020016000206000848152602001908152602001600020819055506040518060400160405280600a81526020017f5072656f72646572656400000000000000000000000000000000000000000000815250600260008581526020019081526020016000209080519060200190610473929190610c1b565b505b5050505050565b6002602052806000526040600020600091509050805461049b906112f0565b80601f01602080910402602001604051908101604052809291908181526020018280546104c7906112f0565b80156105145780601f106104e957610100808354040283529160200191610514565b820191906000526020600020905b8154815290600101906020018083116104f757829003601f168201915b505050505081565b60006040518060400160405280600a81526020017f5072656f72646572656400000000000000000000000000000000000000000000815250805190602001206002600086815260200190815260200160002060405161057b91906113c1565b6040518091039020141561095b576001905060005b60076000868152602001908152602001600020805490508110156109595760006007600087815260200190815260200160002082815481106105d5576105d46113d8565b5b90600052602060002001541115610946578360076000878152602001908152602001600020828154811061060c5761060b6113d8565b5b906000526020600020015411158015610678575060016000868152602001908152602001600020600060076000888152602001908152602001600020838154811061065a576106596113d8565b5b90600052602060002001548152602001908152602001600020548411155b806106b15750836007600087815260200190815260200160002082815481106106a4576106a36113d8565b5b9060005260206000200154145b8061070e5750836001600087815260200190815260200160002060006007600089815260200190815260200160002084815481106106f2576106f16113d8565b5b9060005260206000200154815260200190815260200160002054145b8061074757508260076000878152602001908152602001600020828154811061073a576107396113d8565b5b9060005260206000200154145b806107a4575082600160008781526020019081526020016000206000600760008981526020019081526020016000208481548110610788576107876113d8565b5b9060005260206000200154815260200190815260200160002054145b8061083d5750826007600087815260200190815260200160002082815481106107d0576107cf6113d8565b5b90600052602060002001541115801561083c575060016000868152602001908152602001600020600060076000888152602001908152602001600020838154811061081e5761081d6113d8565b5b90600052602060002001548152602001908152602001600020548311155b5b806108d6575082600760008781526020019081526020016000208281548110610869576108686113d8565b5b9060005260206000200154111580156108d557506001600086815260200190815260200160002060006007600088815260200190815260200160002083815481106108b7576108b66113d8565b5b90600052602060002001548152602001908152602001600020548311155b5b1561094557600091506040518060400160405280600881526020017f536f6e6f205175690000000000000000000000000000000000000000000000008152506006908051906020019061092a929190610c1b565b50600760008681526020019081526020016000208054905090505b5b808061095190611407565b915050610590565b505b6040518060400160405280600981526020017f417661696c61626c65000000000000000000000000000000000000000000000081525080519060200120600260008681526020019081526020016000206040516109b891906113c1565b604051809103902014156109cb57600190505b9392505050565b6001602052816000526040600020602052806000526040600020600091509150505481565b60006040518060400160405280600481526020017f42757379000000000000000000000000000000000000000000000000000000008152508051906020012082805190602001201480610a8c57506040518060400160405280600981526020017f417661696c61626c650000000000000000000000000000000000000000000000815250805190602001208280519060200120145b80610ad957506040518060400160405280600781526020017f57616974696e6700000000000000000000000000000000000000000000000000815250805190602001208280519060200120145b15610b0f5781600260008581526020019081526020016000209080519060200190610b05929190610c1b565b5060019050610b14565b600090505b92915050565b60076020528160005260406000208181548110610b3657600080fd5b90600052602060002001600091509150505481565b60006020528160005260406000206020528060005260406000206000915091509054906101000a900473ffffffffffffffffffffffffffffffffffffffff1681565b60068054610b9a906112f0565b80601f0160208091040260200160405190810160405280929190818152602001828054610bc6906112f0565b8015610c135780601f10610be857610100808354040283529160200191610c13565b820191906000526020600020905b815481529060010190602001808311610bf657829003601f168201915b505050505081565b828054610c27906112f0565b90600052602060002090601f016020900481019282610c495760008555610c90565b82601f10610c6257805160ff1916838001178555610c90565b82800160010185558215610c90579182015b82811115610c8f578251825591602001919060010190610c74565b5b509050610c9d9190610ca1565b5090565b5b80821115610cba576000816000905550600101610ca2565b5090565b6000604051905090565b600080fd5b600080fd5b6000819050919050565b610ce581610cd2565b8114610cf057600080fd5b50565b600081359050610d0281610cdc565b92915050565b600080600060608486031215610d2157610d20610cc8565b5b6000610d2f86828701610cf3565b9350506020610d4086828701610cf3565b9250506040610d5186828701610cf3565b9150509250925092565b600060208284031215610d7157610d70610cc8565b5b6000610d7f84828501610cf3565b91505092915050565b600081519050919050565b600082825260208201905092915050565b60005b83811015610dc2578082015181840152602081019050610da7565b83811115610dd1576000848401525b50505050565b6000601f19601f8301169050919050565b6000610df382610d88565b610dfd8185610d93565b9350610e0d818560208601610da4565b610e1681610dd7565b840191505092915050565b60006020820190508181036000830152610e3b8184610de8565b905092915050565b60008115159050919050565b610e5881610e43565b82525050565b6000602082019050610e736000830184610e4f565b92915050565b60008060408385031215610e9057610e8f610cc8565b5b6000610e9e85828601610cf3565b9250506020610eaf85828601610cf3565b9150509250929050565b610ec281610cd2565b82525050565b6000602082019050610edd6000830184610eb9565b92915050565b600080fd5b600080fd5b7f4e487b7100000000000000000000000000000000000000000000000000000000600052604160045260246000fd5b610f2582610dd7565b810181811067ffffffffffffffff82111715610f4457610f43610eed565b5b80604052505050565b6000610f57610cbe565b9050610f638282610f1c565b919050565b600067ffffffffffffffff821115610f8357610f82610eed565b5b610f8c82610dd7565b9050602081019050919050565b82818337600083830152505050565b6000610fbb610fb684610f68565b610f4d565b905082815260208101848484011115610fd757610fd6610ee8565b5b610fe2848285610f99565b509392505050565b600082601f830112610fff57610ffe610ee3565b5b813561100f848260208601610fa8565b91505092915050565b6000806040838503121561102f5761102e610cc8565b5b600061103d85828601610cf3565b925050602083013567ffffffffffffffff81111561105e5761105d610ccd565b5b61106a85828601610fea565b9150509250929050565b600073ffffffffffffffffffffffffffffffffffffffff82169050919050565b600061109f82611074565b9050919050565b6110af81611094565b82525050565b60006020820190506110ca60008301846110a6565b92915050565b7f4e487b7100000000000000000000000000000000000000000000000000000000600052601160045260246000fd5b600061110a82610cd2565b915061111583610cd2565b925082821015611128576111276110d0565b5b828203905092915050565b600061113e82610cd2565b915061114983610cd2565b9250827fffffffffffffffffffffffffffffffffffffffffffffffffffffffffffffffff0382111561117e5761117d6110d0565b5b828201905092915050565b7f4e6f7420706f737369626c6520696e2074686520706173740000000000000000600082015250565b60006111bf601883610d93565b91506111ca82611189565b602082019050919050565b600060208201905081810360008301526111ee816111b2565b9050919050565b7f4e487b7100000000000000000000000000000000000000000000000000000000600052601260045260246000fd5b600061122f82610cd2565b915061123a83610cd2565b92508261124a576112496111f5565b5b828206905092915050565b7f3c00000000000000000000000000000000000000000000000000000000000000600082015250565b600061128b600183610d93565b915061129682611255565b602082019050919050565b600060208201905081810360008301526112ba8161127e565b9050919050565b7f4e487b7100000000000000000000000000000000000000000000000000000000600052602260045260246000fd5b6000600282049050600182168061130857607f821691505b6020821081141561131c5761131b6112c1565b5b50919050565b600081905092915050565b60008190508160005260206000209050919050565b6000815461134f816112f0565b6113598186611322565b945060018216600081146113745760018114611385576113b8565b60ff198316865281860193506113b8565b61138e8561132d565b60005b838110156113b057815481890152600182019150602081019050611391565b838801955050505b50505092915050565b60006113cd8284611342565b915081905092915050565b7f4e487b7100000000000000000000000000000000000000000000000000000000600052603260045260246000fd5b600061141282610cd2565b91507fffffffffffffffffffffffffffffffffffffffffffffffffffffffffffffffff821415611445576114446110d0565b5b60018201905091905056fea2646970667358221220687f7e3bfcdc02cd3454675e240394613a8d24867e4dca827f9c6bf7d5556ba364736f6c634300080a0033",
  "immutableReferences": {},
  "source": "\r\npragma solidity ^0.8.0;\r\n\r\n\r\n\r\ncontract Calendar   {\r\n\t\r\n\t  mapping(uint256=>mapping(uint256=>address)) public Preorderstart;\r\n\t  mapping(uint256=>mapping(uint256=>uint256)) public Preorderend;\r\n    mapping(uint256 => string) public Available;\r\n    uint256 time;\r\n    uint256 fusoorario;\r\n    uint256[] Status;\r\n    string public test;\r\n\r\n    mapping(uint256=>uint256[]) public PreorderOpen;\r\n\t\t    \r\n\r\n \r\n\r\n\tconstructor() public { \r\n      \r\n\r\n\r\n\r\n\t}\r\n\r\n\r\n\tfunction Pre_Order(uint256 dataStart, uint256 dataEnd, uint256 _id)  external {\r\n    time =block.timestamp-10 + fusoorario;\r\n    require(time < dataStart,\"Not possible in the past\");\r\n    uint256 date1 = dataStart % 86400; //tempo mod giorni\r\n    date1= date1 % 14400;  //mod 4 ore\r\n\t\tdate1 = dataStart - date1 + 14400; //avro il giorno attuale + a mod di 4 ore\r\n                               //es 6 nov - 0:00 - 4:00 - 8:00 - 12:00 - 16:00 ecc... \r\n                               //se sono le 17:11 la prenotazione sar allo slot successivo\r\n                               //alle 20\r\n    uint256 date2 = dataEnd % 86400; //uguale a prima\r\n    date2= date2 % 14400;            \r\n\t\tdate2 = dataEnd - date2 +14400; \r\n\r\n\t\trequire(date1<date2,\"<\");//la prenotazione vale almeno se dura 4 ore\r\n      \r\n        if(CheckAvialable(_id,date1,date2)){\r\n    PreorderOpen[_id].push(date1);\r\n\t\tPreorderstart[_id][date1]= msg.sender;\r\n\t\tPreorderend[_id][date1]=date2;\t\r\n\t\tAvailable[_id]=\"Preordered\";\r\n\t\t\t\t\r\n\t\t\r\n\t\t\t\t\r\n\t\t}}\r\n\r\n\tfunction CheckAvialable(uint256 idA,uint256 _dataStart, uint256 _dataEnd) public returns(bool ret) {\r\n\t\t\r\n\t\t\t\t//in caso in cui sia occupato controllare se le date inserite sia valide per il preorder\r\n\t\tif(keccak256(bytes(Available[idA])) == keccak256(bytes(\"Preordered\"))){\r\n\t\t\tret = true;\r\n\r\n\t\t\t\tfor(uint256 i=0; i < PreorderOpen[idA].length; i++){\r\n\t\t\t\tif( PreorderOpen[idA][i]>0 ){\r\n\t\t\t\t\tif((PreorderOpen[idA][i]<= _dataStart && _dataStart<=Preorderend[idA][PreorderOpen[idA][i]])\r\n\t\t\t\t\t\t|| (PreorderOpen[idA][i] == _dataStart) || (Preorderend[idA][PreorderOpen[idA][i]] == _dataStart)\r\n\t\t\t\t\t\t|| (PreorderOpen[idA][i] == _dataEnd )  || (Preorderend[idA][PreorderOpen[idA][i]] == _dataEnd)\r\n\t\t\t\t\t\t|| (PreorderOpen[idA][i] <= _dataEnd && _dataEnd<=Preorderend[idA][PreorderOpen[idA][i]])\r\n\t\t\t\t\t\t|| (PreorderOpen[idA][i]<= _dataEnd && _dataEnd<=Preorderend[idA][PreorderOpen[idA][i]])\r\n\t\t\t\t\t\t){\r\n\t\t\t\t\t\tret = false;\r\n\t\t\t\t\t\ttest=\"Sono Qui\";\r\n\t\t\t\t\t\ti = PreorderOpen[idA].length;\r\n\t\t\t\t\t}\r\n\r\n\t\t\t\t}\r\n\t\t\t}\r\n\r\n\t\t/*\r\n\t\t\tfor(uint256 i=_dataStart;i <= _dataEnd;i= i + 14400){\r\n\t\t\t\tif(Preorderstart[idA][i]!=address(0x0) || Preorderend[idA][i]==i){\r\n\t\t\t\t\tret =false;\r\n\t\t\t\t\ttest=\"Sono Qui\";\r\n\r\n\t\t\t\t}\r\n\t\t\t}*/\r\n\t\t}\r\n\t\tif(keccak256(bytes(Available[idA])) == keccak256(bytes(\"Available\"))){\r\n\t\tret = true;\r\n\t\t}\r\n\t\treturn ret;\r\n\r\n\t\t//creare un evento per data suggerita nel caso l'item non sia disponibile\r\n\r\n\t}\t\r\n\tfunction Update()internal {\r\n\t\t\t\t\r\n\t\t\t}\r\n\tfunction setAvailable(uint256 idA,string memory Status)public returns(bool){\r\n\tif(keccak256(bytes(Status)) == keccak256(bytes(\"Busy\"))||keccak256(bytes(Status)) == keccak256(bytes(\"Available\"))||keccak256(bytes(Status)) == keccak256(bytes(\"Waiting\")) ){\r\n\t\t\tAvailable[idA]=Status;\r\n\t\t\treturn true;\r\n\t\t\r\n\t\t}\r\n\t\treturn false;\r\n\r\n\t\t\t}\t\t\t\t\r\nfunction setFusoOraio()public{\r\n\tif (fusoorario==0){\r\n\t\tfusoorario= 3600;\r\n\t}\r\n\telse{\r\n\t\tfusoorario=0;\r\n\t}\r\n}\r\n\r\n\t\r\n}",
  "sourcePath": "C:\\Users\\Luca\\Desktop\\tesi\\My-tesi\\src\\contracts\\LitemCalendar.sol",
  "compiler": {
    "name": "solc",
    "version": "0.8.10+commit.fc410830.Emscripten.clang"
  },
  "schemaVersion": "3.4.1",
  "updatedAt": "2021-11-18T16:10:27.587Z",
  "devdoc": {
    "kind": "dev",
    "methods": {},
    "version": 1
  },
  "userdoc": {
    "kind": "user",
    "methods": {},
    "version": 1
  }
}