{
  "contractName": "Calendar",
  "abi": [
    {
      "inputs": [],
      "stateMutability": "nonpayable",
      "type": "constructor"
    },
    {
      "inputs": [
        {
          "internalType": "uint256",
          "name": "",
          "type": "uint256"
        }
      ],
      "name": "Available",
      "outputs": [
        {
          "internalType": "string",
          "name": "",
          "type": "string"
        }
      ],
      "stateMutability": "view",
      "type": "function"
    },
    {
      "inputs": [
        {
          "internalType": "uint256",
          "name": "",
          "type": "uint256"
        },
        {
          "internalType": "uint256",
          "name": "",
          "type": "uint256"
        }
      ],
      "name": "PreorderOpen",
      "outputs": [
        {
          "internalType": "uint256",
          "name": "",
          "type": "uint256"
        }
      ],
      "stateMutability": "view",
      "type": "function"
    },
    {
      "inputs": [
        {
          "internalType": "uint256",
          "name": "",
          "type": "uint256"
        },
        {
          "internalType": "uint256",
          "name": "",
          "type": "uint256"
        }
      ],
      "name": "Preorderend",
      "outputs": [
        {
          "internalType": "uint256",
          "name": "",
          "type": "uint256"
        }
      ],
      "stateMutability": "view",
      "type": "function"
    },
    {
      "inputs": [
        {
          "internalType": "uint256",
          "name": "",
          "type": "uint256"
        },
        {
          "internalType": "uint256",
          "name": "",
          "type": "uint256"
        }
      ],
      "name": "Preorderstart",
      "outputs": [
        {
          "internalType": "address",
          "name": "",
          "type": "address"
        }
      ],
      "stateMutability": "view",
      "type": "function"
    },
    {
      "inputs": [],
      "name": "time",
      "outputs": [
        {
          "internalType": "uint256",
          "name": "",
          "type": "uint256"
        }
      ],
      "stateMutability": "view",
      "type": "function"
    },
    {
      "inputs": [],
      "name": "Time",
      "outputs": [],
      "stateMutability": "nonpayable",
      "type": "function"
    },
    {
      "inputs": [
        {
          "internalType": "uint256",
          "name": "i",
          "type": "uint256"
        }
      ],
      "name": "TimeAdd",
      "outputs": [],
      "stateMutability": "nonpayable",
      "type": "function"
    },
    {
      "inputs": [
        {
          "internalType": "uint256",
          "name": "dataStart",
          "type": "uint256"
        },
        {
          "internalType": "uint256",
          "name": "dataEnd",
          "type": "uint256"
        },
        {
          "internalType": "uint256",
          "name": "_id",
          "type": "uint256"
        },
        {
          "internalType": "address",
          "name": "_usr",
          "type": "address"
        }
      ],
      "name": "Pre_Order",
      "outputs": [
        {
          "internalType": "bool",
          "name": "suc",
          "type": "bool"
        }
      ],
      "stateMutability": "nonpayable",
      "type": "function"
    },
    {
      "inputs": [
        {
          "internalType": "uint256",
          "name": "idA",
          "type": "uint256"
        },
        {
          "internalType": "uint256",
          "name": "_dataStart",
          "type": "uint256"
        },
        {
          "internalType": "uint256",
          "name": "_dataEnd",
          "type": "uint256"
        }
      ],
      "name": "CheckAvialable",
      "outputs": [
        {
          "internalType": "bool",
          "name": "ret",
          "type": "bool"
        }
      ],
      "stateMutability": "nonpayable",
      "type": "function"
    },
    {
      "inputs": [],
      "name": "Update",
      "outputs": [],
      "stateMutability": "nonpayable",
      "type": "function"
    },
    {
      "inputs": [
        {
          "internalType": "uint256",
          "name": "idA",
          "type": "uint256"
        },
        {
          "internalType": "string",
          "name": "Status",
          "type": "string"
        }
      ],
      "name": "setAvailable",
      "outputs": [
        {
          "internalType": "bool",
          "name": "",
          "type": "bool"
        }
      ],
      "stateMutability": "nonpayable",
      "type": "function"
    },
    {
      "inputs": [],
      "name": "setFusoOraio",
      "outputs": [],
      "stateMutability": "nonpayable",
      "type": "function"
    },
    {
      "inputs": [
        {
          "internalType": "uint256",
          "name": "_id1",
          "type": "uint256"
        },
        {
          "internalType": "uint256",
          "name": "_dateS",
          "type": "uint256"
        }
      ],
      "name": "Back",
      "outputs": [
        {
          "internalType": "bool",
          "name": "",
          "type": "bool"
        }
      ],
      "stateMutability": "nonpayable",
      "type": "function"
    },
    {
      "inputs": [
        {
          "internalType": "uint256",
          "name": "date",
          "type": "uint256"
        },
        {
          "internalType": "bool",
          "name": "next",
          "type": "bool"
        }
      ],
      "name": "Converter",
      "outputs": [
        {
          "internalType": "uint256",
          "name": "",
          "type": "uint256"
        }
      ],
      "stateMutability": "view",
      "type": "function"
    },
    {
      "inputs": [
        {
          "internalType": "uint256",
          "name": "idP",
          "type": "uint256"
        },
        {
          "internalType": "address",
          "name": "usr",
          "type": "address"
        }
      ],
      "name": "AcquirePre",
      "outputs": [
        {
          "internalType": "bool",
          "name": "ret",
          "type": "bool"
        }
      ],
      "stateMutability": "nonpayable",
      "type": "function"
    },
    {
      "inputs": [
        {
          "internalType": "uint256",
          "name": "idP",
          "type": "uint256"
        },
        {
          "internalType": "address",
          "name": "usr",
          "type": "address"
        },
        {
          "internalType": "uint256",
          "name": "_dataF",
          "type": "uint256"
        }
      ],
      "name": "Acquire",
      "outputs": [
        {
          "internalType": "bool",
          "name": "ret",
          "type": "bool"
        }
      ],
      "stateMutability": "nonpayable",
      "type": "function"
    },
    {
      "inputs": [],
      "name": "preOrderOpenGet",
      "outputs": [
        {
          "internalType": "uint256[]",
          "name": "",
          "type": "uint256[]"
        }
      ],
      "stateMutability": "view",
      "type": "function"
    },
    {
      "inputs": [
        {
          "internalType": "uint256",
          "name": "_id1",
          "type": "uint256"
        }
      ],
      "name": "Relese",
      "outputs": [],
      "stateMutability": "nonpayable",
      "type": "function"
    }
  ],
  "bytecode": "0x608060405234801561001057600080fd5b50612515806100206000396000f3fe608060405234801561001057600080fd5b50600436106101165760003560e01c806394cfd453116100a2578063b140621111610071578063b140621114610305578063b99ad1bc14610323578063d9d92d1e14610353578063e201d8bd14610383578063f8e157ea146103b357610116565b806394cfd4531461027f5780639ff3b46d146102af578063ae59e24b146102df578063af4b7f14146102fb57610116565b80633097c98e116100e95780633097c98e146101a357806335b67731146101d35780634abc9325146102035780634bbbff061461021f57806360a48f7c1461024f57610116565b806304e4deaa1461011b57806316ada5471461014b5780631b227ed71461016957806323ba900e14610199575b600080fd5b61013560048036038101906101309190611a19565b6103bd565b6040516101429190611a68565b60405180910390f35b610153610413565b6040516101609190611a68565b60405180910390f35b610183600480360381019061017e9190611ae1565b610419565b6040516101909190611b30565b60405180910390f35b6101a1610682565b005b6101bd60048036038101906101b89190611b4b565b6106a6565b6040516101ca9190611b30565b60405180910390f35b6101ed60048036038101906101e89190611bb2565b61096a565b6040516101fa9190611c78565b60405180910390f35b61021d60048036038101906102189190611bb2565b610a0a565b005b61023960048036038101906102349190611c9a565b610b07565b6040516102469190611b30565b60405180910390f35b61026960048036038101906102649190611cda565b610d2c565b6040516102769190611b30565b60405180910390f35b61029960048036038101906102949190611c9a565b61129c565b6040516102a69190611a68565b60405180910390f35b6102c960048036038101906102c49190611e62565b6112c1565b6040516102d69190611b30565b60405180910390f35b6102f960048036038101906102f49190611bb2565b6113e4565b005b6103036113fb565b005b61030d611669565b60405161031a9190611f7c565b60405180910390f35b61033d60048036038101906103389190611c9a565b6116d3565b60405161034a9190611a68565b60405180910390f35b61036d60048036038101906103689190611f9e565b611704565b60405161037a9190611b30565b60405180910390f35b61039d60048036038101906103989190611c9a565b61189c565b6040516103aa9190612000565b60405180910390f35b6103bb6118de565b005b60008082156103cc5761384090505b600062015180856103dd919061204a565b9050613840816103ed919061204a565b90508181866103fc91906120aa565b61040691906120de565b9050809250505092915050565b60035481565b60006104236113fb565b60005b600760008581526020019081526020016000208054905081101561067a578273ffffffffffffffffffffffffffffffffffffffff16600080868152602001908152602001600020600060076000888152602001908152602001600020848154811061049457610493612134565b5b9060005260206000200154815260200190815260200160002060009054906101000a900473ffffffffffffffffffffffffffffffffffffffff1673ffffffffffffffffffffffffffffffffffffffff1614156106675760076000858152602001908152602001600020818154811061050f5761050e612134565b5b9060005260206000200154600354101580156105fa57506040518060400160405280600981526020017f417661696c61626c65000000000000000000000000000000000000000000000081525080519060200120600260008681526020019081526020016000206040516105839190612263565b604051809103902014806105f957506040518060400160405280600a81526020017f5072656f7264657265640000000000000000000000000000000000000000000081525080519060200120600260008681526020019081526020016000206040516105ef9190612263565b6040518091039020145b5b15610666576040518060400160405280600481526020017f427573790000000000000000000000000000000000000000000000000000000081525060026000868152602001908152602001600020908051906020019061065b9291906118f4565b50600191505061067c565b5b80806106729061227a565b915050610426565b505b92915050565b6000600454141561069b57610e106004819055506106a4565b60006004819055505b565b60006106b06118de565b60008514156106bf5760035494505b6000905060008411610706576040517f08c379a00000000000000000000000000000000000000000000000000000000081526004016106fd9061230f565b60405180910390fd5b84600354111561074b576040517f08c379a00000000000000000000000000000000000000000000000000000000081526004016107429061237b565b60405180910390fd5b60006107588660016103bd565b905060006107678660016103bd565b90508082106107ab576040517f08c379a00000000000000000000000000000000000000000000000000000000081526004016107a2906123e7565b60405180910390fd5b6006548511156107bd57846006819055505b6107c8858383610d2c565b15610960576007600086815260200190815260200160002082908060018154018082558091505060019003906000526020600020016000909190919091505583600080878152602001908152602001600020600084815260200190815260200160002060006101000a81548173ffffffffffffffffffffffffffffffffffffffff021916908373ffffffffffffffffffffffffffffffffffffffff1602179055508060016000878152602001908152602001600020600084815260200190815260200160002081905550600260008681526020019081526020016000206040516108b29190612263565b60405180910390206040518060400160405280600981526020017f417661696c61626c65000000000000000000000000000000000000000000000081525080519060200120141561095b576040518060400160405280600a81526020017f5072656f726465726564000000000000000000000000000000000000000000008152506002600087815260200190815260200160002090805190602001906109599291906118f4565b505b600192505b5050949350505050565b6002602052806000526040600020600091509050805461098990612192565b80601f01602080910402602001604051908101604052809291908181526020018280546109b590612192565b8015610a025780601f106109d757610100808354040283529160200191610a02565b820191906000526020600020905b8154815290600101906020018083116109e557829003601f168201915b505050505081565b6040518060400160405280600781526020017f57616974696e67000000000000000000000000000000000000000000000000008152508051906020012060026000838152602001908152602001600020604051610a679190612263565b604051809103902014610a7957600080fd5b6000610aba826040518060400160405280600981526020017f417661696c61626c6500000000000000000000000000000000000000000000008152506112c1565b90506001151581151514610b03576040517f08c379a0000000000000000000000000000000000000000000000000000000008152600401610afa90612453565b60405180910390fd5b5050565b6000610b148260006103bd565b91506040518060400160405280600481526020017f42757379000000000000000000000000000000000000000000000000000000008152508051906020012060026000858152602001908152602001600020604051610b739190612263565b6040518091039020148015610b885750600082115b8015610bb85750600060016000858152602001908152602001600020600084815260200190815260200160002054115b15610d21576000610bfe846040518060400160405280600781526020017f57616974696e67000000000000000000000000000000000000000000000000008152506112c1565b90508015610d1f57600080858152602001908152602001600020600084815260200190815260200160002060006101000a81549073ffffffffffffffffffffffffffffffffffffffff02191690556001600085815260200190815260200160002060008481526020019081526020016000206000905560005b6007600086815260200190815260200160002080549050811015610d1d5783600760008781526020019081526020016000208281548110610cbb57610cba612134565b5b90600052602060002001541415610d0a57600760008681526020019081526020016000208181548110610cf157610cf0612134565b5b9060005260206000200160009055600192505050610d26565b8080610d159061227a565b915050610c77565b505b505b600090505b92915050565b60006040518060400160405280600a81526020017f5072656f726465726564000000000000000000000000000000000000000000008152508051906020012060026000868152602001908152602001600020604051610d8b9190612263565b60405180910390201480610e0157506040518060400160405280600481526020017f42757379000000000000000000000000000000000000000000000000000000008152508051906020012060026000868152602001908152602001600020604051610df79190612263565b6040518091039020145b15611225576001905060005b6007600086815260200190815260200160002080549050811015611223576000600760008781526020019081526020016000208281548110610e5257610e51612134565b5b906000526020600020015411156112105783600760008781526020019081526020016000208281548110610e8957610e88612134565b5b906000526020600020015411158015610ef55750600160008681526020019081526020016000206000600760008881526020019081526020016000208381548110610ed757610ed6612134565b5b90600052602060002001548152602001908152602001600020548411155b80610f2e575083600760008781526020019081526020016000208281548110610f2157610f20612134565b5b9060005260206000200154145b80610f8b575083600160008781526020019081526020016000206000600760008981526020019081526020016000208481548110610f6f57610f6e612134565b5b9060005260206000200154815260200190815260200160002054145b80610fc4575082600760008781526020019081526020016000208281548110610fb757610fb6612134565b5b9060005260206000200154145b8061102157508260016000878152602001908152602001600020600060076000898152602001908152602001600020848154811061100557611004612134565b5b9060005260206000200154815260200190815260200160002054145b806110ba57508260076000878152602001908152602001600020828154811061104d5761104c612134565b5b9060005260206000200154111580156110b9575060016000868152602001908152602001600020600060076000888152602001908152602001600020838154811061109b5761109a612134565b5b90600052602060002001548152602001908152602001600020548311155b5b806111535750826007600087815260200190815260200160002082815481106110e6576110e5612134565b5b906000526020600020015411158015611152575060016000868152602001908152602001600020600060076000888152602001908152602001600020838154811061113457611133612134565b5b90600052602060002001548152602001908152602001600020548311155b5b806111ec575060076000868152602001908152602001600020818154811061117e5761117d612134565b5b906000526020600020015484111580156111eb5750826001600087815260200190815260200160002060006007600089815260200190815260200160002084815481106111ce576111cd612134565b5b906000526020600020015481526020019081526020016000205411155b5b1561120f5760009150600760008681526020019081526020016000208054905090505b5b808061121b9061227a565b915050610e0d565b505b6040518060400160405280600981526020017f417661696c61626c65000000000000000000000000000000000000000000000081525080519060200120600260008681526020019081526020016000206040516112829190612263565b6040518091039020141561129557600190505b9392505050565b6001602052816000526040600020602052806000526040600020600091509150505481565b60006040518060400160405280600481526020017f4275737900000000000000000000000000000000000000000000000000000000815250805190602001208280519060200120148061135657506040518060400160405280600981526020017f417661696c61626c650000000000000000000000000000000000000000000000815250805190602001208280519060200120145b806113a357506040518060400160405280600781526020017f57616974696e6700000000000000000000000000000000000000000000000000815250805190602001208280519060200120145b156113d957816002600085815260200190815260200160002090805190602001906113cf9291906118f4565b50600190506113de565b600090505b92915050565b806003546113f291906120de565b60038190555050565b6114036118de565b60005b6006548111611666576040518060400160405280600a81526020017f5072656f72646572656400000000000000000000000000000000000000000000815250805190602001206002600083815260200190815260200160002060405161146c9190612263565b604051809103902014156116535760005b6007600083815260200190815260200160002080549050811015611651576007600083815260200190815260200160002081815481106114c0576114bf612134565b5b9060005260206000200154620151806003546114dc91906120aa565b1061163e57600080838152602001908152602001600020600060076000858152602001908152602001600020838154811061151a57611519612134565b5b9060005260206000200154815260200190815260200160002060006101000a81549073ffffffffffffffffffffffffffffffffffffffff02191690556001600083815260200190815260200160002060006007600085815260200190815260200160002083815481106115905761158f612134565b5b90600052602060002001548152602001908152602001600020600090556040518060400160405280600781526020017f57616974696e67000000000000000000000000000000000000000000000000008152506002600084815260200190815260200160002090805190602001906116099291906118f4565b5060076000838152602001908152602001600020818154811061162f5761162e612134565b5b90600052602060002001600090555b80806116499061227a565b91505061147d565b505b808061165e9061227a565b915050611406565b50565b606060076000600881526020019081526020016000208054806020026020016040519081016040528092919081815260200182805480156116c957602002820191906000526020600020905b8154815260200190600101908083116116b5575b5050505050905090565b600760205281600052604060002081815481106116ef57600080fd5b90600052602060002001600091509150505481565b6000600354821115611890576000611751856040518060400160405280600481526020017f42757379000000000000000000000000000000000000000000000000000000008152506112c1565b9050600115158115151461179a576040517f08c379a0000000000000000000000000000000000000000000000000000000008152600401611791906124bf565b60405180910390fd5b60006117a46118de565b6117b160035460006103bd565b90506117be8460016103bd565b93506007600087815260200190815260200160002081908060018154018082558091505060019003906000526020600020016000909190919091505584600080888152602001908152602001600020600083815260200190815260200160002060006101000a81548173ffffffffffffffffffffffffffffffffffffffff021916908373ffffffffffffffffffffffffffffffffffffffff1602179055508360016000888152602001908152602001600020600083815260200190815260200160002081905550600192505050611895565b600090505b9392505050565b60006020528160005260406000206020528060005260406000206000915091509054906101000a900473ffffffffffffffffffffffffffffffffffffffff1681565b600454426118ec91906120de565b600381905550565b82805461190090612192565b90600052602060002090601f0160209004810192826119225760008555611969565b82601f1061193b57805160ff1916838001178555611969565b82800160010185558215611969579182015b8281111561196857825182559160200191906001019061194d565b5b509050611976919061197a565b5090565b5b8082111561199357600081600090555060010161197b565b5090565b6000604051905090565b600080fd5b600080fd5b6000819050919050565b6119be816119ab565b81146119c957600080fd5b50565b6000813590506119db816119b5565b92915050565b60008115159050919050565b6119f6816119e1565b8114611a0157600080fd5b50565b600081359050611a13816119ed565b92915050565b60008060408385031215611a3057611a2f6119a1565b5b6000611a3e858286016119cc565b9250506020611a4f85828601611a04565b9150509250929050565b611a62816119ab565b82525050565b6000602082019050611a7d6000830184611a59565b92915050565b600073ffffffffffffffffffffffffffffffffffffffff82169050919050565b6000611aae82611a83565b9050919050565b611abe81611aa3565b8114611ac957600080fd5b50565b600081359050611adb81611ab5565b92915050565b60008060408385031215611af857611af76119a1565b5b6000611b06858286016119cc565b9250506020611b1785828601611acc565b9150509250929050565b611b2a816119e1565b82525050565b6000602082019050611b456000830184611b21565b92915050565b60008060008060808587031215611b6557611b646119a1565b5b6000611b73878288016119cc565b9450506020611b84878288016119cc565b9350506040611b95878288016119cc565b9250506060611ba687828801611acc565b91505092959194509250565b600060208284031215611bc857611bc76119a1565b5b6000611bd6848285016119cc565b91505092915050565b600081519050919050565b600082825260208201905092915050565b60005b83811015611c19578082015181840152602081019050611bfe565b83811115611c28576000848401525b50505050565b6000601f19601f8301169050919050565b6000611c4a82611bdf565b611c548185611bea565b9350611c64818560208601611bfb565b611c6d81611c2e565b840191505092915050565b60006020820190508181036000830152611c928184611c3f565b905092915050565b60008060408385031215611cb157611cb06119a1565b5b6000611cbf858286016119cc565b9250506020611cd0858286016119cc565b9150509250929050565b600080600060608486031215611cf357611cf26119a1565b5b6000611d01868287016119cc565b9350506020611d12868287016119cc565b9250506040611d23868287016119cc565b9150509250925092565b600080fd5b600080fd5b7f4e487b7100000000000000000000000000000000000000000000000000000000600052604160045260246000fd5b611d6f82611c2e565b810181811067ffffffffffffffff82111715611d8e57611d8d611d37565b5b80604052505050565b6000611da1611997565b9050611dad8282611d66565b919050565b600067ffffffffffffffff821115611dcd57611dcc611d37565b5b611dd682611c2e565b9050602081019050919050565b82818337600083830152505050565b6000611e05611e0084611db2565b611d97565b905082815260208101848484011115611e2157611e20611d32565b5b611e2c848285611de3565b509392505050565b600082601f830112611e4957611e48611d2d565b5b8135611e59848260208601611df2565b91505092915050565b60008060408385031215611e7957611e786119a1565b5b6000611e87858286016119cc565b925050602083013567ffffffffffffffff811115611ea857611ea76119a6565b5b611eb485828601611e34565b9150509250929050565b600081519050919050565b600082825260208201905092915050565b6000819050602082019050919050565b611ef3816119ab565b82525050565b6000611f058383611eea565b60208301905092915050565b6000602082019050919050565b6000611f2982611ebe565b611f338185611ec9565b9350611f3e83611eda565b8060005b83811015611f6f578151611f568882611ef9565b9750611f6183611f11565b925050600181019050611f42565b5085935050505092915050565b60006020820190508181036000830152611f968184611f1e565b905092915050565b600080600060608486031215611fb757611fb66119a1565b5b6000611fc5868287016119cc565b9350506020611fd686828701611acc565b9250506040611fe7868287016119cc565b9150509250925092565b611ffa81611aa3565b82525050565b60006020820190506120156000830184611ff1565b92915050565b7f4e487b7100000000000000000000000000000000000000000000000000000000600052601260045260246000fd5b6000612055826119ab565b9150612060836119ab565b9250826120705761206f61201b565b5b828206905092915050565b7f4e487b7100000000000000000000000000000000000000000000000000000000600052601160045260246000fd5b60006120b5826119ab565b91506120c0836119ab565b9250828210156120d3576120d261207b565b5b828203905092915050565b60006120e9826119ab565b91506120f4836119ab565b9250827fffffffffffffffffffffffffffffffffffffffffffffffffffffffffffffffff038211156121295761212861207b565b5b828201905092915050565b7f4e487b7100000000000000000000000000000000000000000000000000000000600052603260045260246000fd5b7f4e487b7100000000000000000000000000000000000000000000000000000000600052602260045260246000fd5b600060028204905060018216806121aa57607f821691505b602082108114156121be576121bd612163565b5b50919050565b600081905092915050565b60008190508160005260206000209050919050565b600081546121f181612192565b6121fb81866121c4565b9450600182166000811461221657600181146122275761225a565b60ff1983168652818601935061225a565b612230856121cf565b60005b8381101561225257815481890152600182019150602081019050612233565b838801955050505b50505092915050565b600061226f82846121e4565b915081905092915050565b6000612285826119ab565b91507fffffffffffffffffffffffffffffffffffffffffffffffffffffffffffffffff8214156122b8576122b761207b565b5b600182019050919050565b7f64617461456e6420697320300000000000000000000000000000000000000000600082015250565b60006122f9600c83611bea565b9150612304826122c3565b602082019050919050565b60006020820190508181036000830152612328816122ec565b9050919050565b7f4e6f7420706f737369626c6520696e2074686520706173740000000000000000600082015250565b6000612365601883611bea565b91506123708261232f565b602082019050919050565b6000602082019050818103600083015261239481612358565b9050919050565b7f3c00000000000000000000000000000000000000000000000000000000000000600082015250565b60006123d1600183611bea565b91506123dc8261239b565b602082019050919050565b60006020820190508181036000830152612400816123c4565b9050919050565b7f4e6f6e20646973706f6e6962696c653300000000000000000000000000000000600082015250565b600061243d601083611bea565b915061244882612407565b602082019050919050565b6000602082019050818103600083015261246c81612430565b9050919050565b7f4e6f6e20646973706f6e6962696c653200000000000000000000000000000000600082015250565b60006124a9601083611bea565b91506124b482612473565b602082019050919050565b600060208201905081810360008301526124d88161249c565b905091905056fea2646970667358221220b120eb26b1b388a93128a457ce2f3f246c2fdde8e7dfd5a5496efe1675e0a10264736f6c634300080a0033",
  "immutableReferences": {},
  "source": "\r\npragma solidity ^0.8.0;\r\n\r\n\r\n\r\ncontract Calendar   {\r\n\t\r\n\t  mapping(uint256=>mapping(uint256=>address)) public Preorderstart;\r\n\t  mapping(uint256=>mapping(uint256=>uint256)) public Preorderend;\r\n    mapping(uint256 => string) public Available;\r\n    uint256 public time;\r\n    uint256 fusoorario;\r\n    uint256[] Status;\r\n    uint256 Orders;\r\n    mapping(uint256=>uint256[]) public PreorderOpen;\r\n\t\t    \r\n \r\n \r\n\r\n\tconstructor() public { \r\n      \r\n\r\n\r\n\r\n\t}\r\n  \tfunction Time() public {\r\n        time = block.timestamp+ fusoorario;\r\n      }\r\n\t/*Funzione per testare le scadenze in update*/\r\n   \r\n      function TimeAdd(uint256 i) public {\r\n        \r\n        time = time + i;\r\n      }\r\n\tfunction Pre_Order(uint256 dataStart, uint256 dataEnd, uint256 _id,address _usr)  external returns(bool suc) {\r\n    Time();\r\n\r\n    if(dataStart==0)\r\n    dataStart= time;\r\n    suc = false;\r\n   \trequire(dataEnd>0,\"dataEnd is 0\");\r\n    require(time <= dataStart,\"Not possible in the past\");\r\n    uint256 date1 = Converter(dataStart,true);\r\n    uint256 date2 = Converter(dataEnd,true);\r\n\r\n\r\n   \r\n\t\trequire(date1<date2,\"<\");//la prenotazione vale almeno se dura 4 ore\r\n      if(_id>Orders)\r\n        Orders= _id;\r\n\r\n        if(CheckAvialable(_id,date1,date2)){\r\n    PreorderOpen[_id].push(date1);\r\n\t\tPreorderstart[_id][date1]= _usr;\r\n\t\tPreorderend[_id][date1]=date2;\r\n\t\tif(keccak256(bytes(\"Available\"))==keccak256(bytes(Available[_id])))\t\r\n\t\tAvailable[_id]=\"Preordered\";\r\n\t\t\t\tsuc = true;\r\n\t\t}\r\n\t\treturn suc;\r\n\t\t}\r\n\r\n\tfunction CheckAvialable(uint256 idA,uint256 _dataStart, uint256 _dataEnd) public returns(bool ret) {\r\n\t\t\r\n\t\t\t\t//in caso in cui sia occupato controllare se le date inserite sia valide per il preorder\r\n\t\tif(keccak256(bytes(Available[idA])) == keccak256(bytes(\"Preordered\"))||keccak256(bytes(Available[idA])) == keccak256(bytes(\"Busy\"))){\r\n\t\t\tret = true;\r\n\r\n\t\t\t\tfor(uint256 i=0; i < PreorderOpen[idA].length; i++){\r\n\t\t\t\tif( PreorderOpen[idA][i]>0 ){\r\n\t\t\t\t\tif((PreorderOpen[idA][i]<= _dataStart && _dataStart<=Preorderend[idA][PreorderOpen[idA][i]])\r\n\t\t\t\t\t\t|| (PreorderOpen[idA][i] == _dataStart) || (Preorderend[idA][PreorderOpen[idA][i]] == _dataStart)\r\n\t\t\t\t\t\t|| (PreorderOpen[idA][i] == _dataEnd )  || (Preorderend[idA][PreorderOpen[idA][i]] == _dataEnd)\r\n\t\t\t\t\t\t|| (PreorderOpen[idA][i] <= _dataEnd && _dataEnd<=Preorderend[idA][PreorderOpen[idA][i]])\r\n\t\t\t\t\t\t|| (PreorderOpen[idA][i]<= _dataEnd && _dataEnd<=Preorderend[idA][PreorderOpen[idA][i]])\r\n\t\t\t\t\t\t|| (_dataStart<= PreorderOpen[idA][i] && Preorderend[idA][PreorderOpen[idA][i]]<=_dataEnd)\r\n\t\t\t\t\t\t){\r\n\t\t\t\t\t\tret = false;\r\n\t\t\t\t\t\ti = PreorderOpen[idA].length;\r\n\t\t\t\t\t}\r\n\r\n\t\t\t\t}\r\n\t\t\t}\r\n\r\n\t\t/*\r\n\t\t\tfor(uint256 i=_dataStart;i <= _dataEnd;i= i + 14400){\r\n\t\t\t\tif(Preorderstart[idA][i]!=address(0x0) || Preorderend[idA][i]==i){\r\n\t\t\t\t\tret =false;\r\n\t\t\t\t\ttest=\"Sono Qui\";\r\n\r\n\t\t\t\t}\r\n\t\t\t}*/\r\n\t\t}\r\n\t\tif(keccak256(bytes(Available[idA])) == keccak256(bytes(\"Available\"))){\r\n\t\tret = true;\r\n\t\t}\r\n\t\treturn ret;\r\n\r\n\t\t//creare un evento per data suggerita nel caso l'item non sia disponibile\r\n\r\n\t}\t\r\n\tfunction Update()public {\r\n\t\t//controllo che i preOrdini aperti siano scaduti\r\n\t\t//se si li cancello e li metto in waiting in attesa che\r\n\t\t//la cauzione venga restituita\r\n\t\tTime();\r\n\t\tfor(uint256 i; i<= Orders; i++){\r\n\t\t    if(keccak256(bytes(Available[i])) == keccak256(bytes(\"Preordered\"))){\r\n\t\t    \tfor(uint256 j;j < PreorderOpen[i].length; j++){\r\n\t\t\t\t  \r\n\t\t\t\tif(time - 86400 >= PreorderOpen[i][j]){//caso in cui sia passato un giorno senza aver \r\n\t\t\t\t\t\t\t\t\t\t\t    //ritirato item adr ad annullare la prenotazione\r\n\r\n\t\t\t\tdelete Preorderstart[i][PreorderOpen[i][j]];\r\n\t\t\t\tdelete Preorderend[i][PreorderOpen[i][j]];\r\n\t\t\t\tAvailable[i]=\"Waiting\";\r\n\t\t\t\tdelete PreorderOpen[i][j];\r\n\t\t\t\t}\r\n                     \r\n\r\n\t\t\t\t}\r\n\t\t\t}}\r\n\t\t    }\r\n\r\n\r\n\tfunction setAvailable(uint256 idA,string memory Status)public returns(bool){\r\n\tif(keccak256(bytes(Status)) == keccak256(bytes(\"Busy\"))||keccak256(bytes(Status)) == keccak256(bytes(\"Available\"))||keccak256(bytes(Status)) == keccak256(bytes(\"Waiting\")) ){\r\n\t\t\tAvailable[idA]=Status;\r\n\t\t\treturn true;\r\n\t\t\r\n\t\t}\r\n\t\treturn false;\r\n\r\n\t\t\t}\t\t\t\t\r\nfunction setFusoOraio()public{\r\n\tif (fusoorario==0){\r\n\t\tfusoorario= 3600;\r\n\t}\r\n\telse{\r\n\t\tfusoorario=0;\r\n\t}\r\n}\r\nfunction Back(uint256 _id1,uint256 _dateS) external returns(bool){\r\n\r\n\t_dateS = Converter(_dateS,false);\r\n\r\n\r\n\t if(keccak256(bytes(Available[_id1])) == keccak256(bytes(\"Busy\"))&& _dateS>0&& Preorderend[_id1][_dateS]>0){\r\n\r\n\r\n\t  bool k;\r\n          k = setAvailable(_id1,\"Waiting\"); \r\n         if(k){\r\n         delete\tPreorderstart[_id1][_dateS];\r\n\t\t\t\t delete Preorderend[_id1][_dateS];\r\n\t\t\t\t for(uint256 i; i< PreorderOpen[_id1].length;i++){\r\n\t\t\t\t \tif(PreorderOpen[_id1][i]==_dateS){\r\n\t\t\t\t \t\tdelete PreorderOpen[_id1][i];\r\n\t\t\t\t \t\treturn true;\r\n\r\n\t\t\t\t \t}\r\n\r\n         } }\r\n       }\r\n       return false;\r\n}\r\nfunction Converter(uint256 date, bool next)public view virtual returns(uint256){\r\n     uint256 lest;\r\n     if(next)\r\n     lest = 14400;\r\n    uint256 date1 = date % 86400; //tempo mod giorni\r\n    date1= date1 % 14400;  //mod 4 ore\r\n\t\tdate1 = date - date1 + lest; //avro il giorno attuale + a mod di 4 ore\r\n                               //es 6 nov - 0:00 - 4:00 - 8:00 - 12:00 - 16:00 ecc... \r\n                               //se sono le 17:11 la prenotazione sar allo slot successivo\r\n                               //alle 20\r\n                               return date1;\r\n}\r\nfunction AcquirePre(uint256 idP,address usr) public   returns(bool ret){\r\n\tret = false;\r\n\r\n  Update();\r\n\r\n  \t\tfor(uint256 i;i< PreorderOpen[idP].length; i++ ){\r\n  \t\t\tif(Preorderstart[idP][PreorderOpen[idP][i]]==usr ){//fifo\r\n  \t\t\t\tif( time>=PreorderOpen[idP][i] && ((keccak256(bytes(Available[idP])) == keccak256(bytes(\"Available\")))|| keccak256(bytes(Available[idP])) == keccak256(bytes(\"Preordered\")))){\r\n  \t\t\t\t\r\n  \t\t\t\tAvailable[idP]=\"Busy\";\t\t\t\t\t\t\t\r\n  \t\t\t\treturn true;}\r\n  \t\t}\r\n\t\t}\t\r\n//PreorderOpen verificare la data che ci sia come il proprietario del pre-ordine sia \r\n//quello giusto\r\n\r\n\treturn ret;\r\n}\r\nfunction Acquire(uint256 idP,address usr,uint256 _dataF) public   returns(bool ret){\r\n \r\n\r\n//Update();\r\n \r\n if(_dataF>time){\r\n         bool k;\r\n      k =  setAvailable(idP,\"Busy\"); \r\n      require(k == true, \"Non disponibile2\");\r\n      uint256 dateSt;\r\n      Time();\r\n\t\t\tdateSt = Converter(time,false);\r\n   \t\t_dataF = Converter(_dataF,true);\r\n   \t\tPreorderOpen[idP].push(dateSt);\r\n   \t\tPreorderstart[idP][dateSt]= usr;\r\n\t\t  Preorderend[idP][dateSt]=_dataF;\r\n\r\n      return true;\r\n}\r\n\r\nreturn false;}\r\n\r\n\t\r\n\tfunction preOrderOpenGet(/*uint256 i*/) external  view virtual returns(uint256[] memory){\r\n     \r\n  return  PreorderOpen[8];\r\n\t}\r\n  function Relese(uint256 _id1) external{\r\n\t require(keccak256(bytes(Available[_id1])) == keccak256(bytes(\"Waiting\")));\r\n\t  bool k;\r\n          k = setAvailable(_id1,\"Available\"); \r\n          require(k == true, \"Non disponibile3\");\r\n}\r\n}\r\n",
  "sourcePath": "C:\\Users\\Luca\\Desktop\\tesi\\My-tesi\\src\\contracts\\LitemCalendar.sol",
  "compiler": {
    "name": "solc",
    "version": "0.8.10+commit.fc410830.Emscripten.clang"
  },
  "schemaVersion": "3.4.1",
  "updatedAt": "2021-12-01T14:57:32.446Z",
  "devdoc": {
    "kind": "dev",
    "methods": {},
    "version": 1
  },
  "userdoc": {
    "kind": "user",
    "methods": {},
    "version": 1
  }
}