{
  "contractName": "Calendar",
  "abi": [
    {
      "inputs": [],
      "stateMutability": "nonpayable",
      "type": "constructor"
    },
    {
      "inputs": [
        {
          "internalType": "uint256",
          "name": "",
          "type": "uint256"
        }
      ],
      "name": "Available",
      "outputs": [
        {
          "internalType": "string",
          "name": "",
          "type": "string"
        }
      ],
      "stateMutability": "view",
      "type": "function"
    },
    {
      "inputs": [
        {
          "internalType": "uint256",
          "name": "",
          "type": "uint256"
        },
        {
          "internalType": "uint256",
          "name": "",
          "type": "uint256"
        }
      ],
      "name": "PreorderOpen",
      "outputs": [
        {
          "internalType": "uint256",
          "name": "",
          "type": "uint256"
        }
      ],
      "stateMutability": "view",
      "type": "function"
    },
    {
      "inputs": [
        {
          "internalType": "uint256",
          "name": "",
          "type": "uint256"
        },
        {
          "internalType": "uint256",
          "name": "",
          "type": "uint256"
        }
      ],
      "name": "Preorderend",
      "outputs": [
        {
          "internalType": "uint256",
          "name": "",
          "type": "uint256"
        }
      ],
      "stateMutability": "view",
      "type": "function"
    },
    {
      "inputs": [
        {
          "internalType": "uint256",
          "name": "",
          "type": "uint256"
        },
        {
          "internalType": "uint256",
          "name": "",
          "type": "uint256"
        }
      ],
      "name": "Preorderstart",
      "outputs": [
        {
          "internalType": "address",
          "name": "",
          "type": "address"
        }
      ],
      "stateMutability": "view",
      "type": "function"
    },
    {
      "inputs": [],
      "name": "time",
      "outputs": [
        {
          "internalType": "uint256",
          "name": "",
          "type": "uint256"
        }
      ],
      "stateMutability": "view",
      "type": "function"
    },
    {
      "inputs": [],
      "name": "Time",
      "outputs": [],
      "stateMutability": "nonpayable",
      "type": "function"
    },
    {
      "inputs": [
        {
          "internalType": "uint256",
          "name": "i",
          "type": "uint256"
        }
      ],
      "name": "TimeAdd",
      "outputs": [],
      "stateMutability": "nonpayable",
      "type": "function"
    },
    {
      "inputs": [
        {
          "internalType": "uint256",
          "name": "dataStart",
          "type": "uint256"
        },
        {
          "internalType": "uint256",
          "name": "dataEnd",
          "type": "uint256"
        },
        {
          "internalType": "uint256",
          "name": "_id",
          "type": "uint256"
        }
      ],
      "name": "Pre_Order",
      "outputs": [
        {
          "internalType": "bool",
          "name": "suc",
          "type": "bool"
        }
      ],
      "stateMutability": "nonpayable",
      "type": "function"
    },
    {
      "inputs": [
        {
          "internalType": "uint256",
          "name": "idA",
          "type": "uint256"
        },
        {
          "internalType": "uint256",
          "name": "_dataStart",
          "type": "uint256"
        },
        {
          "internalType": "uint256",
          "name": "_dataEnd",
          "type": "uint256"
        }
      ],
      "name": "CheckAvialable",
      "outputs": [
        {
          "internalType": "bool",
          "name": "ret",
          "type": "bool"
        }
      ],
      "stateMutability": "nonpayable",
      "type": "function"
    },
    {
      "inputs": [],
      "name": "Update",
      "outputs": [],
      "stateMutability": "nonpayable",
      "type": "function"
    },
    {
      "inputs": [
        {
          "internalType": "uint256",
          "name": "idA",
          "type": "uint256"
        },
        {
          "internalType": "string",
          "name": "Status",
          "type": "string"
        }
      ],
      "name": "setAvailable",
      "outputs": [
        {
          "internalType": "bool",
          "name": "",
          "type": "bool"
        }
      ],
      "stateMutability": "nonpayable",
      "type": "function"
    },
    {
      "inputs": [],
      "name": "setFusoOraio",
      "outputs": [],
      "stateMutability": "nonpayable",
      "type": "function"
    },
    {
      "inputs": [
        {
          "internalType": "uint256",
          "name": "_id1",
          "type": "uint256"
        }
      ],
      "name": "Relese",
      "outputs": [],
      "stateMutability": "nonpayable",
      "type": "function"
    },
    {
      "inputs": [
        {
          "internalType": "uint256",
          "name": "date",
          "type": "uint256"
        },
        {
          "internalType": "bool",
          "name": "next",
          "type": "bool"
        }
      ],
      "name": "Converter",
      "outputs": [
        {
          "internalType": "uint256",
          "name": "",
          "type": "uint256"
        }
      ],
      "stateMutability": "view",
      "type": "function"
    },
    {
      "inputs": [
        {
          "internalType": "uint256",
          "name": "_dateS",
          "type": "uint256"
        },
        {
          "internalType": "uint256",
          "name": "idP",
          "type": "uint256"
        },
        {
          "internalType": "address",
          "name": "usr",
          "type": "address"
        }
      ],
      "name": "AcquirePre",
      "outputs": [
        {
          "internalType": "bool",
          "name": "ret",
          "type": "bool"
        }
      ],
      "stateMutability": "nonpayable",
      "type": "function"
    },
    {
      "inputs": [],
      "name": "preOrderOpenGet",
      "outputs": [
        {
          "internalType": "uint256[]",
          "name": "",
          "type": "uint256[]"
        }
      ],
      "stateMutability": "view",
      "type": "function"
    }
  ],
  "bytecode": "0x608060405234801561001057600080fd5b50611eaf806100206000396000f3fe608060405234801561001057600080fd5b50600436106101005760003560e01c80639ff3b46d11610097578063b5c5daa411610066578063b5c5daa4146102ad578063b99ad1bc146102dd578063e201d8bd1461030d578063f8e157ea1461033d57610100565b80639ff3b46d14610239578063ae59e24b14610269578063af4b7f1414610285578063b14062111461028f57610100565b806335b67731116100d357806335b677311461018d5780634abc9325146101bd57806360a48f7c146101d957806394cfd4531461020957610100565b806304e4deaa1461010557806316ada5471461013557806323ba900e1461015357806332a119a41461015d575b600080fd5b61011f600480360381019061011a9190611532565b610347565b60405161012c9190611581565b60405180910390f35b61013d61039d565b60405161014a9190611581565b60405180910390f35b61015b6103a3565b005b6101776004803603810190610172919061159c565b6103c7565b60405161018491906115fe565b60405180910390f35b6101a760048036038101906101a29190611619565b6105df565b6040516101b491906116df565b60405180910390f35b6101d760048036038101906101d29190611619565b61067f565b005b6101f360048036038101906101ee919061159c565b61077c565b60405161020091906115fe565b60405180910390f35b610223600480360381019061021e9190611701565b610cec565b6040516102309190611581565b60405180910390f35b610253600480360381019061024e9190611876565b610d11565b60405161026091906115fe565b60405180910390f35b610283600480360381019061027e9190611619565b610e34565b005b61028d610e4b565b005b6102976110b9565b6040516102a49190611990565b60405180910390f35b6102c760048036038101906102c29190611a10565b611123565b6040516102d491906115fe565b60405180910390f35b6102f760048036038101906102f29190611701565b611384565b6040516103049190611581565b60405180910390f35b61032760048036038101906103229190611701565b6113b5565b6040516103349190611a72565b60405180910390f35b6103456113f7565b005b60008082156103565761384090505b600062015180856103679190611abc565b9050613840816103779190611abc565b90508181866103869190611b1c565b6103909190611b50565b9050809250505092915050565b60035481565b600060045414156103bc57610e106004819055506103c5565b60006004819055505b565b6000600454600a426103d99190611b1c565b6103e39190611b50565b600381905550836003541061042d576040517f08c379a000000000000000000000000000000000000000000000000000000000815260040161042490611bf2565b60405180910390fd5b600061043a856001610347565b90506000610449856001610347565b905080821061048d576040517f08c379a000000000000000000000000000000000000000000000000000000000815260040161048490611c5e565b60405180910390fd5b60065484111561049f57836006819055505b6104aa84838361077c565b156105d6576007600085815260200190815260200160002082908060018154018082558091505060019003906000526020600020016000909190919091505533600080868152602001908152602001600020600084815260200190815260200160002060006101000a81548173ffffffffffffffffffffffffffffffffffffffff021916908373ffffffffffffffffffffffffffffffffffffffff16021790555080600160008681526020019081526020016000206000848152602001908152602001600020819055506040518060400160405280600a81526020017f5072656f726465726564000000000000000000000000000000000000000000008152506002600086815260200190815260200160002090805190602001906105d092919061140d565b50600192505b50509392505050565b600260205280600052604060002060009150905080546105fe90611cad565b80601f016020809104026020016040519081016040528092919081815260200182805461062a90611cad565b80156106775780601f1061064c57610100808354040283529160200191610677565b820191906000526020600020905b81548152906001019060200180831161065a57829003601f168201915b505050505081565b6040518060400160405280600781526020017f57616974696e670000000000000000000000000000000000000000000000000081525080519060200120600260008381526020019081526020016000206040516106dc9190611d7e565b6040518091039020146106ee57600080fd5b600061072f826040518060400160405280600981526020017f417661696c61626c650000000000000000000000000000000000000000000000815250610d11565b90506001151581151514610778576040517f08c379a000000000000000000000000000000000000000000000000000000000815260040161076f90611de1565b60405180910390fd5b5050565b60006040518060400160405280600a81526020017f5072656f7264657265640000000000000000000000000000000000000000000081525080519060200120600260008681526020019081526020016000206040516107db9190611d7e565b6040518091039020148061085157506040518060400160405280600481526020017f427573790000000000000000000000000000000000000000000000000000000081525080519060200120600260008681526020019081526020016000206040516108479190611d7e565b6040518091039020145b15610c75576001905060005b6007600086815260200190815260200160002080549050811015610c735760006007600087815260200190815260200160002082815481106108a2576108a1611e01565b5b90600052602060002001541115610c6057836007600087815260200190815260200160002082815481106108d9576108d8611e01565b5b906000526020600020015411158015610945575060016000868152602001908152602001600020600060076000888152602001908152602001600020838154811061092757610926611e01565b5b90600052602060002001548152602001908152602001600020548411155b8061097e57508360076000878152602001908152602001600020828154811061097157610970611e01565b5b9060005260206000200154145b806109db5750836001600087815260200190815260200160002060006007600089815260200190815260200160002084815481106109bf576109be611e01565b5b9060005260206000200154815260200190815260200160002054145b80610a14575082600760008781526020019081526020016000208281548110610a0757610a06611e01565b5b9060005260206000200154145b80610a71575082600160008781526020019081526020016000206000600760008981526020019081526020016000208481548110610a5557610a54611e01565b5b9060005260206000200154815260200190815260200160002054145b80610b0a575082600760008781526020019081526020016000208281548110610a9d57610a9c611e01565b5b906000526020600020015411158015610b095750600160008681526020019081526020016000206000600760008881526020019081526020016000208381548110610aeb57610aea611e01565b5b90600052602060002001548152602001908152602001600020548311155b5b80610ba3575082600760008781526020019081526020016000208281548110610b3657610b35611e01565b5b906000526020600020015411158015610ba25750600160008681526020019081526020016000206000600760008881526020019081526020016000208381548110610b8457610b83611e01565b5b90600052602060002001548152602001908152602001600020548311155b5b80610c3c5750600760008681526020019081526020016000208181548110610bce57610bcd611e01565b5b90600052602060002001548411158015610c3b575082600160008781526020019081526020016000206000600760008981526020019081526020016000208481548110610c1e57610c1d611e01565b5b906000526020600020015481526020019081526020016000205411155b5b15610c5f5760009150600760008681526020019081526020016000208054905090505b5b8080610c6b90611e30565b91505061085d565b505b6040518060400160405280600981526020017f417661696c61626c6500000000000000000000000000000000000000000000008152508051906020012060026000868152602001908152602001600020604051610cd29190611d7e565b60405180910390201415610ce557600190505b9392505050565b6001602052816000526040600020602052806000526040600020600091509150505481565b60006040518060400160405280600481526020017f42757379000000000000000000000000000000000000000000000000000000008152508051906020012082805190602001201480610da657506040518060400160405280600981526020017f417661696c61626c650000000000000000000000000000000000000000000000815250805190602001208280519060200120145b80610df357506040518060400160405280600781526020017f57616974696e6700000000000000000000000000000000000000000000000000815250805190602001208280519060200120145b15610e295781600260008581526020019081526020016000209080519060200190610e1f92919061140d565b5060019050610e2e565b600090505b92915050565b80600354610e429190611b50565b60038190555050565b610e536113f7565b60005b60065481116110b6576040518060400160405280600a81526020017f5072656f726465726564000000000000000000000000000000000000000000008152508051906020012060026000838152602001908152602001600020604051610ebc9190611d7e565b604051809103902014156110a35760005b60076000838152602001908152602001600020805490508110156110a157600760008381526020019081526020016000208181548110610f1057610f0f611e01565b5b906000526020600020015462015180600354610f2c9190611b1c565b1061108e576000808381526020019081526020016000206000600760008581526020019081526020016000208381548110610f6a57610f69611e01565b5b9060005260206000200154815260200190815260200160002060006101000a81549073ffffffffffffffffffffffffffffffffffffffff0219169055600160008381526020019081526020016000206000600760008581526020019081526020016000208381548110610fe057610fdf611e01565b5b90600052602060002001548152602001908152602001600020600090556040518060400160405280600781526020017f57616974696e670000000000000000000000000000000000000000000000000081525060026000848152602001908152602001600020908051906020019061105992919061140d565b5060076000838152602001908152602001600020818154811061107f5761107e611e01565b5b90600052602060002001600090555b808061109990611e30565b915050610ecd565b505b80806110ae90611e30565b915050610e56565b50565b6060600760006008815260200190815260200160002080548060200260200160405190810160405280929190818152602001828054801561111957602002820191906000526020600020905b815481526020019060010190808311611105575b5050505050905090565b6000805b600760008581526020019081526020016000208054905081101561137b578273ffffffffffffffffffffffffffffffffffffffff16600080868152602001908152602001600020600060076000888152602001908152602001600020848154811061119557611194611e01565b5b9060005260206000200154815260200190815260200160002060009054906101000a900473ffffffffffffffffffffffffffffffffffffffff1673ffffffffffffffffffffffffffffffffffffffff161415611368576007600085815260200190815260200160002081815481106112105761120f611e01565b5b9060005260206000200154600354101580156112fb57506040518060400160405280600981526020017f417661696c61626c65000000000000000000000000000000000000000000000081525080519060200120600260008681526020019081526020016000206040516112849190611d7e565b604051809103902014806112fa57506040518060400160405280600a81526020017f5072656f7264657265640000000000000000000000000000000000000000000081525080519060200120600260008681526020019081526020016000206040516112f09190611d7e565b6040518091039020145b5b15611367576040518060400160405280600481526020017f427573790000000000000000000000000000000000000000000000000000000081525060026000868152602001908152602001600020908051906020019061135c92919061140d565b50600191505061137d565b5b808061137390611e30565b915050611127565b505b9392505050565b600760205281600052604060002081815481106113a057600080fd5b90600052602060002001600091509150505481565b60006020528160005260406000206020528060005260406000206000915091509054906101000a900473ffffffffffffffffffffffffffffffffffffffff1681565b600454426114059190611b50565b600381905550565b82805461141990611cad565b90600052602060002090601f01602090048101928261143b5760008555611482565b82601f1061145457805160ff1916838001178555611482565b82800160010185558215611482579182015b82811115611481578251825591602001919060010190611466565b5b50905061148f9190611493565b5090565b5b808211156114ac576000816000905550600101611494565b5090565b6000604051905090565b600080fd5b600080fd5b6000819050919050565b6114d7816114c4565b81146114e257600080fd5b50565b6000813590506114f4816114ce565b92915050565b60008115159050919050565b61150f816114fa565b811461151a57600080fd5b50565b60008135905061152c81611506565b92915050565b60008060408385031215611549576115486114ba565b5b6000611557858286016114e5565b92505060206115688582860161151d565b9150509250929050565b61157b816114c4565b82525050565b60006020820190506115966000830184611572565b92915050565b6000806000606084860312156115b5576115b46114ba565b5b60006115c3868287016114e5565b93505060206115d4868287016114e5565b92505060406115e5868287016114e5565b9150509250925092565b6115f8816114fa565b82525050565b600060208201905061161360008301846115ef565b92915050565b60006020828403121561162f5761162e6114ba565b5b600061163d848285016114e5565b91505092915050565b600081519050919050565b600082825260208201905092915050565b60005b83811015611680578082015181840152602081019050611665565b8381111561168f576000848401525b50505050565b6000601f19601f8301169050919050565b60006116b182611646565b6116bb8185611651565b93506116cb818560208601611662565b6116d481611695565b840191505092915050565b600060208201905081810360008301526116f981846116a6565b905092915050565b60008060408385031215611718576117176114ba565b5b6000611726858286016114e5565b9250506020611737858286016114e5565b9150509250929050565b600080fd5b600080fd5b7f4e487b7100000000000000000000000000000000000000000000000000000000600052604160045260246000fd5b61178382611695565b810181811067ffffffffffffffff821117156117a2576117a161174b565b5b80604052505050565b60006117b56114b0565b90506117c1828261177a565b919050565b600067ffffffffffffffff8211156117e1576117e061174b565b5b6117ea82611695565b9050602081019050919050565b82818337600083830152505050565b6000611819611814846117c6565b6117ab565b90508281526020810184848401111561183557611834611746565b5b6118408482856117f7565b509392505050565b600082601f83011261185d5761185c611741565b5b813561186d848260208601611806565b91505092915050565b6000806040838503121561188d5761188c6114ba565b5b600061189b858286016114e5565b925050602083013567ffffffffffffffff8111156118bc576118bb6114bf565b5b6118c885828601611848565b9150509250929050565b600081519050919050565b600082825260208201905092915050565b6000819050602082019050919050565b611907816114c4565b82525050565b600061191983836118fe565b60208301905092915050565b6000602082019050919050565b600061193d826118d2565b61194781856118dd565b9350611952836118ee565b8060005b8381101561198357815161196a888261190d565b975061197583611925565b925050600181019050611956565b5085935050505092915050565b600060208201905081810360008301526119aa8184611932565b905092915050565b600073ffffffffffffffffffffffffffffffffffffffff82169050919050565b60006119dd826119b2565b9050919050565b6119ed816119d2565b81146119f857600080fd5b50565b600081359050611a0a816119e4565b92915050565b600080600060608486031215611a2957611a286114ba565b5b6000611a37868287016114e5565b9350506020611a48868287016114e5565b9250506040611a59868287016119fb565b9150509250925092565b611a6c816119d2565b82525050565b6000602082019050611a876000830184611a63565b92915050565b7f4e487b7100000000000000000000000000000000000000000000000000000000600052601260045260246000fd5b6000611ac7826114c4565b9150611ad2836114c4565b925082611ae257611ae1611a8d565b5b828206905092915050565b7f4e487b7100000000000000000000000000000000000000000000000000000000600052601160045260246000fd5b6000611b27826114c4565b9150611b32836114c4565b925082821015611b4557611b44611aed565b5b828203905092915050565b6000611b5b826114c4565b9150611b66836114c4565b9250827fffffffffffffffffffffffffffffffffffffffffffffffffffffffffffffffff03821115611b9b57611b9a611aed565b5b828201905092915050565b7f4e6f7420706f737369626c6520696e2074686520706173740000000000000000600082015250565b6000611bdc601883611651565b9150611be782611ba6565b602082019050919050565b60006020820190508181036000830152611c0b81611bcf565b9050919050565b7f3c00000000000000000000000000000000000000000000000000000000000000600082015250565b6000611c48600183611651565b9150611c5382611c12565b602082019050919050565b60006020820190508181036000830152611c7781611c3b565b9050919050565b7f4e487b7100000000000000000000000000000000000000000000000000000000600052602260045260246000fd5b60006002820490506001821680611cc557607f821691505b60208210811415611cd957611cd8611c7e565b5b50919050565b600081905092915050565b60008190508160005260206000209050919050565b60008154611d0c81611cad565b611d168186611cdf565b94506001821660008114611d315760018114611d4257611d75565b60ff19831686528186019350611d75565b611d4b85611cea565b60005b83811015611d6d57815481890152600182019150602081019050611d4e565b838801955050505b50505092915050565b6000611d8a8284611cff565b915081905092915050565b7f4e6f6e20646973706f6e6962696c653300000000000000000000000000000000600082015250565b6000611dcb601083611651565b9150611dd682611d95565b602082019050919050565b60006020820190508181036000830152611dfa81611dbe565b9050919050565b7f4e487b7100000000000000000000000000000000000000000000000000000000600052603260045260246000fd5b6000611e3b826114c4565b91507fffffffffffffffffffffffffffffffffffffffffffffffffffffffffffffffff821415611e6e57611e6d611aed565b5b60018201905091905056fea2646970667358221220629695c28be0b979c68f5fdf556877e08b070127051609a295900b174479297964736f6c634300080a0033",
  "immutableReferences": {},
  "source": "\r\npragma solidity ^0.8.0;\r\n\r\n\r\n\r\ncontract Calendar   {\r\n\t\r\n\t  mapping(uint256=>mapping(uint256=>address)) public Preorderstart;\r\n\t  mapping(uint256=>mapping(uint256=>uint256)) public Preorderend;\r\n    mapping(uint256 => string) public Available;\r\n    uint256 public time;\r\n    uint256 fusoorario;\r\n    uint256[] Status;\r\n    uint256 Orders;\r\n    mapping(uint256=>uint256[]) public PreorderOpen;\r\n\t\t    \r\n\r\n \r\n\r\n\tconstructor() public { \r\n      \r\n\r\n\r\n\r\n\t}\r\n  \tfunction Time() public {\r\n        time = block.timestamp+ fusoorario;\r\n      }\r\n\t/*Funzione per testare le scadenze in update*/\r\n   \r\n      function TimeAdd(uint256 i) public {\r\n        \r\n        time = time + i;\r\n      }\r\n\tfunction Pre_Order(uint256 dataStart, uint256 dataEnd, uint256 _id)  external returns(bool suc) {\r\n    suc = false;\r\n    time =block.timestamp-10 + fusoorario;\r\n    require(time < dataStart,\"Not possible in the past\");\r\n    uint256 date1 = Converter(dataStart,true);\r\n    uint256 date2 = Converter(dataEnd,true);\r\n\r\n\t\trequire(date1<date2,\"<\");//la prenotazione vale almeno se dura 4 ore\r\n      if(_id>Orders)\r\n        Orders= _id;\r\n\r\n        if(CheckAvialable(_id,date1,date2)){\r\n    PreorderOpen[_id].push(date1);\r\n\t\tPreorderstart[_id][date1]= msg.sender;\r\n\t\tPreorderend[_id][date1]=date2;\t\r\n\t\tAvailable[_id]=\"Preordered\";\r\n\t\t\t\tsuc = true;\r\n\t\t}\r\n\t\treturn suc;\r\n\t\t}\r\n\r\n\tfunction CheckAvialable(uint256 idA,uint256 _dataStart, uint256 _dataEnd) public returns(bool ret) {\r\n\t\t\r\n\t\t\t\t//in caso in cui sia occupato controllare se le date inserite sia valide per il preorder\r\n\t\tif(keccak256(bytes(Available[idA])) == keccak256(bytes(\"Preordered\"))||keccak256(bytes(Available[idA])) == keccak256(bytes(\"Busy\"))){\r\n\t\t\tret = true;\r\n\r\n\t\t\t\tfor(uint256 i=0; i < PreorderOpen[idA].length; i++){\r\n\t\t\t\tif( PreorderOpen[idA][i]>0 ){\r\n\t\t\t\t\tif((PreorderOpen[idA][i]<= _dataStart && _dataStart<=Preorderend[idA][PreorderOpen[idA][i]])\r\n\t\t\t\t\t\t|| (PreorderOpen[idA][i] == _dataStart) || (Preorderend[idA][PreorderOpen[idA][i]] == _dataStart)\r\n\t\t\t\t\t\t|| (PreorderOpen[idA][i] == _dataEnd )  || (Preorderend[idA][PreorderOpen[idA][i]] == _dataEnd)\r\n\t\t\t\t\t\t|| (PreorderOpen[idA][i] <= _dataEnd && _dataEnd<=Preorderend[idA][PreorderOpen[idA][i]])\r\n\t\t\t\t\t\t|| (PreorderOpen[idA][i]<= _dataEnd && _dataEnd<=Preorderend[idA][PreorderOpen[idA][i]])\r\n\t\t\t\t\t\t|| (_dataStart<= PreorderOpen[idA][i] && Preorderend[idA][PreorderOpen[idA][i]]<=_dataEnd)\r\n\t\t\t\t\t\t){\r\n\t\t\t\t\t\tret = false;\r\n\t\t\t\t\t\ti = PreorderOpen[idA].length;\r\n\t\t\t\t\t}\r\n\r\n\t\t\t\t}\r\n\t\t\t}\r\n\r\n\t\t/*\r\n\t\t\tfor(uint256 i=_dataStart;i <= _dataEnd;i= i + 14400){\r\n\t\t\t\tif(Preorderstart[idA][i]!=address(0x0) || Preorderend[idA][i]==i){\r\n\t\t\t\t\tret =false;\r\n\t\t\t\t\ttest=\"Sono Qui\";\r\n\r\n\t\t\t\t}\r\n\t\t\t}*/\r\n\t\t}\r\n\t\tif(keccak256(bytes(Available[idA])) == keccak256(bytes(\"Available\"))){\r\n\t\tret = true;\r\n\t\t}\r\n\t\treturn ret;\r\n\r\n\t\t//creare un evento per data suggerita nel caso l'item non sia disponibile\r\n\r\n\t}\t\r\n\tfunction Update()public {\r\n\t\t//controllo che i preOrdini aperti siano scaduti\r\n\t\t//se si li cancello e li metto in waiting in attesa che\r\n\t\t//la cauzione venga restituita\r\n\t\tTime();\r\n\t\tfor(uint256 i; i<= Orders; i++){\r\n\t\t    if(keccak256(bytes(Available[i])) == keccak256(bytes(\"Preordered\"))){\r\n\t\t    \tfor(uint256 j;j < PreorderOpen[i].length; j++){\r\n\t\t\t\t  \r\n\t\t\t\tif(time - 86400 >= PreorderOpen[i][j]){//caso in cui sia passato un giorno senza aver \r\n\t\t\t\t\t\t\t\t\t\t\t    //ritirato item adr ad annullare la prenotazione\r\n\r\n\t\t\t\tdelete Preorderstart[i][PreorderOpen[i][j]];\r\n\t\t\t\tdelete Preorderend[i][PreorderOpen[i][j]];\r\n\t\t\t\tAvailable[i]=\"Waiting\";\r\n\t\t\t\tdelete PreorderOpen[i][j];\r\n\t\t\t\t}\r\n                     \r\n\r\n\t\t\t\t}\r\n\t\t\t}}\r\n\t\t    }\r\n\tfunction setAvailable(uint256 idA,string memory Status)public returns(bool){\r\n\tif(keccak256(bytes(Status)) == keccak256(bytes(\"Busy\"))||keccak256(bytes(Status)) == keccak256(bytes(\"Available\"))||keccak256(bytes(Status)) == keccak256(bytes(\"Waiting\")) ){\r\n\t\t\tAvailable[idA]=Status;\r\n\t\t\treturn true;\r\n\t\t\r\n\t\t}\r\n\t\treturn false;\r\n\r\n\t\t\t}\t\t\t\t\r\nfunction setFusoOraio()public{\r\n\tif (fusoorario==0){\r\n\t\tfusoorario= 3600;\r\n\t}\r\n\telse{\r\n\t\tfusoorario=0;\r\n\t}\r\n}\r\nfunction Relese(uint256 _id1) external{\r\n\t require(keccak256(bytes(Available[_id1])) == keccak256(bytes(\"Waiting\")));\r\n\t  bool k;\r\n          k = setAvailable(_id1,\"Available\"); \r\n          require(k == true, \"Non disponibile3\");\r\n}\r\nfunction Converter(uint256 date, bool next)public view virtual returns(uint256){\r\n     uint256 lest;\r\n     if(next)\r\n     lest = 14400;\r\n    uint256 date1 = date % 86400; //tempo mod giorni\r\n    date1= date1 % 14400;  //mod 4 ore\r\n\t\tdate1 = date - date1 + lest; //avro il giorno attuale + a mod di 4 ore\r\n                               //es 6 nov - 0:00 - 4:00 - 8:00 - 12:00 - 16:00 ecc... \r\n                               //se sono le 17:11 la prenotazione sar allo slot successivo\r\n                               //alle 20\r\n                               return date1;\r\n}\r\nfunction AcquirePre(uint256 _dateS,uint256 idP,address usr) public   returns(bool ret){\r\n\tret = false;\r\n\t//Time();\r\n  //Update();\r\n  \t\r\n      \r\n\r\n  \t\r\n  \t\tfor(uint256 i;i< PreorderOpen[idP].length; i++ ){\r\n  \t\tif(Preorderstart[idP][PreorderOpen[idP][i]]==usr ){//fifo\r\n  \t\t\tif( time>=PreorderOpen[idP][i] && ((keccak256(bytes(Available[idP])) == keccak256(bytes(\"Available\")))|| keccak256(bytes(Available[idP])) == keccak256(bytes(\"Preordered\")))){\r\n  \t\tAvailable[idP]=\"Busy\";\t\t\t\t\t\t\t\r\n  \t\t\treturn true;}\r\n  \t\t}\r\n\t\t}\r\n\r\n  \t\r\n//PreorderOpen verificare la data che ci sia come il proprietario del pre-ordine sia \r\n//quello giusto\r\n\r\n\treturn ret;\r\n}\r\n\t\r\n\tfunction preOrderOpenGet(/*uint256 i*/) external  view virtual returns(uint256[] memory){\r\n     \r\n  return  PreorderOpen[8];\r\n\t}\r\n}",
  "sourcePath": "C:\\Users\\Luca\\Desktop\\tesi\\My-tesi\\src\\contracts\\LitemCalendar.sol",
  "compiler": {
    "name": "solc",
    "version": "0.8.10+commit.fc410830.Emscripten.clang"
  },
  "schemaVersion": "3.4.1",
  "updatedAt": "2021-11-26T20:07:40.485Z",
  "devdoc": {
    "kind": "dev",
    "methods": {},
    "version": 1
  },
  "userdoc": {
    "kind": "user",
    "methods": {},
    "version": 1
  }
}