{
  "contractName": "Calendar",
  "abi": [
    {
      "inputs": [],
      "stateMutability": "nonpayable",
      "type": "constructor"
    },
    {
      "inputs": [
        {
          "internalType": "uint256",
          "name": "",
          "type": "uint256"
        }
      ],
      "name": "Available",
      "outputs": [
        {
          "internalType": "string",
          "name": "",
          "type": "string"
        }
      ],
      "stateMutability": "view",
      "type": "function"
    },
    {
      "inputs": [
        {
          "internalType": "uint256",
          "name": "",
          "type": "uint256"
        },
        {
          "internalType": "uint256",
          "name": "",
          "type": "uint256"
        }
      ],
      "name": "PreorderOpen",
      "outputs": [
        {
          "internalType": "uint256",
          "name": "",
          "type": "uint256"
        }
      ],
      "stateMutability": "view",
      "type": "function"
    },
    {
      "inputs": [
        {
          "internalType": "uint256",
          "name": "",
          "type": "uint256"
        },
        {
          "internalType": "uint256",
          "name": "",
          "type": "uint256"
        }
      ],
      "name": "Preorderend",
      "outputs": [
        {
          "internalType": "uint256",
          "name": "",
          "type": "uint256"
        }
      ],
      "stateMutability": "view",
      "type": "function"
    },
    {
      "inputs": [
        {
          "internalType": "uint256",
          "name": "",
          "type": "uint256"
        },
        {
          "internalType": "uint256",
          "name": "",
          "type": "uint256"
        }
      ],
      "name": "Preorderstart",
      "outputs": [
        {
          "internalType": "address",
          "name": "",
          "type": "address"
        }
      ],
      "stateMutability": "view",
      "type": "function"
    },
    {
      "inputs": [],
      "name": "time",
      "outputs": [
        {
          "internalType": "uint256",
          "name": "",
          "type": "uint256"
        }
      ],
      "stateMutability": "view",
      "type": "function"
    },
    {
      "inputs": [],
      "name": "Time",
      "outputs": [],
      "stateMutability": "nonpayable",
      "type": "function"
    },
    {
      "inputs": [
        {
          "internalType": "uint256",
          "name": "i",
          "type": "uint256"
        }
      ],
      "name": "TimeAdd",
      "outputs": [],
      "stateMutability": "nonpayable",
      "type": "function"
    },
    {
      "inputs": [
        {
          "internalType": "uint256",
          "name": "dataStart",
          "type": "uint256"
        },
        {
          "internalType": "uint256",
          "name": "dataEnd",
          "type": "uint256"
        },
        {
          "internalType": "uint256",
          "name": "_id",
          "type": "uint256"
        },
        {
          "internalType": "address",
          "name": "_usr",
          "type": "address"
        }
      ],
      "name": "Pre_Order",
      "outputs": [
        {
          "internalType": "bool",
          "name": "suc",
          "type": "bool"
        }
      ],
      "stateMutability": "nonpayable",
      "type": "function"
    },
    {
      "inputs": [
        {
          "internalType": "uint256",
          "name": "idA",
          "type": "uint256"
        },
        {
          "internalType": "uint256",
          "name": "_dataStart",
          "type": "uint256"
        },
        {
          "internalType": "uint256",
          "name": "_dataEnd",
          "type": "uint256"
        }
      ],
      "name": "CheckAvialable",
      "outputs": [
        {
          "internalType": "bool",
          "name": "ret",
          "type": "bool"
        }
      ],
      "stateMutability": "nonpayable",
      "type": "function"
    },
    {
      "inputs": [],
      "name": "Update",
      "outputs": [],
      "stateMutability": "nonpayable",
      "type": "function"
    },
    {
      "inputs": [
        {
          "internalType": "uint256",
          "name": "idA",
          "type": "uint256"
        },
        {
          "internalType": "string",
          "name": "Status",
          "type": "string"
        }
      ],
      "name": "setAvailable",
      "outputs": [
        {
          "internalType": "bool",
          "name": "",
          "type": "bool"
        }
      ],
      "stateMutability": "nonpayable",
      "type": "function"
    },
    {
      "inputs": [],
      "name": "setFusoOraio",
      "outputs": [],
      "stateMutability": "nonpayable",
      "type": "function"
    },
    {
      "inputs": [
        {
          "internalType": "uint256",
          "name": "_id1",
          "type": "uint256"
        },
        {
          "internalType": "uint256",
          "name": "_dateS",
          "type": "uint256"
        }
      ],
      "name": "Back",
      "outputs": [
        {
          "internalType": "bool",
          "name": "",
          "type": "bool"
        }
      ],
      "stateMutability": "nonpayable",
      "type": "function"
    },
    {
      "inputs": [
        {
          "internalType": "uint256",
          "name": "date",
          "type": "uint256"
        },
        {
          "internalType": "bool",
          "name": "next",
          "type": "bool"
        }
      ],
      "name": "Converter",
      "outputs": [
        {
          "internalType": "uint256",
          "name": "",
          "type": "uint256"
        }
      ],
      "stateMutability": "view",
      "type": "function"
    },
    {
      "inputs": [
        {
          "internalType": "uint256",
          "name": "idP",
          "type": "uint256"
        },
        {
          "internalType": "address",
          "name": "usr",
          "type": "address"
        }
      ],
      "name": "AcquirePre",
      "outputs": [
        {
          "internalType": "bool",
          "name": "ret",
          "type": "bool"
        }
      ],
      "stateMutability": "nonpayable",
      "type": "function"
    },
    {
      "inputs": [
        {
          "internalType": "uint256",
          "name": "idP",
          "type": "uint256"
        },
        {
          "internalType": "address",
          "name": "usr",
          "type": "address"
        },
        {
          "internalType": "uint256",
          "name": "_dataF",
          "type": "uint256"
        }
      ],
      "name": "Acquire",
      "outputs": [
        {
          "internalType": "bool",
          "name": "ret",
          "type": "bool"
        }
      ],
      "stateMutability": "nonpayable",
      "type": "function"
    },
    {
      "inputs": [
        {
          "internalType": "uint256",
          "name": "i",
          "type": "uint256"
        }
      ],
      "name": "preOrderOpenGet",
      "outputs": [
        {
          "internalType": "uint256[]",
          "name": "",
          "type": "uint256[]"
        }
      ],
      "stateMutability": "view",
      "type": "function"
    },
    {
      "inputs": [
        {
          "internalType": "uint256",
          "name": "_id1",
          "type": "uint256"
        }
      ],
      "name": "Relese",
      "outputs": [],
      "stateMutability": "nonpayable",
      "type": "function"
    }
  ],
  "bytecode": "0x608060405234801561001057600080fd5b50612616806100206000396000f3fe608060405234801561001057600080fd5b50600436106101165760003560e01c806360a48f7c116100a2578063af4b7f1411610071578063af4b7f141461032b578063b99ad1bc14610335578063d9d92d1e14610365578063e201d8bd14610395578063f8e157ea146103c557610116565b806360a48f7c1461027f57806394cfd453146102af5780639ff3b46d146102df578063ae59e24b1461030f57610116565b80633097c98e116100e95780633097c98e146101a357806335b67731146101d35780634abc9325146102035780634bbbff061461021f5780634e2b132e1461024f57610116565b806304e4deaa1461011b57806316ada5471461014b5780631b227ed71461016957806323ba900e14610199575b600080fd5b61013560048036038101906101309190611b1a565b6103cf565b6040516101429190611b69565b60405180910390f35b610153610425565b6040516101609190611b69565b60405180910390f35b610183600480360381019061017e9190611be2565b61042b565b6040516101909190611c31565b60405180910390f35b6101a161068b565b005b6101bd60048036038101906101b89190611c4c565b6106af565b6040516101ca9190611c31565b60405180910390f35b6101ed60048036038101906101e89190611cb3565b610973565b6040516101fa9190611d79565b60405180910390f35b61021d60048036038101906102189190611cb3565b610a13565b005b61023960048036038101906102349190611d9b565b610bcd565b6040516102469190611c31565b60405180910390f35b61026960048036038101906102649190611cb3565b610df2565b6040516102769190611e99565b60405180910390f35b61029960048036038101906102949190611ebb565b610e5d565b6040516102a69190611c31565b60405180910390f35b6102c960048036038101906102c49190611d9b565b6113ba565b6040516102d69190611b69565b60405180910390f35b6102f960048036038101906102f49190612043565b6113df565b6040516103069190611c31565b60405180910390f35b61032960048036038101906103249190611cb3565b61154f565b005b610333611566565b005b61034f600480360381019061034a9190611d9b565b6117d4565b60405161035c9190611b69565b60405180910390f35b61037f600480360381019061037a919061209f565b611805565b60405161038c9190611c31565b60405180910390f35b6103af60048036038101906103aa9190611d9b565b61199d565b6040516103bc9190612101565b60405180910390f35b6103cd6119df565b005b60008082156103de5761384090505b600062015180856103ef919061214b565b9050613840816103ff919061214b565b905081818661040e91906121ab565b61041891906121df565b9050809250505092915050565b60035481565b6000805b6007600085815260200190815260200160002080549050811015610683578273ffffffffffffffffffffffffffffffffffffffff16600080868152602001908152602001600020600060076000888152602001908152602001600020848154811061049d5761049c612235565b5b9060005260206000200154815260200190815260200160002060009054906101000a900473ffffffffffffffffffffffffffffffffffffffff1673ffffffffffffffffffffffffffffffffffffffff1614156106705760076000858152602001908152602001600020818154811061051857610517612235565b5b90600052602060002001546003541015801561060357506040518060400160405280600981526020017f417661696c61626c650000000000000000000000000000000000000000000000815250805190602001206002600086815260200190815260200160002060405161058c9190612364565b6040518091039020148061060257506040518060400160405280600a81526020017f5072656f7264657265640000000000000000000000000000000000000000000081525080519060200120600260008681526020019081526020016000206040516105f89190612364565b6040518091039020145b5b1561066f576040518060400160405280600481526020017f42757379000000000000000000000000000000000000000000000000000000008152506002600086815260200190815260200160002090805190602001906106649291906119f5565b506001915050610685565b5b808061067b9061237b565b91505061042f565b505b92915050565b600060045414156106a457610e106004819055506106ad565b60006004819055505b565b60006106b96119df565b60008514156106c85760035494505b600090506000841161070f576040517f08c379a000000000000000000000000000000000000000000000000000000000815260040161070690612410565b60405180910390fd5b846003541115610754576040517f08c379a000000000000000000000000000000000000000000000000000000000815260040161074b9061247c565b60405180910390fd5b60006107618660016103cf565b905060006107708660016103cf565b90508082106107b4576040517f08c379a00000000000000000000000000000000000000000000000000000000081526004016107ab906124e8565b60405180910390fd5b6006548511156107c657846006819055505b6107d1858383610e5d565b15610969576007600086815260200190815260200160002082908060018154018082558091505060019003906000526020600020016000909190919091505583600080878152602001908152602001600020600084815260200190815260200160002060006101000a81548173ffffffffffffffffffffffffffffffffffffffff021916908373ffffffffffffffffffffffffffffffffffffffff1602179055508060016000878152602001908152602001600020600084815260200190815260200160002081905550600260008681526020019081526020016000206040516108bb9190612364565b60405180910390206040518060400160405280600981526020017f417661696c61626c650000000000000000000000000000000000000000000000815250805190602001201415610964576040518060400160405280600a81526020017f5072656f726465726564000000000000000000000000000000000000000000008152506002600087815260200190815260200160002090805190602001906109629291906119f5565b505b600192505b5050949350505050565b6002602052806000526040600020600091509050805461099290612293565b80601f01602080910402602001604051908101604052809291908181526020018280546109be90612293565b8015610a0b5780601f106109e057610100808354040283529160200191610a0b565b820191906000526020600020905b8154815290600101906020018083116109ee57829003601f168201915b505050505081565b6040518060400160405280600781526020017f57616974696e67000000000000000000000000000000000000000000000000008152508051906020012060026000838152602001908152602001600020604051610a709190612364565b604051809103902014610a8257600080fd5b6000610aaf8262015f90600354610a9991906121ab565b62278d00600354610aaa91906121df565b610e5d565b610b4057610af2826040518060400160405280600b81526020017f5072656f72646572656e640000000000000000000000000000000000000000008152506113df565b90506001151581151514610b3b576040517f08c379a0000000000000000000000000000000000000000000000000000000008152600401610b3290612554565b60405180910390fd5b610bc9565b610b7f826040518060400160405280600981526020017f417661696c61626c6500000000000000000000000000000000000000000000008152506113df565b90506001151581151514610bc8576040517f08c379a0000000000000000000000000000000000000000000000000000000008152600401610bbf90612554565b60405180910390fd5b5b5050565b6000610bda8260006103cf565b91506040518060400160405280600481526020017f42757379000000000000000000000000000000000000000000000000000000008152508051906020012060026000858152602001908152602001600020604051610c399190612364565b6040518091039020148015610c4e5750600082115b8015610c7e5750600060016000858152602001908152602001600020600084815260200190815260200160002054115b15610de7576000610cc4846040518060400160405280600781526020017f57616974696e67000000000000000000000000000000000000000000000000008152506113df565b90508015610de557600080858152602001908152602001600020600084815260200190815260200160002060006101000a81549073ffffffffffffffffffffffffffffffffffffffff02191690556001600085815260200190815260200160002060008481526020019081526020016000206000905560005b6007600086815260200190815260200160002080549050811015610de35783600760008781526020019081526020016000208281548110610d8157610d80612235565b5b90600052602060002001541415610dd057600760008681526020019081526020016000208181548110610db757610db6612235565b5b9060005260206000200160009055600192505050610dec565b8080610ddb9061237b565b915050610d3d565b505b505b600090505b92915050565b606060076000838152602001908152602001600020805480602002602001604051908101604052809291908181526020018280548015610e5157602002820191906000526020600020905b815481526020019060010190808311610e3d575b50505050509050919050565b60006040518060400160405280600a81526020017f5072656f726465726564000000000000000000000000000000000000000000008152508051906020012060026000868152602001908152602001600020604051610ebc9190612364565b60405180910390201480610f3257506040518060400160405280600481526020017f42757379000000000000000000000000000000000000000000000000000000008152508051906020012060026000868152602001908152602001600020604051610f289190612364565b6040518091039020145b15611342576001905060005b6007600086815260200190815260200160002080549050811015611340576000600760008781526020019081526020016000208281548110610f8357610f82612235565b5b9060005260206000200154111561132d5783600760008781526020019081526020016000208281548110610fba57610fb9612235565b5b906000526020600020015411158015611026575060016000868152602001908152602001600020600060076000888152602001908152602001600020838154811061100857611007612235565b5b90600052602060002001548152602001908152602001600020548411155b8061105f57508360076000878152602001908152602001600020828154811061105257611051612235565b5b9060005260206000200154145b806110bc5750836001600087815260200190815260200160002060006007600089815260200190815260200160002084815481106110a05761109f612235565b5b9060005260206000200154815260200190815260200160002054145b806110f55750826007600087815260200190815260200160002082815481106110e8576110e7612235565b5b9060005260206000200154145b8061115257508260016000878152602001908152602001600020600060076000898152602001908152602001600020848154811061113657611135612235565b5b9060005260206000200154815260200190815260200160002054145b806111eb57508260076000878152602001908152602001600020828154811061117e5761117d612235565b5b9060005260206000200154111580156111ea57506001600086815260200190815260200160002060006007600088815260200190815260200160002083815481106111cc576111cb612235565b5b90600052602060002001548152602001908152602001600020548311155b5b8061128457508260076000878152602001908152602001600020828154811061121757611216612235565b5b906000526020600020015411158015611283575060016000868152602001908152602001600020600060076000888152602001908152602001600020838154811061126557611264612235565b5b90600052602060002001548152602001908152602001600020548311155b5b8061131d57506007600086815260200190815260200160002081815481106112af576112ae612235565b5b9060005260206000200154841115801561131c5750826001600087815260200190815260200160002060006007600089815260200190815260200160002084815481106112ff576112fe612235565b5b906000526020600020015481526020019081526020016000205411155b5b1561132c5760009150506113b3565b5b80806113389061237b565b915050610f3e565b505b6040518060400160405280600981526020017f417661696c61626c650000000000000000000000000000000000000000000000815250805190602001206002600086815260200190815260200160002060405161139f9190612364565b604051809103902014156113b257600190505b5b9392505050565b6001602052816000526040600020602052806000526040600020600091509150505481565b60006040518060400160405280600481526020017f4275737900000000000000000000000000000000000000000000000000000000815250805190602001208280519060200120148061147457506040518060400160405280600981526020017f417661696c61626c650000000000000000000000000000000000000000000000815250805190602001208280519060200120145b806114c157506040518060400160405280600781526020017f57616974696e6700000000000000000000000000000000000000000000000000815250805190602001208280519060200120145b8061150e57506040518060400160405280600b81526020017f5072656f72646572656e64000000000000000000000000000000000000000000815250805190602001208280519060200120145b15611544578160026000858152602001908152602001600020908051906020019061153a9291906119f5565b5060019050611549565b600090505b92915050565b8060035461155d91906121df565b60038190555050565b61156e6119df565b60005b60065481116117d1576040518060400160405280600a81526020017f5072656f7264657265640000000000000000000000000000000000000000000081525080519060200120600260008381526020019081526020016000206040516115d79190612364565b604051809103902014156117be5760005b60076000838152602001908152602001600020805490508110156117bc5760076000838152602001908152602001600020818154811061162b5761162a612235565b5b90600052602060002001546201518060035461164791906121ab565b106117a957600080838152602001908152602001600020600060076000858152602001908152602001600020838154811061168557611684612235565b5b9060005260206000200154815260200190815260200160002060006101000a81549073ffffffffffffffffffffffffffffffffffffffff02191690556001600083815260200190815260200160002060006007600085815260200190815260200160002083815481106116fb576116fa612235565b5b90600052602060002001548152602001908152602001600020600090556040518060400160405280600781526020017f57616974696e67000000000000000000000000000000000000000000000000008152506002600084815260200190815260200160002090805190602001906117749291906119f5565b5060076000838152602001908152602001600020818154811061179a57611799612235565b5b90600052602060002001600090555b80806117b49061237b565b9150506115e8565b505b80806117c99061237b565b915050611571565b50565b600760205281600052604060002081815481106117f057600080fd5b90600052602060002001600091509150505481565b6000600354821115611991576000611852856040518060400160405280600481526020017f42757379000000000000000000000000000000000000000000000000000000008152506113df565b9050600115158115151461189b576040517f08c379a0000000000000000000000000000000000000000000000000000000008152600401611892906125c0565b60405180910390fd5b60006118a56119df565b6118b260035460006103cf565b90506118bf8460016103cf565b93506007600087815260200190815260200160002081908060018154018082558091505060019003906000526020600020016000909190919091505584600080888152602001908152602001600020600083815260200190815260200160002060006101000a81548173ffffffffffffffffffffffffffffffffffffffff021916908373ffffffffffffffffffffffffffffffffffffffff1602179055508360016000888152602001908152602001600020600083815260200190815260200160002081905550600192505050611996565b600090505b9392505050565b60006020528160005260406000206020528060005260406000206000915091509054906101000a900473ffffffffffffffffffffffffffffffffffffffff1681565b600454426119ed91906121df565b600381905550565b828054611a0190612293565b90600052602060002090601f016020900481019282611a235760008555611a6a565b82601f10611a3c57805160ff1916838001178555611a6a565b82800160010185558215611a6a579182015b82811115611a69578251825591602001919060010190611a4e565b5b509050611a779190611a7b565b5090565b5b80821115611a94576000816000905550600101611a7c565b5090565b6000604051905090565b600080fd5b600080fd5b6000819050919050565b611abf81611aac565b8114611aca57600080fd5b50565b600081359050611adc81611ab6565b92915050565b60008115159050919050565b611af781611ae2565b8114611b0257600080fd5b50565b600081359050611b1481611aee565b92915050565b60008060408385031215611b3157611b30611aa2565b5b6000611b3f85828601611acd565b9250506020611b5085828601611b05565b9150509250929050565b611b6381611aac565b82525050565b6000602082019050611b7e6000830184611b5a565b92915050565b600073ffffffffffffffffffffffffffffffffffffffff82169050919050565b6000611baf82611b84565b9050919050565b611bbf81611ba4565b8114611bca57600080fd5b50565b600081359050611bdc81611bb6565b92915050565b60008060408385031215611bf957611bf8611aa2565b5b6000611c0785828601611acd565b9250506020611c1885828601611bcd565b9150509250929050565b611c2b81611ae2565b82525050565b6000602082019050611c466000830184611c22565b92915050565b60008060008060808587031215611c6657611c65611aa2565b5b6000611c7487828801611acd565b9450506020611c8587828801611acd565b9350506040611c9687828801611acd565b9250506060611ca787828801611bcd565b91505092959194509250565b600060208284031215611cc957611cc8611aa2565b5b6000611cd784828501611acd565b91505092915050565b600081519050919050565b600082825260208201905092915050565b60005b83811015611d1a578082015181840152602081019050611cff565b83811115611d29576000848401525b50505050565b6000601f19601f8301169050919050565b6000611d4b82611ce0565b611d558185611ceb565b9350611d65818560208601611cfc565b611d6e81611d2f565b840191505092915050565b60006020820190508181036000830152611d938184611d40565b905092915050565b60008060408385031215611db257611db1611aa2565b5b6000611dc085828601611acd565b9250506020611dd185828601611acd565b9150509250929050565b600081519050919050565b600082825260208201905092915050565b6000819050602082019050919050565b611e1081611aac565b82525050565b6000611e228383611e07565b60208301905092915050565b6000602082019050919050565b6000611e4682611ddb565b611e508185611de6565b9350611e5b83611df7565b8060005b83811015611e8c578151611e738882611e16565b9750611e7e83611e2e565b925050600181019050611e5f565b5085935050505092915050565b60006020820190508181036000830152611eb38184611e3b565b905092915050565b600080600060608486031215611ed457611ed3611aa2565b5b6000611ee286828701611acd565b9350506020611ef386828701611acd565b9250506040611f0486828701611acd565b9150509250925092565b600080fd5b600080fd5b7f4e487b7100000000000000000000000000000000000000000000000000000000600052604160045260246000fd5b611f5082611d2f565b810181811067ffffffffffffffff82111715611f6f57611f6e611f18565b5b80604052505050565b6000611f82611a98565b9050611f8e8282611f47565b919050565b600067ffffffffffffffff821115611fae57611fad611f18565b5b611fb782611d2f565b9050602081019050919050565b82818337600083830152505050565b6000611fe6611fe184611f93565b611f78565b90508281526020810184848401111561200257612001611f13565b5b61200d848285611fc4565b509392505050565b600082601f83011261202a57612029611f0e565b5b813561203a848260208601611fd3565b91505092915050565b6000806040838503121561205a57612059611aa2565b5b600061206885828601611acd565b925050602083013567ffffffffffffffff81111561208957612088611aa7565b5b61209585828601612015565b9150509250929050565b6000806000606084860312156120b8576120b7611aa2565b5b60006120c686828701611acd565b93505060206120d786828701611bcd565b92505060406120e886828701611acd565b9150509250925092565b6120fb81611ba4565b82525050565b600060208201905061211660008301846120f2565b92915050565b7f4e487b7100000000000000000000000000000000000000000000000000000000600052601260045260246000fd5b600061215682611aac565b915061216183611aac565b9250826121715761217061211c565b5b828206905092915050565b7f4e487b7100000000000000000000000000000000000000000000000000000000600052601160045260246000fd5b60006121b682611aac565b91506121c183611aac565b9250828210156121d4576121d361217c565b5b828203905092915050565b60006121ea82611aac565b91506121f583611aac565b9250827fffffffffffffffffffffffffffffffffffffffffffffffffffffffffffffffff0382111561222a5761222961217c565b5b828201905092915050565b7f4e487b7100000000000000000000000000000000000000000000000000000000600052603260045260246000fd5b7f4e487b7100000000000000000000000000000000000000000000000000000000600052602260045260246000fd5b600060028204905060018216806122ab57607f821691505b602082108114156122bf576122be612264565b5b50919050565b600081905092915050565b60008190508160005260206000209050919050565b600081546122f281612293565b6122fc81866122c5565b9450600182166000811461231757600181146123285761235b565b60ff1983168652818601935061235b565b612331856122d0565b60005b8381101561235357815481890152600182019150602081019050612334565b838801955050505b50505092915050565b600061237082846122e5565b915081905092915050565b600061238682611aac565b91507fffffffffffffffffffffffffffffffffffffffffffffffffffffffffffffffff8214156123b9576123b861217c565b5b600182019050919050565b7f64617461456e6420697320300000000000000000000000000000000000000000600082015250565b60006123fa600c83611ceb565b9150612405826123c4565b602082019050919050565b60006020820190508181036000830152612429816123ed565b9050919050565b7f4e6f7420706f737369626c6520696e2074686520706173740000000000000000600082015250565b6000612466601883611ceb565b915061247182612430565b602082019050919050565b6000602082019050818103600083015261249581612459565b9050919050565b7f3c00000000000000000000000000000000000000000000000000000000000000600082015250565b60006124d2600183611ceb565b91506124dd8261249c565b602082019050919050565b60006020820190508181036000830152612501816124c5565b9050919050565b7f4e6f6e20646973706f6e6962696c653300000000000000000000000000000000600082015250565b600061253e601083611ceb565b915061254982612508565b602082019050919050565b6000602082019050818103600083015261256d81612531565b9050919050565b7f4e6f6e20646973706f6e6962696c653200000000000000000000000000000000600082015250565b60006125aa601083611ceb565b91506125b582612574565b602082019050919050565b600060208201905081810360008301526125d98161259d565b905091905056fea2646970667358221220405d2c6f9708da9ea2bec251b2c06e1aa006796e18f4fd1143fad77a7c8f48f264736f6c634300080a0033",
  "immutableReferences": {},
  "source": "\r\npragma solidity ^0.8.0;\r\n\r\n\r\n\r\ncontract Calendar   {\r\n\t\r\n\t  mapping(uint256=>mapping(uint256=>address)) public Preorderstart;\r\n\t  mapping(uint256=>mapping(uint256=>uint256)) public Preorderend;\r\n    mapping(uint256 => string) public Available;\r\n    uint256 public time;\r\n    uint256 fusoorario;\r\n    uint256[] Status;\r\n    uint256 Orders;\r\n    mapping(uint256=>uint256[]) public PreorderOpen;\r\n\t\t    \r\n \r\n \r\n\r\n\tconstructor() public { \r\n      \r\n\r\n\r\n\r\n\t}\r\n  \tfunction Time() public {\r\n        time = block.timestamp+ fusoorario;\r\n      }\r\n\t/*Funzione per testare le scadenze in update*/\r\n   \r\n      function TimeAdd(uint256 i) public {\r\n        \r\n        time = time + i;\r\n      }\r\n\tfunction Pre_Order(uint256 dataStart, uint256 dataEnd, uint256 _id,address _usr)  external returns(bool suc) {\r\n    Time();\r\n\r\n    if(dataStart==0)\r\n    dataStart= time;\r\n    suc = false;\r\n   \trequire(dataEnd>0,\"dataEnd is 0\");\r\n    require(time <= dataStart,\"Not possible in the past\");\r\n    uint256 date1 = Converter(dataStart,true);\r\n    uint256 date2 = Converter(dataEnd,true);\r\n\r\n\r\n   \r\n\t\trequire(date1<date2,\"<\");//la prenotazione vale almeno se dura 4 ore\r\n      if(_id>Orders)\r\n        Orders= _id;\r\n\r\n        if(CheckAvialable(_id,date1,date2)){\r\n    PreorderOpen[_id].push(date1);\r\n\t\tPreorderstart[_id][date1]= _usr;\r\n\t\tPreorderend[_id][date1]=date2;\r\n\t\tif(keccak256(bytes(\"Available\"))==keccak256(bytes(Available[_id])))\t\r\n\t\tAvailable[_id]=\"Preordered\";\r\n\t\t\t\tsuc = true;\r\n\t\t}\r\n\t\treturn suc;\r\n\t\t}\r\n\r\n\tfunction CheckAvialable(uint256 idA,uint256 _dataStart, uint256 _dataEnd) public returns(bool ret) {\r\n\t\t\r\n\t\t\t\t//in caso in cui sia occupato controllare se le date inserite sia valide per il preorder\r\n\t\tif(keccak256(bytes(Available[idA])) == keccak256(bytes(\"Preordered\"))||keccak256(bytes(Available[idA])) == keccak256(bytes(\"Busy\"))){\r\n\t\t\tret = true;\r\n\r\n\t\t\t\tfor(uint256 i=0; i < PreorderOpen[idA].length; i++){\r\n\t\t\t\tif( PreorderOpen[idA][i]>0 /*&& Preorderend[idA][PreorderOpen[idA][i]]>0*/){\r\n\t\t\t\t\tif((PreorderOpen[idA][i]<= _dataStart && _dataStart<=Preorderend[idA][PreorderOpen[idA][i]])\r\n\t\t\t\t\t\t|| (PreorderOpen[idA][i] == _dataStart) || (Preorderend[idA][PreorderOpen[idA][i]] == _dataStart)\r\n\t\t\t\t\t\t|| (PreorderOpen[idA][i] == _dataEnd )  || (Preorderend[idA][PreorderOpen[idA][i]] == _dataEnd)\r\n\t\t\t\t\t\t|| (PreorderOpen[idA][i] <= _dataEnd && _dataEnd<=Preorderend[idA][PreorderOpen[idA][i]])\r\n\t\t\t\t\t\t|| (PreorderOpen[idA][i]<= _dataEnd && _dataEnd<=Preorderend[idA][PreorderOpen[idA][i]])\r\n\t\t\t\t\t\t|| (_dataStart<= PreorderOpen[idA][i] && Preorderend[idA][PreorderOpen[idA][i]]<=_dataEnd)\r\n\t\t\t\t\t\t){\r\n\t\t\t\t\t\treturn false;\r\n\t\t\t\t\t\ti = PreorderOpen[idA].length;\r\n\t\t\t\t\t}\r\n\r\n\t\t\t\t}\r\n\t\t\t}\r\n\r\n\t\t/*\r\n\t\t\tfor(uint256 i=_dataStart;i <= _dataEnd;i= i + 14400){\r\n\t\t\t\tif(Preorderstart[idA][i]!=address(0x0) || Preorderend[idA][i]==i){\r\n\t\t\t\t\tret =false;\r\n\t\t\t\t\ttest=\"Sono Qui\";\r\n\r\n\t\t\t\t}\r\n\t\t\t}*/\r\n\t\t}\r\n\t\tif(keccak256(bytes(Available[idA])) == keccak256(bytes(\"Available\"))){\r\n\t\tret = true;\r\n\t\t}\r\n\t\treturn ret;\r\n\r\n\t\t//creare un evento per data suggerita nel caso l'item non sia disponibile\r\n\r\n\t}\t\r\n\tfunction Update()public {\r\n\t\t//controllo che i preOrdini aperti siano scaduti\r\n\t\t//se si li cancello e li metto in waiting in attesa che\r\n\t\t//la cauzione venga restituita\r\n\t\tTime();\r\n\t\tfor(uint256 i; i<= Orders; i++){\r\n\t\t    if(keccak256(bytes(Available[i])) == keccak256(bytes(\"Preordered\"))){\r\n\t\t    \tfor(uint256 j;j < PreorderOpen[i].length; j++){\r\n\t\t\t\t  \r\n\t\t\t\tif(time - 86400 >= PreorderOpen[i][j]){//caso in cui sia passato un giorno senza aver \r\n\t\t\t\t\t\t\t\t\t\t\t    //ritirato item adr ad annullare la prenotazione\r\n\r\n\t\t\t\tdelete Preorderstart[i][PreorderOpen[i][j]];\r\n\t\t\t\tdelete Preorderend[i][PreorderOpen[i][j]];\r\n\t\t\t\tAvailable[i]=\"Waiting\";\r\n\t\t\t\tdelete PreorderOpen[i][j];\r\n\t\t\t\t}\r\n                     \r\n\r\n\t\t\t\t}\r\n\t\t\t}}\r\n\t\t    }\r\n\r\n\r\n\tfunction setAvailable(uint256 idA,string memory Status)public returns(bool){\r\n\tif(keccak256(bytes(Status)) == keccak256(bytes(\"Busy\"))||keccak256(bytes(Status)) == keccak256(bytes(\"Available\"))||keccak256(bytes(Status)) == keccak256(bytes(\"Waiting\"))||keccak256(bytes(Status)) == keccak256(bytes(\"Preorderend\")) ){\r\n\t\t\tAvailable[idA]=Status;\r\n\t\t\treturn true;\r\n\t\t\r\n\t\t}\r\n\t\treturn false;\r\n\r\n\t\t\t}\t\t\t\t\r\nfunction setFusoOraio()public{\r\n\tif (fusoorario==0){\r\n\t\tfusoorario= 3600;\r\n\t}\r\n\telse{\r\n\t\tfusoorario=0;\r\n\t}\r\n}\r\nfunction Back(uint256 _id1,uint256 _dateS) external returns(bool){\r\n\r\n\t_dateS = Converter(_dateS,false);\r\n\r\n\r\n\t if(keccak256(bytes(Available[_id1])) == keccak256(bytes(\"Busy\"))&& _dateS>0&& Preorderend[_id1][_dateS]>0){\r\n\r\n\r\n\t  bool k;\r\n          k = setAvailable(_id1,\"Waiting\"); \r\n         if(k){\r\n\r\n\r\n         delete\tPreorderstart[_id1][_dateS];\r\n\t\t\t\t delete Preorderend[_id1][_dateS];\r\n\t\t\t\t for(uint256 i; i< PreorderOpen[_id1].length;i++){\r\n\t\t\t\t \tif(PreorderOpen[_id1][i]==_dateS){\r\n\t\t\t\t \t\tdelete PreorderOpen[_id1][i];\r\n\t\t\t\t \t\treturn true;\r\n\r\n\t\t\t\t \t}\r\n\r\n         } }\r\n       }\r\n       return false;\r\n}\r\nfunction Converter(uint256 date, bool next)public view virtual returns(uint256){\r\n     uint256 lest;\r\n     if(next)\r\n     lest = 14400;\r\n    uint256 date1 = date % 86400; //tempo mod giorni\r\n    date1= date1 % 14400;  //mod 4 ore\r\n\t\tdate1 = date - date1 + lest; //avro il giorno attuale + a mod di 4 ore\r\n                               //es 6 nov - 0:00 - 4:00 - 8:00 - 12:00 - 16:00 ecc... \r\n                               //se sono le 17:11 la prenotazione sar allo slot successivo\r\n                               //alle 20\r\n                               return date1;\r\n}\r\nfunction AcquirePre(uint256 idP,address usr) public   returns(bool ret){\r\n\tret = false;\r\n\r\n  //Update();\r\n\r\n  \t\tfor(uint256 i;i< PreorderOpen[idP].length; i++ ){\r\n  \t\t\tif(Preorderstart[idP][PreorderOpen[idP][i]]==usr ){//fifo\r\n  \t\t\t\tif( time>=PreorderOpen[idP][i] && ((keccak256(bytes(Available[idP])) == keccak256(bytes(\"Available\")))|| keccak256(bytes(Available[idP])) == keccak256(bytes(\"Preordered\")))){\r\n  \t\t\t\t\r\n  \t\t\t\tAvailable[idP]=\"Busy\";\t\t\t\t\t\t\t\r\n  \t\t\t\treturn true;}\r\n  \t\t}\r\n\t\t}\t\r\n//PreorderOpen verificare la data che ci sia come il proprietario del pre-ordine sia \r\n//quello giusto\r\n\r\n\treturn ret;\r\n}\r\nfunction Acquire(uint256 idP,address usr,uint256 _dataF) public   returns(bool ret){\r\n \r\n\r\n//Update();\r\n \r\n if(_dataF>time){\r\n         bool k;\r\n      k =  setAvailable(idP,\"Busy\"); \r\n      require(k == true, \"Non disponibile2\");\r\n      uint256 dateSt;\r\n      Time();\r\n\t\t\tdateSt = Converter(time,false);\r\n   \t\t_dataF = Converter(_dataF,true);\r\n   \t\tPreorderOpen[idP].push(dateSt);\r\n   \t\tPreorderstart[idP][dateSt]= usr;\r\n\t\t  Preorderend[idP][dateSt]=_dataF;\r\n\r\n      return true;\r\n}\r\n\r\nreturn false;}\r\n\r\n\t\r\n\tfunction preOrderOpenGet(uint256 i) external  view virtual returns(uint256[] memory){\r\n     \r\n  return  PreorderOpen[i];\r\n\t}\r\n  function Relese(uint256 _id1) external{\r\n  \t//Update();\r\n\r\n\t require(keccak256(bytes(Available[_id1])) == keccak256(bytes(\"Waiting\")));\r\n\t  bool k;\r\n\t  if(!(CheckAvialable(_id1,time-90000,time+2592000))){//dataS -1 un giorno, dataE + 30gg \r\n           k = setAvailable(_id1,\"Preorderend\");\r\n          require(k == true, \"Non disponibile3\");\r\n          }else{\r\n          k = setAvailable(_id1,\"Available\"); \r\n          require(k == true, \"Non disponibile3\");}\r\n}\r\n}\r\n",
  "sourcePath": "C:\\Users\\Luca\\Desktop\\tesi\\My-tesi\\src\\contracts\\LitemCalendar.sol",
  "compiler": {
    "name": "solc",
    "version": "0.8.10+commit.fc410830.Emscripten.clang"
  },
  "schemaVersion": "3.4.1",
  "updatedAt": "2021-12-03T11:34:38.765Z",
  "devdoc": {
    "kind": "dev",
    "methods": {},
    "version": 1
  },
  "userdoc": {
    "kind": "user",
    "methods": {},
    "version": 1
  }
}