{
  "contractName": "Calendar",
  "abi": [
    {
      "inputs": [],
      "stateMutability": "nonpayable",
      "type": "constructor"
    },
    {
      "inputs": [
        {
          "internalType": "uint256",
          "name": "",
          "type": "uint256"
        }
      ],
      "name": "Available",
      "outputs": [
        {
          "internalType": "string",
          "name": "",
          "type": "string"
        }
      ],
      "stateMutability": "view",
      "type": "function"
    },
    {
      "inputs": [
        {
          "internalType": "uint256",
          "name": "",
          "type": "uint256"
        },
        {
          "internalType": "uint256",
          "name": "",
          "type": "uint256"
        }
      ],
      "name": "PreorderOpen",
      "outputs": [
        {
          "internalType": "uint256",
          "name": "",
          "type": "uint256"
        }
      ],
      "stateMutability": "view",
      "type": "function"
    },
    {
      "inputs": [
        {
          "internalType": "uint256",
          "name": "",
          "type": "uint256"
        },
        {
          "internalType": "uint256",
          "name": "",
          "type": "uint256"
        }
      ],
      "name": "Preorderend",
      "outputs": [
        {
          "internalType": "uint256",
          "name": "",
          "type": "uint256"
        }
      ],
      "stateMutability": "view",
      "type": "function"
    },
    {
      "inputs": [
        {
          "internalType": "uint256",
          "name": "",
          "type": "uint256"
        },
        {
          "internalType": "uint256",
          "name": "",
          "type": "uint256"
        }
      ],
      "name": "Preorderstart",
      "outputs": [
        {
          "internalType": "address",
          "name": "",
          "type": "address"
        }
      ],
      "stateMutability": "view",
      "type": "function"
    },
    {
      "inputs": [],
      "name": "time",
      "outputs": [
        {
          "internalType": "uint256",
          "name": "",
          "type": "uint256"
        }
      ],
      "stateMutability": "view",
      "type": "function"
    },
    {
      "inputs": [],
      "name": "Time",
      "outputs": [],
      "stateMutability": "nonpayable",
      "type": "function"
    },
    {
      "inputs": [
        {
          "internalType": "uint256",
          "name": "i",
          "type": "uint256"
        }
      ],
      "name": "TimeAdd",
      "outputs": [],
      "stateMutability": "nonpayable",
      "type": "function"
    },
    {
      "inputs": [
        {
          "internalType": "uint256",
          "name": "dataStart",
          "type": "uint256"
        },
        {
          "internalType": "uint256",
          "name": "dataEnd",
          "type": "uint256"
        },
        {
          "internalType": "uint256",
          "name": "_id",
          "type": "uint256"
        },
        {
          "internalType": "address",
          "name": "_usr",
          "type": "address"
        }
      ],
      "name": "Pre_Order",
      "outputs": [
        {
          "internalType": "bool",
          "name": "suc",
          "type": "bool"
        }
      ],
      "stateMutability": "nonpayable",
      "type": "function"
    },
    {
      "inputs": [
        {
          "internalType": "uint256",
          "name": "idA",
          "type": "uint256"
        },
        {
          "internalType": "uint256",
          "name": "_dataStart",
          "type": "uint256"
        },
        {
          "internalType": "uint256",
          "name": "_dataEnd",
          "type": "uint256"
        }
      ],
      "name": "CheckAvialable",
      "outputs": [
        {
          "internalType": "bool",
          "name": "ret",
          "type": "bool"
        }
      ],
      "stateMutability": "nonpayable",
      "type": "function"
    },
    {
      "inputs": [],
      "name": "Update",
      "outputs": [],
      "stateMutability": "nonpayable",
      "type": "function"
    },
    {
      "inputs": [
        {
          "internalType": "uint256",
          "name": "idA",
          "type": "uint256"
        },
        {
          "internalType": "string",
          "name": "Status",
          "type": "string"
        }
      ],
      "name": "setAvailable",
      "outputs": [
        {
          "internalType": "bool",
          "name": "",
          "type": "bool"
        }
      ],
      "stateMutability": "nonpayable",
      "type": "function"
    },
    {
      "inputs": [],
      "name": "setFusoOraio",
      "outputs": [],
      "stateMutability": "nonpayable",
      "type": "function"
    },
    {
      "inputs": [
        {
          "internalType": "uint256",
          "name": "_id1",
          "type": "uint256"
        },
        {
          "internalType": "uint256",
          "name": "_dateS",
          "type": "uint256"
        }
      ],
      "name": "Back",
      "outputs": [
        {
          "internalType": "bool",
          "name": "",
          "type": "bool"
        }
      ],
      "stateMutability": "nonpayable",
      "type": "function"
    },
    {
      "inputs": [
        {
          "internalType": "uint256",
          "name": "date",
          "type": "uint256"
        },
        {
          "internalType": "bool",
          "name": "next",
          "type": "bool"
        }
      ],
      "name": "Converter",
      "outputs": [
        {
          "internalType": "uint256",
          "name": "",
          "type": "uint256"
        }
      ],
      "stateMutability": "view",
      "type": "function"
    },
    {
      "inputs": [
        {
          "internalType": "uint256",
          "name": "idP",
          "type": "uint256"
        },
        {
          "internalType": "address",
          "name": "usr",
          "type": "address"
        }
      ],
      "name": "AcquirePre",
      "outputs": [
        {
          "internalType": "bool",
          "name": "ret",
          "type": "bool"
        }
      ],
      "stateMutability": "nonpayable",
      "type": "function"
    },
    {
      "inputs": [
        {
          "internalType": "uint256",
          "name": "idP",
          "type": "uint256"
        },
        {
          "internalType": "address",
          "name": "usr",
          "type": "address"
        },
        {
          "internalType": "uint256",
          "name": "_dataF",
          "type": "uint256"
        }
      ],
      "name": "Acquire",
      "outputs": [
        {
          "internalType": "bool",
          "name": "ret",
          "type": "bool"
        }
      ],
      "stateMutability": "nonpayable",
      "type": "function"
    },
    {
      "inputs": [],
      "name": "preOrderOpenGet",
      "outputs": [
        {
          "internalType": "uint256[]",
          "name": "",
          "type": "uint256[]"
        }
      ],
      "stateMutability": "view",
      "type": "function"
    },
    {
      "inputs": [
        {
          "internalType": "uint256",
          "name": "_id1",
          "type": "uint256"
        }
      ],
      "name": "Relese",
      "outputs": [],
      "stateMutability": "nonpayable",
      "type": "function"
    }
  ],
  "bytecode": "0x608060405234801561001057600080fd5b506122fc806100206000396000f3fe608060405234801561001057600080fd5b50600436106101165760003560e01c806394cfd453116100a2578063b140621111610071578063b140621114610305578063b99ad1bc14610323578063d9d92d1e14610353578063e201d8bd14610383578063f8e157ea146103b357610116565b806394cfd4531461027f5780639ff3b46d146102af578063ae59e24b146102df578063af4b7f14146102fb57610116565b80633097c98e116100e95780633097c98e146101a357806335b67731146101d35780634abc9325146102035780634bbbff061461021f57806360a48f7c1461024f57610116565b806304e4deaa1461011b57806316ada5471461014b5780631b227ed71461016957806323ba900e14610199575b600080fd5b6101356004803603810190610130919061186c565b6103bd565b60405161014291906118bb565b60405180910390f35b610153610413565b60405161016091906118bb565b60405180910390f35b610183600480360381019061017e9190611934565b610419565b6040516101909190611983565b60405180910390f35b6101a1610679565b005b6101bd60048036038101906101b8919061199e565b61069d565b6040516101ca9190611983565b60405180910390f35b6101ed60048036038101906101e89190611a05565b610961565b6040516101fa9190611acb565b60405180910390f35b61021d60048036038101906102189190611a05565b610a01565b005b61023960048036038101906102349190611aed565b610afe565b6040516102469190611983565b60405180910390f35b61026960048036038101906102649190611b2d565b610ce6565b6040516102769190611983565b60405180910390f35b61029960048036038101906102949190611aed565b611256565b6040516102a691906118bb565b60405180910390f35b6102c960048036038101906102c49190611cb5565b61127b565b6040516102d69190611983565b60405180910390f35b6102f960048036038101906102f49190611a05565b61139e565b005b6103036113b5565b005b61030d611623565b60405161031a9190611dcf565b60405180910390f35b61033d60048036038101906103389190611aed565b61168d565b60405161034a91906118bb565b60405180910390f35b61036d60048036038101906103689190611df1565b6116be565b60405161037a9190611983565b60405180910390f35b61039d60048036038101906103989190611aed565b6116ef565b6040516103aa9190611e53565b60405180910390f35b6103bb611731565b005b60008082156103cc5761384090505b600062015180856103dd9190611e9d565b9050613840816103ed9190611e9d565b90508181866103fc9190611efd565b6104069190611f31565b9050809250505092915050565b60035481565b6000805b6007600085815260200190815260200160002080549050811015610671578273ffffffffffffffffffffffffffffffffffffffff16600080868152602001908152602001600020600060076000888152602001908152602001600020848154811061048b5761048a611f87565b5b9060005260206000200154815260200190815260200160002060009054906101000a900473ffffffffffffffffffffffffffffffffffffffff1673ffffffffffffffffffffffffffffffffffffffff16141561065e5760076000858152602001908152602001600020818154811061050657610505611f87565b5b9060005260206000200154600354101580156105f157506040518060400160405280600981526020017f417661696c61626c650000000000000000000000000000000000000000000000815250805190602001206002600086815260200190815260200160002060405161057a91906120b6565b604051809103902014806105f057506040518060400160405280600a81526020017f5072656f7264657265640000000000000000000000000000000000000000000081525080519060200120600260008681526020019081526020016000206040516105e691906120b6565b6040518091039020145b5b1561065d576040518060400160405280600481526020017f4275737900000000000000000000000000000000000000000000000000000000815250600260008681526020019081526020016000209080519060200190610652929190611747565b506001915050610673565b5b8080610669906120cd565b91505061041d565b505b92915050565b6000600454141561069257610e1060048190555061069b565b60006004819055505b565b60006106a7611731565b60008514156106b65760035494505b60009050600084116106fd576040517f08c379a00000000000000000000000000000000000000000000000000000000081526004016106f490612162565b60405180910390fd5b846003541115610742576040517f08c379a0000000000000000000000000000000000000000000000000000000008152600401610739906121ce565b60405180910390fd5b600061074f8660016103bd565b9050600061075e8660016103bd565b90508082106107a2576040517f08c379a00000000000000000000000000000000000000000000000000000000081526004016107999061223a565b60405180910390fd5b6006548511156107b457846006819055505b6107bf858383610ce6565b15610957576007600086815260200190815260200160002082908060018154018082558091505060019003906000526020600020016000909190919091505583600080878152602001908152602001600020600084815260200190815260200160002060006101000a81548173ffffffffffffffffffffffffffffffffffffffff021916908373ffffffffffffffffffffffffffffffffffffffff1602179055508060016000878152602001908152602001600020600084815260200190815260200160002081905550600260008681526020019081526020016000206040516108a991906120b6565b60405180910390206040518060400160405280600981526020017f417661696c61626c650000000000000000000000000000000000000000000000815250805190602001201415610952576040518060400160405280600a81526020017f5072656f72646572656400000000000000000000000000000000000000000000815250600260008781526020019081526020016000209080519060200190610950929190611747565b505b600192505b5050949350505050565b6002602052806000526040600020600091509050805461098090611fe5565b80601f01602080910402602001604051908101604052809291908181526020018280546109ac90611fe5565b80156109f95780601f106109ce576101008083540402835291602001916109f9565b820191906000526020600020905b8154815290600101906020018083116109dc57829003601f168201915b505050505081565b6040518060400160405280600781526020017f57616974696e67000000000000000000000000000000000000000000000000008152508051906020012060026000838152602001908152602001600020604051610a5e91906120b6565b604051809103902014610a7057600080fd5b6000610ab1826040518060400160405280600981526020017f417661696c61626c65000000000000000000000000000000000000000000000081525061127b565b90506001151581151514610afa576040517f08c379a0000000000000000000000000000000000000000000000000000000008152600401610af1906122a6565b60405180910390fd5b5050565b60006040518060400160405280600481526020017f42757379000000000000000000000000000000000000000000000000000000008152508051906020012060026000858152602001908152602001600020604051610b5d91906120b6565b6040518091039020148015610b725750600082115b15610cdb576000610bb8846040518060400160405280600781526020017f57616974696e670000000000000000000000000000000000000000000000000081525061127b565b90508015610cd957600080858152602001908152602001600020600084815260200190815260200160002060006101000a81549073ffffffffffffffffffffffffffffffffffffffff02191690556001600085815260200190815260200160002060008481526020019081526020016000206000905560005b6007600086815260200190815260200160002080549050811015610cd75783600760008781526020019081526020016000208281548110610c7557610c74611f87565b5b90600052602060002001541415610cc457600760008681526020019081526020016000208181548110610cab57610caa611f87565b5b9060005260206000200160009055600192505050610ce0565b8080610ccf906120cd565b915050610c31565b505b505b600090505b92915050565b60006040518060400160405280600a81526020017f5072656f726465726564000000000000000000000000000000000000000000008152508051906020012060026000868152602001908152602001600020604051610d4591906120b6565b60405180910390201480610dbb57506040518060400160405280600481526020017f42757379000000000000000000000000000000000000000000000000000000008152508051906020012060026000868152602001908152602001600020604051610db191906120b6565b6040518091039020145b156111df576001905060005b60076000868152602001908152602001600020805490508110156111dd576000600760008781526020019081526020016000208281548110610e0c57610e0b611f87565b5b906000526020600020015411156111ca5783600760008781526020019081526020016000208281548110610e4357610e42611f87565b5b906000526020600020015411158015610eaf5750600160008681526020019081526020016000206000600760008881526020019081526020016000208381548110610e9157610e90611f87565b5b90600052602060002001548152602001908152602001600020548411155b80610ee8575083600760008781526020019081526020016000208281548110610edb57610eda611f87565b5b9060005260206000200154145b80610f45575083600160008781526020019081526020016000206000600760008981526020019081526020016000208481548110610f2957610f28611f87565b5b9060005260206000200154815260200190815260200160002054145b80610f7e575082600760008781526020019081526020016000208281548110610f7157610f70611f87565b5b9060005260206000200154145b80610fdb575082600160008781526020019081526020016000206000600760008981526020019081526020016000208481548110610fbf57610fbe611f87565b5b9060005260206000200154815260200190815260200160002054145b8061107457508260076000878152602001908152602001600020828154811061100757611006611f87565b5b906000526020600020015411158015611073575060016000868152602001908152602001600020600060076000888152602001908152602001600020838154811061105557611054611f87565b5b90600052602060002001548152602001908152602001600020548311155b5b8061110d5750826007600087815260200190815260200160002082815481106110a05761109f611f87565b5b90600052602060002001541115801561110c57506001600086815260200190815260200160002060006007600088815260200190815260200160002083815481106110ee576110ed611f87565b5b90600052602060002001548152602001908152602001600020548311155b5b806111a6575060076000868152602001908152602001600020818154811061113857611137611f87565b5b906000526020600020015484111580156111a557508260016000878152602001908152602001600020600060076000898152602001908152602001600020848154811061118857611187611f87565b5b906000526020600020015481526020019081526020016000205411155b5b156111c95760009150600760008681526020019081526020016000208054905090505b5b80806111d5906120cd565b915050610dc7565b505b6040518060400160405280600981526020017f417661696c61626c650000000000000000000000000000000000000000000000815250805190602001206002600086815260200190815260200160002060405161123c91906120b6565b6040518091039020141561124f57600190505b9392505050565b6001602052816000526040600020602052806000526040600020600091509150505481565b60006040518060400160405280600481526020017f4275737900000000000000000000000000000000000000000000000000000000815250805190602001208280519060200120148061131057506040518060400160405280600981526020017f417661696c61626c650000000000000000000000000000000000000000000000815250805190602001208280519060200120145b8061135d57506040518060400160405280600781526020017f57616974696e6700000000000000000000000000000000000000000000000000815250805190602001208280519060200120145b156113935781600260008581526020019081526020016000209080519060200190611389929190611747565b5060019050611398565b600090505b92915050565b806003546113ac9190611f31565b60038190555050565b6113bd611731565b60005b6006548111611620576040518060400160405280600a81526020017f5072656f72646572656400000000000000000000000000000000000000000000815250805190602001206002600083815260200190815260200160002060405161142691906120b6565b6040518091039020141561160d5760005b600760008381526020019081526020016000208054905081101561160b5760076000838152602001908152602001600020818154811061147a57611479611f87565b5b9060005260206000200154620151806003546114969190611efd565b106115f85760008083815260200190815260200160002060006007600085815260200190815260200160002083815481106114d4576114d3611f87565b5b9060005260206000200154815260200190815260200160002060006101000a81549073ffffffffffffffffffffffffffffffffffffffff021916905560016000838152602001908152602001600020600060076000858152602001908152602001600020838154811061154a57611549611f87565b5b90600052602060002001548152602001908152602001600020600090556040518060400160405280600781526020017f57616974696e67000000000000000000000000000000000000000000000000008152506002600084815260200190815260200160002090805190602001906115c3929190611747565b506007600083815260200190815260200160002081815481106115e9576115e8611f87565b5b90600052602060002001600090555b8080611603906120cd565b915050611437565b505b8080611618906120cd565b9150506113c0565b50565b6060600760006008815260200190815260200160002080548060200260200160405190810160405280929190818152602001828054801561168357602002820191906000526020600020905b81548152602001906001019080831161166f575b5050505050905090565b600760205281600052604060002081815481106116a957600080fd5b90600052602060002001600091509150505481565b6000806116c9611731565b6003548311156116e3576116e060035460006103bd565b90505b60009150509392505050565b60006020528160005260406000206020528060005260406000206000915091509054906101000a900473ffffffffffffffffffffffffffffffffffffffff1681565b6004544261173f9190611f31565b600381905550565b82805461175390611fe5565b90600052602060002090601f01602090048101928261177557600085556117bc565b82601f1061178e57805160ff19168380011785556117bc565b828001600101855582156117bc579182015b828111156117bb5782518255916020019190600101906117a0565b5b5090506117c991906117cd565b5090565b5b808211156117e65760008160009055506001016117ce565b5090565b6000604051905090565b600080fd5b600080fd5b6000819050919050565b611811816117fe565b811461181c57600080fd5b50565b60008135905061182e81611808565b92915050565b60008115159050919050565b61184981611834565b811461185457600080fd5b50565b60008135905061186681611840565b92915050565b60008060408385031215611883576118826117f4565b5b60006118918582860161181f565b92505060206118a285828601611857565b9150509250929050565b6118b5816117fe565b82525050565b60006020820190506118d060008301846118ac565b92915050565b600073ffffffffffffffffffffffffffffffffffffffff82169050919050565b6000611901826118d6565b9050919050565b611911816118f6565b811461191c57600080fd5b50565b60008135905061192e81611908565b92915050565b6000806040838503121561194b5761194a6117f4565b5b60006119598582860161181f565b925050602061196a8582860161191f565b9150509250929050565b61197d81611834565b82525050565b60006020820190506119986000830184611974565b92915050565b600080600080608085870312156119b8576119b76117f4565b5b60006119c68782880161181f565b94505060206119d78782880161181f565b93505060406119e88782880161181f565b92505060606119f98782880161191f565b91505092959194509250565b600060208284031215611a1b57611a1a6117f4565b5b6000611a298482850161181f565b91505092915050565b600081519050919050565b600082825260208201905092915050565b60005b83811015611a6c578082015181840152602081019050611a51565b83811115611a7b576000848401525b50505050565b6000601f19601f8301169050919050565b6000611a9d82611a32565b611aa78185611a3d565b9350611ab7818560208601611a4e565b611ac081611a81565b840191505092915050565b60006020820190508181036000830152611ae58184611a92565b905092915050565b60008060408385031215611b0457611b036117f4565b5b6000611b128582860161181f565b9250506020611b238582860161181f565b9150509250929050565b600080600060608486031215611b4657611b456117f4565b5b6000611b548682870161181f565b9350506020611b658682870161181f565b9250506040611b768682870161181f565b9150509250925092565b600080fd5b600080fd5b7f4e487b7100000000000000000000000000000000000000000000000000000000600052604160045260246000fd5b611bc282611a81565b810181811067ffffffffffffffff82111715611be157611be0611b8a565b5b80604052505050565b6000611bf46117ea565b9050611c008282611bb9565b919050565b600067ffffffffffffffff821115611c2057611c1f611b8a565b5b611c2982611a81565b9050602081019050919050565b82818337600083830152505050565b6000611c58611c5384611c05565b611bea565b905082815260208101848484011115611c7457611c73611b85565b5b611c7f848285611c36565b509392505050565b600082601f830112611c9c57611c9b611b80565b5b8135611cac848260208601611c45565b91505092915050565b60008060408385031215611ccc57611ccb6117f4565b5b6000611cda8582860161181f565b925050602083013567ffffffffffffffff811115611cfb57611cfa6117f9565b5b611d0785828601611c87565b9150509250929050565b600081519050919050565b600082825260208201905092915050565b6000819050602082019050919050565b611d46816117fe565b82525050565b6000611d588383611d3d565b60208301905092915050565b6000602082019050919050565b6000611d7c82611d11565b611d868185611d1c565b9350611d9183611d2d565b8060005b83811015611dc2578151611da98882611d4c565b9750611db483611d64565b925050600181019050611d95565b5085935050505092915050565b60006020820190508181036000830152611de98184611d71565b905092915050565b600080600060608486031215611e0a57611e096117f4565b5b6000611e188682870161181f565b9350506020611e298682870161191f565b9250506040611e3a8682870161181f565b9150509250925092565b611e4d816118f6565b82525050565b6000602082019050611e686000830184611e44565b92915050565b7f4e487b7100000000000000000000000000000000000000000000000000000000600052601260045260246000fd5b6000611ea8826117fe565b9150611eb3836117fe565b925082611ec357611ec2611e6e565b5b828206905092915050565b7f4e487b7100000000000000000000000000000000000000000000000000000000600052601160045260246000fd5b6000611f08826117fe565b9150611f13836117fe565b925082821015611f2657611f25611ece565b5b828203905092915050565b6000611f3c826117fe565b9150611f47836117fe565b9250827fffffffffffffffffffffffffffffffffffffffffffffffffffffffffffffffff03821115611f7c57611f7b611ece565b5b828201905092915050565b7f4e487b7100000000000000000000000000000000000000000000000000000000600052603260045260246000fd5b7f4e487b7100000000000000000000000000000000000000000000000000000000600052602260045260246000fd5b60006002820490506001821680611ffd57607f821691505b6020821081141561201157612010611fb6565b5b50919050565b600081905092915050565b60008190508160005260206000209050919050565b6000815461204481611fe5565b61204e8186612017565b94506001821660008114612069576001811461207a576120ad565b60ff198316865281860193506120ad565b61208385612022565b60005b838110156120a557815481890152600182019150602081019050612086565b838801955050505b50505092915050565b60006120c28284612037565b915081905092915050565b60006120d8826117fe565b91507fffffffffffffffffffffffffffffffffffffffffffffffffffffffffffffffff82141561210b5761210a611ece565b5b600182019050919050565b7f64617461456e6420697320300000000000000000000000000000000000000000600082015250565b600061214c600c83611a3d565b915061215782612116565b602082019050919050565b6000602082019050818103600083015261217b8161213f565b9050919050565b7f4e6f7420706f737369626c6520696e2074686520706173740000000000000000600082015250565b60006121b8601883611a3d565b91506121c382612182565b602082019050919050565b600060208201905081810360008301526121e7816121ab565b9050919050565b7f3c00000000000000000000000000000000000000000000000000000000000000600082015250565b6000612224600183611a3d565b915061222f826121ee565b602082019050919050565b6000602082019050818103600083015261225381612217565b9050919050565b7f4e6f6e20646973706f6e6962696c653300000000000000000000000000000000600082015250565b6000612290601083611a3d565b915061229b8261225a565b602082019050919050565b600060208201905081810360008301526122bf81612283565b905091905056fea26469706673582212206da8d3d531347584e7cb4082554e79bdf58f7b14d8a5f3585c32b195f462053564736f6c634300080a0033",
  "immutableReferences": {},
  "source": "\r\npragma solidity ^0.8.0;\r\n\r\n\r\n\r\ncontract Calendar   {\r\n\t\r\n\t  mapping(uint256=>mapping(uint256=>address)) public Preorderstart;\r\n\t  mapping(uint256=>mapping(uint256=>uint256)) public Preorderend;\r\n    mapping(uint256 => string) public Available;\r\n    uint256 public time;\r\n    uint256 fusoorario;\r\n    uint256[] Status;\r\n    uint256 Orders;\r\n    mapping(uint256=>uint256[]) public PreorderOpen;\r\n\t\t    \r\n \r\n \r\n\r\n\tconstructor() public { \r\n      \r\n\r\n\r\n\r\n\t}\r\n  \tfunction Time() public {\r\n        time = block.timestamp+ fusoorario;\r\n      }\r\n\t/*Funzione per testare le scadenze in update*/\r\n   \r\n      function TimeAdd(uint256 i) public {\r\n        \r\n        time = time + i;\r\n      }\r\n\tfunction Pre_Order(uint256 dataStart, uint256 dataEnd, uint256 _id,address _usr)  external returns(bool suc) {\r\n    Time();\r\n\r\n    if(dataStart==0)\r\n    dataStart= time ;\r\n    suc = false;\r\n   \trequire(dataEnd>0,\"dataEnd is 0\");\r\n    require(time <= dataStart,\"Not possible in the past\");\r\n    uint256 date1 = Converter(dataStart,true);\r\n    uint256 date2 = Converter(dataEnd,true);\r\n\r\n\r\n   \r\n\t\trequire(date1<date2,\"<\");//la prenotazione vale almeno se dura 4 ore\r\n      if(_id>Orders)\r\n        Orders= _id;\r\n\r\n        if(CheckAvialable(_id,date1,date2)){\r\n    PreorderOpen[_id].push(date1);\r\n\t\tPreorderstart[_id][date1]= _usr;\r\n\t\tPreorderend[_id][date1]=date2;\r\n\t\tif(keccak256(bytes(\"Available\"))==keccak256(bytes(Available[_id])))\t\r\n\t\tAvailable[_id]=\"Preordered\";\r\n\t\t\t\tsuc = true;\r\n\t\t}\r\n\t\treturn suc;\r\n\t\t}\r\n\r\n\tfunction CheckAvialable(uint256 idA,uint256 _dataStart, uint256 _dataEnd) public returns(bool ret) {\r\n\t\t\r\n\t\t\t\t//in caso in cui sia occupato controllare se le date inserite sia valide per il preorder\r\n\t\tif(keccak256(bytes(Available[idA])) == keccak256(bytes(\"Preordered\"))||keccak256(bytes(Available[idA])) == keccak256(bytes(\"Busy\"))){\r\n\t\t\tret = true;\r\n\r\n\t\t\t\tfor(uint256 i=0; i < PreorderOpen[idA].length; i++){\r\n\t\t\t\tif( PreorderOpen[idA][i]>0 ){\r\n\t\t\t\t\tif((PreorderOpen[idA][i]<= _dataStart && _dataStart<=Preorderend[idA][PreorderOpen[idA][i]])\r\n\t\t\t\t\t\t|| (PreorderOpen[idA][i] == _dataStart) || (Preorderend[idA][PreorderOpen[idA][i]] == _dataStart)\r\n\t\t\t\t\t\t|| (PreorderOpen[idA][i] == _dataEnd )  || (Preorderend[idA][PreorderOpen[idA][i]] == _dataEnd)\r\n\t\t\t\t\t\t|| (PreorderOpen[idA][i] <= _dataEnd && _dataEnd<=Preorderend[idA][PreorderOpen[idA][i]])\r\n\t\t\t\t\t\t|| (PreorderOpen[idA][i]<= _dataEnd && _dataEnd<=Preorderend[idA][PreorderOpen[idA][i]])\r\n\t\t\t\t\t\t|| (_dataStart<= PreorderOpen[idA][i] && Preorderend[idA][PreorderOpen[idA][i]]<=_dataEnd)\r\n\t\t\t\t\t\t){\r\n\t\t\t\t\t\tret = false;\r\n\t\t\t\t\t\ti = PreorderOpen[idA].length;\r\n\t\t\t\t\t}\r\n\r\n\t\t\t\t}\r\n\t\t\t}\r\n\r\n\t\t/*\r\n\t\t\tfor(uint256 i=_dataStart;i <= _dataEnd;i= i + 14400){\r\n\t\t\t\tif(Preorderstart[idA][i]!=address(0x0) || Preorderend[idA][i]==i){\r\n\t\t\t\t\tret =false;\r\n\t\t\t\t\ttest=\"Sono Qui\";\r\n\r\n\t\t\t\t}\r\n\t\t\t}*/\r\n\t\t}\r\n\t\tif(keccak256(bytes(Available[idA])) == keccak256(bytes(\"Available\"))){\r\n\t\tret = true;\r\n\t\t}\r\n\t\treturn ret;\r\n\r\n\t\t//creare un evento per data suggerita nel caso l'item non sia disponibile\r\n\r\n\t}\t\r\n\tfunction Update()public {\r\n\t\t//controllo che i preOrdini aperti siano scaduti\r\n\t\t//se si li cancello e li metto in waiting in attesa che\r\n\t\t//la cauzione venga restituita\r\n\t\tTime();\r\n\t\tfor(uint256 i; i<= Orders; i++){\r\n\t\t    if(keccak256(bytes(Available[i])) == keccak256(bytes(\"Preordered\"))){\r\n\t\t    \tfor(uint256 j;j < PreorderOpen[i].length; j++){\r\n\t\t\t\t  \r\n\t\t\t\tif(time - 86400 >= PreorderOpen[i][j]){//caso in cui sia passato un giorno senza aver \r\n\t\t\t\t\t\t\t\t\t\t\t    //ritirato item adr ad annullare la prenotazione\r\n\r\n\t\t\t\tdelete Preorderstart[i][PreorderOpen[i][j]];\r\n\t\t\t\tdelete Preorderend[i][PreorderOpen[i][j]];\r\n\t\t\t\tAvailable[i]=\"Waiting\";\r\n\t\t\t\tdelete PreorderOpen[i][j];\r\n\t\t\t\t}\r\n                     \r\n\r\n\t\t\t\t}\r\n\t\t\t}}\r\n\t\t    }\r\n\r\n\r\n\tfunction setAvailable(uint256 idA,string memory Status)public returns(bool){\r\n\tif(keccak256(bytes(Status)) == keccak256(bytes(\"Busy\"))||keccak256(bytes(Status)) == keccak256(bytes(\"Available\"))||keccak256(bytes(Status)) == keccak256(bytes(\"Waiting\")) ){\r\n\t\t\tAvailable[idA]=Status;\r\n\t\t\treturn true;\r\n\t\t\r\n\t\t}\r\n\t\treturn false;\r\n\r\n\t\t\t}\t\t\t\t\r\nfunction setFusoOraio()public{\r\n\tif (fusoorario==0){\r\n\t\tfusoorario= 3600;\r\n\t}\r\n\telse{\r\n\t\tfusoorario=0;\r\n\t}\r\n}\r\nfunction Back(uint256 _id1,uint256 _dateS) external returns(bool){\r\n\r\n\r\n\t if(keccak256(bytes(Available[_id1])) == keccak256(bytes(\"Busy\"))&& _dateS>0){\r\n\r\n\r\n\t  bool k;\r\n          k = setAvailable(_id1,\"Waiting\"); \r\n         if(k){\r\n         delete\tPreorderstart[_id1][_dateS];\r\n\t\t\t\t delete Preorderend[_id1][_dateS];\r\n\t\t\t\t for(uint256 i; i< PreorderOpen[_id1].length;i++){\r\n\t\t\t\t \tif(PreorderOpen[_id1][i]==_dateS){\r\n\t\t\t\t \t\tdelete PreorderOpen[_id1][i];\r\n\t\t\t\t \t\treturn true;\r\n\r\n\t\t\t\t \t}\r\n\r\n         } }\r\n       }\r\n       return false;\r\n}\r\nfunction Converter(uint256 date, bool next)public view virtual returns(uint256){\r\n     uint256 lest;\r\n     if(next)\r\n     lest = 14400;\r\n    uint256 date1 = date % 86400; //tempo mod giorni\r\n    date1= date1 % 14400;  //mod 4 ore\r\n\t\tdate1 = date - date1 + lest; //avro il giorno attuale + a mod di 4 ore\r\n                               //es 6 nov - 0:00 - 4:00 - 8:00 - 12:00 - 16:00 ecc... \r\n                               //se sono le 17:11 la prenotazione sar allo slot successivo\r\n                               //alle 20\r\n                               return date1;\r\n}\r\nfunction AcquirePre(uint256 idP,address usr) public   returns(bool ret){\r\n\tret = false;\r\n\r\n  //Update();\r\n\r\n  \t\tfor(uint256 i;i< PreorderOpen[idP].length; i++ ){\r\n  \t\t\tif(Preorderstart[idP][PreorderOpen[idP][i]]==usr ){//fifo\r\n  \t\t\t\tif( time>=PreorderOpen[idP][i] && ((keccak256(bytes(Available[idP])) == keccak256(bytes(\"Available\")))|| keccak256(bytes(Available[idP])) == keccak256(bytes(\"Preordered\")))){\r\n  \t\t\t\t\r\n  \t\t\t\tAvailable[idP]=\"Busy\";\t\t\t\t\t\t\t\r\n  \t\t\t\treturn true;}\r\n  \t\t}\r\n\t\t}\t\r\n//PreorderOpen verificare la data che ci sia come il proprietario del pre-ordine sia \r\n//quello giusto\r\n\r\n\treturn ret;\r\n}\r\nfunction Acquire(uint256 idP,address usr,uint256 _dataF) public   returns(bool ret){\r\n \r\n\tuint256 dateSt;\r\n\r\n Time();\r\n if(_dataF>time){\r\n dateSt = Converter(time,false);\r\n\r\n}\r\nreturn false;}\r\n\r\n\t\r\n\tfunction preOrderOpenGet(/*uint256 i*/) external  view virtual returns(uint256[] memory){\r\n     \r\n  return  PreorderOpen[8];\r\n\t}\r\n  function Relese(uint256 _id1) external{\r\n\t require(keccak256(bytes(Available[_id1])) == keccak256(bytes(\"Waiting\")));\r\n\t  bool k;\r\n          k = setAvailable(_id1,\"Available\"); \r\n          require(k == true, \"Non disponibile3\");\r\n}\r\n}\r\n",
  "sourcePath": "C:\\Users\\Luca\\Desktop\\tesi\\My-tesi\\src\\contracts\\LitemCalendar.sol",
  "compiler": {
    "name": "solc",
    "version": "0.8.10+commit.fc410830.Emscripten.clang"
  },
  "schemaVersion": "3.4.1",
  "updatedAt": "2021-11-29T16:32:34.826Z",
  "devdoc": {
    "kind": "dev",
    "methods": {},
    "version": 1
  },
  "userdoc": {
    "kind": "user",
    "methods": {},
    "version": 1
  }
}