{
  "contractName": "Calendar",
  "abi": [
    {
      "inputs": [],
      "stateMutability": "nonpayable",
      "type": "constructor"
    },
    {
      "inputs": [
        {
          "internalType": "uint256",
          "name": "",
          "type": "uint256"
        }
      ],
      "name": "Available",
      "outputs": [
        {
          "internalType": "string",
          "name": "",
          "type": "string"
        }
      ],
      "stateMutability": "view",
      "type": "function"
    },
    {
      "inputs": [
        {
          "internalType": "uint256",
          "name": "",
          "type": "uint256"
        },
        {
          "internalType": "uint256",
          "name": "",
          "type": "uint256"
        }
      ],
      "name": "PreorderOpen",
      "outputs": [
        {
          "internalType": "uint256",
          "name": "",
          "type": "uint256"
        }
      ],
      "stateMutability": "view",
      "type": "function"
    },
    {
      "inputs": [
        {
          "internalType": "uint256",
          "name": "",
          "type": "uint256"
        },
        {
          "internalType": "uint256",
          "name": "",
          "type": "uint256"
        }
      ],
      "name": "Preorderend",
      "outputs": [
        {
          "internalType": "uint256",
          "name": "",
          "type": "uint256"
        }
      ],
      "stateMutability": "view",
      "type": "function"
    },
    {
      "inputs": [
        {
          "internalType": "uint256",
          "name": "",
          "type": "uint256"
        },
        {
          "internalType": "uint256",
          "name": "",
          "type": "uint256"
        }
      ],
      "name": "Preorderstart",
      "outputs": [
        {
          "internalType": "address",
          "name": "",
          "type": "address"
        }
      ],
      "stateMutability": "view",
      "type": "function"
    },
    {
      "inputs": [
        {
          "internalType": "uint256",
          "name": "dataStart",
          "type": "uint256"
        },
        {
          "internalType": "uint256",
          "name": "dataEnd",
          "type": "uint256"
        },
        {
          "internalType": "uint256",
          "name": "_id",
          "type": "uint256"
        }
      ],
      "name": "Pre_Order",
      "outputs": [
        {
          "internalType": "bool",
          "name": "suc",
          "type": "bool"
        }
      ],
      "stateMutability": "nonpayable",
      "type": "function"
    },
    {
      "inputs": [
        {
          "internalType": "uint256",
          "name": "idA",
          "type": "uint256"
        },
        {
          "internalType": "uint256",
          "name": "_dataStart",
          "type": "uint256"
        },
        {
          "internalType": "uint256",
          "name": "_dataEnd",
          "type": "uint256"
        }
      ],
      "name": "CheckAvialable",
      "outputs": [
        {
          "internalType": "bool",
          "name": "ret",
          "type": "bool"
        }
      ],
      "stateMutability": "nonpayable",
      "type": "function"
    },
    {
      "inputs": [
        {
          "internalType": "uint256",
          "name": "idA",
          "type": "uint256"
        },
        {
          "internalType": "string",
          "name": "Status",
          "type": "string"
        }
      ],
      "name": "setAvailable",
      "outputs": [
        {
          "internalType": "bool",
          "name": "",
          "type": "bool"
        }
      ],
      "stateMutability": "nonpayable",
      "type": "function"
    },
    {
      "inputs": [],
      "name": "setFusoOraio",
      "outputs": [],
      "stateMutability": "nonpayable",
      "type": "function"
    },
    {
      "inputs": [
        {
          "internalType": "uint256",
          "name": "_id1",
          "type": "uint256"
        }
      ],
      "name": "Relese",
      "outputs": [],
      "stateMutability": "nonpayable",
      "type": "function"
    },
    {
      "inputs": [
        {
          "internalType": "uint256",
          "name": "date",
          "type": "uint256"
        },
        {
          "internalType": "bool",
          "name": "next",
          "type": "bool"
        }
      ],
      "name": "Converter",
      "outputs": [
        {
          "internalType": "uint256",
          "name": "",
          "type": "uint256"
        }
      ],
      "stateMutability": "nonpayable",
      "type": "function"
    },
    {
      "inputs": [
        {
          "internalType": "uint256",
          "name": "_dateS",
          "type": "uint256"
        },
        {
          "internalType": "uint256",
          "name": "idP",
          "type": "uint256"
        },
        {
          "internalType": "address",
          "name": "usr",
          "type": "address"
        }
      ],
      "name": "AcquirePre",
      "outputs": [
        {
          "internalType": "bool",
          "name": "ret",
          "type": "bool"
        }
      ],
      "stateMutability": "nonpayable",
      "type": "function"
    }
  ],
  "bytecode": "0x608060405234801561001057600080fd5b50611924806100206000396000f3fe608060405234801561001057600080fd5b50600436106100a95760003560e01c806360a48f7c1161007157806360a48f7c1461016457806394cfd453146101945780639ff3b46d146101c4578063b5c5daa4146101f4578063b99ad1bc14610224578063e201d8bd14610254576100a9565b806304e4deaa146100ae57806323ba900e146100de57806332a119a4146100e857806335b67731146101185780634abc932514610148575b600080fd5b6100c860048036038101906100c39190611087565b610284565b6040516100d591906110d6565b60405180910390f35b6100e66102da565b005b61010260048036038101906100fd91906110f1565b6102fe565b60405161010f9190611153565b60405180910390f35b610132600480360381019061012d919061116e565b610516565b60405161013f9190611234565b60405180910390f35b610162600480360381019061015d919061116e565b6105b6565b005b61017e600480360381019061017991906110f1565b6106b3565b60405161018b9190611153565b60405180910390f35b6101ae60048036038101906101a99190611256565b610c23565b6040516101bb91906110d6565b60405180910390f35b6101de60048036038101906101d991906113cb565b610c48565b6040516101eb9190611153565b60405180910390f35b61020e60048036038101906102099190611485565b610d6b565b60405161021b9190611153565b60405180910390f35b61023e60048036038101906102399190611256565b610ed9565b60405161024b91906110d6565b60405180910390f35b61026e60048036038101906102699190611256565b610f0a565b60405161027b91906114e7565b60405180910390f35b60008082156102935761384090505b600062015180856102a49190611531565b9050613840816102b49190611531565b90508181866102c39190611591565b6102cd91906115c5565b9050809250505092915050565b600060045414156102f357610e106004819055506102fc565b60006004819055505b565b6000600454600a426103109190611591565b61031a91906115c5565b6003819055508360035410610364576040517f08c379a000000000000000000000000000000000000000000000000000000000815260040161035b90611667565b60405180910390fd5b6000610371856001610284565b90506000610380856001610284565b90508082106103c4576040517f08c379a00000000000000000000000000000000000000000000000000000000081526004016103bb906116d3565b60405180910390fd5b6006548411156103d657836006819055505b6103e18483836106b3565b1561050d576007600085815260200190815260200160002082908060018154018082558091505060019003906000526020600020016000909190919091505533600080868152602001908152602001600020600084815260200190815260200160002060006101000a81548173ffffffffffffffffffffffffffffffffffffffff021916908373ffffffffffffffffffffffffffffffffffffffff16021790555080600160008681526020019081526020016000206000848152602001908152602001600020819055506040518060400160405280600a81526020017f5072656f72646572656400000000000000000000000000000000000000000000815250600260008681526020019081526020016000209080519060200190610507929190610f62565b50600192505b50509392505050565b6002602052806000526040600020600091509050805461053590611722565b80601f016020809104026020016040519081016040528092919081815260200182805461056190611722565b80156105ae5780601f10610583576101008083540402835291602001916105ae565b820191906000526020600020905b81548152906001019060200180831161059157829003601f168201915b505050505081565b6040518060400160405280600781526020017f57616974696e6700000000000000000000000000000000000000000000000000815250805190602001206002600083815260200190815260200160002060405161061391906117f3565b60405180910390201461062557600080fd5b6000610666826040518060400160405280600981526020017f417661696c61626c650000000000000000000000000000000000000000000000815250610c48565b905060011515811515146106af576040517f08c379a00000000000000000000000000000000000000000000000000000000081526004016106a690611856565b60405180910390fd5b5050565b60006040518060400160405280600a81526020017f5072656f72646572656400000000000000000000000000000000000000000000815250805190602001206002600086815260200190815260200160002060405161071291906117f3565b6040518091039020148061078857506040518060400160405280600481526020017f4275737900000000000000000000000000000000000000000000000000000000815250805190602001206002600086815260200190815260200160002060405161077e91906117f3565b6040518091039020145b15610bac576001905060005b6007600086815260200190815260200160002080549050811015610baa5760006007600087815260200190815260200160002082815481106107d9576107d8611876565b5b90600052602060002001541115610b9757836007600087815260200190815260200160002082815481106108105761080f611876565b5b90600052602060002001541115801561087c575060016000868152602001908152602001600020600060076000888152602001908152602001600020838154811061085e5761085d611876565b5b90600052602060002001548152602001908152602001600020548411155b806108b55750836007600087815260200190815260200160002082815481106108a8576108a7611876565b5b9060005260206000200154145b806109125750836001600087815260200190815260200160002060006007600089815260200190815260200160002084815481106108f6576108f5611876565b5b9060005260206000200154815260200190815260200160002054145b8061094b57508260076000878152602001908152602001600020828154811061093e5761093d611876565b5b9060005260206000200154145b806109a857508260016000878152602001908152602001600020600060076000898152602001908152602001600020848154811061098c5761098b611876565b5b9060005260206000200154815260200190815260200160002054145b80610a415750826007600087815260200190815260200160002082815481106109d4576109d3611876565b5b906000526020600020015411158015610a405750600160008681526020019081526020016000206000600760008881526020019081526020016000208381548110610a2257610a21611876565b5b90600052602060002001548152602001908152602001600020548311155b5b80610ada575082600760008781526020019081526020016000208281548110610a6d57610a6c611876565b5b906000526020600020015411158015610ad95750600160008681526020019081526020016000206000600760008881526020019081526020016000208381548110610abb57610aba611876565b5b90600052602060002001548152602001908152602001600020548311155b5b80610b735750600760008681526020019081526020016000208181548110610b0557610b04611876565b5b90600052602060002001548411158015610b72575082600160008781526020019081526020016000206000600760008981526020019081526020016000208481548110610b5557610b54611876565b5b906000526020600020015481526020019081526020016000205411155b5b15610b965760009150600760008681526020019081526020016000208054905090505b5b8080610ba2906118a5565b915050610794565b505b6040518060400160405280600981526020017f417661696c61626c6500000000000000000000000000000000000000000000008152508051906020012060026000868152602001908152602001600020604051610c0991906117f3565b60405180910390201415610c1c57600190505b9392505050565b6001602052816000526040600020602052806000526040600020600091509150505481565b60006040518060400160405280600481526020017f42757379000000000000000000000000000000000000000000000000000000008152508051906020012082805190602001201480610cdd57506040518060400160405280600981526020017f417661696c61626c650000000000000000000000000000000000000000000000815250805190602001208280519060200120145b80610d2a57506040518060400160405280600781526020017f57616974696e6700000000000000000000000000000000000000000000000000815250805190602001208280519060200120145b15610d605781600260008581526020019081526020016000209080519060200190610d56929190610f62565b5060019050610d65565b600090505b92915050565b6000610d75610f4c565b6000610d846003546000610284565b90506000610d93866001610284565b90506003548610610ecf5760005b6007600087815260200190815260200160002080549050811015610ecd578473ffffffffffffffffffffffffffffffffffffffff166000808881526020019081526020016000206000600760008a81526020019081526020016000208481548110610e0f57610e0e611876565b5b9060005260206000200154815260200190815260200160002060009054906101000a900473ffffffffffffffffffffffffffffffffffffffff1673ffffffffffffffffffffffffffffffffffffffff16148015610ea957508162015180600760008981526020019081526020016000208381548110610e9157610e90611876565b5b9060005260206000200154610ea691906115c5565b10155b15610eba5760019350505050610ed2565b8080610ec5906118a5565b915050610da1565b505b50505b9392505050565b60076020528160005260406000208181548110610ef557600080fd5b90600052602060002001600091509150505481565b60006020528160005260406000206020528060005260406000206000915091509054906101000a900473ffffffffffffffffffffffffffffffffffffffff1681565b60045442610f5a91906115c5565b600381905550565b828054610f6e90611722565b90600052602060002090601f016020900481019282610f905760008555610fd7565b82601f10610fa957805160ff1916838001178555610fd7565b82800160010185558215610fd7579182015b82811115610fd6578251825591602001919060010190610fbb565b5b509050610fe49190610fe8565b5090565b5b80821115611001576000816000905550600101610fe9565b5090565b6000604051905090565b600080fd5b600080fd5b6000819050919050565b61102c81611019565b811461103757600080fd5b50565b60008135905061104981611023565b92915050565b60008115159050919050565b6110648161104f565b811461106f57600080fd5b50565b6000813590506110818161105b565b92915050565b6000806040838503121561109e5761109d61100f565b5b60006110ac8582860161103a565b92505060206110bd85828601611072565b9150509250929050565b6110d081611019565b82525050565b60006020820190506110eb60008301846110c7565b92915050565b60008060006060848603121561110a5761110961100f565b5b60006111188682870161103a565b93505060206111298682870161103a565b925050604061113a8682870161103a565b9150509250925092565b61114d8161104f565b82525050565b60006020820190506111686000830184611144565b92915050565b6000602082840312156111845761118361100f565b5b60006111928482850161103a565b91505092915050565b600081519050919050565b600082825260208201905092915050565b60005b838110156111d55780820151818401526020810190506111ba565b838111156111e4576000848401525b50505050565b6000601f19601f8301169050919050565b60006112068261119b565b61121081856111a6565b93506112208185602086016111b7565b611229816111ea565b840191505092915050565b6000602082019050818103600083015261124e81846111fb565b905092915050565b6000806040838503121561126d5761126c61100f565b5b600061127b8582860161103a565b925050602061128c8582860161103a565b9150509250929050565b600080fd5b600080fd5b7f4e487b7100000000000000000000000000000000000000000000000000000000600052604160045260246000fd5b6112d8826111ea565b810181811067ffffffffffffffff821117156112f7576112f66112a0565b5b80604052505050565b600061130a611005565b905061131682826112cf565b919050565b600067ffffffffffffffff821115611336576113356112a0565b5b61133f826111ea565b9050602081019050919050565b82818337600083830152505050565b600061136e6113698461131b565b611300565b90508281526020810184848401111561138a5761138961129b565b5b61139584828561134c565b509392505050565b600082601f8301126113b2576113b1611296565b5b81356113c284826020860161135b565b91505092915050565b600080604083850312156113e2576113e161100f565b5b60006113f08582860161103a565b925050602083013567ffffffffffffffff81111561141157611410611014565b5b61141d8582860161139d565b9150509250929050565b600073ffffffffffffffffffffffffffffffffffffffff82169050919050565b600061145282611427565b9050919050565b61146281611447565b811461146d57600080fd5b50565b60008135905061147f81611459565b92915050565b60008060006060848603121561149e5761149d61100f565b5b60006114ac8682870161103a565b93505060206114bd8682870161103a565b92505060406114ce86828701611470565b9150509250925092565b6114e181611447565b82525050565b60006020820190506114fc60008301846114d8565b92915050565b7f4e487b7100000000000000000000000000000000000000000000000000000000600052601260045260246000fd5b600061153c82611019565b915061154783611019565b92508261155757611556611502565b5b828206905092915050565b7f4e487b7100000000000000000000000000000000000000000000000000000000600052601160045260246000fd5b600061159c82611019565b91506115a783611019565b9250828210156115ba576115b9611562565b5b828203905092915050565b60006115d082611019565b91506115db83611019565b9250827fffffffffffffffffffffffffffffffffffffffffffffffffffffffffffffffff038211156116105761160f611562565b5b828201905092915050565b7f4e6f7420706f737369626c6520696e2074686520706173740000000000000000600082015250565b60006116516018836111a6565b915061165c8261161b565b602082019050919050565b6000602082019050818103600083015261168081611644565b9050919050565b7f3c00000000000000000000000000000000000000000000000000000000000000600082015250565b60006116bd6001836111a6565b91506116c882611687565b602082019050919050565b600060208201905081810360008301526116ec816116b0565b9050919050565b7f4e487b7100000000000000000000000000000000000000000000000000000000600052602260045260246000fd5b6000600282049050600182168061173a57607f821691505b6020821081141561174e5761174d6116f3565b5b50919050565b600081905092915050565b60008190508160005260206000209050919050565b6000815461178181611722565b61178b8186611754565b945060018216600081146117a657600181146117b7576117ea565b60ff198316865281860193506117ea565b6117c08561175f565b60005b838110156117e2578154818901526001820191506020810190506117c3565b838801955050505b50505092915050565b60006117ff8284611774565b915081905092915050565b7f4e6f6e20646973706f6e6962696c653300000000000000000000000000000000600082015250565b60006118406010836111a6565b915061184b8261180a565b602082019050919050565b6000602082019050818103600083015261186f81611833565b9050919050565b7f4e487b7100000000000000000000000000000000000000000000000000000000600052603260045260246000fd5b60006118b082611019565b91507fffffffffffffffffffffffffffffffffffffffffffffffffffffffffffffffff8214156118e3576118e2611562565b5b60018201905091905056fea26469706673582212203c3277e4f322b5f3480c1df6bc81a9e9d06d1a0d8b2187ef7171e08395ac69e464736f6c634300080a0033",
  "immutableReferences": {},
  "source": "\r\npragma solidity ^0.8.0;\r\n\r\n\r\n\r\ncontract Calendar   {\r\n\t\r\n\t  mapping(uint256=>mapping(uint256=>address)) public Preorderstart;\r\n\t  mapping(uint256=>mapping(uint256=>uint256)) public Preorderend;\r\n    mapping(uint256 => string) public Available;\r\n    uint256 time;\r\n    uint256 fusoorario;\r\n    uint256[] Status;\r\n    uint256 Orders;\r\n    mapping(uint256=>uint256[]) public PreorderOpen;\r\n\t\t    \r\n\r\n \r\n\r\n\tconstructor() public { \r\n      \r\n\r\n\r\n\r\n\t}\r\n  \tfunction Time() internal {\r\n        time = block.timestamp+ fusoorario;\r\n      }\r\n\r\n\r\n\tfunction Pre_Order(uint256 dataStart, uint256 dataEnd, uint256 _id)  external returns(bool suc) {\r\n    suc = false;\r\n    time =block.timestamp-10 + fusoorario;\r\n    require(time < dataStart,\"Not possible in the past\");\r\n    uint256 date1 = Converter(dataStart,true);\r\n    uint256 date2 = Converter(dataEnd,true);\r\n\r\n\t\trequire(date1<date2,\"<\");//la prenotazione vale almeno se dura 4 ore\r\n      if(_id>Orders)\r\n        Orders= _id;\r\n\r\n        if(CheckAvialable(_id,date1,date2)){\r\n    PreorderOpen[_id].push(date1);\r\n\t\tPreorderstart[_id][date1]= msg.sender;\r\n\t\tPreorderend[_id][date1]=date2;\t\r\n\t\tAvailable[_id]=\"Preordered\";\r\n\t\t\t\tsuc = true;\r\n\t\t}\r\n\t\treturn suc;\r\n\t\t}\r\n\r\n\tfunction CheckAvialable(uint256 idA,uint256 _dataStart, uint256 _dataEnd) public returns(bool ret) {\r\n\t\t\r\n\t\t\t\t//in caso in cui sia occupato controllare se le date inserite sia valide per il preorder\r\n\t\tif(keccak256(bytes(Available[idA])) == keccak256(bytes(\"Preordered\"))||keccak256(bytes(Available[idA])) == keccak256(bytes(\"Busy\"))){\r\n\t\t\tret = true;\r\n\r\n\t\t\t\tfor(uint256 i=0; i < PreorderOpen[idA].length; i++){\r\n\t\t\t\tif( PreorderOpen[idA][i]>0 ){\r\n\t\t\t\t\tif((PreorderOpen[idA][i]<= _dataStart && _dataStart<=Preorderend[idA][PreorderOpen[idA][i]])\r\n\t\t\t\t\t\t|| (PreorderOpen[idA][i] == _dataStart) || (Preorderend[idA][PreorderOpen[idA][i]] == _dataStart)\r\n\t\t\t\t\t\t|| (PreorderOpen[idA][i] == _dataEnd )  || (Preorderend[idA][PreorderOpen[idA][i]] == _dataEnd)\r\n\t\t\t\t\t\t|| (PreorderOpen[idA][i] <= _dataEnd && _dataEnd<=Preorderend[idA][PreorderOpen[idA][i]])\r\n\t\t\t\t\t\t|| (PreorderOpen[idA][i]<= _dataEnd && _dataEnd<=Preorderend[idA][PreorderOpen[idA][i]])\r\n\t\t\t\t\t\t|| (_dataStart<= PreorderOpen[idA][i] && Preorderend[idA][PreorderOpen[idA][i]]<=_dataEnd)\r\n\t\t\t\t\t\t){\r\n\t\t\t\t\t\tret = false;\r\n\t\t\t\t\t\ti = PreorderOpen[idA].length;\r\n\t\t\t\t\t}\r\n\r\n\t\t\t\t}\r\n\t\t\t}\r\n\r\n\t\t/*\r\n\t\t\tfor(uint256 i=_dataStart;i <= _dataEnd;i= i + 14400){\r\n\t\t\t\tif(Preorderstart[idA][i]!=address(0x0) || Preorderend[idA][i]==i){\r\n\t\t\t\t\tret =false;\r\n\t\t\t\t\ttest=\"Sono Qui\";\r\n\r\n\t\t\t\t}\r\n\t\t\t}*/\r\n\t\t}\r\n\t\tif(keccak256(bytes(Available[idA])) == keccak256(bytes(\"Available\"))){\r\n\t\tret = true;\r\n\t\t}\r\n\t\treturn ret;\r\n\r\n\t\t//creare un evento per data suggerita nel caso l'item non sia disponibile\r\n\r\n\t}\t\r\n\tfunction Update()internal {\r\n\t\t//controllo che i preOrdini aperti siano scaduti\r\n\t\t//se si li cancello e li metto in waiting in attesa che\r\n\t\t//la cauzione venga restituita\r\n\t\tfor(uint256 i; i<= Orders; i++){\r\n\t\t    if(keccak256(bytes(Available[i])) == keccak256(bytes(\"Preordered\"))){\r\n\t\t    \tfor(uint256 j;j < PreorderOpen[i].length; j++){\r\n\t\t\t\tTime();\r\n\t\t\t\tif(time - 86400 >= PreorderOpen[i][j]){//caso in cui sia passato un giorno senza aver \r\n\t\t\t\t\t\t\t\t\t\t\t    //ritirato item adr ad annullare la prenotazione\r\n\r\n\t\t\t\tPreorderstart[i][PreorderOpen[i][j]]= address(0);\r\n\t\t\t\tPreorderend[i][PreorderOpen[i][j]]=0;\r\n\t\t\t\tAvailable[i]=\"Waiting\";\r\n\t\t\t\tdelete PreorderOpen[i][j];\r\n\t\t\t\t}\r\n                      //Preorderstart[][]= address(0);\r\n                      //Preorderend[][].delete();\r\n                     // delete  Preorderend[][];\r\n                     //eliminazione su preorderOpen\r\n\r\n\t\t\t\t}\r\n\t\t\t}}\r\n\t\t    }\r\n\tfunction setAvailable(uint256 idA,string memory Status)public returns(bool){\r\n\tif(keccak256(bytes(Status)) == keccak256(bytes(\"Busy\"))||keccak256(bytes(Status)) == keccak256(bytes(\"Available\"))||keccak256(bytes(Status)) == keccak256(bytes(\"Waiting\")) ){\r\n\t\t\tAvailable[idA]=Status;\r\n\t\t\treturn true;\r\n\t\t\r\n\t\t}\r\n\t\treturn false;\r\n\r\n\t\t\t}\t\t\t\t\r\nfunction setFusoOraio()public{\r\n\tif (fusoorario==0){\r\n\t\tfusoorario= 3600;\r\n\t}\r\n\telse{\r\n\t\tfusoorario=0;\r\n\t}\r\n}\r\nfunction Relese(uint256 _id1) external{\r\n\t require(keccak256(bytes(Available[_id1])) == keccak256(bytes(\"Waiting\")));\r\n\t  bool k;\r\n          k = setAvailable(_id1,\"Available\"); \r\n          require(k == true, \"Non disponibile3\");\r\n}\r\nfunction Converter(uint256 date, bool next)public returns(uint256){\r\n     uint256 lest;\r\n     if(next)\r\n     lest = 14400;\r\n    uint256 date1 = date % 86400; //tempo mod giorni\r\n    date1= date1 % 14400;  //mod 4 ore\r\n\t\tdate1 = date - date1 + lest; //avro il giorno attuale + a mod di 4 ore\r\n                               //es 6 nov - 0:00 - 4:00 - 8:00 - 12:00 - 16:00 ecc... \r\n                               //se sono le 17:11 la prenotazione sar allo slot successivo\r\n                               //alle 20\r\n                               return date1;\r\n}\r\nfunction AcquirePre(uint256 _dateS,uint256 idP,address usr) public returns(bool ret){\r\n\tret = false;\r\n\tTime();\r\n  \tuint256 time1 = Converter(time,false);\r\n  \tuint256 time2 = Converter(_dateS,true);\r\n      \r\n\r\n  \tif(_dateS>=time){\r\n  \t\tfor(uint256 i;i< PreorderOpen[idP].length; i++ ){\r\n  \t\tif(Preorderstart[idP][PreorderOpen[idP][i]]==usr && PreorderOpen[idP][i]+86400 >= time2){\r\n  \t\t\t\t\t\t\t\t\t\t\t\t//dopo un giorno dalla scadenza viene cancellato il pre-order\r\n  \t\t\treturn true;\r\n  \t\t}\r\n\t\t}\r\n  \t}\r\n//PreorderOpen verificare la data che ci sia come il proprietario del pre-ordine sia \r\n//quello giusto\r\n\r\n\r\n\r\n}\r\n\t\r\n}",
  "sourcePath": "C:\\Users\\Luca\\Desktop\\tesi\\My-tesi\\src\\contracts\\LitemCalendar.sol",
  "compiler": {
    "name": "solc",
    "version": "0.8.10+commit.fc410830.Emscripten.clang"
  },
  "schemaVersion": "3.4.1",
  "updatedAt": "2021-11-23T17:02:32.833Z",
  "devdoc": {
    "kind": "dev",
    "methods": {},
    "version": 1
  },
  "userdoc": {
    "kind": "user",
    "methods": {},
    "version": 1
  }
}