{
  "contractName": "Calendar",
  "abi": [
    {
      "inputs": [],
      "stateMutability": "nonpayable",
      "type": "constructor"
    },
    {
      "inputs": [
        {
          "internalType": "uint256",
          "name": "",
          "type": "uint256"
        }
      ],
      "name": "Available",
      "outputs": [
        {
          "internalType": "string",
          "name": "",
          "type": "string"
        }
      ],
      "stateMutability": "view",
      "type": "function"
    },
    {
      "inputs": [],
      "name": "Orders",
      "outputs": [
        {
          "internalType": "uint256",
          "name": "",
          "type": "uint256"
        }
      ],
      "stateMutability": "view",
      "type": "function"
    },
    {
      "inputs": [
        {
          "internalType": "uint256",
          "name": "",
          "type": "uint256"
        },
        {
          "internalType": "uint256",
          "name": "",
          "type": "uint256"
        }
      ],
      "name": "PreorderOpen",
      "outputs": [
        {
          "internalType": "uint256",
          "name": "",
          "type": "uint256"
        }
      ],
      "stateMutability": "view",
      "type": "function"
    },
    {
      "inputs": [
        {
          "internalType": "uint256",
          "name": "",
          "type": "uint256"
        },
        {
          "internalType": "uint256",
          "name": "",
          "type": "uint256"
        }
      ],
      "name": "Preorderend",
      "outputs": [
        {
          "internalType": "uint256",
          "name": "",
          "type": "uint256"
        }
      ],
      "stateMutability": "view",
      "type": "function"
    },
    {
      "inputs": [
        {
          "internalType": "uint256",
          "name": "",
          "type": "uint256"
        },
        {
          "internalType": "uint256",
          "name": "",
          "type": "uint256"
        }
      ],
      "name": "Preorderstart",
      "outputs": [
        {
          "internalType": "address",
          "name": "",
          "type": "address"
        }
      ],
      "stateMutability": "view",
      "type": "function"
    },
    {
      "inputs": [],
      "name": "time",
      "outputs": [
        {
          "internalType": "uint256",
          "name": "",
          "type": "uint256"
        }
      ],
      "stateMutability": "view",
      "type": "function"
    },
    {
      "inputs": [],
      "name": "Time",
      "outputs": [
        {
          "internalType": "uint256",
          "name": "",
          "type": "uint256"
        }
      ],
      "stateMutability": "nonpayable",
      "type": "function"
    },
    {
      "inputs": [
        {
          "internalType": "uint256",
          "name": "i",
          "type": "uint256"
        }
      ],
      "name": "TimeAdd",
      "outputs": [],
      "stateMutability": "nonpayable",
      "type": "function"
    },
    {
      "inputs": [
        {
          "internalType": "uint256",
          "name": "dataStart",
          "type": "uint256"
        },
        {
          "internalType": "uint256",
          "name": "dataEnd",
          "type": "uint256"
        },
        {
          "internalType": "uint256",
          "name": "_id",
          "type": "uint256"
        },
        {
          "internalType": "address",
          "name": "_usr",
          "type": "address"
        }
      ],
      "name": "Pre_Order",
      "outputs": [
        {
          "internalType": "bool",
          "name": "suc",
          "type": "bool"
        }
      ],
      "stateMutability": "nonpayable",
      "type": "function"
    },
    {
      "inputs": [
        {
          "internalType": "uint256",
          "name": "idA",
          "type": "uint256"
        },
        {
          "internalType": "uint256",
          "name": "_dataStart",
          "type": "uint256"
        },
        {
          "internalType": "uint256",
          "name": "_dataEnd",
          "type": "uint256"
        }
      ],
      "name": "CheckAvialable",
      "outputs": [
        {
          "internalType": "bool",
          "name": "ret",
          "type": "bool"
        }
      ],
      "stateMutability": "nonpayable",
      "type": "function"
    },
    {
      "inputs": [],
      "name": "Update",
      "outputs": [],
      "stateMutability": "nonpayable",
      "type": "function"
    },
    {
      "inputs": [
        {
          "internalType": "uint256",
          "name": "idA",
          "type": "uint256"
        },
        {
          "internalType": "string",
          "name": "Status",
          "type": "string"
        }
      ],
      "name": "setAvailable",
      "outputs": [
        {
          "internalType": "bool",
          "name": "",
          "type": "bool"
        }
      ],
      "stateMutability": "nonpayable",
      "type": "function"
    },
    {
      "inputs": [],
      "name": "setFusoOraio",
      "outputs": [],
      "stateMutability": "nonpayable",
      "type": "function"
    },
    {
      "inputs": [
        {
          "internalType": "uint256",
          "name": "_id1",
          "type": "uint256"
        },
        {
          "internalType": "uint256",
          "name": "_dateS",
          "type": "uint256"
        }
      ],
      "name": "Back",
      "outputs": [
        {
          "internalType": "bool",
          "name": "",
          "type": "bool"
        }
      ],
      "stateMutability": "nonpayable",
      "type": "function"
    },
    {
      "inputs": [
        {
          "internalType": "uint256",
          "name": "date",
          "type": "uint256"
        },
        {
          "internalType": "bool",
          "name": "next",
          "type": "bool"
        }
      ],
      "name": "Converter",
      "outputs": [
        {
          "internalType": "uint256",
          "name": "",
          "type": "uint256"
        }
      ],
      "stateMutability": "view",
      "type": "function"
    },
    {
      "inputs": [
        {
          "internalType": "uint256",
          "name": "idP",
          "type": "uint256"
        },
        {
          "internalType": "address",
          "name": "usr",
          "type": "address"
        }
      ],
      "name": "AcquirePre",
      "outputs": [
        {
          "internalType": "bool",
          "name": "ret",
          "type": "bool"
        }
      ],
      "stateMutability": "nonpayable",
      "type": "function"
    },
    {
      "inputs": [
        {
          "internalType": "uint256",
          "name": "idP",
          "type": "uint256"
        },
        {
          "internalType": "address",
          "name": "usr",
          "type": "address"
        },
        {
          "internalType": "uint256",
          "name": "_dataF",
          "type": "uint256"
        }
      ],
      "name": "Acquire",
      "outputs": [
        {
          "internalType": "bool",
          "name": "ret",
          "type": "bool"
        }
      ],
      "stateMutability": "nonpayable",
      "type": "function"
    },
    {
      "inputs": [
        {
          "internalType": "uint256",
          "name": "i",
          "type": "uint256"
        }
      ],
      "name": "preOrderOpenGet",
      "outputs": [
        {
          "internalType": "uint256[]",
          "name": "",
          "type": "uint256[]"
        }
      ],
      "stateMutability": "view",
      "type": "function"
    },
    {
      "inputs": [
        {
          "internalType": "uint256",
          "name": "_id1",
          "type": "uint256"
        }
      ],
      "name": "Relese",
      "outputs": [],
      "stateMutability": "nonpayable",
      "type": "function"
    }
  ],
  "bytecode": "0x608060405234801561001057600080fd5b506128f3806100206000396000f3fe608060405234801561001057600080fd5b50600436106101215760003560e01c8063580f79d3116100ad578063af4b7f1411610071578063af4b7f1414610354578063b99ad1bc1461035e578063d9d92d1e1461038e578063e201d8bd146103be578063f8e157ea146103ee57610121565b8063580f79d31461028a57806360a48f7c146102a857806394cfd453146102d85780639ff3b46d14610308578063ae59e24b1461033857610121565b80633097c98e116100f45780633097c98e146101ae57806335b67731146101de5780634abc93251461020e5780634bbbff061461022a5780634e2b132e1461025a57610121565b806304e4deaa1461012657806316ada547146101565780631b227ed71461017457806323ba900e146101a4575b600080fd5b610140600480360381019061013b9190611d1f565b61040c565b60405161014d9190611d6e565b60405180910390f35b61015e610462565b60405161016b9190611d6e565b60405180910390f35b61018e60048036038101906101899190611de7565b610468565b60405161019b9190611e36565b60405180910390f35b6101ac6106d1565b005b6101c860048036038101906101c39190611e51565b6106f5565b6040516101d59190611e36565b60405180910390f35b6101f860048036038101906101f39190611eb8565b6109ba565b6040516102059190611f7e565b60405180910390f35b61022860048036038101906102239190611eb8565b610a5a565b005b610244600480360381019061023f9190611fa0565b610c52565b6040516102519190611e36565b60405180910390f35b610274600480360381019061026f9190611eb8565b610eae565b604051610281919061209e565b60405180910390f35b610292610f19565b60405161029f9190611d6e565b60405180910390f35b6102c260048036038101906102bd91906120c0565b610f1f565b6040516102cf9190611e36565b60405180910390f35b6102f260048036038101906102ed9190611fa0565b6115ad565b6040516102ff9190611d6e565b60405180910390f35b610322600480360381019061031d9190612248565b6115d2565b60405161032f9190611e36565b60405180910390f35b610352600480360381019061034d9190611eb8565b611742565b005b61035c611759565b005b61037860048036038101906103739190611fa0565b6119c8565b6040516103859190611d6e565b60405180910390f35b6103a860048036038101906103a391906122a4565b6119f9565b6040516103b59190611e36565b60405180910390f35b6103d860048036038101906103d39190611fa0565b611b9a565b6040516103e59190612306565b60405180910390f35b6103f6611bdc565b6040516104039190611d6e565b60405180910390f35b600080821561041b5761384090505b6000620151808561042c9190612350565b90506138408161043c9190612350565b905081818661044b91906123b0565b61045591906123e4565b9050809250505092915050565b60035481565b6000610472611759565b60005b60076000858152602001908152602001600020805490508110156106c9578273ffffffffffffffffffffffffffffffffffffffff1660008086815260200190815260200160002060006007600088815260200190815260200160002084815481106104e3576104e261243a565b5b9060005260206000200154815260200190815260200160002060009054906101000a900473ffffffffffffffffffffffffffffffffffffffff1673ffffffffffffffffffffffffffffffffffffffff1614156106b65760076000858152602001908152602001600020818154811061055e5761055d61243a565b5b90600052602060002001546003541015801561064957506040518060400160405280600981526020017f417661696c61626c65000000000000000000000000000000000000000000000081525080519060200120600260008681526020019081526020016000206040516105d29190612569565b6040518091039020148061064857506040518060400160405280600a81526020017f5072656f72646572656400000000000000000000000000000000000000000000815250805190602001206002600086815260200190815260200160002060405161063e9190612569565b6040518091039020145b5b156106b5576040518060400160405280600481526020017f42757379000000000000000000000000000000000000000000000000000000008152506002600086815260200190815260200160002090805190602001906106aa929190611bfa565b5060019150506106cb565b5b80806106c190612580565b915050610475565b505b92915050565b600060045414156106ea57610e106004819055506106f3565b60006004819055505b565b60006106ff611bdc565b50600085141561070f5760035494505b6000905060008411610756576040517f08c379a000000000000000000000000000000000000000000000000000000000815260040161074d90612615565b60405180910390fd5b84600354111561079b576040517f08c379a000000000000000000000000000000000000000000000000000000000815260040161079290612681565b60405180910390fd5b60006107a886600161040c565b905060006107b786600161040c565b90508082106107fb576040517f08c379a00000000000000000000000000000000000000000000000000000000081526004016107f2906126ed565b60405180910390fd5b60065485111561080d57846006819055505b610818858383610f1f565b156109b0576007600086815260200190815260200160002082908060018154018082558091505060019003906000526020600020016000909190919091505583600080878152602001908152602001600020600084815260200190815260200160002060006101000a81548173ffffffffffffffffffffffffffffffffffffffff021916908373ffffffffffffffffffffffffffffffffffffffff1602179055508060016000878152602001908152602001600020600084815260200190815260200160002081905550600260008681526020019081526020016000206040516109029190612569565b60405180910390206040518060400160405280600981526020017f417661696c61626c6500000000000000000000000000000000000000000000008152508051906020012014156109ab576040518060400160405280600a81526020017f5072656f726465726564000000000000000000000000000000000000000000008152506002600087815260200190815260200160002090805190602001906109a9929190611bfa565b505b600192505b5050949350505050565b600260205280600052604060002060009150905080546109d990612498565b80601f0160208091040260200160405190810160405280929190818152602001828054610a0590612498565b8015610a525780601f10610a2757610100808354040283529160200191610a52565b820191906000526020600020905b815481529060010190602001808311610a3557829003601f168201915b505050505081565b610a62611759565b6040518060400160405280600781526020017f57616974696e67000000000000000000000000000000000000000000000000008152508051906020012060026000838152602001908152602001600020604051610abf9190612569565b604051809103902014610b07576040517f08c379a0000000000000000000000000000000000000000000000000000000008152600401610afe90612759565b60405180910390fd5b6000610b348262015f90600354610b1e91906123b0565b62278d00600354610b2f91906123e4565b610f1f565b610bc557610b77826040518060400160405280600a81526020017f5072656f726465726564000000000000000000000000000000000000000000008152506115d2565b90506001151581151514610bc0576040517f08c379a0000000000000000000000000000000000000000000000000000000008152600401610bb7906127c5565b60405180910390fd5b610c4e565b610c04826040518060400160405280600981526020017f417661696c61626c6500000000000000000000000000000000000000000000008152506115d2565b90506001151581151514610c4d576040517f08c379a0000000000000000000000000000000000000000000000000000000008152600401610c44906127c5565b60405180910390fd5b5b5050565b6000610c5f82600061040c565b915060006001600085815260200190815260200160002060008481526020019081526020016000205411610cc8576040517f08c379a0000000000000000000000000000000000000000000000000000000008152600401610cbf90612831565b60405180910390fd5b6040518060400160405280600481526020017f42757379000000000000000000000000000000000000000000000000000000008152508051906020012060026000858152602001908152602001600020604051610d259190612569565b6040518091039020148015610d3a5750600082115b15610ea3576000610d80846040518060400160405280600781526020017f57616974696e67000000000000000000000000000000000000000000000000008152506115d2565b90508015610ea157600080858152602001908152602001600020600084815260200190815260200160002060006101000a81549073ffffffffffffffffffffffffffffffffffffffff02191690556001600085815260200190815260200160002060008481526020019081526020016000206000905560005b6007600086815260200190815260200160002080549050811015610e9f5783600760008781526020019081526020016000208281548110610e3d57610e3c61243a565b5b90600052602060002001541415610e8c57600760008681526020019081526020016000208181548110610e7357610e7261243a565b5b9060005260206000200160009055600192505050610ea8565b8080610e9790612580565b915050610df9565b505b505b600090505b92915050565b606060076000838152602001908152602001600020805480602002602001604051908101604052809291908181526020018280548015610f0d57602002820191906000526020600020905b815481526020019060010190808311610ef9575b50505050509050919050565b60065481565b60006040518060400160405280600a81526020017f5072656f726465726564000000000000000000000000000000000000000000008152508051906020012060026000868152602001908152602001600020604051610f7e9190612569565b60405180910390201480610ff457506040518060400160405280600481526020017f42757379000000000000000000000000000000000000000000000000000000008152508051906020012060026000868152602001908152602001600020604051610fea9190612569565b6040518091039020145b8061106157506040518060400160405280600781526020017f57616974696e670000000000000000000000000000000000000000000000000081525080519060200120600260008681526020019081526020016000206040516110579190612569565b6040518091039020145b15611535576001905060005b60076000868152602001908152602001600020805490508110156115335760006007600087815260200190815260200160002082815481106110b2576110b161243a565b5b90600052602060002001541180156111695750600073ffffffffffffffffffffffffffffffffffffffff1660008087815260200190815260200160002060006007600089815260200190815260200160002084815481106111165761111561243a565b5b9060005260206000200154815260200190815260200160002060009054906101000a900473ffffffffffffffffffffffffffffffffffffffff1673ffffffffffffffffffffffffffffffffffffffff1614155b1561152057836007600087815260200190815260200160002082815481106111945761119361243a565b5b90600052602060002001541115801561120057506001600086815260200190815260200160002060006007600088815260200190815260200160002083815481106111e2576111e161243a565b5b90600052602060002001548152602001908152602001600020548411155b8061123957508360076000878152602001908152602001600020828154811061122c5761122b61243a565b5b9060005260206000200154145b8061129657508360016000878152602001908152602001600020600060076000898152602001908152602001600020848154811061127a5761127961243a565b5b9060005260206000200154815260200190815260200160002054145b806112cf5750826007600087815260200190815260200160002082815481106112c2576112c161243a565b5b9060005260206000200154145b8061132c5750826001600087815260200190815260200160002060006007600089815260200190815260200160002084815481106113105761130f61243a565b5b9060005260206000200154815260200190815260200160002054145b806113c55750826007600087815260200190815260200160002082815481106113585761135761243a565b5b9060005260206000200154111580156113c457506001600086815260200190815260200160002060006007600088815260200190815260200160002083815481106113a6576113a561243a565b5b90600052602060002001548152602001908152602001600020548311155b5b8061145e5750826007600087815260200190815260200160002082815481106113f1576113f061243a565b5b90600052602060002001541115801561145d575060016000868152602001908152602001600020600060076000888152602001908152602001600020838154811061143f5761143e61243a565b5b90600052602060002001548152602001908152602001600020548311155b5b806114f757506007600086815260200190815260200160002081815481106114895761148861243a565b5b906000526020600020015484111580156114f65750826001600087815260200190815260200160002060006007600089815260200190815260200160002084815481106114d9576114d861243a565b5b906000526020600020015481526020019081526020016000205411155b5b1561151f576007600086815260200190815260200160002080549050905060009150506115a6565b5b808061152b90612580565b91505061106d565b505b6040518060400160405280600981526020017f417661696c61626c65000000000000000000000000000000000000000000000081525080519060200120600260008681526020019081526020016000206040516115929190612569565b604051809103902014156115a557600190505b5b9392505050565b6001602052816000526040600020602052806000526040600020600091509150505481565b60006040518060400160405280600481526020017f4275737900000000000000000000000000000000000000000000000000000000815250805190602001208280519060200120148061166757506040518060400160405280600981526020017f417661696c61626c650000000000000000000000000000000000000000000000815250805190602001208280519060200120145b806116b457506040518060400160405280600781526020017f57616974696e6700000000000000000000000000000000000000000000000000815250805190602001208280519060200120145b8061170157506040518060400160405280600a81526020017f5072656f72646572656400000000000000000000000000000000000000000000815250805190602001208280519060200120145b15611737578160026000858152602001908152602001600020908051906020019061172d929190611bfa565b506001905061173c565b600090505b92915050565b8060035461175091906123e4565b60038190555050565b611761611bdc565b5060005b60065481116119c5576040518060400160405280600a81526020017f5072656f7264657265640000000000000000000000000000000000000000000081525080519060200120600260008381526020019081526020016000206040516117cb9190612569565b604051809103902014156119b25760005b60076000838152602001908152602001600020805490508110156119b05760076000838152602001908152602001600020818154811061181f5761181e61243a565b5b90600052602060002001546201518060035461183b91906123b0565b1061199d5760008083815260200190815260200160002060006007600085815260200190815260200160002083815481106118795761187861243a565b5b9060005260206000200154815260200190815260200160002060006101000a81549073ffffffffffffffffffffffffffffffffffffffff02191690556001600083815260200190815260200160002060006007600085815260200190815260200160002083815481106118ef576118ee61243a565b5b90600052602060002001548152602001908152602001600020600090556040518060400160405280600781526020017f57616974696e6700000000000000000000000000000000000000000000000000815250600260008481526020019081526020016000209080519060200190611968929190611bfa565b5060076000838152602001908152602001600020818154811061198e5761198d61243a565b5b90600052602060002001600090555b80806119a890612580565b9150506117dc565b505b80806119bd90612580565b915050611765565b50565b600760205281600052604060002081815481106119e457600080fd5b90600052602060002001600091509150505481565b6000611a03611759565b600354821115611b8e576000611a4e856040518060400160405280600481526020017f42757379000000000000000000000000000000000000000000000000000000008152506115d2565b90506001151581151514611a97576040517f08c379a0000000000000000000000000000000000000000000000000000000008152600401611a8e9061289d565b60405180910390fd5b6000611aa1611bdc565b50611aaf600354600061040c565b9050611abc84600161040c565b93506007600087815260200190815260200160002081908060018154018082558091505060019003906000526020600020016000909190919091505584600080888152602001908152602001600020600083815260200190815260200160002060006101000a81548173ffffffffffffffffffffffffffffffffffffffff021916908373ffffffffffffffffffffffffffffffffffffffff1602179055508360016000888152602001908152602001600020600083815260200190815260200160002081905550600192505050611b93565b600090505b9392505050565b60006020528160005260406000206020528060005260406000206000915091509054906101000a900473ffffffffffffffffffffffffffffffffffffffff1681565b600060045442611bec91906123e4565b600381905550600354905090565b828054611c0690612498565b90600052602060002090601f016020900481019282611c285760008555611c6f565b82601f10611c4157805160ff1916838001178555611c6f565b82800160010185558215611c6f579182015b82811115611c6e578251825591602001919060010190611c53565b5b509050611c7c9190611c80565b5090565b5b80821115611c99576000816000905550600101611c81565b5090565b6000604051905090565b600080fd5b600080fd5b6000819050919050565b611cc481611cb1565b8114611ccf57600080fd5b50565b600081359050611ce181611cbb565b92915050565b60008115159050919050565b611cfc81611ce7565b8114611d0757600080fd5b50565b600081359050611d1981611cf3565b92915050565b60008060408385031215611d3657611d35611ca7565b5b6000611d4485828601611cd2565b9250506020611d5585828601611d0a565b9150509250929050565b611d6881611cb1565b82525050565b6000602082019050611d836000830184611d5f565b92915050565b600073ffffffffffffffffffffffffffffffffffffffff82169050919050565b6000611db482611d89565b9050919050565b611dc481611da9565b8114611dcf57600080fd5b50565b600081359050611de181611dbb565b92915050565b60008060408385031215611dfe57611dfd611ca7565b5b6000611e0c85828601611cd2565b9250506020611e1d85828601611dd2565b9150509250929050565b611e3081611ce7565b82525050565b6000602082019050611e4b6000830184611e27565b92915050565b60008060008060808587031215611e6b57611e6a611ca7565b5b6000611e7987828801611cd2565b9450506020611e8a87828801611cd2565b9350506040611e9b87828801611cd2565b9250506060611eac87828801611dd2565b91505092959194509250565b600060208284031215611ece57611ecd611ca7565b5b6000611edc84828501611cd2565b91505092915050565b600081519050919050565b600082825260208201905092915050565b60005b83811015611f1f578082015181840152602081019050611f04565b83811115611f2e576000848401525b50505050565b6000601f19601f8301169050919050565b6000611f5082611ee5565b611f5a8185611ef0565b9350611f6a818560208601611f01565b611f7381611f34565b840191505092915050565b60006020820190508181036000830152611f988184611f45565b905092915050565b60008060408385031215611fb757611fb6611ca7565b5b6000611fc585828601611cd2565b9250506020611fd685828601611cd2565b9150509250929050565b600081519050919050565b600082825260208201905092915050565b6000819050602082019050919050565b61201581611cb1565b82525050565b6000612027838361200c565b60208301905092915050565b6000602082019050919050565b600061204b82611fe0565b6120558185611feb565b935061206083611ffc565b8060005b83811015612091578151612078888261201b565b975061208383612033565b925050600181019050612064565b5085935050505092915050565b600060208201905081810360008301526120b88184612040565b905092915050565b6000806000606084860312156120d9576120d8611ca7565b5b60006120e786828701611cd2565b93505060206120f886828701611cd2565b925050604061210986828701611cd2565b9150509250925092565b600080fd5b600080fd5b7f4e487b7100000000000000000000000000000000000000000000000000000000600052604160045260246000fd5b61215582611f34565b810181811067ffffffffffffffff821117156121745761217361211d565b5b80604052505050565b6000612187611c9d565b9050612193828261214c565b919050565b600067ffffffffffffffff8211156121b3576121b261211d565b5b6121bc82611f34565b9050602081019050919050565b82818337600083830152505050565b60006121eb6121e684612198565b61217d565b90508281526020810184848401111561220757612206612118565b5b6122128482856121c9565b509392505050565b600082601f83011261222f5761222e612113565b5b813561223f8482602086016121d8565b91505092915050565b6000806040838503121561225f5761225e611ca7565b5b600061226d85828601611cd2565b925050602083013567ffffffffffffffff81111561228e5761228d611cac565b5b61229a8582860161221a565b9150509250929050565b6000806000606084860312156122bd576122bc611ca7565b5b60006122cb86828701611cd2565b93505060206122dc86828701611dd2565b92505060406122ed86828701611cd2565b9150509250925092565b61230081611da9565b82525050565b600060208201905061231b60008301846122f7565b92915050565b7f4e487b7100000000000000000000000000000000000000000000000000000000600052601260045260246000fd5b600061235b82611cb1565b915061236683611cb1565b92508261237657612375612321565b5b828206905092915050565b7f4e487b7100000000000000000000000000000000000000000000000000000000600052601160045260246000fd5b60006123bb82611cb1565b91506123c683611cb1565b9250828210156123d9576123d8612381565b5b828203905092915050565b60006123ef82611cb1565b91506123fa83611cb1565b9250827fffffffffffffffffffffffffffffffffffffffffffffffffffffffffffffffff0382111561242f5761242e612381565b5b828201905092915050565b7f4e487b7100000000000000000000000000000000000000000000000000000000600052603260045260246000fd5b7f4e487b7100000000000000000000000000000000000000000000000000000000600052602260045260246000fd5b600060028204905060018216806124b057607f821691505b602082108114156124c4576124c3612469565b5b50919050565b600081905092915050565b60008190508160005260206000209050919050565b600081546124f781612498565b61250181866124ca565b9450600182166000811461251c576001811461252d57612560565b60ff19831686528186019350612560565b612536856124d5565b60005b8381101561255857815481890152600182019150602081019050612539565b838801955050505b50505092915050565b600061257582846124ea565b915081905092915050565b600061258b82611cb1565b91507fffffffffffffffffffffffffffffffffffffffffffffffffffffffffffffffff8214156125be576125bd612381565b5b600182019050919050565b7f64617461456e6420697320300000000000000000000000000000000000000000600082015250565b60006125ff600c83611ef0565b915061260a826125c9565b602082019050919050565b6000602082019050818103600083015261262e816125f2565b9050919050565b7f4e6f7420706f737369626c6520696e2074686520706173740000000000000000600082015250565b600061266b601883611ef0565b915061267682612635565b602082019050919050565b6000602082019050818103600083015261269a8161265e565b9050919050565b7f3c00000000000000000000000000000000000000000000000000000000000000600082015250565b60006126d7600183611ef0565b91506126e2826126a1565b602082019050919050565b60006020820190508181036000830152612706816126ca565b9050919050565b7f4d6120636f736100000000000000000000000000000000000000000000000000600082015250565b6000612743600783611ef0565b915061274e8261270d565b602082019050919050565b6000602082019050818103600083015261277281612736565b9050919050565b7f4e6f6e20646973706f6e6962696c653300000000000000000000000000000000600082015250565b60006127af601083611ef0565b91506127ba82612779565b602082019050919050565b600060208201905081810360008301526127de816127a2565b9050919050565b7f4572726f72650000000000000000000000000000000000000000000000000000600082015250565b600061281b600683611ef0565b9150612826826127e5565b602082019050919050565b6000602082019050818103600083015261284a8161280e565b9050919050565b7f4e6f6e20646973706f6e6962696c653200000000000000000000000000000000600082015250565b6000612887601083611ef0565b915061289282612851565b602082019050919050565b600060208201905081810360008301526128b68161287a565b905091905056fea2646970667358221220aef25699e1b523eb93dcdc11fb85b7dfaa92dfb07d59e835f44736f35be2a0b364736f6c634300080b0033",
  "immutableReferences": {},
  "source": "\npragma solidity ^0.8.0;\n\n\n\ncontract Calendar   {\n\t\n\t  mapping(uint256=>mapping(uint256=>address)) public Preorderstart;\n\t  mapping(uint256=>mapping(uint256=>uint256)) public Preorderend;\n    mapping(uint256 => string) public Available;\n    uint256 public time;\n    uint256 fusoorario;\n    uint256[] Status;\n    uint256 public Orders;\n    mapping(uint256=>uint256[]) public PreorderOpen;\n\t\t    \n\tconstructor() public { \n      \n\n\n\n\t}\n  \tfunction Time() public returns(uint256) {\n        time = block.timestamp+ fusoorario;\n        return time;\n      }\n\t/*Funzione per testare le scadenze in update*/\n   \n      function TimeAdd(uint256 i) public {\n        \n        time = time + i;\n      }\n\tfunction Pre_Order(uint256 dataStart, uint256 dataEnd, uint256 _id,address _usr)  external returns(bool suc) {\n    Time();\n\n    if(dataStart==0)\n    dataStart= time;\n    suc = false;\n   \trequire(dataEnd>0,\"dataEnd is 0\");\n    require(time <= dataStart,\"Not possible in the past\");\n    uint256 date1 = Converter(dataStart,true);\n    uint256 date2 = Converter(dataEnd,true);\n\n\n   \n\t\trequire(date1<date2,\"<\");//la prenotazione vale almeno se dura 4 ore\n      if(_id>Orders)\n        Orders= _id;\n\n        if(CheckAvialable(_id,date1,date2)){\n    PreorderOpen[_id].push(date1);\n\t\tPreorderstart[_id][date1]= _usr;\n\t\tPreorderend[_id][date1]=date2;\n\t\tif(keccak256(bytes(\"Available\"))==keccak256(bytes(Available[_id])))\t\n\t\tAvailable[_id]=\"Preordered\";\n\t\t\t\tsuc = true;\n\t\t}\n\t\treturn suc;\n\t\t}\n\n\tfunction CheckAvialable(uint256 idA,uint256 _dataStart, uint256 _dataEnd) public returns(bool ret) {\n\t\t\n\t\t\t\t//in caso in cui sia occupato controllare se le date inserite sia valide per il preorder\n\t\tif(keccak256(bytes(Available[idA])) == keccak256(bytes(\"Preordered\"))||keccak256(bytes(Available[idA])) == keccak256(bytes(\"Busy\")) || keccak256(bytes(Available[idA])) == keccak256(bytes(\"Waiting\"))){\n\t\t\tret = true;\n\n\t\t\t\tfor(uint256 i=0; i < PreorderOpen[idA].length; i++){\n\t\t\t\tif( PreorderOpen[idA][i]>0 && Preorderstart[idA][PreorderOpen [idA][i]] != address(0x0)){\n\n\n\t\t\t\t\tif((PreorderOpen[idA][i]<= _dataStart && _dataStart<=Preorderend[idA][PreorderOpen[idA][i]])\n\t\t\t\t\t\t|| (PreorderOpen[idA][i] == _dataStart) || (Preorderend[idA][PreorderOpen[idA][i]] == _dataStart)\n\t\t\t\t\t\t|| (PreorderOpen[idA][i] == _dataEnd )  || (Preorderend[idA][PreorderOpen[idA][i]] == _dataEnd)\n\t\t\t\t\t\t|| (PreorderOpen[idA][i] <= _dataEnd && _dataEnd<=Preorderend[idA][PreorderOpen[idA][i]])\n\t\t\t\t\t\t|| (PreorderOpen[idA][i]<= _dataEnd && _dataEnd<=Preorderend[idA][PreorderOpen[idA][i]])\n\t\t\t\t\t\t|| (_dataStart<= PreorderOpen[idA][i] && Preorderend[idA][PreorderOpen[idA][i]]<=_dataEnd)\n\t\t\t\t\t\t){\n\t\t\t\t\t\ti = PreorderOpen[idA].length;\n\t\t\t\t\t\n\t\t\t\t\t\tret = false;\n\t\t\t\t\t\treturn ret;\n\n\t\t\t\t\t\t\n\t\t\t\t\t}\n\n\t\t\t\t}\n\t\t\t}\n\n\t\t/*\n\t\t\tfor(uint256 i=_dataStart;i <= _dataEnd;i= i + 14400){\n\t\t\t\tif(Preorderstart[idA][i]!=address(0x0) || Preorderend[idA][i]==i){\n\t\t\t\t\tret =false;\n\t\t\t\t\ttest=\"Sono Qui\";\n\n\t\t\t\t}\n\t\t\t}*/\n\t\t}\n\t\tif(keccak256(bytes(Available[idA])) == keccak256(bytes(\"Available\"))){\n\t\tret = true;\n\t\t}\n\t\treturn ret;\n\n\t\t//creare un evento per data suggerita nel caso l'item non sia disponibile\n\n\t}\t\n\tfunction Update()public {\n\t\t//controllo che i preOrdini aperti siano scaduti\n\t\t//se si li cancello e li metto in waiting in attesa che\n\t\t//la cauzione venga restituita\n\t\tTime();\n\t\tfor(uint256 i; i<= Orders; i++){\n\t\t    if(keccak256(bytes(Available[i])) == keccak256(bytes(\"Preordered\"))){\n\t\t    \tfor(uint256 j;j < PreorderOpen[i].length; j++){\n\t\t\t\t  \n\t\t\t\tif(time - 86400 >= PreorderOpen[i][j]){//caso in cui sia passato un giorno senza aver \n\t\t\t\t\t\t\t\t\t\t\t    //ritirato item adr ad annullare la prenotazione\n\n\t\t\t\tdelete Preorderstart[i][PreorderOpen[i][j]];\n\t\t\t\tdelete Preorderend[i][PreorderOpen[i][j]];\n\t\t\t\tAvailable[i]=\"Waiting\";\n\t\t\t\tdelete PreorderOpen[i][j];\n\t\t\t\t}\n                     \n\n\t\t\t\t}\n\t\t\t}}\n\t\t    }\n\n\n\tfunction setAvailable(uint256 idA,string memory Status)public returns(bool){\n\tif(keccak256(bytes(Status)) == keccak256(bytes(\"Busy\"))||keccak256(bytes(Status)) == keccak256(bytes(\"Available\"))||keccak256(bytes(Status)) == keccak256(bytes(\"Waiting\"))||keccak256(bytes(Status)) == keccak256(bytes(\"Preordered\")) ){\n\t\t\tAvailable[idA]=Status;\n\t\t\treturn true;\n\t\t\n\t\t}\n\t\treturn false;\n\n\t\t\t}\t\t\t\t\nfunction setFusoOraio()public{\n\tif (fusoorario==0){\n\t\tfusoorario= 3600;\n\t}\n\telse{\n\t\tfusoorario=0;\n\t}\n}\nfunction Back(uint256 _id1,uint256 _dateS) external returns(bool){\n\n\t_dateS = Converter(_dateS,false);\n\n    require(Preorderend[_id1][_dateS]>0,\"Errore\");\n\t if(keccak256(bytes(Available[_id1])) == keccak256(bytes(\"Busy\"))&& _dateS>0){\n\n\n\t  bool k;\n          k = setAvailable(_id1,\"Waiting\"); \n         if(k){\n\n\n         delete\tPreorderstart[_id1][_dateS];\n\t\t\t\t delete Preorderend[_id1][_dateS];\n\t\t\t\t for(uint256 i; i< PreorderOpen[_id1].length;i++){\n\t\t\t\t \tif(PreorderOpen[_id1][i]==_dateS){\n\t\t\t\t \t\tdelete PreorderOpen[_id1][i];\n\t\t\t\t \t\treturn true;\n\n\t\t\t\t \t}\n\n         } }\n       }\n       return false;\n}\nfunction Converter(uint256 date, bool next)public view virtual returns(uint256){\n     uint256 lest;\n     if(next)\n     lest = 14400;\n    uint256 date1 = date % 86400; //tempo mod giorni\n    date1= date1 % 14400;  //mod 4 ore\n\t\tdate1 = date - date1 + lest; //avro il giorno attuale + a mod di 4 ore\n                               //es 6 nov - 0:00 - 4:00 - 8:00 - 12:00 - 16:00 ecc... \n                               //se sono le 17:11 la prenotazione sar allo slot successivo\n                               //alle 20\n                               return date1;\n}\nfunction AcquirePre(uint256 idP,address usr) public   returns(bool ret){\n\tret = false;\n\n  Update();\n\n  \t\tfor(uint256 i;i< PreorderOpen[idP].length; i++ ){\n  \t\t\tif(Preorderstart[idP][PreorderOpen[idP][i]]==usr ){//fifo\n  \t\t\t\tif( time>=PreorderOpen[idP][i] && ((keccak256(bytes(Available[idP])) == keccak256(bytes(\"Available\")))|| keccak256(bytes(Available[idP])) == keccak256(bytes(\"Preordered\")))){\n  \t\t\t\tAvailable[idP]=\"Busy\";\t\t\t\t\t\t\t\n  \t\t\t\treturn true;}\n  \t\t}\n\t\t}\t\n//PreorderOpen verificare la data che ci sia come il proprietario del pre-ordine sia \n//quello giusto\n\n\treturn ret;\n}\nfunction Acquire(uint256 idP,address usr,uint256 _dataF) public   returns(bool ret){\n \n\nUpdate();\n \n if(_dataF>time){\n         bool k;\n      k =  setAvailable(idP,\"Busy\"); \n      require(k == true, \"Non disponibile2\");\n      uint256 dateSt;\n      Time();\n\t\t\tdateSt = Converter(time,false);\n   \t\t_dataF = Converter(_dataF,true);\n   \t\tPreorderOpen[idP].push(dateSt);\n   \t\tPreorderstart[idP][dateSt]= usr;\n\t\t  Preorderend[idP][dateSt]=_dataF;\n      return true;\n}\n\nreturn false;}\n\n\t\n\tfunction preOrderOpenGet(uint256 i) external  view virtual returns(uint256[] memory){\n     \n  return  PreorderOpen[i];\n\t}\n  function Relese(uint256 _id1) external{\n  \tUpdate();\n\n\t require(keccak256(bytes(Available[_id1])) == keccak256(bytes(\"Waiting\")),\"Ma cosa\");\n\t  bool k;\n\t  if(!(CheckAvialable(_id1,time-90000,time+2592000))){//dataS -1 un giorno, dataE + 30gg \n           k = setAvailable(_id1,\"Preordered\");\n          require(k == true, \"Non disponibile3\");\n          }else{\n          k = setAvailable(_id1,\"Available\"); \n          require(k == true, \"Non disponibile3\");}\n}\n}\n",
  "sourcePath": "C:\\Users\\Luca\\Desktop\\tesi\\My-tesi\\src\\contracts\\LitemCalendar.sol",
  "compiler": {
    "name": "solc",
    "version": "0.8.11+commit.d7f03943.Emscripten.clang"
  },
  "schemaVersion": "3.4.1",
  "updatedAt": "2021-12-30T21:11:55.266Z",
  "devdoc": {
    "kind": "dev",
    "methods": {},
    "version": 1
  },
  "userdoc": {
    "kind": "user",
    "methods": {},
    "version": 1
  }
}