{
  "contractName": "ItemTemplate",
  "abi": [
    {
      "inputs": [
        {
          "internalType": "string",
          "name": "Name",
          "type": "string"
        },
        {
          "internalType": "string",
          "name": "description",
          "type": "string"
        },
        {
          "internalType": "string",
          "name": "ImageHash",
          "type": "string"
        },
        {
          "internalType": "address",
          "name": "Loanitem",
          "type": "address"
        },
        {
          "internalType": "address",
          "name": "owner",
          "type": "address"
        },
        {
          "internalType": "uint256",
          "name": "id",
          "type": "uint256"
        },
        {
          "internalType": "string",
          "name": "URL",
          "type": "string"
        }
      ],
      "stateMutability": "nonpayable",
      "type": "constructor"
    },
    {
      "anonymous": false,
      "inputs": [
        {
          "indexed": true,
          "internalType": "address",
          "name": "owner",
          "type": "address"
        },
        {
          "indexed": true,
          "internalType": "address",
          "name": "approved",
          "type": "address"
        },
        {
          "indexed": true,
          "internalType": "uint256",
          "name": "tokenId",
          "type": "uint256"
        }
      ],
      "name": "Approval",
      "type": "event"
    },
    {
      "anonymous": false,
      "inputs": [
        {
          "indexed": true,
          "internalType": "address",
          "name": "owner",
          "type": "address"
        },
        {
          "indexed": true,
          "internalType": "address",
          "name": "operator",
          "type": "address"
        },
        {
          "indexed": false,
          "internalType": "bool",
          "name": "approved",
          "type": "bool"
        }
      ],
      "name": "ApprovalForAll",
      "type": "event"
    },
    {
      "anonymous": false,
      "inputs": [
        {
          "indexed": true,
          "internalType": "address",
          "name": "from",
          "type": "address"
        },
        {
          "indexed": true,
          "internalType": "address",
          "name": "to",
          "type": "address"
        },
        {
          "indexed": true,
          "internalType": "uint256",
          "name": "tokenId",
          "type": "uint256"
        }
      ],
      "name": "Transfer",
      "type": "event"
    },
    {
      "inputs": [],
      "name": "Url",
      "outputs": [
        {
          "internalType": "string",
          "name": "",
          "type": "string"
        }
      ],
      "stateMutability": "view",
      "type": "function"
    },
    {
      "inputs": [],
      "name": "_description",
      "outputs": [
        {
          "internalType": "string",
          "name": "",
          "type": "string"
        }
      ],
      "stateMutability": "view",
      "type": "function"
    },
    {
      "inputs": [],
      "name": "_id",
      "outputs": [
        {
          "internalType": "uint256",
          "name": "",
          "type": "uint256"
        }
      ],
      "stateMutability": "view",
      "type": "function"
    },
    {
      "inputs": [],
      "name": "_imagehash",
      "outputs": [
        {
          "internalType": "string",
          "name": "",
          "type": "string"
        }
      ],
      "stateMutability": "view",
      "type": "function"
    },
    {
      "inputs": [],
      "name": "_name",
      "outputs": [
        {
          "internalType": "string",
          "name": "",
          "type": "string"
        }
      ],
      "stateMutability": "view",
      "type": "function"
    },
    {
      "inputs": [],
      "name": "_owner",
      "outputs": [
        {
          "internalType": "address",
          "name": "",
          "type": "address"
        }
      ],
      "stateMutability": "view",
      "type": "function"
    },
    {
      "inputs": [
        {
          "internalType": "address",
          "name": "to",
          "type": "address"
        },
        {
          "internalType": "uint256",
          "name": "tokenId",
          "type": "uint256"
        }
      ],
      "name": "approve",
      "outputs": [],
      "stateMutability": "nonpayable",
      "type": "function"
    },
    {
      "inputs": [
        {
          "internalType": "address",
          "name": "owner",
          "type": "address"
        }
      ],
      "name": "balanceOf",
      "outputs": [
        {
          "internalType": "uint256",
          "name": "",
          "type": "uint256"
        }
      ],
      "stateMutability": "view",
      "type": "function"
    },
    {
      "inputs": [
        {
          "internalType": "uint256",
          "name": "tokenId",
          "type": "uint256"
        }
      ],
      "name": "getApproved",
      "outputs": [
        {
          "internalType": "address",
          "name": "",
          "type": "address"
        }
      ],
      "stateMutability": "view",
      "type": "function"
    },
    {
      "inputs": [
        {
          "internalType": "address",
          "name": "owner",
          "type": "address"
        },
        {
          "internalType": "address",
          "name": "operator",
          "type": "address"
        }
      ],
      "name": "isApprovedForAll",
      "outputs": [
        {
          "internalType": "bool",
          "name": "",
          "type": "bool"
        }
      ],
      "stateMutability": "view",
      "type": "function"
    },
    {
      "inputs": [],
      "name": "name",
      "outputs": [
        {
          "internalType": "string",
          "name": "",
          "type": "string"
        }
      ],
      "stateMutability": "view",
      "type": "function"
    },
    {
      "inputs": [
        {
          "internalType": "uint256",
          "name": "tokenId",
          "type": "uint256"
        }
      ],
      "name": "ownerOf",
      "outputs": [
        {
          "internalType": "address",
          "name": "",
          "type": "address"
        }
      ],
      "stateMutability": "view",
      "type": "function"
    },
    {
      "inputs": [
        {
          "internalType": "address",
          "name": "from",
          "type": "address"
        },
        {
          "internalType": "address",
          "name": "to",
          "type": "address"
        },
        {
          "internalType": "uint256",
          "name": "tokenId",
          "type": "uint256"
        }
      ],
      "name": "safeTransferFrom",
      "outputs": [],
      "stateMutability": "nonpayable",
      "type": "function"
    },
    {
      "inputs": [
        {
          "internalType": "address",
          "name": "from",
          "type": "address"
        },
        {
          "internalType": "address",
          "name": "to",
          "type": "address"
        },
        {
          "internalType": "uint256",
          "name": "tokenId",
          "type": "uint256"
        },
        {
          "internalType": "bytes",
          "name": "_data",
          "type": "bytes"
        }
      ],
      "name": "safeTransferFrom",
      "outputs": [],
      "stateMutability": "nonpayable",
      "type": "function"
    },
    {
      "inputs": [
        {
          "internalType": "address",
          "name": "operator",
          "type": "address"
        },
        {
          "internalType": "bool",
          "name": "approved",
          "type": "bool"
        }
      ],
      "name": "setApprovalForAll",
      "outputs": [],
      "stateMutability": "nonpayable",
      "type": "function"
    },
    {
      "inputs": [
        {
          "internalType": "bytes4",
          "name": "interfaceId",
          "type": "bytes4"
        }
      ],
      "name": "supportsInterface",
      "outputs": [
        {
          "internalType": "bool",
          "name": "",
          "type": "bool"
        }
      ],
      "stateMutability": "view",
      "type": "function"
    },
    {
      "inputs": [],
      "name": "symbol",
      "outputs": [
        {
          "internalType": "string",
          "name": "",
          "type": "string"
        }
      ],
      "stateMutability": "view",
      "type": "function"
    },
    {
      "inputs": [
        {
          "internalType": "address",
          "name": "from",
          "type": "address"
        },
        {
          "internalType": "address",
          "name": "to",
          "type": "address"
        },
        {
          "internalType": "uint256",
          "name": "tokenId",
          "type": "uint256"
        }
      ],
      "name": "transferFrom",
      "outputs": [],
      "stateMutability": "nonpayable",
      "type": "function"
    },
    {
      "inputs": [
        {
          "internalType": "uint256",
          "name": "tokenId",
          "type": "uint256"
        }
      ],
      "name": "tokenURI",
      "outputs": [
        {
          "internalType": "string",
          "name": "",
          "type": "string"
        }
      ],
      "stateMutability": "view",
      "type": "function"
    },
    {
      "inputs": [
        {
          "internalType": "address",
          "name": "buyer",
          "type": "address"
        }
      ],
      "name": "transfert",
      "outputs": [
        {
          "internalType": "bool",
          "name": "res",
          "type": "bool"
        }
      ],
      "stateMutability": "nonpayable",
      "type": "function"
    },
    {
      "inputs": [],
      "name": "UrlT",
      "outputs": [
        {
          "internalType": "string",
          "name": "",
          "type": "string"
        }
      ],
      "stateMutability": "view",
      "type": "function"
    }
  ],
  "bytecode": "0x60806040523480156200001157600080fd5b506040516200392d3803806200392d8339818101604052810190620000379190620008c1565b8685816000908051906020019062000051929190620005d4565b5080600190805190602001906200006a929190620005d4565b505050866007908051906020019062000085929190620005d4565b5085600890805190602001906200009e929190620005d4565b508460099080519060200190620000b7929190620005d4565b5082600660006101000a81548173ffffffffffffffffffffffffffffffffffffffff021916908373ffffffffffffffffffffffffffffffffffffffff16021790555081600b8190555080600a908051906020019062000118929190620005d4565b506200014f600660009054906101000a900473ffffffffffffffffffffffffffffffffffffffff16600b546200018760201b60201c565b62000162600b546200036d60201b60201c565b600a908051906020019062000179929190620005d4565b505050505050505062000f31565b600073ffffffffffffffffffffffffffffffffffffffff168273ffffffffffffffffffffffffffffffffffffffff161415620001fa576040517f08c379a0000000000000000000000000000000000000000000000000000000008152600401620001f19062000a51565b60405180910390fd5b6200020b81620003d560201b60201c565b156200024e576040517f08c379a0000000000000000000000000000000000000000000000000000000008152600401620002459062000ac3565b60405180910390fd5b62000262600083836200044160201b60201c565b6001600360008473ffffffffffffffffffffffffffffffffffffffff1673ffffffffffffffffffffffffffffffffffffffff1681526020019081526020016000206000828254620002b4919062000b14565b92505081905550816002600083815260200190815260200160002060006101000a81548173ffffffffffffffffffffffffffffffffffffffff021916908373ffffffffffffffffffffffffffffffffffffffff160217905550808273ffffffffffffffffffffffffffffffffffffffff16600073ffffffffffffffffffffffffffffffffffffffff167fddf252ad1be2c89b69c2b068fc378daa952ba7f163c4a11628f55a4df523b3ef60405160405180910390a45050565b60606000620003a9600760405160200162000389919062000d71565b6040516020818303038152906040526200044660201b62000ffc1760201c565b905080604051602001620003be919062000e43565b604051602081830303815290604052915050919050565b60008073ffffffffffffffffffffffffffffffffffffffff166002600084815260200190815260200160002060009054906101000a900473ffffffffffffffffffffffffffffffffffffffff1673ffffffffffffffffffffffffffffffffffffffff1614159050919050565b505050565b60606000825114156200046b57604051806020016040528060008152509050620005cf565b6000604051806060016040528060408152602001620038ed60409139905060006003600285516200049d919062000b14565b620004a9919062000e98565b6004620004b7919062000ed0565b90506000602082620004ca919062000b14565b67ffffffffffffffff811115620004e657620004e5620006b3565b5b6040519080825280601f01601f191660200182016040528015620005195781602001600182028036833780820191505090505b509050818152600183018586518101602084015b818310156200058a576003830192508251603f8160121c168501518253600182019150603f81600c1c168501518253600182019150603f8160061c168501518253600182019150603f81168501518253600182019150506200052d565b600389510660018114620005a75760028114620005b857620005c3565b613d3d60f01b6002830352620005c3565b603d60f81b60018303525b50505050508093505050505b919050565b828054620005e29062000bfb565b90600052602060002090601f01602090048101928262000606576000855562000652565b82601f106200062157805160ff191683800117855562000652565b8280016001018555821562000652579182015b828111156200065157825182559160200191906001019062000634565b5b50905062000661919062000665565b5090565b5b808211156200068057600081600090555060010162000666565b5090565b6000604051905090565b600080fd5b600080fd5b600080fd5b600080fd5b6000601f19601f8301169050919050565b7f4e487b7100000000000000000000000000000000000000000000000000000000600052604160045260246000fd5b620006ed82620006a2565b810181811067ffffffffffffffff821117156200070f576200070e620006b3565b5b80604052505050565b60006200072462000684565b9050620007328282620006e2565b919050565b600067ffffffffffffffff821115620007555762000754620006b3565b5b6200076082620006a2565b9050602081019050919050565b60005b838110156200078d57808201518184015260208101905062000770565b838111156200079d576000848401525b50505050565b6000620007ba620007b48462000737565b62000718565b905082815260208101848484011115620007d957620007d86200069d565b5b620007e68482856200076d565b509392505050565b600082601f83011262000806576200080562000698565b5b815162000818848260208601620007a3565b91505092915050565b600073ffffffffffffffffffffffffffffffffffffffff82169050919050565b60006200084e8262000821565b9050919050565b620008608162000841565b81146200086c57600080fd5b50565b600081519050620008808162000855565b92915050565b6000819050919050565b6200089b8162000886565b8114620008a757600080fd5b50565b600081519050620008bb8162000890565b92915050565b600080600080600080600060e0888a031215620008e357620008e26200068e565b5b600088015167ffffffffffffffff81111562000904576200090362000693565b5b620009128a828b01620007ee565b975050602088015167ffffffffffffffff81111562000936576200093562000693565b5b620009448a828b01620007ee565b965050604088015167ffffffffffffffff81111562000968576200096762000693565b5b620009768a828b01620007ee565b9550506060620009898a828b016200086f565b94505060806200099c8a828b016200086f565b93505060a0620009af8a828b01620008aa565b92505060c088015167ffffffffffffffff811115620009d357620009d262000693565b5b620009e18a828b01620007ee565b91505092959891949750929550565b600082825260208201905092915050565b7f4552433732313a206d696e7420746f20746865207a65726f2061646472657373600082015250565b600062000a39602083620009f0565b915062000a468262000a01565b602082019050919050565b6000602082019050818103600083015262000a6c8162000a2a565b9050919050565b7f4552433732313a20746f6b656e20616c7265616479206d696e74656400000000600082015250565b600062000aab601c83620009f0565b915062000ab88262000a73565b602082019050919050565b6000602082019050818103600083015262000ade8162000a9c565b9050919050565b7f4e487b7100000000000000000000000000000000000000000000000000000000600052601160045260246000fd5b600062000b218262000886565b915062000b2e8362000886565b9250827fffffffffffffffffffffffffffffffffffffffffffffffffffffffffffffffff0382111562000b665762000b6562000ae5565b5b828201905092915050565b600081905092915050565b7f7b22000000000000000000000000000000000000000000000000000000000000600082015250565b600062000bb460028362000b71565b915062000bc18262000b7c565b600282019050919050565b7f4e487b7100000000000000000000000000000000000000000000000000000000600052602260045260246000fd5b6000600282049050600182168062000c1457607f821691505b6020821081141562000c2b5762000c2a62000bcc565b5b50919050565b60008190508160005260206000209050919050565b6000815462000c558162000bfb565b62000c61818662000b71565b9450600182166000811462000c7f576001811462000c915762000cc8565b60ff1983168652818601935062000cc8565b62000c9c8562000c31565b60005b8381101562000cc05781548189015260018201915060208101905062000c9f565b838801955050505b50505092915050565b7f3a5b7b224e616d653a222c000000000000000000000000000000000000000000600082015250565b600062000d09600b8362000b71565b915062000d168262000cd1565b600b82019050919050565b7f7d2c000000000000000000000000000000000000000000000000000000000000600082015250565b600062000d5960028362000b71565b915062000d668262000d21565b600282019050919050565b600062000d7e8262000ba5565b915062000d8c828462000c46565b915062000d998262000cfa565b915062000da68262000d4a565b915081905092915050565b7f646174613a6170706c69636174696f6e2f6a736f6e3b6261736536342c000000600082015250565b600062000de9601d8362000b71565b915062000df68262000db1565b601d82019050919050565b600081519050919050565b600062000e198262000e01565b62000e25818562000b71565b935062000e378185602086016200076d565b80840191505092915050565b600062000e508262000dda565b915062000e5e828462000e0c565b915081905092915050565b7f4e487b7100000000000000000000000000000000000000000000000000000000600052601260045260246000fd5b600062000ea58262000886565b915062000eb28362000886565b92508262000ec55762000ec462000e69565b5b828204905092915050565b600062000edd8262000886565b915062000eea8362000886565b9250817fffffffffffffffffffffffffffffffffffffffffffffffffffffffffffffffff048311821515161562000f265762000f2562000ae5565b5b828202905092915050565b6129ac8062000f416000396000f3fe608060405234801561001057600080fd5b50600436106101375760003560e01c80636352211e116100b8578063b2bdfa7b1161007c578063b2bdfa7b14610350578063b88d4fde1461036e578063c87b56dd1461038a578063cfa84dfe146103ba578063d28d8852146103d8578063e985e9c5146103f657610137565b80636352211e1461029857806370a08231146102c85780638d21df8c146102f857806395d89b4114610316578063a22cb4651461033457610137565b806321d0af11116100ff57806321d0af11146101f457806323b872dd14610224578063314df577146102405780633fd218a51461025e57806342842e0e1461027c57610137565b806301ffc9a71461013c578063051802371461016c57806306fdde031461018a578063081812fc146101a8578063095ea7b3146101d8575b600080fd5b610156600480360381019061015191906118ae565b610426565b60405161016391906118f6565b60405180910390f35b610174610508565b604051610181919061192a565b60405180910390f35b61019261050e565b60405161019f91906119de565b60405180910390f35b6101c260048036038101906101bd9190611a2c565b6105a0565b6040516101cf9190611a9a565b60405180910390f35b6101f260048036038101906101ed9190611ae1565b610625565b005b61020e60048036038101906102099190611b21565b61073d565b60405161021b91906118f6565b60405180910390f35b61023e60048036038101906102399190611b4e565b6107c2565b005b610248610822565b60405161025591906119de565b60405180910390f35b6102666108b4565b60405161027391906119de565b60405180910390f35b61029660048036038101906102919190611b4e565b610942565b005b6102b260048036038101906102ad9190611a2c565b610962565b6040516102bf9190611a9a565b60405180910390f35b6102e260048036038101906102dd9190611b21565b610a14565b6040516102ef919061192a565b60405180910390f35b610300610acc565b60405161030d91906119de565b60405180910390f35b61031e610b5a565b60405161032b91906119de565b60405180910390f35b61034e60048036038101906103499190611bcd565b610bec565b005b610358610d6d565b6040516103659190611a9a565b60405180910390f35b61038860048036038101906103839190611d42565b610d93565b005b6103a4600480360381019061039f9190611a2c565b610df5565b6040516103b191906119de565b60405180910390f35b6103c2610e4c565b6040516103cf91906119de565b60405180910390f35b6103e0610eda565b6040516103ed91906119de565b60405180910390f35b610410600480360381019061040b9190611dc5565b610f68565b60405161041d91906118f6565b60405180910390f35b60007f80ac58cd000000000000000000000000000000000000000000000000000000007bffffffffffffffffffffffffffffffffffffffffffffffffffffffff1916827bffffffffffffffffffffffffffffffffffffffffffffffffffffffff191614806104f157507f5b5e139f000000000000000000000000000000000000000000000000000000007bffffffffffffffffffffffffffffffffffffffffffffffffffffffff1916827bffffffffffffffffffffffffffffffffffffffffffffffffffffffff1916145b80610501575061050082611175565b5b9050919050565b600b5481565b60606000805461051d90611e34565b80601f016020809104026020016040519081016040528092919081815260200182805461054990611e34565b80156105965780601f1061056b57610100808354040283529160200191610596565b820191906000526020600020905b81548152906001019060200180831161057957829003601f168201915b5050505050905090565b60006105ab826111df565b6105ea576040517f08c379a00000000000000000000000000000000000000000000000000000000081526004016105e190611ed8565b60405180910390fd5b6004600083815260200190815260200160002060009054906101000a900473ffffffffffffffffffffffffffffffffffffffff169050919050565b600061063082610962565b90508073ffffffffffffffffffffffffffffffffffffffff168373ffffffffffffffffffffffffffffffffffffffff1614156106a1576040517f08c379a000000000000000000000000000000000000000000000000000000000815260040161069890611f6a565b60405180910390fd5b8073ffffffffffffffffffffffffffffffffffffffff166106c061124b565b73ffffffffffffffffffffffffffffffffffffffff1614806106ef57506106ee816106e961124b565b610f68565b5b61072e576040517f08c379a000000000000000000000000000000000000000000000000000000000815260040161072590611ffc565b60405180910390fd5b6107388383611253565b505050565b600061076e600660009054906101000a900473ffffffffffffffffffffffffffffffffffffffff1683600b5461130c565b610779600b54610962565b600660006101000a81548173ffffffffffffffffffffffffffffffffffffffff021916908373ffffffffffffffffffffffffffffffffffffffff16021790555060019050919050565b6107d36107cd61124b565b82611568565b610812576040517f08c379a00000000000000000000000000000000000000000000000000000000081526004016108099061208e565b60405180910390fd5b61081d83838361130c565b505050565b6060600a805461083190611e34565b80601f016020809104026020016040519081016040528092919081815260200182805461085d90611e34565b80156108aa5780601f1061087f576101008083540402835291602001916108aa565b820191906000526020600020905b81548152906001019060200180831161088d57829003601f168201915b5050505050905090565b600980546108c190611e34565b80601f01602080910402602001604051908101604052809291908181526020018280546108ed90611e34565b801561093a5780601f1061090f5761010080835404028352916020019161093a565b820191906000526020600020905b81548152906001019060200180831161091d57829003601f168201915b505050505081565b61095d83838360405180602001604052806000815250610d93565b505050565b6000806002600084815260200190815260200160002060009054906101000a900473ffffffffffffffffffffffffffffffffffffffff169050600073ffffffffffffffffffffffffffffffffffffffff168173ffffffffffffffffffffffffffffffffffffffff161415610a0b576040517f08c379a0000000000000000000000000000000000000000000000000000000008152600401610a0290612120565b60405180910390fd5b80915050919050565b60008073ffffffffffffffffffffffffffffffffffffffff168273ffffffffffffffffffffffffffffffffffffffff161415610a85576040517f08c379a0000000000000000000000000000000000000000000000000000000008152600401610a7c906121b2565b60405180910390fd5b600360008373ffffffffffffffffffffffffffffffffffffffff1673ffffffffffffffffffffffffffffffffffffffff168152602001908152602001600020549050919050565b600a8054610ad990611e34565b80601f0160208091040260200160405190810160405280929190818152602001828054610b0590611e34565b8015610b525780601f10610b2757610100808354040283529160200191610b52565b820191906000526020600020905b815481529060010190602001808311610b3557829003601f168201915b505050505081565b606060018054610b6990611e34565b80601f0160208091040260200160405190810160405280929190818152602001828054610b9590611e34565b8015610be25780601f10610bb757610100808354040283529160200191610be2565b820191906000526020600020905b815481529060010190602001808311610bc557829003601f168201915b5050505050905090565b610bf461124b565b73ffffffffffffffffffffffffffffffffffffffff168273ffffffffffffffffffffffffffffffffffffffff161415610c62576040517f08c379a0000000000000000000000000000000000000000000000000000000008152600401610c599061221e565b60405180910390fd5b8060056000610c6f61124b565b73ffffffffffffffffffffffffffffffffffffffff1673ffffffffffffffffffffffffffffffffffffffff16815260200190815260200160002060008473ffffffffffffffffffffffffffffffffffffffff1673ffffffffffffffffffffffffffffffffffffffff16815260200190815260200160002060006101000a81548160ff0219169083151502179055508173ffffffffffffffffffffffffffffffffffffffff16610d1c61124b565b73ffffffffffffffffffffffffffffffffffffffff167f17307eab39ab6107e8899845ad3d59bd9653f200f220920489ca2b5937696c3183604051610d6191906118f6565b60405180910390a35050565b600660009054906101000a900473ffffffffffffffffffffffffffffffffffffffff1681565b610da4610d9e61124b565b83611568565b610de3576040517f08c379a0000000000000000000000000000000000000000000000000000000008152600401610dda9061208e565b60405180910390fd5b610def84848484611646565b50505050565b60606000610e226007604051602001610e0e91906123c1565b604051602081830303815290604052610ffc565b905080604051602001610e359190612476565b604051602081830303815290604052915050919050565b60088054610e5990611e34565b80601f0160208091040260200160405190810160405280929190818152602001828054610e8590611e34565b8015610ed25780601f10610ea757610100808354040283529160200191610ed2565b820191906000526020600020905b815481529060010190602001808311610eb557829003601f168201915b505050505081565b60078054610ee790611e34565b80601f0160208091040260200160405190810160405280929190818152602001828054610f1390611e34565b8015610f605780601f10610f3557610100808354040283529160200191610f60565b820191906000526020600020905b815481529060010190602001808311610f4357829003601f168201915b505050505081565b6000600560008473ffffffffffffffffffffffffffffffffffffffff1673ffffffffffffffffffffffffffffffffffffffff16815260200190815260200160002060008373ffffffffffffffffffffffffffffffffffffffff1673ffffffffffffffffffffffffffffffffffffffff16815260200190815260200160002060009054906101000a900460ff16905092915050565b606060008251141561101f57604051806020016040528060008152509050611170565b6000604051806060016040528060408152602001612937604091399050600060036002855161104e91906124c7565b611058919061254c565b6004611064919061257d565b9050600060208261107591906124c7565b67ffffffffffffffff81111561108e5761108d611c17565b5b6040519080825280601f01601f1916602001820160405280156110c05781602001600182028036833780820191505090505b509050818152600183018586518101602084015b8183101561112f576003830192508251603f8160121c168501518253600182019150603f81600c1c168501518253600182019150603f8160061c168501518253600182019150603f81168501518253600182019150506110d4565b600389510660018114611149576002811461115957611164565b613d3d60f01b6002830352611164565b603d60f81b60018303525b50505050508093505050505b919050565b60007f01ffc9a7000000000000000000000000000000000000000000000000000000007bffffffffffffffffffffffffffffffffffffffffffffffffffffffff1916827bffffffffffffffffffffffffffffffffffffffffffffffffffffffff1916149050919050565b60008073ffffffffffffffffffffffffffffffffffffffff166002600084815260200190815260200160002060009054906101000a900473ffffffffffffffffffffffffffffffffffffffff1673ffffffffffffffffffffffffffffffffffffffff1614159050919050565b600033905090565b816004600083815260200190815260200160002060006101000a81548173ffffffffffffffffffffffffffffffffffffffff021916908373ffffffffffffffffffffffffffffffffffffffff160217905550808273ffffffffffffffffffffffffffffffffffffffff166112c683610962565b73ffffffffffffffffffffffffffffffffffffffff167f8c5be1e5ebec7d5bd14f71427d1e84f3dd0314c0f7b2291e5b200ac8c7c3b92560405160405180910390a45050565b8273ffffffffffffffffffffffffffffffffffffffff1661132c82610962565b73ffffffffffffffffffffffffffffffffffffffff1614611382576040517f08c379a000000000000000000000000000000000000000000000000000000000815260040161137990612649565b60405180910390fd5b600073ffffffffffffffffffffffffffffffffffffffff168273ffffffffffffffffffffffffffffffffffffffff1614156113f2576040517f08c379a00000000000000000000000000000000000000000000000000000000081526004016113e9906126db565b60405180910390fd5b6113fd8383836116a2565b611408600082611253565b6001600360008573ffffffffffffffffffffffffffffffffffffffff1673ffffffffffffffffffffffffffffffffffffffff168152602001908152602001600020600082825461145891906126fb565b925050819055506001600360008473ffffffffffffffffffffffffffffffffffffffff1673ffffffffffffffffffffffffffffffffffffffff16815260200190815260200160002060008282546114af91906124c7565b92505081905550816002600083815260200190815260200160002060006101000a81548173ffffffffffffffffffffffffffffffffffffffff021916908373ffffffffffffffffffffffffffffffffffffffff160217905550808273ffffffffffffffffffffffffffffffffffffffff168473ffffffffffffffffffffffffffffffffffffffff167fddf252ad1be2c89b69c2b068fc378daa952ba7f163c4a11628f55a4df523b3ef60405160405180910390a4505050565b6000611573826111df565b6115b2576040517f08c379a00000000000000000000000000000000000000000000000000000000081526004016115a9906127a1565b60405180910390fd5b60006115bd83610962565b90508073ffffffffffffffffffffffffffffffffffffffff168473ffffffffffffffffffffffffffffffffffffffff16148061162c57508373ffffffffffffffffffffffffffffffffffffffff16611614846105a0565b73ffffffffffffffffffffffffffffffffffffffff16145b8061163d575061163c8185610f68565b5b91505092915050565b61165184848461130c565b61165d848484846116a7565b61169c576040517f08c379a000000000000000000000000000000000000000000000000000000000815260040161169390612833565b60405180910390fd5b50505050565b505050565b60006116c88473ffffffffffffffffffffffffffffffffffffffff1661182f565b15611822578373ffffffffffffffffffffffffffffffffffffffff1663150b7a026116f161124b565b8786866040518563ffffffff1660e01b815260040161171394939291906128a8565b6020604051808303816000875af192505050801561174f57506040513d601f19601f8201168201806040525081019061174c9190612909565b60015b6117d2573d806000811461177f576040519150601f19603f3d011682016040523d82523d6000602084013e611784565b606091505b506000815114156117ca576040517f08c379a00000000000000000000000000000000000000000000000000000000081526004016117c190612833565b60405180910390fd5b805181602001fd5b63150b7a0260e01b7bffffffffffffffffffffffffffffffffffffffffffffffffffffffff1916817bffffffffffffffffffffffffffffffffffffffffffffffffffffffff191614915050611827565b600190505b949350505050565b600080823b905060008111915050919050565b6000604051905090565b600080fd5b600080fd5b60007fffffffff0000000000000000000000000000000000000000000000000000000082169050919050565b61188b81611856565b811461189657600080fd5b50565b6000813590506118a881611882565b92915050565b6000602082840312156118c4576118c361184c565b5b60006118d284828501611899565b91505092915050565b60008115159050919050565b6118f0816118db565b82525050565b600060208201905061190b60008301846118e7565b92915050565b6000819050919050565b61192481611911565b82525050565b600060208201905061193f600083018461191b565b92915050565b600081519050919050565b600082825260208201905092915050565b60005b8381101561197f578082015181840152602081019050611964565b8381111561198e576000848401525b50505050565b6000601f19601f8301169050919050565b60006119b082611945565b6119ba8185611950565b93506119ca818560208601611961565b6119d381611994565b840191505092915050565b600060208201905081810360008301526119f881846119a5565b905092915050565b611a0981611911565b8114611a1457600080fd5b50565b600081359050611a2681611a00565b92915050565b600060208284031215611a4257611a4161184c565b5b6000611a5084828501611a17565b91505092915050565b600073ffffffffffffffffffffffffffffffffffffffff82169050919050565b6000611a8482611a59565b9050919050565b611a9481611a79565b82525050565b6000602082019050611aaf6000830184611a8b565b92915050565b611abe81611a79565b8114611ac957600080fd5b50565b600081359050611adb81611ab5565b92915050565b60008060408385031215611af857611af761184c565b5b6000611b0685828601611acc565b9250506020611b1785828601611a17565b9150509250929050565b600060208284031215611b3757611b3661184c565b5b6000611b4584828501611acc565b91505092915050565b600080600060608486031215611b6757611b6661184c565b5b6000611b7586828701611acc565b9350506020611b8686828701611acc565b9250506040611b9786828701611a17565b9150509250925092565b611baa816118db565b8114611bb557600080fd5b50565b600081359050611bc781611ba1565b92915050565b60008060408385031215611be457611be361184c565b5b6000611bf285828601611acc565b9250506020611c0385828601611bb8565b9150509250929050565b600080fd5b600080fd5b7f4e487b7100000000000000000000000000000000000000000000000000000000600052604160045260246000fd5b611c4f82611994565b810181811067ffffffffffffffff82111715611c6e57611c6d611c17565b5b80604052505050565b6000611c81611842565b9050611c8d8282611c46565b919050565b600067ffffffffffffffff821115611cad57611cac611c17565b5b611cb682611994565b9050602081019050919050565b82818337600083830152505050565b6000611ce5611ce084611c92565b611c77565b905082815260208101848484011115611d0157611d00611c12565b5b611d0c848285611cc3565b509392505050565b600082601f830112611d2957611d28611c0d565b5b8135611d39848260208601611cd2565b91505092915050565b60008060008060808587031215611d5c57611d5b61184c565b5b6000611d6a87828801611acc565b9450506020611d7b87828801611acc565b9350506040611d8c87828801611a17565b925050606085013567ffffffffffffffff811115611dad57611dac611851565b5b611db987828801611d14565b91505092959194509250565b60008060408385031215611ddc57611ddb61184c565b5b6000611dea85828601611acc565b9250506020611dfb85828601611acc565b9150509250929050565b7f4e487b7100000000000000000000000000000000000000000000000000000000600052602260045260246000fd5b60006002820490506001821680611e4c57607f821691505b60208210811415611e6057611e5f611e05565b5b50919050565b7f4552433732313a20617070726f76656420717565727920666f72206e6f6e657860008201527f697374656e7420746f6b656e0000000000000000000000000000000000000000602082015250565b6000611ec2602c83611950565b9150611ecd82611e66565b604082019050919050565b60006020820190508181036000830152611ef181611eb5565b9050919050565b7f4552433732313a20617070726f76616c20746f2063757272656e74206f776e6560008201527f7200000000000000000000000000000000000000000000000000000000000000602082015250565b6000611f54602183611950565b9150611f5f82611ef8565b604082019050919050565b60006020820190508181036000830152611f8381611f47565b9050919050565b7f4552433732313a20617070726f76652063616c6c6572206973206e6f74206f7760008201527f6e6572206e6f7220617070726f76656420666f7220616c6c0000000000000000602082015250565b6000611fe6603883611950565b9150611ff182611f8a565b604082019050919050565b6000602082019050818103600083015261201581611fd9565b9050919050565b7f4552433732313a207472616e736665722063616c6c6572206973206e6f74206f60008201527f776e6572206e6f7220617070726f766564000000000000000000000000000000602082015250565b6000612078603183611950565b91506120838261201c565b604082019050919050565b600060208201905081810360008301526120a78161206b565b9050919050565b7f4552433732313a206f776e657220717565727920666f72206e6f6e657869737460008201527f656e7420746f6b656e0000000000000000000000000000000000000000000000602082015250565b600061210a602983611950565b9150612115826120ae565b604082019050919050565b60006020820190508181036000830152612139816120fd565b9050919050565b7f4552433732313a2062616c616e636520717565727920666f7220746865207a6560008201527f726f206164647265737300000000000000000000000000000000000000000000602082015250565b600061219c602a83611950565b91506121a782612140565b604082019050919050565b600060208201905081810360008301526121cb8161218f565b9050919050565b7f4552433732313a20617070726f766520746f2063616c6c657200000000000000600082015250565b6000612208601983611950565b9150612213826121d2565b602082019050919050565b60006020820190508181036000830152612237816121fb565b9050919050565b600081905092915050565b7f7b22000000000000000000000000000000000000000000000000000000000000600082015250565b600061227f60028361223e565b915061228a82612249565b600282019050919050565b60008190508160005260206000209050919050565b600081546122b781611e34565b6122c1818661223e565b945060018216600081146122dc57600181146122ed57612320565b60ff19831686528186019350612320565b6122f685612295565b60005b83811015612318578154818901526001820191506020810190506122f9565b838801955050505b50505092915050565b7f3a5b7b224e616d653a222c000000000000000000000000000000000000000000600082015250565b600061235f600b8361223e565b915061236a82612329565b600b82019050919050565b7f7d2c000000000000000000000000000000000000000000000000000000000000600082015250565b60006123ab60028361223e565b91506123b682612375565b600282019050919050565b60006123cc82612272565b91506123d882846122aa565b91506123e382612352565b91506123ee8261239e565b915081905092915050565b7f646174613a6170706c69636174696f6e2f6a736f6e3b6261736536342c000000600082015250565b600061242f601d8361223e565b915061243a826123f9565b601d82019050919050565b600061245082611945565b61245a818561223e565b935061246a818560208601611961565b80840191505092915050565b600061248182612422565b915061248d8284612445565b915081905092915050565b7f4e487b7100000000000000000000000000000000000000000000000000000000600052601160045260246000fd5b60006124d282611911565b91506124dd83611911565b9250827fffffffffffffffffffffffffffffffffffffffffffffffffffffffffffffffff0382111561251257612511612498565b5b828201905092915050565b7f4e487b7100000000000000000000000000000000000000000000000000000000600052601260045260246000fd5b600061255782611911565b915061256283611911565b9250826125725761257161251d565b5b828204905092915050565b600061258882611911565b915061259383611911565b9250817fffffffffffffffffffffffffffffffffffffffffffffffffffffffffffffffff04831182151516156125cc576125cb612498565b5b828202905092915050565b7f4552433732313a207472616e73666572206f6620746f6b656e2074686174206960008201527f73206e6f74206f776e0000000000000000000000000000000000000000000000602082015250565b6000612633602983611950565b915061263e826125d7565b604082019050919050565b6000602082019050818103600083015261266281612626565b9050919050565b7f4552433732313a207472616e7366657220746f20746865207a65726f2061646460008201527f7265737300000000000000000000000000000000000000000000000000000000602082015250565b60006126c5602483611950565b91506126d082612669565b604082019050919050565b600060208201905081810360008301526126f4816126b8565b9050919050565b600061270682611911565b915061271183611911565b92508282101561272457612723612498565b5b828203905092915050565b7f4552433732313a206f70657261746f7220717565727920666f72206e6f6e657860008201527f697374656e7420746f6b656e0000000000000000000000000000000000000000602082015250565b600061278b602c83611950565b91506127968261272f565b604082019050919050565b600060208201905081810360008301526127ba8161277e565b9050919050565b7f4552433732313a207472616e7366657220746f206e6f6e20455243373231526560008201527f63656976657220696d706c656d656e7465720000000000000000000000000000602082015250565b600061281d603283611950565b9150612828826127c1565b604082019050919050565b6000602082019050818103600083015261284c81612810565b9050919050565b600081519050919050565b600082825260208201905092915050565b600061287a82612853565b612884818561285e565b9350612894818560208601611961565b61289d81611994565b840191505092915050565b60006080820190506128bd6000830187611a8b565b6128ca6020830186611a8b565b6128d7604083018561191b565b81810360608301526128e9818461286f565b905095945050505050565b60008151905061290381611882565b92915050565b60006020828403121561291f5761291e61184c565b5b600061292d848285016128f4565b9150509291505056fe4142434445464748494a4b4c4d4e4f505152535455565758595a6162636465666768696a6b6c6d6e6f707172737475767778797a303132333435363738392b2fa264697066735822122010cf8864d72a03afcc9d207419845980e1524d202b1a0d5bb80b9818cd64fd1e64736f6c634300080b00334142434445464748494a4b4c4d4e4f505152535455565758595a6162636465666768696a6b6c6d6e6f707172737475767778797a303132333435363738392b2f",
  "immutableReferences": {},
  "source": "pragma solidity ^0.8.0;\r\n\r\n\r\nimport \"./ItemFarm.sol\";\r\nimport \"@openzeppelin/contracts/token/ERC721/ERC721.sol\";\r\nimport \"@openzeppelin/contracts/access/Ownable.sol\";\r\nimport \"@openzeppelin/contracts/token/ERC721/extensions/ERC721Enumerable.sol\";\r\n\r\n/**\r\n * The ItemTemplate is ERC721 contract does this and that...\r\n */\r\n library Base64 {\r\n    string internal constant TABLE_ENCODE = 'ABCDEFGHIJKLMNOPQRSTUVWXYZabcdefghijklmnopqrstuvwxyz0123456789+/';\r\n    bytes  internal constant TABLE_DECODE = hex\"0000000000000000000000000000000000000000000000000000000000000000\"\r\n                                            hex\"00000000000000000000003e0000003f3435363738393a3b3c3d000000000000\"\r\n                                            hex\"00000102030405060708090a0b0c0d0e0f101112131415161718190000000000\"\r\n                                            hex\"001a1b1c1d1e1f202122232425262728292a2b2c2d2e2f303132330000000000\";\r\n\r\n    function encode(bytes memory data) internal pure returns (string memory) {\r\n        if (data.length == 0) return '';\r\n\r\n        // load the table into memory\r\n        string memory table = TABLE_ENCODE;\r\n\r\n        // multiply by 4/3 rounded up\r\n        uint256 encodedLen = 4 * ((data.length + 2) / 3);\r\n\r\n        // add some extra buffer at the end required for the writing\r\n        string memory result = new string(encodedLen + 32);\r\n\r\n        assembly {\r\n            // set the actual output length\r\n            mstore(result, encodedLen)\r\n\r\n            // prepare the lookup table\r\n            let tablePtr := add(table, 1)\r\n\r\n            // input ptr\r\n            let dataPtr := data\r\n            let endPtr := add(dataPtr, mload(data))\r\n\r\n            // result ptr, jump over length\r\n            let resultPtr := add(result, 32)\r\n\r\n            // run over the input, 3 bytes at a time\r\n            for {} lt(dataPtr, endPtr) {}\r\n            {\r\n                // read 3 bytes\r\n                dataPtr := add(dataPtr, 3)\r\n                let input := mload(dataPtr)\r\n\r\n                // write 4 characters\r\n                mstore8(resultPtr, mload(add(tablePtr, and(shr(18, input), 0x3F))))\r\n                resultPtr := add(resultPtr, 1)\r\n                mstore8(resultPtr, mload(add(tablePtr, and(shr(12, input), 0x3F))))\r\n                resultPtr := add(resultPtr, 1)\r\n                mstore8(resultPtr, mload(add(tablePtr, and(shr( 6, input), 0x3F))))\r\n                resultPtr := add(resultPtr, 1)\r\n                mstore8(resultPtr, mload(add(tablePtr, and(        input,  0x3F))))\r\n                resultPtr := add(resultPtr, 1)\r\n            }\r\n\r\n            // padding with '='\r\n            switch mod(mload(data), 3)\r\n            case 1 { mstore(sub(resultPtr, 2), shl(240, 0x3d3d)) }\r\n            case 2 { mstore(sub(resultPtr, 1), shl(248, 0x3d)) }\r\n        }\r\n\r\n        return result;\r\n    }\r\n\r\n    function decode(string memory _data) internal pure returns (bytes memory) {\r\n        bytes memory data = bytes(_data);\r\n\r\n        if (data.length == 0) return new bytes(0);\r\n        require(data.length % 4 == 0, \"invalid base64 decoder input\");\r\n\r\n        // load the table into memory\r\n        bytes memory table = TABLE_DECODE;\r\n\r\n        // every 4 characters represent 3 bytes\r\n        uint256 decodedLen = (data.length / 4) * 3;\r\n\r\n        // add some extra buffer at the end required for the writing\r\n        bytes memory result = new bytes(decodedLen + 32);\r\n\r\n        assembly {\r\n            // padding with '='\r\n            let lastBytes := mload(add(data, mload(data)))\r\n            if eq(and(lastBytes, 0xFF), 0x3d) {\r\n                decodedLen := sub(decodedLen, 1)\r\n                if eq(and(lastBytes, 0xFFFF), 0x3d3d) {\r\n                    decodedLen := sub(decodedLen, 1)\r\n                }\r\n            }\r\n\r\n            // set the actual output length\r\n            mstore(result, decodedLen)\r\n\r\n            // prepare the lookup table\r\n            let tablePtr := add(table, 1)\r\n\r\n            // input ptr\r\n            let dataPtr := data\r\n            let endPtr := add(dataPtr, mload(data))\r\n\r\n            // result ptr, jump over length\r\n            let resultPtr := add(result, 32)\r\n\r\n            // run over the input, 4 characters at a time\r\n            for {} lt(dataPtr, endPtr) {}\r\n            {\r\n               // read 4 characters\r\n               dataPtr := add(dataPtr, 4)\r\n               let input := mload(dataPtr)\r\n\r\n               // write 3 bytes\r\n               let output := add(\r\n                   add(\r\n                       shl(18, and(mload(add(tablePtr, and(shr(24, input), 0xFF))), 0xFF)),\r\n                       shl(12, and(mload(add(tablePtr, and(shr(16, input), 0xFF))), 0xFF))),\r\n                   add(\r\n                       shl( 6, and(mload(add(tablePtr, and(shr( 8, input), 0xFF))), 0xFF)),\r\n                               and(mload(add(tablePtr, and(        input , 0xFF))), 0xFF)\r\n                    )\r\n                )\r\n                mstore(resultPtr, shl(232, output))\r\n                resultPtr := add(resultPtr, 3)\r\n            }\r\n        }\r\n\r\n        return result;\r\n    }\r\n}\r\n\r\n\r\n\r\n\r\n contract ItemTemplate is ERC721 /*ERC721Enumerable,Ownable*/ {\r\n \taddress public _owner;\r\n \tstring public _name;\r\n \tstring public _description;\r\n \tstring public _imagehash;\r\n \tstring public Url;\r\n  uint public _id;\r\n  ItemFarm itemfarm;\r\n \t\r\n  \r\n\r\n\r\n  constructor(string memory Name,\r\n  \t\t\t  string memory description,\r\n  \t\t\t  string memory ImageHash,\r\n  \t\t\t  address Loanitem,\r\n  \t\t\t  address owner,\r\n  \t\t\t  uint id,\r\n          string memory URL ) \r\n  \t\t\tpublic ERC721(Name,ImageHash) {\r\n  \t\r\n\r\n  \t_name = Name;\r\n  \t_description = description;\r\n  \t_imagehash = ImageHash;\r\n  \t_owner = owner;\r\n  \t//loanitem = LoanItem(Loanitem);\r\n  \t_id = id;\r\n    Url = URL;\r\n  \t//da aggiungere metadati json URL\r\n\r\n  \t_mint(_owner,_id);\r\n\r\n    Url = tokenURI(_id);\r\n\r\n  }\r\n     function uint2str(uint _i) internal pure returns (string memory _uintAsString) {\r\n        if (_i == 0) {\r\n            return \"0\";\r\n        }\r\n        uint j = _i;\r\n        uint len;\r\n        while (j != 0) {\r\n            len++;\r\n            j /= 10;\r\n        }\r\n        bytes memory bstr = new bytes(len);\r\n        uint k = len;\r\n        while (_i != 0) {\r\n            k = k-1;\r\n            uint8 temp = (48 + uint8(_i - _i / 10 * 10));\r\n            bytes1 b1 = bytes1(temp);\r\n            bstr[k] = b1;\r\n            _i /= 10;\r\n        }\r\n        return string(bstr);\r\n    }\r\n    function tokenURI(uint256 tokenId) override(ERC721) public view returns (string memory) {\r\n        string memory json = Base64.encode(\r\n            bytes(string(\r\n                abi.encodePacked(\r\n\r\n               '{\"',_name,':[{\"Name:\",',\r\n\r\n                   /*'\"description\":',_description,'\",',\r\n                  '\"Image\":',_imagehash,'\",',\r\n                 '\"id\":',_id,'\",',\r\n                  '\"Owner\":',_owner,'\",',*/\r\n                  '},'\r\n\r\n                       \r\n                )\r\n            ))\r\n            \r\n        );\r\n\r\n /*       \r\n{\r\n   \"sergay\":[\r\n      {\r\n         \"hola\":\"madonna\",\r\n         \"bastartdo\":\"strunz\"\r\n      }\r\n   ]\r\n}\r\n\r\nhttps://jsonformatter.curiousconcept.com/#\r\nhttps://www.base64decode.org/\r\n\r\n\r\n\r\n       */\r\n\r\n\r\n        return string(abi.encodePacked('data:application/json;base64,', json));\r\n    }  \r\n\r\n\r\n    function transfert(address buyer)public returns(bool res)  {\r\n      _transfer(_owner,buyer,_id);\r\n      _owner = ownerOf(_id);\r\n      res = true;\r\n\r\n    }\r\n    function UrlT() public view returns(string memory){\r\n\r\n      return Url;\r\n    }\r\n\r\n}\r\n",
  "sourcePath": "C:\\Users\\Luca\\Desktop\\tesi\\My-tesi\\src\\contracts\\ItemTemplate.sol",
  "compiler": {
    "name": "solc",
    "version": "0.8.11+commit.d7f03943.Emscripten.clang"
  },
  "schemaVersion": "3.4.1",
  "updatedAt": "2021-12-30T21:11:55.203Z",
  "devdoc": {
    "kind": "dev",
    "methods": {
      "approve(address,uint256)": {
        "details": "See {IERC721-approve}."
      },
      "balanceOf(address)": {
        "details": "See {IERC721-balanceOf}."
      },
      "getApproved(uint256)": {
        "details": "See {IERC721-getApproved}."
      },
      "isApprovedForAll(address,address)": {
        "details": "See {IERC721-isApprovedForAll}."
      },
      "name()": {
        "details": "See {IERC721Metadata-name}."
      },
      "ownerOf(uint256)": {
        "details": "See {IERC721-ownerOf}."
      },
      "safeTransferFrom(address,address,uint256)": {
        "details": "See {IERC721-safeTransferFrom}."
      },
      "safeTransferFrom(address,address,uint256,bytes)": {
        "details": "See {IERC721-safeTransferFrom}."
      },
      "setApprovalForAll(address,bool)": {
        "details": "See {IERC721-setApprovalForAll}."
      },
      "supportsInterface(bytes4)": {
        "details": "See {IERC165-supportsInterface}."
      },
      "symbol()": {
        "details": "See {IERC721Metadata-symbol}."
      },
      "tokenURI(uint256)": {
        "details": "See {IERC721Metadata-tokenURI}."
      },
      "transferFrom(address,address,uint256)": {
        "details": "See {IERC721-transferFrom}."
      }
    },
    "version": 1
  },
  "userdoc": {
    "kind": "user",
    "methods": {},
    "version": 1
  }
}