{
  "contractName": "ItemTemplate",
  "abi": [
    {
      "inputs": [
        {
          "internalType": "string",
          "name": "Name",
          "type": "string"
        },
        {
          "internalType": "string",
          "name": "description",
          "type": "string"
        },
        {
          "internalType": "string",
          "name": "ImageHash",
          "type": "string"
        },
        {
          "internalType": "address",
          "name": "Loanitem",
          "type": "address"
        },
        {
          "internalType": "address",
          "name": "owner",
          "type": "address"
        },
        {
          "internalType": "uint256",
          "name": "id",
          "type": "uint256"
        },
        {
          "internalType": "string",
          "name": "URL",
          "type": "string"
        }
      ],
      "stateMutability": "nonpayable",
      "type": "constructor"
    },
    {
      "anonymous": false,
      "inputs": [
        {
          "indexed": true,
          "internalType": "address",
          "name": "owner",
          "type": "address"
        },
        {
          "indexed": true,
          "internalType": "address",
          "name": "approved",
          "type": "address"
        },
        {
          "indexed": true,
          "internalType": "uint256",
          "name": "tokenId",
          "type": "uint256"
        }
      ],
      "name": "Approval",
      "type": "event"
    },
    {
      "anonymous": false,
      "inputs": [
        {
          "indexed": true,
          "internalType": "address",
          "name": "owner",
          "type": "address"
        },
        {
          "indexed": true,
          "internalType": "address",
          "name": "operator",
          "type": "address"
        },
        {
          "indexed": false,
          "internalType": "bool",
          "name": "approved",
          "type": "bool"
        }
      ],
      "name": "ApprovalForAll",
      "type": "event"
    },
    {
      "anonymous": false,
      "inputs": [
        {
          "indexed": true,
          "internalType": "address",
          "name": "from",
          "type": "address"
        },
        {
          "indexed": true,
          "internalType": "address",
          "name": "to",
          "type": "address"
        },
        {
          "indexed": true,
          "internalType": "uint256",
          "name": "tokenId",
          "type": "uint256"
        }
      ],
      "name": "Transfer",
      "type": "event"
    },
    {
      "inputs": [],
      "name": "Url",
      "outputs": [
        {
          "internalType": "string",
          "name": "",
          "type": "string"
        }
      ],
      "stateMutability": "view",
      "type": "function"
    },
    {
      "inputs": [],
      "name": "_description",
      "outputs": [
        {
          "internalType": "string",
          "name": "",
          "type": "string"
        }
      ],
      "stateMutability": "view",
      "type": "function"
    },
    {
      "inputs": [],
      "name": "_id",
      "outputs": [
        {
          "internalType": "uint256",
          "name": "",
          "type": "uint256"
        }
      ],
      "stateMutability": "view",
      "type": "function"
    },
    {
      "inputs": [],
      "name": "_imagehash",
      "outputs": [
        {
          "internalType": "string",
          "name": "",
          "type": "string"
        }
      ],
      "stateMutability": "view",
      "type": "function"
    },
    {
      "inputs": [],
      "name": "_name",
      "outputs": [
        {
          "internalType": "string",
          "name": "",
          "type": "string"
        }
      ],
      "stateMutability": "view",
      "type": "function"
    },
    {
      "inputs": [],
      "name": "_owner",
      "outputs": [
        {
          "internalType": "address",
          "name": "",
          "type": "address"
        }
      ],
      "stateMutability": "view",
      "type": "function"
    },
    {
      "inputs": [
        {
          "internalType": "address",
          "name": "to",
          "type": "address"
        },
        {
          "internalType": "uint256",
          "name": "tokenId",
          "type": "uint256"
        }
      ],
      "name": "approve",
      "outputs": [],
      "stateMutability": "nonpayable",
      "type": "function"
    },
    {
      "inputs": [
        {
          "internalType": "address",
          "name": "owner",
          "type": "address"
        }
      ],
      "name": "balanceOf",
      "outputs": [
        {
          "internalType": "uint256",
          "name": "",
          "type": "uint256"
        }
      ],
      "stateMutability": "view",
      "type": "function"
    },
    {
      "inputs": [
        {
          "internalType": "uint256",
          "name": "tokenId",
          "type": "uint256"
        }
      ],
      "name": "getApproved",
      "outputs": [
        {
          "internalType": "address",
          "name": "",
          "type": "address"
        }
      ],
      "stateMutability": "view",
      "type": "function"
    },
    {
      "inputs": [
        {
          "internalType": "address",
          "name": "owner",
          "type": "address"
        },
        {
          "internalType": "address",
          "name": "operator",
          "type": "address"
        }
      ],
      "name": "isApprovedForAll",
      "outputs": [
        {
          "internalType": "bool",
          "name": "",
          "type": "bool"
        }
      ],
      "stateMutability": "view",
      "type": "function"
    },
    {
      "inputs": [],
      "name": "name",
      "outputs": [
        {
          "internalType": "string",
          "name": "",
          "type": "string"
        }
      ],
      "stateMutability": "view",
      "type": "function"
    },
    {
      "inputs": [
        {
          "internalType": "uint256",
          "name": "tokenId",
          "type": "uint256"
        }
      ],
      "name": "ownerOf",
      "outputs": [
        {
          "internalType": "address",
          "name": "",
          "type": "address"
        }
      ],
      "stateMutability": "view",
      "type": "function"
    },
    {
      "inputs": [
        {
          "internalType": "address",
          "name": "from",
          "type": "address"
        },
        {
          "internalType": "address",
          "name": "to",
          "type": "address"
        },
        {
          "internalType": "uint256",
          "name": "tokenId",
          "type": "uint256"
        }
      ],
      "name": "safeTransferFrom",
      "outputs": [],
      "stateMutability": "nonpayable",
      "type": "function"
    },
    {
      "inputs": [
        {
          "internalType": "address",
          "name": "from",
          "type": "address"
        },
        {
          "internalType": "address",
          "name": "to",
          "type": "address"
        },
        {
          "internalType": "uint256",
          "name": "tokenId",
          "type": "uint256"
        },
        {
          "internalType": "bytes",
          "name": "_data",
          "type": "bytes"
        }
      ],
      "name": "safeTransferFrom",
      "outputs": [],
      "stateMutability": "nonpayable",
      "type": "function"
    },
    {
      "inputs": [
        {
          "internalType": "address",
          "name": "operator",
          "type": "address"
        },
        {
          "internalType": "bool",
          "name": "approved",
          "type": "bool"
        }
      ],
      "name": "setApprovalForAll",
      "outputs": [],
      "stateMutability": "nonpayable",
      "type": "function"
    },
    {
      "inputs": [
        {
          "internalType": "bytes4",
          "name": "interfaceId",
          "type": "bytes4"
        }
      ],
      "name": "supportsInterface",
      "outputs": [
        {
          "internalType": "bool",
          "name": "",
          "type": "bool"
        }
      ],
      "stateMutability": "view",
      "type": "function"
    },
    {
      "inputs": [],
      "name": "symbol",
      "outputs": [
        {
          "internalType": "string",
          "name": "",
          "type": "string"
        }
      ],
      "stateMutability": "view",
      "type": "function"
    },
    {
      "inputs": [
        {
          "internalType": "uint256",
          "name": "tokenId",
          "type": "uint256"
        }
      ],
      "name": "tokenURI",
      "outputs": [
        {
          "internalType": "string",
          "name": "",
          "type": "string"
        }
      ],
      "stateMutability": "view",
      "type": "function"
    },
    {
      "inputs": [
        {
          "internalType": "address",
          "name": "from",
          "type": "address"
        },
        {
          "internalType": "address",
          "name": "to",
          "type": "address"
        },
        {
          "internalType": "uint256",
          "name": "tokenId",
          "type": "uint256"
        }
      ],
      "name": "transferFrom",
      "outputs": [],
      "stateMutability": "nonpayable",
      "type": "function"
    },
    {
      "inputs": [
        {
          "internalType": "address",
          "name": "buyer",
          "type": "address"
        }
      ],
      "name": "transfert",
      "outputs": [
        {
          "internalType": "bool",
          "name": "res",
          "type": "bool"
        }
      ],
      "stateMutability": "nonpayable",
      "type": "function"
    }
  ],
  "bytecode": "0x60806040523480156200001157600080fd5b50604051620031ac380380620031ac8339818101604052810190620000379190620006a0565b8685816000908051906020019062000051929190620003b3565b5080600190805190602001906200006a929190620003b3565b505050866007908051906020019062000085929190620003b3565b5085600890805190602001906200009e929190620003b3565b508460099080519060200190620000b7929190620003b3565b5082600660006101000a81548173ffffffffffffffffffffffffffffffffffffffff021916908373ffffffffffffffffffffffffffffffffffffffff16021790555081600c8190555080600a908051906020019062000118929190620003b3565b506200014f600660009054906101000a900473ffffffffffffffffffffffffffffffffffffffff16600c546200015c60201b60201c565b50505050505050620009b5565b600073ffffffffffffffffffffffffffffffffffffffff168273ffffffffffffffffffffffffffffffffffffffff161415620001cf576040517f08c379a0000000000000000000000000000000000000000000000000000000008152600401620001c69062000830565b60405180910390fd5b620001e0816200034260201b60201c565b1562000223576040517f08c379a00000000000000000000000000000000000000000000000000000000081526004016200021a90620008a2565b60405180910390fd5b6200023760008383620003ae60201b60201c565b6001600360008473ffffffffffffffffffffffffffffffffffffffff1673ffffffffffffffffffffffffffffffffffffffff1681526020019081526020016000206000828254620002899190620008f3565b92505081905550816002600083815260200190815260200160002060006101000a81548173ffffffffffffffffffffffffffffffffffffffff021916908373ffffffffffffffffffffffffffffffffffffffff160217905550808273ffffffffffffffffffffffffffffffffffffffff16600073ffffffffffffffffffffffffffffffffffffffff167fddf252ad1be2c89b69c2b068fc378daa952ba7f163c4a11628f55a4df523b3ef60405160405180910390a45050565b60008073ffffffffffffffffffffffffffffffffffffffff166002600084815260200190815260200160002060009054906101000a900473ffffffffffffffffffffffffffffffffffffffff1673ffffffffffffffffffffffffffffffffffffffff1614159050919050565b505050565b828054620003c1906200097f565b90600052602060002090601f016020900481019282620003e5576000855562000431565b82601f106200040057805160ff191683800117855562000431565b8280016001018555821562000431579182015b828111156200043057825182559160200191906001019062000413565b5b50905062000440919062000444565b5090565b5b808211156200045f57600081600090555060010162000445565b5090565b6000604051905090565b600080fd5b600080fd5b600080fd5b600080fd5b6000601f19601f8301169050919050565b7f4e487b7100000000000000000000000000000000000000000000000000000000600052604160045260246000fd5b620004cc8262000481565b810181811067ffffffffffffffff82111715620004ee57620004ed62000492565b5b80604052505050565b60006200050362000463565b9050620005118282620004c1565b919050565b600067ffffffffffffffff82111562000534576200053362000492565b5b6200053f8262000481565b9050602081019050919050565b60005b838110156200056c5780820151818401526020810190506200054f565b838111156200057c576000848401525b50505050565b600062000599620005938462000516565b620004f7565b905082815260208101848484011115620005b857620005b76200047c565b5b620005c58482856200054c565b509392505050565b600082601f830112620005e557620005e462000477565b5b8151620005f784826020860162000582565b91505092915050565b600073ffffffffffffffffffffffffffffffffffffffff82169050919050565b60006200062d8262000600565b9050919050565b6200063f8162000620565b81146200064b57600080fd5b50565b6000815190506200065f8162000634565b92915050565b6000819050919050565b6200067a8162000665565b81146200068657600080fd5b50565b6000815190506200069a816200066f565b92915050565b600080600080600080600060e0888a031215620006c257620006c16200046d565b5b600088015167ffffffffffffffff811115620006e357620006e262000472565b5b620006f18a828b01620005cd565b975050602088015167ffffffffffffffff81111562000715576200071462000472565b5b620007238a828b01620005cd565b965050604088015167ffffffffffffffff81111562000747576200074662000472565b5b620007558a828b01620005cd565b9550506060620007688a828b016200064e565b94505060806200077b8a828b016200064e565b93505060a06200078e8a828b0162000689565b92505060c088015167ffffffffffffffff811115620007b257620007b162000472565b5b620007c08a828b01620005cd565b91505092959891949750929550565b600082825260208201905092915050565b7f4552433732313a206d696e7420746f20746865207a65726f2061646472657373600082015250565b600062000818602083620007cf565b91506200082582620007e0565b602082019050919050565b600060208201905081810360008301526200084b8162000809565b9050919050565b7f4552433732313a20746f6b656e20616c7265616479206d696e74656400000000600082015250565b60006200088a601c83620007cf565b9150620008978262000852565b602082019050919050565b60006020820190508181036000830152620008bd816200087b565b9050919050565b7f4e487b7100000000000000000000000000000000000000000000000000000000600052601160045260246000fd5b6000620009008262000665565b91506200090d8362000665565b9250827fffffffffffffffffffffffffffffffffffffffffffffffffffffffffffffffff03821115620009455762000944620008c4565b5b828201905092915050565b7f4e487b7100000000000000000000000000000000000000000000000000000000600052602260045260246000fd5b600060028204905060018216806200099857607f821691505b60208210811415620009af57620009ae62000950565b5b50919050565b6127e780620009c56000396000f3fe608060405234801561001057600080fd5b506004361061012c5760003560e01c806370a08231116100ad578063b88d4fde11610071578063b88d4fde14610345578063c87b56dd14610361578063cfa84dfe14610391578063d28d8852146103af578063e985e9c5146103cd5761012c565b806370a082311461029f5780638d21df8c146102cf57806395d89b41146102ed578063a22cb4651461030b578063b2bdfa7b146103275761012c565b806321d0af11116100f457806321d0af11146101e957806323b872dd146102195780633fd218a51461023557806342842e0e146102535780636352211e1461026f5761012c565b806301ffc9a714610131578063051802371461016157806306fdde031461017f578063081812fc1461019d578063095ea7b3146101cd575b600080fd5b61014b60048036038101906101469190611842565b6103fd565b604051610158919061188a565b60405180910390f35b6101696104df565b60405161017691906118be565b60405180910390f35b6101876104e5565b6040516101949190611972565b60405180910390f35b6101b760048036038101906101b291906119c0565b610577565b6040516101c49190611a2e565b60405180910390f35b6101e760048036038101906101e29190611a75565b6105fc565b005b61020360048036038101906101fe9190611ab5565b610714565b604051610210919061188a565b60405180910390f35b610233600480360381019061022e9190611ae2565b610799565b005b61023d6107f9565b60405161024a9190611972565b60405180910390f35b61026d60048036038101906102689190611ae2565b610887565b005b610289600480360381019061028491906119c0565b6108a7565b6040516102969190611a2e565b60405180910390f35b6102b960048036038101906102b49190611ab5565b610959565b6040516102c691906118be565b60405180910390f35b6102d7610a11565b6040516102e49190611972565b60405180910390f35b6102f5610a9f565b6040516103029190611972565b60405180910390f35b61032560048036038101906103209190611b61565b610b31565b005b61032f610cb2565b60405161033c9190611a2e565b60405180910390f35b61035f600480360381019061035a9190611cd6565b610cd8565b005b61037b600480360381019061037691906119c0565b610d3a565b6040516103889190611972565b60405180910390f35b610399610de1565b6040516103a69190611972565b60405180910390f35b6103b7610e6f565b6040516103c49190611972565b60405180910390f35b6103e760048036038101906103e29190611d59565b610efd565b6040516103f4919061188a565b60405180910390f35b60007f80ac58cd000000000000000000000000000000000000000000000000000000007bffffffffffffffffffffffffffffffffffffffffffffffffffffffff1916827bffffffffffffffffffffffffffffffffffffffffffffffffffffffff191614806104c857507f5b5e139f000000000000000000000000000000000000000000000000000000007bffffffffffffffffffffffffffffffffffffffffffffffffffffffff1916827bffffffffffffffffffffffffffffffffffffffffffffffffffffffff1916145b806104d857506104d782610f91565b5b9050919050565b600c5481565b6060600080546104f490611dc8565b80601f016020809104026020016040519081016040528092919081815260200182805461052090611dc8565b801561056d5780601f106105425761010080835404028352916020019161056d565b820191906000526020600020905b81548152906001019060200180831161055057829003601f168201915b5050505050905090565b600061058282610ffb565b6105c1576040517f08c379a00000000000000000000000000000000000000000000000000000000081526004016105b890611e6c565b60405180910390fd5b6004600083815260200190815260200160002060009054906101000a900473ffffffffffffffffffffffffffffffffffffffff169050919050565b6000610607826108a7565b90508073ffffffffffffffffffffffffffffffffffffffff168373ffffffffffffffffffffffffffffffffffffffff161415610678576040517f08c379a000000000000000000000000000000000000000000000000000000000815260040161066f90611efe565b60405180910390fd5b8073ffffffffffffffffffffffffffffffffffffffff16610697611067565b73ffffffffffffffffffffffffffffffffffffffff1614806106c657506106c5816106c0611067565b610efd565b5b610705576040517f08c379a00000000000000000000000000000000000000000000000000000000081526004016106fc90611f90565b60405180910390fd5b61070f838361106f565b505050565b6000610745600660009054906101000a900473ffffffffffffffffffffffffffffffffffffffff1683600c54611128565b610750600c546108a7565b600660006101000a81548173ffffffffffffffffffffffffffffffffffffffff021916908373ffffffffffffffffffffffffffffffffffffffff16021790555060019050919050565b6107aa6107a4611067565b82611384565b6107e9576040517f08c379a00000000000000000000000000000000000000000000000000000000081526004016107e090612022565b60405180910390fd5b6107f4838383611128565b505050565b6009805461080690611dc8565b80601f016020809104026020016040519081016040528092919081815260200182805461083290611dc8565b801561087f5780601f106108545761010080835404028352916020019161087f565b820191906000526020600020905b81548152906001019060200180831161086257829003601f168201915b505050505081565b6108a283838360405180602001604052806000815250610cd8565b505050565b6000806002600084815260200190815260200160002060009054906101000a900473ffffffffffffffffffffffffffffffffffffffff169050600073ffffffffffffffffffffffffffffffffffffffff168173ffffffffffffffffffffffffffffffffffffffff161415610950576040517f08c379a0000000000000000000000000000000000000000000000000000000008152600401610947906120b4565b60405180910390fd5b80915050919050565b60008073ffffffffffffffffffffffffffffffffffffffff168273ffffffffffffffffffffffffffffffffffffffff1614156109ca576040517f08c379a00000000000000000000000000000000000000000000000000000000081526004016109c190612146565b60405180910390fd5b600360008373ffffffffffffffffffffffffffffffffffffffff1673ffffffffffffffffffffffffffffffffffffffff168152602001908152602001600020549050919050565b600a8054610a1e90611dc8565b80601f0160208091040260200160405190810160405280929190818152602001828054610a4a90611dc8565b8015610a975780601f10610a6c57610100808354040283529160200191610a97565b820191906000526020600020905b815481529060010190602001808311610a7a57829003601f168201915b505050505081565b606060018054610aae90611dc8565b80601f0160208091040260200160405190810160405280929190818152602001828054610ada90611dc8565b8015610b275780601f10610afc57610100808354040283529160200191610b27565b820191906000526020600020905b815481529060010190602001808311610b0a57829003601f168201915b5050505050905090565b610b39611067565b73ffffffffffffffffffffffffffffffffffffffff168273ffffffffffffffffffffffffffffffffffffffff161415610ba7576040517f08c379a0000000000000000000000000000000000000000000000000000000008152600401610b9e906121b2565b60405180910390fd5b8060056000610bb4611067565b73ffffffffffffffffffffffffffffffffffffffff1673ffffffffffffffffffffffffffffffffffffffff16815260200190815260200160002060008473ffffffffffffffffffffffffffffffffffffffff1673ffffffffffffffffffffffffffffffffffffffff16815260200190815260200160002060006101000a81548160ff0219169083151502179055508173ffffffffffffffffffffffffffffffffffffffff16610c61611067565b73ffffffffffffffffffffffffffffffffffffffff167f17307eab39ab6107e8899845ad3d59bd9653f200f220920489ca2b5937696c3183604051610ca6919061188a565b60405180910390a35050565b600660009054906101000a900473ffffffffffffffffffffffffffffffffffffffff1681565b610ce9610ce3611067565b83611384565b610d28576040517f08c379a0000000000000000000000000000000000000000000000000000000008152600401610d1f90612022565b60405180910390fd5b610d3484848484611462565b50505050565b6060610d4582610ffb565b610d84576040517f08c379a0000000000000000000000000000000000000000000000000000000008152600401610d7b90612244565b60405180910390fd5b6000610d8e6114be565b90506000815111610dae5760405180602001604052806000815250610dd9565b80610db8846114d5565b604051602001610dc99291906122a0565b6040516020818303038152906040525b915050919050565b60088054610dee90611dc8565b80601f0160208091040260200160405190810160405280929190818152602001828054610e1a90611dc8565b8015610e675780601f10610e3c57610100808354040283529160200191610e67565b820191906000526020600020905b815481529060010190602001808311610e4a57829003601f168201915b505050505081565b60078054610e7c90611dc8565b80601f0160208091040260200160405190810160405280929190818152602001828054610ea890611dc8565b8015610ef55780601f10610eca57610100808354040283529160200191610ef5565b820191906000526020600020905b815481529060010190602001808311610ed857829003601f168201915b505050505081565b6000600560008473ffffffffffffffffffffffffffffffffffffffff1673ffffffffffffffffffffffffffffffffffffffff16815260200190815260200160002060008373ffffffffffffffffffffffffffffffffffffffff1673ffffffffffffffffffffffffffffffffffffffff16815260200190815260200160002060009054906101000a900460ff16905092915050565b60007f01ffc9a7000000000000000000000000000000000000000000000000000000007bffffffffffffffffffffffffffffffffffffffffffffffffffffffff1916827bffffffffffffffffffffffffffffffffffffffffffffffffffffffff1916149050919050565b60008073ffffffffffffffffffffffffffffffffffffffff166002600084815260200190815260200160002060009054906101000a900473ffffffffffffffffffffffffffffffffffffffff1673ffffffffffffffffffffffffffffffffffffffff1614159050919050565b600033905090565b816004600083815260200190815260200160002060006101000a81548173ffffffffffffffffffffffffffffffffffffffff021916908373ffffffffffffffffffffffffffffffffffffffff160217905550808273ffffffffffffffffffffffffffffffffffffffff166110e2836108a7565b73ffffffffffffffffffffffffffffffffffffffff167f8c5be1e5ebec7d5bd14f71427d1e84f3dd0314c0f7b2291e5b200ac8c7c3b92560405160405180910390a45050565b8273ffffffffffffffffffffffffffffffffffffffff16611148826108a7565b73ffffffffffffffffffffffffffffffffffffffff161461119e576040517f08c379a000000000000000000000000000000000000000000000000000000000815260040161119590612336565b60405180910390fd5b600073ffffffffffffffffffffffffffffffffffffffff168273ffffffffffffffffffffffffffffffffffffffff16141561120e576040517f08c379a0000000000000000000000000000000000000000000000000000000008152600401611205906123c8565b60405180910390fd5b611219838383611636565b61122460008261106f565b6001600360008573ffffffffffffffffffffffffffffffffffffffff1673ffffffffffffffffffffffffffffffffffffffff16815260200190815260200160002060008282546112749190612417565b925050819055506001600360008473ffffffffffffffffffffffffffffffffffffffff1673ffffffffffffffffffffffffffffffffffffffff16815260200190815260200160002060008282546112cb919061244b565b92505081905550816002600083815260200190815260200160002060006101000a81548173ffffffffffffffffffffffffffffffffffffffff021916908373ffffffffffffffffffffffffffffffffffffffff160217905550808273ffffffffffffffffffffffffffffffffffffffff168473ffffffffffffffffffffffffffffffffffffffff167fddf252ad1be2c89b69c2b068fc378daa952ba7f163c4a11628f55a4df523b3ef60405160405180910390a4505050565b600061138f82610ffb565b6113ce576040517f08c379a00000000000000000000000000000000000000000000000000000000081526004016113c590612513565b60405180910390fd5b60006113d9836108a7565b90508073ffffffffffffffffffffffffffffffffffffffff168473ffffffffffffffffffffffffffffffffffffffff16148061144857508373ffffffffffffffffffffffffffffffffffffffff1661143084610577565b73ffffffffffffffffffffffffffffffffffffffff16145b8061145957506114588185610efd565b5b91505092915050565b61146d848484611128565b6114798484848461163b565b6114b8576040517f08c379a00000000000000000000000000000000000000000000000000000000081526004016114af906125a5565b60405180910390fd5b50505050565b606060405180602001604052806000815250905090565b6060600082141561151d576040518060400160405280600181526020017f30000000000000000000000000000000000000000000000000000000000000008152509050611631565b600082905060005b6000821461154f578080611538906125c5565b915050600a82611548919061263d565b9150611525565b60008167ffffffffffffffff81111561156b5761156a611bab565b5b6040519080825280601f01601f19166020018201604052801561159d5781602001600182028036833780820191505090505b5090505b6000851461162a576001826115b69190612417565b9150600a856115c5919061266e565b60306115d1919061244b565b60f81b8183815181106115e7576115e661269f565b5b60200101907effffffffffffffffffffffffffffffffffffffffffffffffffffffffffffff1916908160001a905350600a85611623919061263d565b94506115a1565b8093505050505b919050565b505050565b600061165c8473ffffffffffffffffffffffffffffffffffffffff166117c3565b156117b6578373ffffffffffffffffffffffffffffffffffffffff1663150b7a02611685611067565b8786866040518563ffffffff1660e01b81526004016116a79493929190612723565b6020604051808303816000875af19250505080156116e357506040513d601f19601f820116820180604052508101906116e09190612784565b60015b611766573d8060008114611713576040519150601f19603f3d011682016040523d82523d6000602084013e611718565b606091505b5060008151141561175e576040517f08c379a0000000000000000000000000000000000000000000000000000000008152600401611755906125a5565b60405180910390fd5b805181602001fd5b63150b7a0260e01b7bffffffffffffffffffffffffffffffffffffffffffffffffffffffff1916817bffffffffffffffffffffffffffffffffffffffffffffffffffffffff1916149150506117bb565b600190505b949350505050565b600080823b905060008111915050919050565b6000604051905090565b600080fd5b600080fd5b60007fffffffff0000000000000000000000000000000000000000000000000000000082169050919050565b61181f816117ea565b811461182a57600080fd5b50565b60008135905061183c81611816565b92915050565b600060208284031215611858576118576117e0565b5b60006118668482850161182d565b91505092915050565b60008115159050919050565b6118848161186f565b82525050565b600060208201905061189f600083018461187b565b92915050565b6000819050919050565b6118b8816118a5565b82525050565b60006020820190506118d360008301846118af565b92915050565b600081519050919050565b600082825260208201905092915050565b60005b838110156119135780820151818401526020810190506118f8565b83811115611922576000848401525b50505050565b6000601f19601f8301169050919050565b6000611944826118d9565b61194e81856118e4565b935061195e8185602086016118f5565b61196781611928565b840191505092915050565b6000602082019050818103600083015261198c8184611939565b905092915050565b61199d816118a5565b81146119a857600080fd5b50565b6000813590506119ba81611994565b92915050565b6000602082840312156119d6576119d56117e0565b5b60006119e4848285016119ab565b91505092915050565b600073ffffffffffffffffffffffffffffffffffffffff82169050919050565b6000611a18826119ed565b9050919050565b611a2881611a0d565b82525050565b6000602082019050611a436000830184611a1f565b92915050565b611a5281611a0d565b8114611a5d57600080fd5b50565b600081359050611a6f81611a49565b92915050565b60008060408385031215611a8c57611a8b6117e0565b5b6000611a9a85828601611a60565b9250506020611aab858286016119ab565b9150509250929050565b600060208284031215611acb57611aca6117e0565b5b6000611ad984828501611a60565b91505092915050565b600080600060608486031215611afb57611afa6117e0565b5b6000611b0986828701611a60565b9350506020611b1a86828701611a60565b9250506040611b2b868287016119ab565b9150509250925092565b611b3e8161186f565b8114611b4957600080fd5b50565b600081359050611b5b81611b35565b92915050565b60008060408385031215611b7857611b776117e0565b5b6000611b8685828601611a60565b9250506020611b9785828601611b4c565b9150509250929050565b600080fd5b600080fd5b7f4e487b7100000000000000000000000000000000000000000000000000000000600052604160045260246000fd5b611be382611928565b810181811067ffffffffffffffff82111715611c0257611c01611bab565b5b80604052505050565b6000611c156117d6565b9050611c218282611bda565b919050565b600067ffffffffffffffff821115611c4157611c40611bab565b5b611c4a82611928565b9050602081019050919050565b82818337600083830152505050565b6000611c79611c7484611c26565b611c0b565b905082815260208101848484011115611c9557611c94611ba6565b5b611ca0848285611c57565b509392505050565b600082601f830112611cbd57611cbc611ba1565b5b8135611ccd848260208601611c66565b91505092915050565b60008060008060808587031215611cf057611cef6117e0565b5b6000611cfe87828801611a60565b9450506020611d0f87828801611a60565b9350506040611d20878288016119ab565b925050606085013567ffffffffffffffff811115611d4157611d406117e5565b5b611d4d87828801611ca8565b91505092959194509250565b60008060408385031215611d7057611d6f6117e0565b5b6000611d7e85828601611a60565b9250506020611d8f85828601611a60565b9150509250929050565b7f4e487b7100000000000000000000000000000000000000000000000000000000600052602260045260246000fd5b60006002820490506001821680611de057607f821691505b60208210811415611df457611df3611d99565b5b50919050565b7f4552433732313a20617070726f76656420717565727920666f72206e6f6e657860008201527f697374656e7420746f6b656e0000000000000000000000000000000000000000602082015250565b6000611e56602c836118e4565b9150611e6182611dfa565b604082019050919050565b60006020820190508181036000830152611e8581611e49565b9050919050565b7f4552433732313a20617070726f76616c20746f2063757272656e74206f776e6560008201527f7200000000000000000000000000000000000000000000000000000000000000602082015250565b6000611ee86021836118e4565b9150611ef382611e8c565b604082019050919050565b60006020820190508181036000830152611f1781611edb565b9050919050565b7f4552433732313a20617070726f76652063616c6c6572206973206e6f74206f7760008201527f6e6572206e6f7220617070726f76656420666f7220616c6c0000000000000000602082015250565b6000611f7a6038836118e4565b9150611f8582611f1e565b604082019050919050565b60006020820190508181036000830152611fa981611f6d565b9050919050565b7f4552433732313a207472616e736665722063616c6c6572206973206e6f74206f60008201527f776e6572206e6f7220617070726f766564000000000000000000000000000000602082015250565b600061200c6031836118e4565b915061201782611fb0565b604082019050919050565b6000602082019050818103600083015261203b81611fff565b9050919050565b7f4552433732313a206f776e657220717565727920666f72206e6f6e657869737460008201527f656e7420746f6b656e0000000000000000000000000000000000000000000000602082015250565b600061209e6029836118e4565b91506120a982612042565b604082019050919050565b600060208201905081810360008301526120cd81612091565b9050919050565b7f4552433732313a2062616c616e636520717565727920666f7220746865207a6560008201527f726f206164647265737300000000000000000000000000000000000000000000602082015250565b6000612130602a836118e4565b915061213b826120d4565b604082019050919050565b6000602082019050818103600083015261215f81612123565b9050919050565b7f4552433732313a20617070726f766520746f2063616c6c657200000000000000600082015250565b600061219c6019836118e4565b91506121a782612166565b602082019050919050565b600060208201905081810360008301526121cb8161218f565b9050919050565b7f4552433732314d657461646174613a2055524920717565727920666f72206e6f60008201527f6e6578697374656e7420746f6b656e0000000000000000000000000000000000602082015250565b600061222e602f836118e4565b9150612239826121d2565b604082019050919050565b6000602082019050818103600083015261225d81612221565b9050919050565b600081905092915050565b600061227a826118d9565b6122848185612264565b93506122948185602086016118f5565b80840191505092915050565b60006122ac828561226f565b91506122b8828461226f565b91508190509392505050565b7f4552433732313a207472616e73666572206f6620746f6b656e2074686174206960008201527f73206e6f74206f776e0000000000000000000000000000000000000000000000602082015250565b60006123206029836118e4565b915061232b826122c4565b604082019050919050565b6000602082019050818103600083015261234f81612313565b9050919050565b7f4552433732313a207472616e7366657220746f20746865207a65726f2061646460008201527f7265737300000000000000000000000000000000000000000000000000000000602082015250565b60006123b26024836118e4565b91506123bd82612356565b604082019050919050565b600060208201905081810360008301526123e1816123a5565b9050919050565b7f4e487b7100000000000000000000000000000000000000000000000000000000600052601160045260246000fd5b6000612422826118a5565b915061242d836118a5565b9250828210156124405761243f6123e8565b5b828203905092915050565b6000612456826118a5565b9150612461836118a5565b9250827fffffffffffffffffffffffffffffffffffffffffffffffffffffffffffffffff03821115612496576124956123e8565b5b828201905092915050565b7f4552433732313a206f70657261746f7220717565727920666f72206e6f6e657860008201527f697374656e7420746f6b656e0000000000000000000000000000000000000000602082015250565b60006124fd602c836118e4565b9150612508826124a1565b604082019050919050565b6000602082019050818103600083015261252c816124f0565b9050919050565b7f4552433732313a207472616e7366657220746f206e6f6e20455243373231526560008201527f63656976657220696d706c656d656e7465720000000000000000000000000000602082015250565b600061258f6032836118e4565b915061259a82612533565b604082019050919050565b600060208201905081810360008301526125be81612582565b9050919050565b60006125d0826118a5565b91507fffffffffffffffffffffffffffffffffffffffffffffffffffffffffffffffff821415612603576126026123e8565b5b600182019050919050565b7f4e487b7100000000000000000000000000000000000000000000000000000000600052601260045260246000fd5b6000612648826118a5565b9150612653836118a5565b9250826126635761266261260e565b5b828204905092915050565b6000612679826118a5565b9150612684836118a5565b9250826126945761269361260e565b5b828206905092915050565b7f4e487b7100000000000000000000000000000000000000000000000000000000600052603260045260246000fd5b600081519050919050565b600082825260208201905092915050565b60006126f5826126ce565b6126ff81856126d9565b935061270f8185602086016118f5565b61271881611928565b840191505092915050565b60006080820190506127386000830187611a1f565b6127456020830186611a1f565b61275260408301856118af565b818103606083015261276481846126ea565b905095945050505050565b60008151905061277e81611816565b92915050565b60006020828403121561279a576127996117e0565b5b60006127a88482850161276f565b9150509291505056fea2646970667358221220f79bcc25b25282143a5f540bc2df2f83e48bf81fdedc34919699fd99ad4a151a64736f6c634300080b0033",
  "immutableReferences": {},
  "source": "pragma solidity ^0.8.0;\r\n\r\n\r\nimport \"./ItemFarm.sol\";\r\nimport \"@openzeppelin/contracts/token/ERC721/ERC721.sol\";\r\nimport \"@openzeppelin/contracts/access/Ownable.sol\";\r\nimport \"@openzeppelin/contracts/token/ERC721/extensions/ERC721Enumerable.sol\";\r\n\r\n/**\r\n * The ItemTemplate is ERC721 contract does this and that...\r\n */\r\n\r\n contract ItemTemplate is ERC721 /*ERC721Enumerable,Ownable*/ {\r\n \taddress public _owner;\r\n \tstring public _name;\r\n \tstring public _description;\r\n \tstring public _imagehash;\r\n \tstring public Url;\r\n  ItemFarm itemfarm;\r\n \tuint public _id;\r\n  \r\n\r\n\r\n  constructor(string memory Name,\r\n  \t\t\t  string memory description,\r\n  \t\t\t  string memory ImageHash,\r\n  \t\t\t  address Loanitem,\r\n  \t\t\t  address owner,\r\n  \t\t\t  uint id,\r\n          string memory URL ) \r\n  \t\t\tpublic ERC721(Name,ImageHash) {\r\n  \t\r\n\r\n  \t_name = Name;\r\n  \t_description = description;\r\n  \t_imagehash = ImageHash;\r\n  \t_owner = owner;\r\n  \t//loanitem = LoanItem(Loanitem);\r\n  \t_id = id;\r\n    Url = URL;\r\n  \t//da aggiungere metadati json URL\r\n  \t//_MinterAdded(_owner);\r\n\r\n\r\n  \t_mint(_owner,_id);\r\n\r\n  \t//_MinterRemoved(_owner);    \r\n  }\r\n    function transfert(address buyer)public returns(bool res)  {\r\n      _transfer(_owner,buyer,_id);\r\n      _owner = ownerOf(_id);\r\n      res = true;\r\n\r\n    }\r\n    \r\n}\r\n",
  "sourcePath": "C:\\Users\\Luca\\Desktop\\tesi\\My-tesi\\src\\contracts\\ItemTemplate.sol",
  "compiler": {
    "name": "solc",
    "version": "0.8.11+commit.d7f03943.Emscripten.clang"
  },
  "schemaVersion": "3.4.1",
  "updatedAt": "2021-12-20T18:11:33.293Z",
  "devdoc": {
    "kind": "dev",
    "methods": {
      "approve(address,uint256)": {
        "details": "See {IERC721-approve}."
      },
      "balanceOf(address)": {
        "details": "See {IERC721-balanceOf}."
      },
      "getApproved(uint256)": {
        "details": "See {IERC721-getApproved}."
      },
      "isApprovedForAll(address,address)": {
        "details": "See {IERC721-isApprovedForAll}."
      },
      "name()": {
        "details": "See {IERC721Metadata-name}."
      },
      "ownerOf(uint256)": {
        "details": "See {IERC721-ownerOf}."
      },
      "safeTransferFrom(address,address,uint256)": {
        "details": "See {IERC721-safeTransferFrom}."
      },
      "safeTransferFrom(address,address,uint256,bytes)": {
        "details": "See {IERC721-safeTransferFrom}."
      },
      "setApprovalForAll(address,bool)": {
        "details": "See {IERC721-setApprovalForAll}."
      },
      "supportsInterface(bytes4)": {
        "details": "See {IERC165-supportsInterface}."
      },
      "symbol()": {
        "details": "See {IERC721Metadata-symbol}."
      },
      "tokenURI(uint256)": {
        "details": "See {IERC721Metadata-tokenURI}."
      },
      "transferFrom(address,address,uint256)": {
        "details": "See {IERC721-transferFrom}."
      }
    },
    "version": 1
  },
  "userdoc": {
    "kind": "user",
    "methods": {},
    "notice": "The ItemTemplate is ERC721 contract does this and that...",
    "version": 1
  }
}