{
  "contractName": "ItemTemplate",
  "abi": [
    {
      "inputs": [
        {
          "internalType": "string",
          "name": "Name",
          "type": "string"
        },
        {
          "internalType": "string",
          "name": "description",
          "type": "string"
        },
        {
          "internalType": "string",
          "name": "ImageHash",
          "type": "string"
        },
        {
          "internalType": "address",
          "name": "Loanitem",
          "type": "address"
        },
        {
          "internalType": "address",
          "name": "owner",
          "type": "address"
        },
        {
          "internalType": "uint256",
          "name": "id",
          "type": "uint256"
        },
        {
          "internalType": "string",
          "name": "URL",
          "type": "string"
        }
      ],
      "stateMutability": "nonpayable",
      "type": "constructor"
    },
    {
      "anonymous": false,
      "inputs": [
        {
          "indexed": true,
          "internalType": "address",
          "name": "owner",
          "type": "address"
        },
        {
          "indexed": true,
          "internalType": "address",
          "name": "approved",
          "type": "address"
        },
        {
          "indexed": true,
          "internalType": "uint256",
          "name": "tokenId",
          "type": "uint256"
        }
      ],
      "name": "Approval",
      "type": "event"
    },
    {
      "anonymous": false,
      "inputs": [
        {
          "indexed": true,
          "internalType": "address",
          "name": "owner",
          "type": "address"
        },
        {
          "indexed": true,
          "internalType": "address",
          "name": "operator",
          "type": "address"
        },
        {
          "indexed": false,
          "internalType": "bool",
          "name": "approved",
          "type": "bool"
        }
      ],
      "name": "ApprovalForAll",
      "type": "event"
    },
    {
      "anonymous": false,
      "inputs": [
        {
          "indexed": true,
          "internalType": "address",
          "name": "from",
          "type": "address"
        },
        {
          "indexed": true,
          "internalType": "address",
          "name": "to",
          "type": "address"
        },
        {
          "indexed": true,
          "internalType": "uint256",
          "name": "tokenId",
          "type": "uint256"
        }
      ],
      "name": "Transfer",
      "type": "event"
    },
    {
      "inputs": [],
      "name": "Url",
      "outputs": [
        {
          "internalType": "string",
          "name": "",
          "type": "string"
        }
      ],
      "stateMutability": "view",
      "type": "function"
    },
    {
      "inputs": [],
      "name": "_description",
      "outputs": [
        {
          "internalType": "string",
          "name": "",
          "type": "string"
        }
      ],
      "stateMutability": "view",
      "type": "function"
    },
    {
      "inputs": [],
      "name": "_id",
      "outputs": [
        {
          "internalType": "uint256",
          "name": "",
          "type": "uint256"
        }
      ],
      "stateMutability": "view",
      "type": "function"
    },
    {
      "inputs": [],
      "name": "_imagehash",
      "outputs": [
        {
          "internalType": "string",
          "name": "",
          "type": "string"
        }
      ],
      "stateMutability": "view",
      "type": "function"
    },
    {
      "inputs": [],
      "name": "_name",
      "outputs": [
        {
          "internalType": "string",
          "name": "",
          "type": "string"
        }
      ],
      "stateMutability": "view",
      "type": "function"
    },
    {
      "inputs": [],
      "name": "_owner",
      "outputs": [
        {
          "internalType": "address",
          "name": "",
          "type": "address"
        }
      ],
      "stateMutability": "view",
      "type": "function"
    },
    {
      "inputs": [
        {
          "internalType": "address",
          "name": "to",
          "type": "address"
        },
        {
          "internalType": "uint256",
          "name": "tokenId",
          "type": "uint256"
        }
      ],
      "name": "approve",
      "outputs": [],
      "stateMutability": "nonpayable",
      "type": "function"
    },
    {
      "inputs": [
        {
          "internalType": "address",
          "name": "owner",
          "type": "address"
        }
      ],
      "name": "balanceOf",
      "outputs": [
        {
          "internalType": "uint256",
          "name": "",
          "type": "uint256"
        }
      ],
      "stateMutability": "view",
      "type": "function"
    },
    {
      "inputs": [
        {
          "internalType": "uint256",
          "name": "tokenId",
          "type": "uint256"
        }
      ],
      "name": "getApproved",
      "outputs": [
        {
          "internalType": "address",
          "name": "",
          "type": "address"
        }
      ],
      "stateMutability": "view",
      "type": "function"
    },
    {
      "inputs": [
        {
          "internalType": "address",
          "name": "owner",
          "type": "address"
        },
        {
          "internalType": "address",
          "name": "operator",
          "type": "address"
        }
      ],
      "name": "isApprovedForAll",
      "outputs": [
        {
          "internalType": "bool",
          "name": "",
          "type": "bool"
        }
      ],
      "stateMutability": "view",
      "type": "function"
    },
    {
      "inputs": [],
      "name": "name",
      "outputs": [
        {
          "internalType": "string",
          "name": "",
          "type": "string"
        }
      ],
      "stateMutability": "view",
      "type": "function"
    },
    {
      "inputs": [
        {
          "internalType": "uint256",
          "name": "tokenId",
          "type": "uint256"
        }
      ],
      "name": "ownerOf",
      "outputs": [
        {
          "internalType": "address",
          "name": "",
          "type": "address"
        }
      ],
      "stateMutability": "view",
      "type": "function"
    },
    {
      "inputs": [
        {
          "internalType": "address",
          "name": "from",
          "type": "address"
        },
        {
          "internalType": "address",
          "name": "to",
          "type": "address"
        },
        {
          "internalType": "uint256",
          "name": "tokenId",
          "type": "uint256"
        }
      ],
      "name": "safeTransferFrom",
      "outputs": [],
      "stateMutability": "nonpayable",
      "type": "function"
    },
    {
      "inputs": [
        {
          "internalType": "address",
          "name": "from",
          "type": "address"
        },
        {
          "internalType": "address",
          "name": "to",
          "type": "address"
        },
        {
          "internalType": "uint256",
          "name": "tokenId",
          "type": "uint256"
        },
        {
          "internalType": "bytes",
          "name": "_data",
          "type": "bytes"
        }
      ],
      "name": "safeTransferFrom",
      "outputs": [],
      "stateMutability": "nonpayable",
      "type": "function"
    },
    {
      "inputs": [
        {
          "internalType": "address",
          "name": "operator",
          "type": "address"
        },
        {
          "internalType": "bool",
          "name": "approved",
          "type": "bool"
        }
      ],
      "name": "setApprovalForAll",
      "outputs": [],
      "stateMutability": "nonpayable",
      "type": "function"
    },
    {
      "inputs": [
        {
          "internalType": "bytes4",
          "name": "interfaceId",
          "type": "bytes4"
        }
      ],
      "name": "supportsInterface",
      "outputs": [
        {
          "internalType": "bool",
          "name": "",
          "type": "bool"
        }
      ],
      "stateMutability": "view",
      "type": "function"
    },
    {
      "inputs": [],
      "name": "symbol",
      "outputs": [
        {
          "internalType": "string",
          "name": "",
          "type": "string"
        }
      ],
      "stateMutability": "view",
      "type": "function"
    },
    {
      "inputs": [
        {
          "internalType": "address",
          "name": "from",
          "type": "address"
        },
        {
          "internalType": "address",
          "name": "to",
          "type": "address"
        },
        {
          "internalType": "uint256",
          "name": "tokenId",
          "type": "uint256"
        }
      ],
      "name": "transferFrom",
      "outputs": [],
      "stateMutability": "nonpayable",
      "type": "function"
    },
    {
      "inputs": [
        {
          "internalType": "uint256",
          "name": "tokenId",
          "type": "uint256"
        }
      ],
      "name": "tokenURI",
      "outputs": [
        {
          "internalType": "string",
          "name": "",
          "type": "string"
        }
      ],
      "stateMutability": "view",
      "type": "function"
    },
    {
      "inputs": [
        {
          "internalType": "address",
          "name": "buyer",
          "type": "address"
        }
      ],
      "name": "transfert",
      "outputs": [
        {
          "internalType": "bool",
          "name": "res",
          "type": "bool"
        }
      ],
      "stateMutability": "nonpayable",
      "type": "function"
    },
    {
      "inputs": [],
      "name": "UrlT",
      "outputs": [
        {
          "internalType": "string",
          "name": "",
          "type": "string"
        }
      ],
      "stateMutability": "view",
      "type": "function"
    }
  ],
  "bytecode": "0x60806040523480156200001157600080fd5b506040516200426f3803806200426f833981810160405281019062000037919062000a83565b868581600090805190602001906200005192919062000796565b5080600190805190602001906200006a92919062000796565b50505086600790805190602001906200008592919062000796565b5085600890805190602001906200009e92919062000796565b508460099080519060200190620000b792919062000796565b5082600660006101000a81548173ffffffffffffffffffffffffffffffffffffffff021916908373ffffffffffffffffffffffffffffffffffffffff16021790555081600b8190555080600a90805190602001906200011892919062000796565b506200014f600660009054906101000a900473ffffffffffffffffffffffffffffffffffffffff16600b546200018760201b60201c565b62000162600b546200036d60201b60201c565b600a90805190602001906200017992919062000796565b50505050505050506200141d565b600073ffffffffffffffffffffffffffffffffffffffff168273ffffffffffffffffffffffffffffffffffffffff161415620001fa576040517f08c379a0000000000000000000000000000000000000000000000000000000008152600401620001f19062000c13565b60405180910390fd5b6200020b81620003f160201b60201c565b156200024e576040517f08c379a0000000000000000000000000000000000000000000000000000000008152600401620002459062000c85565b60405180910390fd5b62000262600083836200045d60201b60201c565b6001600360008473ffffffffffffffffffffffffffffffffffffffff1673ffffffffffffffffffffffffffffffffffffffff1681526020019081526020016000206000828254620002b4919062000cd6565b92505081905550816002600083815260200190815260200160002060006101000a81548173ffffffffffffffffffffffffffffffffffffffff021916908373ffffffffffffffffffffffffffffffffffffffff160217905550808273ffffffffffffffffffffffffffffffffffffffff16600073ffffffffffffffffffffffffffffffffffffffff167fddf252ad1be2c89b69c2b068fc378daa952ba7f163c4a11628f55a4df523b3ef60405160405180910390a45050565b60606000620003c5600780600860096200038f600b546200046260201b60201c565b604051602001620003a595949392919062001105565b6040516020818303038152906040526200060860201b620010101760201c565b905080604051602001620003da91906200122c565b604051602081830303815290604052915050919050565b60008073ffffffffffffffffffffffffffffffffffffffff166002600084815260200190815260200160002060009054906101000a900473ffffffffffffffffffffffffffffffffffffffff1673ffffffffffffffffffffffffffffffffffffffff1614159050919050565b505050565b60606000821415620004ac576040518060400160405280600181526020017f3000000000000000000000000000000000000000000000000000000000000000815250905062000603565b600082905060005b60008214620004e4578080620004ca9062001252565b915050600a82620004dc9190620012cf565b9150620004b4565b60008167ffffffffffffffff81111562000503576200050262000875565b5b6040519080825280601f01601f191660200182016040528015620005365781602001600182028036833780820191505090505b50905060008290505b60008614620005fb5760018162000557919062001307565b90506000600a80886200056b9190620012cf565b62000577919062001342565b8762000584919062001307565b6030620005929190620013b0565b905060008160f81b905080848481518110620005b357620005b2620013ee565b5b60200101907effffffffffffffffffffffffffffffffffffffffffffffffffffffffffffff1916908160001a905350600a88620005f19190620012cf565b975050506200053f565b819450505050505b919050565b60606000825114156200062d5760405180602001604052806000815250905062000791565b60006040518060600160405280604081526020016200422f60409139905060006003600285516200065f919062000cd6565b6200066b9190620012cf565b600462000679919062001342565b905060006020826200068c919062000cd6565b67ffffffffffffffff811115620006a857620006a762000875565b5b6040519080825280601f01601f191660200182016040528015620006db5781602001600182028036833780820191505090505b509050818152600183018586518101602084015b818310156200074c576003830192508251603f8160121c168501518253600182019150603f81600c1c168501518253600182019150603f8160061c168501518253600182019150603f8116850151825360018201915050620006ef565b6003895106600181146200076957600281146200077a5762000785565b613d3d60f01b600283035262000785565b603d60f81b60018303525b50505050508093505050505b919050565b828054620007a49062000dbd565b90600052602060002090601f016020900481019282620007c8576000855562000814565b82601f10620007e357805160ff191683800117855562000814565b8280016001018555821562000814579182015b8281111562000813578251825591602001919060010190620007f6565b5b50905062000823919062000827565b5090565b5b808211156200084257600081600090555060010162000828565b5090565b6000604051905090565b600080fd5b600080fd5b600080fd5b600080fd5b6000601f19601f8301169050919050565b7f4e487b7100000000000000000000000000000000000000000000000000000000600052604160045260246000fd5b620008af8262000864565b810181811067ffffffffffffffff82111715620008d157620008d062000875565b5b80604052505050565b6000620008e662000846565b9050620008f48282620008a4565b919050565b600067ffffffffffffffff82111562000917576200091662000875565b5b620009228262000864565b9050602081019050919050565b60005b838110156200094f57808201518184015260208101905062000932565b838111156200095f576000848401525b50505050565b60006200097c6200097684620008f9565b620008da565b9050828152602081018484840111156200099b576200099a6200085f565b5b620009a88482856200092f565b509392505050565b600082601f830112620009c857620009c76200085a565b5b8151620009da84826020860162000965565b91505092915050565b600073ffffffffffffffffffffffffffffffffffffffff82169050919050565b600062000a1082620009e3565b9050919050565b62000a228162000a03565b811462000a2e57600080fd5b50565b60008151905062000a428162000a17565b92915050565b6000819050919050565b62000a5d8162000a48565b811462000a6957600080fd5b50565b60008151905062000a7d8162000a52565b92915050565b600080600080600080600060e0888a03121562000aa55762000aa462000850565b5b600088015167ffffffffffffffff81111562000ac65762000ac562000855565b5b62000ad48a828b01620009b0565b975050602088015167ffffffffffffffff81111562000af85762000af762000855565b5b62000b068a828b01620009b0565b965050604088015167ffffffffffffffff81111562000b2a5762000b2962000855565b5b62000b388a828b01620009b0565b955050606062000b4b8a828b0162000a31565b945050608062000b5e8a828b0162000a31565b93505060a062000b718a828b0162000a6c565b92505060c088015167ffffffffffffffff81111562000b955762000b9462000855565b5b62000ba38a828b01620009b0565b91505092959891949750929550565b600082825260208201905092915050565b7f4552433732313a206d696e7420746f20746865207a65726f2061646472657373600082015250565b600062000bfb60208362000bb2565b915062000c088262000bc3565b602082019050919050565b6000602082019050818103600083015262000c2e8162000bec565b9050919050565b7f4552433732313a20746f6b656e20616c7265616479206d696e74656400000000600082015250565b600062000c6d601c8362000bb2565b915062000c7a8262000c35565b602082019050919050565b6000602082019050818103600083015262000ca08162000c5e565b9050919050565b7f4e487b7100000000000000000000000000000000000000000000000000000000600052601160045260246000fd5b600062000ce38262000a48565b915062000cf08362000a48565b9250827fffffffffffffffffffffffffffffffffffffffffffffffffffffffffffffffff0382111562000d285762000d2762000ca7565b5b828201905092915050565b600081905092915050565b7f7b22000000000000000000000000000000000000000000000000000000000000600082015250565b600062000d7660028362000d33565b915062000d838262000d3e565b600282019050919050565b7f4e487b7100000000000000000000000000000000000000000000000000000000600052602260045260246000fd5b6000600282049050600182168062000dd657607f821691505b6020821081141562000ded5762000dec62000d8e565b5b50919050565b60008190508160005260206000209050919050565b6000815462000e178162000dbd565b62000e23818662000d33565b9450600182166000811462000e41576001811462000e535762000e8a565b60ff1983168652818601935062000e8a565b62000e5e8562000df3565b60005b8381101562000e825781548189015260018201915060208101905062000e61565b838801955050505b50505092915050565b7f223a5b7b224e616d65223a220000000000000000000000000000000000000000600082015250565b600062000ecb600c8362000d33565b915062000ed88262000e93565b600c82019050919050565b7f222c000000000000000000000000000000000000000000000000000000000000600082015250565b600062000f1b60028362000d33565b915062000f288262000ee3565b600282019050919050565b7f224465736372697074696f6e223a220000000000000000000000000000000000600082015250565b600062000f6b600f8362000d33565b915062000f788262000f33565b600f82019050919050565b7f22496d616765223a220000000000000000000000000000000000000000000000600082015250565b600062000fbb60098362000d33565b915062000fc88262000f83565b600982019050919050565b7f224964223a220000000000000000000000000000000000000000000000000000600082015250565b60006200100b60068362000d33565b9150620010188262000fd3565b600682019050919050565b600081519050919050565b60006200103b8262001023565b62001047818562000d33565b9350620010598185602086016200092f565b80840191505092915050565b7f2200000000000000000000000000000000000000000000000000000000000000600082015250565b60006200109d60018362000d33565b9150620010aa8262001065565b600182019050919050565b7f7d5d7d0000000000000000000000000000000000000000000000000000000000600082015250565b6000620010ed60038362000d33565b9150620010fa82620010b5565b600382019050919050565b6000620011128262000d67565b915062001120828862000e08565b91506200112d8262000ebc565b91506200113b828762000e08565b9150620011488262000f0c565b9150620011558262000f5c565b915062001163828662000e08565b9150620011708262000f0c565b91506200117d8262000fac565b91506200118b828562000e08565b9150620011988262000f0c565b9150620011a58262000ffc565b9150620011b382846200102e565b9150620011c0826200108e565b9150620011cd82620010de565b91508190509695505050505050565b7f646174613a6170706c69636174696f6e2f6a736f6e3b6261736536342c000000600082015250565b600062001214601d8362000d33565b91506200122182620011dc565b601d82019050919050565b6000620012398262001205565b91506200124782846200102e565b915081905092915050565b60006200125f8262000a48565b91507fffffffffffffffffffffffffffffffffffffffffffffffffffffffffffffffff82141562001295576200129462000ca7565b5b600182019050919050565b7f4e487b7100000000000000000000000000000000000000000000000000000000600052601260045260246000fd5b6000620012dc8262000a48565b9150620012e98362000a48565b925082620012fc57620012fb620012a0565b5b828204905092915050565b6000620013148262000a48565b9150620013218362000a48565b92508282101562001337576200133662000ca7565b5b828203905092915050565b60006200134f8262000a48565b91506200135c8362000a48565b9250817fffffffffffffffffffffffffffffffffffffffffffffffffffffffffffffffff048311821515161562001398576200139762000ca7565b5b828202905092915050565b600060ff82169050919050565b6000620013bd82620013a3565b9150620013ca83620013a3565b92508260ff03821115620013e357620013e262000ca7565b5b828201905092915050565b7f4e487b7100000000000000000000000000000000000000000000000000000000600052603260045260246000fd5b612e02806200142d6000396000f3fe608060405234801561001057600080fd5b50600436106101375760003560e01c80636352211e116100b8578063b2bdfa7b1161007c578063b2bdfa7b14610350578063b88d4fde1461036e578063c87b56dd1461038a578063cfa84dfe146103ba578063d28d8852146103d8578063e985e9c5146103f657610137565b80636352211e1461029857806370a08231146102c85780638d21df8c146102f857806395d89b4114610316578063a22cb4651461033457610137565b806321d0af11116100ff57806321d0af11146101f457806323b872dd14610224578063314df577146102405780633fd218a51461025e57806342842e0e1461027c57610137565b806301ffc9a71461013c578063051802371461016c57806306fdde031461018a578063081812fc146101a8578063095ea7b3146101d8575b600080fd5b61015660048036038101906101519190611a4b565b610426565b6040516101639190611a93565b60405180910390f35b610174610508565b6040516101819190611ac7565b60405180910390f35b61019261050e565b60405161019f9190611b7b565b60405180910390f35b6101c260048036038101906101bd9190611bc9565b6105a0565b6040516101cf9190611c37565b60405180910390f35b6101f260048036038101906101ed9190611c7e565b610625565b005b61020e60048036038101906102099190611cbe565b61073d565b60405161021b9190611a93565b60405180910390f35b61023e60048036038101906102399190611ceb565b6107c2565b005b610248610822565b6040516102559190611b7b565b60405180910390f35b6102666108b4565b6040516102739190611b7b565b60405180910390f35b61029660048036038101906102919190611ceb565b610942565b005b6102b260048036038101906102ad9190611bc9565b610962565b6040516102bf9190611c37565b60405180910390f35b6102e260048036038101906102dd9190611cbe565b610a14565b6040516102ef9190611ac7565b60405180910390f35b610300610acc565b60405161030d9190611b7b565b60405180910390f35b61031e610b5a565b60405161032b9190611b7b565b60405180910390f35b61034e60048036038101906103499190611d6a565b610bec565b005b610358610d6d565b6040516103659190611c37565b60405180910390f35b61038860048036038101906103839190611edf565b610d93565b005b6103a4600480360381019061039f9190611bc9565b610df5565b6040516103b19190611b7b565b60405180910390f35b6103c2610e60565b6040516103cf9190611b7b565b60405180910390f35b6103e0610eee565b6040516103ed9190611b7b565b60405180910390f35b610410600480360381019061040b9190611f62565b610f7c565b60405161041d9190611a93565b60405180910390f35b60007f80ac58cd000000000000000000000000000000000000000000000000000000007bffffffffffffffffffffffffffffffffffffffffffffffffffffffff1916827bffffffffffffffffffffffffffffffffffffffffffffffffffffffff191614806104f157507f5b5e139f000000000000000000000000000000000000000000000000000000007bffffffffffffffffffffffffffffffffffffffffffffffffffffffff1916827bffffffffffffffffffffffffffffffffffffffffffffffffffffffff1916145b80610501575061050082611189565b5b9050919050565b600b5481565b60606000805461051d90611fd1565b80601f016020809104026020016040519081016040528092919081815260200182805461054990611fd1565b80156105965780601f1061056b57610100808354040283529160200191610596565b820191906000526020600020905b81548152906001019060200180831161057957829003601f168201915b5050505050905090565b60006105ab826111f3565b6105ea576040517f08c379a00000000000000000000000000000000000000000000000000000000081526004016105e190612075565b60405180910390fd5b6004600083815260200190815260200160002060009054906101000a900473ffffffffffffffffffffffffffffffffffffffff169050919050565b600061063082610962565b90508073ffffffffffffffffffffffffffffffffffffffff168373ffffffffffffffffffffffffffffffffffffffff1614156106a1576040517f08c379a000000000000000000000000000000000000000000000000000000000815260040161069890612107565b60405180910390fd5b8073ffffffffffffffffffffffffffffffffffffffff166106c061125f565b73ffffffffffffffffffffffffffffffffffffffff1614806106ef57506106ee816106e961125f565b610f7c565b5b61072e576040517f08c379a000000000000000000000000000000000000000000000000000000000815260040161072590612199565b60405180910390fd5b6107388383611267565b505050565b600061076e600660009054906101000a900473ffffffffffffffffffffffffffffffffffffffff1683600b54611320565b610779600b54610962565b600660006101000a81548173ffffffffffffffffffffffffffffffffffffffff021916908373ffffffffffffffffffffffffffffffffffffffff16021790555060019050919050565b6107d36107cd61125f565b8261157c565b610812576040517f08c379a00000000000000000000000000000000000000000000000000000000081526004016108099061222b565b60405180910390fd5b61081d838383611320565b505050565b6060600a805461083190611fd1565b80601f016020809104026020016040519081016040528092919081815260200182805461085d90611fd1565b80156108aa5780601f1061087f576101008083540402835291602001916108aa565b820191906000526020600020905b81548152906001019060200180831161088d57829003601f168201915b5050505050905090565b600980546108c190611fd1565b80601f01602080910402602001604051908101604052809291908181526020018280546108ed90611fd1565b801561093a5780601f1061090f5761010080835404028352916020019161093a565b820191906000526020600020905b81548152906001019060200180831161091d57829003601f168201915b505050505081565b61095d83838360405180602001604052806000815250610d93565b505050565b6000806002600084815260200190815260200160002060009054906101000a900473ffffffffffffffffffffffffffffffffffffffff169050600073ffffffffffffffffffffffffffffffffffffffff168173ffffffffffffffffffffffffffffffffffffffff161415610a0b576040517f08c379a0000000000000000000000000000000000000000000000000000000008152600401610a02906122bd565b60405180910390fd5b80915050919050565b60008073ffffffffffffffffffffffffffffffffffffffff168273ffffffffffffffffffffffffffffffffffffffff161415610a85576040517f08c379a0000000000000000000000000000000000000000000000000000000008152600401610a7c9061234f565b60405180910390fd5b600360008373ffffffffffffffffffffffffffffffffffffffff1673ffffffffffffffffffffffffffffffffffffffff168152602001908152602001600020549050919050565b600a8054610ad990611fd1565b80601f0160208091040260200160405190810160405280929190818152602001828054610b0590611fd1565b8015610b525780601f10610b2757610100808354040283529160200191610b52565b820191906000526020600020905b815481529060010190602001808311610b3557829003601f168201915b505050505081565b606060018054610b6990611fd1565b80601f0160208091040260200160405190810160405280929190818152602001828054610b9590611fd1565b8015610be25780601f10610bb757610100808354040283529160200191610be2565b820191906000526020600020905b815481529060010190602001808311610bc557829003601f168201915b5050505050905090565b610bf461125f565b73ffffffffffffffffffffffffffffffffffffffff168273ffffffffffffffffffffffffffffffffffffffff161415610c62576040517f08c379a0000000000000000000000000000000000000000000000000000000008152600401610c59906123bb565b60405180910390fd5b8060056000610c6f61125f565b73ffffffffffffffffffffffffffffffffffffffff1673ffffffffffffffffffffffffffffffffffffffff16815260200190815260200160002060008473ffffffffffffffffffffffffffffffffffffffff1673ffffffffffffffffffffffffffffffffffffffff16815260200190815260200160002060006101000a81548160ff0219169083151502179055508173ffffffffffffffffffffffffffffffffffffffff16610d1c61125f565b73ffffffffffffffffffffffffffffffffffffffff167f17307eab39ab6107e8899845ad3d59bd9653f200f220920489ca2b5937696c3183604051610d619190611a93565b60405180910390a35050565b600660009054906101000a900473ffffffffffffffffffffffffffffffffffffffff1681565b610da4610d9e61125f565b8361157c565b610de3576040517f08c379a0000000000000000000000000000000000000000000000000000000008152600401610dda9061222b565b60405180910390fd5b610def8484848461165a565b50505050565b60606000610e3660078060086009610e0e600b546116b6565b604051602001610e2295949392919061270b565b604051602081830303815290604052611010565b905080604051602001610e499190612810565b604051602081830303815290604052915050919050565b60088054610e6d90611fd1565b80601f0160208091040260200160405190810160405280929190818152602001828054610e9990611fd1565b8015610ee65780601f10610ebb57610100808354040283529160200191610ee6565b820191906000526020600020905b815481529060010190602001808311610ec957829003601f168201915b505050505081565b60078054610efb90611fd1565b80601f0160208091040260200160405190810160405280929190818152602001828054610f2790611fd1565b8015610f745780601f10610f4957610100808354040283529160200191610f74565b820191906000526020600020905b815481529060010190602001808311610f5757829003601f168201915b505050505081565b6000600560008473ffffffffffffffffffffffffffffffffffffffff1673ffffffffffffffffffffffffffffffffffffffff16815260200190815260200160002060008373ffffffffffffffffffffffffffffffffffffffff1673ffffffffffffffffffffffffffffffffffffffff16815260200190815260200160002060009054906101000a900460ff16905092915050565b606060008251141561103357604051806020016040528060008152509050611184565b6000604051806060016040528060408152602001612d8d60409139905060006003600285516110629190612861565b61106c91906128e6565b60046110789190612917565b905060006020826110899190612861565b67ffffffffffffffff8111156110a2576110a1611db4565b5b6040519080825280601f01601f1916602001820160405280156110d45781602001600182028036833780820191505090505b509050818152600183018586518101602084015b81831015611143576003830192508251603f8160121c168501518253600182019150603f81600c1c168501518253600182019150603f8160061c168501518253600182019150603f81168501518253600182019150506110e8565b60038951066001811461115d576002811461116d57611178565b613d3d60f01b6002830352611178565b603d60f81b60018303525b50505050508093505050505b919050565b60007f01ffc9a7000000000000000000000000000000000000000000000000000000007bffffffffffffffffffffffffffffffffffffffffffffffffffffffff1916827bffffffffffffffffffffffffffffffffffffffffffffffffffffffff1916149050919050565b60008073ffffffffffffffffffffffffffffffffffffffff166002600084815260200190815260200160002060009054906101000a900473ffffffffffffffffffffffffffffffffffffffff1673ffffffffffffffffffffffffffffffffffffffff1614159050919050565b600033905090565b816004600083815260200190815260200160002060006101000a81548173ffffffffffffffffffffffffffffffffffffffff021916908373ffffffffffffffffffffffffffffffffffffffff160217905550808273ffffffffffffffffffffffffffffffffffffffff166112da83610962565b73ffffffffffffffffffffffffffffffffffffffff167f8c5be1e5ebec7d5bd14f71427d1e84f3dd0314c0f7b2291e5b200ac8c7c3b92560405160405180910390a45050565b8273ffffffffffffffffffffffffffffffffffffffff1661134082610962565b73ffffffffffffffffffffffffffffffffffffffff1614611396576040517f08c379a000000000000000000000000000000000000000000000000000000000815260040161138d906129e3565b60405180910390fd5b600073ffffffffffffffffffffffffffffffffffffffff168273ffffffffffffffffffffffffffffffffffffffff161415611406576040517f08c379a00000000000000000000000000000000000000000000000000000000081526004016113fd90612a75565b60405180910390fd5b61141183838361183f565b61141c600082611267565b6001600360008573ffffffffffffffffffffffffffffffffffffffff1673ffffffffffffffffffffffffffffffffffffffff168152602001908152602001600020600082825461146c9190612a95565b925050819055506001600360008473ffffffffffffffffffffffffffffffffffffffff1673ffffffffffffffffffffffffffffffffffffffff16815260200190815260200160002060008282546114c39190612861565b92505081905550816002600083815260200190815260200160002060006101000a81548173ffffffffffffffffffffffffffffffffffffffff021916908373ffffffffffffffffffffffffffffffffffffffff160217905550808273ffffffffffffffffffffffffffffffffffffffff168473ffffffffffffffffffffffffffffffffffffffff167fddf252ad1be2c89b69c2b068fc378daa952ba7f163c4a11628f55a4df523b3ef60405160405180910390a4505050565b6000611587826111f3565b6115c6576040517f08c379a00000000000000000000000000000000000000000000000000000000081526004016115bd90612b3b565b60405180910390fd5b60006115d183610962565b90508073ffffffffffffffffffffffffffffffffffffffff168473ffffffffffffffffffffffffffffffffffffffff16148061164057508373ffffffffffffffffffffffffffffffffffffffff16611628846105a0565b73ffffffffffffffffffffffffffffffffffffffff16145b8061165157506116508185610f7c565b5b91505092915050565b611665848484611320565b61167184848484611844565b6116b0576040517f08c379a00000000000000000000000000000000000000000000000000000000081526004016116a790612bcd565b60405180910390fd5b50505050565b606060008214156116fe576040518060400160405280600181526020017f3000000000000000000000000000000000000000000000000000000000000000815250905061183a565b600082905060005b6000821461173057808061171990612bed565b915050600a8261172991906128e6565b9150611706565b60008167ffffffffffffffff81111561174c5761174b611db4565b5b6040519080825280601f01601f19166020018201604052801561177e5781602001600182028036833780820191505090505b50905060008290505b600086146118325760018161179c9190612a95565b90506000600a80886117ae91906128e6565b6117b89190612917565b876117c39190612a95565b60306117cf9190612c43565b905060008160f81b9050808484815181106117ed576117ec612c7a565b5b60200101907effffffffffffffffffffffffffffffffffffffffffffffffffffffffffffff1916908160001a905350600a8861182991906128e6565b97505050611787565b819450505050505b919050565b505050565b60006118658473ffffffffffffffffffffffffffffffffffffffff166119cc565b156119bf578373ffffffffffffffffffffffffffffffffffffffff1663150b7a0261188e61125f565b8786866040518563ffffffff1660e01b81526004016118b09493929190612cfe565b6020604051808303816000875af19250505080156118ec57506040513d601f19601f820116820180604052508101906118e99190612d5f565b60015b61196f573d806000811461191c576040519150601f19603f3d011682016040523d82523d6000602084013e611921565b606091505b50600081511415611967576040517f08c379a000000000000000000000000000000000000000000000000000000000815260040161195e90612bcd565b60405180910390fd5b805181602001fd5b63150b7a0260e01b7bffffffffffffffffffffffffffffffffffffffffffffffffffffffff1916817bffffffffffffffffffffffffffffffffffffffffffffffffffffffff1916149150506119c4565b600190505b949350505050565b600080823b905060008111915050919050565b6000604051905090565b600080fd5b600080fd5b60007fffffffff0000000000000000000000000000000000000000000000000000000082169050919050565b611a28816119f3565b8114611a3357600080fd5b50565b600081359050611a4581611a1f565b92915050565b600060208284031215611a6157611a606119e9565b5b6000611a6f84828501611a36565b91505092915050565b60008115159050919050565b611a8d81611a78565b82525050565b6000602082019050611aa86000830184611a84565b92915050565b6000819050919050565b611ac181611aae565b82525050565b6000602082019050611adc6000830184611ab8565b92915050565b600081519050919050565b600082825260208201905092915050565b60005b83811015611b1c578082015181840152602081019050611b01565b83811115611b2b576000848401525b50505050565b6000601f19601f8301169050919050565b6000611b4d82611ae2565b611b578185611aed565b9350611b67818560208601611afe565b611b7081611b31565b840191505092915050565b60006020820190508181036000830152611b958184611b42565b905092915050565b611ba681611aae565b8114611bb157600080fd5b50565b600081359050611bc381611b9d565b92915050565b600060208284031215611bdf57611bde6119e9565b5b6000611bed84828501611bb4565b91505092915050565b600073ffffffffffffffffffffffffffffffffffffffff82169050919050565b6000611c2182611bf6565b9050919050565b611c3181611c16565b82525050565b6000602082019050611c4c6000830184611c28565b92915050565b611c5b81611c16565b8114611c6657600080fd5b50565b600081359050611c7881611c52565b92915050565b60008060408385031215611c9557611c946119e9565b5b6000611ca385828601611c69565b9250506020611cb485828601611bb4565b9150509250929050565b600060208284031215611cd457611cd36119e9565b5b6000611ce284828501611c69565b91505092915050565b600080600060608486031215611d0457611d036119e9565b5b6000611d1286828701611c69565b9350506020611d2386828701611c69565b9250506040611d3486828701611bb4565b9150509250925092565b611d4781611a78565b8114611d5257600080fd5b50565b600081359050611d6481611d3e565b92915050565b60008060408385031215611d8157611d806119e9565b5b6000611d8f85828601611c69565b9250506020611da085828601611d55565b9150509250929050565b600080fd5b600080fd5b7f4e487b7100000000000000000000000000000000000000000000000000000000600052604160045260246000fd5b611dec82611b31565b810181811067ffffffffffffffff82111715611e0b57611e0a611db4565b5b80604052505050565b6000611e1e6119df565b9050611e2a8282611de3565b919050565b600067ffffffffffffffff821115611e4a57611e49611db4565b5b611e5382611b31565b9050602081019050919050565b82818337600083830152505050565b6000611e82611e7d84611e2f565b611e14565b905082815260208101848484011115611e9e57611e9d611daf565b5b611ea9848285611e60565b509392505050565b600082601f830112611ec657611ec5611daa565b5b8135611ed6848260208601611e6f565b91505092915050565b60008060008060808587031215611ef957611ef86119e9565b5b6000611f0787828801611c69565b9450506020611f1887828801611c69565b9350506040611f2987828801611bb4565b925050606085013567ffffffffffffffff811115611f4a57611f496119ee565b5b611f5687828801611eb1565b91505092959194509250565b60008060408385031215611f7957611f786119e9565b5b6000611f8785828601611c69565b9250506020611f9885828601611c69565b9150509250929050565b7f4e487b7100000000000000000000000000000000000000000000000000000000600052602260045260246000fd5b60006002820490506001821680611fe957607f821691505b60208210811415611ffd57611ffc611fa2565b5b50919050565b7f4552433732313a20617070726f76656420717565727920666f72206e6f6e657860008201527f697374656e7420746f6b656e0000000000000000000000000000000000000000602082015250565b600061205f602c83611aed565b915061206a82612003565b604082019050919050565b6000602082019050818103600083015261208e81612052565b9050919050565b7f4552433732313a20617070726f76616c20746f2063757272656e74206f776e6560008201527f7200000000000000000000000000000000000000000000000000000000000000602082015250565b60006120f1602183611aed565b91506120fc82612095565b604082019050919050565b60006020820190508181036000830152612120816120e4565b9050919050565b7f4552433732313a20617070726f76652063616c6c6572206973206e6f74206f7760008201527f6e6572206e6f7220617070726f76656420666f7220616c6c0000000000000000602082015250565b6000612183603883611aed565b915061218e82612127565b604082019050919050565b600060208201905081810360008301526121b281612176565b9050919050565b7f4552433732313a207472616e736665722063616c6c6572206973206e6f74206f60008201527f776e6572206e6f7220617070726f766564000000000000000000000000000000602082015250565b6000612215603183611aed565b9150612220826121b9565b604082019050919050565b6000602082019050818103600083015261224481612208565b9050919050565b7f4552433732313a206f776e657220717565727920666f72206e6f6e657869737460008201527f656e7420746f6b656e0000000000000000000000000000000000000000000000602082015250565b60006122a7602983611aed565b91506122b28261224b565b604082019050919050565b600060208201905081810360008301526122d68161229a565b9050919050565b7f4552433732313a2062616c616e636520717565727920666f7220746865207a6560008201527f726f206164647265737300000000000000000000000000000000000000000000602082015250565b6000612339602a83611aed565b9150612344826122dd565b604082019050919050565b600060208201905081810360008301526123688161232c565b9050919050565b7f4552433732313a20617070726f766520746f2063616c6c657200000000000000600082015250565b60006123a5601983611aed565b91506123b08261236f565b602082019050919050565b600060208201905081810360008301526123d481612398565b9050919050565b600081905092915050565b7f7b22000000000000000000000000000000000000000000000000000000000000600082015250565b600061241c6002836123db565b9150612427826123e6565b600282019050919050565b60008190508160005260206000209050919050565b6000815461245481611fd1565b61245e81866123db565b94506001821660008114612479576001811461248a576124bd565b60ff198316865281860193506124bd565b61249385612432565b60005b838110156124b557815481890152600182019150602081019050612496565b838801955050505b50505092915050565b7f223a5b7b224e616d65223a220000000000000000000000000000000000000000600082015250565b60006124fc600c836123db565b9150612507826124c6565b600c82019050919050565b7f222c000000000000000000000000000000000000000000000000000000000000600082015250565b60006125486002836123db565b915061255382612512565b600282019050919050565b7f224465736372697074696f6e223a220000000000000000000000000000000000600082015250565b6000612594600f836123db565b915061259f8261255e565b600f82019050919050565b7f22496d616765223a220000000000000000000000000000000000000000000000600082015250565b60006125e06009836123db565b91506125eb826125aa565b600982019050919050565b7f224964223a220000000000000000000000000000000000000000000000000000600082015250565b600061262c6006836123db565b9150612637826125f6565b600682019050919050565b600061264d82611ae2565b61265781856123db565b9350612667818560208601611afe565b80840191505092915050565b7f2200000000000000000000000000000000000000000000000000000000000000600082015250565b60006126a96001836123db565b91506126b482612673565b600182019050919050565b7f7d5d7d0000000000000000000000000000000000000000000000000000000000600082015250565b60006126f56003836123db565b9150612700826126bf565b600382019050919050565b60006127168261240f565b91506127228288612447565b915061272d826124ef565b91506127398287612447565b91506127448261253b565b915061274f82612587565b915061275b8286612447565b91506127668261253b565b9150612771826125d3565b915061277d8285612447565b91506127888261253b565b91506127938261261f565b915061279f8284612642565b91506127aa8261269c565b91506127b5826126e8565b91508190509695505050505050565b7f646174613a6170706c69636174696f6e2f6a736f6e3b6261736536342c000000600082015250565b60006127fa601d836123db565b9150612805826127c4565b601d82019050919050565b600061281b826127ed565b91506128278284612642565b915081905092915050565b7f4e487b7100000000000000000000000000000000000000000000000000000000600052601160045260246000fd5b600061286c82611aae565b915061287783611aae565b9250827fffffffffffffffffffffffffffffffffffffffffffffffffffffffffffffffff038211156128ac576128ab612832565b5b828201905092915050565b7f4e487b7100000000000000000000000000000000000000000000000000000000600052601260045260246000fd5b60006128f182611aae565b91506128fc83611aae565b92508261290c5761290b6128b7565b5b828204905092915050565b600061292282611aae565b915061292d83611aae565b9250817fffffffffffffffffffffffffffffffffffffffffffffffffffffffffffffffff048311821515161561296657612965612832565b5b828202905092915050565b7f4552433732313a207472616e73666572206f6620746f6b656e2074686174206960008201527f73206e6f74206f776e0000000000000000000000000000000000000000000000602082015250565b60006129cd602983611aed565b91506129d882612971565b604082019050919050565b600060208201905081810360008301526129fc816129c0565b9050919050565b7f4552433732313a207472616e7366657220746f20746865207a65726f2061646460008201527f7265737300000000000000000000000000000000000000000000000000000000602082015250565b6000612a5f602483611aed565b9150612a6a82612a03565b604082019050919050565b60006020820190508181036000830152612a8e81612a52565b9050919050565b6000612aa082611aae565b9150612aab83611aae565b925082821015612abe57612abd612832565b5b828203905092915050565b7f4552433732313a206f70657261746f7220717565727920666f72206e6f6e657860008201527f697374656e7420746f6b656e0000000000000000000000000000000000000000602082015250565b6000612b25602c83611aed565b9150612b3082612ac9565b604082019050919050565b60006020820190508181036000830152612b5481612b18565b9050919050565b7f4552433732313a207472616e7366657220746f206e6f6e20455243373231526560008201527f63656976657220696d706c656d656e7465720000000000000000000000000000602082015250565b6000612bb7603283611aed565b9150612bc282612b5b565b604082019050919050565b60006020820190508181036000830152612be681612baa565b9050919050565b6000612bf882611aae565b91507fffffffffffffffffffffffffffffffffffffffffffffffffffffffffffffffff821415612c2b57612c2a612832565b5b600182019050919050565b600060ff82169050919050565b6000612c4e82612c36565b9150612c5983612c36565b92508260ff03821115612c6f57612c6e612832565b5b828201905092915050565b7f4e487b7100000000000000000000000000000000000000000000000000000000600052603260045260246000fd5b600081519050919050565b600082825260208201905092915050565b6000612cd082612ca9565b612cda8185612cb4565b9350612cea818560208601611afe565b612cf381611b31565b840191505092915050565b6000608082019050612d136000830187611c28565b612d206020830186611c28565b612d2d6040830185611ab8565b8181036060830152612d3f8184612cc5565b905095945050505050565b600081519050612d5981611a1f565b92915050565b600060208284031215612d7557612d746119e9565b5b6000612d8384828501612d4a565b9150509291505056fe4142434445464748494a4b4c4d4e4f505152535455565758595a6162636465666768696a6b6c6d6e6f707172737475767778797a303132333435363738392b2fa2646970667358221220ffb198dd75c3a184629e726efe6f91fe85c1692bb83ad107f61d326c36960c6964736f6c634300080b00334142434445464748494a4b4c4d4e4f505152535455565758595a6162636465666768696a6b6c6d6e6f707172737475767778797a303132333435363738392b2f",
  "immutableReferences": {},
  "source": "pragma solidity ^0.8.0;\r\n\r\n\r\nimport \"./ItemFarm.sol\";\r\nimport \"@openzeppelin/contracts/token/ERC721/ERC721.sol\";\r\nimport \"@openzeppelin/contracts/access/Ownable.sol\";\r\nimport \"@openzeppelin/contracts/token/ERC721/extensions/ERC721Enumerable.sol\";\r\n\r\n/**\r\n * The ItemTemplate is ERC721 contract does this and that...\r\n */\r\n library Base64 {\r\n    string internal constant TABLE_ENCODE = 'ABCDEFGHIJKLMNOPQRSTUVWXYZabcdefghijklmnopqrstuvwxyz0123456789+/';\r\n    bytes  internal constant TABLE_DECODE = hex\"0000000000000000000000000000000000000000000000000000000000000000\"\r\n                                            hex\"00000000000000000000003e0000003f3435363738393a3b3c3d000000000000\"\r\n                                            hex\"00000102030405060708090a0b0c0d0e0f101112131415161718190000000000\"\r\n                                            hex\"001a1b1c1d1e1f202122232425262728292a2b2c2d2e2f303132330000000000\";\r\n\r\n    function encode(bytes memory data) internal pure returns (string memory) {\r\n        if (data.length == 0) return '';\r\n\r\n        // load the table into memory\r\n        string memory table = TABLE_ENCODE;\r\n\r\n        // multiply by 4/3 rounded up\r\n        uint256 encodedLen = 4 * ((data.length + 2) / 3);\r\n\r\n        // add some extra buffer at the end required for the writing\r\n        string memory result = new string(encodedLen + 32);\r\n\r\n        assembly {\r\n            // set the actual output length\r\n            mstore(result, encodedLen)\r\n\r\n            // prepare the lookup table\r\n            let tablePtr := add(table, 1)\r\n\r\n            // input ptr\r\n            let dataPtr := data\r\n            let endPtr := add(dataPtr, mload(data))\r\n\r\n            // result ptr, jump over length\r\n            let resultPtr := add(result, 32)\r\n\r\n            // run over the input, 3 bytes at a time\r\n            for {} lt(dataPtr, endPtr) {}\r\n            {\r\n                // read 3 bytes\r\n                dataPtr := add(dataPtr, 3)\r\n                let input := mload(dataPtr)\r\n\r\n                // write 4 characters\r\n                mstore8(resultPtr, mload(add(tablePtr, and(shr(18, input), 0x3F))))\r\n                resultPtr := add(resultPtr, 1)\r\n                mstore8(resultPtr, mload(add(tablePtr, and(shr(12, input), 0x3F))))\r\n                resultPtr := add(resultPtr, 1)\r\n                mstore8(resultPtr, mload(add(tablePtr, and(shr( 6, input), 0x3F))))\r\n                resultPtr := add(resultPtr, 1)\r\n                mstore8(resultPtr, mload(add(tablePtr, and(        input,  0x3F))))\r\n                resultPtr := add(resultPtr, 1)\r\n            }\r\n\r\n            // padding with '='\r\n            switch mod(mload(data), 3)\r\n            case 1 { mstore(sub(resultPtr, 2), shl(240, 0x3d3d)) }\r\n            case 2 { mstore(sub(resultPtr, 1), shl(248, 0x3d)) }\r\n        }\r\n\r\n        return result;\r\n    }\r\n\r\n    function decode(string memory _data) internal pure returns (bytes memory) {\r\n        bytes memory data = bytes(_data);\r\n\r\n        if (data.length == 0) return new bytes(0);\r\n        require(data.length % 4 == 0, \"invalid base64 decoder input\");\r\n\r\n        // load the table into memory\r\n        bytes memory table = TABLE_DECODE;\r\n\r\n        // every 4 characters represent 3 bytes\r\n        uint256 decodedLen = (data.length / 4) * 3;\r\n\r\n        // add some extra buffer at the end required for the writing\r\n        bytes memory result = new bytes(decodedLen + 32);\r\n\r\n        assembly {\r\n            // padding with '='\r\n            let lastBytes := mload(add(data, mload(data)))\r\n            if eq(and(lastBytes, 0xFF), 0x3d) {\r\n                decodedLen := sub(decodedLen, 1)\r\n                if eq(and(lastBytes, 0xFFFF), 0x3d3d) {\r\n                    decodedLen := sub(decodedLen, 1)\r\n                }\r\n            }\r\n\r\n            // set the actual output length\r\n            mstore(result, decodedLen)\r\n\r\n            // prepare the lookup table\r\n            let tablePtr := add(table, 1)\r\n\r\n            // input ptr\r\n            let dataPtr := data\r\n            let endPtr := add(dataPtr, mload(data))\r\n\r\n            // result ptr, jump over length\r\n            let resultPtr := add(result, 32)\r\n\r\n            // run over the input, 4 characters at a time\r\n            for {} lt(dataPtr, endPtr) {}\r\n            {\r\n               // read 4 characters\r\n               dataPtr := add(dataPtr, 4)\r\n               let input := mload(dataPtr)\r\n\r\n               // write 3 bytes\r\n               let output := add(\r\n                   add(\r\n                       shl(18, and(mload(add(tablePtr, and(shr(24, input), 0xFF))), 0xFF)),\r\n                       shl(12, and(mload(add(tablePtr, and(shr(16, input), 0xFF))), 0xFF))),\r\n                   add(\r\n                       shl( 6, and(mload(add(tablePtr, and(shr( 8, input), 0xFF))), 0xFF)),\r\n                               and(mload(add(tablePtr, and(        input , 0xFF))), 0xFF)\r\n                    )\r\n                )\r\n                mstore(resultPtr, shl(232, output))\r\n                resultPtr := add(resultPtr, 3)\r\n            }\r\n        }\r\n\r\n        return result;\r\n    }\r\n}\r\n\r\n\r\n\r\n\r\n contract ItemTemplate is ERC721 /*ERC721Enumerable,Ownable*/ {\r\n \taddress public _owner;\r\n \tstring public _name;\r\n \tstring public _description;\r\n \tstring public _imagehash;\r\n \tstring public Url;\r\n  uint public _id;\r\n  ItemFarm itemfarm;\r\n \t\r\n  \r\n\r\n\r\n  constructor(string memory Name,\r\n  \t\t\t  string memory description,\r\n  \t\t\t  string memory ImageHash,\r\n  \t\t\t  address Loanitem,\r\n  \t\t\t  address owner,\r\n  \t\t\t  uint id,\r\n          string memory URL ) \r\n  \t\t\tpublic ERC721(Name,ImageHash) {\r\n  \t\r\n\r\n  \t_name = Name;\r\n  \t_description = description;\r\n  \t_imagehash = ImageHash;\r\n  \t_owner = owner;\r\n  \t//loanitem = LoanItem(Loanitem);\r\n  \t_id = id;\r\n    Url = URL;\r\n  \t//da aggiungere metadati json URL\r\n\r\n  \t_mint(_owner,_id);\r\n\r\n    Url = tokenURI(_id);\r\n\r\n  }\r\n  \r\n     function uint2str(uint _i) internal pure returns (string memory _uintAsString) {\r\n        if (_i == 0) {\r\n            return \"0\";\r\n        }\r\n        uint j = _i;\r\n        uint len;\r\n        while (j != 0) {\r\n            len++;\r\n            j /= 10;\r\n        }\r\n        bytes memory bstr = new bytes(len);\r\n        uint k = len;\r\n        while (_i != 0) {\r\n            k = k-1;\r\n            uint8 temp = (48 + uint8(_i - _i / 10 * 10));\r\n            bytes1 b1 = bytes1(temp);\r\n            bstr[k] = b1;\r\n            _i /= 10;\r\n        }\r\n        return string(bstr);\r\n    }\r\n\r\n\r\n\r\n\r\n    function tokenURI(uint256 tokenId) override(ERC721) public view returns (string memory) {\r\n        string memory json = Base64.encode(\r\n            bytes(string(\r\n                abi.encodePacked(\r\n\r\n               '{\"',_name,'\":[{\"Name\":\"',_name,'\",',\r\n                  '\"Description\":\"',_description,'\",',\r\n                  '\"Image\":\"',_imagehash,'\",',\r\n                  '\"Id\":\"',uint2str(_id),'\"',\r\n                  '}]}'\r\n\r\n                       \r\n                )\r\n            ))\r\n            \r\n        );\r\n\r\n /* \r\nhttps://jsonformatter.curiousconcept.com/#\r\nhttps://www.base64decode.org/*/\r\n\r\n        return string(abi.encodePacked('data:application/json;base64,', json));\r\n    }  \r\n\r\n\r\n    function transfert(address buyer)public returns(bool res)  {\r\n      _transfer(_owner,buyer,_id);\r\n      _owner = ownerOf(_id);\r\n      res = true;\r\n\r\n    }\r\n    function UrlT() public view returns(string memory){\r\n\r\n      return Url;\r\n    }\r\n\r\n}\r\n",
  "sourcePath": "C:\\Users\\Luca\\Desktop\\tesi\\My-tesi\\src\\contracts\\ItemTemplate.sol",
  "compiler": {
    "name": "solc",
    "version": "0.8.11+commit.d7f03943.Emscripten.clang"
  },
  "schemaVersion": "3.4.1",
  "updatedAt": "2022-02-05T17:13:22.339Z",
  "devdoc": {
    "kind": "dev",
    "methods": {
      "approve(address,uint256)": {
        "details": "See {IERC721-approve}."
      },
      "balanceOf(address)": {
        "details": "See {IERC721-balanceOf}."
      },
      "getApproved(uint256)": {
        "details": "See {IERC721-getApproved}."
      },
      "isApprovedForAll(address,address)": {
        "details": "See {IERC721-isApprovedForAll}."
      },
      "name()": {
        "details": "See {IERC721Metadata-name}."
      },
      "ownerOf(uint256)": {
        "details": "See {IERC721-ownerOf}."
      },
      "safeTransferFrom(address,address,uint256)": {
        "details": "See {IERC721-safeTransferFrom}."
      },
      "safeTransferFrom(address,address,uint256,bytes)": {
        "details": "See {IERC721-safeTransferFrom}."
      },
      "setApprovalForAll(address,bool)": {
        "details": "See {IERC721-setApprovalForAll}."
      },
      "supportsInterface(bytes4)": {
        "details": "See {IERC165-supportsInterface}."
      },
      "symbol()": {
        "details": "See {IERC721Metadata-symbol}."
      },
      "tokenURI(uint256)": {
        "details": "See {IERC721Metadata-tokenURI}."
      },
      "transferFrom(address,address,uint256)": {
        "details": "See {IERC721-transferFrom}."
      }
    },
    "version": 1
  },
  "userdoc": {
    "kind": "user",
    "methods": {},
    "version": 1
  }
}