{
  "contractName": "ItemTemplate",
  "abi": [
    {
      "inputs": [
        {
          "internalType": "string",
          "name": "Name",
          "type": "string"
        },
        {
          "internalType": "string",
          "name": "description",
          "type": "string"
        },
        {
          "internalType": "string",
          "name": "ImageHash",
          "type": "string"
        },
        {
          "internalType": "string",
          "name": "ImgURL",
          "type": "string"
        },
        {
          "internalType": "address",
          "name": "Loanitem",
          "type": "address"
        },
        {
          "internalType": "address",
          "name": "owner",
          "type": "address"
        },
        {
          "internalType": "uint256",
          "name": "id",
          "type": "uint256"
        },
        {
          "internalType": "string",
          "name": "URL",
          "type": "string"
        }
      ],
      "stateMutability": "nonpayable",
      "type": "constructor"
    },
    {
      "anonymous": false,
      "inputs": [
        {
          "indexed": true,
          "internalType": "address",
          "name": "owner",
          "type": "address"
        },
        {
          "indexed": true,
          "internalType": "address",
          "name": "approved",
          "type": "address"
        },
        {
          "indexed": true,
          "internalType": "uint256",
          "name": "tokenId",
          "type": "uint256"
        }
      ],
      "name": "Approval",
      "type": "event"
    },
    {
      "anonymous": false,
      "inputs": [
        {
          "indexed": true,
          "internalType": "address",
          "name": "owner",
          "type": "address"
        },
        {
          "indexed": true,
          "internalType": "address",
          "name": "operator",
          "type": "address"
        },
        {
          "indexed": false,
          "internalType": "bool",
          "name": "approved",
          "type": "bool"
        }
      ],
      "name": "ApprovalForAll",
      "type": "event"
    },
    {
      "anonymous": false,
      "inputs": [
        {
          "indexed": true,
          "internalType": "address",
          "name": "from",
          "type": "address"
        },
        {
          "indexed": true,
          "internalType": "address",
          "name": "to",
          "type": "address"
        },
        {
          "indexed": true,
          "internalType": "uint256",
          "name": "tokenId",
          "type": "uint256"
        }
      ],
      "name": "Transfer",
      "type": "event"
    },
    {
      "inputs": [],
      "name": "Url",
      "outputs": [
        {
          "internalType": "string",
          "name": "",
          "type": "string"
        }
      ],
      "stateMutability": "view",
      "type": "function"
    },
    {
      "inputs": [],
      "name": "_description",
      "outputs": [
        {
          "internalType": "string",
          "name": "",
          "type": "string"
        }
      ],
      "stateMutability": "view",
      "type": "function"
    },
    {
      "inputs": [],
      "name": "_id",
      "outputs": [
        {
          "internalType": "uint256",
          "name": "",
          "type": "uint256"
        }
      ],
      "stateMutability": "view",
      "type": "function"
    },
    {
      "inputs": [],
      "name": "_imagehash",
      "outputs": [
        {
          "internalType": "string",
          "name": "",
          "type": "string"
        }
      ],
      "stateMutability": "view",
      "type": "function"
    },
    {
      "inputs": [],
      "name": "_imgURL",
      "outputs": [
        {
          "internalType": "string",
          "name": "",
          "type": "string"
        }
      ],
      "stateMutability": "view",
      "type": "function"
    },
    {
      "inputs": [],
      "name": "_name",
      "outputs": [
        {
          "internalType": "string",
          "name": "",
          "type": "string"
        }
      ],
      "stateMutability": "view",
      "type": "function"
    },
    {
      "inputs": [],
      "name": "_owner",
      "outputs": [
        {
          "internalType": "address",
          "name": "",
          "type": "address"
        }
      ],
      "stateMutability": "view",
      "type": "function"
    },
    {
      "inputs": [
        {
          "internalType": "address",
          "name": "to",
          "type": "address"
        },
        {
          "internalType": "uint256",
          "name": "tokenId",
          "type": "uint256"
        }
      ],
      "name": "approve",
      "outputs": [],
      "stateMutability": "nonpayable",
      "type": "function"
    },
    {
      "inputs": [
        {
          "internalType": "address",
          "name": "owner",
          "type": "address"
        }
      ],
      "name": "balanceOf",
      "outputs": [
        {
          "internalType": "uint256",
          "name": "",
          "type": "uint256"
        }
      ],
      "stateMutability": "view",
      "type": "function"
    },
    {
      "inputs": [
        {
          "internalType": "uint256",
          "name": "tokenId",
          "type": "uint256"
        }
      ],
      "name": "getApproved",
      "outputs": [
        {
          "internalType": "address",
          "name": "",
          "type": "address"
        }
      ],
      "stateMutability": "view",
      "type": "function"
    },
    {
      "inputs": [
        {
          "internalType": "address",
          "name": "owner",
          "type": "address"
        },
        {
          "internalType": "address",
          "name": "operator",
          "type": "address"
        }
      ],
      "name": "isApprovedForAll",
      "outputs": [
        {
          "internalType": "bool",
          "name": "",
          "type": "bool"
        }
      ],
      "stateMutability": "view",
      "type": "function"
    },
    {
      "inputs": [],
      "name": "name",
      "outputs": [
        {
          "internalType": "string",
          "name": "",
          "type": "string"
        }
      ],
      "stateMutability": "view",
      "type": "function"
    },
    {
      "inputs": [
        {
          "internalType": "uint256",
          "name": "tokenId",
          "type": "uint256"
        }
      ],
      "name": "ownerOf",
      "outputs": [
        {
          "internalType": "address",
          "name": "",
          "type": "address"
        }
      ],
      "stateMutability": "view",
      "type": "function"
    },
    {
      "inputs": [
        {
          "internalType": "address",
          "name": "from",
          "type": "address"
        },
        {
          "internalType": "address",
          "name": "to",
          "type": "address"
        },
        {
          "internalType": "uint256",
          "name": "tokenId",
          "type": "uint256"
        }
      ],
      "name": "safeTransferFrom",
      "outputs": [],
      "stateMutability": "nonpayable",
      "type": "function"
    },
    {
      "inputs": [
        {
          "internalType": "address",
          "name": "from",
          "type": "address"
        },
        {
          "internalType": "address",
          "name": "to",
          "type": "address"
        },
        {
          "internalType": "uint256",
          "name": "tokenId",
          "type": "uint256"
        },
        {
          "internalType": "bytes",
          "name": "_data",
          "type": "bytes"
        }
      ],
      "name": "safeTransferFrom",
      "outputs": [],
      "stateMutability": "nonpayable",
      "type": "function"
    },
    {
      "inputs": [
        {
          "internalType": "address",
          "name": "operator",
          "type": "address"
        },
        {
          "internalType": "bool",
          "name": "approved",
          "type": "bool"
        }
      ],
      "name": "setApprovalForAll",
      "outputs": [],
      "stateMutability": "nonpayable",
      "type": "function"
    },
    {
      "inputs": [
        {
          "internalType": "bytes4",
          "name": "interfaceId",
          "type": "bytes4"
        }
      ],
      "name": "supportsInterface",
      "outputs": [
        {
          "internalType": "bool",
          "name": "",
          "type": "bool"
        }
      ],
      "stateMutability": "view",
      "type": "function"
    },
    {
      "inputs": [],
      "name": "symbol",
      "outputs": [
        {
          "internalType": "string",
          "name": "",
          "type": "string"
        }
      ],
      "stateMutability": "view",
      "type": "function"
    },
    {
      "inputs": [
        {
          "internalType": "address",
          "name": "from",
          "type": "address"
        },
        {
          "internalType": "address",
          "name": "to",
          "type": "address"
        },
        {
          "internalType": "uint256",
          "name": "tokenId",
          "type": "uint256"
        }
      ],
      "name": "transferFrom",
      "outputs": [],
      "stateMutability": "nonpayable",
      "type": "function"
    },
    {
      "inputs": [
        {
          "internalType": "uint256",
          "name": "tokenId",
          "type": "uint256"
        }
      ],
      "name": "tokenURI",
      "outputs": [
        {
          "internalType": "string",
          "name": "",
          "type": "string"
        }
      ],
      "stateMutability": "view",
      "type": "function"
    },
    {
      "inputs": [
        {
          "internalType": "address",
          "name": "buyer",
          "type": "address"
        }
      ],
      "name": "transfert",
      "outputs": [
        {
          "internalType": "bool",
          "name": "res",
          "type": "bool"
        }
      ],
      "stateMutability": "nonpayable",
      "type": "function"
    },
    {
      "inputs": [],
      "name": "UrlT",
      "outputs": [
        {
          "internalType": "string",
          "name": "",
          "type": "string"
        }
      ],
      "stateMutability": "view",
      "type": "function"
    }
  ],
  "bytecode": "0x60806040523480156200001157600080fd5b506040516200437538038062004375833981810160405281019062000037919062000a9d565b8786816000908051906020019062000051929190620007b0565b5080600190805190602001906200006a929190620007b0565b505050876007908051906020019062000085929190620007b0565b5086600890805190602001906200009e929190620007b0565b508560099080519060200190620000b7929190620007b0565b5082600660006101000a81548173ffffffffffffffffffffffffffffffffffffffff021916908373ffffffffffffffffffffffffffffffffffffffff16021790555081600c8190555080600b908051906020019062000118929190620007b0565b5084600a908051906020019062000131929190620007b0565b5062000168600660009054906101000a900473ffffffffffffffffffffffffffffffffffffffff16600c54620001a160201b60201c565b6200017b600c546200038760201b60201c565b600b908051906020019062000192929190620007b0565b5050505050505050506200146c565b600073ffffffffffffffffffffffffffffffffffffffff168273ffffffffffffffffffffffffffffffffffffffff16141562000214576040517f08c379a00000000000000000000000000000000000000000000000000000000081526004016200020b9062000c62565b60405180910390fd5b62000225816200040b60201b60201c565b1562000268576040517f08c379a00000000000000000000000000000000000000000000000000000000081526004016200025f9062000cd4565b60405180910390fd5b6200027c600083836200047760201b60201c565b6001600360008473ffffffffffffffffffffffffffffffffffffffff1673ffffffffffffffffffffffffffffffffffffffff1681526020019081526020016000206000828254620002ce919062000d25565b92505081905550816002600083815260200190815260200160002060006101000a81548173ffffffffffffffffffffffffffffffffffffffff021916908373ffffffffffffffffffffffffffffffffffffffff160217905550808273ffffffffffffffffffffffffffffffffffffffff16600073ffffffffffffffffffffffffffffffffffffffff167fddf252ad1be2c89b69c2b068fc378daa952ba7f163c4a11628f55a4df523b3ef60405160405180910390a45050565b60606000620003df60078060086009620003a9600c546200047c60201b60201c565b604051602001620003bf95949392919062001154565b6040516020818303038152906040526200062260201b620010c71760201c565b905080604051602001620003f491906200127b565b604051602081830303815290604052915050919050565b60008073ffffffffffffffffffffffffffffffffffffffff166002600084815260200190815260200160002060009054906101000a900473ffffffffffffffffffffffffffffffffffffffff1673ffffffffffffffffffffffffffffffffffffffff1614159050919050565b505050565b60606000821415620004c6576040518060400160405280600181526020017f300000000000000000000000000000000000000000000000000000000000000081525090506200061d565b600082905060005b60008214620004fe578080620004e490620012a1565b915050600a82620004f691906200131e565b9150620004ce565b60008167ffffffffffffffff8111156200051d576200051c6200088f565b5b6040519080825280601f01601f191660200182016040528015620005505781602001600182028036833780820191505090505b50905060008290505b60008614620006155760018162000571919062001356565b90506000600a80886200058591906200131e565b62000591919062001391565b876200059e919062001356565b6030620005ac9190620013ff565b905060008160f81b905080848481518110620005cd57620005cc6200143d565b5b60200101907effffffffffffffffffffffffffffffffffffffffffffffffffffffffffffff1916908160001a905350600a886200060b91906200131e565b9750505062000559565b819450505050505b919050565b60606000825114156200064757604051806020016040528060008152509050620007ab565b600060405180606001604052806040815260200162004335604091399050600060036002855162000679919062000d25565b6200068591906200131e565b600462000693919062001391565b90506000602082620006a6919062000d25565b67ffffffffffffffff811115620006c257620006c16200088f565b5b6040519080825280601f01601f191660200182016040528015620006f55781602001600182028036833780820191505090505b509050818152600183018586518101602084015b8183101562000766576003830192508251603f8160121c168501518253600182019150603f81600c1c168501518253600182019150603f8160061c168501518253600182019150603f811685015182536001820191505062000709565b60038951066001811462000783576002811462000794576200079f565b613d3d60f01b60028303526200079f565b603d60f81b60018303525b50505050508093505050505b919050565b828054620007be9062000e0c565b90600052602060002090601f016020900481019282620007e257600085556200082e565b82601f10620007fd57805160ff19168380011785556200082e565b828001600101855582156200082e579182015b828111156200082d57825182559160200191906001019062000810565b5b5090506200083d919062000841565b5090565b5b808211156200085c57600081600090555060010162000842565b5090565b6000604051905090565b600080fd5b600080fd5b600080fd5b600080fd5b6000601f19601f8301169050919050565b7f4e487b7100000000000000000000000000000000000000000000000000000000600052604160045260246000fd5b620008c9826200087e565b810181811067ffffffffffffffff82111715620008eb57620008ea6200088f565b5b80604052505050565b60006200090062000860565b90506200090e8282620008be565b919050565b600067ffffffffffffffff8211156200093157620009306200088f565b5b6200093c826200087e565b9050602081019050919050565b60005b83811015620009695780820151818401526020810190506200094c565b8381111562000979576000848401525b50505050565b600062000996620009908462000913565b620008f4565b905082815260208101848484011115620009b557620009b462000879565b5b620009c284828562000949565b509392505050565b600082601f830112620009e257620009e162000874565b5b8151620009f48482602086016200097f565b91505092915050565b600073ffffffffffffffffffffffffffffffffffffffff82169050919050565b600062000a2a82620009fd565b9050919050565b62000a3c8162000a1d565b811462000a4857600080fd5b50565b60008151905062000a5c8162000a31565b92915050565b6000819050919050565b62000a778162000a62565b811462000a8357600080fd5b50565b60008151905062000a978162000a6c565b92915050565b600080600080600080600080610100898b03121562000ac15762000ac06200086a565b5b600089015167ffffffffffffffff81111562000ae25762000ae16200086f565b5b62000af08b828c01620009ca565b985050602089015167ffffffffffffffff81111562000b145762000b136200086f565b5b62000b228b828c01620009ca565b975050604089015167ffffffffffffffff81111562000b465762000b456200086f565b5b62000b548b828c01620009ca565b965050606089015167ffffffffffffffff81111562000b785762000b776200086f565b5b62000b868b828c01620009ca565b955050608062000b998b828c0162000a4b565b94505060a062000bac8b828c0162000a4b565b93505060c062000bbf8b828c0162000a86565b92505060e089015167ffffffffffffffff81111562000be35762000be26200086f565b5b62000bf18b828c01620009ca565b9150509295985092959890939650565b600082825260208201905092915050565b7f4552433732313a206d696e7420746f20746865207a65726f2061646472657373600082015250565b600062000c4a60208362000c01565b915062000c578262000c12565b602082019050919050565b6000602082019050818103600083015262000c7d8162000c3b565b9050919050565b7f4552433732313a20746f6b656e20616c7265616479206d696e74656400000000600082015250565b600062000cbc601c8362000c01565b915062000cc98262000c84565b602082019050919050565b6000602082019050818103600083015262000cef8162000cad565b9050919050565b7f4e487b7100000000000000000000000000000000000000000000000000000000600052601160045260246000fd5b600062000d328262000a62565b915062000d3f8362000a62565b9250827fffffffffffffffffffffffffffffffffffffffffffffffffffffffffffffffff0382111562000d775762000d7662000cf6565b5b828201905092915050565b600081905092915050565b7f7b22000000000000000000000000000000000000000000000000000000000000600082015250565b600062000dc560028362000d82565b915062000dd28262000d8d565b600282019050919050565b7f4e487b7100000000000000000000000000000000000000000000000000000000600052602260045260246000fd5b6000600282049050600182168062000e2557607f821691505b6020821081141562000e3c5762000e3b62000ddd565b5b50919050565b60008190508160005260206000209050919050565b6000815462000e668162000e0c565b62000e72818662000d82565b9450600182166000811462000e90576001811462000ea25762000ed9565b60ff1983168652818601935062000ed9565b62000ead8562000e42565b60005b8381101562000ed15781548189015260018201915060208101905062000eb0565b838801955050505b50505092915050565b7f223a5b7b224e616d65223a220000000000000000000000000000000000000000600082015250565b600062000f1a600c8362000d82565b915062000f278262000ee2565b600c82019050919050565b7f222c000000000000000000000000000000000000000000000000000000000000600082015250565b600062000f6a60028362000d82565b915062000f778262000f32565b600282019050919050565b7f224465736372697074696f6e223a220000000000000000000000000000000000600082015250565b600062000fba600f8362000d82565b915062000fc78262000f82565b600f82019050919050565b7f22496d616765223a220000000000000000000000000000000000000000000000600082015250565b60006200100a60098362000d82565b9150620010178262000fd2565b600982019050919050565b7f224964223a220000000000000000000000000000000000000000000000000000600082015250565b60006200105a60068362000d82565b9150620010678262001022565b600682019050919050565b600081519050919050565b60006200108a8262001072565b62001096818562000d82565b9350620010a881856020860162000949565b80840191505092915050565b7f2200000000000000000000000000000000000000000000000000000000000000600082015250565b6000620010ec60018362000d82565b9150620010f982620010b4565b600182019050919050565b7f7d5d7d0000000000000000000000000000000000000000000000000000000000600082015250565b60006200113c60038362000d82565b9150620011498262001104565b600382019050919050565b6000620011618262000db6565b91506200116f828862000e57565b91506200117c8262000f0b565b91506200118a828762000e57565b9150620011978262000f5b565b9150620011a48262000fab565b9150620011b2828662000e57565b9150620011bf8262000f5b565b9150620011cc8262000ffb565b9150620011da828562000e57565b9150620011e78262000f5b565b9150620011f4826200104b565b91506200120282846200107d565b91506200120f82620010dd565b91506200121c826200112d565b91508190509695505050505050565b7f646174613a6170706c69636174696f6e2f6a736f6e3b6261736536342c000000600082015250565b600062001263601d8362000d82565b915062001270826200122b565b601d82019050919050565b6000620012888262001254565b91506200129682846200107d565b915081905092915050565b6000620012ae8262000a62565b91507fffffffffffffffffffffffffffffffffffffffffffffffffffffffffffffffff821415620012e457620012e362000cf6565b5b600182019050919050565b7f4e487b7100000000000000000000000000000000000000000000000000000000600052601260045260246000fd5b60006200132b8262000a62565b9150620013388362000a62565b9250826200134b576200134a620012ef565b5b828204905092915050565b6000620013638262000a62565b9150620013708362000a62565b92508282101562001386576200138562000cf6565b5b828203905092915050565b60006200139e8262000a62565b9150620013ab8362000a62565b9250817fffffffffffffffffffffffffffffffffffffffffffffffffffffffffffffffff0483118215151615620013e757620013e662000cf6565b5b828202905092915050565b600060ff82169050919050565b60006200140c82620013f2565b91506200141983620013f2565b92508260ff0382111562001432576200143162000cf6565b5b828201905092915050565b7f4e487b7100000000000000000000000000000000000000000000000000000000600052603260045260246000fd5b612eb9806200147c6000396000f3fe608060405234801561001057600080fd5b50600436106101425760003560e01c806370a08231116100b8578063b88d4fde1161007c578063b88d4fde14610379578063c87b56dd14610395578063cfa84dfe146103c5578063d28d8852146103e3578063e1bfb08a14610401578063e985e9c51461041f57610142565b806370a08231146102d35780638d21df8c1461030357806395d89b4114610321578063a22cb4651461033f578063b2bdfa7b1461035b57610142565b806321d0af111161010a57806321d0af11146101ff57806323b872dd1461022f578063314df5771461024b5780633fd218a51461026957806342842e0e146102875780636352211e146102a357610142565b806301ffc9a714610147578063051802371461017757806306fdde0314610195578063081812fc146101b3578063095ea7b3146101e3575b600080fd5b610161600480360381019061015c9190611b02565b61044f565b60405161016e9190611b4a565b60405180910390f35b61017f610531565b60405161018c9190611b7e565b60405180910390f35b61019d610537565b6040516101aa9190611c32565b60405180910390f35b6101cd60048036038101906101c89190611c80565b6105c9565b6040516101da9190611cee565b60405180910390f35b6101fd60048036038101906101f89190611d35565b61064e565b005b61021960048036038101906102149190611d75565b610766565b6040516102269190611b4a565b60405180910390f35b61024960048036038101906102449190611da2565b6107eb565b005b61025361084b565b6040516102609190611c32565b60405180910390f35b6102716108dd565b60405161027e9190611c32565b60405180910390f35b6102a1600480360381019061029c9190611da2565b61096b565b005b6102bd60048036038101906102b89190611c80565b61098b565b6040516102ca9190611cee565b60405180910390f35b6102ed60048036038101906102e89190611d75565b610a3d565b6040516102fa9190611b7e565b60405180910390f35b61030b610af5565b6040516103189190611c32565b60405180910390f35b610329610b83565b6040516103369190611c32565b60405180910390f35b61035960048036038101906103549190611e21565b610c15565b005b610363610d96565b6040516103709190611cee565b60405180910390f35b610393600480360381019061038e9190611f96565b610dbc565b005b6103af60048036038101906103aa9190611c80565b610e1e565b6040516103bc9190611c32565b60405180910390f35b6103cd610e89565b6040516103da9190611c32565b60405180910390f35b6103eb610f17565b6040516103f89190611c32565b60405180910390f35b610409610fa5565b6040516104169190611c32565b60405180910390f35b61043960048036038101906104349190612019565b611033565b6040516104469190611b4a565b60405180910390f35b60007f80ac58cd000000000000000000000000000000000000000000000000000000007bffffffffffffffffffffffffffffffffffffffffffffffffffffffff1916827bffffffffffffffffffffffffffffffffffffffffffffffffffffffff1916148061051a57507f5b5e139f000000000000000000000000000000000000000000000000000000007bffffffffffffffffffffffffffffffffffffffffffffffffffffffff1916827bffffffffffffffffffffffffffffffffffffffffffffffffffffffff1916145b8061052a575061052982611240565b5b9050919050565b600c5481565b60606000805461054690612088565b80601f016020809104026020016040519081016040528092919081815260200182805461057290612088565b80156105bf5780601f10610594576101008083540402835291602001916105bf565b820191906000526020600020905b8154815290600101906020018083116105a257829003601f168201915b5050505050905090565b60006105d4826112aa565b610613576040517f08c379a000000000000000000000000000000000000000000000000000000000815260040161060a9061212c565b60405180910390fd5b6004600083815260200190815260200160002060009054906101000a900473ffffffffffffffffffffffffffffffffffffffff169050919050565b60006106598261098b565b90508073ffffffffffffffffffffffffffffffffffffffff168373ffffffffffffffffffffffffffffffffffffffff1614156106ca576040517f08c379a00000000000000000000000000000000000000000000000000000000081526004016106c1906121be565b60405180910390fd5b8073ffffffffffffffffffffffffffffffffffffffff166106e9611316565b73ffffffffffffffffffffffffffffffffffffffff161480610718575061071781610712611316565b611033565b5b610757576040517f08c379a000000000000000000000000000000000000000000000000000000000815260040161074e90612250565b60405180910390fd5b610761838361131e565b505050565b6000610797600660009054906101000a900473ffffffffffffffffffffffffffffffffffffffff1683600c546113d7565b6107a2600c5461098b565b600660006101000a81548173ffffffffffffffffffffffffffffffffffffffff021916908373ffffffffffffffffffffffffffffffffffffffff16021790555060019050919050565b6107fc6107f6611316565b82611633565b61083b576040517f08c379a0000000000000000000000000000000000000000000000000000000008152600401610832906122e2565b60405180910390fd5b6108468383836113d7565b505050565b6060600b805461085a90612088565b80601f016020809104026020016040519081016040528092919081815260200182805461088690612088565b80156108d35780601f106108a8576101008083540402835291602001916108d3565b820191906000526020600020905b8154815290600101906020018083116108b657829003601f168201915b5050505050905090565b600980546108ea90612088565b80601f016020809104026020016040519081016040528092919081815260200182805461091690612088565b80156109635780601f1061093857610100808354040283529160200191610963565b820191906000526020600020905b81548152906001019060200180831161094657829003601f168201915b505050505081565b61098683838360405180602001604052806000815250610dbc565b505050565b6000806002600084815260200190815260200160002060009054906101000a900473ffffffffffffffffffffffffffffffffffffffff169050600073ffffffffffffffffffffffffffffffffffffffff168173ffffffffffffffffffffffffffffffffffffffff161415610a34576040517f08c379a0000000000000000000000000000000000000000000000000000000008152600401610a2b90612374565b60405180910390fd5b80915050919050565b60008073ffffffffffffffffffffffffffffffffffffffff168273ffffffffffffffffffffffffffffffffffffffff161415610aae576040517f08c379a0000000000000000000000000000000000000000000000000000000008152600401610aa590612406565b60405180910390fd5b600360008373ffffffffffffffffffffffffffffffffffffffff1673ffffffffffffffffffffffffffffffffffffffff168152602001908152602001600020549050919050565b600b8054610b0290612088565b80601f0160208091040260200160405190810160405280929190818152602001828054610b2e90612088565b8015610b7b5780601f10610b5057610100808354040283529160200191610b7b565b820191906000526020600020905b815481529060010190602001808311610b5e57829003601f168201915b505050505081565b606060018054610b9290612088565b80601f0160208091040260200160405190810160405280929190818152602001828054610bbe90612088565b8015610c0b5780601f10610be057610100808354040283529160200191610c0b565b820191906000526020600020905b815481529060010190602001808311610bee57829003601f168201915b5050505050905090565b610c1d611316565b73ffffffffffffffffffffffffffffffffffffffff168273ffffffffffffffffffffffffffffffffffffffff161415610c8b576040517f08c379a0000000000000000000000000000000000000000000000000000000008152600401610c8290612472565b60405180910390fd5b8060056000610c98611316565b73ffffffffffffffffffffffffffffffffffffffff1673ffffffffffffffffffffffffffffffffffffffff16815260200190815260200160002060008473ffffffffffffffffffffffffffffffffffffffff1673ffffffffffffffffffffffffffffffffffffffff16815260200190815260200160002060006101000a81548160ff0219169083151502179055508173ffffffffffffffffffffffffffffffffffffffff16610d45611316565b73ffffffffffffffffffffffffffffffffffffffff167f17307eab39ab6107e8899845ad3d59bd9653f200f220920489ca2b5937696c3183604051610d8a9190611b4a565b60405180910390a35050565b600660009054906101000a900473ffffffffffffffffffffffffffffffffffffffff1681565b610dcd610dc7611316565b83611633565b610e0c576040517f08c379a0000000000000000000000000000000000000000000000000000000008152600401610e03906122e2565b60405180910390fd5b610e1884848484611711565b50505050565b60606000610e5f60078060086009610e37600c5461176d565b604051602001610e4b9594939291906127c2565b6040516020818303038152906040526110c7565b905080604051602001610e7291906128c7565b604051602081830303815290604052915050919050565b60088054610e9690612088565b80601f0160208091040260200160405190810160405280929190818152602001828054610ec290612088565b8015610f0f5780601f10610ee457610100808354040283529160200191610f0f565b820191906000526020600020905b815481529060010190602001808311610ef257829003601f168201915b505050505081565b60078054610f2490612088565b80601f0160208091040260200160405190810160405280929190818152602001828054610f5090612088565b8015610f9d5780601f10610f7257610100808354040283529160200191610f9d565b820191906000526020600020905b815481529060010190602001808311610f8057829003601f168201915b505050505081565b600a8054610fb290612088565b80601f0160208091040260200160405190810160405280929190818152602001828054610fde90612088565b801561102b5780601f106110005761010080835404028352916020019161102b565b820191906000526020600020905b81548152906001019060200180831161100e57829003601f168201915b505050505081565b6000600560008473ffffffffffffffffffffffffffffffffffffffff1673ffffffffffffffffffffffffffffffffffffffff16815260200190815260200160002060008373ffffffffffffffffffffffffffffffffffffffff1673ffffffffffffffffffffffffffffffffffffffff16815260200190815260200160002060009054906101000a900460ff16905092915050565b60606000825114156110ea5760405180602001604052806000815250905061123b565b6000604051806060016040528060408152602001612e4460409139905060006003600285516111199190612918565b611123919061299d565b600461112f91906129ce565b905060006020826111409190612918565b67ffffffffffffffff81111561115957611158611e6b565b5b6040519080825280601f01601f19166020018201604052801561118b5781602001600182028036833780820191505090505b509050818152600183018586518101602084015b818310156111fa576003830192508251603f8160121c168501518253600182019150603f81600c1c168501518253600182019150603f8160061c168501518253600182019150603f811685015182536001820191505061119f565b60038951066001811461121457600281146112245761122f565b613d3d60f01b600283035261122f565b603d60f81b60018303525b50505050508093505050505b919050565b60007f01ffc9a7000000000000000000000000000000000000000000000000000000007bffffffffffffffffffffffffffffffffffffffffffffffffffffffff1916827bffffffffffffffffffffffffffffffffffffffffffffffffffffffff1916149050919050565b60008073ffffffffffffffffffffffffffffffffffffffff166002600084815260200190815260200160002060009054906101000a900473ffffffffffffffffffffffffffffffffffffffff1673ffffffffffffffffffffffffffffffffffffffff1614159050919050565b600033905090565b816004600083815260200190815260200160002060006101000a81548173ffffffffffffffffffffffffffffffffffffffff021916908373ffffffffffffffffffffffffffffffffffffffff160217905550808273ffffffffffffffffffffffffffffffffffffffff166113918361098b565b73ffffffffffffffffffffffffffffffffffffffff167f8c5be1e5ebec7d5bd14f71427d1e84f3dd0314c0f7b2291e5b200ac8c7c3b92560405160405180910390a45050565b8273ffffffffffffffffffffffffffffffffffffffff166113f78261098b565b73ffffffffffffffffffffffffffffffffffffffff161461144d576040517f08c379a000000000000000000000000000000000000000000000000000000000815260040161144490612a9a565b60405180910390fd5b600073ffffffffffffffffffffffffffffffffffffffff168273ffffffffffffffffffffffffffffffffffffffff1614156114bd576040517f08c379a00000000000000000000000000000000000000000000000000000000081526004016114b490612b2c565b60405180910390fd5b6114c88383836118f6565b6114d360008261131e565b6001600360008573ffffffffffffffffffffffffffffffffffffffff1673ffffffffffffffffffffffffffffffffffffffff16815260200190815260200160002060008282546115239190612b4c565b925050819055506001600360008473ffffffffffffffffffffffffffffffffffffffff1673ffffffffffffffffffffffffffffffffffffffff168152602001908152602001600020600082825461157a9190612918565b92505081905550816002600083815260200190815260200160002060006101000a81548173ffffffffffffffffffffffffffffffffffffffff021916908373ffffffffffffffffffffffffffffffffffffffff160217905550808273ffffffffffffffffffffffffffffffffffffffff168473ffffffffffffffffffffffffffffffffffffffff167fddf252ad1be2c89b69c2b068fc378daa952ba7f163c4a11628f55a4df523b3ef60405160405180910390a4505050565b600061163e826112aa565b61167d576040517f08c379a000000000000000000000000000000000000000000000000000000000815260040161167490612bf2565b60405180910390fd5b60006116888361098b565b90508073ffffffffffffffffffffffffffffffffffffffff168473ffffffffffffffffffffffffffffffffffffffff1614806116f757508373ffffffffffffffffffffffffffffffffffffffff166116df846105c9565b73ffffffffffffffffffffffffffffffffffffffff16145b8061170857506117078185611033565b5b91505092915050565b61171c8484846113d7565b611728848484846118fb565b611767576040517f08c379a000000000000000000000000000000000000000000000000000000000815260040161175e90612c84565b60405180910390fd5b50505050565b606060008214156117b5576040518060400160405280600181526020017f300000000000000000000000000000000000000000000000000000000000000081525090506118f1565b600082905060005b600082146117e75780806117d090612ca4565b915050600a826117e0919061299d565b91506117bd565b60008167ffffffffffffffff81111561180357611802611e6b565b5b6040519080825280601f01601f1916602001820160405280156118355781602001600182028036833780820191505090505b50905060008290505b600086146118e9576001816118539190612b4c565b90506000600a8088611865919061299d565b61186f91906129ce565b8761187a9190612b4c565b60306118869190612cfa565b905060008160f81b9050808484815181106118a4576118a3612d31565b5b60200101907effffffffffffffffffffffffffffffffffffffffffffffffffffffffffffff1916908160001a905350600a886118e0919061299d565b9750505061183e565b819450505050505b919050565b505050565b600061191c8473ffffffffffffffffffffffffffffffffffffffff16611a83565b15611a76578373ffffffffffffffffffffffffffffffffffffffff1663150b7a02611945611316565b8786866040518563ffffffff1660e01b81526004016119679493929190612db5565b6020604051808303816000875af19250505080156119a357506040513d601f19601f820116820180604052508101906119a09190612e16565b60015b611a26573d80600081146119d3576040519150601f19603f3d011682016040523d82523d6000602084013e6119d8565b606091505b50600081511415611a1e576040517f08c379a0000000000000000000000000000000000000000000000000000000008152600401611a1590612c84565b60405180910390fd5b805181602001fd5b63150b7a0260e01b7bffffffffffffffffffffffffffffffffffffffffffffffffffffffff1916817bffffffffffffffffffffffffffffffffffffffffffffffffffffffff191614915050611a7b565b600190505b949350505050565b600080823b905060008111915050919050565b6000604051905090565b600080fd5b600080fd5b60007fffffffff0000000000000000000000000000000000000000000000000000000082169050919050565b611adf81611aaa565b8114611aea57600080fd5b50565b600081359050611afc81611ad6565b92915050565b600060208284031215611b1857611b17611aa0565b5b6000611b2684828501611aed565b91505092915050565b60008115159050919050565b611b4481611b2f565b82525050565b6000602082019050611b5f6000830184611b3b565b92915050565b6000819050919050565b611b7881611b65565b82525050565b6000602082019050611b936000830184611b6f565b92915050565b600081519050919050565b600082825260208201905092915050565b60005b83811015611bd3578082015181840152602081019050611bb8565b83811115611be2576000848401525b50505050565b6000601f19601f8301169050919050565b6000611c0482611b99565b611c0e8185611ba4565b9350611c1e818560208601611bb5565b611c2781611be8565b840191505092915050565b60006020820190508181036000830152611c4c8184611bf9565b905092915050565b611c5d81611b65565b8114611c6857600080fd5b50565b600081359050611c7a81611c54565b92915050565b600060208284031215611c9657611c95611aa0565b5b6000611ca484828501611c6b565b91505092915050565b600073ffffffffffffffffffffffffffffffffffffffff82169050919050565b6000611cd882611cad565b9050919050565b611ce881611ccd565b82525050565b6000602082019050611d036000830184611cdf565b92915050565b611d1281611ccd565b8114611d1d57600080fd5b50565b600081359050611d2f81611d09565b92915050565b60008060408385031215611d4c57611d4b611aa0565b5b6000611d5a85828601611d20565b9250506020611d6b85828601611c6b565b9150509250929050565b600060208284031215611d8b57611d8a611aa0565b5b6000611d9984828501611d20565b91505092915050565b600080600060608486031215611dbb57611dba611aa0565b5b6000611dc986828701611d20565b9350506020611dda86828701611d20565b9250506040611deb86828701611c6b565b9150509250925092565b611dfe81611b2f565b8114611e0957600080fd5b50565b600081359050611e1b81611df5565b92915050565b60008060408385031215611e3857611e37611aa0565b5b6000611e4685828601611d20565b9250506020611e5785828601611e0c565b9150509250929050565b600080fd5b600080fd5b7f4e487b7100000000000000000000000000000000000000000000000000000000600052604160045260246000fd5b611ea382611be8565b810181811067ffffffffffffffff82111715611ec257611ec1611e6b565b5b80604052505050565b6000611ed5611a96565b9050611ee18282611e9a565b919050565b600067ffffffffffffffff821115611f0157611f00611e6b565b5b611f0a82611be8565b9050602081019050919050565b82818337600083830152505050565b6000611f39611f3484611ee6565b611ecb565b905082815260208101848484011115611f5557611f54611e66565b5b611f60848285611f17565b509392505050565b600082601f830112611f7d57611f7c611e61565b5b8135611f8d848260208601611f26565b91505092915050565b60008060008060808587031215611fb057611faf611aa0565b5b6000611fbe87828801611d20565b9450506020611fcf87828801611d20565b9350506040611fe087828801611c6b565b925050606085013567ffffffffffffffff81111561200157612000611aa5565b5b61200d87828801611f68565b91505092959194509250565b600080604083850312156120305761202f611aa0565b5b600061203e85828601611d20565b925050602061204f85828601611d20565b9150509250929050565b7f4e487b7100000000000000000000000000000000000000000000000000000000600052602260045260246000fd5b600060028204905060018216806120a057607f821691505b602082108114156120b4576120b3612059565b5b50919050565b7f4552433732313a20617070726f76656420717565727920666f72206e6f6e657860008201527f697374656e7420746f6b656e0000000000000000000000000000000000000000602082015250565b6000612116602c83611ba4565b9150612121826120ba565b604082019050919050565b6000602082019050818103600083015261214581612109565b9050919050565b7f4552433732313a20617070726f76616c20746f2063757272656e74206f776e6560008201527f7200000000000000000000000000000000000000000000000000000000000000602082015250565b60006121a8602183611ba4565b91506121b38261214c565b604082019050919050565b600060208201905081810360008301526121d78161219b565b9050919050565b7f4552433732313a20617070726f76652063616c6c6572206973206e6f74206f7760008201527f6e6572206e6f7220617070726f76656420666f7220616c6c0000000000000000602082015250565b600061223a603883611ba4565b9150612245826121de565b604082019050919050565b600060208201905081810360008301526122698161222d565b9050919050565b7f4552433732313a207472616e736665722063616c6c6572206973206e6f74206f60008201527f776e6572206e6f7220617070726f766564000000000000000000000000000000602082015250565b60006122cc603183611ba4565b91506122d782612270565b604082019050919050565b600060208201905081810360008301526122fb816122bf565b9050919050565b7f4552433732313a206f776e657220717565727920666f72206e6f6e657869737460008201527f656e7420746f6b656e0000000000000000000000000000000000000000000000602082015250565b600061235e602983611ba4565b915061236982612302565b604082019050919050565b6000602082019050818103600083015261238d81612351565b9050919050565b7f4552433732313a2062616c616e636520717565727920666f7220746865207a6560008201527f726f206164647265737300000000000000000000000000000000000000000000602082015250565b60006123f0602a83611ba4565b91506123fb82612394565b604082019050919050565b6000602082019050818103600083015261241f816123e3565b9050919050565b7f4552433732313a20617070726f766520746f2063616c6c657200000000000000600082015250565b600061245c601983611ba4565b915061246782612426565b602082019050919050565b6000602082019050818103600083015261248b8161244f565b9050919050565b600081905092915050565b7f7b22000000000000000000000000000000000000000000000000000000000000600082015250565b60006124d3600283612492565b91506124de8261249d565b600282019050919050565b60008190508160005260206000209050919050565b6000815461250b81612088565b6125158186612492565b94506001821660008114612530576001811461254157612574565b60ff19831686528186019350612574565b61254a856124e9565b60005b8381101561256c5781548189015260018201915060208101905061254d565b838801955050505b50505092915050565b7f223a5b7b224e616d65223a220000000000000000000000000000000000000000600082015250565b60006125b3600c83612492565b91506125be8261257d565b600c82019050919050565b7f222c000000000000000000000000000000000000000000000000000000000000600082015250565b60006125ff600283612492565b915061260a826125c9565b600282019050919050565b7f224465736372697074696f6e223a220000000000000000000000000000000000600082015250565b600061264b600f83612492565b915061265682612615565b600f82019050919050565b7f22496d616765223a220000000000000000000000000000000000000000000000600082015250565b6000612697600983612492565b91506126a282612661565b600982019050919050565b7f224964223a220000000000000000000000000000000000000000000000000000600082015250565b60006126e3600683612492565b91506126ee826126ad565b600682019050919050565b600061270482611b99565b61270e8185612492565b935061271e818560208601611bb5565b80840191505092915050565b7f2200000000000000000000000000000000000000000000000000000000000000600082015250565b6000612760600183612492565b915061276b8261272a565b600182019050919050565b7f7d5d7d0000000000000000000000000000000000000000000000000000000000600082015250565b60006127ac600383612492565b91506127b782612776565b600382019050919050565b60006127cd826124c6565b91506127d982886124fe565b91506127e4826125a6565b91506127f082876124fe565b91506127fb826125f2565b91506128068261263e565b915061281282866124fe565b915061281d826125f2565b91506128288261268a565b915061283482856124fe565b915061283f826125f2565b915061284a826126d6565b915061285682846126f9565b915061286182612753565b915061286c8261279f565b91508190509695505050505050565b7f646174613a6170706c69636174696f6e2f6a736f6e3b6261736536342c000000600082015250565b60006128b1601d83612492565b91506128bc8261287b565b601d82019050919050565b60006128d2826128a4565b91506128de82846126f9565b915081905092915050565b7f4e487b7100000000000000000000000000000000000000000000000000000000600052601160045260246000fd5b600061292382611b65565b915061292e83611b65565b9250827fffffffffffffffffffffffffffffffffffffffffffffffffffffffffffffffff03821115612963576129626128e9565b5b828201905092915050565b7f4e487b7100000000000000000000000000000000000000000000000000000000600052601260045260246000fd5b60006129a882611b65565b91506129b383611b65565b9250826129c3576129c261296e565b5b828204905092915050565b60006129d982611b65565b91506129e483611b65565b9250817fffffffffffffffffffffffffffffffffffffffffffffffffffffffffffffffff0483118215151615612a1d57612a1c6128e9565b5b828202905092915050565b7f4552433732313a207472616e73666572206f6620746f6b656e2074686174206960008201527f73206e6f74206f776e0000000000000000000000000000000000000000000000602082015250565b6000612a84602983611ba4565b9150612a8f82612a28565b604082019050919050565b60006020820190508181036000830152612ab381612a77565b9050919050565b7f4552433732313a207472616e7366657220746f20746865207a65726f2061646460008201527f7265737300000000000000000000000000000000000000000000000000000000602082015250565b6000612b16602483611ba4565b9150612b2182612aba565b604082019050919050565b60006020820190508181036000830152612b4581612b09565b9050919050565b6000612b5782611b65565b9150612b6283611b65565b925082821015612b7557612b746128e9565b5b828203905092915050565b7f4552433732313a206f70657261746f7220717565727920666f72206e6f6e657860008201527f697374656e7420746f6b656e0000000000000000000000000000000000000000602082015250565b6000612bdc602c83611ba4565b9150612be782612b80565b604082019050919050565b60006020820190508181036000830152612c0b81612bcf565b9050919050565b7f4552433732313a207472616e7366657220746f206e6f6e20455243373231526560008201527f63656976657220696d706c656d656e7465720000000000000000000000000000602082015250565b6000612c6e603283611ba4565b9150612c7982612c12565b604082019050919050565b60006020820190508181036000830152612c9d81612c61565b9050919050565b6000612caf82611b65565b91507fffffffffffffffffffffffffffffffffffffffffffffffffffffffffffffffff821415612ce257612ce16128e9565b5b600182019050919050565b600060ff82169050919050565b6000612d0582612ced565b9150612d1083612ced565b92508260ff03821115612d2657612d256128e9565b5b828201905092915050565b7f4e487b7100000000000000000000000000000000000000000000000000000000600052603260045260246000fd5b600081519050919050565b600082825260208201905092915050565b6000612d8782612d60565b612d918185612d6b565b9350612da1818560208601611bb5565b612daa81611be8565b840191505092915050565b6000608082019050612dca6000830187611cdf565b612dd76020830186611cdf565b612de46040830185611b6f565b8181036060830152612df68184612d7c565b905095945050505050565b600081519050612e1081611ad6565b92915050565b600060208284031215612e2c57612e2b611aa0565b5b6000612e3a84828501612e01565b9150509291505056fe4142434445464748494a4b4c4d4e4f505152535455565758595a6162636465666768696a6b6c6d6e6f707172737475767778797a303132333435363738392b2fa2646970667358221220c4b0af7d886d7091af8de39716dc9d6c0c0ddfe082098601f15285d53574fbae64736f6c634300080c00334142434445464748494a4b4c4d4e4f505152535455565758595a6162636465666768696a6b6c6d6e6f707172737475767778797a303132333435363738392b2f",
  "immutableReferences": {},
  "source": "pragma solidity ^0.8.0;\r\n\r\n\r\nimport \"./ItemFarm.sol\";\r\nimport \"@openzeppelin/contracts/token/ERC721/ERC721.sol\";\r\nimport \"@openzeppelin/contracts/access/Ownable.sol\";\r\nimport \"@openzeppelin/contracts/token/ERC721/extensions/ERC721Enumerable.sol\";\r\nimport \"@openzeppelin/contracts/access/Ownable.sol\";\r\n/**\r\n * The ItemTemplate is ERC721 contract does this and that...\r\n */\r\n library Base64 {\r\n    string internal constant TABLE_ENCODE = 'ABCDEFGHIJKLMNOPQRSTUVWXYZabcdefghijklmnopqrstuvwxyz0123456789+/';\r\n    bytes  internal constant TABLE_DECODE = hex\"0000000000000000000000000000000000000000000000000000000000000000\"\r\n                                            hex\"00000000000000000000003e0000003f3435363738393a3b3c3d000000000000\"\r\n                                            hex\"00000102030405060708090a0b0c0d0e0f101112131415161718190000000000\"\r\n                                            hex\"001a1b1c1d1e1f202122232425262728292a2b2c2d2e2f303132330000000000\";\r\n\r\n    function encode(bytes memory data) internal pure returns (string memory) {\r\n        if (data.length == 0) return '';\r\n\r\n        // load the table into memory\r\n        string memory table = TABLE_ENCODE;\r\n\r\n        // multiply by 4/3 rounded up\r\n        uint256 encodedLen = 4 * ((data.length + 2) / 3);\r\n\r\n        // add some extra buffer at the end required for the writing\r\n        string memory result = new string(encodedLen + 32);\r\n\r\n        assembly {\r\n            // set the actual output length\r\n            mstore(result, encodedLen)\r\n\r\n            // prepare the lookup table\r\n            let tablePtr := add(table, 1)\r\n\r\n            // input ptr\r\n            let dataPtr := data\r\n            let endPtr := add(dataPtr, mload(data))\r\n\r\n            // result ptr, jump over length\r\n            let resultPtr := add(result, 32)\r\n\r\n            // run over the input, 3 bytes at a time\r\n            for {} lt(dataPtr, endPtr) {}\r\n            {\r\n                // read 3 bytes\r\n                dataPtr := add(dataPtr, 3)\r\n                let input := mload(dataPtr)\r\n\r\n                // write 4 characters\r\n                mstore8(resultPtr, mload(add(tablePtr, and(shr(18, input), 0x3F))))\r\n                resultPtr := add(resultPtr, 1)\r\n                mstore8(resultPtr, mload(add(tablePtr, and(shr(12, input), 0x3F))))\r\n                resultPtr := add(resultPtr, 1)\r\n                mstore8(resultPtr, mload(add(tablePtr, and(shr( 6, input), 0x3F))))\r\n                resultPtr := add(resultPtr, 1)\r\n                mstore8(resultPtr, mload(add(tablePtr, and(        input,  0x3F))))\r\n                resultPtr := add(resultPtr, 1)\r\n            }\r\n\r\n            // padding with '='\r\n            switch mod(mload(data), 3)\r\n            case 1 { mstore(sub(resultPtr, 2), shl(240, 0x3d3d)) }\r\n            case 2 { mstore(sub(resultPtr, 1), shl(248, 0x3d)) }\r\n        }\r\n\r\n        return result;\r\n    }\r\n\r\n    function decode(string memory _data) internal pure returns (bytes memory) {\r\n        bytes memory data = bytes(_data);\r\n\r\n        if (data.length == 0) return new bytes(0);\r\n        require(data.length % 4 == 0, \"invalid base64 decoder input\");\r\n\r\n        // load the table into memory\r\n        bytes memory table = TABLE_DECODE;\r\n\r\n        // every 4 characters represent 3 bytes\r\n        uint256 decodedLen = (data.length / 4) * 3;\r\n\r\n        // add some extra buffer at the end required for the writing\r\n        bytes memory result = new bytes(decodedLen + 32);\r\n\r\n        assembly {\r\n            // padding with '='\r\n            let lastBytes := mload(add(data, mload(data)))\r\n            if eq(and(lastBytes, 0xFF), 0x3d) {\r\n                decodedLen := sub(decodedLen, 1)\r\n                if eq(and(lastBytes, 0xFFFF), 0x3d3d) {\r\n                    decodedLen := sub(decodedLen, 1)\r\n                }\r\n            }\r\n\r\n            // set the actual output length\r\n            mstore(result, decodedLen)\r\n\r\n            // prepare the lookup table\r\n            let tablePtr := add(table, 1)\r\n\r\n            // input ptr\r\n            let dataPtr := data\r\n            let endPtr := add(dataPtr, mload(data))\r\n\r\n            // result ptr, jump over length\r\n            let resultPtr := add(result, 32)\r\n\r\n            // run over the input, 4 characters at a time\r\n            for {} lt(dataPtr, endPtr) {}\r\n            {\r\n               // read 4 characters\r\n               dataPtr := add(dataPtr, 4)\r\n               let input := mload(dataPtr)\r\n\r\n               // write 3 bytes\r\n               let output := add(\r\n                   add(\r\n                       shl(18, and(mload(add(tablePtr, and(shr(24, input), 0xFF))), 0xFF)),\r\n                       shl(12, and(mload(add(tablePtr, and(shr(16, input), 0xFF))), 0xFF))),\r\n                   add(\r\n                       shl( 6, and(mload(add(tablePtr, and(shr( 8, input), 0xFF))), 0xFF)),\r\n                               and(mload(add(tablePtr, and(        input , 0xFF))), 0xFF)\r\n                    )\r\n                )\r\n                mstore(resultPtr, shl(232, output))\r\n                resultPtr := add(resultPtr, 3)\r\n            }\r\n        }\r\n\r\n        return result;\r\n    }\r\n}\r\n\r\n\r\n\r\n\r\n contract ItemTemplate is ERC721 /*ERC721Enumerable,Ownable*/ {\r\n    address public _owner;\r\n    string public _name;\r\n    string public _description;\r\n    string public _imagehash;\r\n    string public _imgURL;\r\n    string public Url;\r\n    uint public _id;\r\n    ItemFarm itemfarm;\r\n    \r\n  \r\n\r\n\r\n  constructor(string memory Name,\r\n              string memory description,\r\n              string memory ImageHash,\r\n              string memory ImgURL,\r\n              address Loanitem,\r\n              address owner,\r\n              uint id,\r\n          string memory URL ) \r\n            public ERC721(Name,ImageHash) {\r\n    \r\n\r\n    _name = Name;\r\n    _description = description;\r\n    _imagehash = ImageHash;\r\n    _owner = owner;\r\n    //loanitem = LoanItem(Loanitem);\r\n    _id = id;\r\n    Url = URL;\r\n    //da aggiungere metadati json URL\r\n    _imgURL = ImgURL;\r\n    _mint(_owner,_id);\r\n\r\n    Url = tokenURI(_id);\r\n\r\n  }\r\n  \r\n     function uint2str(uint _i) internal pure returns (string memory _uintAsString) {\r\n        if (_i == 0) {\r\n            return \"0\";\r\n        }\r\n        uint j = _i;\r\n        uint len;\r\n        while (j != 0) {\r\n            len++;\r\n            j /= 10;\r\n        }\r\n        bytes memory bstr = new bytes(len);\r\n        uint k = len;\r\n        while (_i != 0) {\r\n            k = k-1;\r\n            uint8 temp = (48 + uint8(_i - _i / 10 * 10));\r\n            bytes1 b1 = bytes1(temp);\r\n            bstr[k] = b1;\r\n            _i /= 10;\r\n        }\r\n        return string(bstr);\r\n    }\r\n\r\n\r\n\r\n\r\n    function tokenURI(uint256 tokenId) override(ERC721) public view returns (string memory) {\r\n        string memory json = Base64.encode(\r\n            bytes(string(\r\n                abi.encodePacked(\r\n\r\n               '{\"',_name,'\":[{\"Name\":\"',_name,'\",',\r\n                  '\"Description\":\"',_description,'\",',\r\n                  '\"Image\":\"',_imagehash,'\",',\r\n                  '\"Id\":\"',uint2str(_id),'\"',\r\n                  '}]}'\r\n\r\n                       \r\n                )\r\n            ))\r\n            \r\n        );\r\n\r\n /* \r\nhttps://jsonformatter.curiousconcept.com/#\r\nhttps://www.base64decode.org/*/\r\n\r\n        return string(abi.encodePacked('data:application/json;base64,', json));\r\n    }  \r\n\r\n\r\n    function transfert(address buyer)public returns(bool res)  {\r\n      _transfer(_owner,buyer,_id);\r\n      _owner = ownerOf(_id);\r\n      res = true;\r\n\r\n    }\r\n    function UrlT() public view returns(string memory){\r\n\r\n      return Url;\r\n    }\r\n\r\n}",
  "sourcePath": "C:\\Users\\Luca\\Desktop\\tesi\\My-tesi\\src\\contracts\\ItemTemplate.sol",
  "compiler": {
    "name": "solc",
    "version": "0.8.12+commit.f00d7308.Emscripten.clang"
  },
  "schemaVersion": "3.4.1",
  "updatedAt": "2022-02-21T09:24:04.508Z",
  "devdoc": {
    "kind": "dev",
    "methods": {
      "approve(address,uint256)": {
        "details": "See {IERC721-approve}."
      },
      "balanceOf(address)": {
        "details": "See {IERC721-balanceOf}."
      },
      "getApproved(uint256)": {
        "details": "See {IERC721-getApproved}."
      },
      "isApprovedForAll(address,address)": {
        "details": "See {IERC721-isApprovedForAll}."
      },
      "name()": {
        "details": "See {IERC721Metadata-name}."
      },
      "ownerOf(uint256)": {
        "details": "See {IERC721-ownerOf}."
      },
      "safeTransferFrom(address,address,uint256)": {
        "details": "See {IERC721-safeTransferFrom}."
      },
      "safeTransferFrom(address,address,uint256,bytes)": {
        "details": "See {IERC721-safeTransferFrom}."
      },
      "setApprovalForAll(address,bool)": {
        "details": "See {IERC721-setApprovalForAll}."
      },
      "supportsInterface(bytes4)": {
        "details": "See {IERC165-supportsInterface}."
      },
      "symbol()": {
        "details": "See {IERC721Metadata-symbol}."
      },
      "tokenURI(uint256)": {
        "details": "See {IERC721Metadata-tokenURI}."
      },
      "transferFrom(address,address,uint256)": {
        "details": "See {IERC721-transferFrom}."
      }
    },
    "version": 1
  },
  "userdoc": {
    "kind": "user",
    "methods": {},
    "version": 1
  }
}