{
  "contractName": "ItemTemplate",
  "abi": [
    {
      "inputs": [
        {
          "internalType": "string",
          "name": "Name",
          "type": "string"
        },
        {
          "internalType": "string",
          "name": "description",
          "type": "string"
        },
        {
          "internalType": "string",
          "name": "ImageHash",
          "type": "string"
        },
        {
          "internalType": "address",
          "name": "Loanitem",
          "type": "address"
        },
        {
          "internalType": "address",
          "name": "owner",
          "type": "address"
        },
        {
          "internalType": "uint256",
          "name": "id",
          "type": "uint256"
        }
      ],
      "stateMutability": "nonpayable",
      "type": "constructor"
    },
    {
      "anonymous": false,
      "inputs": [
        {
          "indexed": true,
          "internalType": "address",
          "name": "owner",
          "type": "address"
        },
        {
          "indexed": true,
          "internalType": "address",
          "name": "approved",
          "type": "address"
        },
        {
          "indexed": true,
          "internalType": "uint256",
          "name": "tokenId",
          "type": "uint256"
        }
      ],
      "name": "Approval",
      "type": "event"
    },
    {
      "anonymous": false,
      "inputs": [
        {
          "indexed": true,
          "internalType": "address",
          "name": "owner",
          "type": "address"
        },
        {
          "indexed": true,
          "internalType": "address",
          "name": "operator",
          "type": "address"
        },
        {
          "indexed": false,
          "internalType": "bool",
          "name": "approved",
          "type": "bool"
        }
      ],
      "name": "ApprovalForAll",
      "type": "event"
    },
    {
      "anonymous": false,
      "inputs": [
        {
          "indexed": true,
          "internalType": "address",
          "name": "previousOwner",
          "type": "address"
        },
        {
          "indexed": true,
          "internalType": "address",
          "name": "newOwner",
          "type": "address"
        }
      ],
      "name": "OwnershipTransferred",
      "type": "event"
    },
    {
      "anonymous": false,
      "inputs": [
        {
          "indexed": true,
          "internalType": "address",
          "name": "from",
          "type": "address"
        },
        {
          "indexed": true,
          "internalType": "address",
          "name": "to",
          "type": "address"
        },
        {
          "indexed": true,
          "internalType": "uint256",
          "name": "tokenId",
          "type": "uint256"
        }
      ],
      "name": "Transfer",
      "type": "event"
    },
    {
      "inputs": [
        {
          "internalType": "address",
          "name": "to",
          "type": "address"
        },
        {
          "internalType": "uint256",
          "name": "tokenId",
          "type": "uint256"
        }
      ],
      "name": "approve",
      "outputs": [],
      "stateMutability": "nonpayable",
      "type": "function"
    },
    {
      "inputs": [
        {
          "internalType": "address",
          "name": "owner",
          "type": "address"
        }
      ],
      "name": "balanceOf",
      "outputs": [
        {
          "internalType": "uint256",
          "name": "",
          "type": "uint256"
        }
      ],
      "stateMutability": "view",
      "type": "function"
    },
    {
      "inputs": [
        {
          "internalType": "uint256",
          "name": "tokenId",
          "type": "uint256"
        }
      ],
      "name": "getApproved",
      "outputs": [
        {
          "internalType": "address",
          "name": "",
          "type": "address"
        }
      ],
      "stateMutability": "view",
      "type": "function"
    },
    {
      "inputs": [
        {
          "internalType": "address",
          "name": "owner",
          "type": "address"
        },
        {
          "internalType": "address",
          "name": "operator",
          "type": "address"
        }
      ],
      "name": "isApprovedForAll",
      "outputs": [
        {
          "internalType": "bool",
          "name": "",
          "type": "bool"
        }
      ],
      "stateMutability": "view",
      "type": "function"
    },
    {
      "inputs": [],
      "name": "name",
      "outputs": [
        {
          "internalType": "string",
          "name": "",
          "type": "string"
        }
      ],
      "stateMutability": "view",
      "type": "function"
    },
    {
      "inputs": [],
      "name": "owner",
      "outputs": [
        {
          "internalType": "address",
          "name": "",
          "type": "address"
        }
      ],
      "stateMutability": "view",
      "type": "function"
    },
    {
      "inputs": [
        {
          "internalType": "uint256",
          "name": "tokenId",
          "type": "uint256"
        }
      ],
      "name": "ownerOf",
      "outputs": [
        {
          "internalType": "address",
          "name": "",
          "type": "address"
        }
      ],
      "stateMutability": "view",
      "type": "function"
    },
    {
      "inputs": [],
      "name": "renounceOwnership",
      "outputs": [],
      "stateMutability": "nonpayable",
      "type": "function"
    },
    {
      "inputs": [
        {
          "internalType": "address",
          "name": "from",
          "type": "address"
        },
        {
          "internalType": "address",
          "name": "to",
          "type": "address"
        },
        {
          "internalType": "uint256",
          "name": "tokenId",
          "type": "uint256"
        }
      ],
      "name": "safeTransferFrom",
      "outputs": [],
      "stateMutability": "nonpayable",
      "type": "function"
    },
    {
      "inputs": [
        {
          "internalType": "address",
          "name": "from",
          "type": "address"
        },
        {
          "internalType": "address",
          "name": "to",
          "type": "address"
        },
        {
          "internalType": "uint256",
          "name": "tokenId",
          "type": "uint256"
        },
        {
          "internalType": "bytes",
          "name": "_data",
          "type": "bytes"
        }
      ],
      "name": "safeTransferFrom",
      "outputs": [],
      "stateMutability": "nonpayable",
      "type": "function"
    },
    {
      "inputs": [
        {
          "internalType": "address",
          "name": "operator",
          "type": "address"
        },
        {
          "internalType": "bool",
          "name": "approved",
          "type": "bool"
        }
      ],
      "name": "setApprovalForAll",
      "outputs": [],
      "stateMutability": "nonpayable",
      "type": "function"
    },
    {
      "inputs": [
        {
          "internalType": "bytes4",
          "name": "interfaceId",
          "type": "bytes4"
        }
      ],
      "name": "supportsInterface",
      "outputs": [
        {
          "internalType": "bool",
          "name": "",
          "type": "bool"
        }
      ],
      "stateMutability": "view",
      "type": "function"
    },
    {
      "inputs": [],
      "name": "symbol",
      "outputs": [
        {
          "internalType": "string",
          "name": "",
          "type": "string"
        }
      ],
      "stateMutability": "view",
      "type": "function"
    },
    {
      "inputs": [
        {
          "internalType": "uint256",
          "name": "tokenId",
          "type": "uint256"
        }
      ],
      "name": "tokenURI",
      "outputs": [
        {
          "internalType": "string",
          "name": "",
          "type": "string"
        }
      ],
      "stateMutability": "view",
      "type": "function"
    },
    {
      "inputs": [
        {
          "internalType": "address",
          "name": "from",
          "type": "address"
        },
        {
          "internalType": "address",
          "name": "to",
          "type": "address"
        },
        {
          "internalType": "uint256",
          "name": "tokenId",
          "type": "uint256"
        }
      ],
      "name": "transferFrom",
      "outputs": [],
      "stateMutability": "nonpayable",
      "type": "function"
    },
    {
      "inputs": [
        {
          "internalType": "address",
          "name": "newOwner",
          "type": "address"
        }
      ],
      "name": "transferOwnership",
      "outputs": [],
      "stateMutability": "nonpayable",
      "type": "function"
    }
  ],
  "bytecode": "0x60806040523480156200001157600080fd5b5060405162003244380380620032448339818101604052810190620000379190620007b5565b8584816000908051906020019062000051929190620004c8565b5080600190805190602001906200006a929190620004c8565b5050506200008d62000081620001a360201b60201c565b620001ab60201b60201c565b8560089080519060200190620000a5929190620004c8565b508460099080519060200190620000be929190620004c8565b5083600a9080519060200190620000d7929190620004c8565b5081600760006101000a81548173ffffffffffffffffffffffffffffffffffffffff021916908373ffffffffffffffffffffffffffffffffffffffff16021790555082600b60006101000a81548173ffffffffffffffffffffffffffffffffffffffff021916908373ffffffffffffffffffffffffffffffffffffffff16021790555080600c8190555062000197600760009054906101000a900473ffffffffffffffffffffffffffffffffffffffff16600c546200027160201b60201c565b50505050505062000a94565b600033905090565b6000600660009054906101000a900473ffffffffffffffffffffffffffffffffffffffff16905081600660006101000a81548173ffffffffffffffffffffffffffffffffffffffff021916908373ffffffffffffffffffffffffffffffffffffffff1602179055508173ffffffffffffffffffffffffffffffffffffffff168173ffffffffffffffffffffffffffffffffffffffff167f8be0079c531659141344cd1fd0a4f28419497f9722a3daafe3b4186f6b6457e060405160405180910390a35050565b600073ffffffffffffffffffffffffffffffffffffffff168273ffffffffffffffffffffffffffffffffffffffff161415620002e4576040517f08c379a0000000000000000000000000000000000000000000000000000000008152600401620002db906200090f565b60405180910390fd5b620002f5816200045760201b60201c565b1562000338576040517f08c379a00000000000000000000000000000000000000000000000000000000081526004016200032f9062000981565b60405180910390fd5b6200034c60008383620004c360201b60201c565b6001600360008473ffffffffffffffffffffffffffffffffffffffff1673ffffffffffffffffffffffffffffffffffffffff16815260200190815260200160002060008282546200039e9190620009d2565b92505081905550816002600083815260200190815260200160002060006101000a81548173ffffffffffffffffffffffffffffffffffffffff021916908373ffffffffffffffffffffffffffffffffffffffff160217905550808273ffffffffffffffffffffffffffffffffffffffff16600073ffffffffffffffffffffffffffffffffffffffff167fddf252ad1be2c89b69c2b068fc378daa952ba7f163c4a11628f55a4df523b3ef60405160405180910390a45050565b60008073ffffffffffffffffffffffffffffffffffffffff166002600084815260200190815260200160002060009054906101000a900473ffffffffffffffffffffffffffffffffffffffff1673ffffffffffffffffffffffffffffffffffffffff1614159050919050565b505050565b828054620004d69062000a5e565b90600052602060002090601f016020900481019282620004fa576000855562000546565b82601f106200051557805160ff191683800117855562000546565b8280016001018555821562000546579182015b828111156200054557825182559160200191906001019062000528565b5b50905062000555919062000559565b5090565b5b80821115620005745760008160009055506001016200055a565b5090565b6000604051905090565b600080fd5b600080fd5b600080fd5b600080fd5b6000601f19601f8301169050919050565b7f4e487b7100000000000000000000000000000000000000000000000000000000600052604160045260246000fd5b620005e18262000596565b810181811067ffffffffffffffff82111715620006035762000602620005a7565b5b80604052505050565b60006200061862000578565b9050620006268282620005d6565b919050565b600067ffffffffffffffff821115620006495762000648620005a7565b5b620006548262000596565b9050602081019050919050565b60005b838110156200068157808201518184015260208101905062000664565b8381111562000691576000848401525b50505050565b6000620006ae620006a8846200062b565b6200060c565b905082815260208101848484011115620006cd57620006cc62000591565b5b620006da84828562000661565b509392505050565b600082601f830112620006fa57620006f96200058c565b5b81516200070c84826020860162000697565b91505092915050565b600073ffffffffffffffffffffffffffffffffffffffff82169050919050565b6000620007428262000715565b9050919050565b620007548162000735565b81146200076057600080fd5b50565b600081519050620007748162000749565b92915050565b6000819050919050565b6200078f816200077a565b81146200079b57600080fd5b50565b600081519050620007af8162000784565b92915050565b60008060008060008060c08789031215620007d557620007d462000582565b5b600087015167ffffffffffffffff811115620007f657620007f562000587565b5b6200080489828a01620006e2565b965050602087015167ffffffffffffffff81111562000828576200082762000587565b5b6200083689828a01620006e2565b955050604087015167ffffffffffffffff8111156200085a576200085962000587565b5b6200086889828a01620006e2565b94505060606200087b89828a0162000763565b93505060806200088e89828a0162000763565b92505060a0620008a189828a016200079e565b9150509295509295509295565b600082825260208201905092915050565b7f4552433732313a206d696e7420746f20746865207a65726f2061646472657373600082015250565b6000620008f7602083620008ae565b91506200090482620008bf565b602082019050919050565b600060208201905081810360008301526200092a81620008e8565b9050919050565b7f4552433732313a20746f6b656e20616c7265616479206d696e74656400000000600082015250565b600062000969601c83620008ae565b9150620009768262000931565b602082019050919050565b600060208201905081810360008301526200099c816200095a565b9050919050565b7f4e487b7100000000000000000000000000000000000000000000000000000000600052601160045260246000fd5b6000620009df826200077a565b9150620009ec836200077a565b9250827fffffffffffffffffffffffffffffffffffffffffffffffffffffffffffffffff0382111562000a245762000a23620009a3565b5b828201905092915050565b7f4e487b7100000000000000000000000000000000000000000000000000000000600052602260045260246000fd5b6000600282049050600182168062000a7757607f821691505b6020821081141562000a8e5762000a8d62000a2f565b5b50919050565b6127a08062000aa46000396000f3fe608060405234801561001057600080fd5b50600436106101005760003560e01c8063715018a611610097578063b88d4fde11610066578063b88d4fde14610299578063c87b56dd146102b5578063e985e9c5146102e5578063f2fde38b1461031557610100565b8063715018a6146102375780638da5cb5b1461024157806395d89b411461025f578063a22cb4651461027d57610100565b806323b872dd116100d357806323b872dd1461019f57806342842e0e146101bb5780636352211e146101d757806370a082311461020757610100565b806301ffc9a71461010557806306fdde0314610135578063081812fc14610153578063095ea7b314610183575b600080fd5b61011f600480360381019061011a91906116fd565b610331565b60405161012c9190611745565b60405180910390f35b61013d610413565b60405161014a91906117f9565b60405180910390f35b61016d60048036038101906101689190611851565b6104a5565b60405161017a91906118bf565b60405180910390f35b61019d60048036038101906101989190611906565b61052a565b005b6101b960048036038101906101b49190611946565b610642565b005b6101d560048036038101906101d09190611946565b6106a2565b005b6101f160048036038101906101ec9190611851565b6106c2565b6040516101fe91906118bf565b60405180910390f35b610221600480360381019061021c9190611999565b610774565b60405161022e91906119d5565b60405180910390f35b61023f61082c565b005b6102496108b4565b60405161025691906118bf565b60405180910390f35b6102676108de565b60405161027491906117f9565b60405180910390f35b61029760048036038101906102929190611a1c565b610970565b005b6102b360048036038101906102ae9190611b91565b610af1565b005b6102cf60048036038101906102ca9190611851565b610b53565b6040516102dc91906117f9565b60405180910390f35b6102ff60048036038101906102fa9190611c14565b610bfa565b60405161030c9190611745565b60405180910390f35b61032f600480360381019061032a9190611999565b610c8e565b005b60007f80ac58cd000000000000000000000000000000000000000000000000000000007bffffffffffffffffffffffffffffffffffffffffffffffffffffffff1916827bffffffffffffffffffffffffffffffffffffffffffffffffffffffff191614806103fc57507f5b5e139f000000000000000000000000000000000000000000000000000000007bffffffffffffffffffffffffffffffffffffffffffffffffffffffff1916827bffffffffffffffffffffffffffffffffffffffffffffffffffffffff1916145b8061040c575061040b82610d86565b5b9050919050565b60606000805461042290611c83565b80601f016020809104026020016040519081016040528092919081815260200182805461044e90611c83565b801561049b5780601f106104705761010080835404028352916020019161049b565b820191906000526020600020905b81548152906001019060200180831161047e57829003601f168201915b5050505050905090565b60006104b082610df0565b6104ef576040517f08c379a00000000000000000000000000000000000000000000000000000000081526004016104e690611d27565b60405180910390fd5b6004600083815260200190815260200160002060009054906101000a900473ffffffffffffffffffffffffffffffffffffffff169050919050565b6000610535826106c2565b90508073ffffffffffffffffffffffffffffffffffffffff168373ffffffffffffffffffffffffffffffffffffffff1614156105a6576040517f08c379a000000000000000000000000000000000000000000000000000000000815260040161059d90611db9565b60405180910390fd5b8073ffffffffffffffffffffffffffffffffffffffff166105c5610e5c565b73ffffffffffffffffffffffffffffffffffffffff1614806105f457506105f3816105ee610e5c565b610bfa565b5b610633576040517f08c379a000000000000000000000000000000000000000000000000000000000815260040161062a90611e4b565b60405180910390fd5b61063d8383610e64565b505050565b61065361064d610e5c565b82610f1d565b610692576040517f08c379a000000000000000000000000000000000000000000000000000000000815260040161068990611edd565b60405180910390fd5b61069d838383610ffb565b505050565b6106bd83838360405180602001604052806000815250610af1565b505050565b6000806002600084815260200190815260200160002060009054906101000a900473ffffffffffffffffffffffffffffffffffffffff169050600073ffffffffffffffffffffffffffffffffffffffff168173ffffffffffffffffffffffffffffffffffffffff16141561076b576040517f08c379a000000000000000000000000000000000000000000000000000000000815260040161076290611f6f565b60405180910390fd5b80915050919050565b60008073ffffffffffffffffffffffffffffffffffffffff168273ffffffffffffffffffffffffffffffffffffffff1614156107e5576040517f08c379a00000000000000000000000000000000000000000000000000000000081526004016107dc90612001565b60405180910390fd5b600360008373ffffffffffffffffffffffffffffffffffffffff1673ffffffffffffffffffffffffffffffffffffffff168152602001908152602001600020549050919050565b610834610e5c565b73ffffffffffffffffffffffffffffffffffffffff166108526108b4565b73ffffffffffffffffffffffffffffffffffffffff16146108a8576040517f08c379a000000000000000000000000000000000000000000000000000000000815260040161089f9061206d565b60405180910390fd5b6108b26000611257565b565b6000600660009054906101000a900473ffffffffffffffffffffffffffffffffffffffff16905090565b6060600180546108ed90611c83565b80601f016020809104026020016040519081016040528092919081815260200182805461091990611c83565b80156109665780601f1061093b57610100808354040283529160200191610966565b820191906000526020600020905b81548152906001019060200180831161094957829003601f168201915b5050505050905090565b610978610e5c565b73ffffffffffffffffffffffffffffffffffffffff168273ffffffffffffffffffffffffffffffffffffffff1614156109e6576040517f08c379a00000000000000000000000000000000000000000000000000000000081526004016109dd906120d9565b60405180910390fd5b80600560006109f3610e5c565b73ffffffffffffffffffffffffffffffffffffffff1673ffffffffffffffffffffffffffffffffffffffff16815260200190815260200160002060008473ffffffffffffffffffffffffffffffffffffffff1673ffffffffffffffffffffffffffffffffffffffff16815260200190815260200160002060006101000a81548160ff0219169083151502179055508173ffffffffffffffffffffffffffffffffffffffff16610aa0610e5c565b73ffffffffffffffffffffffffffffffffffffffff167f17307eab39ab6107e8899845ad3d59bd9653f200f220920489ca2b5937696c3183604051610ae59190611745565b60405180910390a35050565b610b02610afc610e5c565b83610f1d565b610b41576040517f08c379a0000000000000000000000000000000000000000000000000000000008152600401610b3890611edd565b60405180910390fd5b610b4d8484848461131d565b50505050565b6060610b5e82610df0565b610b9d576040517f08c379a0000000000000000000000000000000000000000000000000000000008152600401610b949061216b565b60405180910390fd5b6000610ba7611379565b90506000815111610bc75760405180602001604052806000815250610bf2565b80610bd184611390565b604051602001610be29291906121c7565b6040516020818303038152906040525b915050919050565b6000600560008473ffffffffffffffffffffffffffffffffffffffff1673ffffffffffffffffffffffffffffffffffffffff16815260200190815260200160002060008373ffffffffffffffffffffffffffffffffffffffff1673ffffffffffffffffffffffffffffffffffffffff16815260200190815260200160002060009054906101000a900460ff16905092915050565b610c96610e5c565b73ffffffffffffffffffffffffffffffffffffffff16610cb46108b4565b73ffffffffffffffffffffffffffffffffffffffff1614610d0a576040517f08c379a0000000000000000000000000000000000000000000000000000000008152600401610d019061206d565b60405180910390fd5b600073ffffffffffffffffffffffffffffffffffffffff168173ffffffffffffffffffffffffffffffffffffffff161415610d7a576040517f08c379a0000000000000000000000000000000000000000000000000000000008152600401610d719061225d565b60405180910390fd5b610d8381611257565b50565b60007f01ffc9a7000000000000000000000000000000000000000000000000000000007bffffffffffffffffffffffffffffffffffffffffffffffffffffffff1916827bffffffffffffffffffffffffffffffffffffffffffffffffffffffff1916149050919050565b60008073ffffffffffffffffffffffffffffffffffffffff166002600084815260200190815260200160002060009054906101000a900473ffffffffffffffffffffffffffffffffffffffff1673ffffffffffffffffffffffffffffffffffffffff1614159050919050565b600033905090565b816004600083815260200190815260200160002060006101000a81548173ffffffffffffffffffffffffffffffffffffffff021916908373ffffffffffffffffffffffffffffffffffffffff160217905550808273ffffffffffffffffffffffffffffffffffffffff16610ed7836106c2565b73ffffffffffffffffffffffffffffffffffffffff167f8c5be1e5ebec7d5bd14f71427d1e84f3dd0314c0f7b2291e5b200ac8c7c3b92560405160405180910390a45050565b6000610f2882610df0565b610f67576040517f08c379a0000000000000000000000000000000000000000000000000000000008152600401610f5e906122ef565b60405180910390fd5b6000610f72836106c2565b90508073ffffffffffffffffffffffffffffffffffffffff168473ffffffffffffffffffffffffffffffffffffffff161480610fe157508373ffffffffffffffffffffffffffffffffffffffff16610fc9846104a5565b73ffffffffffffffffffffffffffffffffffffffff16145b80610ff25750610ff18185610bfa565b5b91505092915050565b8273ffffffffffffffffffffffffffffffffffffffff1661101b826106c2565b73ffffffffffffffffffffffffffffffffffffffff1614611071576040517f08c379a000000000000000000000000000000000000000000000000000000000815260040161106890612381565b60405180910390fd5b600073ffffffffffffffffffffffffffffffffffffffff168273ffffffffffffffffffffffffffffffffffffffff1614156110e1576040517f08c379a00000000000000000000000000000000000000000000000000000000081526004016110d890612413565b60405180910390fd5b6110ec8383836114f1565b6110f7600082610e64565b6001600360008573ffffffffffffffffffffffffffffffffffffffff1673ffffffffffffffffffffffffffffffffffffffff16815260200190815260200160002060008282546111479190612462565b925050819055506001600360008473ffffffffffffffffffffffffffffffffffffffff1673ffffffffffffffffffffffffffffffffffffffff168152602001908152602001600020600082825461119e9190612496565b92505081905550816002600083815260200190815260200160002060006101000a81548173ffffffffffffffffffffffffffffffffffffffff021916908373ffffffffffffffffffffffffffffffffffffffff160217905550808273ffffffffffffffffffffffffffffffffffffffff168473ffffffffffffffffffffffffffffffffffffffff167fddf252ad1be2c89b69c2b068fc378daa952ba7f163c4a11628f55a4df523b3ef60405160405180910390a4505050565b6000600660009054906101000a900473ffffffffffffffffffffffffffffffffffffffff16905081600660006101000a81548173ffffffffffffffffffffffffffffffffffffffff021916908373ffffffffffffffffffffffffffffffffffffffff1602179055508173ffffffffffffffffffffffffffffffffffffffff168173ffffffffffffffffffffffffffffffffffffffff167f8be0079c531659141344cd1fd0a4f28419497f9722a3daafe3b4186f6b6457e060405160405180910390a35050565b611328848484610ffb565b611334848484846114f6565b611373576040517f08c379a000000000000000000000000000000000000000000000000000000000815260040161136a9061255e565b60405180910390fd5b50505050565b606060405180602001604052806000815250905090565b606060008214156113d8576040518060400160405280600181526020017f300000000000000000000000000000000000000000000000000000000000000081525090506114ec565b600082905060005b6000821461140a5780806113f39061257e565b915050600a8261140391906125f6565b91506113e0565b60008167ffffffffffffffff81111561142657611425611a66565b5b6040519080825280601f01601f1916602001820160405280156114585781602001600182028036833780820191505090505b5090505b600085146114e5576001826114719190612462565b9150600a856114809190612627565b603061148c9190612496565b60f81b8183815181106114a2576114a1612658565b5b60200101907effffffffffffffffffffffffffffffffffffffffffffffffffffffffffffff1916908160001a905350600a856114de91906125f6565b945061145c565b8093505050505b919050565b505050565b60006115178473ffffffffffffffffffffffffffffffffffffffff1661167e565b15611671578373ffffffffffffffffffffffffffffffffffffffff1663150b7a02611540610e5c565b8786866040518563ffffffff1660e01b815260040161156294939291906126dc565b6020604051808303816000875af192505050801561159e57506040513d601f19601f8201168201806040525081019061159b919061273d565b60015b611621573d80600081146115ce576040519150601f19603f3d011682016040523d82523d6000602084013e6115d3565b606091505b50600081511415611619576040517f08c379a00000000000000000000000000000000000000000000000000000000081526004016116109061255e565b60405180910390fd5b805181602001fd5b63150b7a0260e01b7bffffffffffffffffffffffffffffffffffffffffffffffffffffffff1916817bffffffffffffffffffffffffffffffffffffffffffffffffffffffff191614915050611676565b600190505b949350505050565b600080823b905060008111915050919050565b6000604051905090565b600080fd5b600080fd5b60007fffffffff0000000000000000000000000000000000000000000000000000000082169050919050565b6116da816116a5565b81146116e557600080fd5b50565b6000813590506116f7816116d1565b92915050565b6000602082840312156117135761171261169b565b5b6000611721848285016116e8565b91505092915050565b60008115159050919050565b61173f8161172a565b82525050565b600060208201905061175a6000830184611736565b92915050565b600081519050919050565b600082825260208201905092915050565b60005b8381101561179a57808201518184015260208101905061177f565b838111156117a9576000848401525b50505050565b6000601f19601f8301169050919050565b60006117cb82611760565b6117d5818561176b565b93506117e581856020860161177c565b6117ee816117af565b840191505092915050565b6000602082019050818103600083015261181381846117c0565b905092915050565b6000819050919050565b61182e8161181b565b811461183957600080fd5b50565b60008135905061184b81611825565b92915050565b6000602082840312156118675761186661169b565b5b60006118758482850161183c565b91505092915050565b600073ffffffffffffffffffffffffffffffffffffffff82169050919050565b60006118a98261187e565b9050919050565b6118b98161189e565b82525050565b60006020820190506118d460008301846118b0565b92915050565b6118e38161189e565b81146118ee57600080fd5b50565b600081359050611900816118da565b92915050565b6000806040838503121561191d5761191c61169b565b5b600061192b858286016118f1565b925050602061193c8582860161183c565b9150509250929050565b60008060006060848603121561195f5761195e61169b565b5b600061196d868287016118f1565b935050602061197e868287016118f1565b925050604061198f8682870161183c565b9150509250925092565b6000602082840312156119af576119ae61169b565b5b60006119bd848285016118f1565b91505092915050565b6119cf8161181b565b82525050565b60006020820190506119ea60008301846119c6565b92915050565b6119f98161172a565b8114611a0457600080fd5b50565b600081359050611a16816119f0565b92915050565b60008060408385031215611a3357611a3261169b565b5b6000611a41858286016118f1565b9250506020611a5285828601611a07565b9150509250929050565b600080fd5b600080fd5b7f4e487b7100000000000000000000000000000000000000000000000000000000600052604160045260246000fd5b611a9e826117af565b810181811067ffffffffffffffff82111715611abd57611abc611a66565b5b80604052505050565b6000611ad0611691565b9050611adc8282611a95565b919050565b600067ffffffffffffffff821115611afc57611afb611a66565b5b611b05826117af565b9050602081019050919050565b82818337600083830152505050565b6000611b34611b2f84611ae1565b611ac6565b905082815260208101848484011115611b5057611b4f611a61565b5b611b5b848285611b12565b509392505050565b600082601f830112611b7857611b77611a5c565b5b8135611b88848260208601611b21565b91505092915050565b60008060008060808587031215611bab57611baa61169b565b5b6000611bb9878288016118f1565b9450506020611bca878288016118f1565b9350506040611bdb8782880161183c565b925050606085013567ffffffffffffffff811115611bfc57611bfb6116a0565b5b611c0887828801611b63565b91505092959194509250565b60008060408385031215611c2b57611c2a61169b565b5b6000611c39858286016118f1565b9250506020611c4a858286016118f1565b9150509250929050565b7f4e487b7100000000000000000000000000000000000000000000000000000000600052602260045260246000fd5b60006002820490506001821680611c9b57607f821691505b60208210811415611caf57611cae611c54565b5b50919050565b7f4552433732313a20617070726f76656420717565727920666f72206e6f6e657860008201527f697374656e7420746f6b656e0000000000000000000000000000000000000000602082015250565b6000611d11602c8361176b565b9150611d1c82611cb5565b604082019050919050565b60006020820190508181036000830152611d4081611d04565b9050919050565b7f4552433732313a20617070726f76616c20746f2063757272656e74206f776e6560008201527f7200000000000000000000000000000000000000000000000000000000000000602082015250565b6000611da360218361176b565b9150611dae82611d47565b604082019050919050565b60006020820190508181036000830152611dd281611d96565b9050919050565b7f4552433732313a20617070726f76652063616c6c6572206973206e6f74206f7760008201527f6e6572206e6f7220617070726f76656420666f7220616c6c0000000000000000602082015250565b6000611e3560388361176b565b9150611e4082611dd9565b604082019050919050565b60006020820190508181036000830152611e6481611e28565b9050919050565b7f4552433732313a207472616e736665722063616c6c6572206973206e6f74206f60008201527f776e6572206e6f7220617070726f766564000000000000000000000000000000602082015250565b6000611ec760318361176b565b9150611ed282611e6b565b604082019050919050565b60006020820190508181036000830152611ef681611eba565b9050919050565b7f4552433732313a206f776e657220717565727920666f72206e6f6e657869737460008201527f656e7420746f6b656e0000000000000000000000000000000000000000000000602082015250565b6000611f5960298361176b565b9150611f6482611efd565b604082019050919050565b60006020820190508181036000830152611f8881611f4c565b9050919050565b7f4552433732313a2062616c616e636520717565727920666f7220746865207a6560008201527f726f206164647265737300000000000000000000000000000000000000000000602082015250565b6000611feb602a8361176b565b9150611ff682611f8f565b604082019050919050565b6000602082019050818103600083015261201a81611fde565b9050919050565b7f4f776e61626c653a2063616c6c6572206973206e6f7420746865206f776e6572600082015250565b600061205760208361176b565b915061206282612021565b602082019050919050565b600060208201905081810360008301526120868161204a565b9050919050565b7f4552433732313a20617070726f766520746f2063616c6c657200000000000000600082015250565b60006120c360198361176b565b91506120ce8261208d565b602082019050919050565b600060208201905081810360008301526120f2816120b6565b9050919050565b7f4552433732314d657461646174613a2055524920717565727920666f72206e6f60008201527f6e6578697374656e7420746f6b656e0000000000000000000000000000000000602082015250565b6000612155602f8361176b565b9150612160826120f9565b604082019050919050565b6000602082019050818103600083015261218481612148565b9050919050565b600081905092915050565b60006121a182611760565b6121ab818561218b565b93506121bb81856020860161177c565b80840191505092915050565b60006121d38285612196565b91506121df8284612196565b91508190509392505050565b7f4f776e61626c653a206e6577206f776e657220697320746865207a65726f206160008201527f6464726573730000000000000000000000000000000000000000000000000000602082015250565b600061224760268361176b565b9150612252826121eb565b604082019050919050565b600060208201905081810360008301526122768161223a565b9050919050565b7f4552433732313a206f70657261746f7220717565727920666f72206e6f6e657860008201527f697374656e7420746f6b656e0000000000000000000000000000000000000000602082015250565b60006122d9602c8361176b565b91506122e48261227d565b604082019050919050565b60006020820190508181036000830152612308816122cc565b9050919050565b7f4552433732313a207472616e73666572206f6620746f6b656e2074686174206960008201527f73206e6f74206f776e0000000000000000000000000000000000000000000000602082015250565b600061236b60298361176b565b91506123768261230f565b604082019050919050565b6000602082019050818103600083015261239a8161235e565b9050919050565b7f4552433732313a207472616e7366657220746f20746865207a65726f2061646460008201527f7265737300000000000000000000000000000000000000000000000000000000602082015250565b60006123fd60248361176b565b9150612408826123a1565b604082019050919050565b6000602082019050818103600083015261242c816123f0565b9050919050565b7f4e487b7100000000000000000000000000000000000000000000000000000000600052601160045260246000fd5b600061246d8261181b565b91506124788361181b565b92508282101561248b5761248a612433565b5b828203905092915050565b60006124a18261181b565b91506124ac8361181b565b9250827fffffffffffffffffffffffffffffffffffffffffffffffffffffffffffffffff038211156124e1576124e0612433565b5b828201905092915050565b7f4552433732313a207472616e7366657220746f206e6f6e20455243373231526560008201527f63656976657220696d706c656d656e7465720000000000000000000000000000602082015250565b600061254860328361176b565b9150612553826124ec565b604082019050919050565b600060208201905081810360008301526125778161253b565b9050919050565b60006125898261181b565b91507fffffffffffffffffffffffffffffffffffffffffffffffffffffffffffffffff8214156125bc576125bb612433565b5b600182019050919050565b7f4e487b7100000000000000000000000000000000000000000000000000000000600052601260045260246000fd5b60006126018261181b565b915061260c8361181b565b92508261261c5761261b6125c7565b5b828204905092915050565b60006126328261181b565b915061263d8361181b565b92508261264d5761264c6125c7565b5b828206905092915050565b7f4e487b7100000000000000000000000000000000000000000000000000000000600052603260045260246000fd5b600081519050919050565b600082825260208201905092915050565b60006126ae82612687565b6126b88185612692565b93506126c881856020860161177c565b6126d1816117af565b840191505092915050565b60006080820190506126f160008301876118b0565b6126fe60208301866118b0565b61270b60408301856119c6565b818103606083015261271d81846126a3565b905095945050505050565b600081519050612737816116d1565b92915050565b6000602082840312156127535761275261169b565b5b600061276184828501612728565b9150509291505056fea2646970667358221220e4421b8c0a6e8f6d9c8b5d201190a9dc68eae0e65a589c573ec1ddfdab54a95264736f6c634300080a0033",
  "immutableReferences": {},
  "source": "pragma solidity ^0.8.0;\r\n\r\n\r\nimport \"./LoanItem.sol\";\r\nimport \"@openzeppelin/contracts/token/ERC721/ERC721.sol\";\r\nimport \"@openzeppelin/contracts/access/Ownable.sol\";\r\n//import \"@openzeppelin/contracts/token/ERC721/extensions/ERC721Enumerable.sol\";\r\n\r\n/**\r\n * The ItemTemplate is ERC721 contract does this and that...\r\n */\r\n\r\n contract ItemTemplate is ERC721,Ownable {\r\n \taddress private _owner;\r\n \tstring private _name;\r\n \tstring private _description;\r\n \tstring private _imagehash;\r\n \tLoanItem loanitem;\r\n \tuint _id;\r\n\r\n\r\n  constructor(string memory Name,\r\n  \t\t\t  string memory description,\r\n  \t\t\t  string memory ImageHash,\r\n  \t\t\t  address Loanitem,\r\n  \t\t\t  address owner,\r\n  \t\t\t  uint id ) \r\n  \t\t\tpublic ERC721(Name,ImageHash) {\r\n  \t\r\n\r\n  \t_name = Name;\r\n  \t_description = description;\r\n  \t_imagehash = ImageHash;\r\n  \t_owner = owner;\r\n  \tloanitem = LoanItem(Loanitem);\r\n  \t_id = id;\r\n  \t//da aggiungere metadati json URL\r\n  \t//_MinterAdded(_owner);\r\n\r\n  \t_mint(_owner,_id);\r\n\r\n  \t//_MinterRemoved(_owner);\r\n\r\n    \r\n  }\r\n}\r\n",
  "sourcePath": "C:\\Users\\Luca\\Desktop\\tesi\\My-tesi\\src\\contracts\\ItemTemplate.sol",
  "compiler": {
    "name": "solc",
    "version": "0.8.10+commit.fc410830.Emscripten.clang"
  },
  "schemaVersion": "3.4.1",
  "updatedAt": "2021-12-17T15:27:29.005Z",
  "devdoc": {
    "kind": "dev",
    "methods": {
      "approve(address,uint256)": {
        "details": "See {IERC721-approve}."
      },
      "balanceOf(address)": {
        "details": "See {IERC721-balanceOf}."
      },
      "getApproved(uint256)": {
        "details": "See {IERC721-getApproved}."
      },
      "isApprovedForAll(address,address)": {
        "details": "See {IERC721-isApprovedForAll}."
      },
      "name()": {
        "details": "See {IERC721Metadata-name}."
      },
      "owner()": {
        "details": "Returns the address of the current owner."
      },
      "ownerOf(uint256)": {
        "details": "See {IERC721-ownerOf}."
      },
      "renounceOwnership()": {
        "details": "Leaves the contract without owner. It will not be possible to call `onlyOwner` functions anymore. Can only be called by the current owner. NOTE: Renouncing ownership will leave the contract without an owner, thereby removing any functionality that is only available to the owner."
      },
      "safeTransferFrom(address,address,uint256)": {
        "details": "See {IERC721-safeTransferFrom}."
      },
      "safeTransferFrom(address,address,uint256,bytes)": {
        "details": "See {IERC721-safeTransferFrom}."
      },
      "setApprovalForAll(address,bool)": {
        "details": "See {IERC721-setApprovalForAll}."
      },
      "supportsInterface(bytes4)": {
        "details": "See {IERC165-supportsInterface}."
      },
      "symbol()": {
        "details": "See {IERC721Metadata-symbol}."
      },
      "tokenURI(uint256)": {
        "details": "See {IERC721Metadata-tokenURI}."
      },
      "transferFrom(address,address,uint256)": {
        "details": "See {IERC721-transferFrom}."
      },
      "transferOwnership(address)": {
        "details": "Transfers ownership of the contract to a new account (`newOwner`). Can only be called by the current owner."
      }
    },
    "version": 1
  },
  "userdoc": {
    "kind": "user",
    "methods": {},
    "notice": "The ItemTemplate is ERC721 contract does this and that...",
    "version": 1
  }
}