{
  "contractName": "ItemFarm",
  "abi": [
    {
      "inputs": [],
      "stateMutability": "nonpayable",
      "type": "constructor"
    },
    {
      "inputs": [
        {
          "internalType": "uint256",
          "name": "",
          "type": "uint256"
        }
      ],
      "name": "ItemById",
      "outputs": [
        {
          "internalType": "contract ItemTemplate",
          "name": "",
          "type": "address"
        }
      ],
      "stateMutability": "view",
      "type": "function"
    },
    {
      "inputs": [],
      "name": "countAttrezzi",
      "outputs": [
        {
          "internalType": "uint256",
          "name": "",
          "type": "uint256"
        }
      ],
      "stateMutability": "view",
      "type": "function"
    },
    {
      "inputs": [],
      "name": "name",
      "outputs": [
        {
          "internalType": "string",
          "name": "",
          "type": "string"
        }
      ],
      "stateMutability": "view",
      "type": "function"
    },
    {
      "inputs": [],
      "name": "symbol",
      "outputs": [
        {
          "internalType": "string",
          "name": "",
          "type": "string"
        }
      ],
      "stateMutability": "view",
      "type": "function"
    },
    {
      "inputs": [
        {
          "internalType": "uint256",
          "name": "",
          "type": "uint256"
        }
      ],
      "name": "tokenId",
      "outputs": [
        {
          "internalType": "uint256",
          "name": "id",
          "type": "uint256"
        },
        {
          "internalType": "string",
          "name": "namet",
          "type": "string"
        },
        {
          "internalType": "string",
          "name": "phots",
          "type": "string"
        },
        {
          "internalType": "string",
          "name": "imgURL",
          "type": "string"
        },
        {
          "internalType": "string",
          "name": "description",
          "type": "string"
        },
        {
          "internalType": "string",
          "name": "Url",
          "type": "string"
        },
        {
          "internalType": "address",
          "name": "own",
          "type": "address"
        },
        {
          "internalType": "contract ItemTemplate",
          "name": "contractAddr",
          "type": "address"
        }
      ],
      "stateMutability": "view",
      "type": "function"
    },
    {
      "inputs": [
        {
          "internalType": "string",
          "name": "_imgHash",
          "type": "string"
        },
        {
          "internalType": "string",
          "name": "_description",
          "type": "string"
        },
        {
          "internalType": "string",
          "name": "_imgURL",
          "type": "string"
        },
        {
          "internalType": "string",
          "name": "namef",
          "type": "string"
        },
        {
          "internalType": "address",
          "name": "owner",
          "type": "address"
        },
        {
          "internalType": "string",
          "name": "Url",
          "type": "string"
        }
      ],
      "name": "addNewItem",
      "outputs": [],
      "stateMutability": "nonpayable",
      "type": "function"
    },
    {
      "inputs": [
        {
          "internalType": "uint256",
          "name": "_id",
          "type": "uint256"
        }
      ],
      "name": "getItemByID",
      "outputs": [
        {
          "internalType": "string",
          "name": "",
          "type": "string"
        },
        {
          "internalType": "string",
          "name": "",
          "type": "string"
        },
        {
          "internalType": "string",
          "name": "",
          "type": "string"
        },
        {
          "internalType": "string",
          "name": "",
          "type": "string"
        }
      ],
      "stateMutability": "view",
      "type": "function"
    },
    {
      "inputs": [
        {
          "internalType": "uint256",
          "name": "_id",
          "type": "uint256"
        }
      ],
      "name": "getOwnerById",
      "outputs": [
        {
          "internalType": "address",
          "name": "",
          "type": "address"
        }
      ],
      "stateMutability": "view",
      "type": "function"
    },
    {
      "inputs": [],
      "name": "getAllTokenAddresses",
      "outputs": [
        {
          "internalType": "address[]",
          "name": "",
          "type": "address[]"
        }
      ],
      "stateMutability": "view",
      "type": "function"
    },
    {
      "inputs": [
        {
          "internalType": "address",
          "name": "Nft",
          "type": "address"
        }
      ],
      "name": "Urltest",
      "outputs": [
        {
          "internalType": "string",
          "name": "",
          "type": "string"
        }
      ],
      "stateMutability": "view",
      "type": "function"
    }
  ],
  "bytecode": "0x60806040526040518060400160405280600881526020017f4974656d4661726d0000000000000000000000000000000000000000000000008152506000908051906020019062000051929190620000b4565b506040518060400160405280600281526020017f4946000000000000000000000000000000000000000000000000000000000000815250600190805190602001906200009f929190620000b4565b50348015620000ad57600080fd5b50620001c9565b828054620000c29062000193565b90600052602060002090601f016020900481019282620000e6576000855562000132565b82601f106200010157805160ff191683800117855562000132565b8280016001018555821562000132579182015b828111156200013157825182559160200191906001019062000114565b5b50905062000141919062000145565b5090565b5b808211156200016057600081600090555060010162000146565b5090565b7f4e487b7100000000000000000000000000000000000000000000000000000000600052602260045260246000fd5b60006002820490506001821680620001ac57607f821691505b60208210811415620001c357620001c262000164565b5b50919050565b615d2f80620001d96000396000f3fe60806040523480156200001157600080fd5b5060043610620000ac5760003560e01c80636d4ae680116200006f5780636d4ae680146200019857806376bf001c14620001ba5780637dcb0e5f14620001f057806395d89b41146200022d578063a963cff7146200024f57620000ac565b806306fdde0314620000b157806312cb69d114620000d35780631340e0e414620000f3578063433ea74714620001295780634d3b20881462000162575b600080fd5b620000bb62000271565b604051620000ca919062001025565b60405180910390f35b620000f16004803603810190620000eb919062001213565b62000307565b005b6200011160048036038101906200010b91906200134a565b6200060e565b60405162000120919062001025565b60405180910390f35b620001476004803603810190620001419190620013b7565b62000694565b604051620001599493929190620013e9565b60405180910390f35b6200018060048036038101906200017a9190620013b7565b62000951565b6040516200018f9190620014bd565b60405180910390f35b620001a262000984565b604051620001b19190620015a8565b60405180910390f35b620001d86004803603810190620001d29190620013b7565b62000a14565b604051620001e79190620015dd565b60405180910390f35b6200020e6004803603810190620002089190620013b7565b62000acf565b604051620002249897969594939291906200160b565b60405180910390f35b6200023762000e27565b60405162000246919062001025565b60405180910390f35b6200025962000ebd565b604051620002689190620016bc565b60405180910390f35b60008054620002809062001708565b80601f0160208091040260200160405190810160405280929190818152602001828054620002ae9062001708565b8015620002ff5780601f10620002d357610100808354040283529160200191620002ff565b820191906000526020600020905b815481529060010190602001808311620002e157829003601f168201915b505050505081565b60008351116200031657600080fd5b60008551116200032557600080fd5b60008651116200033457600080fd5b6000600560008154809291906200034b906200176d565b919050555083868887308760055488604051620003689062000ec3565b6200037b989796959493929190620017bb565b604051809103906000f08015801562000398573d6000803e3d6000fd5b5090508060036000600554815260200190815260200160002060006101000a81548173ffffffffffffffffffffffffffffffffffffffff021916908373ffffffffffffffffffffffffffffffffffffffff16021790555060405180610100016040528060055481526020018581526020018881526020018681526020018781526020018381526020018473ffffffffffffffffffffffffffffffffffffffff1681526020018273ffffffffffffffffffffffffffffffffffffffff168152506002600060055481526020019081526020016000206000820151816000015560208201518160010190805190602001906200049492919062000ed1565b506040820151816002019080519060200190620004b392919062000ed1565b506060820151816003019080519060200190620004d292919062000ed1565b506080820151816004019080519060200190620004f192919062000ed1565b5060a08201518160050190805190602001906200051092919062000ed1565b5060c08201518160060160006101000a81548173ffffffffffffffffffffffffffffffffffffffff021916908373ffffffffffffffffffffffffffffffffffffffff16021790555060e08201518160070160006101000a81548173ffffffffffffffffffffffffffffffffffffffff021916908373ffffffffffffffffffffffffffffffffffffffff1602179055509050506006819080600181540180825580915050600190039060005260206000200160009091909190916101000a81548173ffffffffffffffffffffffffffffffffffffffff021916908373ffffffffffffffffffffffffffffffffffffffff16021790555050505050505050565b606060008290508073ffffffffffffffffffffffffffffffffffffffff1663314df5776040518163ffffffff1660e01b8152600401600060405180830381865afa15801562000661573d6000803e3d6000fd5b505050506040513d6000823e3d601f19601f820116820180604052508101906200068c9190620018ea565b915050919050565b6060806060806003600086815260200190815260200160002060009054906101000a900473ffffffffffffffffffffffffffffffffffffffff1673ffffffffffffffffffffffffffffffffffffffff1663d28d88526040518163ffffffff1660e01b8152600401600060405180830381865afa15801562000719573d6000803e3d6000fd5b505050506040513d6000823e3d601f19601f82011682018060405250810190620007449190620018ea565b6003600087815260200190815260200160002060009054906101000a900473ffffffffffffffffffffffffffffffffffffffff1673ffffffffffffffffffffffffffffffffffffffff1663cfa84dfe6040518163ffffffff1660e01b8152600401600060405180830381865afa158015620007c3573d6000803e3d6000fd5b505050506040513d6000823e3d601f19601f82011682018060405250810190620007ee9190620018ea565b6003600088815260200190815260200160002060009054906101000a900473ffffffffffffffffffffffffffffffffffffffff1673ffffffffffffffffffffffffffffffffffffffff16633fd218a56040518163ffffffff1660e01b8152600401600060405180830381865afa1580156200086d573d6000803e3d6000fd5b505050506040513d6000823e3d601f19601f82011682018060405250810190620008989190620018ea565b6003600089815260200190815260200160002060009054906101000a900473ffffffffffffffffffffffffffffffffffffffff1673ffffffffffffffffffffffffffffffffffffffff16638d21df8c6040518163ffffffff1660e01b8152600401600060405180830381865afa15801562000917573d6000803e3d6000fd5b505050506040513d6000823e3d601f19601f82011682018060405250810190620009429190620018ea565b93509350935093509193509193565b60036020528060005260406000206000915054906101000a900473ffffffffffffffffffffffffffffffffffffffff1681565b6060600680548060200260200160405190810160405280929190818152602001828054801562000a0a57602002820191906000526020600020905b8160009054906101000a900473ffffffffffffffffffffffffffffffffffffffff1673ffffffffffffffffffffffffffffffffffffffff1681526020019060010190808311620009bf575b5050505050905090565b60006003600083815260200190815260200160002060009054906101000a900473ffffffffffffffffffffffffffffffffffffffff1673ffffffffffffffffffffffffffffffffffffffff16636352211e836040518263ffffffff1660e01b815260040162000a849190620016bc565b602060405180830381865afa15801562000aa2573d6000803e3d6000fd5b505050506040513d601f19601f8201168201806040525081019062000ac8919062001952565b9050919050565b600260205280600052604060002060009150905080600001549080600101805462000afa9062001708565b80601f016020809104026020016040519081016040528092919081815260200182805462000b289062001708565b801562000b795780601f1062000b4d5761010080835404028352916020019162000b79565b820191906000526020600020905b81548152906001019060200180831162000b5b57829003601f168201915b50505050509080600201805462000b909062001708565b80601f016020809104026020016040519081016040528092919081815260200182805462000bbe9062001708565b801562000c0f5780601f1062000be35761010080835404028352916020019162000c0f565b820191906000526020600020905b81548152906001019060200180831162000bf157829003601f168201915b50505050509080600301805462000c269062001708565b80601f016020809104026020016040519081016040528092919081815260200182805462000c549062001708565b801562000ca55780601f1062000c795761010080835404028352916020019162000ca5565b820191906000526020600020905b81548152906001019060200180831162000c8757829003601f168201915b50505050509080600401805462000cbc9062001708565b80601f016020809104026020016040519081016040528092919081815260200182805462000cea9062001708565b801562000d3b5780601f1062000d0f5761010080835404028352916020019162000d3b565b820191906000526020600020905b81548152906001019060200180831162000d1d57829003601f168201915b50505050509080600501805462000d529062001708565b80601f016020809104026020016040519081016040528092919081815260200182805462000d809062001708565b801562000dd15780601f1062000da55761010080835404028352916020019162000dd1565b820191906000526020600020905b81548152906001019060200180831162000db357829003601f168201915b5050505050908060060160009054906101000a900473ffffffffffffffffffffffffffffffffffffffff16908060070160009054906101000a900473ffffffffffffffffffffffffffffffffffffffff16905088565b6001805462000e369062001708565b80601f016020809104026020016040519081016040528092919081815260200182805462000e649062001708565b801562000eb55780601f1062000e895761010080835404028352916020019162000eb5565b820191906000526020600020905b81548152906001019060200180831162000e9757829003601f168201915b505050505081565b60055481565b614375806200198583390190565b82805462000edf9062001708565b90600052602060002090601f01602090048101928262000f03576000855562000f4f565b82601f1062000f1e57805160ff191683800117855562000f4f565b8280016001018555821562000f4f579182015b8281111562000f4e57825182559160200191906001019062000f31565b5b50905062000f5e919062000f62565b5090565b5b8082111562000f7d57600081600090555060010162000f63565b5090565b600081519050919050565b600082825260208201905092915050565b60005b8381101562000fbd57808201518184015260208101905062000fa0565b8381111562000fcd576000848401525b50505050565b6000601f19601f8301169050919050565b600062000ff18262000f81565b62000ffd818562000f8c565b93506200100f81856020860162000f9d565b6200101a8162000fd3565b840191505092915050565b6000602082019050818103600083015262001041818462000fe4565b905092915050565b6000604051905090565b600080fd5b600080fd5b600080fd5b600080fd5b7f4e487b7100000000000000000000000000000000000000000000000000000000600052604160045260246000fd5b620010a18262000fd3565b810181811067ffffffffffffffff82111715620010c357620010c262001067565b5b80604052505050565b6000620010d862001049565b9050620010e6828262001096565b919050565b600067ffffffffffffffff82111562001109576200110862001067565b5b620011148262000fd3565b9050602081019050919050565b82818337600083830152505050565b6000620011476200114184620010eb565b620010cc565b90508281526020810184848401111562001166576200116562001062565b5b6200117384828562001121565b509392505050565b600082601f8301126200119357620011926200105d565b5b8135620011a584826020860162001130565b91505092915050565b600073ffffffffffffffffffffffffffffffffffffffff82169050919050565b6000620011db82620011ae565b9050919050565b620011ed81620011ce565b8114620011f957600080fd5b50565b6000813590506200120d81620011e2565b92915050565b60008060008060008060c0878903121562001233576200123262001053565b5b600087013567ffffffffffffffff81111562001254576200125362001058565b5b6200126289828a016200117b565b965050602087013567ffffffffffffffff81111562001286576200128562001058565b5b6200129489828a016200117b565b955050604087013567ffffffffffffffff811115620012b857620012b762001058565b5b620012c689828a016200117b565b945050606087013567ffffffffffffffff811115620012ea57620012e962001058565b5b620012f889828a016200117b565b93505060806200130b89828a01620011fc565b92505060a087013567ffffffffffffffff8111156200132f576200132e62001058565b5b6200133d89828a016200117b565b9150509295509295509295565b60006020828403121562001363576200136262001053565b5b60006200137384828501620011fc565b91505092915050565b6000819050919050565b62001391816200137c565b81146200139d57600080fd5b50565b600081359050620013b18162001386565b92915050565b600060208284031215620013d057620013cf62001053565b5b6000620013e084828501620013a0565b91505092915050565b6000608082019050818103600083015262001405818762000fe4565b905081810360208301526200141b818662000fe4565b9050818103604083015262001431818562000fe4565b9050818103606083015262001447818462000fe4565b905095945050505050565b6000819050919050565b60006200147d620014776200147184620011ae565b62001452565b620011ae565b9050919050565b600062001491826200145c565b9050919050565b6000620014a58262001484565b9050919050565b620014b78162001498565b82525050565b6000602082019050620014d46000830184620014ac565b92915050565b600081519050919050565b600082825260208201905092915050565b6000819050602082019050919050565b6200151181620011ce565b82525050565b600062001525838362001506565b60208301905092915050565b6000602082019050919050565b60006200154b82620014da565b620015578185620014e5565b93506200156483620014f6565b8060005b838110156200159b5781516200157f888262001517565b97506200158c8362001531565b92505060018101905062001568565b5085935050505092915050565b60006020820190508181036000830152620015c481846200153e565b905092915050565b620015d781620011ce565b82525050565b6000602082019050620015f46000830184620015cc565b92915050565b62001605816200137c565b82525050565b60006101008201905062001623600083018b620015fa565b818103602083015262001637818a62000fe4565b905081810360408301526200164d818962000fe4565b9050818103606083015262001663818862000fe4565b9050818103608083015262001679818762000fe4565b905081810360a08301526200168f818662000fe4565b9050620016a060c0830185620015cc565b620016af60e0830184620014ac565b9998505050505050505050565b6000602082019050620016d36000830184620015fa565b92915050565b7f4e487b7100000000000000000000000000000000000000000000000000000000600052602260045260246000fd5b600060028204905060018216806200172157607f821691505b60208210811415620017385762001737620016d9565b5b50919050565b7f4e487b7100000000000000000000000000000000000000000000000000000000600052601160045260246000fd5b60006200177a826200137c565b91507fffffffffffffffffffffffffffffffffffffffffffffffffffffffffffffffff821415620017b057620017af6200173e565b5b600182019050919050565b6000610100820190508181036000830152620017d8818b62000fe4565b90508181036020830152620017ee818a62000fe4565b9050818103604083015262001804818962000fe4565b905081810360608301526200181a818862000fe4565b90506200182b6080830187620015cc565b6200183a60a0830186620015cc565b6200184960c0830185620015fa565b81810360e08301526200185d818462000fe4565b90509998505050505050505050565b6000620018836200187d84620010eb565b620010cc565b905082815260208101848484011115620018a257620018a162001062565b5b620018af84828562000f9d565b509392505050565b600082601f830112620018cf57620018ce6200105d565b5b8151620018e18482602086016200186c565b91505092915050565b60006020828403121562001903576200190262001053565b5b600082015167ffffffffffffffff81111562001924576200192362001058565b5b6200193284828501620018b7565b91505092915050565b6000815190506200194c81620011e2565b92915050565b6000602082840312156200196b576200196a62001053565b5b60006200197b848285016200193b565b9150509291505056fe60806040523480156200001157600080fd5b506040516200437538038062004375833981810160405281019062000037919062000a9d565b8786816000908051906020019062000051929190620007b0565b5080600190805190602001906200006a929190620007b0565b505050876007908051906020019062000085929190620007b0565b5086600890805190602001906200009e929190620007b0565b508560099080519060200190620000b7929190620007b0565b5082600660006101000a81548173ffffffffffffffffffffffffffffffffffffffff021916908373ffffffffffffffffffffffffffffffffffffffff16021790555081600c8190555080600b908051906020019062000118929190620007b0565b5084600a908051906020019062000131929190620007b0565b5062000168600660009054906101000a900473ffffffffffffffffffffffffffffffffffffffff16600c54620001a160201b60201c565b6200017b600c546200038760201b60201c565b600b908051906020019062000192929190620007b0565b5050505050505050506200146c565b600073ffffffffffffffffffffffffffffffffffffffff168273ffffffffffffffffffffffffffffffffffffffff16141562000214576040517f08c379a00000000000000000000000000000000000000000000000000000000081526004016200020b9062000c62565b60405180910390fd5b62000225816200040b60201b60201c565b1562000268576040517f08c379a00000000000000000000000000000000000000000000000000000000081526004016200025f9062000cd4565b60405180910390fd5b6200027c600083836200047760201b60201c565b6001600360008473ffffffffffffffffffffffffffffffffffffffff1673ffffffffffffffffffffffffffffffffffffffff1681526020019081526020016000206000828254620002ce919062000d25565b92505081905550816002600083815260200190815260200160002060006101000a81548173ffffffffffffffffffffffffffffffffffffffff021916908373ffffffffffffffffffffffffffffffffffffffff160217905550808273ffffffffffffffffffffffffffffffffffffffff16600073ffffffffffffffffffffffffffffffffffffffff167fddf252ad1be2c89b69c2b068fc378daa952ba7f163c4a11628f55a4df523b3ef60405160405180910390a45050565b60606000620003df60078060086009620003a9600c546200047c60201b60201c565b604051602001620003bf95949392919062001154565b6040516020818303038152906040526200062260201b620010c71760201c565b905080604051602001620003f491906200127b565b604051602081830303815290604052915050919050565b60008073ffffffffffffffffffffffffffffffffffffffff166002600084815260200190815260200160002060009054906101000a900473ffffffffffffffffffffffffffffffffffffffff1673ffffffffffffffffffffffffffffffffffffffff1614159050919050565b505050565b60606000821415620004c6576040518060400160405280600181526020017f300000000000000000000000000000000000000000000000000000000000000081525090506200061d565b600082905060005b60008214620004fe578080620004e490620012a1565b915050600a82620004f691906200131e565b9150620004ce565b60008167ffffffffffffffff8111156200051d576200051c6200088f565b5b6040519080825280601f01601f191660200182016040528015620005505781602001600182028036833780820191505090505b50905060008290505b60008614620006155760018162000571919062001356565b90506000600a80886200058591906200131e565b62000591919062001391565b876200059e919062001356565b6030620005ac9190620013ff565b905060008160f81b905080848481518110620005cd57620005cc6200143d565b5b60200101907effffffffffffffffffffffffffffffffffffffffffffffffffffffffffffff1916908160001a905350600a886200060b91906200131e565b9750505062000559565b819450505050505b919050565b60606000825114156200064757604051806020016040528060008152509050620007ab565b600060405180606001604052806040815260200162004335604091399050600060036002855162000679919062000d25565b6200068591906200131e565b600462000693919062001391565b90506000602082620006a6919062000d25565b67ffffffffffffffff811115620006c257620006c16200088f565b5b6040519080825280601f01601f191660200182016040528015620006f55781602001600182028036833780820191505090505b509050818152600183018586518101602084015b8183101562000766576003830192508251603f8160121c168501518253600182019150603f81600c1c168501518253600182019150603f8160061c168501518253600182019150603f811685015182536001820191505062000709565b60038951066001811462000783576002811462000794576200079f565b613d3d60f01b60028303526200079f565b603d60f81b60018303525b50505050508093505050505b919050565b828054620007be9062000e0c565b90600052602060002090601f016020900481019282620007e257600085556200082e565b82601f10620007fd57805160ff19168380011785556200082e565b828001600101855582156200082e579182015b828111156200082d57825182559160200191906001019062000810565b5b5090506200083d919062000841565b5090565b5b808211156200085c57600081600090555060010162000842565b5090565b6000604051905090565b600080fd5b600080fd5b600080fd5b600080fd5b6000601f19601f8301169050919050565b7f4e487b7100000000000000000000000000000000000000000000000000000000600052604160045260246000fd5b620008c9826200087e565b810181811067ffffffffffffffff82111715620008eb57620008ea6200088f565b5b80604052505050565b60006200090062000860565b90506200090e8282620008be565b919050565b600067ffffffffffffffff8211156200093157620009306200088f565b5b6200093c826200087e565b9050602081019050919050565b60005b83811015620009695780820151818401526020810190506200094c565b8381111562000979576000848401525b50505050565b600062000996620009908462000913565b620008f4565b905082815260208101848484011115620009b557620009b462000879565b5b620009c284828562000949565b509392505050565b600082601f830112620009e257620009e162000874565b5b8151620009f48482602086016200097f565b91505092915050565b600073ffffffffffffffffffffffffffffffffffffffff82169050919050565b600062000a2a82620009fd565b9050919050565b62000a3c8162000a1d565b811462000a4857600080fd5b50565b60008151905062000a5c8162000a31565b92915050565b6000819050919050565b62000a778162000a62565b811462000a8357600080fd5b50565b60008151905062000a978162000a6c565b92915050565b600080600080600080600080610100898b03121562000ac15762000ac06200086a565b5b600089015167ffffffffffffffff81111562000ae25762000ae16200086f565b5b62000af08b828c01620009ca565b985050602089015167ffffffffffffffff81111562000b145762000b136200086f565b5b62000b228b828c01620009ca565b975050604089015167ffffffffffffffff81111562000b465762000b456200086f565b5b62000b548b828c01620009ca565b965050606089015167ffffffffffffffff81111562000b785762000b776200086f565b5b62000b868b828c01620009ca565b955050608062000b998b828c0162000a4b565b94505060a062000bac8b828c0162000a4b565b93505060c062000bbf8b828c0162000a86565b92505060e089015167ffffffffffffffff81111562000be35762000be26200086f565b5b62000bf18b828c01620009ca565b9150509295985092959890939650565b600082825260208201905092915050565b7f4552433732313a206d696e7420746f20746865207a65726f2061646472657373600082015250565b600062000c4a60208362000c01565b915062000c578262000c12565b602082019050919050565b6000602082019050818103600083015262000c7d8162000c3b565b9050919050565b7f4552433732313a20746f6b656e20616c7265616479206d696e74656400000000600082015250565b600062000cbc601c8362000c01565b915062000cc98262000c84565b602082019050919050565b6000602082019050818103600083015262000cef8162000cad565b9050919050565b7f4e487b7100000000000000000000000000000000000000000000000000000000600052601160045260246000fd5b600062000d328262000a62565b915062000d3f8362000a62565b9250827fffffffffffffffffffffffffffffffffffffffffffffffffffffffffffffffff0382111562000d775762000d7662000cf6565b5b828201905092915050565b600081905092915050565b7f7b22000000000000000000000000000000000000000000000000000000000000600082015250565b600062000dc560028362000d82565b915062000dd28262000d8d565b600282019050919050565b7f4e487b7100000000000000000000000000000000000000000000000000000000600052602260045260246000fd5b6000600282049050600182168062000e2557607f821691505b6020821081141562000e3c5762000e3b62000ddd565b5b50919050565b60008190508160005260206000209050919050565b6000815462000e668162000e0c565b62000e72818662000d82565b9450600182166000811462000e90576001811462000ea25762000ed9565b60ff1983168652818601935062000ed9565b62000ead8562000e42565b60005b8381101562000ed15781548189015260018201915060208101905062000eb0565b838801955050505b50505092915050565b7f223a5b7b224e616d65223a220000000000000000000000000000000000000000600082015250565b600062000f1a600c8362000d82565b915062000f278262000ee2565b600c82019050919050565b7f222c000000000000000000000000000000000000000000000000000000000000600082015250565b600062000f6a60028362000d82565b915062000f778262000f32565b600282019050919050565b7f224465736372697074696f6e223a220000000000000000000000000000000000600082015250565b600062000fba600f8362000d82565b915062000fc78262000f82565b600f82019050919050565b7f22496d616765223a220000000000000000000000000000000000000000000000600082015250565b60006200100a60098362000d82565b9150620010178262000fd2565b600982019050919050565b7f224964223a220000000000000000000000000000000000000000000000000000600082015250565b60006200105a60068362000d82565b9150620010678262001022565b600682019050919050565b600081519050919050565b60006200108a8262001072565b62001096818562000d82565b9350620010a881856020860162000949565b80840191505092915050565b7f2200000000000000000000000000000000000000000000000000000000000000600082015250565b6000620010ec60018362000d82565b9150620010f982620010b4565b600182019050919050565b7f7d5d7d0000000000000000000000000000000000000000000000000000000000600082015250565b60006200113c60038362000d82565b9150620011498262001104565b600382019050919050565b6000620011618262000db6565b91506200116f828862000e57565b91506200117c8262000f0b565b91506200118a828762000e57565b9150620011978262000f5b565b9150620011a48262000fab565b9150620011b2828662000e57565b9150620011bf8262000f5b565b9150620011cc8262000ffb565b9150620011da828562000e57565b9150620011e78262000f5b565b9150620011f4826200104b565b91506200120282846200107d565b91506200120f82620010dd565b91506200121c826200112d565b91508190509695505050505050565b7f646174613a6170706c69636174696f6e2f6a736f6e3b6261736536342c000000600082015250565b600062001263601d8362000d82565b915062001270826200122b565b601d82019050919050565b6000620012888262001254565b91506200129682846200107d565b915081905092915050565b6000620012ae8262000a62565b91507fffffffffffffffffffffffffffffffffffffffffffffffffffffffffffffffff821415620012e457620012e362000cf6565b5b600182019050919050565b7f4e487b7100000000000000000000000000000000000000000000000000000000600052601260045260246000fd5b60006200132b8262000a62565b9150620013388362000a62565b9250826200134b576200134a620012ef565b5b828204905092915050565b6000620013638262000a62565b9150620013708362000a62565b92508282101562001386576200138562000cf6565b5b828203905092915050565b60006200139e8262000a62565b9150620013ab8362000a62565b9250817fffffffffffffffffffffffffffffffffffffffffffffffffffffffffffffffff0483118215151615620013e757620013e662000cf6565b5b828202905092915050565b600060ff82169050919050565b60006200140c82620013f2565b91506200141983620013f2565b92508260ff0382111562001432576200143162000cf6565b5b828201905092915050565b7f4e487b7100000000000000000000000000000000000000000000000000000000600052603260045260246000fd5b612eb9806200147c6000396000f3fe608060405234801561001057600080fd5b50600436106101425760003560e01c806370a08231116100b8578063b88d4fde1161007c578063b88d4fde14610379578063c87b56dd14610395578063cfa84dfe146103c5578063d28d8852146103e3578063e1bfb08a14610401578063e985e9c51461041f57610142565b806370a08231146102d35780638d21df8c1461030357806395d89b4114610321578063a22cb4651461033f578063b2bdfa7b1461035b57610142565b806321d0af111161010a57806321d0af11146101ff57806323b872dd1461022f578063314df5771461024b5780633fd218a51461026957806342842e0e146102875780636352211e146102a357610142565b806301ffc9a714610147578063051802371461017757806306fdde0314610195578063081812fc146101b3578063095ea7b3146101e3575b600080fd5b610161600480360381019061015c9190611b02565b61044f565b60405161016e9190611b4a565b60405180910390f35b61017f610531565b60405161018c9190611b7e565b60405180910390f35b61019d610537565b6040516101aa9190611c32565b60405180910390f35b6101cd60048036038101906101c89190611c80565b6105c9565b6040516101da9190611cee565b60405180910390f35b6101fd60048036038101906101f89190611d35565b61064e565b005b61021960048036038101906102149190611d75565b610766565b6040516102269190611b4a565b60405180910390f35b61024960048036038101906102449190611da2565b6107eb565b005b61025361084b565b6040516102609190611c32565b60405180910390f35b6102716108dd565b60405161027e9190611c32565b60405180910390f35b6102a1600480360381019061029c9190611da2565b61096b565b005b6102bd60048036038101906102b89190611c80565b61098b565b6040516102ca9190611cee565b60405180910390f35b6102ed60048036038101906102e89190611d75565b610a3d565b6040516102fa9190611b7e565b60405180910390f35b61030b610af5565b6040516103189190611c32565b60405180910390f35b610329610b83565b6040516103369190611c32565b60405180910390f35b61035960048036038101906103549190611e21565b610c15565b005b610363610d96565b6040516103709190611cee565b60405180910390f35b610393600480360381019061038e9190611f96565b610dbc565b005b6103af60048036038101906103aa9190611c80565b610e1e565b6040516103bc9190611c32565b60405180910390f35b6103cd610e89565b6040516103da9190611c32565b60405180910390f35b6103eb610f17565b6040516103f89190611c32565b60405180910390f35b610409610fa5565b6040516104169190611c32565b60405180910390f35b61043960048036038101906104349190612019565b611033565b6040516104469190611b4a565b60405180910390f35b60007f80ac58cd000000000000000000000000000000000000000000000000000000007bffffffffffffffffffffffffffffffffffffffffffffffffffffffff1916827bffffffffffffffffffffffffffffffffffffffffffffffffffffffff1916148061051a57507f5b5e139f000000000000000000000000000000000000000000000000000000007bffffffffffffffffffffffffffffffffffffffffffffffffffffffff1916827bffffffffffffffffffffffffffffffffffffffffffffffffffffffff1916145b8061052a575061052982611240565b5b9050919050565b600c5481565b60606000805461054690612088565b80601f016020809104026020016040519081016040528092919081815260200182805461057290612088565b80156105bf5780601f10610594576101008083540402835291602001916105bf565b820191906000526020600020905b8154815290600101906020018083116105a257829003601f168201915b5050505050905090565b60006105d4826112aa565b610613576040517f08c379a000000000000000000000000000000000000000000000000000000000815260040161060a9061212c565b60405180910390fd5b6004600083815260200190815260200160002060009054906101000a900473ffffffffffffffffffffffffffffffffffffffff169050919050565b60006106598261098b565b90508073ffffffffffffffffffffffffffffffffffffffff168373ffffffffffffffffffffffffffffffffffffffff1614156106ca576040517f08c379a00000000000000000000000000000000000000000000000000000000081526004016106c1906121be565b60405180910390fd5b8073ffffffffffffffffffffffffffffffffffffffff166106e9611316565b73ffffffffffffffffffffffffffffffffffffffff161480610718575061071781610712611316565b611033565b5b610757576040517f08c379a000000000000000000000000000000000000000000000000000000000815260040161074e90612250565b60405180910390fd5b610761838361131e565b505050565b6000610797600660009054906101000a900473ffffffffffffffffffffffffffffffffffffffff1683600c546113d7565b6107a2600c5461098b565b600660006101000a81548173ffffffffffffffffffffffffffffffffffffffff021916908373ffffffffffffffffffffffffffffffffffffffff16021790555060019050919050565b6107fc6107f6611316565b82611633565b61083b576040517f08c379a0000000000000000000000000000000000000000000000000000000008152600401610832906122e2565b60405180910390fd5b6108468383836113d7565b505050565b6060600b805461085a90612088565b80601f016020809104026020016040519081016040528092919081815260200182805461088690612088565b80156108d35780601f106108a8576101008083540402835291602001916108d3565b820191906000526020600020905b8154815290600101906020018083116108b657829003601f168201915b5050505050905090565b600980546108ea90612088565b80601f016020809104026020016040519081016040528092919081815260200182805461091690612088565b80156109635780601f1061093857610100808354040283529160200191610963565b820191906000526020600020905b81548152906001019060200180831161094657829003601f168201915b505050505081565b61098683838360405180602001604052806000815250610dbc565b505050565b6000806002600084815260200190815260200160002060009054906101000a900473ffffffffffffffffffffffffffffffffffffffff169050600073ffffffffffffffffffffffffffffffffffffffff168173ffffffffffffffffffffffffffffffffffffffff161415610a34576040517f08c379a0000000000000000000000000000000000000000000000000000000008152600401610a2b90612374565b60405180910390fd5b80915050919050565b60008073ffffffffffffffffffffffffffffffffffffffff168273ffffffffffffffffffffffffffffffffffffffff161415610aae576040517f08c379a0000000000000000000000000000000000000000000000000000000008152600401610aa590612406565b60405180910390fd5b600360008373ffffffffffffffffffffffffffffffffffffffff1673ffffffffffffffffffffffffffffffffffffffff168152602001908152602001600020549050919050565b600b8054610b0290612088565b80601f0160208091040260200160405190810160405280929190818152602001828054610b2e90612088565b8015610b7b5780601f10610b5057610100808354040283529160200191610b7b565b820191906000526020600020905b815481529060010190602001808311610b5e57829003601f168201915b505050505081565b606060018054610b9290612088565b80601f0160208091040260200160405190810160405280929190818152602001828054610bbe90612088565b8015610c0b5780601f10610be057610100808354040283529160200191610c0b565b820191906000526020600020905b815481529060010190602001808311610bee57829003601f168201915b5050505050905090565b610c1d611316565b73ffffffffffffffffffffffffffffffffffffffff168273ffffffffffffffffffffffffffffffffffffffff161415610c8b576040517f08c379a0000000000000000000000000000000000000000000000000000000008152600401610c8290612472565b60405180910390fd5b8060056000610c98611316565b73ffffffffffffffffffffffffffffffffffffffff1673ffffffffffffffffffffffffffffffffffffffff16815260200190815260200160002060008473ffffffffffffffffffffffffffffffffffffffff1673ffffffffffffffffffffffffffffffffffffffff16815260200190815260200160002060006101000a81548160ff0219169083151502179055508173ffffffffffffffffffffffffffffffffffffffff16610d45611316565b73ffffffffffffffffffffffffffffffffffffffff167f17307eab39ab6107e8899845ad3d59bd9653f200f220920489ca2b5937696c3183604051610d8a9190611b4a565b60405180910390a35050565b600660009054906101000a900473ffffffffffffffffffffffffffffffffffffffff1681565b610dcd610dc7611316565b83611633565b610e0c576040517f08c379a0000000000000000000000000000000000000000000000000000000008152600401610e03906122e2565b60405180910390fd5b610e1884848484611711565b50505050565b60606000610e5f60078060086009610e37600c5461176d565b604051602001610e4b9594939291906127c2565b6040516020818303038152906040526110c7565b905080604051602001610e7291906128c7565b604051602081830303815290604052915050919050565b60088054610e9690612088565b80601f0160208091040260200160405190810160405280929190818152602001828054610ec290612088565b8015610f0f5780601f10610ee457610100808354040283529160200191610f0f565b820191906000526020600020905b815481529060010190602001808311610ef257829003601f168201915b505050505081565b60078054610f2490612088565b80601f0160208091040260200160405190810160405280929190818152602001828054610f5090612088565b8015610f9d5780601f10610f7257610100808354040283529160200191610f9d565b820191906000526020600020905b815481529060010190602001808311610f8057829003601f168201915b505050505081565b600a8054610fb290612088565b80601f0160208091040260200160405190810160405280929190818152602001828054610fde90612088565b801561102b5780601f106110005761010080835404028352916020019161102b565b820191906000526020600020905b81548152906001019060200180831161100e57829003601f168201915b505050505081565b6000600560008473ffffffffffffffffffffffffffffffffffffffff1673ffffffffffffffffffffffffffffffffffffffff16815260200190815260200160002060008373ffffffffffffffffffffffffffffffffffffffff1673ffffffffffffffffffffffffffffffffffffffff16815260200190815260200160002060009054906101000a900460ff16905092915050565b60606000825114156110ea5760405180602001604052806000815250905061123b565b6000604051806060016040528060408152602001612e4460409139905060006003600285516111199190612918565b611123919061299d565b600461112f91906129ce565b905060006020826111409190612918565b67ffffffffffffffff81111561115957611158611e6b565b5b6040519080825280601f01601f19166020018201604052801561118b5781602001600182028036833780820191505090505b509050818152600183018586518101602084015b818310156111fa576003830192508251603f8160121c168501518253600182019150603f81600c1c168501518253600182019150603f8160061c168501518253600182019150603f811685015182536001820191505061119f565b60038951066001811461121457600281146112245761122f565b613d3d60f01b600283035261122f565b603d60f81b60018303525b50505050508093505050505b919050565b60007f01ffc9a7000000000000000000000000000000000000000000000000000000007bffffffffffffffffffffffffffffffffffffffffffffffffffffffff1916827bffffffffffffffffffffffffffffffffffffffffffffffffffffffff1916149050919050565b60008073ffffffffffffffffffffffffffffffffffffffff166002600084815260200190815260200160002060009054906101000a900473ffffffffffffffffffffffffffffffffffffffff1673ffffffffffffffffffffffffffffffffffffffff1614159050919050565b600033905090565b816004600083815260200190815260200160002060006101000a81548173ffffffffffffffffffffffffffffffffffffffff021916908373ffffffffffffffffffffffffffffffffffffffff160217905550808273ffffffffffffffffffffffffffffffffffffffff166113918361098b565b73ffffffffffffffffffffffffffffffffffffffff167f8c5be1e5ebec7d5bd14f71427d1e84f3dd0314c0f7b2291e5b200ac8c7c3b92560405160405180910390a45050565b8273ffffffffffffffffffffffffffffffffffffffff166113f78261098b565b73ffffffffffffffffffffffffffffffffffffffff161461144d576040517f08c379a000000000000000000000000000000000000000000000000000000000815260040161144490612a9a565b60405180910390fd5b600073ffffffffffffffffffffffffffffffffffffffff168273ffffffffffffffffffffffffffffffffffffffff1614156114bd576040517f08c379a00000000000000000000000000000000000000000000000000000000081526004016114b490612b2c565b60405180910390fd5b6114c88383836118f6565b6114d360008261131e565b6001600360008573ffffffffffffffffffffffffffffffffffffffff1673ffffffffffffffffffffffffffffffffffffffff16815260200190815260200160002060008282546115239190612b4c565b925050819055506001600360008473ffffffffffffffffffffffffffffffffffffffff1673ffffffffffffffffffffffffffffffffffffffff168152602001908152602001600020600082825461157a9190612918565b92505081905550816002600083815260200190815260200160002060006101000a81548173ffffffffffffffffffffffffffffffffffffffff021916908373ffffffffffffffffffffffffffffffffffffffff160217905550808273ffffffffffffffffffffffffffffffffffffffff168473ffffffffffffffffffffffffffffffffffffffff167fddf252ad1be2c89b69c2b068fc378daa952ba7f163c4a11628f55a4df523b3ef60405160405180910390a4505050565b600061163e826112aa565b61167d576040517f08c379a000000000000000000000000000000000000000000000000000000000815260040161167490612bf2565b60405180910390fd5b60006116888361098b565b90508073ffffffffffffffffffffffffffffffffffffffff168473ffffffffffffffffffffffffffffffffffffffff1614806116f757508373ffffffffffffffffffffffffffffffffffffffff166116df846105c9565b73ffffffffffffffffffffffffffffffffffffffff16145b8061170857506117078185611033565b5b91505092915050565b61171c8484846113d7565b611728848484846118fb565b611767576040517f08c379a000000000000000000000000000000000000000000000000000000000815260040161175e90612c84565b60405180910390fd5b50505050565b606060008214156117b5576040518060400160405280600181526020017f300000000000000000000000000000000000000000000000000000000000000081525090506118f1565b600082905060005b600082146117e75780806117d090612ca4565b915050600a826117e0919061299d565b91506117bd565b60008167ffffffffffffffff81111561180357611802611e6b565b5b6040519080825280601f01601f1916602001820160405280156118355781602001600182028036833780820191505090505b50905060008290505b600086146118e9576001816118539190612b4c565b90506000600a8088611865919061299d565b61186f91906129ce565b8761187a9190612b4c565b60306118869190612cfa565b905060008160f81b9050808484815181106118a4576118a3612d31565b5b60200101907effffffffffffffffffffffffffffffffffffffffffffffffffffffffffffff1916908160001a905350600a886118e0919061299d565b9750505061183e565b819450505050505b919050565b505050565b600061191c8473ffffffffffffffffffffffffffffffffffffffff16611a83565b15611a76578373ffffffffffffffffffffffffffffffffffffffff1663150b7a02611945611316565b8786866040518563ffffffff1660e01b81526004016119679493929190612db5565b6020604051808303816000875af19250505080156119a357506040513d601f19601f820116820180604052508101906119a09190612e16565b60015b611a26573d80600081146119d3576040519150601f19603f3d011682016040523d82523d6000602084013e6119d8565b606091505b50600081511415611a1e576040517f08c379a0000000000000000000000000000000000000000000000000000000008152600401611a1590612c84565b60405180910390fd5b805181602001fd5b63150b7a0260e01b7bffffffffffffffffffffffffffffffffffffffffffffffffffffffff1916817bffffffffffffffffffffffffffffffffffffffffffffffffffffffff191614915050611a7b565b600190505b949350505050565b600080823b905060008111915050919050565b6000604051905090565b600080fd5b600080fd5b60007fffffffff0000000000000000000000000000000000000000000000000000000082169050919050565b611adf81611aaa565b8114611aea57600080fd5b50565b600081359050611afc81611ad6565b92915050565b600060208284031215611b1857611b17611aa0565b5b6000611b2684828501611aed565b91505092915050565b60008115159050919050565b611b4481611b2f565b82525050565b6000602082019050611b5f6000830184611b3b565b92915050565b6000819050919050565b611b7881611b65565b82525050565b6000602082019050611b936000830184611b6f565b92915050565b600081519050919050565b600082825260208201905092915050565b60005b83811015611bd3578082015181840152602081019050611bb8565b83811115611be2576000848401525b50505050565b6000601f19601f8301169050919050565b6000611c0482611b99565b611c0e8185611ba4565b9350611c1e818560208601611bb5565b611c2781611be8565b840191505092915050565b60006020820190508181036000830152611c4c8184611bf9565b905092915050565b611c5d81611b65565b8114611c6857600080fd5b50565b600081359050611c7a81611c54565b92915050565b600060208284031215611c9657611c95611aa0565b5b6000611ca484828501611c6b565b91505092915050565b600073ffffffffffffffffffffffffffffffffffffffff82169050919050565b6000611cd882611cad565b9050919050565b611ce881611ccd565b82525050565b6000602082019050611d036000830184611cdf565b92915050565b611d1281611ccd565b8114611d1d57600080fd5b50565b600081359050611d2f81611d09565b92915050565b60008060408385031215611d4c57611d4b611aa0565b5b6000611d5a85828601611d20565b9250506020611d6b85828601611c6b565b9150509250929050565b600060208284031215611d8b57611d8a611aa0565b5b6000611d9984828501611d20565b91505092915050565b600080600060608486031215611dbb57611dba611aa0565b5b6000611dc986828701611d20565b9350506020611dda86828701611d20565b9250506040611deb86828701611c6b565b9150509250925092565b611dfe81611b2f565b8114611e0957600080fd5b50565b600081359050611e1b81611df5565b92915050565b60008060408385031215611e3857611e37611aa0565b5b6000611e4685828601611d20565b9250506020611e5785828601611e0c565b9150509250929050565b600080fd5b600080fd5b7f4e487b7100000000000000000000000000000000000000000000000000000000600052604160045260246000fd5b611ea382611be8565b810181811067ffffffffffffffff82111715611ec257611ec1611e6b565b5b80604052505050565b6000611ed5611a96565b9050611ee18282611e9a565b919050565b600067ffffffffffffffff821115611f0157611f00611e6b565b5b611f0a82611be8565b9050602081019050919050565b82818337600083830152505050565b6000611f39611f3484611ee6565b611ecb565b905082815260208101848484011115611f5557611f54611e66565b5b611f60848285611f17565b509392505050565b600082601f830112611f7d57611f7c611e61565b5b8135611f8d848260208601611f26565b91505092915050565b60008060008060808587031215611fb057611faf611aa0565b5b6000611fbe87828801611d20565b9450506020611fcf87828801611d20565b9350506040611fe087828801611c6b565b925050606085013567ffffffffffffffff81111561200157612000611aa5565b5b61200d87828801611f68565b91505092959194509250565b600080604083850312156120305761202f611aa0565b5b600061203e85828601611d20565b925050602061204f85828601611d20565b9150509250929050565b7f4e487b7100000000000000000000000000000000000000000000000000000000600052602260045260246000fd5b600060028204905060018216806120a057607f821691505b602082108114156120b4576120b3612059565b5b50919050565b7f4552433732313a20617070726f76656420717565727920666f72206e6f6e657860008201527f697374656e7420746f6b656e0000000000000000000000000000000000000000602082015250565b6000612116602c83611ba4565b9150612121826120ba565b604082019050919050565b6000602082019050818103600083015261214581612109565b9050919050565b7f4552433732313a20617070726f76616c20746f2063757272656e74206f776e6560008201527f7200000000000000000000000000000000000000000000000000000000000000602082015250565b60006121a8602183611ba4565b91506121b38261214c565b604082019050919050565b600060208201905081810360008301526121d78161219b565b9050919050565b7f4552433732313a20617070726f76652063616c6c6572206973206e6f74206f7760008201527f6e6572206e6f7220617070726f76656420666f7220616c6c0000000000000000602082015250565b600061223a603883611ba4565b9150612245826121de565b604082019050919050565b600060208201905081810360008301526122698161222d565b9050919050565b7f4552433732313a207472616e736665722063616c6c6572206973206e6f74206f60008201527f776e6572206e6f7220617070726f766564000000000000000000000000000000602082015250565b60006122cc603183611ba4565b91506122d782612270565b604082019050919050565b600060208201905081810360008301526122fb816122bf565b9050919050565b7f4552433732313a206f776e657220717565727920666f72206e6f6e657869737460008201527f656e7420746f6b656e0000000000000000000000000000000000000000000000602082015250565b600061235e602983611ba4565b915061236982612302565b604082019050919050565b6000602082019050818103600083015261238d81612351565b9050919050565b7f4552433732313a2062616c616e636520717565727920666f7220746865207a6560008201527f726f206164647265737300000000000000000000000000000000000000000000602082015250565b60006123f0602a83611ba4565b91506123fb82612394565b604082019050919050565b6000602082019050818103600083015261241f816123e3565b9050919050565b7f4552433732313a20617070726f766520746f2063616c6c657200000000000000600082015250565b600061245c601983611ba4565b915061246782612426565b602082019050919050565b6000602082019050818103600083015261248b8161244f565b9050919050565b600081905092915050565b7f7b22000000000000000000000000000000000000000000000000000000000000600082015250565b60006124d3600283612492565b91506124de8261249d565b600282019050919050565b60008190508160005260206000209050919050565b6000815461250b81612088565b6125158186612492565b94506001821660008114612530576001811461254157612574565b60ff19831686528186019350612574565b61254a856124e9565b60005b8381101561256c5781548189015260018201915060208101905061254d565b838801955050505b50505092915050565b7f223a5b7b224e616d65223a220000000000000000000000000000000000000000600082015250565b60006125b3600c83612492565b91506125be8261257d565b600c82019050919050565b7f222c000000000000000000000000000000000000000000000000000000000000600082015250565b60006125ff600283612492565b915061260a826125c9565b600282019050919050565b7f224465736372697074696f6e223a220000000000000000000000000000000000600082015250565b600061264b600f83612492565b915061265682612615565b600f82019050919050565b7f22496d616765223a220000000000000000000000000000000000000000000000600082015250565b6000612697600983612492565b91506126a282612661565b600982019050919050565b7f224964223a220000000000000000000000000000000000000000000000000000600082015250565b60006126e3600683612492565b91506126ee826126ad565b600682019050919050565b600061270482611b99565b61270e8185612492565b935061271e818560208601611bb5565b80840191505092915050565b7f2200000000000000000000000000000000000000000000000000000000000000600082015250565b6000612760600183612492565b915061276b8261272a565b600182019050919050565b7f7d5d7d0000000000000000000000000000000000000000000000000000000000600082015250565b60006127ac600383612492565b91506127b782612776565b600382019050919050565b60006127cd826124c6565b91506127d982886124fe565b91506127e4826125a6565b91506127f082876124fe565b91506127fb826125f2565b91506128068261263e565b915061281282866124fe565b915061281d826125f2565b91506128288261268a565b915061283482856124fe565b915061283f826125f2565b915061284a826126d6565b915061285682846126f9565b915061286182612753565b915061286c8261279f565b91508190509695505050505050565b7f646174613a6170706c69636174696f6e2f6a736f6e3b6261736536342c000000600082015250565b60006128b1601d83612492565b91506128bc8261287b565b601d82019050919050565b60006128d2826128a4565b91506128de82846126f9565b915081905092915050565b7f4e487b7100000000000000000000000000000000000000000000000000000000600052601160045260246000fd5b600061292382611b65565b915061292e83611b65565b9250827fffffffffffffffffffffffffffffffffffffffffffffffffffffffffffffffff03821115612963576129626128e9565b5b828201905092915050565b7f4e487b7100000000000000000000000000000000000000000000000000000000600052601260045260246000fd5b60006129a882611b65565b91506129b383611b65565b9250826129c3576129c261296e565b5b828204905092915050565b60006129d982611b65565b91506129e483611b65565b9250817fffffffffffffffffffffffffffffffffffffffffffffffffffffffffffffffff0483118215151615612a1d57612a1c6128e9565b5b828202905092915050565b7f4552433732313a207472616e73666572206f6620746f6b656e2074686174206960008201527f73206e6f74206f776e0000000000000000000000000000000000000000000000602082015250565b6000612a84602983611ba4565b9150612a8f82612a28565b604082019050919050565b60006020820190508181036000830152612ab381612a77565b9050919050565b7f4552433732313a207472616e7366657220746f20746865207a65726f2061646460008201527f7265737300000000000000000000000000000000000000000000000000000000602082015250565b6000612b16602483611ba4565b9150612b2182612aba565b604082019050919050565b60006020820190508181036000830152612b4581612b09565b9050919050565b6000612b5782611b65565b9150612b6283611b65565b925082821015612b7557612b746128e9565b5b828203905092915050565b7f4552433732313a206f70657261746f7220717565727920666f72206e6f6e657860008201527f697374656e7420746f6b656e0000000000000000000000000000000000000000602082015250565b6000612bdc602c83611ba4565b9150612be782612b80565b604082019050919050565b60006020820190508181036000830152612c0b81612bcf565b9050919050565b7f4552433732313a207472616e7366657220746f206e6f6e20455243373231526560008201527f63656976657220696d706c656d656e7465720000000000000000000000000000602082015250565b6000612c6e603283611ba4565b9150612c7982612c12565b604082019050919050565b60006020820190508181036000830152612c9d81612c61565b9050919050565b6000612caf82611b65565b91507fffffffffffffffffffffffffffffffffffffffffffffffffffffffffffffffff821415612ce257612ce16128e9565b5b600182019050919050565b600060ff82169050919050565b6000612d0582612ced565b9150612d1083612ced565b92508260ff03821115612d2657612d256128e9565b5b828201905092915050565b7f4e487b7100000000000000000000000000000000000000000000000000000000600052603260045260246000fd5b600081519050919050565b600082825260208201905092915050565b6000612d8782612d60565b612d918185612d6b565b9350612da1818560208601611bb5565b612daa81611be8565b840191505092915050565b6000608082019050612dca6000830187611cdf565b612dd76020830186611cdf565b612de46040830185611b6f565b8181036060830152612df68184612d7c565b905095945050505050565b600081519050612e1081611ad6565b92915050565b600060208284031215612e2c57612e2b611aa0565b5b6000612e3a84828501612e01565b9150509291505056fe4142434445464748494a4b4c4d4e4f505152535455565758595a6162636465666768696a6b6c6d6e6f707172737475767778797a303132333435363738392b2fa2646970667358221220c4b0af7d886d7091af8de39716dc9d6c0c0ddfe082098601f15285d53574fbae64736f6c634300080c00334142434445464748494a4b4c4d4e4f505152535455565758595a6162636465666768696a6b6c6d6e6f707172737475767778797a303132333435363738392b2fa264697066735822122032023a965f524af38f02b7b0764e89e92942d11e7282cf34123b52a6eb301d9664736f6c634300080c0033",
  "immutableReferences": {},
  "source": "// contracts/LoanItem.sol\n// SPDX-License-Identifier: MIT\npragma solidity ^0.8.0;\n\nimport\"./LitemCalendar.sol\";\nimport\"./ItemTemplate.sol\";\ncontract ItemFarm {\n    \n    string public name = \"ItemFarm\";\n    string  public symbol = \"IF\";\n    \n    \n  \n\n   mapping(uint => TokenNFT)public tokenId;\n   mapping(uint => ItemTemplate)public ItemById;\n\n     struct TokenNFT {\n      uint id;\n      string namet;\n      string phots;\n      string imgURL;\n      string description;\n      string Url;\n      address own;\n      ItemTemplate contractAddr;\n      \n      \n    }\n   \n    Calendar Calendario;\n    \n    uint256 public countAttrezzi;\n    address[] internal ItemCreatedAddresses;\n   \n\n  constructor() /*public ERC1155(\"\")*/ {  \n        \n         }\n\n      function addNewItem(string memory _imgHash,string memory _description,string memory _imgURL, string memory namef,address owner,string memory Url) public {\n    \n        require(bytes(namef).length > 0);\n        require(bytes(_description).length > 0);\n        require(bytes(_imgHash).length > 0);\n      \n        ItemTemplate ItemTemp;\n\n        countAttrezzi++;\n        \n        \n     \n        ItemTemp = new ItemTemplate(namef,_description,_imgHash,_imgURL,address(this),owner,countAttrezzi,Url);\n        \n        ItemById[countAttrezzi]= ItemTemp;\n\n        tokenId[countAttrezzi] = TokenNFT(countAttrezzi,namef,_imgHash,_imgURL,_description,Url,owner,ItemTemp);\n        \n       ItemCreatedAddresses.push(address(ItemTemp));  \n    }\n    \n    function getItemByID(uint _id) public view virtual  returns (string memory,\n                                                                      string memory,\n                                                                      string memory,\n                                                                      string memory\n                                                                 \n                                                                      ){\n      return (ItemById[_id]._name(),ItemById[_id]._description(),ItemById[_id]._imagehash(),ItemById[_id].Url());\n   \n    }\n    function getOwnerById(uint _id) public view virtual returns(address){\n      return ItemById[_id].ownerOf(_id);\n    }\n\n    function getAllTokenAddresses() public view returns(address[] memory){\n        return ItemCreatedAddresses;\n    }\n      function Urltest(address Nft) public view returns(string memory){\n        \n        ItemTemplate rick;\n        rick = ItemTemplate(Nft);\n\n        return rick.UrlT() ;\n    }\n\n \n\n\n}\n\n\n\n\n\n\n",
  "sourcePath": "C:\\Users\\Luca\\Desktop\\tesi\\My-tesi\\src\\contracts\\ItemFarm.sol",
  "compiler": {
    "name": "solc",
    "version": "0.8.12+commit.f00d7308.Emscripten.clang"
  },
  "schemaVersion": "3.4.1",
  "updatedAt": "2022-02-21T09:24:04.447Z",
  "devdoc": {
    "kind": "dev",
    "methods": {},
    "version": 1
  },
  "userdoc": {
    "kind": "user",
    "methods": {},
    "version": 1
  }
}