{
  "contractName": "LItemUtils",
  "abi": [
    {
      "inputs": [
        {
          "internalType": "contract LoanItem",
          "name": "LItem",
          "type": "address"
        }
      ],
      "stateMutability": "nonpayable",
      "type": "constructor"
    },
    {
      "inputs": [],
      "name": "createtime",
      "outputs": [
        {
          "internalType": "uint256",
          "name": "",
          "type": "uint256"
        }
      ],
      "stateMutability": "view",
      "type": "function"
    },
    {
      "inputs": [],
      "name": "owner",
      "outputs": [
        {
          "internalType": "address",
          "name": "",
          "type": "address"
        }
      ],
      "stateMutability": "view",
      "type": "function"
    },
    {
      "inputs": [],
      "name": "Time",
      "outputs": [],
      "stateMutability": "nonpayable",
      "type": "function"
    },
    {
      "inputs": [],
      "name": "setFusoOraio",
      "outputs": [],
      "stateMutability": "nonpayable",
      "type": "function"
    },
    {
      "inputs": [
        {
          "internalType": "address[]",
          "name": "_from",
          "type": "address[]"
        }
      ],
      "name": "AllBalanceBath",
      "outputs": [
        {
          "internalType": "uint256[]",
          "name": "",
          "type": "uint256[]"
        }
      ],
      "stateMutability": "view",
      "type": "function"
    },
    {
      "inputs": [
        {
          "internalType": "address",
          "name": "_from",
          "type": "address"
        }
      ],
      "name": "AllBalanceBathForOne",
      "outputs": [
        {
          "internalType": "uint256",
          "name": "",
          "type": "uint256"
        }
      ],
      "stateMutability": "view",
      "type": "function"
    }
  ],
  "bytecode": "0x608060405234801561001057600080fd5b50604051610cf1380380610cf18339818101604052810190610032919061012e565b336000806101000a81548173ffffffffffffffffffffffffffffffffffffffff021916908373ffffffffffffffffffffffffffffffffffffffff16021790555080600260006101000a81548173ffffffffffffffffffffffffffffffffffffffff021916908373ffffffffffffffffffffffffffffffffffffffff1602179055505061015b565b600080fd5b600073ffffffffffffffffffffffffffffffffffffffff82169050919050565b60006100e9826100be565b9050919050565b60006100fb826100de565b9050919050565b61010b816100f0565b811461011657600080fd5b50565b60008151905061012881610102565b92915050565b600060208284031215610144576101436100b9565b5b600061015284828501610119565b91505092915050565b610b878061016a6000396000f3fe608060405234801561001057600080fd5b50600436106100625760003560e01c806323ba900e146100675780637f2deee1146100715780638ac45cfc146100a15780638da5cb5b146100d1578063e0175ec5146100ef578063f8e157ea1461010d575b600080fd5b61006f610117565b005b61008b6004803603810190610086919061081e565b61013b565b604051610098919061092f565b60405180910390f35b6100bb60048036038101906100b69190610951565b610405565b6040516100c8919061098d565b60405180910390f35b6100d9610613565b6040516100e691906109b7565b60405180910390f35b6100f7610637565b604051610104919061098d565b60405180910390f35b61011561063d565b005b6000600354141561013057610e10600381905550610139565b60006003819055505b565b60606000825167ffffffffffffffff81111561015a5761015961067d565b5b6040519080825280602002602001820160405280156101885781602001602082028036833780820191505090505b50905060005b83518110156103fb576000600190505b6001600260009054906101000a900473ffffffffffffffffffffffffffffffffffffffff1673ffffffffffffffffffffffffffffffffffffffff1663a963cff76040518163ffffffff1660e01b8152600401602060405180830381865afa15801561020d573d6000803e3d6000fd5b505050506040513d601f19601f8201168201806040525081019061023191906109fe565b61023b9190610a5a565b8110156103e957600260009054906101000a900473ffffffffffffffffffffffffffffffffffffffff1673ffffffffffffffffffffffffffffffffffffffff1662fdd58e86848151811061029257610291610ab0565b5b6020026020010151600260009054906101000a900473ffffffffffffffffffffffffffffffffffffffff1673ffffffffffffffffffffffffffffffffffffffff1663fac333ac856040518263ffffffff1660e01b81526004016102f5919061098d565b602060405180830381865afa158015610312573d6000803e3d6000fd5b505050506040513d601f19601f8201168201806040525081019061033691906109fe565b6040518363ffffffff1660e01b8152600401610353929190610adf565b602060405180830381865afa158015610370573d6000803e3d6000fd5b505050506040513d601f19601f8201168201806040525081019061039491906109fe565b8383815181106103a7576103a6610ab0565b5b60200260200101516103b99190610a5a565b8383815181106103cc576103cb610ab0565b5b602002602001018181525050806103e290610b08565b905061019e565b50806103f490610b08565b905061018e565b5080915050919050565b6000806000600190505b6001600260009054906101000a900473ffffffffffffffffffffffffffffffffffffffff1673ffffffffffffffffffffffffffffffffffffffff1663a963cff76040518163ffffffff1660e01b8152600401602060405180830381865afa15801561047e573d6000803e3d6000fd5b505050506040513d601f19601f820116820180604052508101906104a291906109fe565b6104ac9190610a5a565b81101561060957600260009054906101000a900473ffffffffffffffffffffffffffffffffffffffff1673ffffffffffffffffffffffffffffffffffffffff1662fdd58e85600260009054906101000a900473ffffffffffffffffffffffffffffffffffffffff1673ffffffffffffffffffffffffffffffffffffffff1663fac333ac856040518263ffffffff1660e01b815260040161054c919061098d565b602060405180830381865afa158015610569573d6000803e3d6000fd5b505050506040513d601f19601f8201168201806040525081019061058d91906109fe565b6040518363ffffffff1660e01b81526004016105aa929190610adf565b602060405180830381865afa1580156105c7573d6000803e3d6000fd5b505050506040513d601f19601f820116820180604052508101906105eb91906109fe565b826105f69190610a5a565b91508061060290610b08565b905061040f565b5080915050919050565b60008054906101000a900473ffffffffffffffffffffffffffffffffffffffff1681565b60015481565b6003544261064b9190610a5a565b600181905550565b6000604051905090565b600080fd5b600080fd5b600080fd5b6000601f19601f8301169050919050565b7f4e487b7100000000000000000000000000000000000000000000000000000000600052604160045260246000fd5b6106b58261066c565b810181811067ffffffffffffffff821117156106d4576106d361067d565b5b80604052505050565b60006106e7610653565b90506106f382826106ac565b919050565b600067ffffffffffffffff8211156107135761071261067d565b5b602082029050602081019050919050565b600080fd5b600073ffffffffffffffffffffffffffffffffffffffff82169050919050565b600061075482610729565b9050919050565b61076481610749565b811461076f57600080fd5b50565b6000813590506107818161075b565b92915050565b600061079a610795846106f8565b6106dd565b905080838252602082019050602084028301858111156107bd576107bc610724565b5b835b818110156107e657806107d28882610772565b8452602084019350506020810190506107bf565b5050509392505050565b600082601f83011261080557610804610667565b5b8135610815848260208601610787565b91505092915050565b6000602082840312156108345761083361065d565b5b600082013567ffffffffffffffff81111561085257610851610662565b5b61085e848285016107f0565b91505092915050565b600081519050919050565b600082825260208201905092915050565b6000819050602082019050919050565b6000819050919050565b6108a681610893565b82525050565b60006108b8838361089d565b60208301905092915050565b6000602082019050919050565b60006108dc82610867565b6108e68185610872565b93506108f183610883565b8060005b8381101561092257815161090988826108ac565b9750610914836108c4565b9250506001810190506108f5565b5085935050505092915050565b6000602082019050818103600083015261094981846108d1565b905092915050565b6000602082840312156109675761096661065d565b5b600061097584828501610772565b91505092915050565b61098781610893565b82525050565b60006020820190506109a2600083018461097e565b92915050565b6109b181610749565b82525050565b60006020820190506109cc60008301846109a8565b92915050565b6109db81610893565b81146109e657600080fd5b50565b6000815190506109f8816109d2565b92915050565b600060208284031215610a1457610a1361065d565b5b6000610a22848285016109e9565b91505092915050565b7f4e487b7100000000000000000000000000000000000000000000000000000000600052601160045260246000fd5b6000610a6582610893565b9150610a7083610893565b9250827fffffffffffffffffffffffffffffffffffffffffffffffffffffffffffffffff03821115610aa557610aa4610a2b565b5b828201905092915050565b7f4e487b7100000000000000000000000000000000000000000000000000000000600052603260045260246000fd5b6000604082019050610af460008301856109a8565b610b01602083018461097e565b9392505050565b6000610b1382610893565b91507fffffffffffffffffffffffffffffffffffffffffffffffffffffffffffffffff821415610b4657610b45610a2b565b5b60018201905091905056fea2646970667358221220866c14f30b7bf5d699ae33c84c3a119f9435c75ce2e8717ef833d12c2f95347e64736f6c634300080a0033",
  "immutableReferences": {},
  "source": "\r\n\r\n\r\n// SPDX-License-Identifier: MIT\r\n\r\npragma solidity ^0.8.0;\r\n\r\n//import \"@openzeppelin/contracts/token/ERC1155/ERC1155.sol\";\r\n\r\n\r\nimport \"./LoanItem.sol\";\r\n\r\n\r\n contract LItemUtils   {\r\n   address public owner;\r\n   uint256 public createtime;\r\n   LoanItem loanItem;\r\n   uint256 fusoorario;\r\n\r\n  constructor(LoanItem LItem) public {  \r\n  owner = msg.sender;\r\n  loanItem = LItem;\r\n         }\r\n\r\n   function Time() external {\r\n        createtime = block.timestamp+ fusoorario;\r\n      }\r\n\r\n   function setFusoOraio()public{\r\n  if (fusoorario==0){\r\n    fusoorario= 3600;\r\n  }\r\n  else{\r\n    fusoorario=0;\r\n  }\r\n}\r\n\r\n        function AllBalanceBath(address[] memory _from) external\r\n      //tutti i comodati affidati divisi per utenti _from[1] utente 1 ha ids[0] \r\n      view\r\n      virtual\r\n      returns (uint256[] memory)\r\n      {\r\n        uint256[] memory batchBalances = new uint256[](_from.length);\r\n        for (uint256 i = 0; i < _from.length; ++i) {\r\n          for(uint256 j = 1; j <loanItem.countAttrezzi()+1;++j){\r\n            batchBalances[i] = batchBalances[i] + loanItem.balanceOf(_from[i],loanItem.ids(j));\r\n          }\r\n        }\r\n      return batchBalances;\r\n      }\r\n    \r\n      function AllBalanceBathForOne(address _from) external\r\n      //tutti i comodati affidati divisi per utenti _from[1] utente 1 ha ids[0] \r\n      view\r\n      virtual\r\n      returns (uint256)\r\n      {\r\n        uint256 batchBalances1;        \r\n        for(uint256 j = 1; j <loanItem.countAttrezzi()+1;++j){\r\n          batchBalances1 = batchBalances1 + loanItem.balanceOf(_from,loanItem.ids(j));     \r\n        }  \r\n        return batchBalances1;\r\n      }\r\n      \r\n\r\n}\r\n\r\n\r\n\r\n\r\n\r\n",
  "sourcePath": "C:\\Users\\Luca\\Desktop\\tesi\\My-tesi\\src\\contracts\\LItemUtils.sol",
  "compiler": {
    "name": "solc",
    "version": "0.8.10+commit.fc410830.Emscripten.clang"
  },
  "schemaVersion": "3.4.1",
  "updatedAt": "2021-11-18T16:10:27.574Z",
  "devdoc": {
    "kind": "dev",
    "methods": {},
    "version": 1
  },
  "userdoc": {
    "kind": "user",
    "methods": {},
    "version": 1
  }
}