{
  "contractName": "LItemUtils",
  "abi": [
    {
      "inputs": [
        {
          "internalType": "contract LoanItem",
          "name": "LItem",
          "type": "address"
        },
        {
          "internalType": "contract Calendar",
          "name": "calendario",
          "type": "address"
        }
      ],
      "stateMutability": "nonpayable",
      "type": "constructor"
    },
    {
      "inputs": [],
      "name": "createtime",
      "outputs": [
        {
          "internalType": "uint256",
          "name": "",
          "type": "uint256"
        }
      ],
      "stateMutability": "view",
      "type": "function"
    },
    {
      "inputs": [],
      "name": "owner",
      "outputs": [
        {
          "internalType": "address",
          "name": "",
          "type": "address"
        }
      ],
      "stateMutability": "view",
      "type": "function"
    },
    {
      "inputs": [],
      "name": "Time",
      "outputs": [],
      "stateMutability": "nonpayable",
      "type": "function"
    },
    {
      "inputs": [],
      "name": "Update",
      "outputs": [],
      "stateMutability": "nonpayable",
      "type": "function"
    },
    {
      "inputs": [],
      "name": "setFusoOraio",
      "outputs": [],
      "stateMutability": "nonpayable",
      "type": "function"
    },
    {
      "inputs": [
        {
          "internalType": "address[]",
          "name": "_from",
          "type": "address[]"
        }
      ],
      "name": "AllBalanceBath",
      "outputs": [
        {
          "internalType": "uint256[]",
          "name": "",
          "type": "uint256[]"
        }
      ],
      "stateMutability": "view",
      "type": "function"
    },
    {
      "inputs": [
        {
          "internalType": "address",
          "name": "_from",
          "type": "address"
        }
      ],
      "name": "AllBalanceBathForOne",
      "outputs": [
        {
          "internalType": "uint256",
          "name": "",
          "type": "uint256"
        }
      ],
      "stateMutability": "view",
      "type": "function"
    }
  ],
  "bytecode": "0x60806040523480156200001157600080fd5b5060405162000dc938038062000dc98339818101604052810190620000379190620001c4565b336000806101000a81548173ffffffffffffffffffffffffffffffffffffffff021916908373ffffffffffffffffffffffffffffffffffffffff16021790555081600260006101000a81548173ffffffffffffffffffffffffffffffffffffffff021916908373ffffffffffffffffffffffffffffffffffffffff16021790555080600360006101000a81548173ffffffffffffffffffffffffffffffffffffffff021916908373ffffffffffffffffffffffffffffffffffffffff16021790555050506200020b565b600080fd5b600073ffffffffffffffffffffffffffffffffffffffff82169050919050565b6000620001338262000106565b9050919050565b6000620001478262000126565b9050919050565b62000159816200013a565b81146200016557600080fd5b50565b60008151905062000179816200014e565b92915050565b60006200018c8262000126565b9050919050565b6200019e816200017f565b8114620001aa57600080fd5b50565b600081519050620001be8162000193565b92915050565b60008060408385031215620001de57620001dd62000101565b5b6000620001ee8582860162000168565b92505060206200020185828601620001ad565b9150509250929050565b610bae806200021b6000396000f3fe608060405234801561001057600080fd5b506004361061007d5760003560e01c80638da5cb5b1161005b5780638da5cb5b146100ec578063af4b7f141461010a578063e0175ec514610114578063f8e157ea146101325761007d565b806323ba900e146100825780637f2deee11461008c5780638ac45cfc146100bc575b600080fd5b61008a61013c565b005b6100a660048036038101906100a19190610845565b610160565b6040516100b39190610956565b60405180910390f35b6100d660048036038101906100d19190610978565b61042a565b6040516100e391906109b4565b60405180910390f35b6100f4610638565b60405161010191906109de565b60405180910390f35b61011261065c565b005b61011c61065e565b60405161012991906109b4565b60405180910390f35b61013a610664565b005b6000600454141561015557610e1060048190555061015e565b60006004819055505b565b60606000825167ffffffffffffffff81111561017f5761017e6106a4565b5b6040519080825280602002602001820160405280156101ad5781602001602082028036833780820191505090505b50905060005b8351811015610420576000600190505b6001600260009054906101000a900473ffffffffffffffffffffffffffffffffffffffff1673ffffffffffffffffffffffffffffffffffffffff1663a963cff76040518163ffffffff1660e01b8152600401602060405180830381865afa158015610232573d6000803e3d6000fd5b505050506040513d601f19601f820116820180604052508101906102569190610a25565b6102609190610a81565b81101561040e57600260009054906101000a900473ffffffffffffffffffffffffffffffffffffffff1673ffffffffffffffffffffffffffffffffffffffff1662fdd58e8684815181106102b7576102b6610ad7565b5b6020026020010151600260009054906101000a900473ffffffffffffffffffffffffffffffffffffffff1673ffffffffffffffffffffffffffffffffffffffff1663fac333ac856040518263ffffffff1660e01b815260040161031a91906109b4565b602060405180830381865afa158015610337573d6000803e3d6000fd5b505050506040513d601f19601f8201168201806040525081019061035b9190610a25565b6040518363ffffffff1660e01b8152600401610378929190610b06565b602060405180830381865afa158015610395573d6000803e3d6000fd5b505050506040513d601f19601f820116820180604052508101906103b99190610a25565b8383815181106103cc576103cb610ad7565b5b60200260200101516103de9190610a81565b8383815181106103f1576103f0610ad7565b5b6020026020010181815250508061040790610b2f565b90506101c3565b508061041990610b2f565b90506101b3565b5080915050919050565b6000806000600190505b6001600260009054906101000a900473ffffffffffffffffffffffffffffffffffffffff1673ffffffffffffffffffffffffffffffffffffffff1663a963cff76040518163ffffffff1660e01b8152600401602060405180830381865afa1580156104a3573d6000803e3d6000fd5b505050506040513d601f19601f820116820180604052508101906104c79190610a25565b6104d19190610a81565b81101561062e57600260009054906101000a900473ffffffffffffffffffffffffffffffffffffffff1673ffffffffffffffffffffffffffffffffffffffff1662fdd58e85600260009054906101000a900473ffffffffffffffffffffffffffffffffffffffff1673ffffffffffffffffffffffffffffffffffffffff1663fac333ac856040518263ffffffff1660e01b815260040161057191906109b4565b602060405180830381865afa15801561058e573d6000803e3d6000fd5b505050506040513d601f19601f820116820180604052508101906105b29190610a25565b6040518363ffffffff1660e01b81526004016105cf929190610b06565b602060405180830381865afa1580156105ec573d6000803e3d6000fd5b505050506040513d601f19601f820116820180604052508101906106109190610a25565b8261061b9190610a81565b91508061062790610b2f565b9050610434565b5080915050919050565b60008054906101000a900473ffffffffffffffffffffffffffffffffffffffff1681565b565b60015481565b600454426106729190610a81565b600181905550565b6000604051905090565b600080fd5b600080fd5b600080fd5b6000601f19601f8301169050919050565b7f4e487b7100000000000000000000000000000000000000000000000000000000600052604160045260246000fd5b6106dc82610693565b810181811067ffffffffffffffff821117156106fb576106fa6106a4565b5b80604052505050565b600061070e61067a565b905061071a82826106d3565b919050565b600067ffffffffffffffff82111561073a576107396106a4565b5b602082029050602081019050919050565b600080fd5b600073ffffffffffffffffffffffffffffffffffffffff82169050919050565b600061077b82610750565b9050919050565b61078b81610770565b811461079657600080fd5b50565b6000813590506107a881610782565b92915050565b60006107c16107bc8461071f565b610704565b905080838252602082019050602084028301858111156107e4576107e361074b565b5b835b8181101561080d57806107f98882610799565b8452602084019350506020810190506107e6565b5050509392505050565b600082601f83011261082c5761082b61068e565b5b813561083c8482602086016107ae565b91505092915050565b60006020828403121561085b5761085a610684565b5b600082013567ffffffffffffffff81111561087957610878610689565b5b61088584828501610817565b91505092915050565b600081519050919050565b600082825260208201905092915050565b6000819050602082019050919050565b6000819050919050565b6108cd816108ba565b82525050565b60006108df83836108c4565b60208301905092915050565b6000602082019050919050565b60006109038261088e565b61090d8185610899565b9350610918836108aa565b8060005b8381101561094957815161093088826108d3565b975061093b836108eb565b92505060018101905061091c565b5085935050505092915050565b6000602082019050818103600083015261097081846108f8565b905092915050565b60006020828403121561098e5761098d610684565b5b600061099c84828501610799565b91505092915050565b6109ae816108ba565b82525050565b60006020820190506109c960008301846109a5565b92915050565b6109d881610770565b82525050565b60006020820190506109f360008301846109cf565b92915050565b610a02816108ba565b8114610a0d57600080fd5b50565b600081519050610a1f816109f9565b92915050565b600060208284031215610a3b57610a3a610684565b5b6000610a4984828501610a10565b91505092915050565b7f4e487b7100000000000000000000000000000000000000000000000000000000600052601160045260246000fd5b6000610a8c826108ba565b9150610a97836108ba565b9250827fffffffffffffffffffffffffffffffffffffffffffffffffffffffffffffffff03821115610acc57610acb610a52565b5b828201905092915050565b7f4e487b7100000000000000000000000000000000000000000000000000000000600052603260045260246000fd5b6000604082019050610b1b60008301856109cf565b610b2860208301846109a5565b9392505050565b6000610b3a826108ba565b91507fffffffffffffffffffffffffffffffffffffffffffffffffffffffffffffffff821415610b6d57610b6c610a52565b5b60018201905091905056fea26469706673582212208e755c759b39bf55ec0e84197f4a6f0a74e0028d16c63ae405360bca1db261fd64736f6c634300080a0033",
  "immutableReferences": {},
  "source": "\r\n\r\n\r\n// SPDX-License-Identifier: MIT\r\n\r\npragma solidity ^0.8.0;\r\n\r\n//import \"@openzeppelin/contracts/token/ERC1155/ERC1155.sol\";\r\n\r\n\r\nimport \"./LoanItem.sol\";\r\nimport\"./LitemCalendar.sol\";\r\n\r\n contract LItemUtils   {\r\n   address public owner;\r\n   uint256 public createtime;\r\n   LoanItem loanItem;\r\n   Calendar Calendario;\r\n   uint256 fusoorario;\r\n\r\n  constructor(LoanItem LItem,Calendar calendario) public {  \r\n  owner = msg.sender;\r\n  loanItem = LItem;\r\n  Calendario = calendario;\r\n         }\r\n\r\n   function Time() external {\r\n        createtime = block.timestamp+ fusoorario;\r\n      }\r\n\r\n   function Update() public {\r\n        //createtime = block.timestamp+ fusoorario;\r\n      }\r\n\r\n   function setFusoOraio()public{\r\n  if (fusoorario==0){\r\n    fusoorario= 3600;\r\n  }\r\n  else{\r\n    fusoorario=0;\r\n  }\r\n}\r\n\r\n        function AllBalanceBath(address[] memory _from) external\r\n      //tutti i comodati affidati divisi per utenti _from[1] utente 1 ha ids[0] \r\n      view\r\n      virtual\r\n      returns (uint256[] memory)\r\n      {\r\n        uint256[] memory batchBalances = new uint256[](_from.length);\r\n        for (uint256 i = 0; i < _from.length; ++i) {\r\n          for(uint256 j = 1; j <loanItem.countAttrezzi()+1;++j){\r\n            batchBalances[i] = batchBalances[i] + loanItem.balanceOf(_from[i],loanItem.ids(j));\r\n          }\r\n        }\r\n      return batchBalances;\r\n      }\r\n    \r\n      function AllBalanceBathForOne(address _from) external\r\n      //tutti i comodati affidati divisi per utenti _from[1] utente 1 ha ids[0] \r\n      view\r\n      virtual\r\n      returns (uint256)\r\n      {\r\n        uint256 batchBalances1;        \r\n        for(uint256 j = 1; j <loanItem.countAttrezzi()+1;++j){\r\n          batchBalances1 = batchBalances1 + loanItem.balanceOf(_from,loanItem.ids(j));     \r\n        }  \r\n        return batchBalances1;\r\n      }\r\n      \r\n\r\n}\r\n\r\n\r\n\r\n\r\n\r\n",
  "sourcePath": "C:/Users/Luca/Desktop/tesi/My-tesi/src/contracts/LItemUtils.sol",
  "compiler": {
    "name": "solc",
    "version": "0.8.10+commit.fc410830.Emscripten.clang"
  },
  "schemaVersion": "3.4.1",
  "updatedAt": "2021-11-29T16:32:34.805Z",
  "devdoc": {
    "kind": "dev",
    "methods": {},
    "version": 1
  },
  "userdoc": {
    "kind": "user",
    "methods": {},
    "version": 1
  }
}