{
  "contractName": "LItemUtils",
  "abi": [
    {
      "inputs": [],
      "stateMutability": "nonpayable",
      "type": "constructor"
    },
    {
      "inputs": [],
      "name": "createtime",
      "outputs": [
        {
          "internalType": "uint256",
          "name": "",
          "type": "uint256"
        }
      ],
      "stateMutability": "view",
      "type": "function"
    },
    {
      "inputs": [],
      "name": "owner",
      "outputs": [
        {
          "internalType": "address",
          "name": "",
          "type": "address"
        }
      ],
      "stateMutability": "view",
      "type": "function"
    },
    {
      "inputs": [],
      "name": "Time",
      "outputs": [],
      "stateMutability": "nonpayable",
      "type": "function"
    },
    {
      "inputs": [],
      "name": "Update",
      "outputs": [],
      "stateMutability": "nonpayable",
      "type": "function"
    },
    {
      "inputs": [],
      "name": "setFusoOraio",
      "outputs": [],
      "stateMutability": "nonpayable",
      "type": "function"
    },
    {
      "inputs": [
        {
          "internalType": "address",
          "name": "cal",
          "type": "address"
        },
        {
          "internalType": "address",
          "name": "item",
          "type": "address"
        }
      ],
      "name": "Declarence",
      "outputs": [],
      "stateMutability": "nonpayable",
      "type": "function"
    },
    {
      "inputs": [
        {
          "internalType": "address[]",
          "name": "_from",
          "type": "address[]"
        }
      ],
      "name": "AllBalanceBath",
      "outputs": [
        {
          "internalType": "uint256[]",
          "name": "",
          "type": "uint256[]"
        }
      ],
      "stateMutability": "view",
      "type": "function"
    },
    {
      "inputs": [
        {
          "internalType": "address",
          "name": "_from",
          "type": "address"
        }
      ],
      "name": "AllBalanceBathForOne",
      "outputs": [
        {
          "internalType": "uint256",
          "name": "",
          "type": "uint256"
        }
      ],
      "stateMutability": "view",
      "type": "function"
    },
    {
      "inputs": [
        {
          "internalType": "uint256",
          "name": "_id",
          "type": "uint256"
        }
      ],
      "name": "WaitingUsr",
      "outputs": [
        {
          "internalType": "address",
          "name": "",
          "type": "address"
        }
      ],
      "stateMutability": "nonpayable",
      "type": "function"
    }
  ],
  "bytecode": "0x608060405234801561001057600080fd5b50611053806100206000396000f3fe608060405234801561001057600080fd5b50600436106100935760003560e01c80638ac45cfc116100665780638ac45cfc1461011e5780638da5cb5b1461014e578063af4b7f141461016c578063e0175ec514610176578063f8e157ea1461019457610093565b806323ba900e146100985780634a98e2ce146100a25780637f2deee1146100be57806388c01220146100ee575b600080fd5b6100a061019e565b005b6100bc60048036038101906100b79190610aa4565b6101c2565b005b6100d860048036038101906100d39190610c3d565b610248565b6040516100e59190610d4e565b60405180910390f35b61010860048036038101906101039190610d9c565b610512565b6040516101159190610dd8565b60405180910390f35b61013860048036038101906101339190610df3565b6107e2565b6040516101459190610e2f565b60405180910390f35b6101566109f0565b6040516101639190610dd8565b60405180910390f35b610174610a14565b005b61017e610a16565b60405161018b9190610e2f565b60405180910390f35b61019c610a1c565b005b600060045414156101b757610e106004819055506101c0565b60006004819055505b565b80600260006101000a81548173ffffffffffffffffffffffffffffffffffffffff021916908373ffffffffffffffffffffffffffffffffffffffff16021790555081600360006101000a81548173ffffffffffffffffffffffffffffffffffffffff021916908373ffffffffffffffffffffffffffffffffffffffff1602179055505050565b60606000825167ffffffffffffffff81111561026757610266610afa565b5b6040519080825280602002602001820160405280156102955781602001602082028036833780820191505090505b50905060005b8351811015610508576000600190505b6001600260009054906101000a900473ffffffffffffffffffffffffffffffffffffffff1673ffffffffffffffffffffffffffffffffffffffff1663a963cff76040518163ffffffff1660e01b8152600401602060405180830381865afa15801561031a573d6000803e3d6000fd5b505050506040513d601f19601f8201168201806040525081019061033e9190610e5f565b6103489190610ebb565b8110156104f657600260009054906101000a900473ffffffffffffffffffffffffffffffffffffffff1673ffffffffffffffffffffffffffffffffffffffff1662fdd58e86848151811061039f5761039e610f11565b5b6020026020010151600260009054906101000a900473ffffffffffffffffffffffffffffffffffffffff1673ffffffffffffffffffffffffffffffffffffffff1663fac333ac856040518263ffffffff1660e01b81526004016104029190610e2f565b602060405180830381865afa15801561041f573d6000803e3d6000fd5b505050506040513d601f19601f820116820180604052508101906104439190610e5f565b6040518363ffffffff1660e01b8152600401610460929190610f40565b602060405180830381865afa15801561047d573d6000803e3d6000fd5b505050506040513d601f19601f820116820180604052508101906104a19190610e5f565b8383815181106104b4576104b3610f11565b5b60200260200101516104c69190610ebb565b8383815181106104d9576104d8610f11565b5b602002602001018181525050806104ef90610f69565b90506102ab565b508061050190610f69565b905061029b565b5080915050919050565b6000805b600360009054906101000a900473ffffffffffffffffffffffffffffffffffffffff1673ffffffffffffffffffffffffffffffffffffffff1663580f79d36040518163ffffffff1660e01b8152600401602060405180830381865afa158015610583573d6000803e3d6000fd5b505050506040513d601f19601f820116820180604052508101906105a79190610e5f565b60646105b39190610ebb565b8110156107d757600073ffffffffffffffffffffffffffffffffffffffff16600260009054906101000a900473ffffffffffffffffffffffffffffffffffffffff1673ffffffffffffffffffffffffffffffffffffffff1663f9c93e4785846040518363ffffffff1660e01b815260040161062f929190610fb2565b602060405180830381865afa15801561064c573d6000803e3d6000fd5b505050506040513d601f19601f820116820180604052508101906106709190610ff0565b73ffffffffffffffffffffffffffffffffffffffff16146107c457600360009054906101000a900473ffffffffffffffffffffffffffffffffffffffff1673ffffffffffffffffffffffffffffffffffffffff1663580f79d36040518163ffffffff1660e01b8152600401602060405180830381865afa1580156106f8573d6000803e3d6000fd5b505050506040513d601f19601f8201168201806040525081019061071c9190610e5f565b9050600260009054906101000a900473ffffffffffffffffffffffffffffffffffffffff1673ffffffffffffffffffffffffffffffffffffffff1663f9c93e4784836040518363ffffffff1660e01b815260040161077b929190610fb2565b602060405180830381865afa158015610798573d6000803e3d6000fd5b505050506040513d601f19601f820116820180604052508101906107bc9190610ff0565b9150506107dd565b80806107cf90610f69565b915050610516565b50600090505b919050565b6000806000600190505b6001600260009054906101000a900473ffffffffffffffffffffffffffffffffffffffff1673ffffffffffffffffffffffffffffffffffffffff1663a963cff76040518163ffffffff1660e01b8152600401602060405180830381865afa15801561085b573d6000803e3d6000fd5b505050506040513d601f19601f8201168201806040525081019061087f9190610e5f565b6108899190610ebb565b8110156109e657600260009054906101000a900473ffffffffffffffffffffffffffffffffffffffff1673ffffffffffffffffffffffffffffffffffffffff1662fdd58e85600260009054906101000a900473ffffffffffffffffffffffffffffffffffffffff1673ffffffffffffffffffffffffffffffffffffffff1663fac333ac856040518263ffffffff1660e01b81526004016109299190610e2f565b602060405180830381865afa158015610946573d6000803e3d6000fd5b505050506040513d601f19601f8201168201806040525081019061096a9190610e5f565b6040518363ffffffff1660e01b8152600401610987929190610f40565b602060405180830381865afa1580156109a4573d6000803e3d6000fd5b505050506040513d601f19601f820116820180604052508101906109c89190610e5f565b826109d39190610ebb565b9150806109df90610f69565b90506107ec565b5080915050919050565b60008054906101000a900473ffffffffffffffffffffffffffffffffffffffff1681565b565b60015481565b60045442610a2a9190610ebb565b600181905550565b6000604051905090565b600080fd5b600080fd5b600073ffffffffffffffffffffffffffffffffffffffff82169050919050565b6000610a7182610a46565b9050919050565b610a8181610a66565b8114610a8c57600080fd5b50565b600081359050610a9e81610a78565b92915050565b60008060408385031215610abb57610aba610a3c565b5b6000610ac985828601610a8f565b9250506020610ada85828601610a8f565b9150509250929050565b600080fd5b6000601f19601f8301169050919050565b7f4e487b7100000000000000000000000000000000000000000000000000000000600052604160045260246000fd5b610b3282610ae9565b810181811067ffffffffffffffff82111715610b5157610b50610afa565b5b80604052505050565b6000610b64610a32565b9050610b708282610b29565b919050565b600067ffffffffffffffff821115610b9057610b8f610afa565b5b602082029050602081019050919050565b600080fd5b6000610bb9610bb484610b75565b610b5a565b90508083825260208201905060208402830185811115610bdc57610bdb610ba1565b5b835b81811015610c055780610bf18882610a8f565b845260208401935050602081019050610bde565b5050509392505050565b600082601f830112610c2457610c23610ae4565b5b8135610c34848260208601610ba6565b91505092915050565b600060208284031215610c5357610c52610a3c565b5b600082013567ffffffffffffffff811115610c7157610c70610a41565b5b610c7d84828501610c0f565b91505092915050565b600081519050919050565b600082825260208201905092915050565b6000819050602082019050919050565b6000819050919050565b610cc581610cb2565b82525050565b6000610cd78383610cbc565b60208301905092915050565b6000602082019050919050565b6000610cfb82610c86565b610d058185610c91565b9350610d1083610ca2565b8060005b83811015610d41578151610d288882610ccb565b9750610d3383610ce3565b925050600181019050610d14565b5085935050505092915050565b60006020820190508181036000830152610d688184610cf0565b905092915050565b610d7981610cb2565b8114610d8457600080fd5b50565b600081359050610d9681610d70565b92915050565b600060208284031215610db257610db1610a3c565b5b6000610dc084828501610d87565b91505092915050565b610dd281610a66565b82525050565b6000602082019050610ded6000830184610dc9565b92915050565b600060208284031215610e0957610e08610a3c565b5b6000610e1784828501610a8f565b91505092915050565b610e2981610cb2565b82525050565b6000602082019050610e446000830184610e20565b92915050565b600081519050610e5981610d70565b92915050565b600060208284031215610e7557610e74610a3c565b5b6000610e8384828501610e4a565b91505092915050565b7f4e487b7100000000000000000000000000000000000000000000000000000000600052601160045260246000fd5b6000610ec682610cb2565b9150610ed183610cb2565b9250827fffffffffffffffffffffffffffffffffffffffffffffffffffffffffffffffff03821115610f0657610f05610e8c565b5b828201905092915050565b7f4e487b7100000000000000000000000000000000000000000000000000000000600052603260045260246000fd5b6000604082019050610f556000830185610dc9565b610f626020830184610e20565b9392505050565b6000610f7482610cb2565b91507fffffffffffffffffffffffffffffffffffffffffffffffffffffffffffffffff821415610fa757610fa6610e8c565b5b600182019050919050565b6000604082019050610fc76000830185610e20565b610fd46020830184610e20565b9392505050565b600081519050610fea81610a78565b92915050565b60006020828403121561100657611005610a3c565b5b600061101484828501610fdb565b9150509291505056fea2646970667358221220bddcd3a714c7da76fee2b0317c3ece80481981663c83751497adb42c36749d1a64736f6c634300080a0033",
  "immutableReferences": {},
  "source": "\r\n\r\n\r\n// SPDX-License-Identifier: MIT\r\n\r\npragma solidity ^0.8.0;\r\n\r\n//import \"@openzeppelin/contracts/token/ERC1155/ERC1155.sol\";\r\n\r\n\r\nimport \"./LoanItem.sol\";\r\nimport\"./LitemCalendar.sol\";\r\n\r\n contract LItemUtils   {\r\n   address public owner;\r\n   uint256 public createtime;\r\n   LoanItem loanItem;\r\n   Calendar Calendario;\r\n   uint256 fusoorario;\r\n   \r\n   \r\n\r\n  constructor() public {  \r\n  \r\n         }\r\n\r\n   function Time() external {\r\n        createtime = block.timestamp+ fusoorario;\r\n      }\r\n\r\n   function Update() public {\r\n        //createtime = block.timestamp+ fusoorario;\r\n      }\r\n\r\n   function setFusoOraio()public{\r\n  if (fusoorario==0){\r\n    fusoorario= 3600;\r\n  }\r\n  else{\r\n    fusoorario=0;\r\n  }\r\n}\r\n      function Declarence(address cal, address item) public{\r\n\r\n        loanItem = LoanItem(address(item));\r\n        Calendario = Calendar(address(cal));\r\n      }\r\n\r\n        function AllBalanceBath(address[] memory _from) external\r\n      //tutti i comodati affidati divisi per utenti _from[1] utente 1 ha ids[0] \r\n      view\r\n      virtual\r\n      returns (uint256[] memory)\r\n      {\r\n         \r\n        uint256[] memory batchBalances = new uint256[](_from.length);\r\n        for (uint256 i = 0; i < _from.length; ++i) {\r\n          for(uint256 j = 1; j <loanItem.countAttrezzi()+1;++j){\r\n            batchBalances[i] = batchBalances[i] + loanItem.balanceOf(_from[i],loanItem.ids(j));\r\n          }\r\n        }\r\n      return batchBalances;\r\n      }\r\n    \r\n      function AllBalanceBathForOne(address _from) external\r\n      //tutti i comodati affidati divisi per utenti _from[1] utente 1 ha ids[0] \r\n      view\r\n      virtual\r\n      returns (uint256)\r\n      {\r\n        \r\n        uint256 batchBalances1;        \r\n        for(uint256 j = 1; j <loanItem.countAttrezzi()+1;++j){\r\n          batchBalances1 = batchBalances1 + loanItem.balanceOf(_from,loanItem.ids(j));     \r\n        }  \r\n        return batchBalances1;\r\n      }\r\n      \r\n       function WaitingUsr(uint256 _id) public \r\n      virtual returns(address){\r\n\r\n   for(uint256 i; i<100 + Calendario.Orders();i++){\r\n    if(loanItem.CautionId(_id,i) != address(0x0)){\r\n      i = Calendario.Orders();\r\n      return loanItem.CautionId(_id,i);\r\n\r\n   }\r\n\r\n    }\r\n   return address(0x0);\r\n    }\r\n\r\n\r\n}\r\n\r\n\r\n\r\n\r\n\r\n",
  "sourcePath": "C:/Users/Luca/Desktop/tesi/My-tesi/src/contracts/LItemUtils.sol",
  "compiler": {
    "name": "solc",
    "version": "0.8.10+commit.fc410830.Emscripten.clang"
  },
  "schemaVersion": "3.4.1",
  "updatedAt": "2021-12-16T15:57:23.782Z",
  "devdoc": {
    "kind": "dev",
    "methods": {},
    "version": 1
  },
  "userdoc": {
    "kind": "user",
    "methods": {},
    "version": 1
  }
}