{
  "contractName": "LItemUtils",
  "abi": [
    {
      "inputs": [],
      "stateMutability": "nonpayable",
      "type": "constructor"
    },
    {
      "inputs": [],
      "name": "createtime",
      "outputs": [
        {
          "internalType": "uint256",
          "name": "",
          "type": "uint256"
        }
      ],
      "stateMutability": "view",
      "type": "function"
    },
    {
      "inputs": [],
      "name": "owner",
      "outputs": [
        {
          "internalType": "address",
          "name": "",
          "type": "address"
        }
      ],
      "stateMutability": "view",
      "type": "function"
    },
    {
      "inputs": [],
      "name": "Time",
      "outputs": [],
      "stateMutability": "nonpayable",
      "type": "function"
    },
    {
      "inputs": [],
      "name": "Update",
      "outputs": [],
      "stateMutability": "nonpayable",
      "type": "function"
    },
    {
      "inputs": [],
      "name": "setFusoOraio",
      "outputs": [],
      "stateMutability": "nonpayable",
      "type": "function"
    },
    {
      "inputs": [
        {
          "internalType": "address",
          "name": "cal",
          "type": "address"
        },
        {
          "internalType": "address",
          "name": "item",
          "type": "address"
        }
      ],
      "name": "Declarence",
      "outputs": [],
      "stateMutability": "nonpayable",
      "type": "function"
    }
  ],
  "bytecode": "0x608060405234801561001057600080fd5b50610385806100206000396000f3fe608060405234801561001057600080fd5b50600436106100625760003560e01c806323ba900e146100675780634a98e2ce146100715780638da5cb5b1461008d578063af4b7f14146100ab578063e0175ec5146100b5578063f8e157ea146100d3575b600080fd5b61006f6100dd565b005b61008b6004803603810190610086919061022c565b610101565b005b610095610187565b6040516100a2919061027b565b60405180910390f35b6100b36101ab565b005b6100bd6101ad565b6040516100ca91906102af565b60405180910390f35b6100db6101b3565b005b600060045414156100f657610e106004819055506100ff565b60006004819055505b565b80600260006101000a81548173ffffffffffffffffffffffffffffffffffffffff021916908373ffffffffffffffffffffffffffffffffffffffff16021790555081600360006101000a81548173ffffffffffffffffffffffffffffffffffffffff021916908373ffffffffffffffffffffffffffffffffffffffff1602179055505050565b60008054906101000a900473ffffffffffffffffffffffffffffffffffffffff1681565b565b60015481565b600454426101c191906102f9565b600181905550565b600080fd5b600073ffffffffffffffffffffffffffffffffffffffff82169050919050565b60006101f9826101ce565b9050919050565b610209816101ee565b811461021457600080fd5b50565b60008135905061022681610200565b92915050565b60008060408385031215610243576102426101c9565b5b600061025185828601610217565b925050602061026285828601610217565b9150509250929050565b610275816101ee565b82525050565b6000602082019050610290600083018461026c565b92915050565b6000819050919050565b6102a981610296565b82525050565b60006020820190506102c460008301846102a0565b92915050565b7f4e487b7100000000000000000000000000000000000000000000000000000000600052601160045260246000fd5b600061030482610296565b915061030f83610296565b9250827fffffffffffffffffffffffffffffffffffffffffffffffffffffffffffffffff03821115610344576103436102ca565b5b82820190509291505056fea26469706673582212200a17af6163bf2484de50ceb51371197a1f09c86e43c8888538c0c1ad5de8f5d164736f6c634300080b0033",
  "immutableReferences": {},
  "source": "\n\n\n// SPDX-License-Identifier: MIT\n\npragma solidity ^0.8.0;\n\n//import \"@openzeppelin/contracts/token/ERC1155/ERC1155.sol\";\n\n\nimport \"./LoanItem.sol\";\nimport\"./LitemCalendar.sol\";\n\n contract LItemUtils   {\n   address public owner;\n   uint256 public createtime;\n   LoanItem loanItem;\n   Calendar Calendario;\n   uint256 fusoorario;\n   \n   \n\n  constructor() public {  \n  \n         }\n\n   function Time() external {\n        createtime = block.timestamp+ fusoorario;\n      }\n\n   function Update() public {\n        //createtime = block.timestamp+ fusoorario;\n      }\n\n   function setFusoOraio()public{\n  if (fusoorario==0){\n    fusoorario= 3600;\n  }\n  else{\n    fusoorario=0;\n  }\n}\n      function Declarence(address cal, address item) public{\n\n        loanItem = LoanItem(address(item));\n        Calendario = Calendar(address(cal));\n      }\n\n\n}\n\n\n\n\n\n",
  "sourcePath": "C:/Users/Luca/Desktop/tesi/My-tesi/src/contracts/LItemUtils.sol",
  "compiler": {
    "name": "solc",
    "version": "0.8.11+commit.d7f03943.Emscripten.clang"
  },
  "schemaVersion": "3.4.1",
  "updatedAt": "2022-02-05T17:13:22.362Z",
  "devdoc": {
    "kind": "dev",
    "methods": {},
    "version": 1
  },
  "userdoc": {
    "kind": "user",
    "methods": {},
    "version": 1
  }
}