{
  "contractName": "LoanItem",
  "abi": [
    {
      "inputs": [
        {
          "internalType": "address",
          "name": "_owner",
          "type": "address"
        },
        {
          "internalType": "contract Calendar",
          "name": "Cad",
          "type": "address"
        },
        {
          "internalType": "contract TokenFactory",
          "name": "tkfactory",
          "type": "address"
        }
      ],
      "stateMutability": "nonpayable",
      "type": "constructor"
    },
    {
      "anonymous": false,
      "inputs": [
        {
          "indexed": false,
          "internalType": "string",
          "name": "operation",
          "type": "string"
        },
        {
          "indexed": false,
          "internalType": "contract ItemTemplate",
          "name": "Item",
          "type": "address"
        },
        {
          "indexed": false,
          "internalType": "address",
          "name": "addr",
          "type": "address"
        },
        {
          "indexed": false,
          "internalType": "address",
          "name": "CoinSy",
          "type": "address"
        },
        {
          "indexed": false,
          "internalType": "uint256",
          "name": "price",
          "type": "uint256"
        },
        {
          "indexed": false,
          "internalType": "uint256",
          "name": "caution",
          "type": "uint256"
        },
        {
          "indexed": false,
          "internalType": "string",
          "name": "place",
          "type": "string"
        },
        {
          "indexed": false,
          "internalType": "address",
          "name": "from",
          "type": "address"
        },
        {
          "indexed": false,
          "internalType": "address",
          "name": "to",
          "type": "address"
        },
        {
          "indexed": false,
          "internalType": "uint256",
          "name": "time",
          "type": "uint256"
        },
        {
          "indexed": false,
          "internalType": "uint256",
          "name": "timeS",
          "type": "uint256"
        },
        {
          "indexed": false,
          "internalType": "uint256",
          "name": "timeE",
          "type": "uint256"
        }
      ],
      "name": "ItemEvent",
      "type": "event"
    },
    {
      "inputs": [
        {
          "internalType": "uint256",
          "name": "",
          "type": "uint256"
        },
        {
          "internalType": "uint256",
          "name": "",
          "type": "uint256"
        }
      ],
      "name": "CautionId",
      "outputs": [
        {
          "internalType": "address",
          "name": "",
          "type": "address"
        }
      ],
      "stateMutability": "view",
      "type": "function"
    },
    {
      "inputs": [
        {
          "internalType": "uint256",
          "name": "",
          "type": "uint256"
        }
      ],
      "name": "Cds",
      "outputs": [
        {
          "internalType": "uint256",
          "name": "",
          "type": "uint256"
        }
      ],
      "stateMutability": "view",
      "type": "function"
    },
    {
      "inputs": [
        {
          "internalType": "address",
          "name": "",
          "type": "address"
        },
        {
          "internalType": "uint256",
          "name": "",
          "type": "uint256"
        }
      ],
      "name": "PreLItem",
      "outputs": [
        {
          "internalType": "address",
          "name": "from",
          "type": "address"
        },
        {
          "internalType": "address",
          "name": "to",
          "type": "address"
        },
        {
          "internalType": "address",
          "name": "item",
          "type": "address"
        },
        {
          "internalType": "uint256",
          "name": "time",
          "type": "uint256"
        },
        {
          "internalType": "uint256",
          "name": "timeS",
          "type": "uint256"
        },
        {
          "internalType": "uint256",
          "name": "timeE",
          "type": "uint256"
        }
      ],
      "stateMutability": "view",
      "type": "function"
    },
    {
      "inputs": [
        {
          "internalType": "address",
          "name": "",
          "type": "address"
        }
      ],
      "name": "StatusItem",
      "outputs": [
        {
          "internalType": "string",
          "name": "",
          "type": "string"
        }
      ],
      "stateMutability": "view",
      "type": "function"
    },
    {
      "inputs": [
        {
          "internalType": "address",
          "name": "",
          "type": "address"
        },
        {
          "internalType": "uint256",
          "name": "",
          "type": "uint256"
        }
      ],
      "name": "UserLoaningItem",
      "outputs": [
        {
          "internalType": "contract ItemTemplate",
          "name": "Item",
          "type": "address"
        },
        {
          "internalType": "address",
          "name": "addr",
          "type": "address"
        },
        {
          "internalType": "address",
          "name": "CoinSy",
          "type": "address"
        },
        {
          "internalType": "uint256",
          "name": "price",
          "type": "uint256"
        },
        {
          "internalType": "uint256",
          "name": "caution",
          "type": "uint256"
        },
        {
          "internalType": "string",
          "name": "place",
          "type": "string"
        },
        {
          "internalType": "string",
          "name": "operation",
          "type": "string"
        }
      ],
      "stateMutability": "view",
      "type": "function"
    },
    {
      "inputs": [],
      "name": "owner",
      "outputs": [
        {
          "internalType": "address",
          "name": "",
          "type": "address"
        }
      ],
      "stateMutability": "view",
      "type": "function"
    },
    {
      "inputs": [
        {
          "internalType": "address",
          "name": "",
          "type": "address"
        }
      ],
      "name": "permissions",
      "outputs": [
        {
          "internalType": "bool",
          "name": "",
          "type": "bool"
        }
      ],
      "stateMutability": "view",
      "type": "function"
    },
    {
      "inputs": [
        {
          "internalType": "address",
          "name": "itemaddr",
          "type": "address"
        },
        {
          "internalType": "string",
          "name": "CoinSimb",
          "type": "string"
        },
        {
          "internalType": "uint256",
          "name": "Price",
          "type": "uint256"
        },
        {
          "internalType": "uint256",
          "name": "caution",
          "type": "uint256"
        },
        {
          "internalType": "string",
          "name": "PLace",
          "type": "string"
        },
        {
          "internalType": "string",
          "name": "operation",
          "type": "string"
        }
      ],
      "name": "AddToLoanOrSellItem",
      "outputs": [],
      "stateMutability": "nonpayable",
      "type": "function"
    },
    {
      "inputs": [
        {
          "internalType": "address",
          "name": "_from",
          "type": "address"
        },
        {
          "internalType": "address",
          "name": "_to",
          "type": "address"
        },
        {
          "internalType": "address",
          "name": "_item",
          "type": "address"
        },
        {
          "internalType": "string",
          "name": "operation",
          "type": "string"
        },
        {
          "internalType": "uint256",
          "name": "dateS",
          "type": "uint256"
        },
        {
          "internalType": "uint256",
          "name": "dateF",
          "type": "uint256"
        }
      ],
      "name": "TrasferTest",
      "outputs": [],
      "stateMutability": "nonpayable",
      "type": "function"
    },
    {
      "inputs": [
        {
          "internalType": "address",
          "name": "_id",
          "type": "address"
        },
        {
          "internalType": "address",
          "name": "_usr",
          "type": "address"
        },
        {
          "internalType": "uint256",
          "name": "_caution",
          "type": "uint256"
        }
      ],
      "name": "ReleseW",
      "outputs": [],
      "stateMutability": "nonpayable",
      "type": "function"
    }
  ],
  "bytecode": "0x60806040523480156200001157600080fd5b50604051620050a7380380620050a7833981810160405281019062000037919062000270565b82600960006101000a81548173ffffffffffffffffffffffffffffffffffffffff021916908373ffffffffffffffffffffffffffffffffffffffff160217905550600160026000600960009054906101000a900473ffffffffffffffffffffffffffffffffffffffff1673ffffffffffffffffffffffffffffffffffffffff1673ffffffffffffffffffffffffffffffffffffffff16815260200190815260200160002060006101000a81548160ff021916908315150217905550816000806101000a81548173ffffffffffffffffffffffffffffffffffffffff021916908373ffffffffffffffffffffffffffffffffffffffff16021790555080600160006101000a81548173ffffffffffffffffffffffffffffffffffffffff021916908373ffffffffffffffffffffffffffffffffffffffff160217905550505050620002cc565b600080fd5b600073ffffffffffffffffffffffffffffffffffffffff82169050919050565b6000620001ae8262000181565b9050919050565b620001c081620001a1565b8114620001cc57600080fd5b50565b600081519050620001e081620001b5565b92915050565b6000620001f382620001a1565b9050919050565b6200020581620001e6565b81146200021157600080fd5b50565b6000815190506200022581620001fa565b92915050565b60006200023882620001a1565b9050919050565b6200024a816200022b565b81146200025657600080fd5b50565b6000815190506200026a816200023f565b92915050565b6000806000606084860312156200028c576200028b6200017c565b5b60006200029c86828701620001cf565b9350506020620002af8682870162000214565b9250506040620002c28682870162000259565b9150509250925092565b614dcb80620002dc6000396000f3fe608060405234801561001057600080fd5b506004361061009e5760003560e01c80638da5cb5b116100665780638da5cb5b1461017157806397c0a55a1461018f578063a1af645f146101c4578063cd6b493c146101f4578063f9c93e47146102105761009e565b806301e88208146100a35780631010b07b146100d35780631f240a1b146100ef578063267acb061461011f5780637fa9167714610155575b600080fd5b6100bd60048036038101906100b89190613d64565b610240565b6040516100ca9190613dac565b60405180910390f35b6100ed60048036038101906100e89190613f43565b610260565b005b61010960048036038101906101049190613d64565b61103f565b60405161011691906140ac565b60405180910390f35b610139600480360381019061013491906140ce565b6110df565b60405161014c979695949392919061418b565b60405180910390f35b61016f600480360381019061016a9190614208565b6112ae565b005b610179611a59565b604051610186919061425b565b60405180910390f35b6101a960048036038101906101a491906140ce565b611a7f565b6040516101bb96959493929190614276565b60405180910390f35b6101de60048036038101906101d991906142d7565b611b38565b6040516101eb9190614304565b60405180910390f35b61020e6004803603810190610209919061431f565b611b50565b005b61022a600480360381019061022591906143c8565b61389e565b604051610237919061425b565b60405180910390f35b60026020528060005260406000206000915054906101000a900460ff1681565b6040518060200160405280600081525080519060200120600560008873ffffffffffffffffffffffffffffffffffffffff1673ffffffffffffffffffffffffffffffffffffffff1681526020019081526020016000206040516102c39190614508565b60405180910390201461030b576040517f08c379a00000000000000000000000000000000000000000000000000000000081526004016103029061456b565b60405180910390fd5b6000610316866138ec565b9050600073ffffffffffffffffffffffffffffffffffffffff168173ffffffffffffffffffffffffffffffffffffffff1614611035576040518060400160405280600881526020017f4c6f616e4974656d0000000000000000000000000000000000000000000000008152508051906020012082805190602001201480156103cb5750600073ffffffffffffffffffffffffffffffffffffffff168773ffffffffffffffffffffffffffffffffffffffff1614155b15610a9857600087905060008173ffffffffffffffffffffffffffffffffffffffff1663d28d88526040518163ffffffff1660e01b8152600401600060405180830381865afa158015610422573d6000803e3d6000fd5b505050506040513d6000823e3d601f19601f8201168201806040525081019061044b91906145fb565b511161048c576040517f08c379a000000000000000000000000000000000000000000000000000000000815260040161048390614690565b60405180910390fd5b3373ffffffffffffffffffffffffffffffffffffffff168173ffffffffffffffffffffffffffffffffffffffff16636352211e8373ffffffffffffffffffffffffffffffffffffffff1663051802376040518163ffffffff1660e01b8152600401602060405180830381865afa15801561050a573d6000803e3d6000fd5b505050506040513d601f19601f8201168201806040525081019061052e91906146c5565b6040518263ffffffff1660e01b815260040161054a9190614304565b602060405180830381865afa158015610567573d6000803e3d6000fd5b505050506040513d601f19601f8201168201806040525081019061058b9190614707565b73ffffffffffffffffffffffffffffffffffffffff16146105e1576040517f08c379a00000000000000000000000000000000000000000000000000000000081526004016105d890614780565b60405180910390fd5b60006040518060e001604052808373ffffffffffffffffffffffffffffffffffffffff1681526020018a73ffffffffffffffffffffffffffffffffffffffff1681526020018473ffffffffffffffffffffffffffffffffffffffff1681526020018881526020018781526020018681526020016040518060400160405280600b81526020017f4c6f616e696e674974656d0000000000000000000000000000000000000000008152508152509050600660003373ffffffffffffffffffffffffffffffffffffffff1673ffffffffffffffffffffffffffffffffffffffff16815260200190815260200160002081908060018154018082558091505060019003906000526020600020906007020160009091909190915060008201518160000160006101000a81548173ffffffffffffffffffffffffffffffffffffffff021916908373ffffffffffffffffffffffffffffffffffffffff16021790555060208201518160010160006101000a81548173ffffffffffffffffffffffffffffffffffffffff021916908373ffffffffffffffffffffffffffffffffffffffff16021790555060408201518160020160006101000a81548173ffffffffffffffffffffffffffffffffffffffff021916908373ffffffffffffffffffffffffffffffffffffffff160217905550606082015181600301556080820151816004015560a08201518160050190805190602001906107fd929190613c0f565b5060c082015181600601908051906020019061081a929190613c0f565b5050506040518060400160405280600b81526020017f4c6f616e696e674974656d000000000000000000000000000000000000000000815250600560008b73ffffffffffffffffffffffffffffffffffffffff1673ffffffffffffffffffffffffffffffffffffffff16815260200190815260200160002090805190602001906108a5929190613c0f565b5060008054906101000a900473ffffffffffffffffffffffffffffffffffffffff1673ffffffffffffffffffffffffffffffffffffffff16639ff3b46d8373ffffffffffffffffffffffffffffffffffffffff1663051802376040518163ffffffff1660e01b8152600401602060405180830381865afa15801561092d573d6000803e3d6000fd5b505050506040513d601f19601f8201168201806040525081019061095191906146c5565b6040518263ffffffff1660e01b815260040161096d91906147ec565b6020604051808303816000875af115801561098c573d6000803e3d6000fd5b505050506040513d601f19601f820116820180604052508101906109b09190614846565b507ff72a78ea42b79103d2b5adca1d0d50e3a314f0c76f9b052d7be19989455e050e84838b868b8b8b60008060008054906101000a900473ffffffffffffffffffffffffffffffffffffffff1673ffffffffffffffffffffffffffffffffffffffff1663f8e157ea6040518163ffffffff1660e01b81526004016020604051808303816000875af1158015610a49573d6000803e3d6000fd5b505050506040513d601f19601f82011682018060405250810190610a6d91906146c5565b600080604051610a889c9b9a999897969594939291906148ae565b60405180910390a1505050611037565b6040518060400160405280600681526020017f53656c6c49740000000000000000000000000000000000000000000000000000815250805190602001208280519060200120141561103457600087905060008173ffffffffffffffffffffffffffffffffffffffff1663d28d88526040518163ffffffff1660e01b8152600401600060405180830381865afa158015610b35573d6000803e3d6000fd5b505050506040513d6000823e3d601f19601f82011682018060405250810190610b5e91906145fb565b5111610b6957600080fd5b3373ffffffffffffffffffffffffffffffffffffffff168173ffffffffffffffffffffffffffffffffffffffff16636352211e8373ffffffffffffffffffffffffffffffffffffffff1663051802376040518163ffffffff1660e01b8152600401602060405180830381865afa158015610be7573d6000803e3d6000fd5b505050506040513d601f19601f82011682018060405250810190610c0b91906146c5565b6040518263ffffffff1660e01b8152600401610c279190614304565b602060405180830381865afa158015610c44573d6000803e3d6000fd5b505050506040513d601f19601f82011682018060405250810190610c689190614707565b73ffffffffffffffffffffffffffffffffffffffff1614610c8857600080fd5b60006040518060e001604052808373ffffffffffffffffffffffffffffffffffffffff1681526020018a73ffffffffffffffffffffffffffffffffffffffff1681526020018473ffffffffffffffffffffffffffffffffffffffff1681526020018881526020018781526020018681526020016040518060400160405280600b81526020017f53656c6c696e674974656d0000000000000000000000000000000000000000008152508152509050600660003373ffffffffffffffffffffffffffffffffffffffff1673ffffffffffffffffffffffffffffffffffffffff16815260200190815260200160002081908060018154018082558091505060019003906000526020600020906007020160009091909190915060008201518160000160006101000a81548173ffffffffffffffffffffffffffffffffffffffff021916908373ffffffffffffffffffffffffffffffffffffffff16021790555060208201518160010160006101000a81548173ffffffffffffffffffffffffffffffffffffffff021916908373ffffffffffffffffffffffffffffffffffffffff16021790555060408201518160020160006101000a81548173ffffffffffffffffffffffffffffffffffffffff021916908373ffffffffffffffffffffffffffffffffffffffff160217905550606082015181600301556080820151816004015560a0820151816005019080519060200190610ea4929190613c0f565b5060c0820151816006019080519060200190610ec1929190613c0f565b5050506040518060400160405280600781526020017f53656c6c696e6700000000000000000000000000000000000000000000000000815250600560008b73ffffffffffffffffffffffffffffffffffffffff1673ffffffffffffffffffffffffffffffffffffffff1681526020019081526020016000209080519060200190610f4c929190613c0f565b507ff72a78ea42b79103d2b5adca1d0d50e3a314f0c76f9b052d7be19989455e050e84838b868b8b8b60008060008054906101000a900473ffffffffffffffffffffffffffffffffffffffff1673ffffffffffffffffffffffffffffffffffffffff1663f8e157ea6040518163ffffffff1660e01b81526004016020604051808303816000875af1158015610fe5573d6000803e3d6000fd5b505050506040513d601f19601f8201168201806040525081019061100991906146c5565b6000806040516110249c9b9a999897969594939291906148ae565b60405180910390a1505050611037565b5b505b505050505050565b6005602052806000526040600020600091509050805461105e90614437565b80601f016020809104026020016040519081016040528092919081815260200182805461108a90614437565b80156110d75780601f106110ac576101008083540402835291602001916110d7565b820191906000526020600020905b8154815290600101906020018083116110ba57829003601f168201915b505050505081565b600660205281600052604060002081815481106110fb57600080fd5b9060005260206000209060070201600091509150508060000160009054906101000a900473ffffffffffffffffffffffffffffffffffffffff16908060010160009054906101000a900473ffffffffffffffffffffffffffffffffffffffff16908060020160009054906101000a900473ffffffffffffffffffffffffffffffffffffffff169080600301549080600401549080600501805461119d90614437565b80601f01602080910402602001604051908101604052809291908181526020018280546111c990614437565b80156112165780601f106111eb57610100808354040283529160200191611216565b820191906000526020600020905b8154815290600101906020018083116111f957829003601f168201915b50505050509080600601805461122b90614437565b80601f016020809104026020016040519081016040528092919081815260200182805461125790614437565b80156112a45780601f10611279576101008083540402835291602001916112a4565b820191906000526020600020905b81548152906001019060200180831161128757829003601f168201915b5050505050905087565b600083905060008173ffffffffffffffffffffffffffffffffffffffff1663d28d88526040518163ffffffff1660e01b8152600401600060405180830381865afa158015611300573d6000803e3d6000fd5b505050506040513d6000823e3d601f19601f8201168201806040525081019061132991906145fb565b511161136a576040517f08c379a0000000000000000000000000000000000000000000000000000000008152600401611361906149c2565b60405180910390fd5b3373ffffffffffffffffffffffffffffffffffffffff168173ffffffffffffffffffffffffffffffffffffffff16636352211e8373ffffffffffffffffffffffffffffffffffffffff1663051802376040518163ffffffff1660e01b8152600401602060405180830381865afa1580156113e8573d6000803e3d6000fd5b505050506040513d601f19601f8201168201806040525081019061140c91906146c5565b6040518263ffffffff1660e01b81526004016114289190614304565b602060405180830381865afa158015611445573d6000803e3d6000fd5b505050506040513d601f19601f820116820180604052508101906114699190614707565b73ffffffffffffffffffffffffffffffffffffffff16146114bf576040517f08c379a00000000000000000000000000000000000000000000000000000000081526004016114b690614a2e565b60405180910390fd5b60005b600860008373ffffffffffffffffffffffffffffffffffffffff1663051802376040518163ffffffff1660e01b8152600401602060405180830381865afa158015611511573d6000803e3d6000fd5b505050506040513d601f19601f8201168201806040525081019061153591906146c5565b815260200190815260200160002080549050811015611a52578373ffffffffffffffffffffffffffffffffffffffff16600860008473ffffffffffffffffffffffffffffffffffffffff1663051802376040518163ffffffff1660e01b8152600401602060405180830381865afa1580156115b4573d6000803e3d6000fd5b505050506040513d601f19601f820116820180604052508101906115d891906146c5565b815260200190815260200160002082815481106115f8576115f7614a4e565b5b9060005260206000200160009054906101000a900473ffffffffffffffffffffffffffffffffffffffff1673ffffffffffffffffffffffffffffffffffffffff1614801561167257503373ffffffffffffffffffffffffffffffffffffffff168473ffffffffffffffffffffffffffffffffffffffff1614155b15611a3f5760008054906101000a900473ffffffffffffffffffffffffffffffffffffffff1673ffffffffffffffffffffffffffffffffffffffff16634abc93258373ffffffffffffffffffffffffffffffffffffffff1663051802376040518163ffffffff1660e01b8152600401602060405180830381865afa1580156116fe573d6000803e3d6000fd5b505050506040513d601f19601f8201168201806040525081019061172291906146c5565b6040518263ffffffff1660e01b815260040161173e9190614304565b600060405180830381600087803b15801561175857600080fd5b505af115801561176c573d6000803e3d6000fd5b505050506000600860008473ffffffffffffffffffffffffffffffffffffffff1663051802376040518163ffffffff1660e01b8152600401602060405180830381865afa1580156117c1573d6000803e3d6000fd5b505050506040513d601f19601f820116820180604052508101906117e591906146c5565b8152602001908152602001600020828154811061180557611804614a4e565b5b9060005260206000200160009054906101000a900473ffffffffffffffffffffffffffffffffffffffff169050600860008473ffffffffffffffffffffffffffffffffffffffff1663051802376040518163ffffffff1660e01b8152600401602060405180830381865afa158015611881573d6000803e3d6000fd5b505050506040513d601f19601f820116820180604052508101906118a591906146c5565b815260200190815260200160002082815481106118c5576118c4614a4e565b5b9060005260206000200160006101000a81549073ffffffffffffffffffffffffffffffffffffffff0219169055600560008773ffffffffffffffffffffffffffffffffffffffff1673ffffffffffffffffffffffffffffffffffffffff168152602001908152602001600020600061193d9190613c95565b600061194b878760016139b2565b9050600760008773ffffffffffffffffffffffffffffffffffffffff1673ffffffffffffffffffffffffffffffffffffffff168152602001908152602001600020818154811061199e5761199d614a4e565b5b9060005260206000209060060201600080820160006101000a81549073ffffffffffffffffffffffffffffffffffffffff02191690556001820160006101000a81549073ffffffffffffffffffffffffffffffffffffffff02191690556002820160006101000a81549073ffffffffffffffffffffffffffffffffffffffff0219169055600382016000905560048201600090556005820160009055505050505b8080611a4a90614aac565b9150506114c2565b5050505050565b600960009054906101000a900473ffffffffffffffffffffffffffffffffffffffff1681565b60076020528160005260406000208181548110611a9b57600080fd5b9060005260206000209060060201600091509150508060000160009054906101000a900473ffffffffffffffffffffffffffffffffffffffff16908060010160009054906101000a900473ffffffffffffffffffffffffffffffffffffffff16908060020160009054906101000a900473ffffffffffffffffffffffffffffffffffffffff16908060030154908060040154908060050154905086565b60036020528060005260406000206000915090505481565b600084905060008173ffffffffffffffffffffffffffffffffffffffff1663d28d88526040518163ffffffff1660e01b8152600401600060405180830381865afa158015611ba2573d6000803e3d6000fd5b505050506040513d6000823e3d601f19601f82011682018060405250810190611bcb91906145fb565b5111611bd657600080fd5b6040518060400160405280600781526020017f57616974696e67000000000000000000000000000000000000000000000000008152508051906020012060008054906101000a900473ffffffffffffffffffffffffffffffffffffffff1673ffffffffffffffffffffffffffffffffffffffff166335b677318373ffffffffffffffffffffffffffffffffffffffff1663051802376040518163ffffffff1660e01b8152600401602060405180830381865afa158015611c9a573d6000803e3d6000fd5b505050506040513d601f19601f82011682018060405250810190611cbe91906146c5565b6040518263ffffffff1660e01b8152600401611cda9190614304565b600060405180830381865afa158015611cf7573d6000803e3d6000fd5b505050506040513d6000823e3d601f19601f82011682018060405250810190611d2091906145fb565b805190602001201415611d68576040517f08c379a0000000000000000000000000000000000000000000000000000000008152600401611d5f90614b41565b60405180910390fd5b6000611d76868960006139b2565b90506040518060400160405280600481526020017f53656c6c00000000000000000000000000000000000000000000000000000000815250805190602001208580519060200120148015611e5857506040518060400160405280600781526020017f53656c6c696e670000000000000000000000000000000000000000000000000081525080519060200120600560008873ffffffffffffffffffffffffffffffffffffffff1673ffffffffffffffffffffffffffffffffffffffff168152602001908152602001600020604051611e4e9190614508565b6040518091039020145b156123d157600086905060008173ffffffffffffffffffffffffffffffffffffffff16636352211e8373ffffffffffffffffffffffffffffffffffffffff1663051802376040518163ffffffff1660e01b8152600401602060405180830381865afa158015611ecb573d6000803e3d6000fd5b505050506040513d601f19601f82011682018060405250810190611eef91906146c5565b6040518263ffffffff1660e01b8152600401611f0b9190614304565b602060405180830381865afa158015611f28573d6000803e3d6000fd5b505050506040513d601f19601f82011682018060405250810190611f4c9190614707565b9050600660008b73ffffffffffffffffffffffffffffffffffffffff1673ffffffffffffffffffffffffffffffffffffffff1681526020019081526020016000208381548110611f9f57611f9e614a4e565b5b906000526020600020906007020160020160009054906101000a900473ffffffffffffffffffffffffffffffffffffffff1673ffffffffffffffffffffffffffffffffffffffff1663dbba0f018a600660008e73ffffffffffffffffffffffffffffffffffffffff1673ffffffffffffffffffffffffffffffffffffffff168152602001908152602001600020868154811061203e5761203d614a4e565b5b906000526020600020906007020160030154600960009054906101000a900473ffffffffffffffffffffffffffffffffffffffff166040518463ffffffff1660e01b815260040161209193929190614b61565b6020604051808303816000875af11580156120b0573d6000803e3d6000fd5b505050506040513d601f19601f820116820180604052508101906120d49190614846565b156123c8578173ffffffffffffffffffffffffffffffffffffffff166321d0af118a6040518263ffffffff1660e01b8152600401612112919061425b565b6020604051808303816000875af1158015612131573d6000803e3d6000fd5b505050506040513d601f19601f820116820180604052508101906121559190614846565b508873ffffffffffffffffffffffffffffffffffffffff168273ffffffffffffffffffffffffffffffffffffffff16636352211e8473ffffffffffffffffffffffffffffffffffffffff1663051802376040518163ffffffff1660e01b8152600401602060405180830381865afa1580156121d4573d6000803e3d6000fd5b505050506040513d601f19601f820116820180604052508101906121f891906146c5565b6040518263ffffffff1660e01b81526004016122149190614304565b602060405180830381865afa158015612231573d6000803e3d6000fd5b505050506040513d601f19601f820116820180604052508101906122559190614707565b73ffffffffffffffffffffffffffffffffffffffff161461227557600080fd5b600560008973ffffffffffffffffffffffffffffffffffffffff1673ffffffffffffffffffffffffffffffffffffffff16815260200190815260200160002060006122c09190613c95565b600660008b73ffffffffffffffffffffffffffffffffffffffff1673ffffffffffffffffffffffffffffffffffffffff168152602001908152602001600020838154811061231157612310614a4e565b5b9060005260206000209060070201600080820160006101000a81549073ffffffffffffffffffffffffffffffffffffffff02191690556001820160006101000a81549073ffffffffffffffffffffffffffffffffffffffff02191690556002820160006101000a81549073ffffffffffffffffffffffffffffffffffffffff0219169055600382016000905560048201600090556005820160006123b59190613c95565b6006820160006123c59190613c95565b50505b50505050613896565b6000841180156124f357508173ffffffffffffffffffffffffffffffffffffffff16636352211e8373ffffffffffffffffffffffffffffffffffffffff1663051802376040518163ffffffff1660e01b8152600401602060405180830381865afa158015612443573d6000803e3d6000fd5b505050506040513d601f19601f8201168201806040525081019061246791906146c5565b6040518263ffffffff1660e01b81526004016124839190614304565b602060405180830381865afa1580156124a0573d6000803e3d6000fd5b505050506040513d601f19601f820116820180604052508101906124c49190614707565b73ffffffffffffffffffffffffffffffffffffffff168773ffffffffffffffffffffffffffffffffffffffff16145b801561254157506040518060400160405280600a81526020017f5269636f6e7365676e6100000000000000000000000000000000000000000000815250805190602001208580519060200120145b801561269b57506040518060400160405280600481526020017f42757379000000000000000000000000000000000000000000000000000000008152508051906020012060008054906101000a900473ffffffffffffffffffffffffffffffffffffffff1673ffffffffffffffffffffffffffffffffffffffff166335b677318473ffffffffffffffffffffffffffffffffffffffff1663051802376040518163ffffffff1660e01b8152600401602060405180830381865afa15801561260c573d6000803e3d6000fd5b505050506040513d601f19601f8201168201806040525081019061263091906146c5565b6040518263ffffffff1660e01b815260040161264c9190614304565b600060405180830381865afa158015612669573d6000803e3d6000fd5b505050506040513d6000823e3d601f19601f8201168201806040525081019061269291906145fb565b80519060200120145b156127b95760008054906101000a900473ffffffffffffffffffffffffffffffffffffffff1673ffffffffffffffffffffffffffffffffffffffff16634bbbff068373ffffffffffffffffffffffffffffffffffffffff1663051802376040518163ffffffff1660e01b8152600401602060405180830381865afa158015612727573d6000803e3d6000fd5b505050506040513d601f19601f8201168201806040525081019061274b91906146c5565b866040518363ffffffff1660e01b8152600401612769929190614b98565b6020604051808303816000875af1158015612788573d6000803e3d6000fd5b505050506040513d601f19601f820116820180604052508101906127ac9190614846565b156127b8575050613896565b5b6040518060400160405280600c81526020017f5072656e6f74617a696f6e65000000000000000000000000000000000000000081525080519060200120858051906020012014801561280b5750600083115b801561292957508173ffffffffffffffffffffffffffffffffffffffff16636352211e8373ffffffffffffffffffffffffffffffffffffffff1663051802376040518163ffffffff1660e01b8152600401602060405180830381865afa158015612879573d6000803e3d6000fd5b505050506040513d601f19601f8201168201806040525081019061289d91906146c5565b6040518263ffffffff1660e01b81526004016128b99190614304565b602060405180830381865afa1580156128d6573d6000803e3d6000fd5b505050506040513d601f19601f820116820180604052508101906128fa9190614707565b73ffffffffffffffffffffffffffffffffffffffff168873ffffffffffffffffffffffffffffffffffffffff16145b15612fd557600660008973ffffffffffffffffffffffffffffffffffffffff1673ffffffffffffffffffffffffffffffffffffffff168152602001908152602001600020818154811061297f5761297e614a4e565b5b906000526020600020906007020160040154600660008a73ffffffffffffffffffffffffffffffffffffffff1673ffffffffffffffffffffffffffffffffffffffff16815260200190815260200160002082815481106129e2576129e1614a4e565b5b906000526020600020906007020160020160009054906101000a900473ffffffffffffffffffffffffffffffffffffffff1673ffffffffffffffffffffffffffffffffffffffff166370a08231896040518263ffffffff1660e01b8152600401612a4c919061425b565b602060405180830381865afa158015612a69573d6000803e3d6000fd5b505050506040513d601f19601f82011682018060405250810190612a8d91906146c5565b10612fce5760008054906101000a900473ffffffffffffffffffffffffffffffffffffffff1673ffffffffffffffffffffffffffffffffffffffff16633097c98e85858573ffffffffffffffffffffffffffffffffffffffff1663051802376040518163ffffffff1660e01b8152600401602060405180830381865afa158015612b1b573d6000803e3d6000fd5b505050506040513d601f19601f82011682018060405250810190612b3f91906146c5565b336040518563ffffffff1660e01b8152600401612b5f9493929190614bc1565b6020604051808303816000875af1158015612b7e573d6000803e3d6000fd5b505050506040513d601f19601f82011682018060405250810190612ba29190614846565b15612fc757600660008973ffffffffffffffffffffffffffffffffffffffff1673ffffffffffffffffffffffffffffffffffffffff1681526020019081526020016000208181548110612bf857612bf7614a4e565b5b906000526020600020906007020160020160009054906101000a900473ffffffffffffffffffffffffffffffffffffffff1673ffffffffffffffffffffffffffffffffffffffff1663dbba0f0188600660008c73ffffffffffffffffffffffffffffffffffffffff1673ffffffffffffffffffffffffffffffffffffffff1681526020019081526020016000208481548110612c9757612c96614a4e565b5b9060005260206000209060070201600401548b6040518463ffffffff1660e01b8152600401612cc893929190614b61565b6020604051808303816000875af1158015612ce7573d6000803e3d6000fd5b505050506040513d601f19601f82011682018060405250810190612d0b9190614846565b50600860008373ffffffffffffffffffffffffffffffffffffffff1663051802376040518163ffffffff1660e01b8152600401602060405180830381865afa158015612d5b573d6000803e3d6000fd5b505050506040513d601f19601f82011682018060405250810190612d7f91906146c5565b8152602001908152602001600020879080600181540180825580915050600190039060005260206000200160009091909190916101000a81548173ffffffffffffffffffffffffffffffffffffffff021916908373ffffffffffffffffffffffffffffffffffffffff16021790555060006040518060c001604052808a73ffffffffffffffffffffffffffffffffffffffff1681526020018973ffffffffffffffffffffffffffffffffffffffff1681526020018873ffffffffffffffffffffffffffffffffffffffff168152602001428152602001868152602001858152509050600760008973ffffffffffffffffffffffffffffffffffffffff1673ffffffffffffffffffffffffffffffffffffffff16815260200190815260200160002081908060018154018082558091505060019003906000526020600020906006020160009091909190915060008201518160000160006101000a81548173ffffffffffffffffffffffffffffffffffffffff021916908373ffffffffffffffffffffffffffffffffffffffff16021790555060208201518160010160006101000a81548173ffffffffffffffffffffffffffffffffffffffff021916908373ffffffffffffffffffffffffffffffffffffffff16021790555060408201518160020160006101000a81548173ffffffffffffffffffffffffffffffffffffffff021916908373ffffffffffffffffffffffffffffffffffffffff160217905550606082015181600301556080820151816004015560a082015181600501555050505050613896565b5050613896565b5050613896565b6040518060400160405280600981526020017f52697469726f5072650000000000000000000000000000000000000000000000815250805190602001208580519060200120141561352157600660008973ffffffffffffffffffffffffffffffffffffffff1673ffffffffffffffffffffffffffffffffffffffff168152602001908152602001600020818154811061307157613070614a4e565b5b906000526020600020906007020160030154600660008a73ffffffffffffffffffffffffffffffffffffffff1673ffffffffffffffffffffffffffffffffffffffff16815260200190815260200160002082815481106130d4576130d3614a4e565b5b906000526020600020906007020160020160009054906101000a900473ffffffffffffffffffffffffffffffffffffffff1673ffffffffffffffffffffffffffffffffffffffff166370a08231896040518263ffffffff1660e01b815260040161313e919061425b565b602060405180830381865afa15801561315b573d6000803e3d6000fd5b505050506040513d601f19601f8201168201806040525081019061317f91906146c5565b1061351a5760008054906101000a900473ffffffffffffffffffffffffffffffffffffffff1673ffffffffffffffffffffffffffffffffffffffff16631b227ed78373ffffffffffffffffffffffffffffffffffffffff1663051802376040518163ffffffff1660e01b8152600401602060405180830381865afa15801561320b573d6000803e3d6000fd5b505050506040513d601f19601f8201168201806040525081019061322f91906146c5565b336040518363ffffffff1660e01b815260040161324d929190614c06565b6020604051808303816000875af115801561326c573d6000803e3d6000fd5b505050506040513d601f19601f820116820180604052508101906132909190614846565b80156133ae57508173ffffffffffffffffffffffffffffffffffffffff16636352211e8373ffffffffffffffffffffffffffffffffffffffff1663051802376040518163ffffffff1660e01b8152600401602060405180830381865afa1580156132fe573d6000803e3d6000fd5b505050506040513d601f19601f8201168201806040525081019061332291906146c5565b6040518263ffffffff1660e01b815260040161333e9190614304565b602060405180830381865afa15801561335b573d6000803e3d6000fd5b505050506040513d601f19601f8201168201806040525081019061337f9190614707565b73ffffffffffffffffffffffffffffffffffffffff168873ffffffffffffffffffffffffffffffffffffffff16145b1561351957600660008973ffffffffffffffffffffffffffffffffffffffff1673ffffffffffffffffffffffffffffffffffffffff168152602001908152602001600020818154811061340457613403614a4e565b5b906000526020600020906007020160020160009054906101000a900473ffffffffffffffffffffffffffffffffffffffff1673ffffffffffffffffffffffffffffffffffffffff1663dbba0f0188600660008c73ffffffffffffffffffffffffffffffffffffffff1673ffffffffffffffffffffffffffffffffffffffff16815260200190815260200160002084815481106134a3576134a2614a4e565b5b9060005260206000209060070201600301548b6040518463ffffffff1660e01b81526004016134d493929190614b61565b6020604051808303816000875af11580156134f3573d6000803e3d6000fd5b505050506040513d601f19601f820116820180604052508101906135179190614846565b505b5b5050613896565b60008311801561357357506040518060400160405280600581526020017f4f6e466c79000000000000000000000000000000000000000000000000000000815250805190602001208580519060200120145b801561369157508173ffffffffffffffffffffffffffffffffffffffff16636352211e8373ffffffffffffffffffffffffffffffffffffffff1663051802376040518163ffffffff1660e01b8152600401602060405180830381865afa1580156135e1573d6000803e3d6000fd5b505050506040513d601f19601f8201168201806040525081019061360591906146c5565b6040518263ffffffff1660e01b81526004016136219190614304565b602060405180830381865afa15801561363e573d6000803e3d6000fd5b505050506040513d601f19601f820116820180604052508101906136629190614707565b73ffffffffffffffffffffffffffffffffffffffff168873ffffffffffffffffffffffffffffffffffffffff16145b156138935760008054906101000a900473ffffffffffffffffffffffffffffffffffffffff1673ffffffffffffffffffffffffffffffffffffffff1663d9d92d1e8373ffffffffffffffffffffffffffffffffffffffff1663051802376040518163ffffffff1660e01b8152600401602060405180830381865afa15801561371d573d6000803e3d6000fd5b505050506040513d601f19601f8201168201806040525081019061374191906146c5565b33866040518463ffffffff1660e01b815260040161376193929190614c2f565b6020604051808303816000875af1158015613780573d6000803e3d6000fd5b505050506040513d601f19601f820116820180604052508101906137a49190614846565b1561389257600860008373ffffffffffffffffffffffffffffffffffffffff1663051802376040518163ffffffff1660e01b8152600401602060405180830381865afa1580156137f8573d6000803e3d6000fd5b505050506040513d601f19601f8201168201806040525081019061381c91906146c5565b8152602001908152602001600020879080600181540180825580915050600190039060005260206000200160009091909190916101000a81548173ffffffffffffffffffffffffffffffffffffffff021916908373ffffffffffffffffffffffffffffffffffffffff1602179055505050613896565b5b50505b505050505050565b600860205281600052604060002081815481106138ba57600080fd5b906000526020600020016000915091509054906101000a900473ffffffffffffffffffffffffffffffffffffffff1681565b600080600160009054906101000a900473ffffffffffffffffffffffffffffffffffffffff1673ffffffffffffffffffffffffffffffffffffffff1663c1733f68846040518263ffffffff1660e01b815260040161394a91906140ac565b600060405180830381865afa158015613967573d6000803e3d6000fd5b505050506040513d6000823e3d601f19601f820116820180604052508101906139909190614c9f565b9091929394509091929350909192509091509050508091505080915050919050565b60008115613ae35760005b600760008573ffffffffffffffffffffffffffffffffffffffff1673ffffffffffffffffffffffffffffffffffffffff16815260200190815260200160002080549050811015613ad9578473ffffffffffffffffffffffffffffffffffffffff16600760008673ffffffffffffffffffffffffffffffffffffffff1673ffffffffffffffffffffffffffffffffffffffff1681526020019081526020016000208281548110613a6f57613a6e614a4e565b5b906000526020600020906006020160020160009054906101000a900473ffffffffffffffffffffffffffffffffffffffff1673ffffffffffffffffffffffffffffffffffffffff161415613ac65780915050613c08565b8080613ad190614aac565b9150506139bd565b5060009050613c08565b60005b600660008573ffffffffffffffffffffffffffffffffffffffff1673ffffffffffffffffffffffffffffffffffffffff16815260200190815260200160002080549050811015613c02578473ffffffffffffffffffffffffffffffffffffffff16600660008673ffffffffffffffffffffffffffffffffffffffff1673ffffffffffffffffffffffffffffffffffffffff1681526020019081526020016000208281548110613b9857613b97614a4e565b5b906000526020600020906007020160010160009054906101000a900473ffffffffffffffffffffffffffffffffffffffff1673ffffffffffffffffffffffffffffffffffffffff161415613bef5780915050613c08565b8080613bfa90614aac565b915050613ae6565b50600090505b9392505050565b828054613c1b90614437565b90600052602060002090601f016020900481019282613c3d5760008555613c84565b82601f10613c5657805160ff1916838001178555613c84565b82800160010185558215613c84579182015b82811115613c83578251825591602001919060010190613c68565b5b509050613c919190613cd5565b5090565b508054613ca190614437565b6000825580601f10613cb35750613cd2565b601f016020900490600052602060002090810190613cd19190613cd5565b5b50565b5b80821115613cee576000816000905550600101613cd6565b5090565b6000604051905090565b600080fd5b600080fd5b600073ffffffffffffffffffffffffffffffffffffffff82169050919050565b6000613d3182613d06565b9050919050565b613d4181613d26565b8114613d4c57600080fd5b50565b600081359050613d5e81613d38565b92915050565b600060208284031215613d7a57613d79613cfc565b5b6000613d8884828501613d4f565b91505092915050565b60008115159050919050565b613da681613d91565b82525050565b6000602082019050613dc16000830184613d9d565b92915050565b600080fd5b600080fd5b6000601f19601f8301169050919050565b7f4e487b7100000000000000000000000000000000000000000000000000000000600052604160045260246000fd5b613e1a82613dd1565b810181811067ffffffffffffffff82111715613e3957613e38613de2565b5b80604052505050565b6000613e4c613cf2565b9050613e588282613e11565b919050565b600067ffffffffffffffff821115613e7857613e77613de2565b5b613e8182613dd1565b9050602081019050919050565b82818337600083830152505050565b6000613eb0613eab84613e5d565b613e42565b905082815260208101848484011115613ecc57613ecb613dcc565b5b613ed7848285613e8e565b509392505050565b600082601f830112613ef457613ef3613dc7565b5b8135613f04848260208601613e9d565b91505092915050565b6000819050919050565b613f2081613f0d565b8114613f2b57600080fd5b50565b600081359050613f3d81613f17565b92915050565b60008060008060008060c08789031215613f6057613f5f613cfc565b5b6000613f6e89828a01613d4f565b965050602087013567ffffffffffffffff811115613f8f57613f8e613d01565b5b613f9b89828a01613edf565b9550506040613fac89828a01613f2e565b9450506060613fbd89828a01613f2e565b935050608087013567ffffffffffffffff811115613fde57613fdd613d01565b5b613fea89828a01613edf565b92505060a087013567ffffffffffffffff81111561400b5761400a613d01565b5b61401789828a01613edf565b9150509295509295509295565b600081519050919050565b600082825260208201905092915050565b60005b8381101561405e578082015181840152602081019050614043565b8381111561406d576000848401525b50505050565b600061407e82614024565b614088818561402f565b9350614098818560208601614040565b6140a181613dd1565b840191505092915050565b600060208201905081810360008301526140c68184614073565b905092915050565b600080604083850312156140e5576140e4613cfc565b5b60006140f385828601613d4f565b925050602061410485828601613f2e565b9150509250929050565b6000819050919050565b600061413361412e61412984613d06565b61410e565b613d06565b9050919050565b600061414582614118565b9050919050565b60006141578261413a565b9050919050565b6141678161414c565b82525050565b61417681613d26565b82525050565b61418581613f0d565b82525050565b600060e0820190506141a0600083018a61415e565b6141ad602083018961416d565b6141ba604083018861416d565b6141c7606083018761417c565b6141d4608083018661417c565b81810360a08301526141e68185614073565b905081810360c08301526141fa8184614073565b905098975050505050505050565b60008060006060848603121561422157614220613cfc565b5b600061422f86828701613d4f565b935050602061424086828701613d4f565b925050604061425186828701613f2e565b9150509250925092565b6000602082019050614270600083018461416d565b92915050565b600060c08201905061428b600083018961416d565b614298602083018861416d565b6142a5604083018761416d565b6142b2606083018661417c565b6142bf608083018561417c565b6142cc60a083018461417c565b979650505050505050565b6000602082840312156142ed576142ec613cfc565b5b60006142fb84828501613f2e565b91505092915050565b6000602082019050614319600083018461417c565b92915050565b60008060008060008060c0878903121561433c5761433b613cfc565b5b600061434a89828a01613d4f565b965050602061435b89828a01613d4f565b955050604061436c89828a01613d4f565b945050606087013567ffffffffffffffff81111561438d5761438c613d01565b5b61439989828a01613edf565b93505060806143aa89828a01613f2e565b92505060a06143bb89828a01613f2e565b9150509295509295509295565b600080604083850312156143df576143de613cfc565b5b60006143ed85828601613f2e565b92505060206143fe85828601613f2e565b9150509250929050565b7f4e487b7100000000000000000000000000000000000000000000000000000000600052602260045260246000fd5b6000600282049050600182168061444f57607f821691505b6020821081141561446357614462614408565b5b50919050565b600081905092915050565b60008190508160005260206000209050919050565b6000815461449681614437565b6144a08186614469565b945060018216600081146144bb57600181146144cc576144ff565b60ff198316865281860193506144ff565b6144d585614474565b60005b838110156144f7578154818901526001820191506020810190506144d8565b838801955050505b50505092915050565b60006145148284614489565b915081905092915050565b7f4c276f67676574746f2065206f6363757061746f2070657220616c74726f2000600082015250565b6000614555601f8361402f565b91506145608261451f565b602082019050919050565b6000602082019050818103600083015261458481614548565b9050919050565b600061459e61459984613e5d565b613e42565b9050828152602081018484840111156145ba576145b9613dcc565b5b6145c5848285614040565b509392505050565b600082601f8301126145e2576145e1613dc7565b5b81516145f284826020860161458b565b91505092915050565b60006020828403121561461157614610613cfc565b5b600082015167ffffffffffffffff81111561462f5761462e613d01565b5b61463b848285016145cd565b91505092915050565b7f3100000000000000000000000000000000000000000000000000000000000000600082015250565b600061467a60018361402f565b915061468582614644565b602082019050919050565b600060208201905081810360008301526146a98161466d565b9050919050565b6000815190506146bf81613f17565b92915050565b6000602082840312156146db576146da613cfc565b5b60006146e9848285016146b0565b91505092915050565b60008151905061470181613d38565b92915050565b60006020828403121561471d5761471c613cfc565b5b600061472b848285016146f2565b91505092915050565b7f3200000000000000000000000000000000000000000000000000000000000000600082015250565b600061476a60018361402f565b915061477582614734565b602082019050919050565b600060208201905081810360008301526147998161475d565b9050919050565b7f417661696c61626c650000000000000000000000000000000000000000000000600082015250565b60006147d660098361402f565b91506147e1826147a0565b602082019050919050565b6000604082019050614801600083018461417c565b8181036020830152614812816147c9565b905092915050565b61482381613d91565b811461482e57600080fd5b50565b6000815190506148408161481a565b92915050565b60006020828403121561485c5761485b613cfc565b5b600061486a84828501614831565b91505092915050565b6000819050919050565b600061489861489361488e84614873565b61410e565b613f0d565b9050919050565b6148a88161487d565b82525050565b60006101808201905081810360008301526148c9818f614073565b90506148d8602083018e61415e565b6148e5604083018d61416d565b6148f2606083018c61416d565b6148ff608083018b61417c565b61490c60a083018a61417c565b81810360c083015261491e8189614073565b905061492d60e083018861416d565b61493b61010083018761416d565b61494961012083018661417c565b61495761014083018561489f565b61496561016083018461489f565b9d9c50505050505050505050505050565b7f3500000000000000000000000000000000000000000000000000000000000000600082015250565b60006149ac60018361402f565b91506149b782614976565b602082019050919050565b600060208201905081810360008301526149db8161499f565b9050919050565b7f3600000000000000000000000000000000000000000000000000000000000000600082015250565b6000614a1860018361402f565b9150614a23826149e2565b602082019050919050565b60006020820190508181036000830152614a4781614a0b565b9050919050565b7f4e487b7100000000000000000000000000000000000000000000000000000000600052603260045260246000fd5b7f4e487b7100000000000000000000000000000000000000000000000000000000600052601160045260246000fd5b6000614ab782613f0d565b91507fffffffffffffffffffffffffffffffffffffffffffffffffffffffffffffffff821415614aea57614ae9614a7d565b5b600182019050919050565b7f746f6b656e2069732077616974696e6720000000000000000000000000000000600082015250565b6000614b2b60118361402f565b9150614b3682614af5565b602082019050919050565b60006020820190508181036000830152614b5a81614b1e565b9050919050565b6000606082019050614b76600083018661416d565b614b83602083018561417c565b614b90604083018461416d565b949350505050565b6000604082019050614bad600083018561417c565b614bba602083018461417c565b9392505050565b6000608082019050614bd6600083018761417c565b614be3602083018661417c565b614bf0604083018561417c565b614bfd606083018461416d565b95945050505050565b6000604082019050614c1b600083018561417c565b614c28602083018461416d565b9392505050565b6000606082019050614c44600083018661417c565b614c51602083018561416d565b614c5e604083018461417c565b949350505050565b600060ff82169050919050565b614c7c81614c66565b8114614c8757600080fd5b50565b600081519050614c9981614c73565b92915050565b600080600080600080600060e0888a031215614cbe57614cbd613cfc565b5b6000614ccc8a828b016146f2565b975050602088015167ffffffffffffffff811115614ced57614cec613d01565b5b614cf98a828b016145cd565b965050604088015167ffffffffffffffff811115614d1a57614d19613d01565b5b614d268a828b016145cd565b9550506060614d378a828b01614c8a565b945050608088015167ffffffffffffffff811115614d5857614d57613d01565b5b614d648a828b016145cd565b93505060a0614d758a828b016146f2565b92505060c0614d868a828b01614831565b9150509295989194975092955056fea264697066735822122066e6401f4bdecf6642a275427cae746e63fba3a4d8224c2848d1fd93ad8472a764736f6c634300080b0033",
  "immutableReferences": {},
  "source": "// contracts/LoanItem.sol\n// SPDX-License-Identifier: MIT\npragma solidity ^0.8.0;\n\n\nimport\"./LitemCalendar.sol\";\nimport\"./ItemTemplate.sol\";\nimport\"./TokenFactory.sol\";\nimport\"./TokenTemplate.sol\";\ncontract LoanItem {\n    \n    \n    Calendar Calendario;\n    TokenFactory Tkfactory;  \n  \n     mapping(address => bool) public permissions;\n     mapping(uint256 => uint256) public Cds;\n  \n     uint256 orders;\n     \n     mapping(address=>string) public StatusItem;\n     mapping(address =>LItem[]) public UserLoaningItem;\n     \n     mapping(address=>PreItem[])public PreLItem;\n     mapping(uint256=>address[]) public CautionId;\n\n    address public owner;\n\n  struct LItem{\n    ItemTemplate Item;\n    address addr;\n    address CoinSy;\n    uint256 price;\n    uint256 caution;\n    string place;\n    string operation;\n    }\n    \n  struct PreItem{\n    address from;\n    address to;\n    address item;\n    uint time;\n    uint timeS;\n    uint timeE;\n    }\n\n\n\n    event ItemEvent(\n    string operation,\n    ItemTemplate Item,\n    address addr,\n    address CoinSy,\n    uint256 price,\n    uint256 caution,\n    string place,\n    address from,\n    address to,\n    uint time,\n    uint timeS,\n    uint timeE\n      );\n\n\n\n\n\n  constructor(address _owner,Calendar Cad,TokenFactory tkfactory) public  {  \n         owner = _owner;\n         permissions[owner]= true;\n         Calendario = Cad;\n         Tkfactory = tkfactory;\n         }\n    \n\n function CoinAdd(string memory Symbl)internal returns(address) {\n    address x;\n    (x,,,,,,)= Tkfactory.getToken(Symbl);\n    //require(x!=address(0x0));\n    return x;\n }\n  \n  function find(address itemaddr,address owner,bool cas) internal returns(uint256) {\n    if(cas){\n     for(uint j; j<PreLItem[owner].length;j++){\n        if(PreLItem[owner][j].item== itemaddr){\n          return j;\n    }}\n    return 0;}\n    for(uint i; i<UserLoaningItem[owner].length;i++){\n        if(UserLoaningItem[owner][i].addr== itemaddr){\n          return i;\n        }\n\n    }\n    return 0;\n  }\n\n     function AddToLoanOrSellItem(address itemaddr,string memory CoinSimb,uint Price,uint caution,string memory PLace,\n                                  string memory operation) public {\n      require(keccak256(bytes(StatusItem[itemaddr])) == keccak256(bytes(\"\")),\"L'oggetto e occupato per altro \");\n      address x = CoinAdd(CoinSimb); \n      if(x != address(0x0)){\n        if( keccak256(bytes(operation)) == keccak256(bytes(\"LoanItem\"))&& itemaddr!= address(0x0)   ){\n          ItemTemplate ItemtoLoan = ItemTemplate(itemaddr);\n          require(bytes(ItemtoLoan._name()).length > 0,\"1\" );\n          require(ItemtoLoan.ownerOf(ItemtoLoan._id())==msg.sender,\"2\");\n             LItem memory Temp = LItem(ItemtoLoan,itemaddr,x,Price,caution,PLace,\"LoaningItem\");\n             UserLoaningItem[msg.sender].push(Temp);   \n             // LoaningItem.push(temp)\n             //implementare la cancellazione nella relese\n             StatusItem[itemaddr]=\"LoaningItem\";\n             Calendario.setAvailable(ItemtoLoan._id(),\"Available\");\n             emit ItemEvent(operation,ItemtoLoan,itemaddr,x,Price,caution,PLace,address(0),address(0),Calendario.Time(),0,0);\n             return;\n    \n\n      }\n       else if( keccak256(bytes(operation)) == keccak256(bytes(\"SellIt\"))){\n        ItemTemplate ItemtoSell = ItemTemplate(itemaddr);\n        require(bytes(ItemtoSell._name()).length > 0 );\n        require(ItemtoSell.ownerOf(ItemtoSell._id())==msg.sender);     \n        LItem memory Temp = LItem(ItemtoSell,itemaddr,x,Price,caution,PLace,\"SellingItem\");\n        UserLoaningItem[msg.sender].push(Temp);\n        StatusItem[itemaddr]=\"Selling\";\n        emit ItemEvent(operation,ItemtoSell,itemaddr,x,Price,caution,PLace,address(0),address(0),Calendario.Time(),0,0);\n        return;\n      }\n    } \n  }\n\n   \n      function TrasferTest(address _from, address _to,address _item,string memory operation,uint256 dateS,uint256 dateF) external {\n\n    \n          ItemTemplate ItemtoLoan = ItemTemplate(_item);\n          require(bytes(ItemtoLoan._name()).length > 0 );\n          require(keccak256(bytes(Calendario.Available(ItemtoLoan._id()))) != keccak256(bytes(\"Waiting\")),\"token is waiting \");\n          uint iner;\n          iner = find(_item,_from,false);\n            if(keccak256(bytes(operation)) == keccak256(bytes(\"Sell\"))&& keccak256(bytes(StatusItem[_item])) == keccak256(bytes(\"Selling\"))){\n              ItemTemplate ItemtoSell = ItemTemplate(_item);\n              address ownerItem = ItemtoSell.ownerOf(ItemtoSell._id());\n              if(TokenTemplate(UserLoaningItem[_from][iner].CoinSy).transfer(_to,UserLoaningItem[_from][iner].price,owner)){\n                ItemtoSell.transfert(_to);\n                require(ItemtoSell.ownerOf(ItemtoSell._id())==_to); \n                delete StatusItem[_item];\n                delete UserLoaningItem[_from][iner]; \n              }\n\n                return;\n              }\n\n\n          if( dateS>0 &&_to == ItemtoLoan.ownerOf(ItemtoLoan._id()) &&   keccak256(bytes(operation)) == keccak256(bytes(\"Riconsegna\")) \n\n            && keccak256(bytes(Calendario.Available(ItemtoLoan._id()))) == keccak256(bytes(\"Busy\"))){\n            //riconsegna item\n            if(Calendario.Back(ItemtoLoan._id(),dateS)){\n            \n\n          //  emit LoanPre(_from,_to,_item,Calendario.Time(),dateS,dateF,orders,\"Back-Loan\");\n            return;\n          }\n            }\n           /* else if(_to == ItemtoLoan.ownerOf(ItemtoLoan._id())  && keccak256(bytes(Calendario.Available(ItemtoLoan._id()))) == keccak256(bytes(\"Preordered\"))){\n              //caso in cui voglio cancellare una prenotazione\n              return;\n            }*/\n            \n            if(keccak256(bytes(operation)) == keccak256(bytes(\"Prenotazione\")) && dateF>0 &&_from == ItemtoLoan.ownerOf(ItemtoLoan._id())){\n              //prenotazione Noleggio pago la cauzione in anticipo   \n             \n                if(TokenTemplate(UserLoaningItem[_from][iner].CoinSy).balanceOf(_to)>=UserLoaningItem[_from][iner].caution ){\n                  if(Calendario.Pre_Order(dateS,dateF,ItemtoLoan._id(),msg.sender)) {\n                    TokenTemplate(UserLoaningItem[_from][iner].CoinSy).transfer(_to,UserLoaningItem[_from][iner].caution,_from);\n                    CautionId[ItemtoLoan._id()].push(_to); \n                  //  emit ItemEvent(operation,address(0),_item,UserLoaningItem[_from][iner].CoinSy,0,0,\"\",address(0),address(0),Calendario.Time(),0,0);\n                    PreItem memory Tempo = PreItem(_from,_to,_item,block.timestamp,dateS,dateF);\n                    PreLItem[_to].push(Tempo);\n                    return;\n                  }\n                return;\n                }  \n            return;\n            }\n              if(keccak256(bytes(operation)) == keccak256(bytes(\"RitiroPre\")) /*&& PreLItem[OrderId].to == msg.sender*/){ \n                  if(TokenTemplate(UserLoaningItem[_from][iner].CoinSy).balanceOf(_to)>=UserLoaningItem[_from][iner].price ){\n                    if(Calendario.AcquirePre(ItemtoLoan._id(),msg.sender) && _from==ItemtoLoan.ownerOf(ItemtoLoan._id())){ \n                  \n                //emit LoanPre(_from,_to,_item,Calendario.Time(),dateS,dateF,orders,\"Acq-Pre-Loan\");\n                    TokenTemplate(UserLoaningItem[_from][iner].CoinSy).transfer(_to,UserLoaningItem[_from][iner].price,_from);\n                 \n                    }\n                  }\n                  return;\n                 \n              }\n\n              //noleggio sul momento\n              if(dateF>0 && keccak256(bytes(operation)) == keccak256(bytes(\"OnFly\")) && _from==ItemtoLoan.ownerOf(ItemtoLoan._id())){\n              if(Calendario.Acquire(ItemtoLoan._id(),msg.sender,dateF)){\n                CautionId[ItemtoLoan._id()].push(_to);\n               // emit LoanPre(_from,_to,_item,Calendario.Time(),dateS,dateF,orders,\"Normal-Loan\");\n              return;\n            }\n          }\n\n          return;\n      }\n  \n      \n\n      function ReleseW(address _id,address _usr, uint256 _caution ) public{\n\n        ItemTemplate ItemtoRelese = ItemTemplate(_id);\n    //si potrebbe gestire il caso in cui la cauzione restituita sia variabile\n        require(bytes(ItemtoRelese._name()).length > 0 ,\"5\");\n        require(ItemtoRelese.ownerOf(ItemtoRelese._id())==msg.sender,\"6\");\n       \n       for(uint256 i; i<CautionId[ItemtoRelese._id()].length;i++){\n\n        //----------------transazione per la resistuzione della cauzione\n        \n        if(CautionId[ItemtoRelese._id()][i]==_usr && _usr!=msg.sender){\n        Calendario.Relese(ItemtoRelese._id());\n        address temp = CautionId[ItemtoRelese._id()][i];\n        \n        delete CautionId[ItemtoRelese._id()][i];\n        delete StatusItem[_id];\n        uint k;\n          k = find(_id,_usr,true);\n          delete PreLItem[_usr][k];\n\n\n            }  \n         }\n       }\n         \n      \n      /*\n    function WaitingUsr(uint256 _id) public returns(address){\n   \n   for(uint256 i; i<Calendario.Orders();i++){\n    if(CautionId[_id][i] != address(0x0)){\n      i = Calendario.Orders();\n      return CautionId[_id][i];\n\n   }\n\n    }\n   return address(0x0);\n    }*/\n    }\n\n\n\n\n\n\n\n\n\n",
  "sourcePath": "C:\\Users\\Luca\\Desktop\\tesi\\My-tesi\\src\\contracts\\LoanItem.sol",
  "compiler": {
    "name": "solc",
    "version": "0.8.11+commit.d7f03943.Emscripten.clang"
  },
  "schemaVersion": "3.4.1",
  "updatedAt": "2022-02-05T17:13:22.408Z",
  "devdoc": {
    "kind": "dev",
    "methods": {},
    "version": 1
  },
  "userdoc": {
    "kind": "user",
    "methods": {},
    "version": 1
  }
}