{
  "contractName": "LoanItem",
  "abi": [
    {
      "inputs": [
        {
          "internalType": "address",
          "name": "_owner",
          "type": "address"
        },
        {
          "internalType": "contract Calendar",
          "name": "Cad",
          "type": "address"
        }
      ],
      "stateMutability": "nonpayable",
      "type": "constructor"
    },
    {
      "anonymous": false,
      "inputs": [
        {
          "indexed": true,
          "internalType": "address",
          "name": "account",
          "type": "address"
        },
        {
          "indexed": true,
          "internalType": "address",
          "name": "operator",
          "type": "address"
        },
        {
          "indexed": false,
          "internalType": "bool",
          "name": "approved",
          "type": "bool"
        }
      ],
      "name": "ApprovalForAll",
      "type": "event"
    },
    {
      "anonymous": false,
      "inputs": [
        {
          "indexed": false,
          "internalType": "uint256",
          "name": "id",
          "type": "uint256"
        },
        {
          "indexed": false,
          "internalType": "string",
          "name": "description",
          "type": "string"
        },
        {
          "indexed": false,
          "internalType": "string",
          "name": "namec",
          "type": "string"
        }
      ],
      "name": "CoinFTCreated",
      "type": "event"
    },
    {
      "anonymous": false,
      "inputs": [
        {
          "indexed": false,
          "internalType": "uint256",
          "name": "id",
          "type": "uint256"
        },
        {
          "indexed": false,
          "internalType": "string",
          "name": "hash",
          "type": "string"
        },
        {
          "indexed": false,
          "internalType": "string",
          "name": "description",
          "type": "string"
        },
        {
          "indexed": false,
          "internalType": "uint256",
          "name": "tokenId",
          "type": "uint256"
        },
        {
          "indexed": false,
          "internalType": "address",
          "name": "author",
          "type": "address"
        }
      ],
      "name": "ImageCreated",
      "type": "event"
    },
    {
      "anonymous": false,
      "inputs": [
        {
          "indexed": false,
          "internalType": "uint256",
          "name": "id",
          "type": "uint256"
        },
        {
          "components": [
            {
              "internalType": "uint256",
              "name": "id",
              "type": "uint256"
            },
            {
              "internalType": "string",
              "name": "hash",
              "type": "string"
            },
            {
              "internalType": "string",
              "name": "description",
              "type": "string"
            },
            {
              "internalType": "uint256",
              "name": "tokenId",
              "type": "uint256"
            },
            {
              "internalType": "address",
              "name": "author",
              "type": "address"
            }
          ],
          "indexed": false,
          "internalType": "struct LoanItem.Image",
          "name": "phots",
          "type": "tuple"
        },
        {
          "indexed": false,
          "internalType": "string",
          "name": "description",
          "type": "string"
        },
        {
          "indexed": false,
          "internalType": "string",
          "name": "namet",
          "type": "string"
        },
        {
          "indexed": false,
          "internalType": "uint256",
          "name": "pricel",
          "type": "uint256"
        },
        {
          "indexed": false,
          "internalType": "uint256",
          "name": "caution",
          "type": "uint256"
        },
        {
          "indexed": false,
          "internalType": "uint256",
          "name": "Cid",
          "type": "uint256"
        }
      ],
      "name": "TokenNFTCreated",
      "type": "event"
    },
    {
      "anonymous": false,
      "inputs": [
        {
          "indexed": true,
          "internalType": "address",
          "name": "operator",
          "type": "address"
        },
        {
          "indexed": true,
          "internalType": "address",
          "name": "from",
          "type": "address"
        },
        {
          "indexed": true,
          "internalType": "address",
          "name": "to",
          "type": "address"
        },
        {
          "indexed": false,
          "internalType": "uint256[]",
          "name": "ids",
          "type": "uint256[]"
        },
        {
          "indexed": false,
          "internalType": "uint256[]",
          "name": "values",
          "type": "uint256[]"
        }
      ],
      "name": "TransferBatch",
      "type": "event"
    },
    {
      "anonymous": false,
      "inputs": [
        {
          "indexed": true,
          "internalType": "address",
          "name": "operator",
          "type": "address"
        },
        {
          "indexed": true,
          "internalType": "address",
          "name": "from",
          "type": "address"
        },
        {
          "indexed": true,
          "internalType": "address",
          "name": "to",
          "type": "address"
        },
        {
          "indexed": false,
          "internalType": "uint256",
          "name": "id",
          "type": "uint256"
        },
        {
          "indexed": false,
          "internalType": "uint256",
          "name": "value",
          "type": "uint256"
        }
      ],
      "name": "TransferSingle",
      "type": "event"
    },
    {
      "anonymous": false,
      "inputs": [
        {
          "indexed": false,
          "internalType": "string",
          "name": "value",
          "type": "string"
        },
        {
          "indexed": true,
          "internalType": "uint256",
          "name": "id",
          "type": "uint256"
        }
      ],
      "name": "URI",
      "type": "event"
    },
    {
      "inputs": [
        {
          "internalType": "uint256",
          "name": "",
          "type": "uint256"
        }
      ],
      "name": "CautionId",
      "outputs": [
        {
          "internalType": "address",
          "name": "",
          "type": "address"
        }
      ],
      "stateMutability": "view",
      "type": "function"
    },
    {
      "inputs": [
        {
          "internalType": "uint256",
          "name": "",
          "type": "uint256"
        }
      ],
      "name": "Cds",
      "outputs": [
        {
          "internalType": "uint256",
          "name": "",
          "type": "uint256"
        }
      ],
      "stateMutability": "view",
      "type": "function"
    },
    {
      "inputs": [
        {
          "internalType": "uint256",
          "name": "",
          "type": "uint256"
        }
      ],
      "name": "CoinId",
      "outputs": [
        {
          "internalType": "uint256",
          "name": "id",
          "type": "uint256"
        },
        {
          "internalType": "string",
          "name": "description",
          "type": "string"
        },
        {
          "internalType": "string",
          "name": "namec",
          "type": "string"
        }
      ],
      "stateMutability": "view",
      "type": "function"
    },
    {
      "inputs": [
        {
          "internalType": "address",
          "name": "account",
          "type": "address"
        },
        {
          "internalType": "uint256",
          "name": "id",
          "type": "uint256"
        }
      ],
      "name": "balanceOf",
      "outputs": [
        {
          "internalType": "uint256",
          "name": "",
          "type": "uint256"
        }
      ],
      "stateMutability": "view",
      "type": "function"
    },
    {
      "inputs": [
        {
          "internalType": "address[]",
          "name": "accounts",
          "type": "address[]"
        },
        {
          "internalType": "uint256[]",
          "name": "ids",
          "type": "uint256[]"
        }
      ],
      "name": "balanceOfBatch",
      "outputs": [
        {
          "internalType": "uint256[]",
          "name": "",
          "type": "uint256[]"
        }
      ],
      "stateMutability": "view",
      "type": "function"
    },
    {
      "inputs": [],
      "name": "countAttrezzi",
      "outputs": [
        {
          "internalType": "uint256",
          "name": "",
          "type": "uint256"
        }
      ],
      "stateMutability": "view",
      "type": "function"
    },
    {
      "inputs": [
        {
          "internalType": "address",
          "name": "",
          "type": "address"
        }
      ],
      "name": "hasStaked",
      "outputs": [
        {
          "internalType": "bool",
          "name": "",
          "type": "bool"
        }
      ],
      "stateMutability": "view",
      "type": "function"
    },
    {
      "inputs": [
        {
          "internalType": "uint256",
          "name": "",
          "type": "uint256"
        }
      ],
      "name": "ids",
      "outputs": [
        {
          "internalType": "uint256",
          "name": "",
          "type": "uint256"
        }
      ],
      "stateMutability": "view",
      "type": "function"
    },
    {
      "inputs": [],
      "name": "imageCount",
      "outputs": [
        {
          "internalType": "uint256",
          "name": "",
          "type": "uint256"
        }
      ],
      "stateMutability": "view",
      "type": "function"
    },
    {
      "inputs": [
        {
          "internalType": "uint256",
          "name": "",
          "type": "uint256"
        }
      ],
      "name": "images",
      "outputs": [
        {
          "internalType": "uint256",
          "name": "id",
          "type": "uint256"
        },
        {
          "internalType": "string",
          "name": "hash",
          "type": "string"
        },
        {
          "internalType": "string",
          "name": "description",
          "type": "string"
        },
        {
          "internalType": "uint256",
          "name": "tokenId",
          "type": "uint256"
        },
        {
          "internalType": "address",
          "name": "author",
          "type": "address"
        }
      ],
      "stateMutability": "view",
      "type": "function"
    },
    {
      "inputs": [
        {
          "internalType": "address",
          "name": "account",
          "type": "address"
        },
        {
          "internalType": "address",
          "name": "operator",
          "type": "address"
        }
      ],
      "name": "isApprovedForAll",
      "outputs": [
        {
          "internalType": "bool",
          "name": "",
          "type": "bool"
        }
      ],
      "stateMutability": "view",
      "type": "function"
    },
    {
      "inputs": [
        {
          "internalType": "address",
          "name": "",
          "type": "address"
        }
      ],
      "name": "isStaking",
      "outputs": [
        {
          "internalType": "bool",
          "name": "",
          "type": "bool"
        }
      ],
      "stateMutability": "view",
      "type": "function"
    },
    {
      "inputs": [],
      "name": "name",
      "outputs": [
        {
          "internalType": "string",
          "name": "",
          "type": "string"
        }
      ],
      "stateMutability": "view",
      "type": "function"
    },
    {
      "inputs": [],
      "name": "owner",
      "outputs": [
        {
          "internalType": "address",
          "name": "",
          "type": "address"
        }
      ],
      "stateMutability": "view",
      "type": "function"
    },
    {
      "inputs": [
        {
          "internalType": "address",
          "name": "",
          "type": "address"
        }
      ],
      "name": "permissions",
      "outputs": [
        {
          "internalType": "bool",
          "name": "",
          "type": "bool"
        }
      ],
      "stateMutability": "view",
      "type": "function"
    },
    {
      "inputs": [
        {
          "internalType": "address",
          "name": "from",
          "type": "address"
        },
        {
          "internalType": "address",
          "name": "to",
          "type": "address"
        },
        {
          "internalType": "uint256[]",
          "name": "ids",
          "type": "uint256[]"
        },
        {
          "internalType": "uint256[]",
          "name": "amounts",
          "type": "uint256[]"
        },
        {
          "internalType": "bytes",
          "name": "data",
          "type": "bytes"
        }
      ],
      "name": "safeBatchTransferFrom",
      "outputs": [],
      "stateMutability": "nonpayable",
      "type": "function"
    },
    {
      "inputs": [
        {
          "internalType": "address",
          "name": "from",
          "type": "address"
        },
        {
          "internalType": "address",
          "name": "to",
          "type": "address"
        },
        {
          "internalType": "uint256",
          "name": "id",
          "type": "uint256"
        },
        {
          "internalType": "uint256",
          "name": "amount",
          "type": "uint256"
        },
        {
          "internalType": "bytes",
          "name": "data",
          "type": "bytes"
        }
      ],
      "name": "safeTransferFrom",
      "outputs": [],
      "stateMutability": "nonpayable",
      "type": "function"
    },
    {
      "inputs": [
        {
          "internalType": "address",
          "name": "operator",
          "type": "address"
        },
        {
          "internalType": "bool",
          "name": "approved",
          "type": "bool"
        }
      ],
      "name": "setApprovalForAll",
      "outputs": [],
      "stateMutability": "nonpayable",
      "type": "function"
    },
    {
      "inputs": [
        {
          "internalType": "uint256",
          "name": "",
          "type": "uint256"
        }
      ],
      "name": "stakers",
      "outputs": [
        {
          "internalType": "address",
          "name": "",
          "type": "address"
        }
      ],
      "stateMutability": "view",
      "type": "function"
    },
    {
      "inputs": [
        {
          "internalType": "address",
          "name": "",
          "type": "address"
        }
      ],
      "name": "stakingBalance",
      "outputs": [
        {
          "internalType": "uint256",
          "name": "",
          "type": "uint256"
        }
      ],
      "stateMutability": "view",
      "type": "function"
    },
    {
      "inputs": [
        {
          "internalType": "bytes4",
          "name": "interfaceId",
          "type": "bytes4"
        }
      ],
      "name": "supportsInterface",
      "outputs": [
        {
          "internalType": "bool",
          "name": "",
          "type": "bool"
        }
      ],
      "stateMutability": "view",
      "type": "function"
    },
    {
      "inputs": [],
      "name": "symbol",
      "outputs": [
        {
          "internalType": "string",
          "name": "",
          "type": "string"
        }
      ],
      "stateMutability": "view",
      "type": "function"
    },
    {
      "inputs": [
        {
          "internalType": "uint256",
          "name": "",
          "type": "uint256"
        }
      ],
      "name": "tokenId",
      "outputs": [
        {
          "internalType": "uint256",
          "name": "id",
          "type": "uint256"
        },
        {
          "components": [
            {
              "internalType": "uint256",
              "name": "id",
              "type": "uint256"
            },
            {
              "internalType": "string",
              "name": "hash",
              "type": "string"
            },
            {
              "internalType": "string",
              "name": "description",
              "type": "string"
            },
            {
              "internalType": "uint256",
              "name": "tokenId",
              "type": "uint256"
            },
            {
              "internalType": "address",
              "name": "author",
              "type": "address"
            }
          ],
          "internalType": "struct LoanItem.Image",
          "name": "phots",
          "type": "tuple"
        },
        {
          "internalType": "string",
          "name": "description",
          "type": "string"
        },
        {
          "internalType": "string",
          "name": "namet",
          "type": "string"
        },
        {
          "internalType": "uint256",
          "name": "pricel",
          "type": "uint256"
        },
        {
          "internalType": "uint256",
          "name": "caution",
          "type": "uint256"
        },
        {
          "internalType": "uint256",
          "name": "Cid",
          "type": "uint256"
        }
      ],
      "stateMutability": "view",
      "type": "function"
    },
    {
      "inputs": [
        {
          "internalType": "uint256",
          "name": "",
          "type": "uint256"
        }
      ],
      "name": "uri",
      "outputs": [
        {
          "internalType": "string",
          "name": "",
          "type": "string"
        }
      ],
      "stateMutability": "view",
      "type": "function"
    },
    {
      "inputs": [
        {
          "internalType": "uint256",
          "name": "value",
          "type": "uint256"
        },
        {
          "internalType": "string",
          "name": "Name",
          "type": "string"
        },
        {
          "internalType": "string",
          "name": "description",
          "type": "string"
        }
      ],
      "name": "addNewCoin",
      "outputs": [],
      "stateMutability": "nonpayable",
      "type": "function"
    },
    {
      "inputs": [
        {
          "internalType": "address",
          "name": "ute",
          "type": "address"
        },
        {
          "internalType": "bool",
          "name": "setting",
          "type": "bool"
        }
      ],
      "name": "setPermissions",
      "outputs": [],
      "stateMutability": "nonpayable",
      "type": "function"
    },
    {
      "inputs": [
        {
          "internalType": "uint256",
          "name": "price",
          "type": "uint256"
        },
        {
          "internalType": "uint256",
          "name": "caution",
          "type": "uint256"
        },
        {
          "internalType": "string",
          "name": "_imgHash",
          "type": "string"
        },
        {
          "internalType": "string",
          "name": "_description",
          "type": "string"
        },
        {
          "internalType": "string",
          "name": "namef",
          "type": "string"
        },
        {
          "internalType": "uint256",
          "name": "Cid",
          "type": "uint256"
        }
      ],
      "name": "addNewItem",
      "outputs": [],
      "stateMutability": "nonpayable",
      "type": "function"
    },
    {
      "inputs": [
        {
          "internalType": "address",
          "name": "_from",
          "type": "address"
        },
        {
          "internalType": "address",
          "name": "_to",
          "type": "address"
        },
        {
          "internalType": "uint256",
          "name": "_id",
          "type": "uint256"
        },
        {
          "internalType": "bool",
          "name": "pre",
          "type": "bool"
        },
        {
          "internalType": "bool",
          "name": "acq",
          "type": "bool"
        }
      ],
      "name": "TrasferTest",
      "outputs": [],
      "stateMutability": "nonpayable",
      "type": "function"
    },
    {
      "inputs": [
        {
          "internalType": "address",
          "name": "_to",
          "type": "address"
        },
        {
          "internalType": "uint256",
          "name": "coin",
          "type": "uint256"
        },
        {
          "internalType": "uint256",
          "name": "value",
          "type": "uint256"
        }
      ],
      "name": "GiveToken",
      "outputs": [],
      "stateMutability": "nonpayable",
      "type": "function"
    },
    {
      "inputs": [
        {
          "internalType": "uint256",
          "name": "_id",
          "type": "uint256"
        },
        {
          "internalType": "uint256",
          "name": "caution",
          "type": "uint256"
        }
      ],
      "name": "ReleseW",
      "outputs": [],
      "stateMutability": "nonpayable",
      "type": "function"
    }
  ],
  "bytecode": "0x60806040526040518060400160405280600881526020017f4c6f616e4974656d000000000000000000000000000000000000000000000000815250600390805190602001906200005192919062000215565b506040518060400160405280600281526020017f4c49000000000000000000000000000000000000000000000000000000000000815250600490805190602001906200009f92919062000215565b50348015620000ad57600080fd5b5060405162006013380380620060138339818101604052810190620000d3919062000374565b60405180602001604052806000815250620000f481620001f960201b60201c565b5081601360006101000a81548173ffffffffffffffffffffffffffffffffffffffff021916908373ffffffffffffffffffffffffffffffffffffffff1602179055506001600e6000601360009054906101000a900473ffffffffffffffffffffffffffffffffffffffff1673ffffffffffffffffffffffffffffffffffffffff1673ffffffffffffffffffffffffffffffffffffffff16815260200190815260200160002060006101000a81548160ff02191690831515021790555080600560006101000a81548173ffffffffffffffffffffffffffffffffffffffff021916908373ffffffffffffffffffffffffffffffffffffffff160217905550505062000420565b80600290805190602001906200021192919062000215565b5050565b8280546200022390620003ea565b90600052602060002090601f01602090048101928262000247576000855562000293565b82601f106200026257805160ff191683800117855562000293565b8280016001018555821562000293579182015b828111156200029257825182559160200191906001019062000275565b5b509050620002a29190620002a6565b5090565b5b80821115620002c1576000816000905550600101620002a7565b5090565b600080fd5b600073ffffffffffffffffffffffffffffffffffffffff82169050919050565b6000620002f782620002ca565b9050919050565b6200030981620002ea565b81146200031557600080fd5b50565b6000815190506200032981620002fe565b92915050565b60006200033c82620002ea565b9050919050565b6200034e816200032f565b81146200035a57600080fd5b50565b6000815190506200036e8162000343565b92915050565b600080604083850312156200038e576200038d620002c5565b5b60006200039e8582860162000318565b9250506020620003b1858286016200035d565b9150509250929050565b7f4e487b7100000000000000000000000000000000000000000000000000000000600052602260045260246000fd5b600060028204905060018216806200040357607f821691505b602082108114156200041a5762000419620003bb565b5b50919050565b615be380620004306000396000f3fe608060405234801561001057600080fd5b50600436106101d95760003560e01c80637a8ad59411610104578063a1af645f116100a2578063e985e9c511610071578063e985e9c5146105d0578063f242432a14610600578063fac333ac1461061c578063fd5e6dd11461064c576101d9565b8063a1af645f14610536578063a22cb46514610566578063a963cff714610582578063c93c8f34146105a0576101d9565b80638da5cb5b116100de5780638da5cb5b146104c057806392053b63146104de57806395d89b41146104fc578063a166754b1461051a576101d9565b80637a8ad594146104265780637dcb0e5f14610456578063848564821461048c576101d9565b80633a712e831161017c5780634e1273f41161014b5780634e1273f41461038e5780636165234c146103be578063689ceaac146103da5780636f49712b146103f6576101d9565b80633a712e83146102f457806345bc78ab14610310578063499ea4b3146103405780634ac726c114610372576101d9565b806306fdde03116101b857806306fdde031461026e5780630e89341c1461028c5780631be27808146102bc5780632eb2c2d6146102d8576101d9565b8062fdd58e146101de57806301e882081461020e57806301ffc9a71461023e575b600080fd5b6101f860048036038101906101f391906139fc565b61067c565b6040516102059190613a4b565b60405180910390f35b61022860048036038101906102239190613a66565b610745565b6040516102359190613aae565b60405180910390f35b61025860048036038101906102539190613b21565b610765565b6040516102659190613aae565b60405180910390f35b610276610847565b6040516102839190613be7565b60405180910390f35b6102a660048036038101906102a19190613c09565b6108d5565b6040516102b39190613be7565b60405180910390f35b6102d660048036038101906102d19190613c62565b610969565b005b6102f260048036038101906102ed9190613eda565b6111de565b005b61030e6004803603810190610309919061404a565b61127f565b005b61032a60048036038101906103259190613a66565b611491565b6040516103379190613a4b565b60405180910390f35b61035a60048036038101906103559190613c09565b6114a9565b604051610369939291906140d5565b60405180910390f35b61038c6004803603810190610387919061411a565b6115e3565b005b6103a860048036038101906103a3919061421d565b6118f6565b6040516103b59190614353565b60405180910390f35b6103d860048036038101906103d39190614375565b611a0f565b005b6103f460048036038101906103ef91906143b5565b611b55565b005b610410600480360381019061040b9190613a66565b612311565b60405161041d9190613aae565b60405180910390f35b610440600480360381019061043b9190613c09565b612331565b60405161044d91906144a5565b60405180910390f35b610470600480360381019061046b9190613c09565b612364565b6040516104839796959493929190614596565b60405180910390f35b6104a660048036038101906104a19190613c09565b61264e565b6040516104b795949392919061461a565b60405180910390f35b6104c86127b4565b6040516104d591906144a5565b60405180910390f35b6104e66127da565b6040516104f39190613a4b565b60405180910390f35b6105046127e0565b6040516105119190613be7565b60405180910390f35b610534600480360381019061052f919061467b565b61286e565b005b610550600480360381019061054b9190613c09565b612983565b60405161055d9190613a4b565b60405180910390f35b610580600480360381019061057b9190614375565b61299b565b005b61058a612b1c565b6040516105979190613a4b565b60405180910390f35b6105ba60048036038101906105b59190613a66565b612b22565b6040516105c79190613aae565b60405180910390f35b6105ea60048036038101906105e591906146ce565b612b42565b6040516105f79190613aae565b60405180910390f35b61061a6004803603810190610615919061470e565b612bd6565b005b61063660048036038101906106319190613c09565b612c77565b6040516106439190613a4b565b60405180910390f35b61066660048036038101906106619190613c09565b612c8f565b60405161067391906144a5565b60405180910390f35b60008073ffffffffffffffffffffffffffffffffffffffff168373ffffffffffffffffffffffffffffffffffffffff1614156106ed576040517f08c379a00000000000000000000000000000000000000000000000000000000081526004016106e490614817565b60405180910390fd5b60008083815260200190815260200160002060008473ffffffffffffffffffffffffffffffffffffffff1673ffffffffffffffffffffffffffffffffffffffff16815260200190815260200160002054905092915050565b600e6020528060005260406000206000915054906101000a900460ff1681565b60007fd9b67a26000000000000000000000000000000000000000000000000000000007bffffffffffffffffffffffffffffffffffffffffffffffffffffffff1916827bffffffffffffffffffffffffffffffffffffffffffffffffffffffff1916148061083057507f0e89341c000000000000000000000000000000000000000000000000000000007bffffffffffffffffffffffffffffffffffffffffffffffffffffffff1916827bffffffffffffffffffffffffffffffffffffffffffffffffffffffff1916145b80610840575061083f82612cce565b5b9050919050565b6003805461085490614866565b80601f016020809104026020016040519081016040528092919081815260200182805461088090614866565b80156108cd5780601f106108a2576101008083540402835291602001916108cd565b820191906000526020600020905b8154815290600101906020018083116108b057829003601f168201915b505050505081565b6060600280546108e490614866565b80601f016020809104026020016040519081016040528092919081815260200182805461091090614866565b801561095d5780601f106109325761010080835404028352916020019161095d565b820191906000526020600020905b81548152906001019060200180831161094057829003601f168201915b50505050509050919050565b600073ffffffffffffffffffffffffffffffffffffffff168573ffffffffffffffffffffffffffffffffffffffff1614156109d9576040517f08c379a00000000000000000000000000000000000000000000000000000000081526004016109d0906148e4565b60405180910390fd5b600073ffffffffffffffffffffffffffffffffffffffff168473ffffffffffffffffffffffffffffffffffffffff161415610a49576040517f08c379a0000000000000000000000000000000000000000000000000000000008152600401610a4090614950565b60405180910390fd5b60008311610a8c576040517f08c379a0000000000000000000000000000000000000000000000000000000008152600401610a83906149bc565b60405180910390fd5b6040518060400160405280600781526020017f57616974696e670000000000000000000000000000000000000000000000000081525080519060200120600560009054906101000a900473ffffffffffffffffffffffffffffffffffffffff1673ffffffffffffffffffffffffffffffffffffffff166335b67731856040518263ffffffff1660e01b8152600401610b249190613a4b565b600060405180830381865afa158015610b41573d6000803e3d6000fd5b505050506040513d6000823e3d601f19601f82011682018060405250810190610b6a9190614a4c565b805190602001201415610bb2576040517f08c379a0000000000000000000000000000000000000000000000000000000008152600401610ba990614ae1565b60405180910390fd5b601360009054906101000a900473ffffffffffffffffffffffffffffffffffffffff1673ffffffffffffffffffffffffffffffffffffffff168473ffffffffffffffffffffffffffffffffffffffff16148015610cf157506040518060400160405280600481526020017f427573790000000000000000000000000000000000000000000000000000000081525080519060200120600560009054906101000a900473ffffffffffffffffffffffffffffffffffffffff1673ffffffffffffffffffffffffffffffffffffffff166335b67731856040518263ffffffff1660e01b8152600401610ca29190613a4b565b600060405180830381865afa158015610cbf573d6000803e3d6000fd5b505050506040513d6000823e3d601f19601f82011682018060405250810190610ce89190614a4c565b80519060200120145b15610e54576000600560009054906101000a900473ffffffffffffffffffffffffffffffffffffffff1673ffffffffffffffffffffffffffffffffffffffff16639ff3b46d856040518263ffffffff1660e01b8152600401610d539190614b4d565b6020604051808303816000875af1158015610d72573d6000803e3d6000fd5b505050506040513d601f19601f82011682018060405250810190610d969190614b90565b90506001151581151514610ddf576040517f08c379a0000000000000000000000000000000000000000000000000000000008152600401610dd690614c09565b60405180910390fd5b610dfc868686600160405180602001604052806000815250612bd6565b85600c600086815260200190815260200160002060006101000a81548173ffffffffffffffffffffffffffffffffffffffff021916908373ffffffffffffffffffffffffffffffffffffffff160217905550506111d6565b601360009054906101000a900473ffffffffffffffffffffffffffffffffffffffff1673ffffffffffffffffffffffffffffffffffffffff168573ffffffffffffffffffffffffffffffffffffffff1614156111d557818015610eb5575080155b15610f5957610f028486600b6000878152602001908152602001600020600a0154600b60008881526020019081526020016000206009015460405180602001604052806000815250612bd6565b83600c600085815260200190815260200160002060006101000a81548173ffffffffffffffffffffffffffffffffffffffff021916908373ffffffffffffffffffffffffffffffffffffffff1602179055506111d7565b808015610f64575081155b1561101257600560009054906101000a900473ffffffffffffffffffffffffffffffffffffffff1673ffffffffffffffffffffffffffffffffffffffff1663b5c5daa4600085336040518463ffffffff1660e01b8152600401610fc993929190614c6e565b6020604051808303816000875af1158015610fe8573d6000803e3d6000fd5b505050506040513d601f19601f8201168201806040525081019061100c9190614b90565b506111d7565b61107b8486600b6000878152602001908152602001600020600a0154600b600088815260200190815260200160002060090154600b6000898152602001908152602001600020600801546110669190614cd4565b60405180602001604052806000815250612bd6565b611098858585600160405180602001604052806000815250612bd6565b6000600560009054906101000a900473ffffffffffffffffffffffffffffffffffffffff1673ffffffffffffffffffffffffffffffffffffffff16639ff3b46d856040518263ffffffff1660e01b81526004016110f59190614d76565b6020604051808303816000875af1158015611114573d6000803e3d6000fd5b505050506040513d601f19601f820116820180604052508101906111389190614b90565b90506001151581151514611181576040517f08c379a000000000000000000000000000000000000000000000000000000000815260040161117890614df0565b60405180910390fd5b84600c600086815260200190815260200160002060006101000a81548173ffffffffffffffffffffffffffffffffffffffff021916908373ffffffffffffffffffffffffffffffffffffffff160217905550505b5b5b5050505050565b6111e6612d38565b73ffffffffffffffffffffffffffffffffffffffff168573ffffffffffffffffffffffffffffffffffffffff16148061122c575061122b85611226612d38565b612b42565b5b61126b576040517f08c379a000000000000000000000000000000000000000000000000000000000815260040161126290614e82565b60405180910390fd5b6112788585858585612d40565b5050505050565b601360009054906101000a900473ffffffffffffffffffffffffffffffffffffffff1673ffffffffffffffffffffffffffffffffffffffff163373ffffffffffffffffffffffffffffffffffffffff16148061132b575060011515600e60003373ffffffffffffffffffffffffffffffffffffffff1673ffffffffffffffffffffffffffffffffffffffff16815260200190815260200160002060009054906101000a900460ff161515145b61136a576040517f08c379a000000000000000000000000000000000000000000000000000000000815260040161136190614eee565b60405180910390fd5b600082511161137857600080fd5b6000831161138557600080fd5b6011600081548092919061139890614f0e565b91905055506113ba336011548560405180602001604052806000815250613054565b601154601060006011548152602001908152602001600020819055506040518060600160405280601154815260200182815260200183815250600f6000601154815260200190815260200160002060008201518160000155602082015181600101908051906020019061142e9291906138b1565b50604082015181600201908051906020019061144b9291906138b1565b509050507faf4b1085b3f4f980233bd54e1a354fed0504d6aa21ed37949c8b5aabae94653c6011548284604051611484939291906140d5565b60405180910390a1505050565b60076020528060005260406000206000915090505481565b600f6020528060005260406000206000915090508060000154908060010180546114d290614866565b80601f01602080910402602001604051908101604052809291908181526020018280546114fe90614866565b801561154b5780601f106115205761010080835404028352916020019161154b565b820191906000526020600020905b81548152906001019060200180831161152e57829003601f168201915b50505050509080600201805461156090614866565b80601f016020809104026020016040519081016040528092919081815260200182805461158c90614866565b80156115d95780601f106115ae576101008083540402835291602001916115d9565b820191906000526020600020905b8154815290600101906020018083116115bc57829003601f168201915b5050505050905083565b601360009054906101000a900473ffffffffffffffffffffffffffffffffffffffff1673ffffffffffffffffffffffffffffffffffffffff163373ffffffffffffffffffffffffffffffffffffffff16148061168f575060011515600e60003373ffffffffffffffffffffffffffffffffffffffff1673ffffffffffffffffffffffffffffffffffffffff16815260200190815260200160002060009054906101000a900460ff161515145b6116ce576040517f08c379a00000000000000000000000000000000000000000000000000000000081526004016116c590614eee565b60405180910390fd5b60008211611711576040517f08c379a000000000000000000000000000000000000000000000000000000000815260040161170890614f7d565b60405180910390fd5b601154821115611756576040517f08c379a000000000000000000000000000000000000000000000000000000000815260040161174d90614fe9565b60405180910390fd5b6000600d600084815260200190815260200160002054116117ac576040517f08c379a00000000000000000000000000000000000000000000000000000000081526004016117a390615055565b60405180910390fd5b600560009054906101000a900473ffffffffffffffffffffffffffffffffffffffff1673ffffffffffffffffffffffffffffffffffffffff16634abc9325836040518263ffffffff1660e01b81526004016118079190613a4b565b600060405180830381600087803b15801561182157600080fd5b505af1158015611835573d6000803e3d6000fd5b5050505061189f33600c600085815260200190815260200160002060009054906101000a900473ffffffffffffffffffffffffffffffffffffffff166001600b60008781526020019081526020016000206009015460405180602001604052806000815250612bd6565b6000600c600084815260200190815260200160002060006101000a81548173ffffffffffffffffffffffffffffffffffffffff021916908373ffffffffffffffffffffffffffffffffffffffff1602179055505050565b6060815183511461193c576040517f08c379a0000000000000000000000000000000000000000000000000000000008152600401611933906150e7565b60405180910390fd5b6000835167ffffffffffffffff81111561195957611958613ce2565b5b6040519080825280602002602001820160405280156119875781602001602082028036833780820191505090505b50905060005b8451811015611a04576119d48582815181106119ac576119ab615107565b5b60200260200101518583815181106119c7576119c6615107565b5b602002602001015161067c565b8282815181106119e7576119e6615107565b5b602002602001018181525050806119fd90614f0e565b905061198d565b508091505092915050565b601360009054906101000a900473ffffffffffffffffffffffffffffffffffffffff1673ffffffffffffffffffffffffffffffffffffffff163373ffffffffffffffffffffffffffffffffffffffff161480611abb575060011515600e60003373ffffffffffffffffffffffffffffffffffffffff1673ffffffffffffffffffffffffffffffffffffffff16815260200190815260200160002060009054906101000a900460ff161515145b611afa576040517f08c379a0000000000000000000000000000000000000000000000000000000008152600401611af190614eee565b60405180910390fd5b80600e60008473ffffffffffffffffffffffffffffffffffffffff1673ffffffffffffffffffffffffffffffffffffffff16815260200190815260200160002060006101000a81548160ff0219169083151502179055505050565b601360009054906101000a900473ffffffffffffffffffffffffffffffffffffffff1673ffffffffffffffffffffffffffffffffffffffff163373ffffffffffffffffffffffffffffffffffffffff161480611c01575060011515600e60003373ffffffffffffffffffffffffffffffffffffffff1673ffffffffffffffffffffffffffffffffffffffff16815260200190815260200160002060009054906101000a900460ff161515145b611c40576040517f08c379a0000000000000000000000000000000000000000000000000000000008152600401611c3790614eee565b60405180910390fd5b60008511611c4d57600080fd5b6000825111611c5b57600080fd5b60008611611c6857600080fd5b6000835111611c7657600080fd5b6000845111611c8457600080fd5b600073ffffffffffffffffffffffffffffffffffffffff163373ffffffffffffffffffffffffffffffffffffffff161415611cbe57600080fd5b6000600f60008381526020019081526020016000206002018054611ce190614866565b905011611d23576040517f08c379a0000000000000000000000000000000000000000000000000000000008152600401611d1a90615182565b60405180910390fd5b60126000815480929190611d3690614f0e565b919050555060116000815480929190611d4e90614f0e565b9190505550600560009054906101000a900473ffffffffffffffffffffffffffffffffffffffff1673ffffffffffffffffffffffffffffffffffffffff16639ff3b46d6011546040518263ffffffff1660e01b8152600401611db091906151ee565b6020604051808303816000875af1158015611dcf573d6000803e3d6000fd5b505050506040513d601f19601f82011682018060405250810190611df39190614b90565b50601154600d6000601154815260200190815260200160002081905550611e4133600d6000601154815260200190815260200160002054600160405180602001604052806000815250613054565b6040518060a00160405280601254815260200185815260200184815260200160008152602001601360009054906101000a900473ffffffffffffffffffffffffffffffffffffffff1673ffffffffffffffffffffffffffffffffffffffff16815250600a60006012548152602001908152602001600020600082015181600001556020820151816001019080519060200190611ede9291906138b1565b506040820151816002019080519060200190611efb9291906138b1565b506060820151816003015560808201518160040160006101000a81548173ffffffffffffffffffffffffffffffffffffffff021916908373ffffffffffffffffffffffffffffffffffffffff1602179055509050506040518060e001604052806011548152602001600a600060125481526020019081526020016000206040518060a001604052908160008201548152602001600182018054611f9d90614866565b80601f0160208091040260200160405190810160405280929190818152602001828054611fc990614866565b80156120165780601f10611feb57610100808354040283529160200191612016565b820191906000526020600020905b815481529060010190602001808311611ff957829003601f168201915b5050505050815260200160028201805461202f90614866565b80601f016020809104026020016040519081016040528092919081815260200182805461205b90614866565b80156120a85780601f1061207d576101008083540402835291602001916120a8565b820191906000526020600020905b81548152906001019060200180831161208b57829003601f168201915b50505050508152602001600382015481526020016004820160009054906101000a900473ffffffffffffffffffffffffffffffffffffffff1673ffffffffffffffffffffffffffffffffffffffff1673ffffffffffffffffffffffffffffffffffffffff1681525050815260200184815260200183815260200187815260200186815260200182815250600b60006011548152602001908152602001600020600082015181600001556020820151816001016000820151816000015560208201518160010190805190602001906121809291906138b1565b50604082015181600201908051906020019061219d9291906138b1565b506060820151816003015560808201518160040160006101000a81548173ffffffffffffffffffffffffffffffffffffffff021916908373ffffffffffffffffffffffffffffffffffffffff1602179055505050604082015181600601908051906020019061220d9291906138b1565b50606082015181600701908051906020019061222a9291906138b1565b506080820151816008015560a0820151816009015560c082015181600a01559050507fc1d8dfa99b3f84f95d3f0bc4a768addeb97b83b20aef7f9cb6729e126bafd2f960125485856000601360009054906101000a900473ffffffffffffffffffffffffffffffffffffffff166040516122a895949392919061521c565b60405180910390a17fb5c81648406183bffdea7566bac0ed978ae944671b4599c84fbe7b47f9f52429601154600a6000601254815260200190815260200160002085858a8a87604051612301979695949392919061541b565b60405180910390a1505050505050565b60096020528060005260406000206000915054906101000a900460ff1681565b600c6020528060005260406000206000915054906101000a900473ffffffffffffffffffffffffffffffffffffffff1681565b600b602052806000526040600020600091509050806000015490806001016040518060a0016040529081600082015481526020016001820180546123a790614866565b80601f01602080910402602001604051908101604052809291908181526020018280546123d390614866565b80156124205780601f106123f557610100808354040283529160200191612420565b820191906000526020600020905b81548152906001019060200180831161240357829003601f168201915b5050505050815260200160028201805461243990614866565b80601f016020809104026020016040519081016040528092919081815260200182805461246590614866565b80156124b25780601f10612487576101008083540402835291602001916124b2565b820191906000526020600020905b81548152906001019060200180831161249557829003601f168201915b50505050508152602001600382015481526020016004820160009054906101000a900473ffffffffffffffffffffffffffffffffffffffff1673ffffffffffffffffffffffffffffffffffffffff1673ffffffffffffffffffffffffffffffffffffffff16815250509080600601805461252b90614866565b80601f016020809104026020016040519081016040528092919081815260200182805461255790614866565b80156125a45780601f10612579576101008083540402835291602001916125a4565b820191906000526020600020905b81548152906001019060200180831161258757829003601f168201915b5050505050908060070180546125b990614866565b80601f01602080910402602001604051908101604052809291908181526020018280546125e590614866565b80156126325780601f1061260757610100808354040283529160200191612632565b820191906000526020600020905b81548152906001019060200180831161261557829003601f168201915b50505050509080600801549080600901549080600a0154905087565b600a60205280600052604060002060009150905080600001549080600101805461267790614866565b80601f01602080910402602001604051908101604052809291908181526020018280546126a390614866565b80156126f05780601f106126c5576101008083540402835291602001916126f0565b820191906000526020600020905b8154815290600101906020018083116126d357829003601f168201915b50505050509080600201805461270590614866565b80601f016020809104026020016040519081016040528092919081815260200182805461273190614866565b801561277e5780601f106127535761010080835404028352916020019161277e565b820191906000526020600020905b81548152906001019060200180831161276157829003601f168201915b5050505050908060030154908060040160009054906101000a900473ffffffffffffffffffffffffffffffffffffffff16905085565b601360009054906101000a900473ffffffffffffffffffffffffffffffffffffffff1681565b60125481565b600480546127ed90614866565b80601f016020809104026020016040519081016040528092919081815260200182805461281990614866565b80156128665780601f1061283b57610100808354040283529160200191612866565b820191906000526020600020905b81548152906001019060200180831161284957829003601f168201915b505050505081565b601360009054906101000a900473ffffffffffffffffffffffffffffffffffffffff1673ffffffffffffffffffffffffffffffffffffffff163373ffffffffffffffffffffffffffffffffffffffff16148061291a575060011515600e60003373ffffffffffffffffffffffffffffffffffffffff1673ffffffffffffffffffffffffffffffffffffffff16815260200190815260200160002060009054906101000a900460ff161515145b612959576040517f08c379a000000000000000000000000000000000000000000000000000000000815260040161295090614eee565b60405180910390fd5b61297e33848468056bc75e2d6310000060405180602001604052806000815250612bd6565b505050565b60106020528060005260406000206000915090505481565b8173ffffffffffffffffffffffffffffffffffffffff166129ba612d38565b73ffffffffffffffffffffffffffffffffffffffff161415612a11576040517f08c379a0000000000000000000000000000000000000000000000000000000008152600401612a0890615511565b60405180910390fd5b8060016000612a1e612d38565b73ffffffffffffffffffffffffffffffffffffffff1673ffffffffffffffffffffffffffffffffffffffff16815260200190815260200160002060008473ffffffffffffffffffffffffffffffffffffffff1673ffffffffffffffffffffffffffffffffffffffff16815260200190815260200160002060006101000a81548160ff0219169083151502179055508173ffffffffffffffffffffffffffffffffffffffff16612acb612d38565b73ffffffffffffffffffffffffffffffffffffffff167f17307eab39ab6107e8899845ad3d59bd9653f200f220920489ca2b5937696c3183604051612b109190613aae565b60405180910390a35050565b60115481565b60086020528060005260406000206000915054906101000a900460ff1681565b6000600160008473ffffffffffffffffffffffffffffffffffffffff1673ffffffffffffffffffffffffffffffffffffffff16815260200190815260200160002060008373ffffffffffffffffffffffffffffffffffffffff1673ffffffffffffffffffffffffffffffffffffffff16815260200190815260200160002060009054906101000a900460ff16905092915050565b612bde612d38565b73ffffffffffffffffffffffffffffffffffffffff168573ffffffffffffffffffffffffffffffffffffffff161480612c245750612c2385612c1e612d38565b612b42565b5b612c63576040517f08c379a0000000000000000000000000000000000000000000000000000000008152600401612c5a906155a3565b60405180910390fd5b612c7085858585856131ea565b5050505050565b600d6020528060005260406000206000915090505481565b60068181548110612c9f57600080fd5b906000526020600020016000915054906101000a900473ffffffffffffffffffffffffffffffffffffffff1681565b60007f01ffc9a7000000000000000000000000000000000000000000000000000000007bffffffffffffffffffffffffffffffffffffffffffffffffffffffff1916827bffffffffffffffffffffffffffffffffffffffffffffffffffffffff1916149050919050565b600033905090565b8151835114612d84576040517f08c379a0000000000000000000000000000000000000000000000000000000008152600401612d7b90615635565b60405180910390fd5b600073ffffffffffffffffffffffffffffffffffffffff168473ffffffffffffffffffffffffffffffffffffffff161415612df4576040517f08c379a0000000000000000000000000000000000000000000000000000000008152600401612deb906156c7565b60405180910390fd5b6000612dfe612d38565b9050612e0e81878787878761346c565b60005b8451811015612fbf576000858281518110612e2f57612e2e615107565b5b602002602001015190506000858381518110612e4e57612e4d615107565b5b60200260200101519050600080600084815260200190815260200160002060008b73ffffffffffffffffffffffffffffffffffffffff1673ffffffffffffffffffffffffffffffffffffffff16815260200190815260200160002054905081811015612eef576040517f08c379a0000000000000000000000000000000000000000000000000000000008152600401612ee690615759565b60405180910390fd5b81810360008085815260200190815260200160002060008c73ffffffffffffffffffffffffffffffffffffffff1673ffffffffffffffffffffffffffffffffffffffff168152602001908152602001600020819055508160008085815260200190815260200160002060008b73ffffffffffffffffffffffffffffffffffffffff1673ffffffffffffffffffffffffffffffffffffffff1681526020019081526020016000206000828254612fa49190614cd4565b9250508190555050505080612fb890614f0e565b9050612e11565b508473ffffffffffffffffffffffffffffffffffffffff168673ffffffffffffffffffffffffffffffffffffffff168273ffffffffffffffffffffffffffffffffffffffff167f4a39dc06d4c0dbc64b70af90fd698a233a518aa5d07e595d983b8c0526c8f7fb8787604051613036929190615779565b60405180910390a461304c818787878787613474565b505050505050565b600073ffffffffffffffffffffffffffffffffffffffff168473ffffffffffffffffffffffffffffffffffffffff1614156130c4576040517f08c379a00000000000000000000000000000000000000000000000000000000081526004016130bb90615822565b60405180910390fd5b60006130ce612d38565b90506130ef816000876130e08861364c565b6130e98861364c565b8761346c565b8260008086815260200190815260200160002060008773ffffffffffffffffffffffffffffffffffffffff1673ffffffffffffffffffffffffffffffffffffffff168152602001908152602001600020600082825461314e9190614cd4565b925050819055508473ffffffffffffffffffffffffffffffffffffffff16600073ffffffffffffffffffffffffffffffffffffffff168273ffffffffffffffffffffffffffffffffffffffff167fc3d58168c5ae7397731d063d5bbf3d657854427343f4c083240f7aacaa2d0f6287876040516131cc929190615842565b60405180910390a46131e3816000878787876136c6565b5050505050565b600073ffffffffffffffffffffffffffffffffffffffff168473ffffffffffffffffffffffffffffffffffffffff16141561325a576040517f08c379a0000000000000000000000000000000000000000000000000000000008152600401613251906156c7565b60405180910390fd5b6000613264612d38565b90506132848187876132758861364c565b61327e8861364c565b8761346c565b600080600086815260200190815260200160002060008873ffffffffffffffffffffffffffffffffffffffff1673ffffffffffffffffffffffffffffffffffffffff1681526020019081526020016000205490508381101561331b576040517f08c379a000000000000000000000000000000000000000000000000000000000815260040161331290615759565b60405180910390fd5b83810360008087815260200190815260200160002060008973ffffffffffffffffffffffffffffffffffffffff1673ffffffffffffffffffffffffffffffffffffffff168152602001908152602001600020819055508360008087815260200190815260200160002060008873ffffffffffffffffffffffffffffffffffffffff1673ffffffffffffffffffffffffffffffffffffffff16815260200190815260200160002060008282546133d09190614cd4565b925050819055508573ffffffffffffffffffffffffffffffffffffffff168773ffffffffffffffffffffffffffffffffffffffff168373ffffffffffffffffffffffffffffffffffffffff167fc3d58168c5ae7397731d063d5bbf3d657854427343f4c083240f7aacaa2d0f62888860405161344d929190615842565b60405180910390a46134638288888888886136c6565b50505050505050565b505050505050565b6134938473ffffffffffffffffffffffffffffffffffffffff1661389e565b15613644578373ffffffffffffffffffffffffffffffffffffffff1663bc197c8187878686866040518663ffffffff1660e01b81526004016134d99594939291906158c0565b6020604051808303816000875af192505050801561351557506040513d601f19601f82011682018060405250810190613512919061593d565b60015b6135bb57613521615977565b806308c379a0141561357e5750613536615999565b806135415750613580565b806040517f08c379a00000000000000000000000000000000000000000000000000000000081526004016135759190613be7565b60405180910390fd5b505b6040517f08c379a00000000000000000000000000000000000000000000000000000000081526004016135b290615aa1565b60405180910390fd5b63bc197c8160e01b7bffffffffffffffffffffffffffffffffffffffffffffffffffffffff1916817bffffffffffffffffffffffffffffffffffffffffffffffffffffffff191614613642576040517f08c379a000000000000000000000000000000000000000000000000000000000815260040161363990615b33565b60405180910390fd5b505b505050505050565b60606000600167ffffffffffffffff81111561366b5761366a613ce2565b5b6040519080825280602002602001820160405280156136995781602001602082028036833780820191505090505b50905082816000815181106136b1576136b0615107565b5b60200260200101818152505080915050919050565b6136e58473ffffffffffffffffffffffffffffffffffffffff1661389e565b15613896578373ffffffffffffffffffffffffffffffffffffffff1663f23a6e6187878686866040518663ffffffff1660e01b815260040161372b959493929190615b53565b6020604051808303816000875af192505050801561376757506040513d601f19601f82011682018060405250810190613764919061593d565b60015b61380d57613773615977565b806308c379a014156137d05750613788615999565b8061379357506137d2565b806040517f08c379a00000000000000000000000000000000000000000000000000000000081526004016137c79190613be7565b60405180910390fd5b505b6040517f08c379a000000000000000000000000000000000000000000000000000000000815260040161380490615aa1565b60405180910390fd5b63f23a6e6160e01b7bffffffffffffffffffffffffffffffffffffffffffffffffffffffff1916817bffffffffffffffffffffffffffffffffffffffffffffffffffffffff191614613894576040517f08c379a000000000000000000000000000000000000000000000000000000000815260040161388b90615b33565b60405180910390fd5b505b505050505050565b600080823b905060008111915050919050565b8280546138bd90614866565b90600052602060002090601f0160209004810192826138df5760008555613926565b82601f106138f857805160ff1916838001178555613926565b82800160010185558215613926579182015b8281111561392557825182559160200191906001019061390a565b5b5090506139339190613937565b5090565b5b80821115613950576000816000905550600101613938565b5090565b6000604051905090565b600080fd5b600080fd5b600073ffffffffffffffffffffffffffffffffffffffff82169050919050565b600061399382613968565b9050919050565b6139a381613988565b81146139ae57600080fd5b50565b6000813590506139c08161399a565b92915050565b6000819050919050565b6139d9816139c6565b81146139e457600080fd5b50565b6000813590506139f6816139d0565b92915050565b60008060408385031215613a1357613a1261395e565b5b6000613a21858286016139b1565b9250506020613a32858286016139e7565b9150509250929050565b613a45816139c6565b82525050565b6000602082019050613a606000830184613a3c565b92915050565b600060208284031215613a7c57613a7b61395e565b5b6000613a8a848285016139b1565b91505092915050565b60008115159050919050565b613aa881613a93565b82525050565b6000602082019050613ac36000830184613a9f565b92915050565b60007fffffffff0000000000000000000000000000000000000000000000000000000082169050919050565b613afe81613ac9565b8114613b0957600080fd5b50565b600081359050613b1b81613af5565b92915050565b600060208284031215613b3757613b3661395e565b5b6000613b4584828501613b0c565b91505092915050565b600081519050919050565b600082825260208201905092915050565b60005b83811015613b88578082015181840152602081019050613b6d565b83811115613b97576000848401525b50505050565b6000601f19601f8301169050919050565b6000613bb982613b4e565b613bc38185613b59565b9350613bd3818560208601613b6a565b613bdc81613b9d565b840191505092915050565b60006020820190508181036000830152613c018184613bae565b905092915050565b600060208284031215613c1f57613c1e61395e565b5b6000613c2d848285016139e7565b91505092915050565b613c3f81613a93565b8114613c4a57600080fd5b50565b600081359050613c5c81613c36565b92915050565b600080600080600060a08688031215613c7e57613c7d61395e565b5b6000613c8c888289016139b1565b9550506020613c9d888289016139b1565b9450506040613cae888289016139e7565b9350506060613cbf88828901613c4d565b9250506080613cd088828901613c4d565b9150509295509295909350565b600080fd5b7f4e487b7100000000000000000000000000000000000000000000000000000000600052604160045260246000fd5b613d1a82613b9d565b810181811067ffffffffffffffff82111715613d3957613d38613ce2565b5b80604052505050565b6000613d4c613954565b9050613d588282613d11565b919050565b600067ffffffffffffffff821115613d7857613d77613ce2565b5b602082029050602081019050919050565b600080fd5b6000613da1613d9c84613d5d565b613d42565b90508083825260208201905060208402830185811115613dc457613dc3613d89565b5b835b81811015613ded5780613dd988826139e7565b845260208401935050602081019050613dc6565b5050509392505050565b600082601f830112613e0c57613e0b613cdd565b5b8135613e1c848260208601613d8e565b91505092915050565b600080fd5b600067ffffffffffffffff821115613e4557613e44613ce2565b5b613e4e82613b9d565b9050602081019050919050565b82818337600083830152505050565b6000613e7d613e7884613e2a565b613d42565b905082815260208101848484011115613e9957613e98613e25565b5b613ea4848285613e5b565b509392505050565b600082601f830112613ec157613ec0613cdd565b5b8135613ed1848260208601613e6a565b91505092915050565b600080600080600060a08688031215613ef657613ef561395e565b5b6000613f04888289016139b1565b9550506020613f15888289016139b1565b945050604086013567ffffffffffffffff811115613f3657613f35613963565b5b613f4288828901613df7565b935050606086013567ffffffffffffffff811115613f6357613f62613963565b5b613f6f88828901613df7565b925050608086013567ffffffffffffffff811115613f9057613f8f613963565b5b613f9c88828901613eac565b9150509295509295909350565b600067ffffffffffffffff821115613fc457613fc3613ce2565b5b613fcd82613b9d565b9050602081019050919050565b6000613fed613fe884613fa9565b613d42565b90508281526020810184848401111561400957614008613e25565b5b614014848285613e5b565b509392505050565b600082601f83011261403157614030613cdd565b5b8135614041848260208601613fda565b91505092915050565b6000806000606084860312156140635761406261395e565b5b6000614071868287016139e7565b935050602084013567ffffffffffffffff81111561409257614091613963565b5b61409e8682870161401c565b925050604084013567ffffffffffffffff8111156140bf576140be613963565b5b6140cb8682870161401c565b9150509250925092565b60006060820190506140ea6000830186613a3c565b81810360208301526140fc8185613bae565b905081810360408301526141108184613bae565b9050949350505050565b600080604083850312156141315761413061395e565b5b600061413f858286016139e7565b9250506020614150858286016139e7565b9150509250929050565b600067ffffffffffffffff82111561417557614174613ce2565b5b602082029050602081019050919050565b60006141996141948461415a565b613d42565b905080838252602082019050602084028301858111156141bc576141bb613d89565b5b835b818110156141e557806141d188826139b1565b8452602084019350506020810190506141be565b5050509392505050565b600082601f83011261420457614203613cdd565b5b8135614214848260208601614186565b91505092915050565b600080604083850312156142345761423361395e565b5b600083013567ffffffffffffffff81111561425257614251613963565b5b61425e858286016141ef565b925050602083013567ffffffffffffffff81111561427f5761427e613963565b5b61428b85828601613df7565b9150509250929050565b600081519050919050565b600082825260208201905092915050565b6000819050602082019050919050565b6142ca816139c6565b82525050565b60006142dc83836142c1565b60208301905092915050565b6000602082019050919050565b600061430082614295565b61430a81856142a0565b9350614315836142b1565b8060005b8381101561434657815161432d88826142d0565b9750614338836142e8565b925050600181019050614319565b5085935050505092915050565b6000602082019050818103600083015261436d81846142f5565b905092915050565b6000806040838503121561438c5761438b61395e565b5b600061439a858286016139b1565b92505060206143ab85828601613c4d565b9150509250929050565b60008060008060008060c087890312156143d2576143d161395e565b5b60006143e089828a016139e7565b96505060206143f189828a016139e7565b955050604087013567ffffffffffffffff81111561441257614411613963565b5b61441e89828a0161401c565b945050606087013567ffffffffffffffff81111561443f5761443e613963565b5b61444b89828a0161401c565b935050608087013567ffffffffffffffff81111561446c5761446b613963565b5b61447889828a0161401c565b92505060a061448989828a016139e7565b9150509295509295509295565b61449f81613988565b82525050565b60006020820190506144ba6000830184614496565b92915050565b600082825260208201905092915050565b60006144dc82613b4e565b6144e681856144c0565b93506144f6818560208601613b6a565b6144ff81613b9d565b840191505092915050565b61451381613988565b82525050565b600060a08301600083015161453160008601826142c1565b506020830151848203602086015261454982826144d1565b9150506040830151848203604086015261456382826144d1565b915050606083015161457860608601826142c1565b50608083015161458b608086018261450a565b508091505092915050565b600060e0820190506145ab600083018a613a3c565b81810360208301526145bd8189614519565b905081810360408301526145d18188613bae565b905081810360608301526145e58187613bae565b90506145f46080830186613a3c565b61460160a0830185613a3c565b61460e60c0830184613a3c565b98975050505050505050565b600060a08201905061462f6000830188613a3c565b81810360208301526146418187613bae565b905081810360408301526146558186613bae565b90506146646060830185613a3c565b6146716080830184614496565b9695505050505050565b6000806000606084860312156146945761469361395e565b5b60006146a2868287016139b1565b93505060206146b3868287016139e7565b92505060406146c4868287016139e7565b9150509250925092565b600080604083850312156146e5576146e461395e565b5b60006146f3858286016139b1565b9250506020614704858286016139b1565b9150509250929050565b600080600080600060a0868803121561472a5761472961395e565b5b6000614738888289016139b1565b9550506020614749888289016139b1565b945050604061475a888289016139e7565b935050606061476b888289016139e7565b925050608086013567ffffffffffffffff81111561478c5761478b613963565b5b61479888828901613eac565b9150509295509295909350565b7f455243313135353a2062616c616e636520717565727920666f7220746865207a60008201527f65726f2061646472657373000000000000000000000000000000000000000000602082015250565b6000614801602b83613b59565b915061480c826147a5565b604082019050919050565b60006020820190508181036000830152614830816147f4565b9050919050565b7f4e487b7100000000000000000000000000000000000000000000000000000000600052602260045260246000fd5b6000600282049050600182168061487e57607f821691505b6020821081141561489257614891614837565b5b50919050565b7f61646472657373205f66726f6d20697320307830000000000000000000000000600082015250565b60006148ce601483613b59565b91506148d982614898565b602082019050919050565b600060208201905081810360008301526148fd816148c1565b9050919050565b7f61646472657373205f746f206973203078300000000000000000000000000000600082015250565b600061493a601283613b59565b915061494582614904565b602082019050919050565b600060208201905081810360008301526149698161492d565b9050919050565b7f746f6b656e206964206973203000000000000000000000000000000000000000600082015250565b60006149a6600d83613b59565b91506149b182614970565b602082019050919050565b600060208201905081810360008301526149d581614999565b9050919050565b60006149ef6149ea84613fa9565b613d42565b905082815260208101848484011115614a0b57614a0a613e25565b5b614a16848285613b6a565b509392505050565b600082601f830112614a3357614a32613cdd565b5b8151614a438482602086016149dc565b91505092915050565b600060208284031215614a6257614a6161395e565b5b600082015167ffffffffffffffff811115614a8057614a7f613963565b5b614a8c84828501614a1e565b91505092915050565b7f746f6b656e2069732077616974696e6720000000000000000000000000000000600082015250565b6000614acb601183613b59565b9150614ad682614a95565b602082019050919050565b60006020820190508181036000830152614afa81614abe565b9050919050565b7f57616974696e6700000000000000000000000000000000000000000000000000600082015250565b6000614b37600783613b59565b9150614b4282614b01565b602082019050919050565b6000604082019050614b626000830184613a3c565b8181036020830152614b7381614b2a565b905092915050565b600081519050614b8a81613c36565b92915050565b600060208284031215614ba657614ba561395e565b5b6000614bb484828501614b7b565b91505092915050565b7f4e6f6e20646973706f6e6962696c653100000000000000000000000000000000600082015250565b6000614bf3601083613b59565b9150614bfe82614bbd565b602082019050919050565b60006020820190508181036000830152614c2281614be6565b9050919050565b6000819050919050565b6000819050919050565b6000614c58614c53614c4e84614c29565b614c33565b6139c6565b9050919050565b614c6881614c3d565b82525050565b6000606082019050614c836000830186614c5f565b614c906020830185613a3c565b614c9d6040830184614496565b949350505050565b7f4e487b7100000000000000000000000000000000000000000000000000000000600052601160045260246000fd5b6000614cdf826139c6565b9150614cea836139c6565b9250827fffffffffffffffffffffffffffffffffffffffffffffffffffffffffffffffff03821115614d1f57614d1e614ca5565b5b828201905092915050565b7f4275737900000000000000000000000000000000000000000000000000000000600082015250565b6000614d60600483613b59565b9150614d6b82614d2a565b602082019050919050565b6000604082019050614d8b6000830184613a3c565b8181036020830152614d9c81614d53565b905092915050565b7f4e6f6e20646973706f6e6962696c653200000000000000000000000000000000600082015250565b6000614dda601083613b59565b9150614de582614da4565b602082019050919050565b60006020820190508181036000830152614e0981614dcd565b9050919050565b7f455243313135353a207472616e736665722063616c6c6572206973206e6f742060008201527f6f776e6572206e6f7220617070726f7665640000000000000000000000000000602082015250565b6000614e6c603283613b59565b9150614e7782614e10565b604082019050919050565b60006020820190508181036000830152614e9b81614e5f565b9050919050565b7f536f6c6f20696c2070726f70726965746172696f000000000000000000000000600082015250565b6000614ed8601483613b59565b9150614ee382614ea2565b602082019050919050565b60006020820190508181036000830152614f0781614ecb565b9050919050565b6000614f19826139c6565b91507fffffffffffffffffffffffffffffffffffffffffffffffffffffffffffffffff821415614f4c57614f4b614ca5565b5b600182019050919050565b50565b6000614f67600083613b59565b9150614f7282614f57565b600082019050919050565b60006020820190508181036000830152614f9681614f5a565b9050919050565b7f6974656d206e6f74206578697374730000000000000000000000000000000000600082015250565b6000614fd3600f83613b59565b9150614fde82614f9d565b602082019050919050565b6000602082019050818103600083015261500281614fc6565b9050919050565b7f546f6b656e206e6f742065786973747300000000000000000000000000000000600082015250565b600061503f601083613b59565b915061504a82615009565b602082019050919050565b6000602082019050818103600083015261506e81615032565b9050919050565b7f455243313135353a206163636f756e747320616e6420696473206c656e67746860008201527f206d69736d617463680000000000000000000000000000000000000000000000602082015250565b60006150d1602983613b59565b91506150dc82615075565b604082019050919050565b60006020820190508181036000830152615100816150c4565b9050919050565b7f4e487b7100000000000000000000000000000000000000000000000000000000600052603260045260246000fd5b7f436f696e204e6f74206578697374000000000000000000000000000000000000600082015250565b600061516c600e83613b59565b915061517782615136565b602082019050919050565b6000602082019050818103600083015261519b8161515f565b9050919050565b7f417661696c61626c650000000000000000000000000000000000000000000000600082015250565b60006151d8600983613b59565b91506151e3826151a2565b602082019050919050565b60006040820190506152036000830184613a3c565b8181036020830152615214816151cb565b905092915050565b600060a0820190506152316000830188613a3c565b81810360208301526152438187613bae565b905081810360408301526152578186613bae565b90506152666060830185614c5f565b6152736080830184614496565b9695505050505050565b60008160001c9050919050565b6000819050919050565b60006152a76152a28361527d565b61528a565b9050919050565b60008190508160005260206000209050919050565b600081546152d081614866565b6152da81866144c0565b945060018216600081146152f557600181146153075761533a565b60ff198316865260208601935061533a565b615310856152ae565b60005b8381101561533257815481890152600182019150602081019050615313565b808801955050505b50505092915050565b600073ffffffffffffffffffffffffffffffffffffffff82169050919050565b60006153766153718361527d565b615343565b9050919050565b600060a08301600080840154905061539481615294565b6153a160008701826142c1565b506001840185830360208701526153b883826152c3565b9250506002840185830360408701526153d183826152c3565b925050600384015490506153e481615294565b6153f160608701826142c1565b506004840154905061540281615363565b61540f608087018261450a565b50819250505092915050565b600060e082019050615430600083018a613a3c565b8181036020830152615442818961537d565b905081810360408301526154568188613bae565b9050818103606083015261546a8187613bae565b90506154796080830186613a3c565b61548660a0830185613a3c565b61549360c0830184613a3c565b98975050505050505050565b7f455243313135353a2073657474696e6720617070726f76616c2073746174757360008201527f20666f722073656c660000000000000000000000000000000000000000000000602082015250565b60006154fb602983613b59565b91506155068261549f565b604082019050919050565b6000602082019050818103600083015261552a816154ee565b9050919050565b7f455243313135353a2063616c6c6572206973206e6f74206f776e6572206e6f7260008201527f20617070726f7665640000000000000000000000000000000000000000000000602082015250565b600061558d602983613b59565b915061559882615531565b604082019050919050565b600060208201905081810360008301526155bc81615580565b9050919050565b7f455243313135353a2069647320616e6420616d6f756e7473206c656e6774682060008201527f6d69736d61746368000000000000000000000000000000000000000000000000602082015250565b600061561f602883613b59565b915061562a826155c3565b604082019050919050565b6000602082019050818103600083015261564e81615612565b9050919050565b7f455243313135353a207472616e7366657220746f20746865207a65726f20616460008201527f6472657373000000000000000000000000000000000000000000000000000000602082015250565b60006156b1602583613b59565b91506156bc82615655565b604082019050919050565b600060208201905081810360008301526156e0816156a4565b9050919050565b7f455243313135353a20696e73756666696369656e742062616c616e636520666f60008201527f72207472616e7366657200000000000000000000000000000000000000000000602082015250565b6000615743602a83613b59565b915061574e826156e7565b604082019050919050565b6000602082019050818103600083015261577281615736565b9050919050565b6000604082019050818103600083015261579381856142f5565b905081810360208301526157a781846142f5565b90509392505050565b7f455243313135353a206d696e7420746f20746865207a65726f2061646472657360008201527f7300000000000000000000000000000000000000000000000000000000000000602082015250565b600061580c602183613b59565b9150615817826157b0565b604082019050919050565b6000602082019050818103600083015261583b816157ff565b9050919050565b60006040820190506158576000830185613a3c565b6158646020830184613a3c565b9392505050565b600081519050919050565b600082825260208201905092915050565b60006158928261586b565b61589c8185615876565b93506158ac818560208601613b6a565b6158b581613b9d565b840191505092915050565b600060a0820190506158d56000830188614496565b6158e26020830187614496565b81810360408301526158f481866142f5565b9050818103606083015261590881856142f5565b9050818103608083015261591c8184615887565b90509695505050505050565b60008151905061593781613af5565b92915050565b6000602082840312156159535761595261395e565b5b600061596184828501615928565b91505092915050565b60008160e01c9050919050565b600060033d11156159965760046000803e61599360005161596a565b90505b90565b600060443d10156159a957615a2c565b6159b1613954565b60043d036004823e80513d602482011167ffffffffffffffff821117156159d9575050615a2c565b808201805167ffffffffffffffff8111156159f75750505050615a2c565b80602083010160043d038501811115615a14575050505050615a2c565b615a2382602001850186613d11565b82955050505050505b90565b7f455243313135353a207472616e7366657220746f206e6f6e204552433131353560008201527f526563656976657220696d706c656d656e746572000000000000000000000000602082015250565b6000615a8b603483613b59565b9150615a9682615a2f565b604082019050919050565b60006020820190508181036000830152615aba81615a7e565b9050919050565b7f455243313135353a204552433131353552656365697665722072656a6563746560008201527f6420746f6b656e73000000000000000000000000000000000000000000000000602082015250565b6000615b1d602883613b59565b9150615b2882615ac1565b604082019050919050565b60006020820190508181036000830152615b4c81615b10565b9050919050565b600060a082019050615b686000830188614496565b615b756020830187614496565b615b826040830186613a3c565b615b8f6060830185613a3c565b8181036080830152615ba18184615887565b9050969550505050505056fea26469706673582212209e2fd06ee5b7fecacae91e302ad58d91ecfca5f8ee136346cbc22f145b535e3c64736f6c634300080a0033",
  "immutableReferences": {},
  "source": "// contracts/LoanItem.sol\r\n// SPDX-License-Identifier: MIT\r\npragma solidity ^0.8.0;\r\n\r\nimport \"@openzeppelin/contracts/token/ERC1155/ERC1155.sol\";\r\nimport\"./LitemCalendar.sol\";\r\ncontract LoanItem is ERC1155{\r\n    \r\n    string public name = \"LoanItem\";\r\n    string  public symbol = \"LI\";\r\n    Calendar Calendario;\r\n    \r\n    address[] public stakers;\r\n    mapping(address => uint) public stakingBalance;\r\n    mapping(address => bool) public hasStaked;\r\n    mapping(address => bool) public isStaking;\r\n    \r\n   \r\n     mapping(uint => Image)public images;\r\n     mapping(uint => TokenNFT)public tokenId;\r\n     mapping(uint => address)public CautionId;\r\n     mapping(uint256 => uint256) public ids;\r\n\r\n     mapping(address => bool) public permissions;\r\n\r\n     mapping(uint256 => CoinFT) public CoinId;\r\n     mapping(uint256 => uint256) public Cds;\r\n   \r\n\r\n\r\n    struct Image {\r\n      uint id;\r\n      string hash;\r\n      string description;\r\n      uint tokenId;\r\n      address author;\r\n    }\r\n\r\n    event ImageCreated(\r\n      uint id,\r\n      string hash,\r\n      string description,\r\n      uint tokenId,\r\n      address  author\r\n      );\r\n\r\n     struct TokenNFT {\r\n      uint id;\r\n      Image  phots;\r\n      string description;\r\n      string namet;\r\n      uint256 pricel;\r\n      uint256 caution;\r\n      uint256 Cid;\r\n      \r\n    }\r\n    event TokenNFTCreated(\r\n      uint id,\r\n      Image  phots,\r\n      string description,\r\n      string namet,\r\n      uint256 pricel,\r\n      uint256 caution,\r\n      uint256 Cid\r\n      );\r\n\r\n     struct CoinFT {\r\n      uint id;\r\n      //Image  phots;\r\n      string description;\r\n      string namec;\r\n    }\r\n    event CoinFTCreated(\r\n      uint id,\r\n      //Image  phots,\r\n      string description,\r\n      string namec\r\n      );\r\n\r\n\r\n    uint256 public countAttrezzi;\r\n    uint256 public imageCount;\r\n    address public owner;\r\n   \r\n\r\n  constructor(address _owner,Calendar Cad) public ERC1155(\"\") {  \r\n         owner = _owner;\r\n         permissions[owner]= true;\r\n         Calendario = Cad;\r\n         }\r\n    \r\n\r\n\r\n // function addMoreCoin()public{}\r\n\r\n\r\n  function addNewCoin( uint256 value,string memory Name,string memory description )external {\r\n          require (msg.sender == owner || permissions[msg.sender]== true , \"Solo il proprietario\");\r\n          require(bytes(Name).length>0);\r\n          require(value>0);\r\n          countAttrezzi++;\r\n         _mint(msg.sender, countAttrezzi, value, \"\");\r\n          Cds[countAttrezzi]= countAttrezzi;\r\n          CoinId[countAttrezzi]= CoinFT(countAttrezzi,description,Name);\r\n          emit CoinFTCreated(countAttrezzi,description,Name);\r\n      } \r\n\r\n\r\n\r\n    modifier propriety(){ \r\n\r\n        require (msg.sender == owner || permissions[msg.sender]== true , \"Solo il proprietario\");       \r\n        _;\r\n    }\r\n      function setPermissions(address ute,bool setting) external propriety {\r\n\r\n      \r\n        permissions[ute]= setting;\r\n\r\n      }\r\n    \r\n\r\n      function addNewItem(uint256 price,uint256 caution,string memory _imgHash,string memory _description, string memory namef,uint256 Cid) external propriety {\r\n     \r\n      \r\n        require(caution > 0);\r\n        require(bytes(namef).length > 0);\r\n        require((price) > 0);\r\n        require(bytes(_description).length > 0);\r\n        require(bytes(_imgHash).length > 0);\r\n        require(msg.sender != address(0x0));\r\n        require(bytes(CoinId[Cid].namec).length > 0,\"Coin Not exist\");//controllo che il coin esiste aggiungere che il coin esiste\r\n\r\n        imageCount ++;\r\n        countAttrezzi++;\r\n       \r\n        Calendario.setAvailable(countAttrezzi,\"Available\"); \r\n     \r\n\r\n      \r\n        ids[countAttrezzi]=countAttrezzi;\r\n          \r\n        _mint(msg.sender, ids[countAttrezzi], 1, \"\");\r\n  \r\n  \r\n        images[imageCount] = Image(imageCount,_imgHash,_description,0,owner);\r\n        tokenId[countAttrezzi] = TokenNFT(countAttrezzi,images[imageCount],_description,namef,price,caution,Cid);\r\n        //causa l'evento \r\n        emit ImageCreated(imageCount,_imgHash,_description,0,owner);\r\n        emit TokenNFTCreated(countAttrezzi,images[imageCount],_description,namef,price,caution,Cid);    \r\n    }\r\n   \r\n      function TrasferTest(address _from, address _to, uint256 _id,bool pre,bool acq) external {\r\n\r\n        //aggiungere il metodo che controlla le prenotazioni \r\n\r\n          require(address(_from)!=address(0x0), \"address _from is 0x0\");\r\n          require(address(_to)!=address(0x0), \"address _to is 0x0\");\r\n          require(uint256(_id) > 0, \"token id is 0\");  \r\n          require(keccak256(bytes(Calendario.Available(_id))) != keccak256(bytes(\"Waiting\")),\"token is waiting \");\r\n          \r\n          if(_to == owner  && keccak256(bytes(Calendario.Available(_id))) == keccak256(bytes(\"Busy\"))){\r\n            //riconsegna item\r\n            bool l;\r\n            l =  Calendario.setAvailable(_id,\"Waiting\"); \r\n            require(l == true, \"Non disponibile1\");\r\n            //chiamare update\r\n            safeTransferFrom( _from,_to, _id,1,\"\");\r\n            CautionId[_id]= _from;\r\n            }\r\n            else if(_from == owner/*&& Calendario.CheckAvialable()*/){\r\n              if(pre && !(acq)){//preOrder pago la cauzione in anticipo\r\n\r\n                /*&& Calendario.Pre_Order();*/\r\n              safeTransferFrom( _to,_from,tokenId[_id].Cid,tokenId[_id].caution,\"\");\r\n              CautionId[_id]= _to;\r\n                return;\r\n              }\r\n              if(acq && !(pre)){\r\n                //per fare l'acquire di un oggetto prenotato devo verificare la data inizio\r\n                //e poi pagare l'oggetto \r\n                if(Calendario.AcquirePre(0,_id,msg.sender)){\r\n\r\n\r\n                }\r\n                return;\r\n              }\r\n\r\n              //require(tokenId[_id].pricel+tokenId[_id].caution<= balanceOf(_to,tokenId[_id].Cid),\"bilancio non sufficente\"); \r\n              safeTransferFrom( _to,_from,tokenId[_id].Cid,tokenId[_id].pricel+tokenId[_id].caution,\"\");  \r\n              safeTransferFrom( _from,_to, _id,1,\"\");\r\n             \r\n              bool k;\r\n              k =  Calendario.setAvailable(_id,\"Busy\"); \r\n              require(k == true, \"Non disponibile2\");\r\n              CautionId[_id]= _to;\r\n            }\r\n          return;\r\n      }\r\n  \r\n      \r\n      function GiveToken(address _to,uint256 coin,uint256 value) external propriety {\r\n        safeTransferFrom( msg.sender,_to, coin,100000000000000000000,\"\");\r\n      }\r\n\r\n      function ReleseW(uint256 _id, uint256 caution )  external propriety{\r\n    //si potrebbe gestire il caso in cui la cauzione restituita sia variabile\r\n        require(_id>0,\"\");\r\n        require(_id<=countAttrezzi,\"item not exists\");\r\n        require(ids[_id]>0,\"Token not exists\" );\r\n       \r\n       Calendario.Relese(_id);\r\n\r\n        safeTransferFrom( msg.sender,CautionId[_id], 1, tokenId[_id].caution,\"\");\r\n        CautionId[_id]= address(0x0);\r\n         \r\n         \r\n      }\r\n    \r\n   \r\n    }\r\n\r\n\r\n\r\n\r\n\r\n\r\n\r\n\r\n\r\n",
  "sourcePath": "C:\\Users\\Luca\\Desktop\\tesi\\My-tesi\\src\\contracts\\LoanItem.sol",
  "compiler": {
    "name": "solc",
    "version": "0.8.10+commit.fc410830.Emscripten.clang"
  },
  "schemaVersion": "3.4.1",
  "updatedAt": "2021-11-23T17:02:32.866Z",
  "devdoc": {
    "kind": "dev",
    "methods": {
      "balanceOf(address,uint256)": {
        "details": "See {IERC1155-balanceOf}. Requirements: - `account` cannot be the zero address."
      },
      "balanceOfBatch(address[],uint256[])": {
        "details": "See {IERC1155-balanceOfBatch}. Requirements: - `accounts` and `ids` must have the same length."
      },
      "isApprovedForAll(address,address)": {
        "details": "See {IERC1155-isApprovedForAll}."
      },
      "safeBatchTransferFrom(address,address,uint256[],uint256[],bytes)": {
        "details": "See {IERC1155-safeBatchTransferFrom}."
      },
      "safeTransferFrom(address,address,uint256,uint256,bytes)": {
        "details": "See {IERC1155-safeTransferFrom}."
      },
      "setApprovalForAll(address,bool)": {
        "details": "See {IERC1155-setApprovalForAll}."
      },
      "supportsInterface(bytes4)": {
        "details": "See {IERC165-supportsInterface}."
      },
      "uri(uint256)": {
        "details": "See {IERC1155MetadataURI-uri}. This implementation returns the same URI for *all* token types. It relies on the token type ID substitution mechanism https://eips.ethereum.org/EIPS/eip-1155#metadata[defined in the EIP]. Clients calling this function must replace the `\\{id\\}` substring with the actual token type ID."
      }
    },
    "version": 1
  },
  "userdoc": {
    "kind": "user",
    "methods": {},
    "version": 1
  }
}