{
  "contractName": "LoanItem",
  "abi": [
    {
      "inputs": [
        {
          "internalType": "address",
          "name": "_owner",
          "type": "address"
        },
        {
          "internalType": "contract Calendar",
          "name": "Cad",
          "type": "address"
        },
        {
          "internalType": "contract TokenFactory",
          "name": "tkfactory",
          "type": "address"
        }
      ],
      "stateMutability": "nonpayable",
      "type": "constructor"
    },
    {
      "anonymous": false,
      "inputs": [
        {
          "indexed": false,
          "internalType": "string",
          "name": "operation",
          "type": "string"
        },
        {
          "indexed": false,
          "internalType": "contract ItemTemplate",
          "name": "Item",
          "type": "address"
        },
        {
          "indexed": false,
          "internalType": "address",
          "name": "addr",
          "type": "address"
        },
        {
          "indexed": false,
          "internalType": "address",
          "name": "CoinSy",
          "type": "address"
        },
        {
          "indexed": false,
          "internalType": "uint256",
          "name": "price",
          "type": "uint256"
        },
        {
          "indexed": false,
          "internalType": "uint256",
          "name": "caution",
          "type": "uint256"
        },
        {
          "indexed": false,
          "internalType": "string",
          "name": "place",
          "type": "string"
        },
        {
          "indexed": false,
          "internalType": "address",
          "name": "from",
          "type": "address"
        },
        {
          "indexed": false,
          "internalType": "address",
          "name": "to",
          "type": "address"
        },
        {
          "indexed": false,
          "internalType": "uint256",
          "name": "time",
          "type": "uint256"
        },
        {
          "indexed": false,
          "internalType": "uint256",
          "name": "timeS",
          "type": "uint256"
        },
        {
          "indexed": false,
          "internalType": "uint256",
          "name": "timeE",
          "type": "uint256"
        }
      ],
      "name": "ItemEvent",
      "type": "event"
    },
    {
      "inputs": [
        {
          "internalType": "uint256",
          "name": "",
          "type": "uint256"
        },
        {
          "internalType": "uint256",
          "name": "",
          "type": "uint256"
        }
      ],
      "name": "CautionId",
      "outputs": [
        {
          "internalType": "address",
          "name": "",
          "type": "address"
        }
      ],
      "stateMutability": "view",
      "type": "function"
    },
    {
      "inputs": [
        {
          "internalType": "uint256",
          "name": "",
          "type": "uint256"
        }
      ],
      "name": "Cds",
      "outputs": [
        {
          "internalType": "uint256",
          "name": "",
          "type": "uint256"
        }
      ],
      "stateMutability": "view",
      "type": "function"
    },
    {
      "inputs": [
        {
          "internalType": "address",
          "name": "",
          "type": "address"
        },
        {
          "internalType": "uint256",
          "name": "",
          "type": "uint256"
        }
      ],
      "name": "PreLItem",
      "outputs": [
        {
          "internalType": "address",
          "name": "from",
          "type": "address"
        },
        {
          "internalType": "address",
          "name": "to",
          "type": "address"
        },
        {
          "internalType": "address",
          "name": "item",
          "type": "address"
        },
        {
          "internalType": "uint256",
          "name": "time",
          "type": "uint256"
        },
        {
          "internalType": "uint256",
          "name": "timeS",
          "type": "uint256"
        },
        {
          "internalType": "uint256",
          "name": "timeE",
          "type": "uint256"
        }
      ],
      "stateMutability": "view",
      "type": "function"
    },
    {
      "inputs": [
        {
          "internalType": "address",
          "name": "",
          "type": "address"
        }
      ],
      "name": "StatusItem",
      "outputs": [
        {
          "internalType": "string",
          "name": "",
          "type": "string"
        }
      ],
      "stateMutability": "view",
      "type": "function"
    },
    {
      "inputs": [
        {
          "internalType": "address",
          "name": "",
          "type": "address"
        },
        {
          "internalType": "uint256",
          "name": "",
          "type": "uint256"
        }
      ],
      "name": "UserLoaningItem",
      "outputs": [
        {
          "internalType": "contract ItemTemplate",
          "name": "Item",
          "type": "address"
        },
        {
          "internalType": "address",
          "name": "addr",
          "type": "address"
        },
        {
          "internalType": "address",
          "name": "CoinSy",
          "type": "address"
        },
        {
          "internalType": "uint256",
          "name": "price",
          "type": "uint256"
        },
        {
          "internalType": "uint256",
          "name": "caution",
          "type": "uint256"
        },
        {
          "internalType": "string",
          "name": "place",
          "type": "string"
        },
        {
          "internalType": "string",
          "name": "operation",
          "type": "string"
        }
      ],
      "stateMutability": "view",
      "type": "function"
    },
    {
      "inputs": [],
      "name": "owner",
      "outputs": [
        {
          "internalType": "address",
          "name": "",
          "type": "address"
        }
      ],
      "stateMutability": "view",
      "type": "function"
    },
    {
      "inputs": [
        {
          "internalType": "address",
          "name": "",
          "type": "address"
        }
      ],
      "name": "permissions",
      "outputs": [
        {
          "internalType": "bool",
          "name": "",
          "type": "bool"
        }
      ],
      "stateMutability": "view",
      "type": "function"
    },
    {
      "inputs": [
        {
          "internalType": "address",
          "name": "itemaddr",
          "type": "address"
        },
        {
          "internalType": "string",
          "name": "CoinSimb",
          "type": "string"
        },
        {
          "internalType": "uint256",
          "name": "Price",
          "type": "uint256"
        },
        {
          "internalType": "uint256",
          "name": "caution",
          "type": "uint256"
        },
        {
          "internalType": "string",
          "name": "PLace",
          "type": "string"
        },
        {
          "internalType": "string",
          "name": "operation",
          "type": "string"
        }
      ],
      "name": "AddToLoanOrSellItem",
      "outputs": [],
      "stateMutability": "nonpayable",
      "type": "function"
    },
    {
      "inputs": [
        {
          "internalType": "address",
          "name": "_from",
          "type": "address"
        },
        {
          "internalType": "address",
          "name": "_to",
          "type": "address"
        },
        {
          "internalType": "address",
          "name": "_item",
          "type": "address"
        },
        {
          "internalType": "string",
          "name": "operation",
          "type": "string"
        },
        {
          "internalType": "uint256",
          "name": "dateS",
          "type": "uint256"
        },
        {
          "internalType": "uint256",
          "name": "dateF",
          "type": "uint256"
        }
      ],
      "name": "TrasferTest",
      "outputs": [],
      "stateMutability": "nonpayable",
      "type": "function"
    },
    {
      "inputs": [
        {
          "internalType": "address",
          "name": "_id",
          "type": "address"
        },
        {
          "internalType": "address",
          "name": "_usr",
          "type": "address"
        },
        {
          "internalType": "uint256",
          "name": "_caution",
          "type": "uint256"
        }
      ],
      "name": "ReleseW",
      "outputs": [],
      "stateMutability": "nonpayable",
      "type": "function"
    }
  ],
  "bytecode": "0x60806040523480156200001157600080fd5b506040516200532f3803806200532f833981810160405281019062000037919062000270565b82600960006101000a81548173ffffffffffffffffffffffffffffffffffffffff021916908373ffffffffffffffffffffffffffffffffffffffff160217905550600160026000600960009054906101000a900473ffffffffffffffffffffffffffffffffffffffff1673ffffffffffffffffffffffffffffffffffffffff1673ffffffffffffffffffffffffffffffffffffffff16815260200190815260200160002060006101000a81548160ff021916908315150217905550816000806101000a81548173ffffffffffffffffffffffffffffffffffffffff021916908373ffffffffffffffffffffffffffffffffffffffff16021790555080600160006101000a81548173ffffffffffffffffffffffffffffffffffffffff021916908373ffffffffffffffffffffffffffffffffffffffff160217905550505050620002cc565b600080fd5b600073ffffffffffffffffffffffffffffffffffffffff82169050919050565b6000620001ae8262000181565b9050919050565b620001c081620001a1565b8114620001cc57600080fd5b50565b600081519050620001e081620001b5565b92915050565b6000620001f382620001a1565b9050919050565b6200020581620001e6565b81146200021157600080fd5b50565b6000815190506200022581620001fa565b92915050565b60006200023882620001a1565b9050919050565b6200024a816200022b565b81146200025657600080fd5b50565b6000815190506200026a816200023f565b92915050565b6000806000606084860312156200028c576200028b6200017c565b5b60006200029c86828701620001cf565b9350506020620002af8682870162000214565b9250506040620002c28682870162000259565b9150509250925092565b61505380620002dc6000396000f3fe608060405234801561001057600080fd5b506004361061009e5760003560e01c80638da5cb5b116100665780638da5cb5b1461017157806397c0a55a1461018f578063a1af645f146101c4578063cd6b493c146101f4578063f9c93e47146102105761009e565b806301e88208146100a35780631010b07b146100d35780631f240a1b146100ef578063267acb061461011f5780637fa9167714610155575b600080fd5b6100bd60048036038101906100b89190613fec565b610240565b6040516100ca9190614034565b60405180910390f35b6100ed60048036038101906100e891906141cb565b610260565b005b61010960048036038101906101049190613fec565b61103f565b6040516101169190614334565b60405180910390f35b61013960048036038101906101349190614356565b6110df565b60405161014c9796959493929190614413565b60405180910390f35b61016f600480360381019061016a9190614490565b6112ae565b005b610179611ce1565b60405161018691906144e3565b60405180910390f35b6101a960048036038101906101a49190614356565b611d07565b6040516101bb969594939291906144fe565b60405180910390f35b6101de60048036038101906101d9919061455f565b611dc0565b6040516101eb919061458c565b60405180910390f35b61020e600480360381019061020991906145a7565b611dd8565b005b61022a60048036038101906102259190614650565b613b26565b60405161023791906144e3565b60405180910390f35b60026020528060005260406000206000915054906101000a900460ff1681565b6040518060200160405280600081525080519060200120600560008873ffffffffffffffffffffffffffffffffffffffff1673ffffffffffffffffffffffffffffffffffffffff1681526020019081526020016000206040516102c39190614790565b60405180910390201461030b576040517f08c379a0000000000000000000000000000000000000000000000000000000008152600401610302906147f3565b60405180910390fd5b600061031686613b74565b9050600073ffffffffffffffffffffffffffffffffffffffff168173ffffffffffffffffffffffffffffffffffffffff1614611035576040518060400160405280600881526020017f4c6f616e4974656d0000000000000000000000000000000000000000000000008152508051906020012082805190602001201480156103cb5750600073ffffffffffffffffffffffffffffffffffffffff168773ffffffffffffffffffffffffffffffffffffffff1614155b15610a9857600087905060008173ffffffffffffffffffffffffffffffffffffffff1663d28d88526040518163ffffffff1660e01b8152600401600060405180830381865afa158015610422573d6000803e3d6000fd5b505050506040513d6000823e3d601f19601f8201168201806040525081019061044b9190614883565b511161048c576040517f08c379a000000000000000000000000000000000000000000000000000000000815260040161048390614918565b60405180910390fd5b3373ffffffffffffffffffffffffffffffffffffffff168173ffffffffffffffffffffffffffffffffffffffff16636352211e8373ffffffffffffffffffffffffffffffffffffffff1663051802376040518163ffffffff1660e01b8152600401602060405180830381865afa15801561050a573d6000803e3d6000fd5b505050506040513d601f19601f8201168201806040525081019061052e919061494d565b6040518263ffffffff1660e01b815260040161054a919061458c565b602060405180830381865afa158015610567573d6000803e3d6000fd5b505050506040513d601f19601f8201168201806040525081019061058b919061498f565b73ffffffffffffffffffffffffffffffffffffffff16146105e1576040517f08c379a00000000000000000000000000000000000000000000000000000000081526004016105d890614a08565b60405180910390fd5b60006040518060e001604052808373ffffffffffffffffffffffffffffffffffffffff1681526020018a73ffffffffffffffffffffffffffffffffffffffff1681526020018473ffffffffffffffffffffffffffffffffffffffff1681526020018881526020018781526020018681526020016040518060400160405280600b81526020017f4c6f616e696e674974656d0000000000000000000000000000000000000000008152508152509050600660003373ffffffffffffffffffffffffffffffffffffffff1673ffffffffffffffffffffffffffffffffffffffff16815260200190815260200160002081908060018154018082558091505060019003906000526020600020906007020160009091909190915060008201518160000160006101000a81548173ffffffffffffffffffffffffffffffffffffffff021916908373ffffffffffffffffffffffffffffffffffffffff16021790555060208201518160010160006101000a81548173ffffffffffffffffffffffffffffffffffffffff021916908373ffffffffffffffffffffffffffffffffffffffff16021790555060408201518160020160006101000a81548173ffffffffffffffffffffffffffffffffffffffff021916908373ffffffffffffffffffffffffffffffffffffffff160217905550606082015181600301556080820151816004015560a08201518160050190805190602001906107fd929190613e97565b5060c082015181600601908051906020019061081a929190613e97565b5050506040518060400160405280600b81526020017f4c6f616e696e674974656d000000000000000000000000000000000000000000815250600560008b73ffffffffffffffffffffffffffffffffffffffff1673ffffffffffffffffffffffffffffffffffffffff16815260200190815260200160002090805190602001906108a5929190613e97565b5060008054906101000a900473ffffffffffffffffffffffffffffffffffffffff1673ffffffffffffffffffffffffffffffffffffffff16639ff3b46d8373ffffffffffffffffffffffffffffffffffffffff1663051802376040518163ffffffff1660e01b8152600401602060405180830381865afa15801561092d573d6000803e3d6000fd5b505050506040513d601f19601f82011682018060405250810190610951919061494d565b6040518263ffffffff1660e01b815260040161096d9190614a74565b6020604051808303816000875af115801561098c573d6000803e3d6000fd5b505050506040513d601f19601f820116820180604052508101906109b09190614ace565b507ff72a78ea42b79103d2b5adca1d0d50e3a314f0c76f9b052d7be19989455e050e84838b868b8b8b60008060008054906101000a900473ffffffffffffffffffffffffffffffffffffffff1673ffffffffffffffffffffffffffffffffffffffff1663f8e157ea6040518163ffffffff1660e01b81526004016020604051808303816000875af1158015610a49573d6000803e3d6000fd5b505050506040513d601f19601f82011682018060405250810190610a6d919061494d565b600080604051610a889c9b9a99989796959493929190614b36565b60405180910390a1505050611037565b6040518060400160405280600681526020017f53656c6c49740000000000000000000000000000000000000000000000000000815250805190602001208280519060200120141561103457600087905060008173ffffffffffffffffffffffffffffffffffffffff1663d28d88526040518163ffffffff1660e01b8152600401600060405180830381865afa158015610b35573d6000803e3d6000fd5b505050506040513d6000823e3d601f19601f82011682018060405250810190610b5e9190614883565b5111610b6957600080fd5b3373ffffffffffffffffffffffffffffffffffffffff168173ffffffffffffffffffffffffffffffffffffffff16636352211e8373ffffffffffffffffffffffffffffffffffffffff1663051802376040518163ffffffff1660e01b8152600401602060405180830381865afa158015610be7573d6000803e3d6000fd5b505050506040513d601f19601f82011682018060405250810190610c0b919061494d565b6040518263ffffffff1660e01b8152600401610c27919061458c565b602060405180830381865afa158015610c44573d6000803e3d6000fd5b505050506040513d601f19601f82011682018060405250810190610c68919061498f565b73ffffffffffffffffffffffffffffffffffffffff1614610c8857600080fd5b60006040518060e001604052808373ffffffffffffffffffffffffffffffffffffffff1681526020018a73ffffffffffffffffffffffffffffffffffffffff1681526020018473ffffffffffffffffffffffffffffffffffffffff1681526020018881526020018781526020018681526020016040518060400160405280600b81526020017f53656c6c696e674974656d0000000000000000000000000000000000000000008152508152509050600660003373ffffffffffffffffffffffffffffffffffffffff1673ffffffffffffffffffffffffffffffffffffffff16815260200190815260200160002081908060018154018082558091505060019003906000526020600020906007020160009091909190915060008201518160000160006101000a81548173ffffffffffffffffffffffffffffffffffffffff021916908373ffffffffffffffffffffffffffffffffffffffff16021790555060208201518160010160006101000a81548173ffffffffffffffffffffffffffffffffffffffff021916908373ffffffffffffffffffffffffffffffffffffffff16021790555060408201518160020160006101000a81548173ffffffffffffffffffffffffffffffffffffffff021916908373ffffffffffffffffffffffffffffffffffffffff160217905550606082015181600301556080820151816004015560a0820151816005019080519060200190610ea4929190613e97565b5060c0820151816006019080519060200190610ec1929190613e97565b5050506040518060400160405280600781526020017f53656c6c696e6700000000000000000000000000000000000000000000000000815250600560008b73ffffffffffffffffffffffffffffffffffffffff1673ffffffffffffffffffffffffffffffffffffffff1681526020019081526020016000209080519060200190610f4c929190613e97565b507ff72a78ea42b79103d2b5adca1d0d50e3a314f0c76f9b052d7be19989455e050e84838b868b8b8b60008060008054906101000a900473ffffffffffffffffffffffffffffffffffffffff1673ffffffffffffffffffffffffffffffffffffffff1663f8e157ea6040518163ffffffff1660e01b81526004016020604051808303816000875af1158015610fe5573d6000803e3d6000fd5b505050506040513d601f19601f82011682018060405250810190611009919061494d565b6000806040516110249c9b9a99989796959493929190614b36565b60405180910390a1505050611037565b5b505b505050505050565b6005602052806000526040600020600091509050805461105e906146bf565b80601f016020809104026020016040519081016040528092919081815260200182805461108a906146bf565b80156110d75780601f106110ac576101008083540402835291602001916110d7565b820191906000526020600020905b8154815290600101906020018083116110ba57829003601f168201915b505050505081565b600660205281600052604060002081815481106110fb57600080fd5b9060005260206000209060070201600091509150508060000160009054906101000a900473ffffffffffffffffffffffffffffffffffffffff16908060010160009054906101000a900473ffffffffffffffffffffffffffffffffffffffff16908060020160009054906101000a900473ffffffffffffffffffffffffffffffffffffffff169080600301549080600401549080600501805461119d906146bf565b80601f01602080910402602001604051908101604052809291908181526020018280546111c9906146bf565b80156112165780601f106111eb57610100808354040283529160200191611216565b820191906000526020600020905b8154815290600101906020018083116111f957829003601f168201915b50505050509080600601805461122b906146bf565b80601f0160208091040260200160405190810160405280929190818152602001828054611257906146bf565b80156112a45780601f10611279576101008083540402835291602001916112a4565b820191906000526020600020905b81548152906001019060200180831161128757829003601f168201915b5050505050905087565b600083905060008173ffffffffffffffffffffffffffffffffffffffff1663d28d88526040518163ffffffff1660e01b8152600401600060405180830381865afa158015611300573d6000803e3d6000fd5b505050506040513d6000823e3d601f19601f820116820180604052508101906113299190614883565b511161136a576040517f08c379a000000000000000000000000000000000000000000000000000000000815260040161136190614c4a565b60405180910390fd5b3373ffffffffffffffffffffffffffffffffffffffff168173ffffffffffffffffffffffffffffffffffffffff16636352211e8373ffffffffffffffffffffffffffffffffffffffff1663051802376040518163ffffffff1660e01b8152600401602060405180830381865afa1580156113e8573d6000803e3d6000fd5b505050506040513d601f19601f8201168201806040525081019061140c919061494d565b6040518263ffffffff1660e01b8152600401611428919061458c565b602060405180830381865afa158015611445573d6000803e3d6000fd5b505050506040513d601f19601f82011682018060405250810190611469919061498f565b73ffffffffffffffffffffffffffffffffffffffff16146114bf576040517f08c379a00000000000000000000000000000000000000000000000000000000081526004016114b690614cb6565b60405180910390fd5b60005b600860008373ffffffffffffffffffffffffffffffffffffffff1663051802376040518163ffffffff1660e01b8152600401602060405180830381865afa158015611511573d6000803e3d6000fd5b505050506040513d601f19601f82011682018060405250810190611535919061494d565b815260200190815260200160002080549050811015611cda578373ffffffffffffffffffffffffffffffffffffffff16600860008473ffffffffffffffffffffffffffffffffffffffff1663051802376040518163ffffffff1660e01b8152600401602060405180830381865afa1580156115b4573d6000803e3d6000fd5b505050506040513d601f19601f820116820180604052508101906115d8919061494d565b815260200190815260200160002082815481106115f8576115f7614cd6565b5b9060005260206000200160009054906101000a900473ffffffffffffffffffffffffffffffffffffffff1673ffffffffffffffffffffffffffffffffffffffff1614801561167257503373ffffffffffffffffffffffffffffffffffffffff168473ffffffffffffffffffffffffffffffffffffffff1614155b15611cc75760008054906101000a900473ffffffffffffffffffffffffffffffffffffffff1673ffffffffffffffffffffffffffffffffffffffff16634abc93258373ffffffffffffffffffffffffffffffffffffffff1663051802376040518163ffffffff1660e01b8152600401602060405180830381865afa1580156116fe573d6000803e3d6000fd5b505050506040513d601f19601f82011682018060405250810190611722919061494d565b6040518263ffffffff1660e01b815260040161173e919061458c565b600060405180830381600087803b15801561175857600080fd5b505af115801561176c573d6000803e3d6000fd5b505050506000600860008473ffffffffffffffffffffffffffffffffffffffff1663051802376040518163ffffffff1660e01b8152600401602060405180830381865afa1580156117c1573d6000803e3d6000fd5b505050506040513d601f19601f820116820180604052508101906117e5919061494d565b8152602001908152602001600020828154811061180557611804614cd6565b5b9060005260206000200160009054906101000a900473ffffffffffffffffffffffffffffffffffffffff169050600860008473ffffffffffffffffffffffffffffffffffffffff1663051802376040518163ffffffff1660e01b8152600401602060405180830381865afa158015611881573d6000803e3d6000fd5b505050506040513d601f19601f820116820180604052508101906118a5919061494d565b815260200190815260200160002082815481106118c5576118c4614cd6565b5b9060005260206000200160006101000a81549073ffffffffffffffffffffffffffffffffffffffff0219169055600560008773ffffffffffffffffffffffffffffffffffffffff1673ffffffffffffffffffffffffffffffffffffffff168152602001908152602001600020600061193d9190613f1d565b600061194b87336000613c3a565b90506000851115611a5e57600660003373ffffffffffffffffffffffffffffffffffffffff1673ffffffffffffffffffffffffffffffffffffffff16815260200190815260200160002081815481106119a7576119a6614cd6565b5b906000526020600020906007020160020160009054906101000a900473ffffffffffffffffffffffffffffffffffffffff1673ffffffffffffffffffffffffffffffffffffffff1663dbba0f013387896040518463ffffffff1660e01b8152600401611a1593929190614d05565b6020604051808303816000875af1158015611a34573d6000803e3d6000fd5b505050506040513d601f19601f82011682018060405250810190611a589190614ace565b50611bc4565b600660003373ffffffffffffffffffffffffffffffffffffffff1673ffffffffffffffffffffffffffffffffffffffff1681526020019081526020016000208181548110611aaf57611aae614cd6565b5b906000526020600020906007020160020160009054906101000a900473ffffffffffffffffffffffffffffffffffffffff1673ffffffffffffffffffffffffffffffffffffffff1663dbba0f0133600660003373ffffffffffffffffffffffffffffffffffffffff1673ffffffffffffffffffffffffffffffffffffffff1681526020019081526020016000208481548110611b4e57611b4d614cd6565b5b906000526020600020906007020160040154896040518463ffffffff1660e01b8152600401611b7f93929190614d05565b6020604051808303816000875af1158015611b9e573d6000803e3d6000fd5b505050506040513d601f19601f82011682018060405250810190611bc29190614ace565b505b6000611bd288886001613c3a565b9050600760008873ffffffffffffffffffffffffffffffffffffffff1673ffffffffffffffffffffffffffffffffffffffff1681526020019081526020016000208181548110611c2557611c24614cd6565b5b9060005260206000209060060201600080820160006101000a81549073ffffffffffffffffffffffffffffffffffffffff02191690556001820160006101000a81549073ffffffffffffffffffffffffffffffffffffffff02191690556002820160006101000a81549073ffffffffffffffffffffffffffffffffffffffff021916905560038201600090556004820160009055600582016000905550505050505b8080611cd290614d6b565b9150506114c2565b5050505050565b600960009054906101000a900473ffffffffffffffffffffffffffffffffffffffff1681565b60076020528160005260406000208181548110611d2357600080fd5b9060005260206000209060060201600091509150508060000160009054906101000a900473ffffffffffffffffffffffffffffffffffffffff16908060010160009054906101000a900473ffffffffffffffffffffffffffffffffffffffff16908060020160009054906101000a900473ffffffffffffffffffffffffffffffffffffffff16908060030154908060040154908060050154905086565b60036020528060005260406000206000915090505481565b600084905060008173ffffffffffffffffffffffffffffffffffffffff1663d28d88526040518163ffffffff1660e01b8152600401600060405180830381865afa158015611e2a573d6000803e3d6000fd5b505050506040513d6000823e3d601f19601f82011682018060405250810190611e539190614883565b5111611e5e57600080fd5b6040518060400160405280600781526020017f57616974696e67000000000000000000000000000000000000000000000000008152508051906020012060008054906101000a900473ffffffffffffffffffffffffffffffffffffffff1673ffffffffffffffffffffffffffffffffffffffff166335b677318373ffffffffffffffffffffffffffffffffffffffff1663051802376040518163ffffffff1660e01b8152600401602060405180830381865afa158015611f22573d6000803e3d6000fd5b505050506040513d601f19601f82011682018060405250810190611f46919061494d565b6040518263ffffffff1660e01b8152600401611f62919061458c565b600060405180830381865afa158015611f7f573d6000803e3d6000fd5b505050506040513d6000823e3d601f19601f82011682018060405250810190611fa89190614883565b805190602001201415611ff0576040517f08c379a0000000000000000000000000000000000000000000000000000000008152600401611fe790614e00565b60405180910390fd5b6000611ffe86896000613c3a565b90506040518060400160405280600481526020017f53656c6c000000000000000000000000000000000000000000000000000000008152508051906020012085805190602001201480156120e057506040518060400160405280600781526020017f53656c6c696e670000000000000000000000000000000000000000000000000081525080519060200120600560008873ffffffffffffffffffffffffffffffffffffffff1673ffffffffffffffffffffffffffffffffffffffff1681526020019081526020016000206040516120d69190614790565b6040518091039020145b1561265957600086905060008173ffffffffffffffffffffffffffffffffffffffff16636352211e8373ffffffffffffffffffffffffffffffffffffffff1663051802376040518163ffffffff1660e01b8152600401602060405180830381865afa158015612153573d6000803e3d6000fd5b505050506040513d601f19601f82011682018060405250810190612177919061494d565b6040518263ffffffff1660e01b8152600401612193919061458c565b602060405180830381865afa1580156121b0573d6000803e3d6000fd5b505050506040513d601f19601f820116820180604052508101906121d4919061498f565b9050600660008b73ffffffffffffffffffffffffffffffffffffffff1673ffffffffffffffffffffffffffffffffffffffff168152602001908152602001600020838154811061222757612226614cd6565b5b906000526020600020906007020160020160009054906101000a900473ffffffffffffffffffffffffffffffffffffffff1673ffffffffffffffffffffffffffffffffffffffff1663dbba0f018a600660008e73ffffffffffffffffffffffffffffffffffffffff1673ffffffffffffffffffffffffffffffffffffffff16815260200190815260200160002086815481106122c6576122c5614cd6565b5b906000526020600020906007020160030154600960009054906101000a900473ffffffffffffffffffffffffffffffffffffffff166040518463ffffffff1660e01b815260040161231993929190614d05565b6020604051808303816000875af1158015612338573d6000803e3d6000fd5b505050506040513d601f19601f8201168201806040525081019061235c9190614ace565b15612650578173ffffffffffffffffffffffffffffffffffffffff166321d0af118a6040518263ffffffff1660e01b815260040161239a91906144e3565b6020604051808303816000875af11580156123b9573d6000803e3d6000fd5b505050506040513d601f19601f820116820180604052508101906123dd9190614ace565b508873ffffffffffffffffffffffffffffffffffffffff168273ffffffffffffffffffffffffffffffffffffffff16636352211e8473ffffffffffffffffffffffffffffffffffffffff1663051802376040518163ffffffff1660e01b8152600401602060405180830381865afa15801561245c573d6000803e3d6000fd5b505050506040513d601f19601f82011682018060405250810190612480919061494d565b6040518263ffffffff1660e01b815260040161249c919061458c565b602060405180830381865afa1580156124b9573d6000803e3d6000fd5b505050506040513d601f19601f820116820180604052508101906124dd919061498f565b73ffffffffffffffffffffffffffffffffffffffff16146124fd57600080fd5b600560008973ffffffffffffffffffffffffffffffffffffffff1673ffffffffffffffffffffffffffffffffffffffff16815260200190815260200160002060006125489190613f1d565b600660008b73ffffffffffffffffffffffffffffffffffffffff1673ffffffffffffffffffffffffffffffffffffffff168152602001908152602001600020838154811061259957612598614cd6565b5b9060005260206000209060070201600080820160006101000a81549073ffffffffffffffffffffffffffffffffffffffff02191690556001820160006101000a81549073ffffffffffffffffffffffffffffffffffffffff02191690556002820160006101000a81549073ffffffffffffffffffffffffffffffffffffffff02191690556003820160009055600482016000905560058201600061263d9190613f1d565b60068201600061264d9190613f1d565b50505b50505050613b1e565b60008411801561277b57508173ffffffffffffffffffffffffffffffffffffffff16636352211e8373ffffffffffffffffffffffffffffffffffffffff1663051802376040518163ffffffff1660e01b8152600401602060405180830381865afa1580156126cb573d6000803e3d6000fd5b505050506040513d601f19601f820116820180604052508101906126ef919061494d565b6040518263ffffffff1660e01b815260040161270b919061458c565b602060405180830381865afa158015612728573d6000803e3d6000fd5b505050506040513d601f19601f8201168201806040525081019061274c919061498f565b73ffffffffffffffffffffffffffffffffffffffff168773ffffffffffffffffffffffffffffffffffffffff16145b80156127c957506040518060400160405280600a81526020017f5269636f6e7365676e6100000000000000000000000000000000000000000000815250805190602001208580519060200120145b801561292357506040518060400160405280600481526020017f42757379000000000000000000000000000000000000000000000000000000008152508051906020012060008054906101000a900473ffffffffffffffffffffffffffffffffffffffff1673ffffffffffffffffffffffffffffffffffffffff166335b677318473ffffffffffffffffffffffffffffffffffffffff1663051802376040518163ffffffff1660e01b8152600401602060405180830381865afa158015612894573d6000803e3d6000fd5b505050506040513d601f19601f820116820180604052508101906128b8919061494d565b6040518263ffffffff1660e01b81526004016128d4919061458c565b600060405180830381865afa1580156128f1573d6000803e3d6000fd5b505050506040513d6000823e3d601f19601f8201168201806040525081019061291a9190614883565b80519060200120145b15612a415760008054906101000a900473ffffffffffffffffffffffffffffffffffffffff1673ffffffffffffffffffffffffffffffffffffffff16634bbbff068373ffffffffffffffffffffffffffffffffffffffff1663051802376040518163ffffffff1660e01b8152600401602060405180830381865afa1580156129af573d6000803e3d6000fd5b505050506040513d601f19601f820116820180604052508101906129d3919061494d565b866040518363ffffffff1660e01b81526004016129f1929190614e20565b6020604051808303816000875af1158015612a10573d6000803e3d6000fd5b505050506040513d601f19601f82011682018060405250810190612a349190614ace565b15612a40575050613b1e565b5b6040518060400160405280600c81526020017f5072656e6f74617a696f6e650000000000000000000000000000000000000000815250805190602001208580519060200120148015612a935750600083115b8015612bb157508173ffffffffffffffffffffffffffffffffffffffff16636352211e8373ffffffffffffffffffffffffffffffffffffffff1663051802376040518163ffffffff1660e01b8152600401602060405180830381865afa158015612b01573d6000803e3d6000fd5b505050506040513d601f19601f82011682018060405250810190612b25919061494d565b6040518263ffffffff1660e01b8152600401612b41919061458c565b602060405180830381865afa158015612b5e573d6000803e3d6000fd5b505050506040513d601f19601f82011682018060405250810190612b82919061498f565b73ffffffffffffffffffffffffffffffffffffffff168873ffffffffffffffffffffffffffffffffffffffff16145b1561325d57600660008973ffffffffffffffffffffffffffffffffffffffff1673ffffffffffffffffffffffffffffffffffffffff1681526020019081526020016000208181548110612c0757612c06614cd6565b5b906000526020600020906007020160040154600660008a73ffffffffffffffffffffffffffffffffffffffff1673ffffffffffffffffffffffffffffffffffffffff1681526020019081526020016000208281548110612c6a57612c69614cd6565b5b906000526020600020906007020160020160009054906101000a900473ffffffffffffffffffffffffffffffffffffffff1673ffffffffffffffffffffffffffffffffffffffff166370a08231896040518263ffffffff1660e01b8152600401612cd491906144e3565b602060405180830381865afa158015612cf1573d6000803e3d6000fd5b505050506040513d601f19601f82011682018060405250810190612d15919061494d565b106132565760008054906101000a900473ffffffffffffffffffffffffffffffffffffffff1673ffffffffffffffffffffffffffffffffffffffff16633097c98e85858573ffffffffffffffffffffffffffffffffffffffff1663051802376040518163ffffffff1660e01b8152600401602060405180830381865afa158015612da3573d6000803e3d6000fd5b505050506040513d601f19601f82011682018060405250810190612dc7919061494d565b336040518563ffffffff1660e01b8152600401612de79493929190614e49565b6020604051808303816000875af1158015612e06573d6000803e3d6000fd5b505050506040513d601f19601f82011682018060405250810190612e2a9190614ace565b1561324f57600660008973ffffffffffffffffffffffffffffffffffffffff1673ffffffffffffffffffffffffffffffffffffffff1681526020019081526020016000208181548110612e8057612e7f614cd6565b5b906000526020600020906007020160020160009054906101000a900473ffffffffffffffffffffffffffffffffffffffff1673ffffffffffffffffffffffffffffffffffffffff1663dbba0f0188600660008c73ffffffffffffffffffffffffffffffffffffffff1673ffffffffffffffffffffffffffffffffffffffff1681526020019081526020016000208481548110612f1f57612f1e614cd6565b5b9060005260206000209060070201600401548b6040518463ffffffff1660e01b8152600401612f5093929190614d05565b6020604051808303816000875af1158015612f6f573d6000803e3d6000fd5b505050506040513d601f19601f82011682018060405250810190612f939190614ace565b50600860008373ffffffffffffffffffffffffffffffffffffffff1663051802376040518163ffffffff1660e01b8152600401602060405180830381865afa158015612fe3573d6000803e3d6000fd5b505050506040513d601f19601f82011682018060405250810190613007919061494d565b8152602001908152602001600020879080600181540180825580915050600190039060005260206000200160009091909190916101000a81548173ffffffffffffffffffffffffffffffffffffffff021916908373ffffffffffffffffffffffffffffffffffffffff16021790555060006040518060c001604052808a73ffffffffffffffffffffffffffffffffffffffff1681526020018973ffffffffffffffffffffffffffffffffffffffff1681526020018873ffffffffffffffffffffffffffffffffffffffff168152602001428152602001868152602001858152509050600760008973ffffffffffffffffffffffffffffffffffffffff1673ffffffffffffffffffffffffffffffffffffffff16815260200190815260200160002081908060018154018082558091505060019003906000526020600020906006020160009091909190915060008201518160000160006101000a81548173ffffffffffffffffffffffffffffffffffffffff021916908373ffffffffffffffffffffffffffffffffffffffff16021790555060208201518160010160006101000a81548173ffffffffffffffffffffffffffffffffffffffff021916908373ffffffffffffffffffffffffffffffffffffffff16021790555060408201518160020160006101000a81548173ffffffffffffffffffffffffffffffffffffffff021916908373ffffffffffffffffffffffffffffffffffffffff160217905550606082015181600301556080820151816004015560a082015181600501555050505050613b1e565b5050613b1e565b5050613b1e565b6040518060400160405280600981526020017f52697469726f507265000000000000000000000000000000000000000000000081525080519060200120858051906020012014156137a957600660008973ffffffffffffffffffffffffffffffffffffffff1673ffffffffffffffffffffffffffffffffffffffff16815260200190815260200160002081815481106132f9576132f8614cd6565b5b906000526020600020906007020160030154600660008a73ffffffffffffffffffffffffffffffffffffffff1673ffffffffffffffffffffffffffffffffffffffff168152602001908152602001600020828154811061335c5761335b614cd6565b5b906000526020600020906007020160020160009054906101000a900473ffffffffffffffffffffffffffffffffffffffff1673ffffffffffffffffffffffffffffffffffffffff166370a08231896040518263ffffffff1660e01b81526004016133c691906144e3565b602060405180830381865afa1580156133e3573d6000803e3d6000fd5b505050506040513d601f19601f82011682018060405250810190613407919061494d565b106137a25760008054906101000a900473ffffffffffffffffffffffffffffffffffffffff1673ffffffffffffffffffffffffffffffffffffffff16631b227ed78373ffffffffffffffffffffffffffffffffffffffff1663051802376040518163ffffffff1660e01b8152600401602060405180830381865afa158015613493573d6000803e3d6000fd5b505050506040513d601f19601f820116820180604052508101906134b7919061494d565b336040518363ffffffff1660e01b81526004016134d5929190614e8e565b6020604051808303816000875af11580156134f4573d6000803e3d6000fd5b505050506040513d601f19601f820116820180604052508101906135189190614ace565b801561363657508173ffffffffffffffffffffffffffffffffffffffff16636352211e8373ffffffffffffffffffffffffffffffffffffffff1663051802376040518163ffffffff1660e01b8152600401602060405180830381865afa158015613586573d6000803e3d6000fd5b505050506040513d601f19601f820116820180604052508101906135aa919061494d565b6040518263ffffffff1660e01b81526004016135c6919061458c565b602060405180830381865afa1580156135e3573d6000803e3d6000fd5b505050506040513d601f19601f82011682018060405250810190613607919061498f565b73ffffffffffffffffffffffffffffffffffffffff168873ffffffffffffffffffffffffffffffffffffffff16145b156137a157600660008973ffffffffffffffffffffffffffffffffffffffff1673ffffffffffffffffffffffffffffffffffffffff168152602001908152602001600020818154811061368c5761368b614cd6565b5b906000526020600020906007020160020160009054906101000a900473ffffffffffffffffffffffffffffffffffffffff1673ffffffffffffffffffffffffffffffffffffffff1663dbba0f0188600660008c73ffffffffffffffffffffffffffffffffffffffff1673ffffffffffffffffffffffffffffffffffffffff168152602001908152602001600020848154811061372b5761372a614cd6565b5b9060005260206000209060070201600301548b6040518463ffffffff1660e01b815260040161375c93929190614d05565b6020604051808303816000875af115801561377b573d6000803e3d6000fd5b505050506040513d601f19601f8201168201806040525081019061379f9190614ace565b505b5b5050613b1e565b6000831180156137fb57506040518060400160405280600581526020017f4f6e466c79000000000000000000000000000000000000000000000000000000815250805190602001208580519060200120145b801561391957508173ffffffffffffffffffffffffffffffffffffffff16636352211e8373ffffffffffffffffffffffffffffffffffffffff1663051802376040518163ffffffff1660e01b8152600401602060405180830381865afa158015613869573d6000803e3d6000fd5b505050506040513d601f19601f8201168201806040525081019061388d919061494d565b6040518263ffffffff1660e01b81526004016138a9919061458c565b602060405180830381865afa1580156138c6573d6000803e3d6000fd5b505050506040513d601f19601f820116820180604052508101906138ea919061498f565b73ffffffffffffffffffffffffffffffffffffffff168873ffffffffffffffffffffffffffffffffffffffff16145b15613b1b5760008054906101000a900473ffffffffffffffffffffffffffffffffffffffff1673ffffffffffffffffffffffffffffffffffffffff1663d9d92d1e8373ffffffffffffffffffffffffffffffffffffffff1663051802376040518163ffffffff1660e01b8152600401602060405180830381865afa1580156139a5573d6000803e3d6000fd5b505050506040513d601f19601f820116820180604052508101906139c9919061494d565b33866040518463ffffffff1660e01b81526004016139e993929190614eb7565b6020604051808303816000875af1158015613a08573d6000803e3d6000fd5b505050506040513d601f19601f82011682018060405250810190613a2c9190614ace565b15613b1a57600860008373ffffffffffffffffffffffffffffffffffffffff1663051802376040518163ffffffff1660e01b8152600401602060405180830381865afa158015613a80573d6000803e3d6000fd5b505050506040513d601f19601f82011682018060405250810190613aa4919061494d565b8152602001908152602001600020879080600181540180825580915050600190039060005260206000200160009091909190916101000a81548173ffffffffffffffffffffffffffffffffffffffff021916908373ffffffffffffffffffffffffffffffffffffffff1602179055505050613b1e565b5b50505b505050505050565b60086020528160005260406000208181548110613b4257600080fd5b906000526020600020016000915091509054906101000a900473ffffffffffffffffffffffffffffffffffffffff1681565b600080600160009054906101000a900473ffffffffffffffffffffffffffffffffffffffff1673ffffffffffffffffffffffffffffffffffffffff1663c1733f68846040518263ffffffff1660e01b8152600401613bd29190614334565b600060405180830381865afa158015613bef573d6000803e3d6000fd5b505050506040513d6000823e3d601f19601f82011682018060405250810190613c189190614f27565b9091929394509091929350909192509091509050508091505080915050919050565b60008115613d6b5760005b600760008573ffffffffffffffffffffffffffffffffffffffff1673ffffffffffffffffffffffffffffffffffffffff16815260200190815260200160002080549050811015613d61578473ffffffffffffffffffffffffffffffffffffffff16600760008673ffffffffffffffffffffffffffffffffffffffff1673ffffffffffffffffffffffffffffffffffffffff1681526020019081526020016000208281548110613cf757613cf6614cd6565b5b906000526020600020906006020160020160009054906101000a900473ffffffffffffffffffffffffffffffffffffffff1673ffffffffffffffffffffffffffffffffffffffff161415613d4e5780915050613e90565b8080613d5990614d6b565b915050613c45565b5060009050613e90565b60005b600660008573ffffffffffffffffffffffffffffffffffffffff1673ffffffffffffffffffffffffffffffffffffffff16815260200190815260200160002080549050811015613e8a578473ffffffffffffffffffffffffffffffffffffffff16600660008673ffffffffffffffffffffffffffffffffffffffff1673ffffffffffffffffffffffffffffffffffffffff1681526020019081526020016000208281548110613e2057613e1f614cd6565b5b906000526020600020906007020160010160009054906101000a900473ffffffffffffffffffffffffffffffffffffffff1673ffffffffffffffffffffffffffffffffffffffff161415613e775780915050613e90565b8080613e8290614d6b565b915050613d6e565b50600090505b9392505050565b828054613ea3906146bf565b90600052602060002090601f016020900481019282613ec55760008555613f0c565b82601f10613ede57805160ff1916838001178555613f0c565b82800160010185558215613f0c579182015b82811115613f0b578251825591602001919060010190613ef0565b5b509050613f199190613f5d565b5090565b508054613f29906146bf565b6000825580601f10613f3b5750613f5a565b601f016020900490600052602060002090810190613f599190613f5d565b5b50565b5b80821115613f76576000816000905550600101613f5e565b5090565b6000604051905090565b600080fd5b600080fd5b600073ffffffffffffffffffffffffffffffffffffffff82169050919050565b6000613fb982613f8e565b9050919050565b613fc981613fae565b8114613fd457600080fd5b50565b600081359050613fe681613fc0565b92915050565b60006020828403121561400257614001613f84565b5b600061401084828501613fd7565b91505092915050565b60008115159050919050565b61402e81614019565b82525050565b60006020820190506140496000830184614025565b92915050565b600080fd5b600080fd5b6000601f19601f8301169050919050565b7f4e487b7100000000000000000000000000000000000000000000000000000000600052604160045260246000fd5b6140a282614059565b810181811067ffffffffffffffff821117156140c1576140c061406a565b5b80604052505050565b60006140d4613f7a565b90506140e08282614099565b919050565b600067ffffffffffffffff821115614100576140ff61406a565b5b61410982614059565b9050602081019050919050565b82818337600083830152505050565b6000614138614133846140e5565b6140ca565b90508281526020810184848401111561415457614153614054565b5b61415f848285614116565b509392505050565b600082601f83011261417c5761417b61404f565b5b813561418c848260208601614125565b91505092915050565b6000819050919050565b6141a881614195565b81146141b357600080fd5b50565b6000813590506141c58161419f565b92915050565b60008060008060008060c087890312156141e8576141e7613f84565b5b60006141f689828a01613fd7565b965050602087013567ffffffffffffffff81111561421757614216613f89565b5b61422389828a01614167565b955050604061423489828a016141b6565b945050606061424589828a016141b6565b935050608087013567ffffffffffffffff81111561426657614265613f89565b5b61427289828a01614167565b92505060a087013567ffffffffffffffff81111561429357614292613f89565b5b61429f89828a01614167565b9150509295509295509295565b600081519050919050565b600082825260208201905092915050565b60005b838110156142e65780820151818401526020810190506142cb565b838111156142f5576000848401525b50505050565b6000614306826142ac565b61431081856142b7565b93506143208185602086016142c8565b61432981614059565b840191505092915050565b6000602082019050818103600083015261434e81846142fb565b905092915050565b6000806040838503121561436d5761436c613f84565b5b600061437b85828601613fd7565b925050602061438c858286016141b6565b9150509250929050565b6000819050919050565b60006143bb6143b66143b184613f8e565b614396565b613f8e565b9050919050565b60006143cd826143a0565b9050919050565b60006143df826143c2565b9050919050565b6143ef816143d4565b82525050565b6143fe81613fae565b82525050565b61440d81614195565b82525050565b600060e082019050614428600083018a6143e6565b61443560208301896143f5565b61444260408301886143f5565b61444f6060830187614404565b61445c6080830186614404565b81810360a083015261446e81856142fb565b905081810360c083015261448281846142fb565b905098975050505050505050565b6000806000606084860312156144a9576144a8613f84565b5b60006144b786828701613fd7565b93505060206144c886828701613fd7565b92505060406144d9868287016141b6565b9150509250925092565b60006020820190506144f860008301846143f5565b92915050565b600060c08201905061451360008301896143f5565b61452060208301886143f5565b61452d60408301876143f5565b61453a6060830186614404565b6145476080830185614404565b61455460a0830184614404565b979650505050505050565b60006020828403121561457557614574613f84565b5b6000614583848285016141b6565b91505092915050565b60006020820190506145a16000830184614404565b92915050565b60008060008060008060c087890312156145c4576145c3613f84565b5b60006145d289828a01613fd7565b96505060206145e389828a01613fd7565b95505060406145f489828a01613fd7565b945050606087013567ffffffffffffffff81111561461557614614613f89565b5b61462189828a01614167565b935050608061463289828a016141b6565b92505060a061464389828a016141b6565b9150509295509295509295565b6000806040838503121561466757614666613f84565b5b6000614675858286016141b6565b9250506020614686858286016141b6565b9150509250929050565b7f4e487b7100000000000000000000000000000000000000000000000000000000600052602260045260246000fd5b600060028204905060018216806146d757607f821691505b602082108114156146eb576146ea614690565b5b50919050565b600081905092915050565b60008190508160005260206000209050919050565b6000815461471e816146bf565b61472881866146f1565b94506001821660008114614743576001811461475457614787565b60ff19831686528186019350614787565b61475d856146fc565b60005b8381101561477f57815481890152600182019150602081019050614760565b838801955050505b50505092915050565b600061479c8284614711565b915081905092915050565b7f4c276f67676574746f2065206f6363757061746f2070657220616c74726f2000600082015250565b60006147dd601f836142b7565b91506147e8826147a7565b602082019050919050565b6000602082019050818103600083015261480c816147d0565b9050919050565b6000614826614821846140e5565b6140ca565b90508281526020810184848401111561484257614841614054565b5b61484d8482856142c8565b509392505050565b600082601f83011261486a5761486961404f565b5b815161487a848260208601614813565b91505092915050565b60006020828403121561489957614898613f84565b5b600082015167ffffffffffffffff8111156148b7576148b6613f89565b5b6148c384828501614855565b91505092915050565b7f3100000000000000000000000000000000000000000000000000000000000000600082015250565b60006149026001836142b7565b915061490d826148cc565b602082019050919050565b60006020820190508181036000830152614931816148f5565b9050919050565b6000815190506149478161419f565b92915050565b60006020828403121561496357614962613f84565b5b600061497184828501614938565b91505092915050565b60008151905061498981613fc0565b92915050565b6000602082840312156149a5576149a4613f84565b5b60006149b38482850161497a565b91505092915050565b7f3200000000000000000000000000000000000000000000000000000000000000600082015250565b60006149f26001836142b7565b91506149fd826149bc565b602082019050919050565b60006020820190508181036000830152614a21816149e5565b9050919050565b7f417661696c61626c650000000000000000000000000000000000000000000000600082015250565b6000614a5e6009836142b7565b9150614a6982614a28565b602082019050919050565b6000604082019050614a896000830184614404565b8181036020830152614a9a81614a51565b905092915050565b614aab81614019565b8114614ab657600080fd5b50565b600081519050614ac881614aa2565b92915050565b600060208284031215614ae457614ae3613f84565b5b6000614af284828501614ab9565b91505092915050565b6000819050919050565b6000614b20614b1b614b1684614afb565b614396565b614195565b9050919050565b614b3081614b05565b82525050565b6000610180820190508181036000830152614b51818f6142fb565b9050614b60602083018e6143e6565b614b6d604083018d6143f5565b614b7a606083018c6143f5565b614b87608083018b614404565b614b9460a083018a614404565b81810360c0830152614ba681896142fb565b9050614bb560e08301886143f5565b614bc36101008301876143f5565b614bd1610120830186614404565b614bdf610140830185614b27565b614bed610160830184614b27565b9d9c50505050505050505050505050565b7f3500000000000000000000000000000000000000000000000000000000000000600082015250565b6000614c346001836142b7565b9150614c3f82614bfe565b602082019050919050565b60006020820190508181036000830152614c6381614c27565b9050919050565b7f3600000000000000000000000000000000000000000000000000000000000000600082015250565b6000614ca06001836142b7565b9150614cab82614c6a565b602082019050919050565b60006020820190508181036000830152614ccf81614c93565b9050919050565b7f4e487b7100000000000000000000000000000000000000000000000000000000600052603260045260246000fd5b6000606082019050614d1a60008301866143f5565b614d276020830185614404565b614d3460408301846143f5565b949350505050565b7f4e487b7100000000000000000000000000000000000000000000000000000000600052601160045260246000fd5b6000614d7682614195565b91507fffffffffffffffffffffffffffffffffffffffffffffffffffffffffffffffff821415614da957614da8614d3c565b5b600182019050919050565b7f746f6b656e2069732077616974696e6720000000000000000000000000000000600082015250565b6000614dea6011836142b7565b9150614df582614db4565b602082019050919050565b60006020820190508181036000830152614e1981614ddd565b9050919050565b6000604082019050614e356000830185614404565b614e426020830184614404565b9392505050565b6000608082019050614e5e6000830187614404565b614e6b6020830186614404565b614e786040830185614404565b614e8560608301846143f5565b95945050505050565b6000604082019050614ea36000830185614404565b614eb060208301846143f5565b9392505050565b6000606082019050614ecc6000830186614404565b614ed960208301856143f5565b614ee66040830184614404565b949350505050565b600060ff82169050919050565b614f0481614eee565b8114614f0f57600080fd5b50565b600081519050614f2181614efb565b92915050565b600080600080600080600060e0888a031215614f4657614f45613f84565b5b6000614f548a828b0161497a565b975050602088015167ffffffffffffffff811115614f7557614f74613f89565b5b614f818a828b01614855565b965050604088015167ffffffffffffffff811115614fa257614fa1613f89565b5b614fae8a828b01614855565b9550506060614fbf8a828b01614f12565b945050608088015167ffffffffffffffff811115614fe057614fdf613f89565b5b614fec8a828b01614855565b93505060a0614ffd8a828b0161497a565b92505060c061500e8a828b01614ab9565b9150509295989194975092955056fea26469706673582212206c6c76ddd8c98104ad0f0b8487f82cb1db790bb9bb7907c9d2471ba2af06906064736f6c634300080c0033",
  "immutableReferences": {},
  "source": "// contracts/LoanItem.sol\n// SPDX-License-Identifier: MIT\npragma solidity ^0.8.0;\n\n\nimport\"./LitemCalendar.sol\";\nimport\"./ItemTemplate.sol\";\nimport\"./TokenFactory.sol\";\nimport\"./TokenTemplate.sol\";\ncontract LoanItem {\n    \n    \n    Calendar Calendario;\n    TokenFactory Tkfactory;  \n  \n     mapping(address => bool) public permissions;\n     mapping(uint256 => uint256) public Cds;\n  \n     uint256 orders;\n     \n     mapping(address=>string) public StatusItem;\n     mapping(address =>LItem[]) public UserLoaningItem;\n     \n     mapping(address=>PreItem[])public PreLItem;\n     mapping(uint256=>address[]) public CautionId;\n\n    address public owner;\n\n  struct LItem{\n    ItemTemplate Item;\n    address addr;\n    address CoinSy;\n    uint256 price;\n    uint256 caution;\n    string place;\n    string operation;\n    }\n    \n  struct PreItem{\n    address from;\n    address to;\n    address item;\n    uint time;\n    uint timeS;\n    uint timeE;\n    }\n\n\n\n    event ItemEvent(\n    string operation,\n    ItemTemplate Item,\n    address addr,\n    address CoinSy,\n    uint256 price,\n    uint256 caution,\n    string place,\n    address from,\n    address to,\n    uint time,\n    uint timeS,\n    uint timeE\n      );\n\n\n\n\n\n  constructor(address _owner,Calendar Cad,TokenFactory tkfactory) public  {  \n         owner = _owner;\n         permissions[owner]= true;\n         Calendario = Cad;\n         Tkfactory = tkfactory;\n         }\n    \n\n function CoinAdd(string memory Symbl)internal returns(address) {\n    address x;\n    (x,,,,,,)= Tkfactory.getToken(Symbl);\n    //require(x!=address(0x0));\n    return x;\n }\n  \n  function find(address itemaddr,address owner,bool cas) internal returns(uint256) {\n    if(cas){\n     for(uint j; j<PreLItem[owner].length;j++){\n        if(PreLItem[owner][j].item== itemaddr){\n          return j;\n    }}\n    return 0;}\n    for(uint i; i<UserLoaningItem[owner].length;i++){\n        if(UserLoaningItem[owner][i].addr== itemaddr){\n          return i;\n        }\n\n    }\n    return 0;\n  }\n\n     function AddToLoanOrSellItem(address itemaddr,string memory CoinSimb,uint Price,uint caution,string memory PLace,\n                                  string memory operation) public {\n      require(keccak256(bytes(StatusItem[itemaddr])) == keccak256(bytes(\"\")),\"L'oggetto e occupato per altro \");\n      address x = CoinAdd(CoinSimb); \n      if(x != address(0x0)){\n        if( keccak256(bytes(operation)) == keccak256(bytes(\"LoanItem\"))&& itemaddr!= address(0x0)   ){\n          ItemTemplate ItemtoLoan = ItemTemplate(itemaddr);\n          require(bytes(ItemtoLoan._name()).length > 0,\"1\" );\n          require(ItemtoLoan.ownerOf(ItemtoLoan._id())==msg.sender,\"2\");\n             LItem memory Temp = LItem(ItemtoLoan,itemaddr,x,Price,caution,PLace,\"LoaningItem\");\n             UserLoaningItem[msg.sender].push(Temp);   \n             // LoaningItem.push(temp)\n             //implementare la cancellazione nella relese\n             StatusItem[itemaddr]=\"LoaningItem\";\n             Calendario.setAvailable(ItemtoLoan._id(),\"Available\");\n             emit ItemEvent(operation,ItemtoLoan,itemaddr,x,Price,caution,PLace,address(0),address(0),Calendario.Time(),0,0);\n             return;\n    \n\n      }\n       else if( keccak256(bytes(operation)) == keccak256(bytes(\"SellIt\"))){\n        ItemTemplate ItemtoSell = ItemTemplate(itemaddr);\n        require(bytes(ItemtoSell._name()).length > 0 );\n        require(ItemtoSell.ownerOf(ItemtoSell._id())==msg.sender);     \n        LItem memory Temp = LItem(ItemtoSell,itemaddr,x,Price,caution,PLace,\"SellingItem\");\n        UserLoaningItem[msg.sender].push(Temp);\n        StatusItem[itemaddr]=\"Selling\";\n        emit ItemEvent(operation,ItemtoSell,itemaddr,x,Price,caution,PLace,address(0),address(0),Calendario.Time(),0,0);\n        return;\n      }\n    } \n  }\n\n   \n      function TrasferTest(address _from, address _to,address _item,string memory operation,uint256 dateS,uint256 dateF) external {\n\n    \n          ItemTemplate ItemtoLoan = ItemTemplate(_item);\n          require(bytes(ItemtoLoan._name()).length > 0 );\n          require(keccak256(bytes(Calendario.Available(ItemtoLoan._id()))) != keccak256(bytes(\"Waiting\")),\"token is waiting \");\n          uint iner;\n          iner = find(_item,_from,false);\n            if(keccak256(bytes(operation)) == keccak256(bytes(\"Sell\"))&& keccak256(bytes(StatusItem[_item])) == keccak256(bytes(\"Selling\"))){\n              ItemTemplate ItemtoSell = ItemTemplate(_item);\n              address ownerItem = ItemtoSell.ownerOf(ItemtoSell._id());\n              if(TokenTemplate(UserLoaningItem[_from][iner].CoinSy).transfer(_to,UserLoaningItem[_from][iner].price,owner)){\n                ItemtoSell.transfert(_to);\n                require(ItemtoSell.ownerOf(ItemtoSell._id())==_to); \n                delete StatusItem[_item];\n                delete UserLoaningItem[_from][iner]; \n              }\n\n                return;\n              }\n\n\n          if( dateS>0 &&_to == ItemtoLoan.ownerOf(ItemtoLoan._id()) &&   keccak256(bytes(operation)) == keccak256(bytes(\"Riconsegna\")) \n\n            && keccak256(bytes(Calendario.Available(ItemtoLoan._id()))) == keccak256(bytes(\"Busy\"))){\n            //riconsegna item\n            if(Calendario.Back(ItemtoLoan._id(),dateS)){\n            \n\n          //  emit LoanPre(_from,_to,_item,Calendario.Time(),dateS,dateF,orders,\"Back-Loan\");\n            return;\n          }\n            }\n           /* else if(_to == ItemtoLoan.ownerOf(ItemtoLoan._id())  && keccak256(bytes(Calendario.Available(ItemtoLoan._id()))) == keccak256(bytes(\"Preordered\"))){\n              //caso in cui voglio cancellare una prenotazione\n              return;\n            }*/\n            \n            if(keccak256(bytes(operation)) == keccak256(bytes(\"Prenotazione\")) && dateF>0 &&_from == ItemtoLoan.ownerOf(ItemtoLoan._id())){\n              //prenotazione Noleggio pago la cauzione in anticipo   \n             \n                if(TokenTemplate(UserLoaningItem[_from][iner].CoinSy).balanceOf(_to)>=UserLoaningItem[_from][iner].caution ){\n                  if(Calendario.Pre_Order(dateS,dateF,ItemtoLoan._id(),msg.sender)) {\n                    TokenTemplate(UserLoaningItem[_from][iner].CoinSy).transfer(_to,UserLoaningItem[_from][iner].caution,_from);\n                    CautionId[ItemtoLoan._id()].push(_to); \n                  //  emit ItemEvent(operation,address(0),_item,UserLoaningItem[_from][iner].CoinSy,0,0,\"\",address(0),address(0),Calendario.Time(),0,0);\n                    PreItem memory Tempo = PreItem(_from,_to,_item,block.timestamp,dateS,dateF);\n                    PreLItem[_to].push(Tempo);\n                    return;\n                  }\n                return;\n                }  \n            return;\n            }\n              if(keccak256(bytes(operation)) == keccak256(bytes(\"RitiroPre\")) /*&& PreLItem[OrderId].to == msg.sender*/){ \n                  if(TokenTemplate(UserLoaningItem[_from][iner].CoinSy).balanceOf(_to)>=UserLoaningItem[_from][iner].price ){\n                    if(Calendario.AcquirePre(ItemtoLoan._id(),msg.sender) && _from==ItemtoLoan.ownerOf(ItemtoLoan._id())){ \n                  \n                //emit LoanPre(_from,_to,_item,Calendario.Time(),dateS,dateF,orders,\"Acq-Pre-Loan\");\n                    TokenTemplate(UserLoaningItem[_from][iner].CoinSy).transfer(_to,UserLoaningItem[_from][iner].price,_from);\n                 \n                    }\n                  }\n                  return;\n                 \n              }\n\n              //noleggio sul momento\n              if(dateF>0 && keccak256(bytes(operation)) == keccak256(bytes(\"OnFly\")) && _from==ItemtoLoan.ownerOf(ItemtoLoan._id())){\n              if(Calendario.Acquire(ItemtoLoan._id(),msg.sender,dateF)){\n                CautionId[ItemtoLoan._id()].push(_to);\n               // emit LoanPre(_from,_to,_item,Calendario.Time(),dateS,dateF,orders,\"Normal-Loan\");\n              return;\n            }\n          }\n\n          return;\n      }\n  \n      \n\n      function ReleseW(address _id,address _usr, uint256 _caution ) public{\n\n        ItemTemplate ItemtoRelese = ItemTemplate(_id);\n    //si potrebbe gestire il caso in cui la cauzione restituita sia variabile\n        require(bytes(ItemtoRelese._name()).length > 0 ,\"5\");\n        require(ItemtoRelese.ownerOf(ItemtoRelese._id())==msg.sender,\"6\");\n       \n       for(uint256 i; i<CautionId[ItemtoRelese._id()].length;i++){\n\n              \n        if(CautionId[ItemtoRelese._id()][i]==_usr && _usr!=msg.sender){\n        Calendario.Relese(ItemtoRelese._id());\n        address temp = CautionId[ItemtoRelese._id()][i];\n        delete CautionId[ItemtoRelese._id()][i];\n        delete StatusItem[_id];\n        uint iner = find(_id,msg.sender,false);\n        if(_caution>0){\n        //approve\n        TokenTemplate(UserLoaningItem[msg.sender][iner].CoinSy).transfer(msg.sender,_caution,_usr);\n        }else{\n        //approve\n        TokenTemplate(UserLoaningItem[msg.sender][iner].CoinSy).transfer(msg.sender,UserLoaningItem[msg.sender][iner].caution,_usr);\n      } \n        uint k;\n          k = find(_id,_usr,true);\n          delete PreLItem[_usr][k];\n\n\n            }  \n         }\n       }\n         \n      \n      /*\n    function WaitingUsr(uint256 _id) public returns(address){\n   \n   for(uint256 i; i<Calendario.Orders();i++){\n    if(CautionId[_id][i] != address(0x0)){\n      i = Calendario.Orders();\n      return CautionId[_id][i];\n\n   }\n\n    }\n   return address(0x0);\n    }*/\n    }\n\n\n\n\n\n\n\n\n\n",
  "sourcePath": "C:\\Users\\Luca\\Desktop\\tesi\\My-tesi\\src\\contracts\\LoanItem.sol",
  "compiler": {
    "name": "solc",
    "version": "0.8.12+commit.f00d7308.Emscripten.clang"
  },
  "schemaVersion": "3.4.1",
  "updatedAt": "2022-02-21T09:24:04.635Z",
  "devdoc": {
    "kind": "dev",
    "methods": {},
    "version": 1
  },
  "userdoc": {
    "kind": "user",
    "methods": {},
    "version": 1
  }
}