{
  "contractName": "LoanItem",
  "abi": [
    {
      "inputs": [
        {
          "internalType": "address",
          "name": "_owner",
          "type": "address"
        },
        {
          "internalType": "contract Calendar",
          "name": "Cad",
          "type": "address"
        }
      ],
      "stateMutability": "nonpayable",
      "type": "constructor"
    },
    {
      "anonymous": false,
      "inputs": [
        {
          "indexed": true,
          "internalType": "address",
          "name": "account",
          "type": "address"
        },
        {
          "indexed": true,
          "internalType": "address",
          "name": "operator",
          "type": "address"
        },
        {
          "indexed": false,
          "internalType": "bool",
          "name": "approved",
          "type": "bool"
        }
      ],
      "name": "ApprovalForAll",
      "type": "event"
    },
    {
      "anonymous": false,
      "inputs": [
        {
          "indexed": false,
          "internalType": "uint256",
          "name": "id",
          "type": "uint256"
        },
        {
          "indexed": false,
          "internalType": "string",
          "name": "description",
          "type": "string"
        },
        {
          "indexed": false,
          "internalType": "string",
          "name": "namec",
          "type": "string"
        }
      ],
      "name": "CoinFTCreated",
      "type": "event"
    },
    {
      "anonymous": false,
      "inputs": [
        {
          "indexed": false,
          "internalType": "uint256",
          "name": "id",
          "type": "uint256"
        },
        {
          "indexed": false,
          "internalType": "string",
          "name": "hash",
          "type": "string"
        },
        {
          "indexed": false,
          "internalType": "string",
          "name": "description",
          "type": "string"
        },
        {
          "indexed": false,
          "internalType": "uint256",
          "name": "tokenId",
          "type": "uint256"
        },
        {
          "indexed": false,
          "internalType": "address",
          "name": "author",
          "type": "address"
        }
      ],
      "name": "ImageCreated",
      "type": "event"
    },
    {
      "anonymous": false,
      "inputs": [
        {
          "indexed": false,
          "internalType": "uint256",
          "name": "id",
          "type": "uint256"
        },
        {
          "components": [
            {
              "internalType": "uint256",
              "name": "id",
              "type": "uint256"
            },
            {
              "internalType": "string",
              "name": "hash",
              "type": "string"
            },
            {
              "internalType": "string",
              "name": "description",
              "type": "string"
            },
            {
              "internalType": "uint256",
              "name": "tokenId",
              "type": "uint256"
            },
            {
              "internalType": "address",
              "name": "author",
              "type": "address"
            }
          ],
          "indexed": false,
          "internalType": "struct LoanItem.Image",
          "name": "phots",
          "type": "tuple"
        },
        {
          "indexed": false,
          "internalType": "string",
          "name": "description",
          "type": "string"
        },
        {
          "indexed": false,
          "internalType": "string",
          "name": "namet",
          "type": "string"
        },
        {
          "indexed": false,
          "internalType": "uint256",
          "name": "pricel",
          "type": "uint256"
        },
        {
          "indexed": false,
          "internalType": "uint256",
          "name": "caution",
          "type": "uint256"
        },
        {
          "indexed": false,
          "internalType": "uint256",
          "name": "Cid",
          "type": "uint256"
        }
      ],
      "name": "TokenNFTCreated",
      "type": "event"
    },
    {
      "anonymous": false,
      "inputs": [
        {
          "indexed": true,
          "internalType": "address",
          "name": "operator",
          "type": "address"
        },
        {
          "indexed": true,
          "internalType": "address",
          "name": "from",
          "type": "address"
        },
        {
          "indexed": true,
          "internalType": "address",
          "name": "to",
          "type": "address"
        },
        {
          "indexed": false,
          "internalType": "uint256[]",
          "name": "ids",
          "type": "uint256[]"
        },
        {
          "indexed": false,
          "internalType": "uint256[]",
          "name": "values",
          "type": "uint256[]"
        }
      ],
      "name": "TransferBatch",
      "type": "event"
    },
    {
      "anonymous": false,
      "inputs": [
        {
          "indexed": true,
          "internalType": "address",
          "name": "operator",
          "type": "address"
        },
        {
          "indexed": true,
          "internalType": "address",
          "name": "from",
          "type": "address"
        },
        {
          "indexed": true,
          "internalType": "address",
          "name": "to",
          "type": "address"
        },
        {
          "indexed": false,
          "internalType": "uint256",
          "name": "id",
          "type": "uint256"
        },
        {
          "indexed": false,
          "internalType": "uint256",
          "name": "value",
          "type": "uint256"
        }
      ],
      "name": "TransferSingle",
      "type": "event"
    },
    {
      "anonymous": false,
      "inputs": [
        {
          "indexed": false,
          "internalType": "string",
          "name": "value",
          "type": "string"
        },
        {
          "indexed": true,
          "internalType": "uint256",
          "name": "id",
          "type": "uint256"
        }
      ],
      "name": "URI",
      "type": "event"
    },
    {
      "inputs": [
        {
          "internalType": "uint256",
          "name": "",
          "type": "uint256"
        },
        {
          "internalType": "uint256",
          "name": "",
          "type": "uint256"
        }
      ],
      "name": "CautionId",
      "outputs": [
        {
          "internalType": "address",
          "name": "",
          "type": "address"
        }
      ],
      "stateMutability": "view",
      "type": "function",
      "constant": true
    },
    {
      "inputs": [
        {
          "internalType": "uint256",
          "name": "",
          "type": "uint256"
        }
      ],
      "name": "Cds",
      "outputs": [
        {
          "internalType": "uint256",
          "name": "",
          "type": "uint256"
        }
      ],
      "stateMutability": "view",
      "type": "function",
      "constant": true
    },
    {
      "inputs": [
        {
          "internalType": "uint256",
          "name": "",
          "type": "uint256"
        }
      ],
      "name": "CoinId",
      "outputs": [
        {
          "internalType": "uint256",
          "name": "id",
          "type": "uint256"
        },
        {
          "internalType": "string",
          "name": "description",
          "type": "string"
        },
        {
          "internalType": "string",
          "name": "namec",
          "type": "string"
        }
      ],
      "stateMutability": "view",
      "type": "function",
      "constant": true
    },
    {
      "inputs": [
        {
          "internalType": "address",
          "name": "account",
          "type": "address"
        },
        {
          "internalType": "uint256",
          "name": "id",
          "type": "uint256"
        }
      ],
      "name": "balanceOf",
      "outputs": [
        {
          "internalType": "uint256",
          "name": "",
          "type": "uint256"
        }
      ],
      "stateMutability": "view",
      "type": "function",
      "constant": true
    },
    {
      "inputs": [
        {
          "internalType": "address[]",
          "name": "accounts",
          "type": "address[]"
        },
        {
          "internalType": "uint256[]",
          "name": "ids",
          "type": "uint256[]"
        }
      ],
      "name": "balanceOfBatch",
      "outputs": [
        {
          "internalType": "uint256[]",
          "name": "",
          "type": "uint256[]"
        }
      ],
      "stateMutability": "view",
      "type": "function",
      "constant": true
    },
    {
      "inputs": [],
      "name": "countAttrezzi",
      "outputs": [
        {
          "internalType": "uint256",
          "name": "",
          "type": "uint256"
        }
      ],
      "stateMutability": "view",
      "type": "function",
      "constant": true
    },
    {
      "inputs": [
        {
          "internalType": "address",
          "name": "",
          "type": "address"
        }
      ],
      "name": "hasStaked",
      "outputs": [
        {
          "internalType": "bool",
          "name": "",
          "type": "bool"
        }
      ],
      "stateMutability": "view",
      "type": "function",
      "constant": true
    },
    {
      "inputs": [
        {
          "internalType": "uint256",
          "name": "",
          "type": "uint256"
        }
      ],
      "name": "ids",
      "outputs": [
        {
          "internalType": "uint256",
          "name": "",
          "type": "uint256"
        }
      ],
      "stateMutability": "view",
      "type": "function",
      "constant": true
    },
    {
      "inputs": [],
      "name": "imageCount",
      "outputs": [
        {
          "internalType": "uint256",
          "name": "",
          "type": "uint256"
        }
      ],
      "stateMutability": "view",
      "type": "function",
      "constant": true
    },
    {
      "inputs": [
        {
          "internalType": "uint256",
          "name": "",
          "type": "uint256"
        }
      ],
      "name": "images",
      "outputs": [
        {
          "internalType": "uint256",
          "name": "id",
          "type": "uint256"
        },
        {
          "internalType": "string",
          "name": "hash",
          "type": "string"
        },
        {
          "internalType": "string",
          "name": "description",
          "type": "string"
        },
        {
          "internalType": "uint256",
          "name": "tokenId",
          "type": "uint256"
        },
        {
          "internalType": "address",
          "name": "author",
          "type": "address"
        }
      ],
      "stateMutability": "view",
      "type": "function",
      "constant": true
    },
    {
      "inputs": [
        {
          "internalType": "address",
          "name": "account",
          "type": "address"
        },
        {
          "internalType": "address",
          "name": "operator",
          "type": "address"
        }
      ],
      "name": "isApprovedForAll",
      "outputs": [
        {
          "internalType": "bool",
          "name": "",
          "type": "bool"
        }
      ],
      "stateMutability": "view",
      "type": "function",
      "constant": true
    },
    {
      "inputs": [
        {
          "internalType": "address",
          "name": "",
          "type": "address"
        }
      ],
      "name": "isStaking",
      "outputs": [
        {
          "internalType": "bool",
          "name": "",
          "type": "bool"
        }
      ],
      "stateMutability": "view",
      "type": "function",
      "constant": true
    },
    {
      "inputs": [],
      "name": "name",
      "outputs": [
        {
          "internalType": "string",
          "name": "",
          "type": "string"
        }
      ],
      "stateMutability": "view",
      "type": "function",
      "constant": true
    },
    {
      "inputs": [],
      "name": "owner",
      "outputs": [
        {
          "internalType": "address",
          "name": "",
          "type": "address"
        }
      ],
      "stateMutability": "view",
      "type": "function",
      "constant": true
    },
    {
      "inputs": [
        {
          "internalType": "address",
          "name": "",
          "type": "address"
        }
      ],
      "name": "permissions",
      "outputs": [
        {
          "internalType": "bool",
          "name": "",
          "type": "bool"
        }
      ],
      "stateMutability": "view",
      "type": "function",
      "constant": true
    },
    {
      "inputs": [
        {
          "internalType": "address",
          "name": "from",
          "type": "address"
        },
        {
          "internalType": "address",
          "name": "to",
          "type": "address"
        },
        {
          "internalType": "uint256[]",
          "name": "ids",
          "type": "uint256[]"
        },
        {
          "internalType": "uint256[]",
          "name": "amounts",
          "type": "uint256[]"
        },
        {
          "internalType": "bytes",
          "name": "data",
          "type": "bytes"
        }
      ],
      "name": "safeBatchTransferFrom",
      "outputs": [],
      "stateMutability": "nonpayable",
      "type": "function"
    },
    {
      "inputs": [
        {
          "internalType": "address",
          "name": "from",
          "type": "address"
        },
        {
          "internalType": "address",
          "name": "to",
          "type": "address"
        },
        {
          "internalType": "uint256",
          "name": "id",
          "type": "uint256"
        },
        {
          "internalType": "uint256",
          "name": "amount",
          "type": "uint256"
        },
        {
          "internalType": "bytes",
          "name": "data",
          "type": "bytes"
        }
      ],
      "name": "safeTransferFrom",
      "outputs": [],
      "stateMutability": "nonpayable",
      "type": "function"
    },
    {
      "inputs": [
        {
          "internalType": "address",
          "name": "operator",
          "type": "address"
        },
        {
          "internalType": "bool",
          "name": "approved",
          "type": "bool"
        }
      ],
      "name": "setApprovalForAll",
      "outputs": [],
      "stateMutability": "nonpayable",
      "type": "function"
    },
    {
      "inputs": [
        {
          "internalType": "uint256",
          "name": "",
          "type": "uint256"
        }
      ],
      "name": "stakers",
      "outputs": [
        {
          "internalType": "address",
          "name": "",
          "type": "address"
        }
      ],
      "stateMutability": "view",
      "type": "function",
      "constant": true
    },
    {
      "inputs": [
        {
          "internalType": "address",
          "name": "",
          "type": "address"
        }
      ],
      "name": "stakingBalance",
      "outputs": [
        {
          "internalType": "uint256",
          "name": "",
          "type": "uint256"
        }
      ],
      "stateMutability": "view",
      "type": "function",
      "constant": true
    },
    {
      "inputs": [
        {
          "internalType": "bytes4",
          "name": "interfaceId",
          "type": "bytes4"
        }
      ],
      "name": "supportsInterface",
      "outputs": [
        {
          "internalType": "bool",
          "name": "",
          "type": "bool"
        }
      ],
      "stateMutability": "view",
      "type": "function",
      "constant": true
    },
    {
      "inputs": [],
      "name": "symbol",
      "outputs": [
        {
          "internalType": "string",
          "name": "",
          "type": "string"
        }
      ],
      "stateMutability": "view",
      "type": "function",
      "constant": true
    },
    {
      "inputs": [
        {
          "internalType": "uint256",
          "name": "",
          "type": "uint256"
        }
      ],
      "name": "tokenId",
      "outputs": [
        {
          "internalType": "uint256",
          "name": "id",
          "type": "uint256"
        },
        {
          "components": [
            {
              "internalType": "uint256",
              "name": "id",
              "type": "uint256"
            },
            {
              "internalType": "string",
              "name": "hash",
              "type": "string"
            },
            {
              "internalType": "string",
              "name": "description",
              "type": "string"
            },
            {
              "internalType": "uint256",
              "name": "tokenId",
              "type": "uint256"
            },
            {
              "internalType": "address",
              "name": "author",
              "type": "address"
            }
          ],
          "internalType": "struct LoanItem.Image",
          "name": "phots",
          "type": "tuple"
        },
        {
          "internalType": "string",
          "name": "description",
          "type": "string"
        },
        {
          "internalType": "string",
          "name": "namet",
          "type": "string"
        },
        {
          "internalType": "uint256",
          "name": "pricel",
          "type": "uint256"
        },
        {
          "internalType": "uint256",
          "name": "caution",
          "type": "uint256"
        },
        {
          "internalType": "uint256",
          "name": "Cid",
          "type": "uint256"
        },
        {
          "internalType": "address",
          "name": "own",
          "type": "address"
        }
      ],
      "stateMutability": "view",
      "type": "function",
      "constant": true
    },
    {
      "inputs": [
        {
          "internalType": "uint256",
          "name": "",
          "type": "uint256"
        }
      ],
      "name": "uri",
      "outputs": [
        {
          "internalType": "string",
          "name": "",
          "type": "string"
        }
      ],
      "stateMutability": "view",
      "type": "function",
      "constant": true
    },
    {
      "inputs": [
        {
          "internalType": "uint256",
          "name": "value",
          "type": "uint256"
        },
        {
          "internalType": "string",
          "name": "Name",
          "type": "string"
        },
        {
          "internalType": "string",
          "name": "description",
          "type": "string"
        }
      ],
      "name": "addNewCoin",
      "outputs": [],
      "stateMutability": "nonpayable",
      "type": "function"
    },
    {
      "inputs": [
        {
          "internalType": "address",
          "name": "ute",
          "type": "address"
        },
        {
          "internalType": "bool",
          "name": "setting",
          "type": "bool"
        }
      ],
      "name": "setPermissions",
      "outputs": [],
      "stateMutability": "nonpayable",
      "type": "function"
    },
    {
      "inputs": [
        {
          "internalType": "uint256",
          "name": "price",
          "type": "uint256"
        },
        {
          "internalType": "uint256",
          "name": "caution",
          "type": "uint256"
        },
        {
          "internalType": "string",
          "name": "_imgHash",
          "type": "string"
        },
        {
          "internalType": "string",
          "name": "_description",
          "type": "string"
        },
        {
          "internalType": "string",
          "name": "namef",
          "type": "string"
        },
        {
          "internalType": "uint256",
          "name": "Cid",
          "type": "uint256"
        }
      ],
      "name": "addNewItem",
      "outputs": [],
      "stateMutability": "nonpayable",
      "type": "function"
    },
    {
      "inputs": [
        {
          "internalType": "address",
          "name": "_from",
          "type": "address"
        },
        {
          "internalType": "address",
          "name": "_to",
          "type": "address"
        },
        {
          "internalType": "uint256",
          "name": "_id",
          "type": "uint256"
        },
        {
          "internalType": "bool",
          "name": "pre",
          "type": "bool"
        },
        {
          "internalType": "bool",
          "name": "acq",
          "type": "bool"
        },
        {
          "internalType": "uint256",
          "name": "dateS",
          "type": "uint256"
        },
        {
          "internalType": "uint256",
          "name": "dateF",
          "type": "uint256"
        }
      ],
      "name": "TrasferTest",
      "outputs": [],
      "stateMutability": "nonpayable",
      "type": "function"
    },
    {
      "inputs": [
        {
          "internalType": "address",
          "name": "_to",
          "type": "address"
        },
        {
          "internalType": "uint256",
          "name": "coin",
          "type": "uint256"
        },
        {
          "internalType": "uint256",
          "name": "value",
          "type": "uint256"
        }
      ],
      "name": "GiveToken",
      "outputs": [],
      "stateMutability": "nonpayable",
      "type": "function"
    },
    {
      "inputs": [
        {
          "internalType": "uint256",
          "name": "_id",
          "type": "uint256"
        },
        {
          "internalType": "address",
          "name": "_usr",
          "type": "address"
        },
        {
          "internalType": "uint256",
          "name": "_caution",
          "type": "uint256"
        }
      ],
      "name": "ReleseW",
      "outputs": [],
      "stateMutability": "nonpayable",
      "type": "function"
    }
  ],
  "bytecode": "0x60806040526040518060400160405280600881526020017f4c6f616e4974656d000000000000000000000000000000000000000000000000815250600390805190602001906200005192919062000215565b506040518060400160405280600281526020017f4c49000000000000000000000000000000000000000000000000000000000000815250600490805190602001906200009f92919062000215565b50348015620000ad57600080fd5b5060405162006272380380620062728339818101604052810190620000d3919062000374565b60405180602001604052806000815250620000f481620001f960201b60201c565b5081601360006101000a81548173ffffffffffffffffffffffffffffffffffffffff021916908373ffffffffffffffffffffffffffffffffffffffff1602179055506001600e6000601360009054906101000a900473ffffffffffffffffffffffffffffffffffffffff1673ffffffffffffffffffffffffffffffffffffffff1673ffffffffffffffffffffffffffffffffffffffff16815260200190815260200160002060006101000a81548160ff02191690831515021790555080600560006101000a81548173ffffffffffffffffffffffffffffffffffffffff021916908373ffffffffffffffffffffffffffffffffffffffff160217905550505062000420565b80600290805190602001906200021192919062000215565b5050565b8280546200022390620003ea565b90600052602060002090601f01602090048101928262000247576000855562000293565b82601f106200026257805160ff191683800117855562000293565b8280016001018555821562000293579182015b828111156200029257825182559160200191906001019062000275565b5b509050620002a29190620002a6565b5090565b5b80821115620002c1576000816000905550600101620002a7565b5090565b600080fd5b600073ffffffffffffffffffffffffffffffffffffffff82169050919050565b6000620002f782620002ca565b9050919050565b6200030981620002ea565b81146200031557600080fd5b50565b6000815190506200032981620002fe565b92915050565b60006200033c82620002ea565b9050919050565b6200034e816200032f565b81146200035a57600080fd5b50565b6000815190506200036e8162000343565b92915050565b600080604083850312156200038e576200038d620002c5565b5b60006200039e8582860162000318565b9250506020620003b1858286016200035d565b9150509250929050565b7f4e487b7100000000000000000000000000000000000000000000000000000000600052602260045260246000fd5b600060028204905060018216806200040357607f821691505b602082108114156200041a5762000419620003bb565b5b50919050565b615e4280620004306000396000f3fe608060405234801561001057600080fd5b50600436106101d95760003560e01c80638da5cb5b11610104578063c93c8f34116100a2578063f31f8f6b11610071578063f31f8f6b146105d1578063f9c93e47146105ed578063fac333ac1461061d578063fd5e6dd11461064d576101d9565b8063c93c8f3414610539578063d4c35d3014610569578063e985e9c514610585578063f242432a146105b5576101d9565b8063a166754b116100de578063a166754b146104b3578063a1af645f146104cf578063a22cb465146104ff578063a963cff71461051b576101d9565b80638da5cb5b1461045957806392053b631461047757806395d89b4114610495576101d9565b806345bc78ab1161017c578063689ceaac1161014b578063689ceaac146103a25780636f49712b146103be5780637dcb0e5f146103ee5780638485648214610425576101d9565b806345bc78ab146102f4578063499ea4b3146103245780634e1273f4146103565780636165234c14610386576101d9565b806306fdde03116101b857806306fdde031461026e5780630e89341c1461028c5780632eb2c2d6146102bc5780633a712e83146102d8576101d9565b8062fdd58e146101de57806301e882081461020e57806301ffc9a71461023e575b600080fd5b6101f860048036038101906101f39190613d52565b61067d565b6040516102059190613da1565b60405180910390f35b61022860048036038101906102239190613dbc565b610746565b6040516102359190613e04565b60405180910390f35b61025860048036038101906102539190613e77565b610766565b6040516102659190613e04565b60405180910390f35b610276610848565b6040516102839190613f3d565b60405180910390f35b6102a660048036038101906102a19190613f5f565b6108d6565b6040516102b39190613f3d565b60405180910390f35b6102d660048036038101906102d19190614189565b61096a565b005b6102f260048036038101906102ed91906142f9565b610a0b565b005b61030e60048036038101906103099190613dbc565b610c1d565b60405161031b9190613da1565b60405180910390f35b61033e60048036038101906103399190613f5f565b610c35565b60405161034d93929190614384565b60405180910390f35b610370600480360381019061036b919061448c565b610d6f565b60405161037d91906145c2565b60405180910390f35b6103a0600480360381019061039b9190614610565b610e88565b005b6103bc60048036038101906103b79190614650565b610fce565b005b6103d860048036038101906103d39190613dbc565b6117ee565b6040516103e59190613e04565b60405180910390f35b61040860048036038101906104039190613f5f565b61180e565b60405161041c989796959493929190614816565b60405180910390f35b61043f600480360381019061043a9190613f5f565b611b1e565b6040516104509594939291906148a9565b60405180910390f35b610461611c84565b60405161046e919061490a565b60405180910390f35b61047f611caa565b60405161048c9190613da1565b60405180910390f35b61049d611cb0565b6040516104aa9190613f3d565b60405180910390f35b6104cd60048036038101906104c89190614925565b611d3e565b005b6104e960048036038101906104e49190613f5f565b611e53565b6040516104f69190613da1565b60405180910390f35b61051960048036038101906105149190614610565b611e6b565b005b610523611fec565b6040516105309190613da1565b60405180910390f35b610553600480360381019061054e9190613dbc565b611ff2565b6040516105609190613e04565b60405180910390f35b610583600480360381019061057e9190614978565b612012565b005b61059f600480360381019061059a9190614a1a565b612a5e565b6040516105ac9190613e04565b60405180910390f35b6105cf60048036038101906105ca9190614a5a565b612af2565b005b6105eb60048036038101906105e69190614af1565b612b93565b005b61060760048036038101906106029190614b44565b612f7f565b604051610614919061490a565b60405180910390f35b61063760048036038101906106329190613f5f565b612fcd565b6040516106449190613da1565b60405180910390f35b61066760048036038101906106629190613f5f565b612fe5565b604051610674919061490a565b60405180910390f35b60008073ffffffffffffffffffffffffffffffffffffffff168373ffffffffffffffffffffffffffffffffffffffff1614156106ee576040517f08c379a00000000000000000000000000000000000000000000000000000000081526004016106e590614bf6565b60405180910390fd5b60008083815260200190815260200160002060008473ffffffffffffffffffffffffffffffffffffffff1673ffffffffffffffffffffffffffffffffffffffff16815260200190815260200160002054905092915050565b600e6020528060005260406000206000915054906101000a900460ff1681565b60007fd9b67a26000000000000000000000000000000000000000000000000000000007bffffffffffffffffffffffffffffffffffffffffffffffffffffffff1916827bffffffffffffffffffffffffffffffffffffffffffffffffffffffff1916148061083157507f0e89341c000000000000000000000000000000000000000000000000000000007bffffffffffffffffffffffffffffffffffffffffffffffffffffffff1916827bffffffffffffffffffffffffffffffffffffffffffffffffffffffff1916145b80610841575061084082613024565b5b9050919050565b6003805461085590614c45565b80601f016020809104026020016040519081016040528092919081815260200182805461088190614c45565b80156108ce5780601f106108a3576101008083540402835291602001916108ce565b820191906000526020600020905b8154815290600101906020018083116108b157829003601f168201915b505050505081565b6060600280546108e590614c45565b80601f016020809104026020016040519081016040528092919081815260200182805461091190614c45565b801561095e5780601f106109335761010080835404028352916020019161095e565b820191906000526020600020905b81548152906001019060200180831161094157829003601f168201915b50505050509050919050565b61097261308e565b73ffffffffffffffffffffffffffffffffffffffff168573ffffffffffffffffffffffffffffffffffffffff1614806109b857506109b7856109b261308e565b612a5e565b5b6109f7576040517f08c379a00000000000000000000000000000000000000000000000000000000081526004016109ee90614ce9565b60405180910390fd5b610a048585858585613096565b5050505050565b601360009054906101000a900473ffffffffffffffffffffffffffffffffffffffff1673ffffffffffffffffffffffffffffffffffffffff163373ffffffffffffffffffffffffffffffffffffffff161480610ab7575060011515600e60003373ffffffffffffffffffffffffffffffffffffffff1673ffffffffffffffffffffffffffffffffffffffff16815260200190815260200160002060009054906101000a900460ff161515145b610af6576040517f08c379a0000000000000000000000000000000000000000000000000000000008152600401610aed90614d55565b60405180910390fd5b6000825111610b0457600080fd5b60008311610b1157600080fd5b60116000815480929190610b2490614da4565b9190505550610b463360115485604051806020016040528060008152506133aa565b601154601060006011548152602001908152602001600020819055506040518060600160405280601154815260200182815260200183815250600f60006011548152602001908152602001600020600082015181600001556020820151816001019080519060200190610bba929190613c07565b506040820151816002019080519060200190610bd7929190613c07565b509050507faf4b1085b3f4f980233bd54e1a354fed0504d6aa21ed37949c8b5aabae94653c6011548284604051610c1093929190614384565b60405180910390a1505050565b60076020528060005260406000206000915090505481565b600f602052806000526040600020600091509050806000015490806001018054610c5e90614c45565b80601f0160208091040260200160405190810160405280929190818152602001828054610c8a90614c45565b8015610cd75780601f10610cac57610100808354040283529160200191610cd7565b820191906000526020600020905b815481529060010190602001808311610cba57829003601f168201915b505050505090806002018054610cec90614c45565b80601f0160208091040260200160405190810160405280929190818152602001828054610d1890614c45565b8015610d655780601f10610d3a57610100808354040283529160200191610d65565b820191906000526020600020905b815481529060010190602001808311610d4857829003601f168201915b5050505050905083565b60608151835114610db5576040517f08c379a0000000000000000000000000000000000000000000000000000000008152600401610dac90614e5f565b60405180910390fd5b6000835167ffffffffffffffff811115610dd257610dd1613f91565b5b604051908082528060200260200182016040528015610e005781602001602082028036833780820191505090505b50905060005b8451811015610e7d57610e4d858281518110610e2557610e24614e7f565b5b6020026020010151858381518110610e4057610e3f614e7f565b5b602002602001015161067d565b828281518110610e6057610e5f614e7f565b5b60200260200101818152505080610e7690614da4565b9050610e06565b508091505092915050565b601360009054906101000a900473ffffffffffffffffffffffffffffffffffffffff1673ffffffffffffffffffffffffffffffffffffffff163373ffffffffffffffffffffffffffffffffffffffff161480610f34575060011515600e60003373ffffffffffffffffffffffffffffffffffffffff1673ffffffffffffffffffffffffffffffffffffffff16815260200190815260200160002060009054906101000a900460ff161515145b610f73576040517f08c379a0000000000000000000000000000000000000000000000000000000008152600401610f6a90614d55565b60405180910390fd5b80600e60008473ffffffffffffffffffffffffffffffffffffffff1673ffffffffffffffffffffffffffffffffffffffff16815260200190815260200160002060006101000a81548160ff0219169083151502179055505050565b601360009054906101000a900473ffffffffffffffffffffffffffffffffffffffff1673ffffffffffffffffffffffffffffffffffffffff163373ffffffffffffffffffffffffffffffffffffffff16148061107a575060011515600e60003373ffffffffffffffffffffffffffffffffffffffff1673ffffffffffffffffffffffffffffffffffffffff16815260200190815260200160002060009054906101000a900460ff161515145b6110b9576040517f08c379a00000000000000000000000000000000000000000000000000000000081526004016110b090614d55565b60405180910390fd5b600085116110c657600080fd5b60008251116110d457600080fd5b600086116110e157600080fd5b60008351116110ef57600080fd5b60008451116110fd57600080fd5b600073ffffffffffffffffffffffffffffffffffffffff163373ffffffffffffffffffffffffffffffffffffffff16141561113757600080fd5b6000600f6000838152602001908152602001600020600201805461115a90614c45565b90501161119c576040517f08c379a000000000000000000000000000000000000000000000000000000000815260040161119390614efa565b60405180910390fd5b601260008154809291906111af90614da4565b9190505550601160008154809291906111c790614da4565b9190505550600560009054906101000a900473ffffffffffffffffffffffffffffffffffffffff1673ffffffffffffffffffffffffffffffffffffffff16639ff3b46d6011546040518263ffffffff1660e01b81526004016112299190614f66565b6020604051808303816000875af1158015611248573d6000803e3d6000fd5b505050506040513d601f19601f8201168201806040525081019061126c9190614fa9565b50601154600d60006011548152602001908152602001600020819055506112ba33600d60006011548152602001908152602001600020546001604051806020016040528060008152506133aa565b6040518060a00160405280601254815260200185815260200184815260200160008152602001601360009054906101000a900473ffffffffffffffffffffffffffffffffffffffff1673ffffffffffffffffffffffffffffffffffffffff16815250600a60006012548152602001908152602001600020600082015181600001556020820151816001019080519060200190611357929190613c07565b506040820151816002019080519060200190611374929190613c07565b506060820151816003015560808201518160040160006101000a81548173ffffffffffffffffffffffffffffffffffffffff021916908373ffffffffffffffffffffffffffffffffffffffff1602179055509050506040518061010001604052806011548152602001600a600060125481526020019081526020016000206040518060a00160405290816000820154815260200160018201805461141790614c45565b80601f016020809104026020016040519081016040528092919081815260200182805461144390614c45565b80156114905780601f1061146557610100808354040283529160200191611490565b820191906000526020600020905b81548152906001019060200180831161147357829003601f168201915b505050505081526020016002820180546114a990614c45565b80601f01602080910402602001604051908101604052809291908181526020018280546114d590614c45565b80156115225780601f106114f757610100808354040283529160200191611522565b820191906000526020600020905b81548152906001019060200180831161150557829003601f168201915b50505050508152602001600382015481526020016004820160009054906101000a900473ffffffffffffffffffffffffffffffffffffffff1673ffffffffffffffffffffffffffffffffffffffff1673ffffffffffffffffffffffffffffffffffffffff168152505081526020018481526020018381526020018781526020018681526020018281526020013373ffffffffffffffffffffffffffffffffffffffff16815250600b6000601154815260200190815260200160002060008201518160000155602082015181600101600082015181600001556020820151816001019080519060200190611616929190613c07565b506040820151816002019080519060200190611633929190613c07565b506060820151816003015560808201518160040160006101000a81548173ffffffffffffffffffffffffffffffffffffffff021916908373ffffffffffffffffffffffffffffffffffffffff160217905550505060408201518160060190805190602001906116a3929190613c07565b5060608201518160070190805190602001906116c0929190613c07565b506080820151816008015560a0820151816009015560c082015181600a015560e082015181600b0160006101000a81548173ffffffffffffffffffffffffffffffffffffffff021916908373ffffffffffffffffffffffffffffffffffffffff1602179055509050507fc1d8dfa99b3f84f95d3f0bc4a768addeb97b83b20aef7f9cb6729e126bafd2f960125485856000601360009054906101000a900473ffffffffffffffffffffffffffffffffffffffff1660405161178595949392919061501b565b60405180910390a17fb5c81648406183bffdea7566bac0ed978ae944671b4599c84fbe7b47f9f52429601154600a6000601254815260200190815260200160002085858a8a876040516117de979695949392919061521a565b60405180910390a1505050505050565b60096020528060005260406000206000915054906101000a900460ff1681565b600b602052806000526040600020600091509050806000015490806001016040518060a00160405290816000820154815260200160018201805461185190614c45565b80601f016020809104026020016040519081016040528092919081815260200182805461187d90614c45565b80156118ca5780601f1061189f576101008083540402835291602001916118ca565b820191906000526020600020905b8154815290600101906020018083116118ad57829003601f168201915b505050505081526020016002820180546118e390614c45565b80601f016020809104026020016040519081016040528092919081815260200182805461190f90614c45565b801561195c5780601f106119315761010080835404028352916020019161195c565b820191906000526020600020905b81548152906001019060200180831161193f57829003601f168201915b50505050508152602001600382015481526020016004820160009054906101000a900473ffffffffffffffffffffffffffffffffffffffff1673ffffffffffffffffffffffffffffffffffffffff1673ffffffffffffffffffffffffffffffffffffffff1681525050908060060180546119d590614c45565b80601f0160208091040260200160405190810160405280929190818152602001828054611a0190614c45565b8015611a4e5780601f10611a2357610100808354040283529160200191611a4e565b820191906000526020600020905b815481529060010190602001808311611a3157829003601f168201915b505050505090806007018054611a6390614c45565b80601f0160208091040260200160405190810160405280929190818152602001828054611a8f90614c45565b8015611adc5780601f10611ab157610100808354040283529160200191611adc565b820191906000526020600020905b815481529060010190602001808311611abf57829003601f168201915b50505050509080600801549080600901549080600a01549080600b0160009054906101000a900473ffffffffffffffffffffffffffffffffffffffff16905088565b600a602052806000526040600020600091509050806000015490806001018054611b4790614c45565b80601f0160208091040260200160405190810160405280929190818152602001828054611b7390614c45565b8015611bc05780601f10611b9557610100808354040283529160200191611bc0565b820191906000526020600020905b815481529060010190602001808311611ba357829003601f168201915b505050505090806002018054611bd590614c45565b80601f0160208091040260200160405190810160405280929190818152602001828054611c0190614c45565b8015611c4e5780601f10611c2357610100808354040283529160200191611c4e565b820191906000526020600020905b815481529060010190602001808311611c3157829003601f168201915b5050505050908060030154908060040160009054906101000a900473ffffffffffffffffffffffffffffffffffffffff16905085565b601360009054906101000a900473ffffffffffffffffffffffffffffffffffffffff1681565b60125481565b60048054611cbd90614c45565b80601f0160208091040260200160405190810160405280929190818152602001828054611ce990614c45565b8015611d365780601f10611d0b57610100808354040283529160200191611d36565b820191906000526020600020905b815481529060010190602001808311611d1957829003601f168201915b505050505081565b601360009054906101000a900473ffffffffffffffffffffffffffffffffffffffff1673ffffffffffffffffffffffffffffffffffffffff163373ffffffffffffffffffffffffffffffffffffffff161480611dea575060011515600e60003373ffffffffffffffffffffffffffffffffffffffff1673ffffffffffffffffffffffffffffffffffffffff16815260200190815260200160002060009054906101000a900460ff161515145b611e29576040517f08c379a0000000000000000000000000000000000000000000000000000000008152600401611e2090614d55565b60405180910390fd5b611e4e33848468056bc75e2d6310000060405180602001604052806000815250612af2565b505050565b60106020528060005260406000206000915090505481565b8173ffffffffffffffffffffffffffffffffffffffff16611e8a61308e565b73ffffffffffffffffffffffffffffffffffffffff161415611ee1576040517f08c379a0000000000000000000000000000000000000000000000000000000008152600401611ed890615310565b60405180910390fd5b8060016000611eee61308e565b73ffffffffffffffffffffffffffffffffffffffff1673ffffffffffffffffffffffffffffffffffffffff16815260200190815260200160002060008473ffffffffffffffffffffffffffffffffffffffff1673ffffffffffffffffffffffffffffffffffffffff16815260200190815260200160002060006101000a81548160ff0219169083151502179055508173ffffffffffffffffffffffffffffffffffffffff16611f9b61308e565b73ffffffffffffffffffffffffffffffffffffffff167f17307eab39ab6107e8899845ad3d59bd9653f200f220920489ca2b5937696c3183604051611fe09190613e04565b60405180910390a35050565b60115481565b60086020528060005260406000206000915054906101000a900460ff1681565b6000801b600b600087815260200190815260200160002060070160405161203991906153cf565b604051809103902011612081576040517f08c379a000000000000000000000000000000000000000000000000000000000815260040161207890615432565b60405180910390fd5b6040518060400160405280600781526020017f57616974696e670000000000000000000000000000000000000000000000000081525080519060200120600560009054906101000a900473ffffffffffffffffffffffffffffffffffffffff1673ffffffffffffffffffffffffffffffffffffffff166335b67731876040518263ffffffff1660e01b81526004016121199190613da1565b600060405180830381865afa158015612136573d6000803e3d6000fd5b505050506040513d6000823e3d601f19601f8201168201806040525081019061215f91906154c2565b8051906020012014156121a7576040517f08c379a000000000000000000000000000000000000000000000000000000000815260040161219e90615557565b60405180910390fd5b6000821180156122185750600b6000868152602001908152602001600020600b0160009054906101000a900473ffffffffffffffffffffffffffffffffffffffff1673ffffffffffffffffffffffffffffffffffffffff168673ffffffffffffffffffffffffffffffffffffffff16145b8015612222575082155b801561222c575083155b801561231a57506040518060400160405280600481526020017f427573790000000000000000000000000000000000000000000000000000000081525080519060200120600560009054906101000a900473ffffffffffffffffffffffffffffffffffffffff1673ffffffffffffffffffffffffffffffffffffffff166335b67731876040518263ffffffff1660e01b81526004016122cb9190613da1565b600060405180830381865afa1580156122e8573d6000803e3d6000fd5b505050506040513d6000823e3d601f19601f8201168201806040525081019061231191906154c2565b80519060200120145b156123eb57600560009054906101000a900473ffffffffffffffffffffffffffffffffffffffff1673ffffffffffffffffffffffffffffffffffffffff16634bbbff0686846040518363ffffffff1660e01b815260040161237c929190615577565b6020604051808303816000875af115801561239b573d6000803e3d6000fd5b505050506040513d601f19601f820116820180604052508101906123bf9190614fa9565b156123e6576123e1878787600160405180602001604052806000815250612af2565b612a55565b612a54565b600b6000868152602001908152602001600020600b0160009054906101000a900473ffffffffffffffffffffffffffffffffffffffff1673ffffffffffffffffffffffffffffffffffffffff168773ffffffffffffffffffffffffffffffffffffffff161415612a5357838015612460575082155b801561246c5750600081115b156125e057600560009054906101000a900473ffffffffffffffffffffffffffffffffffffffff1673ffffffffffffffffffffffffffffffffffffffff16633097c98e838388336040518563ffffffff1660e01b81526004016124d294939291906155a0565b6020604051808303816000875af11580156124f1573d6000803e3d6000fd5b505050506040513d601f19601f820116820180604052508101906125159190614fa9565b156125db576125628688600b6000898152602001908152602001600020600a0154600b60008a81526020019081526020016000206009015460405180602001604052806000815250612af2565b600c6000868152602001908152602001600020869080600181540180825580915050600190039060005260206000200160009091909190916101000a81548173ffffffffffffffffffffffffffffffffffffffff021916908373ffffffffffffffffffffffffffffffffffffffff160217905550612a55565b612a55565b8280156125eb575083155b156128275760005b600c600087815260200190815260200160002080549050811015612825573373ffffffffffffffffffffffffffffffffffffffff16600c6000888152602001908152602001600020828154811061264d5761264c614e7f565b5b9060005260206000200160009054906101000a900473ffffffffffffffffffffffffffffffffffffffff1673ffffffffffffffffffffffffffffffffffffffff16141561281257600560009054906101000a900473ffffffffffffffffffffffffffffffffffffffff1673ffffffffffffffffffffffffffffffffffffffff16631b227ed787336040518363ffffffff1660e01b81526004016126f19291906155e5565b6020604051808303816000875af1158015612710573d6000803e3d6000fd5b505050506040513d601f19601f820116820180604052508101906127349190614fa9565b80156127a15750600b6000878152602001908152602001600020600b0160009054906101000a900473ffffffffffffffffffffffffffffffffffffffff1673ffffffffffffffffffffffffffffffffffffffff168873ffffffffffffffffffffffffffffffffffffffff16145b15612811576127ee8789600b60008a8152602001908152602001600020600a0154600b60008b81526020019081526020016000206008015460405180602001604052806000815250612af2565b61280b888888600160405180602001604052806000815250612af2565b50612a55565b5b808061281d90614da4565b9150506125f3565b505b6000811180156128345750825b801561283d5750835b80156128aa5750600b6000868152602001908152602001600020600b0160009054906101000a900473ffffffffffffffffffffffffffffffffffffffff1673ffffffffffffffffffffffffffffffffffffffff168773ffffffffffffffffffffffffffffffffffffffff16145b15612a5257600560009054906101000a900473ffffffffffffffffffffffffffffffffffffffff1673ffffffffffffffffffffffffffffffffffffffff1663d9d92d1e8633846040518463ffffffff1660e01b815260040161290e9392919061560e565b6020604051808303816000875af115801561292d573d6000803e3d6000fd5b505050506040513d601f19601f820116820180604052508101906129519190614fa9565b15612a51576129bf8688600b6000898152602001908152602001600020600a0154600b60008a815260200190815260200160002060090154600b60008b8152602001908152602001600020600801546129aa9190615645565b60405180602001604052806000815250612af2565b6129dc878787600160405180602001604052806000815250612af2565b600c6000868152602001908152602001600020869080600181540180825580915050600190039060005260206000200160009091909190916101000a81548173ffffffffffffffffffffffffffffffffffffffff021916908373ffffffffffffffffffffffffffffffffffffffff1602179055505b5b5b5b5b50505050505050565b6000600160008473ffffffffffffffffffffffffffffffffffffffff1673ffffffffffffffffffffffffffffffffffffffff16815260200190815260200160002060008373ffffffffffffffffffffffffffffffffffffffff1673ffffffffffffffffffffffffffffffffffffffff16815260200190815260200160002060009054906101000a900460ff16905092915050565b612afa61308e565b73ffffffffffffffffffffffffffffffffffffffff168573ffffffffffffffffffffffffffffffffffffffff161480612b405750612b3f85612b3a61308e565b612a5e565b5b612b7f576040517f08c379a0000000000000000000000000000000000000000000000000000000008152600401612b769061570d565b60405180910390fd5b612b8c8585858585613540565b5050505050565b601360009054906101000a900473ffffffffffffffffffffffffffffffffffffffff1673ffffffffffffffffffffffffffffffffffffffff163373ffffffffffffffffffffffffffffffffffffffff161480612c3f575060011515600e60003373ffffffffffffffffffffffffffffffffffffffff1673ffffffffffffffffffffffffffffffffffffffff16815260200190815260200160002060009054906101000a900460ff161515145b612c7e576040517f08c379a0000000000000000000000000000000000000000000000000000000008152600401612c7590614d55565b60405180910390fd5b60008311612cc1576040517f08c379a0000000000000000000000000000000000000000000000000000000008152600401612cb890615753565b60405180910390fd5b601154831115612d06576040517f08c379a0000000000000000000000000000000000000000000000000000000008152600401612cfd906157bf565b60405180910390fd5b6000600d60008581526020019081526020016000205411612d5c576040517f08c379a0000000000000000000000000000000000000000000000000000000008152600401612d539061582b565b60405180910390fd5b60005b600c600085815260200190815260200160002080549050811015612f78578273ffffffffffffffffffffffffffffffffffffffff16600c60008681526020019081526020016000208281548110612db957612db8614e7f565b5b9060005260206000200160009054906101000a900473ffffffffffffffffffffffffffffffffffffffff1673ffffffffffffffffffffffffffffffffffffffff16148015612e3357503373ffffffffffffffffffffffffffffffffffffffff168373ffffffffffffffffffffffffffffffffffffffff1614155b15612f6557612e803384600b6000888152602001908152602001600020600a0154600b60008981526020019081526020016000206009015460405180602001604052806000815250612af2565b600560009054906101000a900473ffffffffffffffffffffffffffffffffffffffff1673ffffffffffffffffffffffffffffffffffffffff16634abc9325856040518263ffffffff1660e01b8152600401612edb9190613da1565b600060405180830381600087803b158015612ef557600080fd5b505af1158015612f09573d6000803e3d6000fd5b50505050600c60008581526020019081526020016000208181548110612f3257612f31614e7f565b5b9060005260206000200160006101000a81549073ffffffffffffffffffffffffffffffffffffffff021916905550612f7a565b8080612f7090614da4565b915050612d5f565b505b505050565b600c6020528160005260406000208181548110612f9b57600080fd5b906000526020600020016000915091509054906101000a900473ffffffffffffffffffffffffffffffffffffffff1681565b600d6020528060005260406000206000915090505481565b60068181548110612ff557600080fd5b906000526020600020016000915054906101000a900473ffffffffffffffffffffffffffffffffffffffff1681565b60007f01ffc9a7000000000000000000000000000000000000000000000000000000007bffffffffffffffffffffffffffffffffffffffffffffffffffffffff1916827bffffffffffffffffffffffffffffffffffffffffffffffffffffffff1916149050919050565b600033905090565b81518351146130da576040517f08c379a00000000000000000000000000000000000000000000000000000000081526004016130d1906158bd565b60405180910390fd5b600073ffffffffffffffffffffffffffffffffffffffff168473ffffffffffffffffffffffffffffffffffffffff16141561314a576040517f08c379a00000000000000000000000000000000000000000000000000000000081526004016131419061594f565b60405180910390fd5b600061315461308e565b90506131648187878787876137c2565b60005b845181101561331557600085828151811061318557613184614e7f565b5b6020026020010151905060008583815181106131a4576131a3614e7f565b5b60200260200101519050600080600084815260200190815260200160002060008b73ffffffffffffffffffffffffffffffffffffffff1673ffffffffffffffffffffffffffffffffffffffff16815260200190815260200160002054905081811015613245576040517f08c379a000000000000000000000000000000000000000000000000000000000815260040161323c906159e1565b60405180910390fd5b81810360008085815260200190815260200160002060008c73ffffffffffffffffffffffffffffffffffffffff1673ffffffffffffffffffffffffffffffffffffffff168152602001908152602001600020819055508160008085815260200190815260200160002060008b73ffffffffffffffffffffffffffffffffffffffff1673ffffffffffffffffffffffffffffffffffffffff16815260200190815260200160002060008282546132fa9190615645565b925050819055505050508061330e90614da4565b9050613167565b508473ffffffffffffffffffffffffffffffffffffffff168673ffffffffffffffffffffffffffffffffffffffff168273ffffffffffffffffffffffffffffffffffffffff167f4a39dc06d4c0dbc64b70af90fd698a233a518aa5d07e595d983b8c0526c8f7fb878760405161338c929190615a01565b60405180910390a46133a28187878787876137ca565b505050505050565b600073ffffffffffffffffffffffffffffffffffffffff168473ffffffffffffffffffffffffffffffffffffffff16141561341a576040517f08c379a000000000000000000000000000000000000000000000000000000000815260040161341190615aaa565b60405180910390fd5b600061342461308e565b905061344581600087613436886139a2565b61343f886139a2565b876137c2565b8260008086815260200190815260200160002060008773ffffffffffffffffffffffffffffffffffffffff1673ffffffffffffffffffffffffffffffffffffffff16815260200190815260200160002060008282546134a49190615645565b925050819055508473ffffffffffffffffffffffffffffffffffffffff16600073ffffffffffffffffffffffffffffffffffffffff168273ffffffffffffffffffffffffffffffffffffffff167fc3d58168c5ae7397731d063d5bbf3d657854427343f4c083240f7aacaa2d0f628787604051613522929190615577565b60405180910390a461353981600087878787613a1c565b5050505050565b600073ffffffffffffffffffffffffffffffffffffffff168473ffffffffffffffffffffffffffffffffffffffff1614156135b0576040517f08c379a00000000000000000000000000000000000000000000000000000000081526004016135a79061594f565b60405180910390fd5b60006135ba61308e565b90506135da8187876135cb886139a2565b6135d4886139a2565b876137c2565b600080600086815260200190815260200160002060008873ffffffffffffffffffffffffffffffffffffffff1673ffffffffffffffffffffffffffffffffffffffff16815260200190815260200160002054905083811015613671576040517f08c379a0000000000000000000000000000000000000000000000000000000008152600401613668906159e1565b60405180910390fd5b83810360008087815260200190815260200160002060008973ffffffffffffffffffffffffffffffffffffffff1673ffffffffffffffffffffffffffffffffffffffff168152602001908152602001600020819055508360008087815260200190815260200160002060008873ffffffffffffffffffffffffffffffffffffffff1673ffffffffffffffffffffffffffffffffffffffff16815260200190815260200160002060008282546137269190615645565b925050819055508573ffffffffffffffffffffffffffffffffffffffff168773ffffffffffffffffffffffffffffffffffffffff168373ffffffffffffffffffffffffffffffffffffffff167fc3d58168c5ae7397731d063d5bbf3d657854427343f4c083240f7aacaa2d0f6288886040516137a3929190615577565b60405180910390a46137b9828888888888613a1c565b50505050505050565b505050505050565b6137e98473ffffffffffffffffffffffffffffffffffffffff16613bf4565b1561399a578373ffffffffffffffffffffffffffffffffffffffff1663bc197c8187878686866040518663ffffffff1660e01b815260040161382f959493929190615b1f565b6020604051808303816000875af192505050801561386b57506040513d601f19601f820116820180604052508101906138689190615b9c565b60015b61391157613877615bd6565b806308c379a014156138d4575061388c615bf8565b8061389757506138d6565b806040517f08c379a00000000000000000000000000000000000000000000000000000000081526004016138cb9190613f3d565b60405180910390fd5b505b6040517f08c379a000000000000000000000000000000000000000000000000000000000815260040161390890615d00565b60405180910390fd5b63bc197c8160e01b7bffffffffffffffffffffffffffffffffffffffffffffffffffffffff1916817bffffffffffffffffffffffffffffffffffffffffffffffffffffffff191614613998576040517f08c379a000000000000000000000000000000000000000000000000000000000815260040161398f90615d92565b60405180910390fd5b505b505050505050565b60606000600167ffffffffffffffff8111156139c1576139c0613f91565b5b6040519080825280602002602001820160405280156139ef5781602001602082028036833780820191505090505b5090508281600081518110613a0757613a06614e7f565b5b60200260200101818152505080915050919050565b613a3b8473ffffffffffffffffffffffffffffffffffffffff16613bf4565b15613bec578373ffffffffffffffffffffffffffffffffffffffff1663f23a6e6187878686866040518663ffffffff1660e01b8152600401613a81959493929190615db2565b6020604051808303816000875af1925050508015613abd57506040513d601f19601f82011682018060405250810190613aba9190615b9c565b60015b613b6357613ac9615bd6565b806308c379a01415613b265750613ade615bf8565b80613ae95750613b28565b806040517f08c379a0000000000000000000000000000000000000000000000000000000008152600401613b1d9190613f3d565b60405180910390fd5b505b6040517f08c379a0000000000000000000000000000000000000000000000000000000008152600401613b5a90615d00565b60405180910390fd5b63f23a6e6160e01b7bffffffffffffffffffffffffffffffffffffffffffffffffffffffff1916817bffffffffffffffffffffffffffffffffffffffffffffffffffffffff191614613bea576040517f08c379a0000000000000000000000000000000000000000000000000000000008152600401613be190615d92565b60405180910390fd5b505b505050505050565b600080823b905060008111915050919050565b828054613c1390614c45565b90600052602060002090601f016020900481019282613c355760008555613c7c565b82601f10613c4e57805160ff1916838001178555613c7c565b82800160010185558215613c7c579182015b82811115613c7b578251825591602001919060010190613c60565b5b509050613c899190613c8d565b5090565b5b80821115613ca6576000816000905550600101613c8e565b5090565b6000604051905090565b600080fd5b600080fd5b600073ffffffffffffffffffffffffffffffffffffffff82169050919050565b6000613ce982613cbe565b9050919050565b613cf981613cde565b8114613d0457600080fd5b50565b600081359050613d1681613cf0565b92915050565b6000819050919050565b613d2f81613d1c565b8114613d3a57600080fd5b50565b600081359050613d4c81613d26565b92915050565b60008060408385031215613d6957613d68613cb4565b5b6000613d7785828601613d07565b9250506020613d8885828601613d3d565b9150509250929050565b613d9b81613d1c565b82525050565b6000602082019050613db66000830184613d92565b92915050565b600060208284031215613dd257613dd1613cb4565b5b6000613de084828501613d07565b91505092915050565b60008115159050919050565b613dfe81613de9565b82525050565b6000602082019050613e196000830184613df5565b92915050565b60007fffffffff0000000000000000000000000000000000000000000000000000000082169050919050565b613e5481613e1f565b8114613e5f57600080fd5b50565b600081359050613e7181613e4b565b92915050565b600060208284031215613e8d57613e8c613cb4565b5b6000613e9b84828501613e62565b91505092915050565b600081519050919050565b600082825260208201905092915050565b60005b83811015613ede578082015181840152602081019050613ec3565b83811115613eed576000848401525b50505050565b6000601f19601f8301169050919050565b6000613f0f82613ea4565b613f198185613eaf565b9350613f29818560208601613ec0565b613f3281613ef3565b840191505092915050565b60006020820190508181036000830152613f578184613f04565b905092915050565b600060208284031215613f7557613f74613cb4565b5b6000613f8384828501613d3d565b91505092915050565b600080fd5b7f4e487b7100000000000000000000000000000000000000000000000000000000600052604160045260246000fd5b613fc982613ef3565b810181811067ffffffffffffffff82111715613fe857613fe7613f91565b5b80604052505050565b6000613ffb613caa565b90506140078282613fc0565b919050565b600067ffffffffffffffff82111561402757614026613f91565b5b602082029050602081019050919050565b600080fd5b600061405061404b8461400c565b613ff1565b9050808382526020820190506020840283018581111561407357614072614038565b5b835b8181101561409c57806140888882613d3d565b845260208401935050602081019050614075565b5050509392505050565b600082601f8301126140bb576140ba613f8c565b5b81356140cb84826020860161403d565b91505092915050565b600080fd5b600067ffffffffffffffff8211156140f4576140f3613f91565b5b6140fd82613ef3565b9050602081019050919050565b82818337600083830152505050565b600061412c614127846140d9565b613ff1565b905082815260208101848484011115614148576141476140d4565b5b61415384828561410a565b509392505050565b600082601f8301126141705761416f613f8c565b5b8135614180848260208601614119565b91505092915050565b600080600080600060a086880312156141a5576141a4613cb4565b5b60006141b388828901613d07565b95505060206141c488828901613d07565b945050604086013567ffffffffffffffff8111156141e5576141e4613cb9565b5b6141f1888289016140a6565b935050606086013567ffffffffffffffff81111561421257614211613cb9565b5b61421e888289016140a6565b925050608086013567ffffffffffffffff81111561423f5761423e613cb9565b5b61424b8882890161415b565b9150509295509295909350565b600067ffffffffffffffff82111561427357614272613f91565b5b61427c82613ef3565b9050602081019050919050565b600061429c61429784614258565b613ff1565b9050828152602081018484840111156142b8576142b76140d4565b5b6142c384828561410a565b509392505050565b600082601f8301126142e0576142df613f8c565b5b81356142f0848260208601614289565b91505092915050565b60008060006060848603121561431257614311613cb4565b5b600061432086828701613d3d565b935050602084013567ffffffffffffffff81111561434157614340613cb9565b5b61434d868287016142cb565b925050604084013567ffffffffffffffff81111561436e5761436d613cb9565b5b61437a868287016142cb565b9150509250925092565b60006060820190506143996000830186613d92565b81810360208301526143ab8185613f04565b905081810360408301526143bf8184613f04565b9050949350505050565b600067ffffffffffffffff8211156143e4576143e3613f91565b5b602082029050602081019050919050565b6000614408614403846143c9565b613ff1565b9050808382526020820190506020840283018581111561442b5761442a614038565b5b835b8181101561445457806144408882613d07565b84526020840193505060208101905061442d565b5050509392505050565b600082601f83011261447357614472613f8c565b5b81356144838482602086016143f5565b91505092915050565b600080604083850312156144a3576144a2613cb4565b5b600083013567ffffffffffffffff8111156144c1576144c0613cb9565b5b6144cd8582860161445e565b925050602083013567ffffffffffffffff8111156144ee576144ed613cb9565b5b6144fa858286016140a6565b9150509250929050565b600081519050919050565b600082825260208201905092915050565b6000819050602082019050919050565b61453981613d1c565b82525050565b600061454b8383614530565b60208301905092915050565b6000602082019050919050565b600061456f82614504565b614579818561450f565b935061458483614520565b8060005b838110156145b557815161459c888261453f565b97506145a783614557565b925050600181019050614588565b5085935050505092915050565b600060208201905081810360008301526145dc8184614564565b905092915050565b6145ed81613de9565b81146145f857600080fd5b50565b60008135905061460a816145e4565b92915050565b6000806040838503121561462757614626613cb4565b5b600061463585828601613d07565b9250506020614646858286016145fb565b9150509250929050565b60008060008060008060c0878903121561466d5761466c613cb4565b5b600061467b89828a01613d3d565b965050602061468c89828a01613d3d565b955050604087013567ffffffffffffffff8111156146ad576146ac613cb9565b5b6146b989828a016142cb565b945050606087013567ffffffffffffffff8111156146da576146d9613cb9565b5b6146e689828a016142cb565b935050608087013567ffffffffffffffff81111561470757614706613cb9565b5b61471389828a016142cb565b92505060a061472489828a01613d3d565b9150509295509295509295565b600082825260208201905092915050565b600061474d82613ea4565b6147578185614731565b9350614767818560208601613ec0565b61477081613ef3565b840191505092915050565b61478481613cde565b82525050565b600060a0830160008301516147a26000860182614530565b50602083015184820360208601526147ba8282614742565b915050604083015184820360408601526147d48282614742565b91505060608301516147e96060860182614530565b5060808301516147fc608086018261477b565b508091505092915050565b61481081613cde565b82525050565b60006101008201905061482c600083018b613d92565b818103602083015261483e818a61478a565b905081810360408301526148528189613f04565b905081810360608301526148668188613f04565b90506148756080830187613d92565b61488260a0830186613d92565b61488f60c0830185613d92565b61489c60e0830184614807565b9998505050505050505050565b600060a0820190506148be6000830188613d92565b81810360208301526148d08187613f04565b905081810360408301526148e48186613f04565b90506148f36060830185613d92565b6149006080830184614807565b9695505050505050565b600060208201905061491f6000830184614807565b92915050565b60008060006060848603121561493e5761493d613cb4565b5b600061494c86828701613d07565b935050602061495d86828701613d3d565b925050604061496e86828701613d3d565b9150509250925092565b600080600080600080600060e0888a03121561499757614996613cb4565b5b60006149a58a828b01613d07565b97505060206149b68a828b01613d07565b96505060406149c78a828b01613d3d565b95505060606149d88a828b016145fb565b94505060806149e98a828b016145fb565b93505060a06149fa8a828b01613d3d565b92505060c0614a0b8a828b01613d3d565b91505092959891949750929550565b60008060408385031215614a3157614a30613cb4565b5b6000614a3f85828601613d07565b9250506020614a5085828601613d07565b9150509250929050565b600080600080600060a08688031215614a7657614a75613cb4565b5b6000614a8488828901613d07565b9550506020614a9588828901613d07565b9450506040614aa688828901613d3d565b9350506060614ab788828901613d3d565b925050608086013567ffffffffffffffff811115614ad857614ad7613cb9565b5b614ae48882890161415b565b9150509295509295909350565b600080600060608486031215614b0a57614b09613cb4565b5b6000614b1886828701613d3d565b9350506020614b2986828701613d07565b9250506040614b3a86828701613d3d565b9150509250925092565b60008060408385031215614b5b57614b5a613cb4565b5b6000614b6985828601613d3d565b9250506020614b7a85828601613d3d565b9150509250929050565b7f455243313135353a2062616c616e636520717565727920666f7220746865207a60008201527f65726f2061646472657373000000000000000000000000000000000000000000602082015250565b6000614be0602b83613eaf565b9150614beb82614b84565b604082019050919050565b60006020820190508181036000830152614c0f81614bd3565b9050919050565b7f4e487b7100000000000000000000000000000000000000000000000000000000600052602260045260246000fd5b60006002820490506001821680614c5d57607f821691505b60208210811415614c7157614c70614c16565b5b50919050565b7f455243313135353a207472616e736665722063616c6c6572206973206e6f742060008201527f6f776e6572206e6f7220617070726f7665640000000000000000000000000000602082015250565b6000614cd3603283613eaf565b9150614cde82614c77565b604082019050919050565b60006020820190508181036000830152614d0281614cc6565b9050919050565b7f536f6c6f20696c2070726f70726965746172696f000000000000000000000000600082015250565b6000614d3f601483613eaf565b9150614d4a82614d09565b602082019050919050565b60006020820190508181036000830152614d6e81614d32565b9050919050565b7f4e487b7100000000000000000000000000000000000000000000000000000000600052601160045260246000fd5b6000614daf82613d1c565b91507fffffffffffffffffffffffffffffffffffffffffffffffffffffffffffffffff821415614de257614de1614d75565b5b600182019050919050565b7f455243313135353a206163636f756e747320616e6420696473206c656e67746860008201527f206d69736d617463680000000000000000000000000000000000000000000000602082015250565b6000614e49602983613eaf565b9150614e5482614ded565b604082019050919050565b60006020820190508181036000830152614e7881614e3c565b9050919050565b7f4e487b7100000000000000000000000000000000000000000000000000000000600052603260045260246000fd5b7f436f696e204e6f74206578697374000000000000000000000000000000000000600082015250565b6000614ee4600e83613eaf565b9150614eef82614eae565b602082019050919050565b60006020820190508181036000830152614f1381614ed7565b9050919050565b7f417661696c61626c650000000000000000000000000000000000000000000000600082015250565b6000614f50600983613eaf565b9150614f5b82614f1a565b602082019050919050565b6000604082019050614f7b6000830184613d92565b8181036020830152614f8c81614f43565b905092915050565b600081519050614fa3816145e4565b92915050565b600060208284031215614fbf57614fbe613cb4565b5b6000614fcd84828501614f94565b91505092915050565b6000819050919050565b6000819050919050565b6000615005615000614ffb84614fd6565b614fe0565b613d1c565b9050919050565b61501581614fea565b82525050565b600060a0820190506150306000830188613d92565b81810360208301526150428187613f04565b905081810360408301526150568186613f04565b9050615065606083018561500c565b6150726080830184614807565b9695505050505050565b60008160001c9050919050565b6000819050919050565b60006150a66150a18361507c565b615089565b9050919050565b60008190508160005260206000209050919050565b600081546150cf81614c45565b6150d98186614731565b945060018216600081146150f4576001811461510657615139565b60ff1983168652602086019350615139565b61510f856150ad565b60005b8381101561513157815481890152600182019150602081019050615112565b808801955050505b50505092915050565b600073ffffffffffffffffffffffffffffffffffffffff82169050919050565b60006151756151708361507c565b615142565b9050919050565b600060a08301600080840154905061519381615093565b6151a06000870182614530565b506001840185830360208701526151b783826150c2565b9250506002840185830360408701526151d083826150c2565b925050600384015490506151e381615093565b6151f06060870182614530565b506004840154905061520181615162565b61520e608087018261477b565b50819250505092915050565b600060e08201905061522f600083018a613d92565b8181036020830152615241818961517c565b905081810360408301526152558188613f04565b905081810360608301526152698187613f04565b90506152786080830186613d92565b61528560a0830185613d92565b61529260c0830184613d92565b98975050505050505050565b7f455243313135353a2073657474696e6720617070726f76616c2073746174757360008201527f20666f722073656c660000000000000000000000000000000000000000000000602082015250565b60006152fa602983613eaf565b91506153058261529e565b604082019050919050565b60006020820190508181036000830152615329816152ed565b9050919050565b600081905092915050565b60008190508160005260206000209050919050565b6000815461535d81614c45565b6153678186615330565b945060018216600081146153825760018114615393576153c6565b60ff198316865281860193506153c6565b61539c8561533b565b60005b838110156153be5781548189015260018201915060208101905061539f565b838801955050505b50505092915050565b60006153db8284615350565b915081905092915050565b7f746f6b656e206e6f742074727565000000000000000000000000000000000000600082015250565b600061541c600e83613eaf565b9150615427826153e6565b602082019050919050565b6000602082019050818103600083015261544b8161540f565b9050919050565b600061546561546084614258565b613ff1565b905082815260208101848484011115615481576154806140d4565b5b61548c848285613ec0565b509392505050565b600082601f8301126154a9576154a8613f8c565b5b81516154b9848260208601615452565b91505092915050565b6000602082840312156154d8576154d7613cb4565b5b600082015167ffffffffffffffff8111156154f6576154f5613cb9565b5b61550284828501615494565b91505092915050565b7f746f6b656e2069732077616974696e6720000000000000000000000000000000600082015250565b6000615541601183613eaf565b915061554c8261550b565b602082019050919050565b6000602082019050818103600083015261557081615534565b9050919050565b600060408201905061558c6000830185613d92565b6155996020830184613d92565b9392505050565b60006080820190506155b56000830187613d92565b6155c26020830186613d92565b6155cf6040830185613d92565b6155dc6060830184614807565b95945050505050565b60006040820190506155fa6000830185613d92565b6156076020830184614807565b9392505050565b60006060820190506156236000830186613d92565b6156306020830185614807565b61563d6040830184613d92565b949350505050565b600061565082613d1c565b915061565b83613d1c565b9250827fffffffffffffffffffffffffffffffffffffffffffffffffffffffffffffffff038211156156905761568f614d75565b5b828201905092915050565b7f455243313135353a2063616c6c6572206973206e6f74206f776e6572206e6f7260008201527f20617070726f7665640000000000000000000000000000000000000000000000602082015250565b60006156f7602983613eaf565b91506157028261569b565b604082019050919050565b60006020820190508181036000830152615726816156ea565b9050919050565b50565b600061573d600083613eaf565b91506157488261572d565b600082019050919050565b6000602082019050818103600083015261576c81615730565b9050919050565b7f6974656d206e6f74206578697374730000000000000000000000000000000000600082015250565b60006157a9600f83613eaf565b91506157b482615773565b602082019050919050565b600060208201905081810360008301526157d88161579c565b9050919050565b7f546f6b656e206e6f742065786973747300000000000000000000000000000000600082015250565b6000615815601083613eaf565b9150615820826157df565b602082019050919050565b6000602082019050818103600083015261584481615808565b9050919050565b7f455243313135353a2069647320616e6420616d6f756e7473206c656e6774682060008201527f6d69736d61746368000000000000000000000000000000000000000000000000602082015250565b60006158a7602883613eaf565b91506158b28261584b565b604082019050919050565b600060208201905081810360008301526158d68161589a565b9050919050565b7f455243313135353a207472616e7366657220746f20746865207a65726f20616460008201527f6472657373000000000000000000000000000000000000000000000000000000602082015250565b6000615939602583613eaf565b9150615944826158dd565b604082019050919050565b600060208201905081810360008301526159688161592c565b9050919050565b7f455243313135353a20696e73756666696369656e742062616c616e636520666f60008201527f72207472616e7366657200000000000000000000000000000000000000000000602082015250565b60006159cb602a83613eaf565b91506159d68261596f565b604082019050919050565b600060208201905081810360008301526159fa816159be565b9050919050565b60006040820190508181036000830152615a1b8185614564565b90508181036020830152615a2f8184614564565b90509392505050565b7f455243313135353a206d696e7420746f20746865207a65726f2061646472657360008201527f7300000000000000000000000000000000000000000000000000000000000000602082015250565b6000615a94602183613eaf565b9150615a9f82615a38565b604082019050919050565b60006020820190508181036000830152615ac381615a87565b9050919050565b600081519050919050565b600082825260208201905092915050565b6000615af182615aca565b615afb8185615ad5565b9350615b0b818560208601613ec0565b615b1481613ef3565b840191505092915050565b600060a082019050615b346000830188614807565b615b416020830187614807565b8181036040830152615b538186614564565b90508181036060830152615b678185614564565b90508181036080830152615b7b8184615ae6565b90509695505050505050565b600081519050615b9681613e4b565b92915050565b600060208284031215615bb257615bb1613cb4565b5b6000615bc084828501615b87565b91505092915050565b60008160e01c9050919050565b600060033d1115615bf55760046000803e615bf2600051615bc9565b90505b90565b600060443d1015615c0857615c8b565b615c10613caa565b60043d036004823e80513d602482011167ffffffffffffffff82111715615c38575050615c8b565b808201805167ffffffffffffffff811115615c565750505050615c8b565b80602083010160043d038501811115615c73575050505050615c8b565b615c8282602001850186613fc0565b82955050505050505b90565b7f455243313135353a207472616e7366657220746f206e6f6e204552433131353560008201527f526563656976657220696d706c656d656e746572000000000000000000000000602082015250565b6000615cea603483613eaf565b9150615cf582615c8e565b604082019050919050565b60006020820190508181036000830152615d1981615cdd565b9050919050565b7f455243313135353a204552433131353552656365697665722072656a6563746560008201527f6420746f6b656e73000000000000000000000000000000000000000000000000602082015250565b6000615d7c602883613eaf565b9150615d8782615d20565b604082019050919050565b60006020820190508181036000830152615dab81615d6f565b9050919050565b600060a082019050615dc76000830188614807565b615dd46020830187614807565b615de16040830186613d92565b615dee6060830185613d92565b8181036080830152615e008184615ae6565b9050969550505050505056fea2646970667358221220f4d6d61e257f30a046fa26f7ea8d3d013b1aec784534f8a58f0d80cdaa5471a864736f6c634300080a0033",
  "immutableReferences": {},
  "source": "// contracts/LoanItem.sol\n// SPDX-License-Identifier: MIT\npragma solidity ^0.8.0;\n\nimport \"@openzeppelin/contracts/token/ERC1155/ERC1155.sol\";\nimport\"./LitemCalendar.sol\";\ncontract LoanItem is ERC1155{\n    \n    string public name = \"LoanItem\";\n    string  public symbol = \"LI\";\n    Calendar Calendario;\n    \n    address[] public stakers;\n    mapping(address => uint) public stakingBalance;\n    mapping(address => bool) public hasStaked;\n    mapping(address => bool) public isStaking;\n    \n   \n     mapping(uint => Image)public images;\n     mapping(uint => TokenNFT)public tokenId;\n     mapping(uint256=>address[]) public CautionId;\n     mapping(uint256 => uint256) public ids;\n\n     mapping(address => bool) public permissions;\n\n     mapping(uint256 => CoinFT) public CoinId;\n     mapping(uint256 => uint256) public Cds;\n   \n\n\n    struct Image {\n      uint id;\n      string hash;\n      string description;\n      uint tokenId;\n      address author;\n    }\n\n    event ImageCreated(\n      uint id,\n      string hash,\n      string description,\n      uint tokenId,\n      address  author\n      );\n\n     struct TokenNFT {\n      uint id;\n      Image  phots;\n      string description;\n      string namet;\n      uint256 pricel;\n      uint256 caution;\n      uint256 Cid;\n      address own;\n      \n      \n    }\n    event TokenNFTCreated(\n      uint id,\n      Image  phots,\n      string description,\n      string namet,\n      uint256 pricel,\n      uint256 caution,\n      uint256 Cid\n      );\n\n     struct CoinFT {\n      uint id;\n      //Image  phots;\n      string description;\n      string namec;\n    }\n    event CoinFTCreated(\n      uint id,\n      //Image  phots,\n      string description,\n      string namec\n      );\n\n\n    uint256 public countAttrezzi;\n    uint256 public imageCount;\n    address public owner;\n   \n\n  constructor(address _owner,Calendar Cad) public ERC1155(\"\") {  \n         owner = _owner;\n         permissions[owner]= true;\n         Calendario = Cad;\n         }\n    \n\n\n // function addMoreCoin()public{}\n\n\n  function addNewCoin( uint256 value,string memory Name,string memory description )external {\n          require (msg.sender == owner || permissions[msg.sender]== true , \"Solo il proprietario\");\n          require(bytes(Name).length>0);\n          require(value>0);\n          countAttrezzi++;\n         _mint(msg.sender, countAttrezzi, value, \"\");\n          Cds[countAttrezzi]= countAttrezzi;\n          CoinId[countAttrezzi]= CoinFT(countAttrezzi,description,Name);\n          emit CoinFTCreated(countAttrezzi,description,Name);\n      } \n\n\n\n    modifier propriety(){ \n\n        require (msg.sender == owner || permissions[msg.sender]== true , \"Solo il proprietario\");       \n        _;\n    }\n      function setPermissions(address ute,bool setting) external propriety {\n\n      \n        permissions[ute]= setting;\n\n      }\n    \n\n      function addNewItem(uint256 price,uint256 caution,string memory _imgHash,string memory _description, string memory namef,uint256 Cid) external propriety {\n     \n      \n        require(caution > 0);\n        require(bytes(namef).length > 0);\n        require((price) > 0);\n        require(bytes(_description).length > 0);\n        require(bytes(_imgHash).length > 0);\n        require(msg.sender != address(0x0));\n        require(bytes(CoinId[Cid].namec).length > 0,\"Coin Not exist\");//controllo che il coin esiste aggiungere che il coin esiste\n\n        imageCount ++;\n        countAttrezzi++;\n       \n        Calendario.setAvailable(countAttrezzi,\"Available\"); \n     \n\n      \n        ids[countAttrezzi]=countAttrezzi;\n          \n        _mint(msg.sender, ids[countAttrezzi], 1, \"\");\n  \n  \n        images[imageCount] = Image(imageCount,_imgHash,_description,0,owner);\n        tokenId[countAttrezzi] = TokenNFT(countAttrezzi,images[imageCount],_description,namef,price,caution,Cid,msg.sender);\n        //causa l'evento \n        emit ImageCreated(imageCount,_imgHash,_description,0,owner);\n        emit TokenNFTCreated(countAttrezzi,images[imageCount],_description,namef,price,caution,Cid);    \n    }\n   \n      function TrasferTest(address _from, address _to, uint256 _id,bool pre,bool acq,uint256 dateS,uint256 dateF) external {\n\n        //aggiungere il metodo che controlla le prenotazioni \n\n          //require(address(_from)!=address(0x0), \"address _from is 0x0\");\n          //require(address(_to)!=address(0x0), \"address _to is 0x0\");\n          require(keccak256(bytes(tokenId[_id].namet))> 0, \"token not true\");  \n          require(keccak256(bytes(Calendario.Available(_id))) != keccak256(bytes(\"Waiting\")),\"token is waiting \");\n          \n          //fare che pre end acq devono essere entrambi falsi\n          if(dateS>0 &&_to == tokenId[_id].own &&!(acq) && !(pre)   && keccak256(bytes(Calendario.Available(_id))) == keccak256(bytes(\"Busy\"))){\n            //riconsegna item\n            if(Calendario.Back(_id,dateS)){\n            safeTransferFrom( _from,_to, _id,1,\"\");\n            //CautionId[_id].push(_from);\n            return;\n          }\n            }\n            /*else if(_to == tokenId[_id].own  && keccak256(bytes(Calendario.Available(_id))) == keccak256(bytes(\"Preordered\"))){\n              //caso in cui voglio cancellare una prenotazione\n              return;\n            }*/\n            else if(_from == tokenId[_id].own/*&& Calendario.CheckAvialable()*/){\n              if(pre && !(acq) && dateF>0){//preOrder pago la cauzione in anticipo\n                      \n                if(Calendario.Pre_Order(dateS,dateF,_id,msg.sender)) {\n                 safeTransferFrom( _to,_from,tokenId[_id].Cid,tokenId[_id].caution,\"\");\n                 CautionId[_id].push(_to);\n                 return;\n              }\n                return;\n            }\n              if(acq && !(pre)){ \n\n                for(uint256 i; i < CautionId[_id].length;i++){\n                if(CautionId[_id][i]== msg.sender){\n                //per fare l'acquire di un oggetto prenotato devo verificare la data inizio\n                //e poi pagare l'oggetto \n                if(Calendario.AcquirePre(_id,msg.sender) && _from==tokenId[_id].own){\n                   safeTransferFrom( _to,_from,tokenId[_id].Cid,tokenId[_id].pricel,\"\");\n                   safeTransferFrom( _from,_to, _id,1,\"\");\n                    return;\n              }}}\n                \n              }\n\n              //in caso di acquisto normale \n              if(dateF>0 && acq && pre && _from== tokenId[_id].own){\n              if(Calendario.Acquire(_id,msg.sender,dateF)){\n              safeTransferFrom( _to,_from,tokenId[_id].Cid,tokenId[_id].pricel+tokenId[_id].caution,\"\");  \n              safeTransferFrom( _from,_to, _id,1,\"\");\n              CautionId[_id].push(_to);\n            }}}\n          return;\n      }\n  \n      \n      function GiveToken(address _to,uint256 coin,uint256 value) external propriety {\n        \n        safeTransferFrom( msg.sender,_to, coin,100000000000000000000,\"\");\n      }\n\n      function ReleseW(uint256 _id,address _usr, uint256 _caution )  external propriety{\n    //si potrebbe gestire il caso in cui la cauzione restituita sia variabile\n        require(_id>0,\"\");\n        require(_id<=countAttrezzi,\"item not exists\");\n        require(ids[_id]>0,\"Token not exists\" );\n       \n\n       \n       for(uint256 i; i<CautionId[_id].length;i++){\n        if(CautionId[_id][i]==_usr && _usr!=msg.sender){\n        safeTransferFrom( msg.sender,_usr, tokenId[_id].Cid, tokenId[_id].caution,\"\");\n        Calendario.Relese(_id);\n        delete CautionId[_id][i];\n         return;\n         }}\n         \n      }\n      /*\n    function WaitingUsr(uint256 _id) public returns(address){\n   \n   for(uint256 i; i<Calendario.Orders();i++){\n    if(CautionId[_id][i] != address(0x0)){\n      i = Calendario.Orders();\n      return CautionId[_id][i];\n\n   }\n\n    }\n   return address(0x0);\n    }*/\n    }\n\n\n\n\n\n\n\n\n\n",
  "sourcePath": "C:/Users/Luca/Desktop/tesi/My-tesi/src/contracts/LoanItem.sol",
  "compiler": {
    "name": "solc",
    "version": "0.8.10+commit.fc410830.Emscripten.clang"
  },
  "schemaVersion": "3.4.1",
  "updatedAt": "2021-12-08T20:09:23.457Z",
  "networkType": "ethereum",
  "devdoc": {
    "kind": "dev",
    "methods": {
      "balanceOf(address,uint256)": {
        "details": "See {IERC1155-balanceOf}. Requirements: - `account` cannot be the zero address."
      },
      "balanceOfBatch(address[],uint256[])": {
        "details": "See {IERC1155-balanceOfBatch}. Requirements: - `accounts` and `ids` must have the same length."
      },
      "isApprovedForAll(address,address)": {
        "details": "See {IERC1155-isApprovedForAll}."
      },
      "safeBatchTransferFrom(address,address,uint256[],uint256[],bytes)": {
        "details": "See {IERC1155-safeBatchTransferFrom}."
      },
      "safeTransferFrom(address,address,uint256,uint256,bytes)": {
        "details": "See {IERC1155-safeTransferFrom}."
      },
      "setApprovalForAll(address,bool)": {
        "details": "See {IERC1155-setApprovalForAll}."
      },
      "supportsInterface(bytes4)": {
        "details": "See {IERC165-supportsInterface}."
      },
      "uri(uint256)": {
        "details": "See {IERC1155MetadataURI-uri}. This implementation returns the same URI for *all* token types. It relies on the token type ID substitution mechanism https://eips.ethereum.org/EIPS/eip-1155#metadata[defined in the EIP]. Clients calling this function must replace the `\\{id\\}` substring with the actual token type ID."
      }
    },
    "version": 1
  },
  "userdoc": {
    "kind": "user",
    "methods": {},
    "version": 1
  }
}