{
  "contractName": "LoanItem",
  "abi": [
    {
      "inputs": [
        {
          "internalType": "address",
          "name": "_owner",
          "type": "address"
        },
        {
          "internalType": "contract Calendar",
          "name": "Cad",
          "type": "address"
        }
      ],
      "stateMutability": "nonpayable",
      "type": "constructor"
    },
    {
      "anonymous": false,
      "inputs": [
        {
          "indexed": false,
          "internalType": "contract ItemTemplate",
          "name": "Item",
          "type": "address"
        },
        {
          "indexed": false,
          "internalType": "address",
          "name": "addr",
          "type": "address"
        },
        {
          "indexed": false,
          "internalType": "uint256",
          "name": "CoinId",
          "type": "uint256"
        },
        {
          "indexed": false,
          "internalType": "uint256",
          "name": "price",
          "type": "uint256"
        },
        {
          "indexed": false,
          "internalType": "uint256",
          "name": "caution",
          "type": "uint256"
        },
        {
          "indexed": false,
          "internalType": "string",
          "name": "place",
          "type": "string"
        },
        {
          "indexed": false,
          "internalType": "uint256",
          "name": "time",
          "type": "uint256"
        }
      ],
      "name": "LoanCreated",
      "type": "event"
    },
    {
      "anonymous": false,
      "inputs": [
        {
          "indexed": false,
          "internalType": "address",
          "name": "from",
          "type": "address"
        },
        {
          "indexed": false,
          "internalType": "address",
          "name": "to",
          "type": "address"
        },
        {
          "indexed": false,
          "internalType": "address",
          "name": "item",
          "type": "address"
        },
        {
          "indexed": false,
          "internalType": "uint256",
          "name": "time",
          "type": "uint256"
        },
        {
          "indexed": false,
          "internalType": "uint256",
          "name": "timeS",
          "type": "uint256"
        },
        {
          "indexed": false,
          "internalType": "uint256",
          "name": "timeE",
          "type": "uint256"
        },
        {
          "indexed": false,
          "internalType": "uint256",
          "name": "idOrder",
          "type": "uint256"
        },
        {
          "indexed": false,
          "internalType": "string",
          "name": "staus",
          "type": "string"
        }
      ],
      "name": "LoanPre",
      "type": "event"
    },
    {
      "anonymous": false,
      "inputs": [
        {
          "indexed": false,
          "internalType": "contract ItemTemplate",
          "name": "Item",
          "type": "address"
        },
        {
          "indexed": false,
          "internalType": "address",
          "name": "addr",
          "type": "address"
        },
        {
          "indexed": false,
          "internalType": "uint256",
          "name": "CoinId",
          "type": "uint256"
        },
        {
          "indexed": false,
          "internalType": "uint256",
          "name": "price",
          "type": "uint256"
        },
        {
          "indexed": false,
          "internalType": "string",
          "name": "place",
          "type": "string"
        },
        {
          "indexed": false,
          "internalType": "uint256",
          "name": "time",
          "type": "uint256"
        }
      ],
      "name": "SellingCreated",
      "type": "event"
    },
    {
      "anonymous": false,
      "inputs": [
        {
          "indexed": false,
          "internalType": "address",
          "name": "from",
          "type": "address"
        },
        {
          "indexed": false,
          "internalType": "address",
          "name": "to",
          "type": "address"
        },
        {
          "indexed": false,
          "internalType": "uint256",
          "name": "price",
          "type": "uint256"
        },
        {
          "indexed": false,
          "internalType": "uint256",
          "name": "time",
          "type": "uint256"
        },
        {
          "indexed": false,
          "internalType": "address",
          "name": "itemaddr",
          "type": "address"
        }
      ],
      "name": "SoldItem",
      "type": "event"
    },
    {
      "inputs": [
        {
          "internalType": "uint256",
          "name": "",
          "type": "uint256"
        },
        {
          "internalType": "uint256",
          "name": "",
          "type": "uint256"
        }
      ],
      "name": "CautionId",
      "outputs": [
        {
          "internalType": "address",
          "name": "",
          "type": "address"
        }
      ],
      "stateMutability": "view",
      "type": "function"
    },
    {
      "inputs": [
        {
          "internalType": "uint256",
          "name": "",
          "type": "uint256"
        }
      ],
      "name": "Cds",
      "outputs": [
        {
          "internalType": "uint256",
          "name": "",
          "type": "uint256"
        }
      ],
      "stateMutability": "view",
      "type": "function"
    },
    {
      "inputs": [
        {
          "internalType": "address",
          "name": "",
          "type": "address"
        }
      ],
      "name": "LoanItem",
      "outputs": [
        {
          "internalType": "bool",
          "name": "",
          "type": "bool"
        }
      ],
      "stateMutability": "view",
      "type": "function"
    },
    {
      "inputs": [
        {
          "internalType": "uint256",
          "name": "",
          "type": "uint256"
        }
      ],
      "name": "PreLItem",
      "outputs": [
        {
          "internalType": "address",
          "name": "from",
          "type": "address"
        },
        {
          "internalType": "address",
          "name": "to",
          "type": "address"
        },
        {
          "internalType": "address",
          "name": "item",
          "type": "address"
        },
        {
          "internalType": "uint256",
          "name": "time",
          "type": "uint256"
        },
        {
          "internalType": "uint256",
          "name": "timeS",
          "type": "uint256"
        },
        {
          "internalType": "uint256",
          "name": "timeE",
          "type": "uint256"
        },
        {
          "internalType": "uint256",
          "name": "idOrder",
          "type": "uint256"
        }
      ],
      "stateMutability": "view",
      "type": "function"
    },
    {
      "inputs": [
        {
          "internalType": "address",
          "name": "",
          "type": "address"
        }
      ],
      "name": "SellItem",
      "outputs": [
        {
          "internalType": "bool",
          "name": "",
          "type": "bool"
        }
      ],
      "stateMutability": "view",
      "type": "function"
    },
    {
      "inputs": [
        {
          "internalType": "uint256",
          "name": "",
          "type": "uint256"
        }
      ],
      "name": "SellingItem",
      "outputs": [
        {
          "internalType": "contract ItemTemplate",
          "name": "Item",
          "type": "address"
        },
        {
          "internalType": "address",
          "name": "addr",
          "type": "address"
        },
        {
          "internalType": "uint256",
          "name": "CoinId",
          "type": "uint256"
        },
        {
          "internalType": "uint256",
          "name": "price",
          "type": "uint256"
        },
        {
          "internalType": "string",
          "name": "place",
          "type": "string"
        }
      ],
      "stateMutability": "view",
      "type": "function"
    },
    {
      "inputs": [
        {
          "internalType": "address",
          "name": "",
          "type": "address"
        },
        {
          "internalType": "uint256",
          "name": "",
          "type": "uint256"
        }
      ],
      "name": "UserLoaningItem",
      "outputs": [
        {
          "internalType": "contract ItemTemplate",
          "name": "Item",
          "type": "address"
        },
        {
          "internalType": "address",
          "name": "addr",
          "type": "address"
        },
        {
          "internalType": "uint256",
          "name": "CoinId",
          "type": "uint256"
        },
        {
          "internalType": "uint256",
          "name": "price",
          "type": "uint256"
        },
        {
          "internalType": "uint256",
          "name": "caution",
          "type": "uint256"
        },
        {
          "internalType": "string",
          "name": "place",
          "type": "string"
        }
      ],
      "stateMutability": "view",
      "type": "function"
    },
    {
      "inputs": [
        {
          "internalType": "address",
          "name": "",
          "type": "address"
        },
        {
          "internalType": "uint256",
          "name": "",
          "type": "uint256"
        }
      ],
      "name": "UserSellingItem",
      "outputs": [
        {
          "internalType": "contract ItemTemplate",
          "name": "Item",
          "type": "address"
        },
        {
          "internalType": "address",
          "name": "addr",
          "type": "address"
        },
        {
          "internalType": "uint256",
          "name": "CoinId",
          "type": "uint256"
        },
        {
          "internalType": "uint256",
          "name": "price",
          "type": "uint256"
        },
        {
          "internalType": "string",
          "name": "place",
          "type": "string"
        }
      ],
      "stateMutability": "view",
      "type": "function"
    },
    {
      "inputs": [],
      "name": "owner",
      "outputs": [
        {
          "internalType": "address",
          "name": "",
          "type": "address"
        }
      ],
      "stateMutability": "view",
      "type": "function"
    },
    {
      "inputs": [
        {
          "internalType": "address",
          "name": "",
          "type": "address"
        }
      ],
      "name": "permissions",
      "outputs": [
        {
          "internalType": "bool",
          "name": "",
          "type": "bool"
        }
      ],
      "stateMutability": "view",
      "type": "function"
    },
    {
      "inputs": [
        {
          "internalType": "address",
          "name": "itemaddr",
          "type": "address"
        },
        {
          "internalType": "address",
          "name": "buyer",
          "type": "address"
        }
      ],
      "name": "SellIt",
      "outputs": [],
      "stateMutability": "nonpayable",
      "type": "function"
    },
    {
      "inputs": [
        {
          "internalType": "address",
          "name": "itemaddr",
          "type": "address"
        },
        {
          "internalType": "uint256",
          "name": "Price",
          "type": "uint256"
        },
        {
          "internalType": "string",
          "name": "PLace",
          "type": "string"
        }
      ],
      "name": "AddToSellItem",
      "outputs": [],
      "stateMutability": "nonpayable",
      "type": "function"
    },
    {
      "inputs": [
        {
          "internalType": "address",
          "name": "itemaddr",
          "type": "address"
        },
        {
          "internalType": "uint256",
          "name": "Price",
          "type": "uint256"
        },
        {
          "internalType": "uint256",
          "name": "caution",
          "type": "uint256"
        },
        {
          "internalType": "uint256",
          "name": "CoinId",
          "type": "uint256"
        },
        {
          "internalType": "string",
          "name": "PLace",
          "type": "string"
        }
      ],
      "name": "AddToLoanItem",
      "outputs": [],
      "stateMutability": "nonpayable",
      "type": "function"
    },
    {
      "inputs": [
        {
          "internalType": "address",
          "name": "_from",
          "type": "address"
        },
        {
          "internalType": "address",
          "name": "_to",
          "type": "address"
        },
        {
          "internalType": "address",
          "name": "_item",
          "type": "address"
        },
        {
          "internalType": "bool",
          "name": "pre",
          "type": "bool"
        },
        {
          "internalType": "bool",
          "name": "acq",
          "type": "bool"
        },
        {
          "internalType": "uint256",
          "name": "dateS",
          "type": "uint256"
        },
        {
          "internalType": "uint256",
          "name": "dateF",
          "type": "uint256"
        },
        {
          "internalType": "uint256",
          "name": "OrderId",
          "type": "uint256"
        }
      ],
      "name": "TrasferTest",
      "outputs": [],
      "stateMutability": "nonpayable",
      "type": "function"
    },
    {
      "inputs": [
        {
          "internalType": "address",
          "name": "_id",
          "type": "address"
        },
        {
          "internalType": "address",
          "name": "_usr",
          "type": "address"
        },
        {
          "internalType": "uint256",
          "name": "_caution",
          "type": "uint256"
        },
        {
          "internalType": "uint256",
          "name": "orderId",
          "type": "uint256"
        }
      ],
      "name": "ReleseW",
      "outputs": [],
      "stateMutability": "nonpayable",
      "type": "function"
    }
  ],
  "bytecode": "0x60806040523480156200001157600080fd5b50604051620053bb380380620053bb8339818101604052810190620000379190620001e8565b81600c60006101000a81548173ffffffffffffffffffffffffffffffffffffffff021916908373ffffffffffffffffffffffffffffffffffffffff1602179055506001806000600c60009054906101000a900473ffffffffffffffffffffffffffffffffffffffff1673ffffffffffffffffffffffffffffffffffffffff1673ffffffffffffffffffffffffffffffffffffffff16815260200190815260200160002060006101000a81548160ff021916908315150217905550806000806101000a81548173ffffffffffffffffffffffffffffffffffffffff021916908373ffffffffffffffffffffffffffffffffffffffff16021790555050506200022f565b600080fd5b600073ffffffffffffffffffffffffffffffffffffffff82169050919050565b60006200016b826200013e565b9050919050565b6200017d816200015e565b81146200018957600080fd5b50565b6000815190506200019d8162000172565b92915050565b6000620001b0826200015e565b9050919050565b620001c281620001a3565b8114620001ce57600080fd5b50565b600081519050620001e281620001b7565b92915050565b6000806040838503121562000202576200020162000139565b5b600062000212858286016200018c565b92505060206200022585828601620001d1565b9150509250929050565b61517c806200023f6000396000f3fe608060405234801561001057600080fd5b50600436106100f55760003560e01c8063a44a148f11610097578063d234199211610066578063d2341992146102cb578063ec608b41146102e7578063f9b9643714610303578063f9c93e4714610337576100f5565b8063a44a148f14610219578063af46edfc14610249578063beea978114610265578063c8f464db1461029b576100f5565b80637e4fa7ce116100d35780637e4fa7ce14610193578063818b4794146101af5780638da5cb5b146101cb578063a1af645f146101e9576100f5565b806301e88208146100fa578063267acb061461012a5780636ac7bd121461015f575b600080fd5b610114600480360381019061010f9190613f2c565b610367565b6040516101219190613f74565b60405180910390f35b610144600480360381019061013f9190613fc5565b610387565b6040516101569695949392919061411b565b60405180910390f35b61017960048036038101906101749190614183565b6104a8565b60405161018a9594939291906141b0565b60405180910390f35b6101ad60048036038101906101a8919061433f565b6105a6565b005b6101c960048036038101906101c491906143d6565b610c33565b005b6101d36114bc565b6040516101e09190614416565b60405180910390f35b61020360048036038101906101fe9190614183565b6114e2565b6040516102109190614431565b60405180910390f35b610233600480360381019061022e9190613f2c565b6114fa565b6040516102409190613f74565b60405180910390f35b610263600480360381019061025e919061444c565b61151a565b005b61027f600480360381019061027a9190614183565b611af5565b60405161029297969594939291906144bb565b60405180910390f35b6102b560048036038101906102b09190613f2c565b611b97565b6040516102c29190613f74565b60405180910390f35b6102e560048036038101906102e09190614556565b611bb7565b005b61030160048036038101906102fc919061460c565b61331b565b005b61031d60048036038101906103189190613fc5565b613c6e565b60405161032e9594939291906141b0565b60405180910390f35b610351600480360381019061034c9190614673565b613d89565b60405161035e9190614416565b60405180910390f35b60016020528060005260406000206000915054906101000a900460ff1681565b600860205281600052604060002081815481106103a357600080fd5b9060005260206000209060060201600091509150508060000160009054906101000a900473ffffffffffffffffffffffffffffffffffffffff16908060010160009054906101000a900473ffffffffffffffffffffffffffffffffffffffff1690806002015490806003015490806004015490806005018054610425906146e2565b80601f0160208091040260200160405190810160405280929190818152602001828054610451906146e2565b801561049e5780601f106104735761010080835404028352916020019161049e565b820191906000526020600020905b81548152906001019060200180831161048157829003601f168201915b5050505050905086565b60046020528060005260406000206000915090508060000160009054906101000a900473ffffffffffffffffffffffffffffffffffffffff16908060010160009054906101000a900473ffffffffffffffffffffffffffffffffffffffff1690806002015490806003015490806004018054610523906146e2565b80601f016020809104026020016040519081016040528092919081815260200182805461054f906146e2565b801561059c5780601f106105715761010080835404028352916020019161059c565b820191906000526020600020905b81548152906001019060200180831161057f57829003601f168201915b5050505050905085565b600085905060008173ffffffffffffffffffffffffffffffffffffffff1663d28d88526040518163ffffffff1660e01b8152600401600060405180830381865afa1580156105f8573d6000803e3d6000fd5b505050506040513d6000823e3d601f19601f820116820180604052508101906106219190614784565b5111610662576040517f08c379a000000000000000000000000000000000000000000000000000000000815260040161065990614819565b60405180910390fd5b3373ffffffffffffffffffffffffffffffffffffffff168173ffffffffffffffffffffffffffffffffffffffff16636352211e8373ffffffffffffffffffffffffffffffffffffffff1663051802376040518163ffffffff1660e01b8152600401602060405180830381865afa1580156106e0573d6000803e3d6000fd5b505050506040513d601f19601f82011682018060405250810190610704919061484e565b6040518263ffffffff1660e01b81526004016107209190614431565b602060405180830381865afa15801561073d573d6000803e3d6000fd5b505050506040513d601f19601f820116820180604052508101906107619190614890565b73ffffffffffffffffffffffffffffffffffffffff16146107b7576040517f08c379a00000000000000000000000000000000000000000000000000000000081526004016107ae90614909565b60405180910390fd5b60001515600960008873ffffffffffffffffffffffffffffffffffffffff1673ffffffffffffffffffffffffffffffffffffffff16815260200190815260200160002060009054906101000a900460ff1615151461084a576040517f08c379a000000000000000000000000000000000000000000000000000000000815260040161084190614975565b60405180910390fd5b60006040518060c001604052808373ffffffffffffffffffffffffffffffffffffffff1681526020018873ffffffffffffffffffffffffffffffffffffffff168152602001858152602001878152602001868152602001848152509050600860003373ffffffffffffffffffffffffffffffffffffffff1673ffffffffffffffffffffffffffffffffffffffff16815260200190815260200160002081908060018154018082558091505060019003906000526020600020906006020160009091909190915060008201518160000160006101000a81548173ffffffffffffffffffffffffffffffffffffffff021916908373ffffffffffffffffffffffffffffffffffffffff16021790555060208201518160010160006101000a81548173ffffffffffffffffffffffffffffffffffffffff021916908373ffffffffffffffffffffffffffffffffffffffff16021790555060408201518160020155606082015181600301556080820151816004015560a08201518160050190805190602001906109d8929190613dd7565b505050600660008154809291906109ee906149c4565b91905055506001600960008973ffffffffffffffffffffffffffffffffffffffff1673ffffffffffffffffffffffffffffffffffffffff16815260200190815260200160002060006101000a81548160ff02191690831515021790555060008054906101000a900473ffffffffffffffffffffffffffffffffffffffff1673ffffffffffffffffffffffffffffffffffffffff16639ff3b46d8373ffffffffffffffffffffffffffffffffffffffff1663051802376040518163ffffffff1660e01b8152600401602060405180830381865afa158015610ad2573d6000803e3d6000fd5b505050506040513d601f19601f82011682018060405250810190610af6919061484e565b6040518263ffffffff1660e01b8152600401610b129190614a59565b6020604051808303816000875af1158015610b31573d6000803e3d6000fd5b505050506040513d601f19601f82011682018060405250810190610b559190614a9c565b507f09830a0cc2681ba8897ef2c4f14394522815d85097b46f7af4dc20c76427a58c8288600089898860008054906101000a900473ffffffffffffffffffffffffffffffffffffffff1673ffffffffffffffffffffffffffffffffffffffff1663f8e157ea6040518163ffffffff1660e01b81526004016020604051808303816000875af1158015610beb573d6000803e3d6000fd5b505050506040513d601f19601f82011682018060405250810190610c0f919061484e565b604051610c229796959493929190614b04565b60405180910390a150505050505050565b600082905060008173ffffffffffffffffffffffffffffffffffffffff1663d28d88526040518163ffffffff1660e01b8152600401600060405180830381865afa158015610c85573d6000803e3d6000fd5b505050506040513d6000823e3d601f19601f82011682018060405250810190610cae9190614784565b5111610cb957600080fd5b60011515600560008573ffffffffffffffffffffffffffffffffffffffff1673ffffffffffffffffffffffffffffffffffffffff16815260200190815260200160002060009054906101000a900460ff16151514156114b75760008173ffffffffffffffffffffffffffffffffffffffff16636352211e8373ffffffffffffffffffffffffffffffffffffffff1663051802376040518163ffffffff1660e01b8152600401602060405180830381865afa158015610d7b573d6000803e3d6000fd5b505050506040513d601f19601f82011682018060405250810190610d9f919061484e565b6040518263ffffffff1660e01b8152600401610dbb9190614431565b602060405180830381865afa158015610dd8573d6000803e3d6000fd5b505050506040513d601f19601f82011682018060405250810190610dfc9190614890565b90508173ffffffffffffffffffffffffffffffffffffffff166321d0af11846040518263ffffffff1660e01b8152600401610e379190614416565b6020604051808303816000875af1158015610e56573d6000803e3d6000fd5b505050506040513d601f19601f82011682018060405250810190610e7a9190614a9c565b508273ffffffffffffffffffffffffffffffffffffffff168273ffffffffffffffffffffffffffffffffffffffff16636352211e8473ffffffffffffffffffffffffffffffffffffffff1663051802376040518163ffffffff1660e01b8152600401602060405180830381865afa158015610ef9573d6000803e3d6000fd5b505050506040513d601f19601f82011682018060405250810190610f1d919061484e565b6040518263ffffffff1660e01b8152600401610f399190614431565b602060405180830381865afa158015610f56573d6000803e3d6000fd5b505050506040513d601f19601f82011682018060405250810190610f7a9190614890565b73ffffffffffffffffffffffffffffffffffffffff1614610f9a57600080fd5b6000600560008673ffffffffffffffffffffffffffffffffffffffff1673ffffffffffffffffffffffffffffffffffffffff16815260200190815260200160002060006101000a81548160ff02191690831515021790555060005b60065481116112cc578473ffffffffffffffffffffffffffffffffffffffff166004600083815260200190815260200160002060010160009054906101000a900473ffffffffffffffffffffffffffffffffffffffff1673ffffffffffffffffffffffffffffffffffffffff1614156112b9577f3643f7ef15be00e6396c2e2bab279ea4076956f93d35c8384c97650310ac8162828473ffffffffffffffffffffffffffffffffffffffff16636352211e8673ffffffffffffffffffffffffffffffffffffffff1663051802376040518163ffffffff1660e01b8152600401602060405180830381865afa1580156110f1573d6000803e3d6000fd5b505050506040513d601f19601f82011682018060405250810190611115919061484e565b6040518263ffffffff1660e01b81526004016111319190614431565b602060405180830381865afa15801561114e573d6000803e3d6000fd5b505050506040513d601f19601f820116820180604052508101906111729190614890565b600460008581526020019081526020016000206003015460008054906101000a900473ffffffffffffffffffffffffffffffffffffffff1673ffffffffffffffffffffffffffffffffffffffff1663f8e157ea6040518163ffffffff1660e01b81526004016020604051808303816000875af11580156111f6573d6000803e3d6000fd5b505050506040513d601f19601f8201168201806040525081019061121a919061484e565b8960405161122c959493929190614b7a565b60405180910390a160046000828152602001908152602001600020600080820160006101000a81549073ffffffffffffffffffffffffffffffffffffffff02191690556001820160006101000a81549073ffffffffffffffffffffffffffffffffffffffff0219169055600282016000905560038201600090556004820160006112b69190613e5d565b50505b80806112c4906149c4565b915050610ff5565b5060005b600360008373ffffffffffffffffffffffffffffffffffffffff1673ffffffffffffffffffffffffffffffffffffffff168152602001908152602001600020805490508110156114b4578473ffffffffffffffffffffffffffffffffffffffff16600360008473ffffffffffffffffffffffffffffffffffffffff1673ffffffffffffffffffffffffffffffffffffffff168152602001908152602001600020828154811061138257611381614bcd565b5b906000526020600020906005020160010160009054906101000a900473ffffffffffffffffffffffffffffffffffffffff1673ffffffffffffffffffffffffffffffffffffffff1614156114a157600360008373ffffffffffffffffffffffffffffffffffffffff1673ffffffffffffffffffffffffffffffffffffffff168152602001908152602001600020818154811061142157611420614bcd565b5b9060005260206000209060050201600080820160006101000a81549073ffffffffffffffffffffffffffffffffffffffff02191690556001820160006101000a81549073ffffffffffffffffffffffffffffffffffffffff02191690556002820160009055600382016000905560048201600061149e9190613e5d565b50505b80806114ac906149c4565b9150506112d0565b50505b505050565b600c60009054906101000a900473ffffffffffffffffffffffffffffffffffffffff1681565b60026020528060005260406000206000915090505481565b60096020528060005260406000206000915054906101000a900460ff1681565b600083905060008173ffffffffffffffffffffffffffffffffffffffff1663d28d88526040518163ffffffff1660e01b8152600401600060405180830381865afa15801561156c573d6000803e3d6000fd5b505050506040513d6000823e3d601f19601f820116820180604052508101906115959190614784565b51116115a057600080fd5b3373ffffffffffffffffffffffffffffffffffffffff168173ffffffffffffffffffffffffffffffffffffffff16636352211e8373ffffffffffffffffffffffffffffffffffffffff1663051802376040518163ffffffff1660e01b8152600401602060405180830381865afa15801561161e573d6000803e3d6000fd5b505050506040513d601f19601f82011682018060405250810190611642919061484e565b6040518263ffffffff1660e01b815260040161165e9190614431565b602060405180830381865afa15801561167b573d6000803e3d6000fd5b505050506040513d601f19601f8201168201806040525081019061169f9190614890565b73ffffffffffffffffffffffffffffffffffffffff16146116bf57600080fd5b60001515600960008673ffffffffffffffffffffffffffffffffffffffff1673ffffffffffffffffffffffffffffffffffffffff16815260200190815260200160002060009054906101000a900460ff16151514611752576040517f08c379a000000000000000000000000000000000000000000000000000000000815260040161174990614c48565b60405180910390fd5b60006040518060a001604052808373ffffffffffffffffffffffffffffffffffffffff1681526020018673ffffffffffffffffffffffffffffffffffffffff16815260200160008152602001858152602001848152509050600360003373ffffffffffffffffffffffffffffffffffffffff1673ffffffffffffffffffffffffffffffffffffffff16815260200190815260200160002081908060018154018082558091505060019003906000526020600020906005020160009091909190915060008201518160000160006101000a81548173ffffffffffffffffffffffffffffffffffffffff021916908373ffffffffffffffffffffffffffffffffffffffff16021790555060208201518160010160006101000a81548173ffffffffffffffffffffffffffffffffffffffff021916908373ffffffffffffffffffffffffffffffffffffffff160217905550604082015181600201556060820151816003015560808201518160040190805190602001906118d1929190613dd7565b505050600660008154809291906118e7906149c4565b91905055508060046000600654815260200190815260200160002060008201518160000160006101000a81548173ffffffffffffffffffffffffffffffffffffffff021916908373ffffffffffffffffffffffffffffffffffffffff16021790555060208201518160010160006101000a81548173ffffffffffffffffffffffffffffffffffffffff021916908373ffffffffffffffffffffffffffffffffffffffff160217905550604082015181600201556060820151816003015560808201518160040190805190602001906119c0929190613dd7565b509050506001600560008773ffffffffffffffffffffffffffffffffffffffff1673ffffffffffffffffffffffffffffffffffffffff16815260200190815260200160002060006101000a81548160ff0219169083151502179055507ffb5745a8a5091d95026b2ec87989a7c235533e4bf7120b3e2f61050a3720478282866000878760008054906101000a900473ffffffffffffffffffffffffffffffffffffffff1673ffffffffffffffffffffffffffffffffffffffff1663f8e157ea6040518163ffffffff1660e01b81526004016020604051808303816000875af1158015611ab0573d6000803e3d6000fd5b505050506040513d601f19601f82011682018060405250810190611ad4919061484e565b604051611ae696959493929190614c68565b60405180910390a15050505050565b600a6020528060005260406000206000915090508060000160009054906101000a900473ffffffffffffffffffffffffffffffffffffffff16908060010160009054906101000a900473ffffffffffffffffffffffffffffffffffffffff16908060020160009054906101000a900473ffffffffffffffffffffffffffffffffffffffff16908060030154908060040154908060050154908060060154905087565b60056020528060005260406000206000915054906101000a900460ff1681565b600086905060008173ffffffffffffffffffffffffffffffffffffffff1663d28d88526040518163ffffffff1660e01b8152600401600060405180830381865afa158015611c09573d6000803e3d6000fd5b505050506040513d6000823e3d601f19601f82011682018060405250810190611c329190614784565b5111611c3d57600080fd5b6040518060400160405280600781526020017f57616974696e67000000000000000000000000000000000000000000000000008152508051906020012060008054906101000a900473ffffffffffffffffffffffffffffffffffffffff1673ffffffffffffffffffffffffffffffffffffffff166335b677318373ffffffffffffffffffffffffffffffffffffffff1663051802376040518163ffffffff1660e01b8152600401602060405180830381865afa158015611d01573d6000803e3d6000fd5b505050506040513d601f19601f82011682018060405250810190611d25919061484e565b6040518263ffffffff1660e01b8152600401611d419190614431565b600060405180830381865afa158015611d5e573d6000803e3d6000fd5b505050506040513d6000823e3d601f19601f82011682018060405250810190611d879190614784565b805190602001201415611dcf576040517f08c379a0000000000000000000000000000000000000000000000000000000008152600401611dc690614d1c565b60405180910390fd5b3373ffffffffffffffffffffffffffffffffffffffff16600a600084815260200190815260200160002060010160009054906101000a900473ffffffffffffffffffffffffffffffffffffffff1673ffffffffffffffffffffffffffffffffffffffff16148015611e405750600084115b8015611f5e57508073ffffffffffffffffffffffffffffffffffffffff16636352211e8273ffffffffffffffffffffffffffffffffffffffff1663051802376040518163ffffffff1660e01b8152600401602060405180830381865afa158015611eae573d6000803e3d6000fd5b505050506040513d601f19601f82011682018060405250810190611ed2919061484e565b6040518263ffffffff1660e01b8152600401611eee9190614431565b602060405180830381865afa158015611f0b573d6000803e3d6000fd5b505050506040513d601f19601f82011682018060405250810190611f2f9190614890565b73ffffffffffffffffffffffffffffffffffffffff168873ffffffffffffffffffffffffffffffffffffffff16145b8015611f68575084155b8015611f72575085155b80156120cc57506040518060400160405280600481526020017f42757379000000000000000000000000000000000000000000000000000000008152508051906020012060008054906101000a900473ffffffffffffffffffffffffffffffffffffffff1673ffffffffffffffffffffffffffffffffffffffff166335b677318373ffffffffffffffffffffffffffffffffffffffff1663051802376040518163ffffffff1660e01b8152600401602060405180830381865afa15801561203d573d6000803e3d6000fd5b505050506040513d601f19601f82011682018060405250810190612061919061484e565b6040518263ffffffff1660e01b815260040161207d9190614431565b600060405180830381865afa15801561209a573d6000803e3d6000fd5b505050506040513d6000823e3d601f19601f820116820180604052508101906120c39190614784565b80519060200120145b156122c25760008054906101000a900473ffffffffffffffffffffffffffffffffffffffff1673ffffffffffffffffffffffffffffffffffffffff16634bbbff068273ffffffffffffffffffffffffffffffffffffffff1663051802376040518163ffffffff1660e01b8152600401602060405180830381865afa158015612158573d6000803e3d6000fd5b505050506040513d601f19601f8201168201806040525081019061217c919061484e565b866040518363ffffffff1660e01b815260040161219a929190614d3c565b6020604051808303816000875af11580156121b9573d6000803e3d6000fd5b505050506040513d601f19601f820116820180604052508101906121dd9190614a9c565b156122bd577f07f0fe79bc4c84e08a16b934d03469ba671df8ca8c16b9b6799afcbac9095ccd89898960008054906101000a900473ffffffffffffffffffffffffffffffffffffffff1673ffffffffffffffffffffffffffffffffffffffff1663f8e157ea6040518163ffffffff1660e01b81526004016020604051808303816000875af1158015612273573d6000803e3d6000fd5b505050506040513d601f19601f82011682018060405250810190612297919061484e565b88886007546040516122af9796959493929190614db1565b60405180910390a150613311565b61330f565b8073ffffffffffffffffffffffffffffffffffffffff16636352211e8273ffffffffffffffffffffffffffffffffffffffff1663051802376040518163ffffffff1660e01b8152600401602060405180830381865afa158015612329573d6000803e3d6000fd5b505050506040513d601f19601f8201168201806040525081019061234d919061484e565b6040518263ffffffff1660e01b81526004016123699190614431565b602060405180830381865afa158015612386573d6000803e3d6000fd5b505050506040513d601f19601f820116820180604052508101906123aa9190614890565b73ffffffffffffffffffffffffffffffffffffffff168873ffffffffffffffffffffffffffffffffffffffff1614801561253257506040518060400160405280600a81526020017f5072656f726465726564000000000000000000000000000000000000000000008152508051906020012060008054906101000a900473ffffffffffffffffffffffffffffffffffffffff1673ffffffffffffffffffffffffffffffffffffffff166335b677318373ffffffffffffffffffffffffffffffffffffffff1663051802376040518163ffffffff1660e01b8152600401602060405180830381865afa1580156124a3573d6000803e3d6000fd5b505050506040513d601f19601f820116820180604052508101906124c7919061484e565b6040518263ffffffff1660e01b81526004016124e39190614431565b600060405180830381865afa158015612500573d6000803e3d6000fd5b505050506040513d6000823e3d601f19601f820116820180604052508101906125299190614784565b80519060200120145b1561253d5750613311565b8073ffffffffffffffffffffffffffffffffffffffff16636352211e8273ffffffffffffffffffffffffffffffffffffffff1663051802376040518163ffffffff1660e01b8152600401602060405180830381865afa1580156125a4573d6000803e3d6000fd5b505050506040513d601f19601f820116820180604052508101906125c8919061484e565b6040518263ffffffff1660e01b81526004016125e49190614431565b602060405180830381865afa158015612601573d6000803e3d6000fd5b505050506040513d601f19601f820116820180604052508101906126259190614890565b73ffffffffffffffffffffffffffffffffffffffff168973ffffffffffffffffffffffffffffffffffffffff16141561330e57858015612663575084155b801561266f5750600083115b15612b805760008054906101000a900473ffffffffffffffffffffffffffffffffffffffff1673ffffffffffffffffffffffffffffffffffffffff16633097c98e85858473ffffffffffffffffffffffffffffffffffffffff1663051802376040518163ffffffff1660e01b8152600401602060405180830381865afa1580156126fd573d6000803e3d6000fd5b505050506040513d601f19601f82011682018060405250810190612721919061484e565b336040518563ffffffff1660e01b81526004016127419493929190614e34565b6020604051808303816000875af1158015612760573d6000803e3d6000fd5b505050506040513d601f19601f820116820180604052508101906127849190614a9c565b15612b7a57600b60008273ffffffffffffffffffffffffffffffffffffffff1663051802376040518163ffffffff1660e01b8152600401602060405180830381865afa1580156127d8573d6000803e3d6000fd5b505050506040513d601f19601f820116820180604052508101906127fc919061484e565b8152602001908152602001600020889080600181540180825580915050600190039060005260206000200160009091909190916101000a81548173ffffffffffffffffffffffffffffffffffffffff021916908373ffffffffffffffffffffffffffffffffffffffff1602179055506007600081548092919061287e906149c4565b91905055506040518060e001604052808a73ffffffffffffffffffffffffffffffffffffffff1681526020018973ffffffffffffffffffffffffffffffffffffffff1681526020018873ffffffffffffffffffffffffffffffffffffffff16815260200160008054906101000a900473ffffffffffffffffffffffffffffffffffffffff1673ffffffffffffffffffffffffffffffffffffffff1663f8e157ea6040518163ffffffff1660e01b81526004016020604051808303816000875af115801561294f573d6000803e3d6000fd5b505050506040513d601f19601f82011682018060405250810190612973919061484e565b8152602001858152602001848152602001600754815250600a6000600754815260200190815260200160002060008201518160000160006101000a81548173ffffffffffffffffffffffffffffffffffffffff021916908373ffffffffffffffffffffffffffffffffffffffff16021790555060208201518160010160006101000a81548173ffffffffffffffffffffffffffffffffffffffff021916908373ffffffffffffffffffffffffffffffffffffffff16021790555060408201518160020160006101000a81548173ffffffffffffffffffffffffffffffffffffffff021916908373ffffffffffffffffffffffffffffffffffffffff160217905550606082015181600301556080820151816004015560a0820151816005015560c082015181600601559050507f07f0fe79bc4c84e08a16b934d03469ba671df8ca8c16b9b6799afcbac9095ccd89898960008054906101000a900473ffffffffffffffffffffffffffffffffffffffff1673ffffffffffffffffffffffffffffffffffffffff1663f8e157ea6040518163ffffffff1660e01b81526004016020604051808303816000875af1158015612b30573d6000803e3d6000fd5b505050506040513d601f19601f82011682018060405250810190612b54919061484e565b8888600754604051612b6c9796959493929190614ec5565b60405180910390a150613311565b50613311565b85158015612b8b5750845b8015612bf857503373ffffffffffffffffffffffffffffffffffffffff16600a600084815260200190815260200160002060010160009054906101000a900473ffffffffffffffffffffffffffffffffffffffff1673ffffffffffffffffffffffffffffffffffffffff16145b15612f085760008054906101000a900473ffffffffffffffffffffffffffffffffffffffff1673ffffffffffffffffffffffffffffffffffffffff16631b227ed78273ffffffffffffffffffffffffffffffffffffffff1663051802376040518163ffffffff1660e01b8152600401602060405180830381865afa158015612c84573d6000803e3d6000fd5b505050506040513d601f19601f82011682018060405250810190612ca8919061484e565b336040518363ffffffff1660e01b8152600401612cc6929190614f48565b6020604051808303816000875af1158015612ce5573d6000803e3d6000fd5b505050506040513d601f19601f82011682018060405250810190612d099190614a9c565b8015612e2757508073ffffffffffffffffffffffffffffffffffffffff16636352211e8273ffffffffffffffffffffffffffffffffffffffff1663051802376040518163ffffffff1660e01b8152600401602060405180830381865afa158015612d77573d6000803e3d6000fd5b505050506040513d601f19601f82011682018060405250810190612d9b919061484e565b6040518263ffffffff1660e01b8152600401612db79190614431565b602060405180830381865afa158015612dd4573d6000803e3d6000fd5b505050506040513d601f19601f82011682018060405250810190612df89190614890565b73ffffffffffffffffffffffffffffffffffffffff168973ffffffffffffffffffffffffffffffffffffffff16145b15612f07577f07f0fe79bc4c84e08a16b934d03469ba671df8ca8c16b9b6799afcbac9095ccd89898960008054906101000a900473ffffffffffffffffffffffffffffffffffffffff1673ffffffffffffffffffffffffffffffffffffffff1663f8e157ea6040518163ffffffff1660e01b81526004016020604051808303816000875af1158015612ebd573d6000803e3d6000fd5b505050506040513d601f19601f82011682018060405250810190612ee1919061484e565b8888600754604051612ef99796959493929190614fbd565b60405180910390a150613311565b5b600083118015612f155750845b8015612f1e5750855b801561303c57508073ffffffffffffffffffffffffffffffffffffffff16636352211e8273ffffffffffffffffffffffffffffffffffffffff1663051802376040518163ffffffff1660e01b8152600401602060405180830381865afa158015612f8c573d6000803e3d6000fd5b505050506040513d601f19601f82011682018060405250810190612fb0919061484e565b6040518263ffffffff1660e01b8152600401612fcc9190614431565b602060405180830381865afa158015612fe9573d6000803e3d6000fd5b505050506040513d601f19601f8201168201806040525081019061300d9190614890565b73ffffffffffffffffffffffffffffffffffffffff168973ffffffffffffffffffffffffffffffffffffffff16145b1561330d5760008054906101000a900473ffffffffffffffffffffffffffffffffffffffff1673ffffffffffffffffffffffffffffffffffffffff1663d9d92d1e8273ffffffffffffffffffffffffffffffffffffffff1663051802376040518163ffffffff1660e01b8152600401602060405180830381865afa1580156130c8573d6000803e3d6000fd5b505050506040513d601f19601f820116820180604052508101906130ec919061484e565b33866040518463ffffffff1660e01b815260040161310c93929190615040565b6020604051808303816000875af115801561312b573d6000803e3d6000fd5b505050506040513d601f19601f8201168201806040525081019061314f9190614a9c565b1561330c57600b60008273ffffffffffffffffffffffffffffffffffffffff1663051802376040518163ffffffff1660e01b8152600401602060405180830381865afa1580156131a3573d6000803e3d6000fd5b505050506040513d601f19601f820116820180604052508101906131c7919061484e565b8152602001908152602001600020889080600181540180825580915050600190039060005260206000200160009091909190916101000a81548173ffffffffffffffffffffffffffffffffffffffff021916908373ffffffffffffffffffffffffffffffffffffffff1602179055507f07f0fe79bc4c84e08a16b934d03469ba671df8ca8c16b9b6799afcbac9095ccd89898960008054906101000a900473ffffffffffffffffffffffffffffffffffffffff1673ffffffffffffffffffffffffffffffffffffffff1663f8e157ea6040518163ffffffff1660e01b81526004016020604051808303816000875af11580156132c7573d6000803e3d6000fd5b505050506040513d601f19601f820116820180604052508101906132eb919061484e565b888860075460405161330397969594939291906150c3565b60405180910390a15b5b5b5b505b5050505050505050565b600084905060008173ffffffffffffffffffffffffffffffffffffffff1663d28d88526040518163ffffffff1660e01b8152600401600060405180830381865afa15801561336d573d6000803e3d6000fd5b505050506040513d6000823e3d601f19601f820116820180604052508101906133969190614784565b51116133a157600080fd5b3373ffffffffffffffffffffffffffffffffffffffff168173ffffffffffffffffffffffffffffffffffffffff16636352211e8373ffffffffffffffffffffffffffffffffffffffff1663051802376040518163ffffffff1660e01b8152600401602060405180830381865afa15801561341f573d6000803e3d6000fd5b505050506040513d601f19601f82011682018060405250810190613443919061484e565b6040518263ffffffff1660e01b815260040161345f9190614431565b602060405180830381865afa15801561347c573d6000803e3d6000fd5b505050506040513d601f19601f820116820180604052508101906134a09190614890565b73ffffffffffffffffffffffffffffffffffffffff16146134c057600080fd5b60005b600b60008373ffffffffffffffffffffffffffffffffffffffff1663051802376040518163ffffffff1660e01b8152600401602060405180830381865afa158015613512573d6000803e3d6000fd5b505050506040513d601f19601f82011682018060405250810190613536919061484e565b815260200190815260200160002080549050811015613c65578473ffffffffffffffffffffffffffffffffffffffff16600b60008473ffffffffffffffffffffffffffffffffffffffff1663051802376040518163ffffffff1660e01b8152600401602060405180830381865afa1580156135b5573d6000803e3d6000fd5b505050506040513d601f19601f820116820180604052508101906135d9919061484e565b815260200190815260200160002082815481106135f9576135f8614bcd565b5b9060005260206000200160009054906101000a900473ffffffffffffffffffffffffffffffffffffffff1673ffffffffffffffffffffffffffffffffffffffff1614801561367357503373ffffffffffffffffffffffffffffffffffffffff168573ffffffffffffffffffffffffffffffffffffffff1614155b15613c525760008054906101000a900473ffffffffffffffffffffffffffffffffffffffff1673ffffffffffffffffffffffffffffffffffffffff16634abc93258373ffffffffffffffffffffffffffffffffffffffff1663051802376040518163ffffffff1660e01b8152600401602060405180830381865afa1580156136ff573d6000803e3d6000fd5b505050506040513d601f19601f82011682018060405250810190613723919061484e565b6040518263ffffffff1660e01b815260040161373f9190614431565b600060405180830381600087803b15801561375957600080fd5b505af115801561376d573d6000803e3d6000fd5b505050506000600b60008473ffffffffffffffffffffffffffffffffffffffff1663051802376040518163ffffffff1660e01b8152600401602060405180830381865afa1580156137c2573d6000803e3d6000fd5b505050506040513d601f19601f820116820180604052508101906137e6919061484e565b8152602001908152602001600020828154811061380657613805614bcd565b5b9060005260206000200160009054906101000a900473ffffffffffffffffffffffffffffffffffffffff169050600b60008473ffffffffffffffffffffffffffffffffffffffff1663051802376040518163ffffffff1660e01b8152600401602060405180830381865afa158015613882573d6000803e3d6000fd5b505050506040513d601f19601f820116820180604052508101906138a6919061484e565b815260200190815260200160002082815481106138c6576138c5614bcd565b5b9060005260206000200160006101000a81549073ffffffffffffffffffffffffffffffffffffffff0219169055600960008873ffffffffffffffffffffffffffffffffffffffff1673ffffffffffffffffffffffffffffffffffffffff16815260200190815260200160002060006101000a81549060ff02191690558573ffffffffffffffffffffffffffffffffffffffff16600a600086815260200190815260200160002060010160009054906101000a900473ffffffffffffffffffffffffffffffffffffffff1673ffffffffffffffffffffffffffffffffffffffff161415613c5057600a6000858152602001908152602001600020600080820160006101000a81549073ffffffffffffffffffffffffffffffffffffffff02191690556001820160006101000a81549073ffffffffffffffffffffffffffffffffffffffff02191690556002820160006101000a81549073ffffffffffffffffffffffffffffffffffffffff02191690556003820160009055600482016000905560058201600090556006820160009055505060005b600860008873ffffffffffffffffffffffffffffffffffffffff1673ffffffffffffffffffffffffffffffffffffffff16815260200190815260200160002080549050811015613c4e578773ffffffffffffffffffffffffffffffffffffffff16600860008a73ffffffffffffffffffffffffffffffffffffffff1673ffffffffffffffffffffffffffffffffffffffff1681526020019081526020016000208281548110613b0c57613b0b614bcd565b5b906000526020600020906006020160010160009054906101000a900473ffffffffffffffffffffffffffffffffffffffff1673ffffffffffffffffffffffffffffffffffffffff161415613c3b57600860008973ffffffffffffffffffffffffffffffffffffffff1673ffffffffffffffffffffffffffffffffffffffff1681526020019081526020016000208181548110613bab57613baa614bcd565b5b9060005260206000209060060201600080820160006101000a81549073ffffffffffffffffffffffffffffffffffffffff02191690556001820160006101000a81549073ffffffffffffffffffffffffffffffffffffffff0219169055600282016000905560038201600090556004820160009055600582016000613c309190613e5d565b505050505050613c68565b8080613c46906149c4565b915050613a5a565b505b505b8080613c5d906149c4565b9150506134c3565b50505b50505050565b60036020528160005260406000208181548110613c8a57600080fd5b9060005260206000209060050201600091509150508060000160009054906101000a900473ffffffffffffffffffffffffffffffffffffffff16908060010160009054906101000a900473ffffffffffffffffffffffffffffffffffffffff1690806002015490806003015490806004018054613d06906146e2565b80601f0160208091040260200160405190810160405280929190818152602001828054613d32906146e2565b8015613d7f5780601f10613d5457610100808354040283529160200191613d7f565b820191906000526020600020905b815481529060010190602001808311613d6257829003601f168201915b5050505050905085565b600b6020528160005260406000208181548110613da557600080fd5b906000526020600020016000915091509054906101000a900473ffffffffffffffffffffffffffffffffffffffff1681565b828054613de3906146e2565b90600052602060002090601f016020900481019282613e055760008555613e4c565b82601f10613e1e57805160ff1916838001178555613e4c565b82800160010185558215613e4c579182015b82811115613e4b578251825591602001919060010190613e30565b5b509050613e599190613e9d565b5090565b508054613e69906146e2565b6000825580601f10613e7b5750613e9a565b601f016020900490600052602060002090810190613e999190613e9d565b5b50565b5b80821115613eb6576000816000905550600101613e9e565b5090565b6000604051905090565b600080fd5b600080fd5b600073ffffffffffffffffffffffffffffffffffffffff82169050919050565b6000613ef982613ece565b9050919050565b613f0981613eee565b8114613f1457600080fd5b50565b600081359050613f2681613f00565b92915050565b600060208284031215613f4257613f41613ec4565b5b6000613f5084828501613f17565b91505092915050565b60008115159050919050565b613f6e81613f59565b82525050565b6000602082019050613f896000830184613f65565b92915050565b6000819050919050565b613fa281613f8f565b8114613fad57600080fd5b50565b600081359050613fbf81613f99565b92915050565b60008060408385031215613fdc57613fdb613ec4565b5b6000613fea85828601613f17565b9250506020613ffb85828601613fb0565b9150509250929050565b6000819050919050565b600061402a61402561402084613ece565b614005565b613ece565b9050919050565b600061403c8261400f565b9050919050565b600061404e82614031565b9050919050565b61405e81614043565b82525050565b61406d81613eee565b82525050565b61407c81613f8f565b82525050565b600081519050919050565b600082825260208201905092915050565b60005b838110156140bc5780820151818401526020810190506140a1565b838111156140cb576000848401525b50505050565b6000601f19601f8301169050919050565b60006140ed82614082565b6140f7818561408d565b935061410781856020860161409e565b614110816140d1565b840191505092915050565b600060c0820190506141306000830189614055565b61413d6020830188614064565b61414a6040830187614073565b6141576060830186614073565b6141646080830185614073565b81810360a083015261417681846140e2565b9050979650505050505050565b60006020828403121561419957614198613ec4565b5b60006141a784828501613fb0565b91505092915050565b600060a0820190506141c56000830188614055565b6141d26020830187614064565b6141df6040830186614073565b6141ec6060830185614073565b81810360808301526141fe81846140e2565b90509695505050505050565b600080fd5b600080fd5b7f4e487b7100000000000000000000000000000000000000000000000000000000600052604160045260246000fd5b61424c826140d1565b810181811067ffffffffffffffff8211171561426b5761426a614214565b5b80604052505050565b600061427e613eba565b905061428a8282614243565b919050565b600067ffffffffffffffff8211156142aa576142a9614214565b5b6142b3826140d1565b9050602081019050919050565b82818337600083830152505050565b60006142e26142dd8461428f565b614274565b9050828152602081018484840111156142fe576142fd61420f565b5b6143098482856142c0565b509392505050565b600082601f8301126143265761432561420a565b5b81356143368482602086016142cf565b91505092915050565b600080600080600060a0868803121561435b5761435a613ec4565b5b600061436988828901613f17565b955050602061437a88828901613fb0565b945050604061438b88828901613fb0565b935050606061439c88828901613fb0565b925050608086013567ffffffffffffffff8111156143bd576143bc613ec9565b5b6143c988828901614311565b9150509295509295909350565b600080604083850312156143ed576143ec613ec4565b5b60006143fb85828601613f17565b925050602061440c85828601613f17565b9150509250929050565b600060208201905061442b6000830184614064565b92915050565b60006020820190506144466000830184614073565b92915050565b60008060006060848603121561446557614464613ec4565b5b600061447386828701613f17565b935050602061448486828701613fb0565b925050604084013567ffffffffffffffff8111156144a5576144a4613ec9565b5b6144b186828701614311565b9150509250925092565b600060e0820190506144d0600083018a614064565b6144dd6020830189614064565b6144ea6040830188614064565b6144f76060830187614073565b6145046080830186614073565b61451160a0830185614073565b61451e60c0830184614073565b98975050505050505050565b61453381613f59565b811461453e57600080fd5b50565b6000813590506145508161452a565b92915050565b600080600080600080600080610100898b03121561457757614576613ec4565b5b60006145858b828c01613f17565b98505060206145968b828c01613f17565b97505060406145a78b828c01613f17565b96505060606145b88b828c01614541565b95505060806145c98b828c01614541565b94505060a06145da8b828c01613fb0565b93505060c06145eb8b828c01613fb0565b92505060e06145fc8b828c01613fb0565b9150509295985092959890939650565b6000806000806080858703121561462657614625613ec4565b5b600061463487828801613f17565b945050602061464587828801613f17565b935050604061465687828801613fb0565b925050606061466787828801613fb0565b91505092959194509250565b6000806040838503121561468a57614689613ec4565b5b600061469885828601613fb0565b92505060206146a985828601613fb0565b9150509250929050565b7f4e487b7100000000000000000000000000000000000000000000000000000000600052602260045260246000fd5b600060028204905060018216806146fa57607f821691505b6020821081141561470e5761470d6146b3565b5b50919050565b60006147276147228461428f565b614274565b9050828152602081018484840111156147435761474261420f565b5b61474e84828561409e565b509392505050565b600082601f83011261476b5761476a61420a565b5b815161477b848260208601614714565b91505092915050565b60006020828403121561479a57614799613ec4565b5b600082015167ffffffffffffffff8111156147b8576147b7613ec9565b5b6147c484828501614756565b91505092915050565b7f3100000000000000000000000000000000000000000000000000000000000000600082015250565b600061480360018361408d565b915061480e826147cd565b602082019050919050565b60006020820190508181036000830152614832816147f6565b9050919050565b60008151905061484881613f99565b92915050565b60006020828403121561486457614863613ec4565b5b600061487284828501614839565b91505092915050565b60008151905061488a81613f00565b92915050565b6000602082840312156148a6576148a5613ec4565b5b60006148b48482850161487b565b91505092915050565b7f3200000000000000000000000000000000000000000000000000000000000000600082015250565b60006148f360018361408d565b91506148fe826148bd565b602082019050919050565b60006020820190508181036000830152614922816148e6565b9050919050565b7f4c276f67676574746f206520696e2076656e6469746100000000000000000000600082015250565b600061495f60168361408d565b915061496a82614929565b602082019050919050565b6000602082019050818103600083015261498e81614952565b9050919050565b7f4e487b7100000000000000000000000000000000000000000000000000000000600052601160045260246000fd5b60006149cf82613f8f565b91507fffffffffffffffffffffffffffffffffffffffffffffffffffffffffffffffff821415614a0257614a01614995565b5b600182019050919050565b7f417661696c61626c650000000000000000000000000000000000000000000000600082015250565b6000614a4360098361408d565b9150614a4e82614a0d565b602082019050919050565b6000604082019050614a6e6000830184614073565b8181036020830152614a7f81614a36565b905092915050565b600081519050614a968161452a565b92915050565b600060208284031215614ab257614ab1613ec4565b5b6000614ac084828501614a87565b91505092915050565b6000819050919050565b6000614aee614ae9614ae484614ac9565b614005565b613f8f565b9050919050565b614afe81614ad3565b82525050565b600060e082019050614b19600083018a614055565b614b266020830189614064565b614b336040830188614af5565b614b406060830187614073565b614b4d6080830186614073565b81810360a0830152614b5f81856140e2565b9050614b6e60c0830184614073565b98975050505050505050565b600060a082019050614b8f6000830188614064565b614b9c6020830187614064565b614ba96040830186614073565b614bb66060830185614073565b614bc36080830184614064565b9695505050505050565b7f4e487b7100000000000000000000000000000000000000000000000000000000600052603260045260246000fd5b7f4c276f67676574746f206520696e206e6f6c656767696f000000000000000000600082015250565b6000614c3260178361408d565b9150614c3d82614bfc565b602082019050919050565b60006020820190508181036000830152614c6181614c25565b9050919050565b600060c082019050614c7d6000830189614055565b614c8a6020830188614064565b614c976040830187614af5565b614ca46060830186614073565b8181036080830152614cb681856140e2565b9050614cc560a0830184614073565b979650505050505050565b7f746f6b656e2069732077616974696e6720000000000000000000000000000000600082015250565b6000614d0660118361408d565b9150614d1182614cd0565b602082019050919050565b60006020820190508181036000830152614d3581614cf9565b9050919050565b6000604082019050614d516000830185614073565b614d5e6020830184614073565b9392505050565b7f4261636b2d4c6f616e0000000000000000000000000000000000000000000000600082015250565b6000614d9b60098361408d565b9150614da682614d65565b602082019050919050565b600061010082019050614dc7600083018a614064565b614dd46020830189614064565b614de16040830188614064565b614dee6060830187614073565b614dfb6080830186614073565b614e0860a0830185614073565b614e1560c0830184614073565b81810360e0830152614e2681614d8e565b905098975050505050505050565b6000608082019050614e496000830187614073565b614e566020830186614073565b614e636040830185614073565b614e706060830184614064565b95945050505050565b7f5072652d4c6f616e000000000000000000000000000000000000000000000000600082015250565b6000614eaf60088361408d565b9150614eba82614e79565b602082019050919050565b600061010082019050614edb600083018a614064565b614ee86020830189614064565b614ef56040830188614064565b614f026060830187614073565b614f0f6080830186614073565b614f1c60a0830185614073565b614f2960c0830184614073565b81810360e0830152614f3a81614ea2565b905098975050505050505050565b6000604082019050614f5d6000830185614073565b614f6a6020830184614064565b9392505050565b7f4163712d5072652d4c6f616e0000000000000000000000000000000000000000600082015250565b6000614fa7600c8361408d565b9150614fb282614f71565b602082019050919050565b600061010082019050614fd3600083018a614064565b614fe06020830189614064565b614fed6040830188614064565b614ffa6060830187614073565b6150076080830186614073565b61501460a0830185614073565b61502160c0830184614073565b81810360e083015261503281614f9a565b905098975050505050505050565b60006060820190506150556000830186614073565b6150626020830185614064565b61506f6040830184614073565b949350505050565b7f4e6f726d616c2d4c6f616e000000000000000000000000000000000000000000600082015250565b60006150ad600b8361408d565b91506150b882615077565b602082019050919050565b6000610100820190506150d9600083018a614064565b6150e66020830189614064565b6150f36040830188614064565b6151006060830187614073565b61510d6080830186614073565b61511a60a0830185614073565b61512760c0830184614073565b81810360e0830152615138816150a0565b90509897505050505050505056fea26469706673582212206714abffe6a6828787632204be4f18a2278b060bb8024e4fa51397e68848080a64736f6c634300080b0033",
  "immutableReferences": {},
  "source": "// contracts/LoanItem.sol\n// SPDX-License-Identifier: MIT\npragma solidity ^0.8.0;\n\n\nimport\"./LitemCalendar.sol\";\nimport\"./ItemTemplate.sol\";\ncontract LoanItem {\n    \n    \n    Calendar Calendario;\n    \n  \n     mapping(address => bool) public permissions;\n     mapping(uint256 => uint256) public Cds;\n  \n     mapping(address =>Selling[]) public UserSellingItem;\n     mapping(uint256=>Selling) public SellingItem;\n     mapping(address=>bool) public SellItem;\n     uint256 countitem;\n     uint256 orders;\n\n\n     mapping(address =>LItem[]) public UserLoaningItem;\n     mapping(address=>bool) public LoanItem;\n\n     mapping(uint256=>PreItem)public PreLItem;\n     mapping(uint256=>address[]) public CautionId;\n\n    address public owner;\n\n  struct LItem{\n    ItemTemplate Item;\n    address addr;\n    uint CoinId;\n    uint256 price;\n    uint256 caution;\n    string place;\n    } \n    event LoanCreated(\n    ItemTemplate Item,\n    address addr,\n    uint CoinId,\n    uint256 price,\n    uint256 caution,\n    string place,\n    uint time\n      );\n  struct PreItem{\n    address from;\n    address to;\n    address item;\n    uint time;\n    uint timeS;\n    uint timeE;\n    uint idOrder;\n  }\n\n  event LoanPre(\n    address from,\n    address to,\n    address item,\n    uint time,\n    uint timeS,\n    uint timeE,\n    uint idOrder,\n    string staus\n     );\n  \n\n  struct Selling {\n    ItemTemplate Item;\n    address addr;\n    uint256 CoinId;\n    uint256 price;\n    string  place;\n  }\n  event SellingCreated(\n    ItemTemplate Item,\n    address addr,\n    uint256 CoinId,\n    uint256 price,\n    string  place,\n    uint256 time\n  );\n  event SoldItem(\n    address from,\n    address to,\n    uint256 price,\n    uint256 time,\n    address itemaddr\n    );\n\n\n  constructor(address _owner,Calendar Cad) public  {  \n         owner = _owner;\n         permissions[owner]= true;\n         Calendario = Cad;\n         }\n    \n\n/*\n    modifier propriety(){ \n\n        require (msg.sender == owner || permissions[msg.sender]== true , \"Solo il proprietario\");       \n        _;\n    }*/\n     \n    function SellIt(address itemaddr,address buyer) public{\n      ItemTemplate ItemtoSell = ItemTemplate(itemaddr);\n      require(bytes(ItemtoSell._name()).length > 0 );\n\n      if(SellItem[itemaddr]==true){\n        address ownerItem = ItemtoSell.ownerOf(ItemtoSell._id());\n        ItemtoSell.transfert(buyer);\n        require(ItemtoSell.ownerOf(ItemtoSell._id())==buyer); \n        SellItem[itemaddr]=false;\n        for(uint i; i <= countitem; i++){\n          if(SellingItem[i].addr==itemaddr){\n            emit SoldItem(ownerItem,ItemtoSell.ownerOf(ItemtoSell._id()),SellingItem[i].price,Calendario.Time(),itemaddr);\n           delete SellingItem[i];\n          }\n        }\n        for(uint i; i< UserSellingItem[ownerItem].length; i++ ){\n          if( UserSellingItem[ownerItem][i].addr== itemaddr){\n            delete UserSellingItem[ownerItem][i];\n          }\n      }\n\n    }\n  }\n    function AddToSellItem(address itemaddr,uint Price, string memory PLace) public \n                                                                             {\n      ItemTemplate ItemtoSell = ItemTemplate(itemaddr);\n\n      require(bytes(ItemtoSell._name()).length > 0 );\n      require(ItemtoSell.ownerOf(ItemtoSell._id())==msg.sender);\n      require(LoanItem[itemaddr]==false,\"L'oggetto e in noleggio\");      \n      Selling memory Temp = Selling(ItemtoSell,itemaddr,0,Price,PLace);\n      UserSellingItem[msg.sender].push(Temp);\n      countitem++;\n      SellingItem[countitem]= Temp;\n      SellItem[itemaddr]=true;\n  \n      emit SellingCreated(ItemtoSell,itemaddr,0,Price,PLace,Calendario.Time());\n     \n    } \n\n\n     function AddToLoanItem(address itemaddr,uint Price,uint caution,uint CoinId, string memory PLace) public \n                                                                             {\n      ItemTemplate ItemtoLoan = ItemTemplate(itemaddr);\n\n      require(bytes(ItemtoLoan._name()).length > 0,\"1\" );\n      require(ItemtoLoan.ownerOf(ItemtoLoan._id())==msg.sender,\"2\");\n      \n      require(LoanItem[itemaddr]==false,\"L'oggetto e in vendita\");\n      \n      LItem memory Temp = LItem(ItemtoLoan,itemaddr,CoinId,Price,caution,PLace);\n      UserLoaningItem[msg.sender].push(Temp);\n      countitem++;\n      \n      LoanItem[itemaddr]=true;\n      Calendario.setAvailable(ItemtoLoan._id(),\"Available\");\n      emit LoanCreated(ItemtoLoan,itemaddr,0,Price,caution,PLace,Calendario.Time());\n     \n    } \n\n   \n      function TrasferTest(address _from, address _to,address _item,bool pre,bool acq,uint256 dateS,uint256 dateF,uint256 OrderId) external {\n\n        //aggiungere il metodo che controlla le prenotazioni \n          ItemTemplate ItemtoLoan = ItemTemplate(_item);\n          //require(address(_from)!=address(0x0), \"address _from is 0x0\");\n          //require(address(_to)!=address(0x0), \"address _to is 0x0\");\n          require(bytes(ItemtoLoan._name()).length > 0 );\n          require(keccak256(bytes(Calendario.Available(ItemtoLoan._id()))) != keccak256(bytes(\"Waiting\")),\"token is waiting \");\n          \n        \n          if(PreLItem[OrderId].to==msg.sender &&dateS>0 &&_to == ItemtoLoan.ownerOf(ItemtoLoan._id()) &&!(acq) && !(pre)   && keccak256(bytes(Calendario.Available(ItemtoLoan._id()))) == keccak256(bytes(\"Busy\"))){\n            //riconsegna item\n            if(Calendario.Back(ItemtoLoan._id(),dateS)){\n            \n\n            emit LoanPre(_from,_to,_item,Calendario.Time(),dateS,dateF,orders,\"Back-Loan\");\n            return;\n          }\n            }\n            else if(_to == ItemtoLoan.ownerOf(ItemtoLoan._id())  && keccak256(bytes(Calendario.Available(ItemtoLoan._id()))) == keccak256(bytes(\"Preordered\"))){\n              //caso in cui voglio cancellare una prenotazione\n              return;\n            }\n            else if(_from == ItemtoLoan.ownerOf(ItemtoLoan._id())){\n              if(pre && !(acq) && dateF>0){\n              //prenotazione Noleggio pago la cauzione in anticipo\n                      \n                if(Calendario.Pre_Order(dateS,dateF,ItemtoLoan._id(),msg.sender)) {\n\n                //UserLoaning[ItemtoLoan._id()].push(msg.sender);\n                  //-------------TRANSAZIONE PER LA CAUZIONE-------DA FARE------------\n                 CautionId[ItemtoLoan._id()].push(_to);\n                 orders++;\n                 PreLItem[orders]= PreItem(_from,_to,_item,Calendario.Time(),dateS,dateF,orders);\n                 emit LoanPre(_from,_to,_item,Calendario.Time(),dateS,dateF,orders,\"Pre-Loan\");\n\n                 return;\n              }\n                return;\n            }\n              if(!(pre)&& acq && PreLItem[OrderId].to == msg.sender){ \n                  \n                    if(Calendario.AcquirePre(ItemtoLoan._id(),msg.sender) && _from==ItemtoLoan.ownerOf(ItemtoLoan._id())){ \n                   //---------pagare il resto dell'oggetto mi serve il coin\n                emit LoanPre(_from,_to,_item,Calendario.Time(),dateS,dateF,orders,\"Acq-Pre-Loan\");\n                    return;\n                    }\n                  \n                 \n              }\n\n              //noleggio sul momento\n              if(dateF>0 && acq && pre && _from==ItemtoLoan.ownerOf(ItemtoLoan._id())){\n              if(Calendario.Acquire(ItemtoLoan._id(),msg.sender,dateF)){\n                CautionId[ItemtoLoan._id()].push(_to);\n                emit LoanPre(_from,_to,_item,Calendario.Time(),dateS,dateF,orders,\"Normal-Loan\");\n            }}}\n          return;\n      }\n  \n      \n\n      function ReleseW(address _id,address _usr, uint256 _caution, uint256 orderId ) public{\n\n        ItemTemplate ItemtoRelese = ItemTemplate(_id);\n    //si potrebbe gestire il caso in cui la cauzione restituita sia variabile\n        require(bytes(ItemtoRelese._name()).length > 0 );\n        require(ItemtoRelese.ownerOf(ItemtoRelese._id())==msg.sender);\n       \n       for(uint256 i; i<CautionId[ItemtoRelese._id()].length;i++){\n\n        //----------------transazione per la resistuzione della cauzione\n        if(CautionId[ItemtoRelese._id()][i]==_usr && _usr!=msg.sender){\n        Calendario.Relese(ItemtoRelese._id());\n        address temp = CautionId[ItemtoRelese._id()][i];\n        delete CautionId[ItemtoRelese._id()][i];\n        delete LoanItem[_id];\n        if(PreLItem[orderId].to==_usr){\n          delete PreLItem[orderId];\n          for(uint256 k; k < UserLoaningItem[_usr].length;k++){\n            if(UserLoaningItem[_id][k].addr==_id){\n              delete UserLoaningItem[_id][k];\n              return;\n            }\n\n          }\n        }\n\n\n         \n         }}\n         \n      }\n      /*\n    function WaitingUsr(uint256 _id) public returns(address){\n   \n   for(uint256 i; i<Calendario.Orders();i++){\n    if(CautionId[_id][i] != address(0x0)){\n      i = Calendario.Orders();\n      return CautionId[_id][i];\n\n   }\n\n    }\n   return address(0x0);\n    }*/\n    }\n\n\n\n\n\n\n\n\n\n",
  "sourcePath": "C:\\Users\\Luca\\Desktop\\tesi\\My-tesi\\src\\contracts\\LoanItem.sol",
  "compiler": {
    "name": "solc",
    "version": "0.8.11+commit.d7f03943.Emscripten.clang"
  },
  "schemaVersion": "3.4.1",
  "updatedAt": "2021-12-20T18:11:33.378Z",
  "devdoc": {
    "kind": "dev",
    "methods": {},
    "version": 1
  },
  "userdoc": {
    "kind": "user",
    "methods": {},
    "version": 1
  }
}