{
  "contractName": "LoanItem",
  "abi": [
    {
      "inputs": [
        {
          "internalType": "address",
          "name": "_owner",
          "type": "address"
        },
        {
          "internalType": "contract Calendar",
          "name": "Cad",
          "type": "address"
        }
      ],
      "stateMutability": "nonpayable",
      "type": "constructor"
    },
    {
      "anonymous": false,
      "inputs": [
        {
          "indexed": true,
          "internalType": "address",
          "name": "account",
          "type": "address"
        },
        {
          "indexed": true,
          "internalType": "address",
          "name": "operator",
          "type": "address"
        },
        {
          "indexed": false,
          "internalType": "bool",
          "name": "approved",
          "type": "bool"
        }
      ],
      "name": "ApprovalForAll",
      "type": "event"
    },
    {
      "anonymous": false,
      "inputs": [
        {
          "indexed": false,
          "internalType": "uint256",
          "name": "id",
          "type": "uint256"
        },
        {
          "indexed": false,
          "internalType": "string",
          "name": "description",
          "type": "string"
        },
        {
          "indexed": false,
          "internalType": "string",
          "name": "namec",
          "type": "string"
        }
      ],
      "name": "CoinFTCreated",
      "type": "event"
    },
    {
      "anonymous": false,
      "inputs": [
        {
          "indexed": false,
          "internalType": "uint256",
          "name": "id",
          "type": "uint256"
        },
        {
          "indexed": false,
          "internalType": "string",
          "name": "hash",
          "type": "string"
        },
        {
          "indexed": false,
          "internalType": "string",
          "name": "description",
          "type": "string"
        },
        {
          "indexed": false,
          "internalType": "uint256",
          "name": "tokenId",
          "type": "uint256"
        },
        {
          "indexed": false,
          "internalType": "address",
          "name": "author",
          "type": "address"
        }
      ],
      "name": "ImageCreated",
      "type": "event"
    },
    {
      "anonymous": false,
      "inputs": [
        {
          "indexed": false,
          "internalType": "uint256",
          "name": "id",
          "type": "uint256"
        },
        {
          "components": [
            {
              "internalType": "uint256",
              "name": "id",
              "type": "uint256"
            },
            {
              "internalType": "string",
              "name": "hash",
              "type": "string"
            },
            {
              "internalType": "string",
              "name": "description",
              "type": "string"
            },
            {
              "internalType": "uint256",
              "name": "tokenId",
              "type": "uint256"
            },
            {
              "internalType": "address",
              "name": "author",
              "type": "address"
            }
          ],
          "indexed": false,
          "internalType": "struct LoanItem.Image",
          "name": "phots",
          "type": "tuple"
        },
        {
          "indexed": false,
          "internalType": "string",
          "name": "description",
          "type": "string"
        },
        {
          "indexed": false,
          "internalType": "string",
          "name": "namet",
          "type": "string"
        },
        {
          "indexed": false,
          "internalType": "uint256",
          "name": "pricel",
          "type": "uint256"
        },
        {
          "indexed": false,
          "internalType": "uint256",
          "name": "caution",
          "type": "uint256"
        },
        {
          "indexed": false,
          "internalType": "uint256",
          "name": "Cid",
          "type": "uint256"
        }
      ],
      "name": "TokenNFTCreated",
      "type": "event"
    },
    {
      "anonymous": false,
      "inputs": [
        {
          "indexed": true,
          "internalType": "address",
          "name": "operator",
          "type": "address"
        },
        {
          "indexed": true,
          "internalType": "address",
          "name": "from",
          "type": "address"
        },
        {
          "indexed": true,
          "internalType": "address",
          "name": "to",
          "type": "address"
        },
        {
          "indexed": false,
          "internalType": "uint256[]",
          "name": "ids",
          "type": "uint256[]"
        },
        {
          "indexed": false,
          "internalType": "uint256[]",
          "name": "values",
          "type": "uint256[]"
        }
      ],
      "name": "TransferBatch",
      "type": "event"
    },
    {
      "anonymous": false,
      "inputs": [
        {
          "indexed": true,
          "internalType": "address",
          "name": "operator",
          "type": "address"
        },
        {
          "indexed": true,
          "internalType": "address",
          "name": "from",
          "type": "address"
        },
        {
          "indexed": true,
          "internalType": "address",
          "name": "to",
          "type": "address"
        },
        {
          "indexed": false,
          "internalType": "uint256",
          "name": "id",
          "type": "uint256"
        },
        {
          "indexed": false,
          "internalType": "uint256",
          "name": "value",
          "type": "uint256"
        }
      ],
      "name": "TransferSingle",
      "type": "event"
    },
    {
      "anonymous": false,
      "inputs": [
        {
          "indexed": false,
          "internalType": "string",
          "name": "value",
          "type": "string"
        },
        {
          "indexed": true,
          "internalType": "uint256",
          "name": "id",
          "type": "uint256"
        }
      ],
      "name": "URI",
      "type": "event"
    },
    {
      "inputs": [
        {
          "internalType": "uint256",
          "name": "",
          "type": "uint256"
        }
      ],
      "name": "CautionId",
      "outputs": [
        {
          "internalType": "address",
          "name": "",
          "type": "address"
        }
      ],
      "stateMutability": "view",
      "type": "function"
    },
    {
      "inputs": [
        {
          "internalType": "uint256",
          "name": "",
          "type": "uint256"
        }
      ],
      "name": "Cds",
      "outputs": [
        {
          "internalType": "uint256",
          "name": "",
          "type": "uint256"
        }
      ],
      "stateMutability": "view",
      "type": "function"
    },
    {
      "inputs": [
        {
          "internalType": "uint256",
          "name": "",
          "type": "uint256"
        }
      ],
      "name": "CoinId",
      "outputs": [
        {
          "internalType": "uint256",
          "name": "id",
          "type": "uint256"
        },
        {
          "internalType": "string",
          "name": "description",
          "type": "string"
        },
        {
          "internalType": "string",
          "name": "namec",
          "type": "string"
        }
      ],
      "stateMutability": "view",
      "type": "function"
    },
    {
      "inputs": [
        {
          "internalType": "address",
          "name": "account",
          "type": "address"
        },
        {
          "internalType": "uint256",
          "name": "id",
          "type": "uint256"
        }
      ],
      "name": "balanceOf",
      "outputs": [
        {
          "internalType": "uint256",
          "name": "",
          "type": "uint256"
        }
      ],
      "stateMutability": "view",
      "type": "function"
    },
    {
      "inputs": [
        {
          "internalType": "address[]",
          "name": "accounts",
          "type": "address[]"
        },
        {
          "internalType": "uint256[]",
          "name": "ids",
          "type": "uint256[]"
        }
      ],
      "name": "balanceOfBatch",
      "outputs": [
        {
          "internalType": "uint256[]",
          "name": "",
          "type": "uint256[]"
        }
      ],
      "stateMutability": "view",
      "type": "function"
    },
    {
      "inputs": [],
      "name": "countAttrezzi",
      "outputs": [
        {
          "internalType": "uint256",
          "name": "",
          "type": "uint256"
        }
      ],
      "stateMutability": "view",
      "type": "function"
    },
    {
      "inputs": [
        {
          "internalType": "address",
          "name": "",
          "type": "address"
        }
      ],
      "name": "hasStaked",
      "outputs": [
        {
          "internalType": "bool",
          "name": "",
          "type": "bool"
        }
      ],
      "stateMutability": "view",
      "type": "function"
    },
    {
      "inputs": [
        {
          "internalType": "uint256",
          "name": "",
          "type": "uint256"
        }
      ],
      "name": "ids",
      "outputs": [
        {
          "internalType": "uint256",
          "name": "",
          "type": "uint256"
        }
      ],
      "stateMutability": "view",
      "type": "function"
    },
    {
      "inputs": [],
      "name": "imageCount",
      "outputs": [
        {
          "internalType": "uint256",
          "name": "",
          "type": "uint256"
        }
      ],
      "stateMutability": "view",
      "type": "function"
    },
    {
      "inputs": [
        {
          "internalType": "uint256",
          "name": "",
          "type": "uint256"
        }
      ],
      "name": "images",
      "outputs": [
        {
          "internalType": "uint256",
          "name": "id",
          "type": "uint256"
        },
        {
          "internalType": "string",
          "name": "hash",
          "type": "string"
        },
        {
          "internalType": "string",
          "name": "description",
          "type": "string"
        },
        {
          "internalType": "uint256",
          "name": "tokenId",
          "type": "uint256"
        },
        {
          "internalType": "address",
          "name": "author",
          "type": "address"
        }
      ],
      "stateMutability": "view",
      "type": "function"
    },
    {
      "inputs": [
        {
          "internalType": "address",
          "name": "account",
          "type": "address"
        },
        {
          "internalType": "address",
          "name": "operator",
          "type": "address"
        }
      ],
      "name": "isApprovedForAll",
      "outputs": [
        {
          "internalType": "bool",
          "name": "",
          "type": "bool"
        }
      ],
      "stateMutability": "view",
      "type": "function"
    },
    {
      "inputs": [
        {
          "internalType": "address",
          "name": "",
          "type": "address"
        }
      ],
      "name": "isStaking",
      "outputs": [
        {
          "internalType": "bool",
          "name": "",
          "type": "bool"
        }
      ],
      "stateMutability": "view",
      "type": "function"
    },
    {
      "inputs": [],
      "name": "name",
      "outputs": [
        {
          "internalType": "string",
          "name": "",
          "type": "string"
        }
      ],
      "stateMutability": "view",
      "type": "function"
    },
    {
      "inputs": [],
      "name": "owner",
      "outputs": [
        {
          "internalType": "address",
          "name": "",
          "type": "address"
        }
      ],
      "stateMutability": "view",
      "type": "function"
    },
    {
      "inputs": [
        {
          "internalType": "address",
          "name": "",
          "type": "address"
        }
      ],
      "name": "permissions",
      "outputs": [
        {
          "internalType": "bool",
          "name": "",
          "type": "bool"
        }
      ],
      "stateMutability": "view",
      "type": "function"
    },
    {
      "inputs": [
        {
          "internalType": "address",
          "name": "from",
          "type": "address"
        },
        {
          "internalType": "address",
          "name": "to",
          "type": "address"
        },
        {
          "internalType": "uint256[]",
          "name": "ids",
          "type": "uint256[]"
        },
        {
          "internalType": "uint256[]",
          "name": "amounts",
          "type": "uint256[]"
        },
        {
          "internalType": "bytes",
          "name": "data",
          "type": "bytes"
        }
      ],
      "name": "safeBatchTransferFrom",
      "outputs": [],
      "stateMutability": "nonpayable",
      "type": "function"
    },
    {
      "inputs": [
        {
          "internalType": "address",
          "name": "from",
          "type": "address"
        },
        {
          "internalType": "address",
          "name": "to",
          "type": "address"
        },
        {
          "internalType": "uint256",
          "name": "id",
          "type": "uint256"
        },
        {
          "internalType": "uint256",
          "name": "amount",
          "type": "uint256"
        },
        {
          "internalType": "bytes",
          "name": "data",
          "type": "bytes"
        }
      ],
      "name": "safeTransferFrom",
      "outputs": [],
      "stateMutability": "nonpayable",
      "type": "function"
    },
    {
      "inputs": [
        {
          "internalType": "address",
          "name": "operator",
          "type": "address"
        },
        {
          "internalType": "bool",
          "name": "approved",
          "type": "bool"
        }
      ],
      "name": "setApprovalForAll",
      "outputs": [],
      "stateMutability": "nonpayable",
      "type": "function"
    },
    {
      "inputs": [
        {
          "internalType": "uint256",
          "name": "",
          "type": "uint256"
        }
      ],
      "name": "stakers",
      "outputs": [
        {
          "internalType": "address",
          "name": "",
          "type": "address"
        }
      ],
      "stateMutability": "view",
      "type": "function"
    },
    {
      "inputs": [
        {
          "internalType": "address",
          "name": "",
          "type": "address"
        }
      ],
      "name": "stakingBalance",
      "outputs": [
        {
          "internalType": "uint256",
          "name": "",
          "type": "uint256"
        }
      ],
      "stateMutability": "view",
      "type": "function"
    },
    {
      "inputs": [
        {
          "internalType": "bytes4",
          "name": "interfaceId",
          "type": "bytes4"
        }
      ],
      "name": "supportsInterface",
      "outputs": [
        {
          "internalType": "bool",
          "name": "",
          "type": "bool"
        }
      ],
      "stateMutability": "view",
      "type": "function"
    },
    {
      "inputs": [],
      "name": "symbol",
      "outputs": [
        {
          "internalType": "string",
          "name": "",
          "type": "string"
        }
      ],
      "stateMutability": "view",
      "type": "function"
    },
    {
      "inputs": [
        {
          "internalType": "uint256",
          "name": "",
          "type": "uint256"
        }
      ],
      "name": "tokenId",
      "outputs": [
        {
          "internalType": "uint256",
          "name": "id",
          "type": "uint256"
        },
        {
          "components": [
            {
              "internalType": "uint256",
              "name": "id",
              "type": "uint256"
            },
            {
              "internalType": "string",
              "name": "hash",
              "type": "string"
            },
            {
              "internalType": "string",
              "name": "description",
              "type": "string"
            },
            {
              "internalType": "uint256",
              "name": "tokenId",
              "type": "uint256"
            },
            {
              "internalType": "address",
              "name": "author",
              "type": "address"
            }
          ],
          "internalType": "struct LoanItem.Image",
          "name": "phots",
          "type": "tuple"
        },
        {
          "internalType": "string",
          "name": "description",
          "type": "string"
        },
        {
          "internalType": "string",
          "name": "namet",
          "type": "string"
        },
        {
          "internalType": "uint256",
          "name": "pricel",
          "type": "uint256"
        },
        {
          "internalType": "uint256",
          "name": "caution",
          "type": "uint256"
        },
        {
          "internalType": "uint256",
          "name": "Cid",
          "type": "uint256"
        }
      ],
      "stateMutability": "view",
      "type": "function"
    },
    {
      "inputs": [
        {
          "internalType": "uint256",
          "name": "",
          "type": "uint256"
        }
      ],
      "name": "uri",
      "outputs": [
        {
          "internalType": "string",
          "name": "",
          "type": "string"
        }
      ],
      "stateMutability": "view",
      "type": "function"
    },
    {
      "inputs": [
        {
          "internalType": "uint256",
          "name": "value",
          "type": "uint256"
        },
        {
          "internalType": "string",
          "name": "Name",
          "type": "string"
        },
        {
          "internalType": "string",
          "name": "description",
          "type": "string"
        }
      ],
      "name": "addNewCoin",
      "outputs": [],
      "stateMutability": "nonpayable",
      "type": "function"
    },
    {
      "inputs": [
        {
          "internalType": "address",
          "name": "ute",
          "type": "address"
        },
        {
          "internalType": "bool",
          "name": "setting",
          "type": "bool"
        }
      ],
      "name": "setPermissions",
      "outputs": [],
      "stateMutability": "nonpayable",
      "type": "function"
    },
    {
      "inputs": [
        {
          "internalType": "uint256",
          "name": "price",
          "type": "uint256"
        },
        {
          "internalType": "uint256",
          "name": "caution",
          "type": "uint256"
        },
        {
          "internalType": "string",
          "name": "_imgHash",
          "type": "string"
        },
        {
          "internalType": "string",
          "name": "_description",
          "type": "string"
        },
        {
          "internalType": "string",
          "name": "namef",
          "type": "string"
        },
        {
          "internalType": "uint256",
          "name": "Cid",
          "type": "uint256"
        }
      ],
      "name": "addNewItem",
      "outputs": [],
      "stateMutability": "nonpayable",
      "type": "function"
    },
    {
      "inputs": [
        {
          "internalType": "address",
          "name": "_from",
          "type": "address"
        },
        {
          "internalType": "address",
          "name": "_to",
          "type": "address"
        },
        {
          "internalType": "uint256",
          "name": "_id",
          "type": "uint256"
        },
        {
          "internalType": "bool",
          "name": "pre",
          "type": "bool"
        },
        {
          "internalType": "bool",
          "name": "acq",
          "type": "bool"
        }
      ],
      "name": "TrasferTest",
      "outputs": [],
      "stateMutability": "nonpayable",
      "type": "function"
    },
    {
      "inputs": [
        {
          "internalType": "address",
          "name": "_to",
          "type": "address"
        },
        {
          "internalType": "uint256",
          "name": "coin",
          "type": "uint256"
        },
        {
          "internalType": "uint256",
          "name": "value",
          "type": "uint256"
        }
      ],
      "name": "GiveToken",
      "outputs": [],
      "stateMutability": "nonpayable",
      "type": "function"
    },
    {
      "inputs": [
        {
          "internalType": "uint256",
          "name": "_id",
          "type": "uint256"
        },
        {
          "internalType": "uint256",
          "name": "caution",
          "type": "uint256"
        }
      ],
      "name": "ReleseW",
      "outputs": [],
      "stateMutability": "nonpayable",
      "type": "function"
    }
  ],
  "bytecode": "0x60806040526040518060400160405280600881526020017f4c6f616e4974656d000000000000000000000000000000000000000000000000815250600390805190602001906200005192919062000215565b506040518060400160405280600281526020017f4c49000000000000000000000000000000000000000000000000000000000000815250600490805190602001906200009f92919062000215565b50348015620000ad57600080fd5b5060405162005f2f38038062005f2f8339818101604052810190620000d3919062000374565b60405180602001604052806000815250620000f481620001f960201b60201c565b5081601360006101000a81548173ffffffffffffffffffffffffffffffffffffffff021916908373ffffffffffffffffffffffffffffffffffffffff1602179055506001600e6000601360009054906101000a900473ffffffffffffffffffffffffffffffffffffffff1673ffffffffffffffffffffffffffffffffffffffff1673ffffffffffffffffffffffffffffffffffffffff16815260200190815260200160002060006101000a81548160ff02191690831515021790555080600560006101000a81548173ffffffffffffffffffffffffffffffffffffffff021916908373ffffffffffffffffffffffffffffffffffffffff160217905550505062000420565b80600290805190602001906200021192919062000215565b5050565b8280546200022390620003ea565b90600052602060002090601f01602090048101928262000247576000855562000293565b82601f106200026257805160ff191683800117855562000293565b8280016001018555821562000293579182015b828111156200029257825182559160200191906001019062000275565b5b509050620002a29190620002a6565b5090565b5b80821115620002c1576000816000905550600101620002a7565b5090565b600080fd5b600073ffffffffffffffffffffffffffffffffffffffff82169050919050565b6000620002f782620002ca565b9050919050565b6200030981620002ea565b81146200031557600080fd5b50565b6000815190506200032981620002fe565b92915050565b60006200033c82620002ea565b9050919050565b6200034e816200032f565b81146200035a57600080fd5b50565b6000815190506200036e8162000343565b92915050565b600080604083850312156200038e576200038d620002c5565b5b60006200039e8582860162000318565b9250506020620003b1858286016200035d565b9150509250929050565b7f4e487b7100000000000000000000000000000000000000000000000000000000600052602260045260246000fd5b600060028204905060018216806200040357607f821691505b602082108114156200041a5762000419620003bb565b5b50919050565b615aff80620004306000396000f3fe608060405234801561001057600080fd5b50600436106101d95760003560e01c80637a8ad59411610104578063a1af645f116100a2578063e985e9c511610071578063e985e9c5146105d0578063f242432a14610600578063fac333ac1461061c578063fd5e6dd11461064c576101d9565b8063a1af645f14610536578063a22cb46514610566578063a963cff714610582578063c93c8f34146105a0576101d9565b80638da5cb5b116100de5780638da5cb5b146104c057806392053b63146104de57806395d89b41146104fc578063a166754b1461051a576101d9565b80637a8ad594146104265780637dcb0e5f14610456578063848564821461048c576101d9565b80633a712e831161017c5780634e1273f41161014b5780634e1273f41461038e5780636165234c146103be578063689ceaac146103da5780636f49712b146103f6576101d9565b80633a712e83146102f457806345bc78ab14610310578063499ea4b3146103405780634ac726c114610372576101d9565b806306fdde03116101b857806306fdde031461026e5780630e89341c1461028c5780631be27808146102bc5780632eb2c2d6146102d8576101d9565b8062fdd58e146101de57806301e882081461020e57806301ffc9a71461023e575b600080fd5b6101f860048036038101906101f3919061394f565b61067c565b604051610205919061399e565b60405180910390f35b610228600480360381019061022391906139b9565b610745565b6040516102359190613a01565b60405180910390f35b61025860048036038101906102539190613a74565b610765565b6040516102659190613a01565b60405180910390f35b610276610847565b6040516102839190613b3a565b60405180910390f35b6102a660048036038101906102a19190613b5c565b6108d5565b6040516102b39190613b3a565b60405180910390f35b6102d660048036038101906102d19190613bb5565b610969565b005b6102f260048036038101906102ed9190613e2d565b611131565b005b61030e60048036038101906103099190613f9d565b6111d2565b005b61032a600480360381019061032591906139b9565b6113e4565b604051610337919061399e565b60405180910390f35b61035a60048036038101906103559190613b5c565b6113fc565b60405161036993929190614028565b60405180910390f35b61038c6004803603810190610387919061406d565b611536565b005b6103a860048036038101906103a39190614170565b611849565b6040516103b591906142a6565b60405180910390f35b6103d860048036038101906103d391906142c8565b611962565b005b6103f460048036038101906103ef9190614308565b611aa8565b005b610410600480360381019061040b91906139b9565b612264565b60405161041d9190613a01565b60405180910390f35b610440600480360381019061043b9190613b5c565b612284565b60405161044d91906143f8565b60405180910390f35b610470600480360381019061046b9190613b5c565b6122b7565b60405161048397969594939291906144e9565b60405180910390f35b6104a660048036038101906104a19190613b5c565b6125a1565b6040516104b795949392919061456d565b60405180910390f35b6104c8612707565b6040516104d591906143f8565b60405180910390f35b6104e661272d565b6040516104f3919061399e565b60405180910390f35b610504612733565b6040516105119190613b3a565b60405180910390f35b610534600480360381019061052f91906145ce565b6127c1565b005b610550600480360381019061054b9190613b5c565b6128d6565b60405161055d919061399e565b60405180910390f35b610580600480360381019061057b91906142c8565b6128ee565b005b61058a612a6f565b604051610597919061399e565b60405180910390f35b6105ba60048036038101906105b591906139b9565b612a75565b6040516105c79190613a01565b60405180910390f35b6105ea60048036038101906105e59190614621565b612a95565b6040516105f79190613a01565b60405180910390f35b61061a60048036038101906106159190614661565b612b29565b005b61063660048036038101906106319190613b5c565b612bca565b604051610643919061399e565b60405180910390f35b61066660048036038101906106619190613b5c565b612be2565b60405161067391906143f8565b60405180910390f35b60008073ffffffffffffffffffffffffffffffffffffffff168373ffffffffffffffffffffffffffffffffffffffff1614156106ed576040517f08c379a00000000000000000000000000000000000000000000000000000000081526004016106e49061476a565b60405180910390fd5b60008083815260200190815260200160002060008473ffffffffffffffffffffffffffffffffffffffff1673ffffffffffffffffffffffffffffffffffffffff16815260200190815260200160002054905092915050565b600e6020528060005260406000206000915054906101000a900460ff1681565b60007fd9b67a26000000000000000000000000000000000000000000000000000000007bffffffffffffffffffffffffffffffffffffffffffffffffffffffff1916827bffffffffffffffffffffffffffffffffffffffffffffffffffffffff1916148061083057507f0e89341c000000000000000000000000000000000000000000000000000000007bffffffffffffffffffffffffffffffffffffffffffffffffffffffff1916827bffffffffffffffffffffffffffffffffffffffffffffffffffffffff1916145b80610840575061083f82612c21565b5b9050919050565b60038054610854906147b9565b80601f0160208091040260200160405190810160405280929190818152602001828054610880906147b9565b80156108cd5780601f106108a2576101008083540402835291602001916108cd565b820191906000526020600020905b8154815290600101906020018083116108b057829003601f168201915b505050505081565b6060600280546108e4906147b9565b80601f0160208091040260200160405190810160405280929190818152602001828054610910906147b9565b801561095d5780601f106109325761010080835404028352916020019161095d565b820191906000526020600020905b81548152906001019060200180831161094057829003601f168201915b50505050509050919050565b600073ffffffffffffffffffffffffffffffffffffffff168573ffffffffffffffffffffffffffffffffffffffff1614156109d9576040517f08c379a00000000000000000000000000000000000000000000000000000000081526004016109d090614837565b60405180910390fd5b600073ffffffffffffffffffffffffffffffffffffffff168473ffffffffffffffffffffffffffffffffffffffff161415610a49576040517f08c379a0000000000000000000000000000000000000000000000000000000008152600401610a40906148a3565b60405180910390fd5b60008311610a8c576040517f08c379a0000000000000000000000000000000000000000000000000000000008152600401610a839061490f565b60405180910390fd5b6040518060400160405280600781526020017f57616974696e670000000000000000000000000000000000000000000000000081525080519060200120600560009054906101000a900473ffffffffffffffffffffffffffffffffffffffff1673ffffffffffffffffffffffffffffffffffffffff166335b67731856040518263ffffffff1660e01b8152600401610b24919061399e565b600060405180830381865afa158015610b41573d6000803e3d6000fd5b505050506040513d6000823e3d601f19601f82011682018060405250810190610b6a919061499f565b805190602001201415610bb2576040517f08c379a0000000000000000000000000000000000000000000000000000000008152600401610ba990614a34565b60405180910390fd5b601360009054906101000a900473ffffffffffffffffffffffffffffffffffffffff1673ffffffffffffffffffffffffffffffffffffffff168473ffffffffffffffffffffffffffffffffffffffff16148015610cf157506040518060400160405280600481526020017f427573790000000000000000000000000000000000000000000000000000000081525080519060200120600560009054906101000a900473ffffffffffffffffffffffffffffffffffffffff1673ffffffffffffffffffffffffffffffffffffffff166335b67731856040518263ffffffff1660e01b8152600401610ca2919061399e565b600060405180830381865afa158015610cbf573d6000803e3d6000fd5b505050506040513d6000823e3d601f19601f82011682018060405250810190610ce8919061499f565b80519060200120145b15610e54576000600560009054906101000a900473ffffffffffffffffffffffffffffffffffffffff1673ffffffffffffffffffffffffffffffffffffffff16639ff3b46d856040518263ffffffff1660e01b8152600401610d539190614aa0565b6020604051808303816000875af1158015610d72573d6000803e3d6000fd5b505050506040513d601f19601f82011682018060405250810190610d969190614ae3565b90506001151581151514610ddf576040517f08c379a0000000000000000000000000000000000000000000000000000000008152600401610dd690614b5c565b60405180910390fd5b610dfc868686600160405180602001604052806000815250612b29565b85600c600086815260200190815260200160002060006101000a81548173ffffffffffffffffffffffffffffffffffffffff021916908373ffffffffffffffffffffffffffffffffffffffff16021790555050611129565b601360009054906101000a900473ffffffffffffffffffffffffffffffffffffffff1673ffffffffffffffffffffffffffffffffffffffff168573ffffffffffffffffffffffffffffffffffffffff16141561112857818015610eb5575080155b15610f5957610f028486600b6000878152602001908152602001600020600a0154600b60008881526020019081526020016000206009015460405180602001604052806000815250612b29565b83600c600085815260200190815260200160002060006101000a81548173ffffffffffffffffffffffffffffffffffffffff021916908373ffffffffffffffffffffffffffffffffffffffff16021790555061112a565b808015610f64575081155b50610fce8486600b6000878152602001908152602001600020600a0154600b600088815260200190815260200160002060090154600b600089815260200190815260200160002060080154610fb99190614bab565b60405180602001604052806000815250612b29565b610feb858585600160405180602001604052806000815250612b29565b6000600560009054906101000a900473ffffffffffffffffffffffffffffffffffffffff1673ffffffffffffffffffffffffffffffffffffffff16639ff3b46d856040518263ffffffff1660e01b81526004016110489190614c4d565b6020604051808303816000875af1158015611067573d6000803e3d6000fd5b505050506040513d601f19601f8201168201806040525081019061108b9190614ae3565b905060011515811515146110d4576040517f08c379a00000000000000000000000000000000000000000000000000000000081526004016110cb90614cc7565b60405180910390fd5b84600c600086815260200190815260200160002060006101000a81548173ffffffffffffffffffffffffffffffffffffffff021916908373ffffffffffffffffffffffffffffffffffffffff160217905550505b5b5b5050505050565b611139612c8b565b73ffffffffffffffffffffffffffffffffffffffff168573ffffffffffffffffffffffffffffffffffffffff16148061117f575061117e85611179612c8b565b612a95565b5b6111be576040517f08c379a00000000000000000000000000000000000000000000000000000000081526004016111b590614d59565b60405180910390fd5b6111cb8585858585612c93565b5050505050565b601360009054906101000a900473ffffffffffffffffffffffffffffffffffffffff1673ffffffffffffffffffffffffffffffffffffffff163373ffffffffffffffffffffffffffffffffffffffff16148061127e575060011515600e60003373ffffffffffffffffffffffffffffffffffffffff1673ffffffffffffffffffffffffffffffffffffffff16815260200190815260200160002060009054906101000a900460ff161515145b6112bd576040517f08c379a00000000000000000000000000000000000000000000000000000000081526004016112b490614dc5565b60405180910390fd5b60008251116112cb57600080fd5b600083116112d857600080fd5b601160008154809291906112eb90614de5565b919050555061130d336011548560405180602001604052806000815250612fa7565b601154601060006011548152602001908152602001600020819055506040518060600160405280601154815260200182815260200183815250600f60006011548152602001908152602001600020600082015181600001556020820151816001019080519060200190611381929190613804565b50604082015181600201908051906020019061139e929190613804565b509050507faf4b1085b3f4f980233bd54e1a354fed0504d6aa21ed37949c8b5aabae94653c60115482846040516113d793929190614028565b60405180910390a1505050565b60076020528060005260406000206000915090505481565b600f602052806000526040600020600091509050806000015490806001018054611425906147b9565b80601f0160208091040260200160405190810160405280929190818152602001828054611451906147b9565b801561149e5780601f106114735761010080835404028352916020019161149e565b820191906000526020600020905b81548152906001019060200180831161148157829003601f168201915b5050505050908060020180546114b3906147b9565b80601f01602080910402602001604051908101604052809291908181526020018280546114df906147b9565b801561152c5780601f106115015761010080835404028352916020019161152c565b820191906000526020600020905b81548152906001019060200180831161150f57829003601f168201915b5050505050905083565b601360009054906101000a900473ffffffffffffffffffffffffffffffffffffffff1673ffffffffffffffffffffffffffffffffffffffff163373ffffffffffffffffffffffffffffffffffffffff1614806115e2575060011515600e60003373ffffffffffffffffffffffffffffffffffffffff1673ffffffffffffffffffffffffffffffffffffffff16815260200190815260200160002060009054906101000a900460ff161515145b611621576040517f08c379a000000000000000000000000000000000000000000000000000000000815260040161161890614dc5565b60405180910390fd5b60008211611664576040517f08c379a000000000000000000000000000000000000000000000000000000000815260040161165b90614e54565b60405180910390fd5b6011548211156116a9576040517f08c379a00000000000000000000000000000000000000000000000000000000081526004016116a090614ec0565b60405180910390fd5b6000600d600084815260200190815260200160002054116116ff576040517f08c379a00000000000000000000000000000000000000000000000000000000081526004016116f690614f2c565b60405180910390fd5b600560009054906101000a900473ffffffffffffffffffffffffffffffffffffffff1673ffffffffffffffffffffffffffffffffffffffff16634abc9325836040518263ffffffff1660e01b815260040161175a919061399e565b600060405180830381600087803b15801561177457600080fd5b505af1158015611788573d6000803e3d6000fd5b505050506117f233600c600085815260200190815260200160002060009054906101000a900473ffffffffffffffffffffffffffffffffffffffff166001600b60008781526020019081526020016000206009015460405180602001604052806000815250612b29565b6000600c600084815260200190815260200160002060006101000a81548173ffffffffffffffffffffffffffffffffffffffff021916908373ffffffffffffffffffffffffffffffffffffffff1602179055505050565b6060815183511461188f576040517f08c379a000000000000000000000000000000000000000000000000000000000815260040161188690614fbe565b60405180910390fd5b6000835167ffffffffffffffff8111156118ac576118ab613c35565b5b6040519080825280602002602001820160405280156118da5781602001602082028036833780820191505090505b50905060005b8451811015611957576119278582815181106118ff576118fe614fde565b5b602002602001015185838151811061191a57611919614fde565b5b602002602001015161067c565b82828151811061193a57611939614fde565b5b6020026020010181815250508061195090614de5565b90506118e0565b508091505092915050565b601360009054906101000a900473ffffffffffffffffffffffffffffffffffffffff1673ffffffffffffffffffffffffffffffffffffffff163373ffffffffffffffffffffffffffffffffffffffff161480611a0e575060011515600e60003373ffffffffffffffffffffffffffffffffffffffff1673ffffffffffffffffffffffffffffffffffffffff16815260200190815260200160002060009054906101000a900460ff161515145b611a4d576040517f08c379a0000000000000000000000000000000000000000000000000000000008152600401611a4490614dc5565b60405180910390fd5b80600e60008473ffffffffffffffffffffffffffffffffffffffff1673ffffffffffffffffffffffffffffffffffffffff16815260200190815260200160002060006101000a81548160ff0219169083151502179055505050565b601360009054906101000a900473ffffffffffffffffffffffffffffffffffffffff1673ffffffffffffffffffffffffffffffffffffffff163373ffffffffffffffffffffffffffffffffffffffff161480611b54575060011515600e60003373ffffffffffffffffffffffffffffffffffffffff1673ffffffffffffffffffffffffffffffffffffffff16815260200190815260200160002060009054906101000a900460ff161515145b611b93576040517f08c379a0000000000000000000000000000000000000000000000000000000008152600401611b8a90614dc5565b60405180910390fd5b60008511611ba057600080fd5b6000825111611bae57600080fd5b60008611611bbb57600080fd5b6000835111611bc957600080fd5b6000845111611bd757600080fd5b600073ffffffffffffffffffffffffffffffffffffffff163373ffffffffffffffffffffffffffffffffffffffff161415611c1157600080fd5b6000600f60008381526020019081526020016000206002018054611c34906147b9565b905011611c76576040517f08c379a0000000000000000000000000000000000000000000000000000000008152600401611c6d90615059565b60405180910390fd5b60126000815480929190611c8990614de5565b919050555060116000815480929190611ca190614de5565b9190505550600560009054906101000a900473ffffffffffffffffffffffffffffffffffffffff1673ffffffffffffffffffffffffffffffffffffffff16639ff3b46d6011546040518263ffffffff1660e01b8152600401611d0391906150c5565b6020604051808303816000875af1158015611d22573d6000803e3d6000fd5b505050506040513d601f19601f82011682018060405250810190611d469190614ae3565b50601154600d6000601154815260200190815260200160002081905550611d9433600d6000601154815260200190815260200160002054600160405180602001604052806000815250612fa7565b6040518060a00160405280601254815260200185815260200184815260200160008152602001601360009054906101000a900473ffffffffffffffffffffffffffffffffffffffff1673ffffffffffffffffffffffffffffffffffffffff16815250600a60006012548152602001908152602001600020600082015181600001556020820151816001019080519060200190611e31929190613804565b506040820151816002019080519060200190611e4e929190613804565b506060820151816003015560808201518160040160006101000a81548173ffffffffffffffffffffffffffffffffffffffff021916908373ffffffffffffffffffffffffffffffffffffffff1602179055509050506040518060e001604052806011548152602001600a600060125481526020019081526020016000206040518060a001604052908160008201548152602001600182018054611ef0906147b9565b80601f0160208091040260200160405190810160405280929190818152602001828054611f1c906147b9565b8015611f695780601f10611f3e57610100808354040283529160200191611f69565b820191906000526020600020905b815481529060010190602001808311611f4c57829003601f168201915b50505050508152602001600282018054611f82906147b9565b80601f0160208091040260200160405190810160405280929190818152602001828054611fae906147b9565b8015611ffb5780601f10611fd057610100808354040283529160200191611ffb565b820191906000526020600020905b815481529060010190602001808311611fde57829003601f168201915b50505050508152602001600382015481526020016004820160009054906101000a900473ffffffffffffffffffffffffffffffffffffffff1673ffffffffffffffffffffffffffffffffffffffff1673ffffffffffffffffffffffffffffffffffffffff1681525050815260200184815260200183815260200187815260200186815260200182815250600b60006011548152602001908152602001600020600082015181600001556020820151816001016000820151816000015560208201518160010190805190602001906120d3929190613804565b5060408201518160020190805190602001906120f0929190613804565b506060820151816003015560808201518160040160006101000a81548173ffffffffffffffffffffffffffffffffffffffff021916908373ffffffffffffffffffffffffffffffffffffffff16021790555050506040820151816006019080519060200190612160929190613804565b50606082015181600701908051906020019061217d929190613804565b506080820151816008015560a0820151816009015560c082015181600a01559050507fc1d8dfa99b3f84f95d3f0bc4a768addeb97b83b20aef7f9cb6729e126bafd2f960125485856000601360009054906101000a900473ffffffffffffffffffffffffffffffffffffffff166040516121fb959493929190615138565b60405180910390a17fb5c81648406183bffdea7566bac0ed978ae944671b4599c84fbe7b47f9f52429601154600a6000601254815260200190815260200160002085858a8a876040516122549796959493929190615337565b60405180910390a1505050505050565b60096020528060005260406000206000915054906101000a900460ff1681565b600c6020528060005260406000206000915054906101000a900473ffffffffffffffffffffffffffffffffffffffff1681565b600b602052806000526040600020600091509050806000015490806001016040518060a0016040529081600082015481526020016001820180546122fa906147b9565b80601f0160208091040260200160405190810160405280929190818152602001828054612326906147b9565b80156123735780601f1061234857610100808354040283529160200191612373565b820191906000526020600020905b81548152906001019060200180831161235657829003601f168201915b5050505050815260200160028201805461238c906147b9565b80601f01602080910402602001604051908101604052809291908181526020018280546123b8906147b9565b80156124055780601f106123da57610100808354040283529160200191612405565b820191906000526020600020905b8154815290600101906020018083116123e857829003601f168201915b50505050508152602001600382015481526020016004820160009054906101000a900473ffffffffffffffffffffffffffffffffffffffff1673ffffffffffffffffffffffffffffffffffffffff1673ffffffffffffffffffffffffffffffffffffffff16815250509080600601805461247e906147b9565b80601f01602080910402602001604051908101604052809291908181526020018280546124aa906147b9565b80156124f75780601f106124cc576101008083540402835291602001916124f7565b820191906000526020600020905b8154815290600101906020018083116124da57829003601f168201915b50505050509080600701805461250c906147b9565b80601f0160208091040260200160405190810160405280929190818152602001828054612538906147b9565b80156125855780601f1061255a57610100808354040283529160200191612585565b820191906000526020600020905b81548152906001019060200180831161256857829003601f168201915b50505050509080600801549080600901549080600a0154905087565b600a6020528060005260406000206000915090508060000154908060010180546125ca906147b9565b80601f01602080910402602001604051908101604052809291908181526020018280546125f6906147b9565b80156126435780601f1061261857610100808354040283529160200191612643565b820191906000526020600020905b81548152906001019060200180831161262657829003601f168201915b505050505090806002018054612658906147b9565b80601f0160208091040260200160405190810160405280929190818152602001828054612684906147b9565b80156126d15780601f106126a6576101008083540402835291602001916126d1565b820191906000526020600020905b8154815290600101906020018083116126b457829003601f168201915b5050505050908060030154908060040160009054906101000a900473ffffffffffffffffffffffffffffffffffffffff16905085565b601360009054906101000a900473ffffffffffffffffffffffffffffffffffffffff1681565b60125481565b60048054612740906147b9565b80601f016020809104026020016040519081016040528092919081815260200182805461276c906147b9565b80156127b95780601f1061278e576101008083540402835291602001916127b9565b820191906000526020600020905b81548152906001019060200180831161279c57829003601f168201915b505050505081565b601360009054906101000a900473ffffffffffffffffffffffffffffffffffffffff1673ffffffffffffffffffffffffffffffffffffffff163373ffffffffffffffffffffffffffffffffffffffff16148061286d575060011515600e60003373ffffffffffffffffffffffffffffffffffffffff1673ffffffffffffffffffffffffffffffffffffffff16815260200190815260200160002060009054906101000a900460ff161515145b6128ac576040517f08c379a00000000000000000000000000000000000000000000000000000000081526004016128a390614dc5565b60405180910390fd5b6128d133848468056bc75e2d6310000060405180602001604052806000815250612b29565b505050565b60106020528060005260406000206000915090505481565b8173ffffffffffffffffffffffffffffffffffffffff1661290d612c8b565b73ffffffffffffffffffffffffffffffffffffffff161415612964576040517f08c379a000000000000000000000000000000000000000000000000000000000815260040161295b9061542d565b60405180910390fd5b8060016000612971612c8b565b73ffffffffffffffffffffffffffffffffffffffff1673ffffffffffffffffffffffffffffffffffffffff16815260200190815260200160002060008473ffffffffffffffffffffffffffffffffffffffff1673ffffffffffffffffffffffffffffffffffffffff16815260200190815260200160002060006101000a81548160ff0219169083151502179055508173ffffffffffffffffffffffffffffffffffffffff16612a1e612c8b565b73ffffffffffffffffffffffffffffffffffffffff167f17307eab39ab6107e8899845ad3d59bd9653f200f220920489ca2b5937696c3183604051612a639190613a01565b60405180910390a35050565b60115481565b60086020528060005260406000206000915054906101000a900460ff1681565b6000600160008473ffffffffffffffffffffffffffffffffffffffff1673ffffffffffffffffffffffffffffffffffffffff16815260200190815260200160002060008373ffffffffffffffffffffffffffffffffffffffff1673ffffffffffffffffffffffffffffffffffffffff16815260200190815260200160002060009054906101000a900460ff16905092915050565b612b31612c8b565b73ffffffffffffffffffffffffffffffffffffffff168573ffffffffffffffffffffffffffffffffffffffff161480612b775750612b7685612b71612c8b565b612a95565b5b612bb6576040517f08c379a0000000000000000000000000000000000000000000000000000000008152600401612bad906154bf565b60405180910390fd5b612bc3858585858561313d565b5050505050565b600d6020528060005260406000206000915090505481565b60068181548110612bf257600080fd5b906000526020600020016000915054906101000a900473ffffffffffffffffffffffffffffffffffffffff1681565b60007f01ffc9a7000000000000000000000000000000000000000000000000000000007bffffffffffffffffffffffffffffffffffffffffffffffffffffffff1916827bffffffffffffffffffffffffffffffffffffffffffffffffffffffff1916149050919050565b600033905090565b8151835114612cd7576040517f08c379a0000000000000000000000000000000000000000000000000000000008152600401612cce90615551565b60405180910390fd5b600073ffffffffffffffffffffffffffffffffffffffff168473ffffffffffffffffffffffffffffffffffffffff161415612d47576040517f08c379a0000000000000000000000000000000000000000000000000000000008152600401612d3e906155e3565b60405180910390fd5b6000612d51612c8b565b9050612d618187878787876133bf565b60005b8451811015612f12576000858281518110612d8257612d81614fde565b5b602002602001015190506000858381518110612da157612da0614fde565b5b60200260200101519050600080600084815260200190815260200160002060008b73ffffffffffffffffffffffffffffffffffffffff1673ffffffffffffffffffffffffffffffffffffffff16815260200190815260200160002054905081811015612e42576040517f08c379a0000000000000000000000000000000000000000000000000000000008152600401612e3990615675565b60405180910390fd5b81810360008085815260200190815260200160002060008c73ffffffffffffffffffffffffffffffffffffffff1673ffffffffffffffffffffffffffffffffffffffff168152602001908152602001600020819055508160008085815260200190815260200160002060008b73ffffffffffffffffffffffffffffffffffffffff1673ffffffffffffffffffffffffffffffffffffffff1681526020019081526020016000206000828254612ef79190614bab565b9250508190555050505080612f0b90614de5565b9050612d64565b508473ffffffffffffffffffffffffffffffffffffffff168673ffffffffffffffffffffffffffffffffffffffff168273ffffffffffffffffffffffffffffffffffffffff167f4a39dc06d4c0dbc64b70af90fd698a233a518aa5d07e595d983b8c0526c8f7fb8787604051612f89929190615695565b60405180910390a4612f9f8187878787876133c7565b505050505050565b600073ffffffffffffffffffffffffffffffffffffffff168473ffffffffffffffffffffffffffffffffffffffff161415613017576040517f08c379a000000000000000000000000000000000000000000000000000000000815260040161300e9061573e565b60405180910390fd5b6000613021612c8b565b9050613042816000876130338861359f565b61303c8861359f565b876133bf565b8260008086815260200190815260200160002060008773ffffffffffffffffffffffffffffffffffffffff1673ffffffffffffffffffffffffffffffffffffffff16815260200190815260200160002060008282546130a19190614bab565b925050819055508473ffffffffffffffffffffffffffffffffffffffff16600073ffffffffffffffffffffffffffffffffffffffff168273ffffffffffffffffffffffffffffffffffffffff167fc3d58168c5ae7397731d063d5bbf3d657854427343f4c083240f7aacaa2d0f62878760405161311f92919061575e565b60405180910390a461313681600087878787613619565b5050505050565b600073ffffffffffffffffffffffffffffffffffffffff168473ffffffffffffffffffffffffffffffffffffffff1614156131ad576040517f08c379a00000000000000000000000000000000000000000000000000000000081526004016131a4906155e3565b60405180910390fd5b60006131b7612c8b565b90506131d78187876131c88861359f565b6131d18861359f565b876133bf565b600080600086815260200190815260200160002060008873ffffffffffffffffffffffffffffffffffffffff1673ffffffffffffffffffffffffffffffffffffffff1681526020019081526020016000205490508381101561326e576040517f08c379a000000000000000000000000000000000000000000000000000000000815260040161326590615675565b60405180910390fd5b83810360008087815260200190815260200160002060008973ffffffffffffffffffffffffffffffffffffffff1673ffffffffffffffffffffffffffffffffffffffff168152602001908152602001600020819055508360008087815260200190815260200160002060008873ffffffffffffffffffffffffffffffffffffffff1673ffffffffffffffffffffffffffffffffffffffff16815260200190815260200160002060008282546133239190614bab565b925050819055508573ffffffffffffffffffffffffffffffffffffffff168773ffffffffffffffffffffffffffffffffffffffff168373ffffffffffffffffffffffffffffffffffffffff167fc3d58168c5ae7397731d063d5bbf3d657854427343f4c083240f7aacaa2d0f6288886040516133a092919061575e565b60405180910390a46133b6828888888888613619565b50505050505050565b505050505050565b6133e68473ffffffffffffffffffffffffffffffffffffffff166137f1565b15613597578373ffffffffffffffffffffffffffffffffffffffff1663bc197c8187878686866040518663ffffffff1660e01b815260040161342c9594939291906157dc565b6020604051808303816000875af192505050801561346857506040513d601f19601f820116820180604052508101906134659190615859565b60015b61350e57613474615893565b806308c379a014156134d157506134896158b5565b8061349457506134d3565b806040517f08c379a00000000000000000000000000000000000000000000000000000000081526004016134c89190613b3a565b60405180910390fd5b505b6040517f08c379a0000000000000000000000000000000000000000000000000000000008152600401613505906159bd565b60405180910390fd5b63bc197c8160e01b7bffffffffffffffffffffffffffffffffffffffffffffffffffffffff1916817bffffffffffffffffffffffffffffffffffffffffffffffffffffffff191614613595576040517f08c379a000000000000000000000000000000000000000000000000000000000815260040161358c90615a4f565b60405180910390fd5b505b505050505050565b60606000600167ffffffffffffffff8111156135be576135bd613c35565b5b6040519080825280602002602001820160405280156135ec5781602001602082028036833780820191505090505b509050828160008151811061360457613603614fde565b5b60200260200101818152505080915050919050565b6136388473ffffffffffffffffffffffffffffffffffffffff166137f1565b156137e9578373ffffffffffffffffffffffffffffffffffffffff1663f23a6e6187878686866040518663ffffffff1660e01b815260040161367e959493929190615a6f565b6020604051808303816000875af19250505080156136ba57506040513d601f19601f820116820180604052508101906136b79190615859565b60015b613760576136c6615893565b806308c379a0141561372357506136db6158b5565b806136e65750613725565b806040517f08c379a000000000000000000000000000000000000000000000000000000000815260040161371a9190613b3a565b60405180910390fd5b505b6040517f08c379a0000000000000000000000000000000000000000000000000000000008152600401613757906159bd565b60405180910390fd5b63f23a6e6160e01b7bffffffffffffffffffffffffffffffffffffffffffffffffffffffff1916817bffffffffffffffffffffffffffffffffffffffffffffffffffffffff1916146137e7576040517f08c379a00000000000000000000000000000000000000000000000000000000081526004016137de90615a4f565b60405180910390fd5b505b505050505050565b600080823b905060008111915050919050565b828054613810906147b9565b90600052602060002090601f0160209004810192826138325760008555613879565b82601f1061384b57805160ff1916838001178555613879565b82800160010185558215613879579182015b8281111561387857825182559160200191906001019061385d565b5b509050613886919061388a565b5090565b5b808211156138a357600081600090555060010161388b565b5090565b6000604051905090565b600080fd5b600080fd5b600073ffffffffffffffffffffffffffffffffffffffff82169050919050565b60006138e6826138bb565b9050919050565b6138f6816138db565b811461390157600080fd5b50565b600081359050613913816138ed565b92915050565b6000819050919050565b61392c81613919565b811461393757600080fd5b50565b60008135905061394981613923565b92915050565b60008060408385031215613966576139656138b1565b5b600061397485828601613904565b92505060206139858582860161393a565b9150509250929050565b61399881613919565b82525050565b60006020820190506139b3600083018461398f565b92915050565b6000602082840312156139cf576139ce6138b1565b5b60006139dd84828501613904565b91505092915050565b60008115159050919050565b6139fb816139e6565b82525050565b6000602082019050613a1660008301846139f2565b92915050565b60007fffffffff0000000000000000000000000000000000000000000000000000000082169050919050565b613a5181613a1c565b8114613a5c57600080fd5b50565b600081359050613a6e81613a48565b92915050565b600060208284031215613a8a57613a896138b1565b5b6000613a9884828501613a5f565b91505092915050565b600081519050919050565b600082825260208201905092915050565b60005b83811015613adb578082015181840152602081019050613ac0565b83811115613aea576000848401525b50505050565b6000601f19601f8301169050919050565b6000613b0c82613aa1565b613b168185613aac565b9350613b26818560208601613abd565b613b2f81613af0565b840191505092915050565b60006020820190508181036000830152613b548184613b01565b905092915050565b600060208284031215613b7257613b716138b1565b5b6000613b808482850161393a565b91505092915050565b613b92816139e6565b8114613b9d57600080fd5b50565b600081359050613baf81613b89565b92915050565b600080600080600060a08688031215613bd157613bd06138b1565b5b6000613bdf88828901613904565b9550506020613bf088828901613904565b9450506040613c018882890161393a565b9350506060613c1288828901613ba0565b9250506080613c2388828901613ba0565b9150509295509295909350565b600080fd5b7f4e487b7100000000000000000000000000000000000000000000000000000000600052604160045260246000fd5b613c6d82613af0565b810181811067ffffffffffffffff82111715613c8c57613c8b613c35565b5b80604052505050565b6000613c9f6138a7565b9050613cab8282613c64565b919050565b600067ffffffffffffffff821115613ccb57613cca613c35565b5b602082029050602081019050919050565b600080fd5b6000613cf4613cef84613cb0565b613c95565b90508083825260208201905060208402830185811115613d1757613d16613cdc565b5b835b81811015613d405780613d2c888261393a565b845260208401935050602081019050613d19565b5050509392505050565b600082601f830112613d5f57613d5e613c30565b5b8135613d6f848260208601613ce1565b91505092915050565b600080fd5b600067ffffffffffffffff821115613d9857613d97613c35565b5b613da182613af0565b9050602081019050919050565b82818337600083830152505050565b6000613dd0613dcb84613d7d565b613c95565b905082815260208101848484011115613dec57613deb613d78565b5b613df7848285613dae565b509392505050565b600082601f830112613e1457613e13613c30565b5b8135613e24848260208601613dbd565b91505092915050565b600080600080600060a08688031215613e4957613e486138b1565b5b6000613e5788828901613904565b9550506020613e6888828901613904565b945050604086013567ffffffffffffffff811115613e8957613e886138b6565b5b613e9588828901613d4a565b935050606086013567ffffffffffffffff811115613eb657613eb56138b6565b5b613ec288828901613d4a565b925050608086013567ffffffffffffffff811115613ee357613ee26138b6565b5b613eef88828901613dff565b9150509295509295909350565b600067ffffffffffffffff821115613f1757613f16613c35565b5b613f2082613af0565b9050602081019050919050565b6000613f40613f3b84613efc565b613c95565b905082815260208101848484011115613f5c57613f5b613d78565b5b613f67848285613dae565b509392505050565b600082601f830112613f8457613f83613c30565b5b8135613f94848260208601613f2d565b91505092915050565b600080600060608486031215613fb657613fb56138b1565b5b6000613fc48682870161393a565b935050602084013567ffffffffffffffff811115613fe557613fe46138b6565b5b613ff186828701613f6f565b925050604084013567ffffffffffffffff811115614012576140116138b6565b5b61401e86828701613f6f565b9150509250925092565b600060608201905061403d600083018661398f565b818103602083015261404f8185613b01565b905081810360408301526140638184613b01565b9050949350505050565b60008060408385031215614084576140836138b1565b5b60006140928582860161393a565b92505060206140a38582860161393a565b9150509250929050565b600067ffffffffffffffff8211156140c8576140c7613c35565b5b602082029050602081019050919050565b60006140ec6140e7846140ad565b613c95565b9050808382526020820190506020840283018581111561410f5761410e613cdc565b5b835b8181101561413857806141248882613904565b845260208401935050602081019050614111565b5050509392505050565b600082601f83011261415757614156613c30565b5b81356141678482602086016140d9565b91505092915050565b60008060408385031215614187576141866138b1565b5b600083013567ffffffffffffffff8111156141a5576141a46138b6565b5b6141b185828601614142565b925050602083013567ffffffffffffffff8111156141d2576141d16138b6565b5b6141de85828601613d4a565b9150509250929050565b600081519050919050565b600082825260208201905092915050565b6000819050602082019050919050565b61421d81613919565b82525050565b600061422f8383614214565b60208301905092915050565b6000602082019050919050565b6000614253826141e8565b61425d81856141f3565b935061426883614204565b8060005b838110156142995781516142808882614223565b975061428b8361423b565b92505060018101905061426c565b5085935050505092915050565b600060208201905081810360008301526142c08184614248565b905092915050565b600080604083850312156142df576142de6138b1565b5b60006142ed85828601613904565b92505060206142fe85828601613ba0565b9150509250929050565b60008060008060008060c08789031215614325576143246138b1565b5b600061433389828a0161393a565b965050602061434489828a0161393a565b955050604087013567ffffffffffffffff811115614365576143646138b6565b5b61437189828a01613f6f565b945050606087013567ffffffffffffffff811115614392576143916138b6565b5b61439e89828a01613f6f565b935050608087013567ffffffffffffffff8111156143bf576143be6138b6565b5b6143cb89828a01613f6f565b92505060a06143dc89828a0161393a565b9150509295509295509295565b6143f2816138db565b82525050565b600060208201905061440d60008301846143e9565b92915050565b600082825260208201905092915050565b600061442f82613aa1565b6144398185614413565b9350614449818560208601613abd565b61445281613af0565b840191505092915050565b614466816138db565b82525050565b600060a0830160008301516144846000860182614214565b506020830151848203602086015261449c8282614424565b915050604083015184820360408601526144b68282614424565b91505060608301516144cb6060860182614214565b5060808301516144de608086018261445d565b508091505092915050565b600060e0820190506144fe600083018a61398f565b8181036020830152614510818961446c565b905081810360408301526145248188613b01565b905081810360608301526145388187613b01565b9050614547608083018661398f565b61455460a083018561398f565b61456160c083018461398f565b98975050505050505050565b600060a082019050614582600083018861398f565b81810360208301526145948187613b01565b905081810360408301526145a88186613b01565b90506145b7606083018561398f565b6145c460808301846143e9565b9695505050505050565b6000806000606084860312156145e7576145e66138b1565b5b60006145f586828701613904565b93505060206146068682870161393a565b92505060406146178682870161393a565b9150509250925092565b60008060408385031215614638576146376138b1565b5b600061464685828601613904565b925050602061465785828601613904565b9150509250929050565b600080600080600060a0868803121561467d5761467c6138b1565b5b600061468b88828901613904565b955050602061469c88828901613904565b94505060406146ad8882890161393a565b93505060606146be8882890161393a565b925050608086013567ffffffffffffffff8111156146df576146de6138b6565b5b6146eb88828901613dff565b9150509295509295909350565b7f455243313135353a2062616c616e636520717565727920666f7220746865207a60008201527f65726f2061646472657373000000000000000000000000000000000000000000602082015250565b6000614754602b83613aac565b915061475f826146f8565b604082019050919050565b6000602082019050818103600083015261478381614747565b9050919050565b7f4e487b7100000000000000000000000000000000000000000000000000000000600052602260045260246000fd5b600060028204905060018216806147d157607f821691505b602082108114156147e5576147e461478a565b5b50919050565b7f61646472657373205f66726f6d20697320307830000000000000000000000000600082015250565b6000614821601483613aac565b915061482c826147eb565b602082019050919050565b6000602082019050818103600083015261485081614814565b9050919050565b7f61646472657373205f746f206973203078300000000000000000000000000000600082015250565b600061488d601283613aac565b915061489882614857565b602082019050919050565b600060208201905081810360008301526148bc81614880565b9050919050565b7f746f6b656e206964206973203000000000000000000000000000000000000000600082015250565b60006148f9600d83613aac565b9150614904826148c3565b602082019050919050565b60006020820190508181036000830152614928816148ec565b9050919050565b600061494261493d84613efc565b613c95565b90508281526020810184848401111561495e5761495d613d78565b5b614969848285613abd565b509392505050565b600082601f83011261498657614985613c30565b5b815161499684826020860161492f565b91505092915050565b6000602082840312156149b5576149b46138b1565b5b600082015167ffffffffffffffff8111156149d3576149d26138b6565b5b6149df84828501614971565b91505092915050565b7f746f6b656e2069732077616974696e6720000000000000000000000000000000600082015250565b6000614a1e601183613aac565b9150614a29826149e8565b602082019050919050565b60006020820190508181036000830152614a4d81614a11565b9050919050565b7f57616974696e6700000000000000000000000000000000000000000000000000600082015250565b6000614a8a600783613aac565b9150614a9582614a54565b602082019050919050565b6000604082019050614ab5600083018461398f565b8181036020830152614ac681614a7d565b905092915050565b600081519050614add81613b89565b92915050565b600060208284031215614af957614af86138b1565b5b6000614b0784828501614ace565b91505092915050565b7f4e6f6e20646973706f6e6962696c653100000000000000000000000000000000600082015250565b6000614b46601083613aac565b9150614b5182614b10565b602082019050919050565b60006020820190508181036000830152614b7581614b39565b9050919050565b7f4e487b7100000000000000000000000000000000000000000000000000000000600052601160045260246000fd5b6000614bb682613919565b9150614bc183613919565b9250827fffffffffffffffffffffffffffffffffffffffffffffffffffffffffffffffff03821115614bf657614bf5614b7c565b5b828201905092915050565b7f4275737900000000000000000000000000000000000000000000000000000000600082015250565b6000614c37600483613aac565b9150614c4282614c01565b602082019050919050565b6000604082019050614c62600083018461398f565b8181036020830152614c7381614c2a565b905092915050565b7f4e6f6e20646973706f6e6962696c653200000000000000000000000000000000600082015250565b6000614cb1601083613aac565b9150614cbc82614c7b565b602082019050919050565b60006020820190508181036000830152614ce081614ca4565b9050919050565b7f455243313135353a207472616e736665722063616c6c6572206973206e6f742060008201527f6f776e6572206e6f7220617070726f7665640000000000000000000000000000602082015250565b6000614d43603283613aac565b9150614d4e82614ce7565b604082019050919050565b60006020820190508181036000830152614d7281614d36565b9050919050565b7f536f6c6f20696c2070726f70726965746172696f000000000000000000000000600082015250565b6000614daf601483613aac565b9150614dba82614d79565b602082019050919050565b60006020820190508181036000830152614dde81614da2565b9050919050565b6000614df082613919565b91507fffffffffffffffffffffffffffffffffffffffffffffffffffffffffffffffff821415614e2357614e22614b7c565b5b600182019050919050565b50565b6000614e3e600083613aac565b9150614e4982614e2e565b600082019050919050565b60006020820190508181036000830152614e6d81614e31565b9050919050565b7f6974656d206e6f74206578697374730000000000000000000000000000000000600082015250565b6000614eaa600f83613aac565b9150614eb582614e74565b602082019050919050565b60006020820190508181036000830152614ed981614e9d565b9050919050565b7f546f6b656e206e6f742065786973747300000000000000000000000000000000600082015250565b6000614f16601083613aac565b9150614f2182614ee0565b602082019050919050565b60006020820190508181036000830152614f4581614f09565b9050919050565b7f455243313135353a206163636f756e747320616e6420696473206c656e67746860008201527f206d69736d617463680000000000000000000000000000000000000000000000602082015250565b6000614fa8602983613aac565b9150614fb382614f4c565b604082019050919050565b60006020820190508181036000830152614fd781614f9b565b9050919050565b7f4e487b7100000000000000000000000000000000000000000000000000000000600052603260045260246000fd5b7f436f696e204e6f74206578697374000000000000000000000000000000000000600082015250565b6000615043600e83613aac565b915061504e8261500d565b602082019050919050565b6000602082019050818103600083015261507281615036565b9050919050565b7f417661696c61626c650000000000000000000000000000000000000000000000600082015250565b60006150af600983613aac565b91506150ba82615079565b602082019050919050565b60006040820190506150da600083018461398f565b81810360208301526150eb816150a2565b905092915050565b6000819050919050565b6000819050919050565b600061512261511d615118846150f3565b6150fd565b613919565b9050919050565b61513281615107565b82525050565b600060a08201905061514d600083018861398f565b818103602083015261515f8187613b01565b905081810360408301526151738186613b01565b90506151826060830185615129565b61518f60808301846143e9565b9695505050505050565b60008160001c9050919050565b6000819050919050565b60006151c36151be83615199565b6151a6565b9050919050565b60008190508160005260206000209050919050565b600081546151ec816147b9565b6151f68186614413565b94506001821660008114615211576001811461522357615256565b60ff1983168652602086019350615256565b61522c856151ca565b60005b8381101561524e5781548189015260018201915060208101905061522f565b808801955050505b50505092915050565b600073ffffffffffffffffffffffffffffffffffffffff82169050919050565b600061529261528d83615199565b61525f565b9050919050565b600060a0830160008084015490506152b0816151b0565b6152bd6000870182614214565b506001840185830360208701526152d483826151df565b9250506002840185830360408701526152ed83826151df565b92505060038401549050615300816151b0565b61530d6060870182614214565b506004840154905061531e8161527f565b61532b608087018261445d565b50819250505092915050565b600060e08201905061534c600083018a61398f565b818103602083015261535e8189615299565b905081810360408301526153728188613b01565b905081810360608301526153868187613b01565b9050615395608083018661398f565b6153a260a083018561398f565b6153af60c083018461398f565b98975050505050505050565b7f455243313135353a2073657474696e6720617070726f76616c2073746174757360008201527f20666f722073656c660000000000000000000000000000000000000000000000602082015250565b6000615417602983613aac565b9150615422826153bb565b604082019050919050565b600060208201905081810360008301526154468161540a565b9050919050565b7f455243313135353a2063616c6c6572206973206e6f74206f776e6572206e6f7260008201527f20617070726f7665640000000000000000000000000000000000000000000000602082015250565b60006154a9602983613aac565b91506154b48261544d565b604082019050919050565b600060208201905081810360008301526154d88161549c565b9050919050565b7f455243313135353a2069647320616e6420616d6f756e7473206c656e6774682060008201527f6d69736d61746368000000000000000000000000000000000000000000000000602082015250565b600061553b602883613aac565b9150615546826154df565b604082019050919050565b6000602082019050818103600083015261556a8161552e565b9050919050565b7f455243313135353a207472616e7366657220746f20746865207a65726f20616460008201527f6472657373000000000000000000000000000000000000000000000000000000602082015250565b60006155cd602583613aac565b91506155d882615571565b604082019050919050565b600060208201905081810360008301526155fc816155c0565b9050919050565b7f455243313135353a20696e73756666696369656e742062616c616e636520666f60008201527f72207472616e7366657200000000000000000000000000000000000000000000602082015250565b600061565f602a83613aac565b915061566a82615603565b604082019050919050565b6000602082019050818103600083015261568e81615652565b9050919050565b600060408201905081810360008301526156af8185614248565b905081810360208301526156c38184614248565b90509392505050565b7f455243313135353a206d696e7420746f20746865207a65726f2061646472657360008201527f7300000000000000000000000000000000000000000000000000000000000000602082015250565b6000615728602183613aac565b9150615733826156cc565b604082019050919050565b600060208201905081810360008301526157578161571b565b9050919050565b6000604082019050615773600083018561398f565b615780602083018461398f565b9392505050565b600081519050919050565b600082825260208201905092915050565b60006157ae82615787565b6157b88185615792565b93506157c8818560208601613abd565b6157d181613af0565b840191505092915050565b600060a0820190506157f160008301886143e9565b6157fe60208301876143e9565b81810360408301526158108186614248565b905081810360608301526158248185614248565b9050818103608083015261583881846157a3565b90509695505050505050565b60008151905061585381613a48565b92915050565b60006020828403121561586f5761586e6138b1565b5b600061587d84828501615844565b91505092915050565b60008160e01c9050919050565b600060033d11156158b25760046000803e6158af600051615886565b90505b90565b600060443d10156158c557615948565b6158cd6138a7565b60043d036004823e80513d602482011167ffffffffffffffff821117156158f5575050615948565b808201805167ffffffffffffffff8111156159135750505050615948565b80602083010160043d038501811115615930575050505050615948565b61593f82602001850186613c64565b82955050505050505b90565b7f455243313135353a207472616e7366657220746f206e6f6e204552433131353560008201527f526563656976657220696d706c656d656e746572000000000000000000000000602082015250565b60006159a7603483613aac565b91506159b28261594b565b604082019050919050565b600060208201905081810360008301526159d68161599a565b9050919050565b7f455243313135353a204552433131353552656365697665722072656a6563746560008201527f6420746f6b656e73000000000000000000000000000000000000000000000000602082015250565b6000615a39602883613aac565b9150615a44826159dd565b604082019050919050565b60006020820190508181036000830152615a6881615a2c565b9050919050565b600060a082019050615a8460008301886143e9565b615a9160208301876143e9565b615a9e604083018661398f565b615aab606083018561398f565b8181036080830152615abd81846157a3565b9050969550505050505056fea2646970667358221220ee11995478f3f96a18673a183d7980c77656741adc0c3acc36b91a0c27ab52ef64736f6c634300080a0033",
  "immutableReferences": {},
  "source": "// contracts/LoanItem.sol\r\n// SPDX-License-Identifier: MIT\r\npragma solidity ^0.8.0;\r\n\r\nimport \"@openzeppelin/contracts/token/ERC1155/ERC1155.sol\";\r\nimport\"./LItemUtils.sol\";\r\nimport\"./LitemCalendar.sol\";\r\ncontract LoanItem is ERC1155{\r\n    \r\n    string public name = \"LoanItem\";\r\n    string  public symbol = \"LI\";\r\n    Calendar Calendario;\r\n    \r\n    address[] public stakers;\r\n    mapping(address => uint) public stakingBalance;\r\n    mapping(address => bool) public hasStaked;\r\n    mapping(address => bool) public isStaking;\r\n    \r\n   \r\n     mapping(uint => Image)public images;\r\n     mapping(uint => TokenNFT)public tokenId;\r\n     mapping(uint => address)public CautionId;\r\n     mapping(uint256 => uint256) public ids;\r\n\r\n     mapping(address => bool) public permissions;\r\n\r\n     mapping(uint256 => CoinFT) public CoinId;\r\n     mapping(uint256 => uint256) public Cds;\r\n   \r\n\r\n\r\n    struct Image {\r\n      uint id;\r\n      string hash;\r\n      string description;\r\n      uint tokenId;\r\n      address author;\r\n    }\r\n\r\n    event ImageCreated(\r\n      uint id,\r\n      string hash,\r\n      string description,\r\n      uint tokenId,\r\n      address  author\r\n      );\r\n\r\n     struct TokenNFT {\r\n      uint id;\r\n      Image  phots;\r\n      string description;\r\n      string namet;\r\n      uint256 pricel;\r\n      uint256 caution;\r\n      uint256 Cid;\r\n      \r\n    }\r\n    event TokenNFTCreated(\r\n      uint id,\r\n      Image  phots,\r\n      string description,\r\n      string namet,\r\n      uint256 pricel,\r\n      uint256 caution,\r\n      uint256 Cid\r\n      );\r\n\r\n     struct CoinFT {\r\n      uint id;\r\n      //Image  phots;\r\n      string description;\r\n      string namec;\r\n    }\r\n    event CoinFTCreated(\r\n      uint id,\r\n      //Image  phots,\r\n      string description,\r\n      string namec\r\n      );\r\n\r\n\r\n    uint256 public countAttrezzi;\r\n    uint256 public imageCount;\r\n    address public owner;\r\n   \r\n\r\n  constructor(address _owner,Calendar Cad) public ERC1155(\"\") {  \r\n         owner = _owner;\r\n         permissions[owner]= true;\r\n         Calendario = Cad;\r\n         }\r\n    \r\n\r\n\r\n // function addMoreCoin()public{}\r\n\r\n\r\n  function addNewCoin( uint256 value,string memory Name,string memory description )external {\r\n          require (msg.sender == owner || permissions[msg.sender]== true , \"Solo il proprietario\");\r\n          require(bytes(Name).length>0);\r\n          require(value>0);\r\n          countAttrezzi++;\r\n         _mint(msg.sender, countAttrezzi, value, \"\");\r\n          Cds[countAttrezzi]= countAttrezzi;\r\n          CoinId[countAttrezzi]= CoinFT(countAttrezzi,description,Name);\r\n          emit CoinFTCreated(countAttrezzi,description,Name);\r\n      } \r\n\r\n\r\n\r\n    modifier propriety(){ \r\n\r\n        require (msg.sender == owner || permissions[msg.sender]== true , \"Solo il proprietario\");       \r\n        _;\r\n    }\r\n      function setPermissions(address ute,bool setting) external propriety {\r\n\r\n      \r\n        permissions[ute]= setting;\r\n\r\n      }\r\n    \r\n\r\n      function addNewItem(uint256 price,uint256 caution,string memory _imgHash,string memory _description, string memory namef,uint256 Cid) external propriety {\r\n     \r\n      \r\n        require(caution > 0);\r\n        require(bytes(namef).length > 0);\r\n        require((price) > 0);\r\n        require(bytes(_description).length > 0);\r\n        require(bytes(_imgHash).length > 0);\r\n        require(msg.sender != address(0x0));\r\n        require(bytes(CoinId[Cid].namec).length > 0,\"Coin Not exist\");//controllo che il coin esiste aggiungere che il coin esiste\r\n\r\n        imageCount ++;\r\n        countAttrezzi++;\r\n       \r\n        Calendario.setAvailable(countAttrezzi,\"Available\"); \r\n     \r\n\r\n      \r\n        ids[countAttrezzi]=countAttrezzi;\r\n          \r\n        _mint(msg.sender, ids[countAttrezzi], 1, \"\");\r\n  \r\n  \r\n        images[imageCount] = Image(imageCount,_imgHash,_description,0,owner);\r\n        tokenId[countAttrezzi] = TokenNFT(countAttrezzi,images[imageCount],_description,namef,price,caution,Cid);\r\n        //causa l'evento \r\n        emit ImageCreated(imageCount,_imgHash,_description,0,owner);\r\n        emit TokenNFTCreated(countAttrezzi,images[imageCount],_description,namef,price,caution,Cid);    \r\n    }\r\n   \r\n      function TrasferTest(address _from, address _to, uint256 _id,bool pre,bool acq) external {\r\n\r\n        //aggiungere il metodo che controlla le prenotazioni \r\n\r\n          require(address(_from)!=address(0x0), \"address _from is 0x0\");\r\n          require(address(_to)!=address(0x0), \"address _to is 0x0\");\r\n          require(uint256(_id) > 0, \"token id is 0\");  \r\n          require(keccak256(bytes(Calendario.Available(_id))) != keccak256(bytes(\"Waiting\")),\"token is waiting \");\r\n          \r\n          if(_to == owner  && keccak256(bytes(Calendario.Available(_id))) == keccak256(bytes(\"Busy\"))){\r\n            //riconsegna item\r\n            bool l;\r\n            l =  Calendario.setAvailable(_id,\"Waiting\"); \r\n            require(l == true, \"Non disponibile1\");\r\n\r\n            safeTransferFrom( _from,_to, _id,1,\"\");\r\n            CautionId[_id]= _from;\r\n            }\r\n            else if(_from == owner/*&& Calendario.CheckAvialable()*/){\r\n              if(pre && !(acq)){\r\n                /*&& Calendario.Pre_Order();*/\r\n              safeTransferFrom( _to,_from,tokenId[_id].Cid,tokenId[_id].caution,\"\");\r\n              CautionId[_id]= _to;\r\n                return;\r\n              }\r\n              if(acq && !(pre)){\r\n                //per fare l'acquire di un oggetto prenotato devo verificare la data inizio\r\n                //e poi pagare l'oggetto \r\n                \r\n\r\n              }\r\n              //require(tokenId[_id].pricel+tokenId[_id].caution<= balanceOf(_to,tokenId[_id].Cid),\"bilancio non sufficente\"); \r\n              safeTransferFrom( _to,_from,tokenId[_id].Cid,tokenId[_id].pricel+tokenId[_id].caution,\"\");  \r\n              safeTransferFrom( _from,_to, _id,1,\"\");\r\n             \r\n              bool k;\r\n              k =  Calendario.setAvailable(_id,\"Busy\"); \r\n              require(k == true, \"Non disponibile2\");\r\n              CautionId[_id]= _to;\r\n            }\r\n          return;\r\n      }\r\n  \r\n      \r\n      function GiveToken(address _to,uint256 coin,uint256 value) external propriety {\r\n        safeTransferFrom( msg.sender,_to, coin,100000000000000000000,\"\");\r\n      }\r\n\r\n      function ReleseW(uint256 _id, uint256 caution )  external propriety{\r\n    //si potrebbe gestire il caso in cui la cauzione restituita sia variabile\r\n        require(_id>0,\"\");\r\n        require(_id<=countAttrezzi,\"item not exists\");\r\n        require(ids[_id]>0,\"Token not exists\" );\r\n       \r\n       Calendario.Relese(_id);\r\n\r\n        safeTransferFrom( msg.sender,CautionId[_id], 1, tokenId[_id].caution,\"\");\r\n        CautionId[_id]= address(0x0);\r\n         \r\n         \r\n      }\r\n    \r\n   \r\n    }\r\n\r\n\r\n\r\n\r\n\r\n\r\n\r\n\r\n\r\n",
  "sourcePath": "C:\\Users\\Luca\\Desktop\\tesi\\My-tesi\\src\\contracts\\LoanItem.sol",
  "compiler": {
    "name": "solc",
    "version": "0.8.10+commit.fc410830.Emscripten.clang"
  },
  "schemaVersion": "3.4.1",
  "updatedAt": "2021-11-22T17:15:31.178Z",
  "devdoc": {
    "kind": "dev",
    "methods": {
      "balanceOf(address,uint256)": {
        "details": "See {IERC1155-balanceOf}. Requirements: - `account` cannot be the zero address."
      },
      "balanceOfBatch(address[],uint256[])": {
        "details": "See {IERC1155-balanceOfBatch}. Requirements: - `accounts` and `ids` must have the same length."
      },
      "isApprovedForAll(address,address)": {
        "details": "See {IERC1155-isApprovedForAll}."
      },
      "safeBatchTransferFrom(address,address,uint256[],uint256[],bytes)": {
        "details": "See {IERC1155-safeBatchTransferFrom}."
      },
      "safeTransferFrom(address,address,uint256,uint256,bytes)": {
        "details": "See {IERC1155-safeTransferFrom}."
      },
      "setApprovalForAll(address,bool)": {
        "details": "See {IERC1155-setApprovalForAll}."
      },
      "supportsInterface(bytes4)": {
        "details": "See {IERC165-supportsInterface}."
      },
      "uri(uint256)": {
        "details": "See {IERC1155MetadataURI-uri}. This implementation returns the same URI for *all* token types. It relies on the token type ID substitution mechanism https://eips.ethereum.org/EIPS/eip-1155#metadata[defined in the EIP]. Clients calling this function must replace the `\\{id\\}` substring with the actual token type ID."
      }
    },
    "version": 1
  },
  "userdoc": {
    "kind": "user",
    "methods": {},
    "version": 1
  }
}