{
  "contractName": "LoanItem",
  "abi": [
    {
      "inputs": [
        {
          "internalType": "address",
          "name": "_owner",
          "type": "address"
        },
        {
          "internalType": "contract Calendar",
          "name": "Cad",
          "type": "address"
        }
      ],
      "stateMutability": "nonpayable",
      "type": "constructor"
    },
    {
      "anonymous": false,
      "inputs": [
        {
          "indexed": true,
          "internalType": "address",
          "name": "account",
          "type": "address"
        },
        {
          "indexed": true,
          "internalType": "address",
          "name": "operator",
          "type": "address"
        },
        {
          "indexed": false,
          "internalType": "bool",
          "name": "approved",
          "type": "bool"
        }
      ],
      "name": "ApprovalForAll",
      "type": "event"
    },
    {
      "anonymous": false,
      "inputs": [
        {
          "indexed": false,
          "internalType": "uint256",
          "name": "id",
          "type": "uint256"
        },
        {
          "indexed": false,
          "internalType": "string",
          "name": "description",
          "type": "string"
        },
        {
          "indexed": false,
          "internalType": "string",
          "name": "namec",
          "type": "string"
        }
      ],
      "name": "CoinFTCreated",
      "type": "event"
    },
    {
      "anonymous": false,
      "inputs": [
        {
          "indexed": false,
          "internalType": "uint256",
          "name": "id",
          "type": "uint256"
        },
        {
          "indexed": false,
          "internalType": "string",
          "name": "hash",
          "type": "string"
        },
        {
          "indexed": false,
          "internalType": "string",
          "name": "description",
          "type": "string"
        },
        {
          "indexed": false,
          "internalType": "uint256",
          "name": "tokenId",
          "type": "uint256"
        },
        {
          "indexed": false,
          "internalType": "address",
          "name": "author",
          "type": "address"
        }
      ],
      "name": "ImageCreated",
      "type": "event"
    },
    {
      "anonymous": false,
      "inputs": [
        {
          "indexed": false,
          "internalType": "uint256",
          "name": "id",
          "type": "uint256"
        },
        {
          "components": [
            {
              "internalType": "uint256",
              "name": "id",
              "type": "uint256"
            },
            {
              "internalType": "string",
              "name": "hash",
              "type": "string"
            },
            {
              "internalType": "string",
              "name": "description",
              "type": "string"
            },
            {
              "internalType": "uint256",
              "name": "tokenId",
              "type": "uint256"
            },
            {
              "internalType": "address",
              "name": "author",
              "type": "address"
            }
          ],
          "indexed": false,
          "internalType": "struct LoanItem.Image",
          "name": "phots",
          "type": "tuple"
        },
        {
          "indexed": false,
          "internalType": "string",
          "name": "description",
          "type": "string"
        },
        {
          "indexed": false,
          "internalType": "string",
          "name": "namet",
          "type": "string"
        },
        {
          "indexed": false,
          "internalType": "uint256",
          "name": "pricel",
          "type": "uint256"
        },
        {
          "indexed": false,
          "internalType": "uint256",
          "name": "caution",
          "type": "uint256"
        },
        {
          "indexed": false,
          "internalType": "uint256",
          "name": "Cid",
          "type": "uint256"
        }
      ],
      "name": "TokenNFTCreated",
      "type": "event"
    },
    {
      "anonymous": false,
      "inputs": [
        {
          "indexed": true,
          "internalType": "address",
          "name": "operator",
          "type": "address"
        },
        {
          "indexed": true,
          "internalType": "address",
          "name": "from",
          "type": "address"
        },
        {
          "indexed": true,
          "internalType": "address",
          "name": "to",
          "type": "address"
        },
        {
          "indexed": false,
          "internalType": "uint256[]",
          "name": "ids",
          "type": "uint256[]"
        },
        {
          "indexed": false,
          "internalType": "uint256[]",
          "name": "values",
          "type": "uint256[]"
        }
      ],
      "name": "TransferBatch",
      "type": "event"
    },
    {
      "anonymous": false,
      "inputs": [
        {
          "indexed": true,
          "internalType": "address",
          "name": "operator",
          "type": "address"
        },
        {
          "indexed": true,
          "internalType": "address",
          "name": "from",
          "type": "address"
        },
        {
          "indexed": true,
          "internalType": "address",
          "name": "to",
          "type": "address"
        },
        {
          "indexed": false,
          "internalType": "uint256",
          "name": "id",
          "type": "uint256"
        },
        {
          "indexed": false,
          "internalType": "uint256",
          "name": "value",
          "type": "uint256"
        }
      ],
      "name": "TransferSingle",
      "type": "event"
    },
    {
      "anonymous": false,
      "inputs": [
        {
          "indexed": false,
          "internalType": "string",
          "name": "value",
          "type": "string"
        },
        {
          "indexed": true,
          "internalType": "uint256",
          "name": "id",
          "type": "uint256"
        }
      ],
      "name": "URI",
      "type": "event"
    },
    {
      "inputs": [
        {
          "internalType": "uint256",
          "name": "",
          "type": "uint256"
        }
      ],
      "name": "CautionId",
      "outputs": [
        {
          "internalType": "address",
          "name": "",
          "type": "address"
        }
      ],
      "stateMutability": "view",
      "type": "function"
    },
    {
      "inputs": [
        {
          "internalType": "uint256",
          "name": "",
          "type": "uint256"
        }
      ],
      "name": "Cds",
      "outputs": [
        {
          "internalType": "uint256",
          "name": "",
          "type": "uint256"
        }
      ],
      "stateMutability": "view",
      "type": "function"
    },
    {
      "inputs": [
        {
          "internalType": "uint256",
          "name": "",
          "type": "uint256"
        }
      ],
      "name": "CoinId",
      "outputs": [
        {
          "internalType": "uint256",
          "name": "id",
          "type": "uint256"
        },
        {
          "internalType": "string",
          "name": "description",
          "type": "string"
        },
        {
          "internalType": "string",
          "name": "namec",
          "type": "string"
        }
      ],
      "stateMutability": "view",
      "type": "function"
    },
    {
      "inputs": [
        {
          "internalType": "address",
          "name": "account",
          "type": "address"
        },
        {
          "internalType": "uint256",
          "name": "id",
          "type": "uint256"
        }
      ],
      "name": "balanceOf",
      "outputs": [
        {
          "internalType": "uint256",
          "name": "",
          "type": "uint256"
        }
      ],
      "stateMutability": "view",
      "type": "function"
    },
    {
      "inputs": [
        {
          "internalType": "address[]",
          "name": "accounts",
          "type": "address[]"
        },
        {
          "internalType": "uint256[]",
          "name": "ids",
          "type": "uint256[]"
        }
      ],
      "name": "balanceOfBatch",
      "outputs": [
        {
          "internalType": "uint256[]",
          "name": "",
          "type": "uint256[]"
        }
      ],
      "stateMutability": "view",
      "type": "function"
    },
    {
      "inputs": [],
      "name": "countAttrezzi",
      "outputs": [
        {
          "internalType": "uint256",
          "name": "",
          "type": "uint256"
        }
      ],
      "stateMutability": "view",
      "type": "function"
    },
    {
      "inputs": [
        {
          "internalType": "address",
          "name": "",
          "type": "address"
        }
      ],
      "name": "hasStaked",
      "outputs": [
        {
          "internalType": "bool",
          "name": "",
          "type": "bool"
        }
      ],
      "stateMutability": "view",
      "type": "function"
    },
    {
      "inputs": [
        {
          "internalType": "uint256",
          "name": "",
          "type": "uint256"
        }
      ],
      "name": "ids",
      "outputs": [
        {
          "internalType": "uint256",
          "name": "",
          "type": "uint256"
        }
      ],
      "stateMutability": "view",
      "type": "function"
    },
    {
      "inputs": [],
      "name": "imageCount",
      "outputs": [
        {
          "internalType": "uint256",
          "name": "",
          "type": "uint256"
        }
      ],
      "stateMutability": "view",
      "type": "function"
    },
    {
      "inputs": [
        {
          "internalType": "uint256",
          "name": "",
          "type": "uint256"
        }
      ],
      "name": "images",
      "outputs": [
        {
          "internalType": "uint256",
          "name": "id",
          "type": "uint256"
        },
        {
          "internalType": "string",
          "name": "hash",
          "type": "string"
        },
        {
          "internalType": "string",
          "name": "description",
          "type": "string"
        },
        {
          "internalType": "uint256",
          "name": "tokenId",
          "type": "uint256"
        },
        {
          "internalType": "address",
          "name": "author",
          "type": "address"
        }
      ],
      "stateMutability": "view",
      "type": "function"
    },
    {
      "inputs": [
        {
          "internalType": "address",
          "name": "account",
          "type": "address"
        },
        {
          "internalType": "address",
          "name": "operator",
          "type": "address"
        }
      ],
      "name": "isApprovedForAll",
      "outputs": [
        {
          "internalType": "bool",
          "name": "",
          "type": "bool"
        }
      ],
      "stateMutability": "view",
      "type": "function"
    },
    {
      "inputs": [
        {
          "internalType": "address",
          "name": "",
          "type": "address"
        }
      ],
      "name": "isStaking",
      "outputs": [
        {
          "internalType": "bool",
          "name": "",
          "type": "bool"
        }
      ],
      "stateMutability": "view",
      "type": "function"
    },
    {
      "inputs": [],
      "name": "name",
      "outputs": [
        {
          "internalType": "string",
          "name": "",
          "type": "string"
        }
      ],
      "stateMutability": "view",
      "type": "function"
    },
    {
      "inputs": [],
      "name": "owner",
      "outputs": [
        {
          "internalType": "address",
          "name": "",
          "type": "address"
        }
      ],
      "stateMutability": "view",
      "type": "function"
    },
    {
      "inputs": [
        {
          "internalType": "address",
          "name": "",
          "type": "address"
        }
      ],
      "name": "permissions",
      "outputs": [
        {
          "internalType": "bool",
          "name": "",
          "type": "bool"
        }
      ],
      "stateMutability": "view",
      "type": "function"
    },
    {
      "inputs": [
        {
          "internalType": "address",
          "name": "from",
          "type": "address"
        },
        {
          "internalType": "address",
          "name": "to",
          "type": "address"
        },
        {
          "internalType": "uint256[]",
          "name": "ids",
          "type": "uint256[]"
        },
        {
          "internalType": "uint256[]",
          "name": "amounts",
          "type": "uint256[]"
        },
        {
          "internalType": "bytes",
          "name": "data",
          "type": "bytes"
        }
      ],
      "name": "safeBatchTransferFrom",
      "outputs": [],
      "stateMutability": "nonpayable",
      "type": "function"
    },
    {
      "inputs": [
        {
          "internalType": "address",
          "name": "from",
          "type": "address"
        },
        {
          "internalType": "address",
          "name": "to",
          "type": "address"
        },
        {
          "internalType": "uint256",
          "name": "id",
          "type": "uint256"
        },
        {
          "internalType": "uint256",
          "name": "amount",
          "type": "uint256"
        },
        {
          "internalType": "bytes",
          "name": "data",
          "type": "bytes"
        }
      ],
      "name": "safeTransferFrom",
      "outputs": [],
      "stateMutability": "nonpayable",
      "type": "function"
    },
    {
      "inputs": [
        {
          "internalType": "address",
          "name": "operator",
          "type": "address"
        },
        {
          "internalType": "bool",
          "name": "approved",
          "type": "bool"
        }
      ],
      "name": "setApprovalForAll",
      "outputs": [],
      "stateMutability": "nonpayable",
      "type": "function"
    },
    {
      "inputs": [
        {
          "internalType": "uint256",
          "name": "",
          "type": "uint256"
        }
      ],
      "name": "stakers",
      "outputs": [
        {
          "internalType": "address",
          "name": "",
          "type": "address"
        }
      ],
      "stateMutability": "view",
      "type": "function"
    },
    {
      "inputs": [
        {
          "internalType": "address",
          "name": "",
          "type": "address"
        }
      ],
      "name": "stakingBalance",
      "outputs": [
        {
          "internalType": "uint256",
          "name": "",
          "type": "uint256"
        }
      ],
      "stateMutability": "view",
      "type": "function"
    },
    {
      "inputs": [
        {
          "internalType": "bytes4",
          "name": "interfaceId",
          "type": "bytes4"
        }
      ],
      "name": "supportsInterface",
      "outputs": [
        {
          "internalType": "bool",
          "name": "",
          "type": "bool"
        }
      ],
      "stateMutability": "view",
      "type": "function"
    },
    {
      "inputs": [],
      "name": "symbol",
      "outputs": [
        {
          "internalType": "string",
          "name": "",
          "type": "string"
        }
      ],
      "stateMutability": "view",
      "type": "function"
    },
    {
      "inputs": [
        {
          "internalType": "uint256",
          "name": "",
          "type": "uint256"
        }
      ],
      "name": "tokenId",
      "outputs": [
        {
          "internalType": "uint256",
          "name": "id",
          "type": "uint256"
        },
        {
          "components": [
            {
              "internalType": "uint256",
              "name": "id",
              "type": "uint256"
            },
            {
              "internalType": "string",
              "name": "hash",
              "type": "string"
            },
            {
              "internalType": "string",
              "name": "description",
              "type": "string"
            },
            {
              "internalType": "uint256",
              "name": "tokenId",
              "type": "uint256"
            },
            {
              "internalType": "address",
              "name": "author",
              "type": "address"
            }
          ],
          "internalType": "struct LoanItem.Image",
          "name": "phots",
          "type": "tuple"
        },
        {
          "internalType": "string",
          "name": "description",
          "type": "string"
        },
        {
          "internalType": "string",
          "name": "namet",
          "type": "string"
        },
        {
          "internalType": "uint256",
          "name": "pricel",
          "type": "uint256"
        },
        {
          "internalType": "uint256",
          "name": "caution",
          "type": "uint256"
        },
        {
          "internalType": "uint256",
          "name": "Cid",
          "type": "uint256"
        }
      ],
      "stateMutability": "view",
      "type": "function"
    },
    {
      "inputs": [
        {
          "internalType": "uint256",
          "name": "",
          "type": "uint256"
        }
      ],
      "name": "uri",
      "outputs": [
        {
          "internalType": "string",
          "name": "",
          "type": "string"
        }
      ],
      "stateMutability": "view",
      "type": "function"
    },
    {
      "inputs": [
        {
          "internalType": "uint256",
          "name": "value",
          "type": "uint256"
        },
        {
          "internalType": "string",
          "name": "Name",
          "type": "string"
        },
        {
          "internalType": "string",
          "name": "description",
          "type": "string"
        }
      ],
      "name": "addNewCoin",
      "outputs": [],
      "stateMutability": "nonpayable",
      "type": "function"
    },
    {
      "inputs": [
        {
          "internalType": "address",
          "name": "ute",
          "type": "address"
        },
        {
          "internalType": "bool",
          "name": "setting",
          "type": "bool"
        }
      ],
      "name": "setPermissions",
      "outputs": [],
      "stateMutability": "nonpayable",
      "type": "function"
    },
    {
      "inputs": [
        {
          "internalType": "uint256",
          "name": "price",
          "type": "uint256"
        },
        {
          "internalType": "uint256",
          "name": "caution",
          "type": "uint256"
        },
        {
          "internalType": "string",
          "name": "_imgHash",
          "type": "string"
        },
        {
          "internalType": "string",
          "name": "_description",
          "type": "string"
        },
        {
          "internalType": "string",
          "name": "namef",
          "type": "string"
        },
        {
          "internalType": "uint256",
          "name": "Cid",
          "type": "uint256"
        }
      ],
      "name": "addNewItem",
      "outputs": [],
      "stateMutability": "nonpayable",
      "type": "function"
    },
    {
      "inputs": [
        {
          "internalType": "address",
          "name": "_from",
          "type": "address"
        },
        {
          "internalType": "address",
          "name": "_to",
          "type": "address"
        },
        {
          "internalType": "uint256",
          "name": "_id",
          "type": "uint256"
        },
        {
          "internalType": "bool",
          "name": "pre",
          "type": "bool"
        },
        {
          "internalType": "bool",
          "name": "acq",
          "type": "bool"
        },
        {
          "internalType": "uint256",
          "name": "dateS",
          "type": "uint256"
        },
        {
          "internalType": "uint256",
          "name": "dateF",
          "type": "uint256"
        }
      ],
      "name": "TrasferTest",
      "outputs": [],
      "stateMutability": "nonpayable",
      "type": "function"
    },
    {
      "inputs": [
        {
          "internalType": "address",
          "name": "_to",
          "type": "address"
        },
        {
          "internalType": "uint256",
          "name": "coin",
          "type": "uint256"
        },
        {
          "internalType": "uint256",
          "name": "value",
          "type": "uint256"
        }
      ],
      "name": "GiveToken",
      "outputs": [],
      "stateMutability": "nonpayable",
      "type": "function"
    },
    {
      "inputs": [
        {
          "internalType": "uint256",
          "name": "_id",
          "type": "uint256"
        },
        {
          "internalType": "uint256",
          "name": "caution",
          "type": "uint256"
        }
      ],
      "name": "ReleseW",
      "outputs": [],
      "stateMutability": "nonpayable",
      "type": "function"
    }
  ],
  "bytecode": "0x60806040526040518060400160405280600881526020017f4c6f616e4974656d000000000000000000000000000000000000000000000000815250600390805190602001906200005192919062000215565b506040518060400160405280600281526020017f4c49000000000000000000000000000000000000000000000000000000000000815250600490805190602001906200009f92919062000215565b50348015620000ad57600080fd5b5060405162006065380380620060658339818101604052810190620000d3919062000374565b60405180602001604052806000815250620000f481620001f960201b60201c565b5081601360006101000a81548173ffffffffffffffffffffffffffffffffffffffff021916908373ffffffffffffffffffffffffffffffffffffffff1602179055506001600e6000601360009054906101000a900473ffffffffffffffffffffffffffffffffffffffff1673ffffffffffffffffffffffffffffffffffffffff1673ffffffffffffffffffffffffffffffffffffffff16815260200190815260200160002060006101000a81548160ff02191690831515021790555080600560006101000a81548173ffffffffffffffffffffffffffffffffffffffff021916908373ffffffffffffffffffffffffffffffffffffffff160217905550505062000420565b80600290805190602001906200021192919062000215565b5050565b8280546200022390620003ea565b90600052602060002090601f01602090048101928262000247576000855562000293565b82601f106200026257805160ff191683800117855562000293565b8280016001018555821562000293579182015b828111156200029257825182559160200191906001019062000275565b5b509050620002a29190620002a6565b5090565b5b80821115620002c1576000816000905550600101620002a7565b5090565b600080fd5b600073ffffffffffffffffffffffffffffffffffffffff82169050919050565b6000620002f782620002ca565b9050919050565b6200030981620002ea565b81146200031557600080fd5b50565b6000815190506200032981620002fe565b92915050565b60006200033c82620002ea565b9050919050565b6200034e816200032f565b81146200035a57600080fd5b50565b6000815190506200036e8162000343565b92915050565b600080604083850312156200038e576200038d620002c5565b5b60006200039e8582860162000318565b9250506020620003b1858286016200035d565b9150509250929050565b7f4e487b7100000000000000000000000000000000000000000000000000000000600052602260045260246000fd5b600060028204905060018216806200040357607f821691505b602082108114156200041a5762000419620003bb565b5b50919050565b615c3580620004306000396000f3fe608060405234801561001057600080fd5b50600436106101d95760003560e01c80637dcb0e5f11610104578063a22cb465116100a2578063e985e9c511610071578063e985e9c5146105d0578063f242432a14610600578063fac333ac1461061c578063fd5e6dd11461064c576101d9565b8063a22cb4651461054a578063a963cff714610566578063c93c8f3414610584578063d4c35d30146105b4576101d9565b806392053b63116100de57806392053b63146104c257806395d89b41146104e0578063a166754b146104fe578063a1af645f1461051a576101d9565b80637dcb0e5f1461043a57806384856482146104705780638da5cb5b146104a4576101d9565b806345bc78ab1161017c5780636165234c1161014b5780636165234c146103a2578063689ceaac146103be5780636f49712b146103da5780637a8ad5941461040a576101d9565b806345bc78ab146102f4578063499ea4b3146103245780634ac726c1146103565780634e1273f414610372576101d9565b806306fdde03116101b857806306fdde031461026e5780630e89341c1461028c5780632eb2c2d6146102bc5780633a712e83146102d8576101d9565b8062fdd58e146101de57806301e882081461020e57806301ffc9a71461023e575b600080fd5b6101f860048036038101906101f39190613ba7565b61067c565b6040516102059190613bf6565b60405180910390f35b61022860048036038101906102239190613c11565b610745565b6040516102359190613c59565b60405180910390f35b61025860048036038101906102539190613ccc565b610765565b6040516102659190613c59565b60405180910390f35b610276610847565b6040516102839190613d92565b60405180910390f35b6102a660048036038101906102a19190613db4565b6108d5565b6040516102b39190613d92565b60405180910390f35b6102d660048036038101906102d19190613fde565b610969565b005b6102f260048036038101906102ed919061414e565b610a0a565b005b61030e60048036038101906103099190613c11565b610c1c565b60405161031b9190613bf6565b60405180910390f35b61033e60048036038101906103399190613db4565b610c34565b60405161034d939291906141d9565b60405180910390f35b610370600480360381019061036b919061421e565b610d6e565b005b61038c60048036038101906103879190614321565b611081565b6040516103999190614457565b60405180910390f35b6103bc60048036038101906103b791906144a5565b61119a565b005b6103d860048036038101906103d391906144e5565b6112e0565b005b6103f460048036038101906103ef9190613c11565b611a9c565b6040516104019190613c59565b60405180910390f35b610424600480360381019061041f9190613db4565b611abc565b60405161043191906145d5565b60405180910390f35b610454600480360381019061044f9190613db4565b611aef565b60405161046797969594939291906146c6565b60405180910390f35b61048a60048036038101906104859190613db4565b611dd9565b60405161049b95949392919061474a565b60405180910390f35b6104ac611f3f565b6040516104b991906145d5565b60405180910390f35b6104ca611f65565b6040516104d79190613bf6565b60405180910390f35b6104e8611f6b565b6040516104f59190613d92565b60405180910390f35b610518600480360381019061051391906147ab565b611ff9565b005b610534600480360381019061052f9190613db4565b61210e565b6040516105419190613bf6565b60405180910390f35b610564600480360381019061055f91906144a5565b612126565b005b61056e6122a7565b60405161057b9190613bf6565b60405180910390f35b61059e60048036038101906105999190613c11565b6122ad565b6040516105ab9190613c59565b60405180910390f35b6105ce60048036038101906105c991906147fe565b6122cd565b005b6105ea60048036038101906105e591906148a0565b612ced565b6040516105f79190613c59565b60405180910390f35b61061a600480360381019061061591906148e0565b612d81565b005b61063660048036038101906106319190613db4565b612e22565b6040516106439190613bf6565b60405180910390f35b61066660048036038101906106619190613db4565b612e3a565b60405161067391906145d5565b60405180910390f35b60008073ffffffffffffffffffffffffffffffffffffffff168373ffffffffffffffffffffffffffffffffffffffff1614156106ed576040517f08c379a00000000000000000000000000000000000000000000000000000000081526004016106e4906149e9565b60405180910390fd5b60008083815260200190815260200160002060008473ffffffffffffffffffffffffffffffffffffffff1673ffffffffffffffffffffffffffffffffffffffff16815260200190815260200160002054905092915050565b600e6020528060005260406000206000915054906101000a900460ff1681565b60007fd9b67a26000000000000000000000000000000000000000000000000000000007bffffffffffffffffffffffffffffffffffffffffffffffffffffffff1916827bffffffffffffffffffffffffffffffffffffffffffffffffffffffff1916148061083057507f0e89341c000000000000000000000000000000000000000000000000000000007bffffffffffffffffffffffffffffffffffffffffffffffffffffffff1916827bffffffffffffffffffffffffffffffffffffffffffffffffffffffff1916145b80610840575061083f82612e79565b5b9050919050565b6003805461085490614a38565b80601f016020809104026020016040519081016040528092919081815260200182805461088090614a38565b80156108cd5780601f106108a2576101008083540402835291602001916108cd565b820191906000526020600020905b8154815290600101906020018083116108b057829003601f168201915b505050505081565b6060600280546108e490614a38565b80601f016020809104026020016040519081016040528092919081815260200182805461091090614a38565b801561095d5780601f106109325761010080835404028352916020019161095d565b820191906000526020600020905b81548152906001019060200180831161094057829003601f168201915b50505050509050919050565b610971612ee3565b73ffffffffffffffffffffffffffffffffffffffff168573ffffffffffffffffffffffffffffffffffffffff1614806109b757506109b6856109b1612ee3565b612ced565b5b6109f6576040517f08c379a00000000000000000000000000000000000000000000000000000000081526004016109ed90614adc565b60405180910390fd5b610a038585858585612eeb565b5050505050565b601360009054906101000a900473ffffffffffffffffffffffffffffffffffffffff1673ffffffffffffffffffffffffffffffffffffffff163373ffffffffffffffffffffffffffffffffffffffff161480610ab6575060011515600e60003373ffffffffffffffffffffffffffffffffffffffff1673ffffffffffffffffffffffffffffffffffffffff16815260200190815260200160002060009054906101000a900460ff161515145b610af5576040517f08c379a0000000000000000000000000000000000000000000000000000000008152600401610aec90614b48565b60405180910390fd5b6000825111610b0357600080fd5b60008311610b1057600080fd5b60116000815480929190610b2390614b97565b9190505550610b453360115485604051806020016040528060008152506131ff565b601154601060006011548152602001908152602001600020819055506040518060600160405280601154815260200182815260200183815250600f60006011548152602001908152602001600020600082015181600001556020820151816001019080519060200190610bb9929190613a5c565b506040820151816002019080519060200190610bd6929190613a5c565b509050507faf4b1085b3f4f980233bd54e1a354fed0504d6aa21ed37949c8b5aabae94653c6011548284604051610c0f939291906141d9565b60405180910390a1505050565b60076020528060005260406000206000915090505481565b600f602052806000526040600020600091509050806000015490806001018054610c5d90614a38565b80601f0160208091040260200160405190810160405280929190818152602001828054610c8990614a38565b8015610cd65780601f10610cab57610100808354040283529160200191610cd6565b820191906000526020600020905b815481529060010190602001808311610cb957829003601f168201915b505050505090806002018054610ceb90614a38565b80601f0160208091040260200160405190810160405280929190818152602001828054610d1790614a38565b8015610d645780601f10610d3957610100808354040283529160200191610d64565b820191906000526020600020905b815481529060010190602001808311610d4757829003601f168201915b5050505050905083565b601360009054906101000a900473ffffffffffffffffffffffffffffffffffffffff1673ffffffffffffffffffffffffffffffffffffffff163373ffffffffffffffffffffffffffffffffffffffff161480610e1a575060011515600e60003373ffffffffffffffffffffffffffffffffffffffff1673ffffffffffffffffffffffffffffffffffffffff16815260200190815260200160002060009054906101000a900460ff161515145b610e59576040517f08c379a0000000000000000000000000000000000000000000000000000000008152600401610e5090614b48565b60405180910390fd5b60008211610e9c576040517f08c379a0000000000000000000000000000000000000000000000000000000008152600401610e9390614c06565b60405180910390fd5b601154821115610ee1576040517f08c379a0000000000000000000000000000000000000000000000000000000008152600401610ed890614c72565b60405180910390fd5b6000600d60008481526020019081526020016000205411610f37576040517f08c379a0000000000000000000000000000000000000000000000000000000008152600401610f2e90614cde565b60405180910390fd5b600560009054906101000a900473ffffffffffffffffffffffffffffffffffffffff1673ffffffffffffffffffffffffffffffffffffffff16634abc9325836040518263ffffffff1660e01b8152600401610f929190613bf6565b600060405180830381600087803b158015610fac57600080fd5b505af1158015610fc0573d6000803e3d6000fd5b5050505061102a33600c600085815260200190815260200160002060009054906101000a900473ffffffffffffffffffffffffffffffffffffffff166001600b60008781526020019081526020016000206009015460405180602001604052806000815250612d81565b6000600c600084815260200190815260200160002060006101000a81548173ffffffffffffffffffffffffffffffffffffffff021916908373ffffffffffffffffffffffffffffffffffffffff1602179055505050565b606081518351146110c7576040517f08c379a00000000000000000000000000000000000000000000000000000000081526004016110be90614d70565b60405180910390fd5b6000835167ffffffffffffffff8111156110e4576110e3613de6565b5b6040519080825280602002602001820160405280156111125781602001602082028036833780820191505090505b50905060005b845181101561118f5761115f85828151811061113757611136614d90565b5b602002602001015185838151811061115257611151614d90565b5b602002602001015161067c565b82828151811061117257611171614d90565b5b6020026020010181815250508061118890614b97565b9050611118565b508091505092915050565b601360009054906101000a900473ffffffffffffffffffffffffffffffffffffffff1673ffffffffffffffffffffffffffffffffffffffff163373ffffffffffffffffffffffffffffffffffffffff161480611246575060011515600e60003373ffffffffffffffffffffffffffffffffffffffff1673ffffffffffffffffffffffffffffffffffffffff16815260200190815260200160002060009054906101000a900460ff161515145b611285576040517f08c379a000000000000000000000000000000000000000000000000000000000815260040161127c90614b48565b60405180910390fd5b80600e60008473ffffffffffffffffffffffffffffffffffffffff1673ffffffffffffffffffffffffffffffffffffffff16815260200190815260200160002060006101000a81548160ff0219169083151502179055505050565b601360009054906101000a900473ffffffffffffffffffffffffffffffffffffffff1673ffffffffffffffffffffffffffffffffffffffff163373ffffffffffffffffffffffffffffffffffffffff16148061138c575060011515600e60003373ffffffffffffffffffffffffffffffffffffffff1673ffffffffffffffffffffffffffffffffffffffff16815260200190815260200160002060009054906101000a900460ff161515145b6113cb576040517f08c379a00000000000000000000000000000000000000000000000000000000081526004016113c290614b48565b60405180910390fd5b600085116113d857600080fd5b60008251116113e657600080fd5b600086116113f357600080fd5b600083511161140157600080fd5b600084511161140f57600080fd5b600073ffffffffffffffffffffffffffffffffffffffff163373ffffffffffffffffffffffffffffffffffffffff16141561144957600080fd5b6000600f6000838152602001908152602001600020600201805461146c90614a38565b9050116114ae576040517f08c379a00000000000000000000000000000000000000000000000000000000081526004016114a590614e0b565b60405180910390fd5b601260008154809291906114c190614b97565b9190505550601160008154809291906114d990614b97565b9190505550600560009054906101000a900473ffffffffffffffffffffffffffffffffffffffff1673ffffffffffffffffffffffffffffffffffffffff16639ff3b46d6011546040518263ffffffff1660e01b815260040161153b9190614e77565b6020604051808303816000875af115801561155a573d6000803e3d6000fd5b505050506040513d601f19601f8201168201806040525081019061157e9190614eba565b50601154600d60006011548152602001908152602001600020819055506115cc33600d60006011548152602001908152602001600020546001604051806020016040528060008152506131ff565b6040518060a00160405280601254815260200185815260200184815260200160008152602001601360009054906101000a900473ffffffffffffffffffffffffffffffffffffffff1673ffffffffffffffffffffffffffffffffffffffff16815250600a60006012548152602001908152602001600020600082015181600001556020820151816001019080519060200190611669929190613a5c565b506040820151816002019080519060200190611686929190613a5c565b506060820151816003015560808201518160040160006101000a81548173ffffffffffffffffffffffffffffffffffffffff021916908373ffffffffffffffffffffffffffffffffffffffff1602179055509050506040518060e001604052806011548152602001600a600060125481526020019081526020016000206040518060a00160405290816000820154815260200160018201805461172890614a38565b80601f016020809104026020016040519081016040528092919081815260200182805461175490614a38565b80156117a15780601f10611776576101008083540402835291602001916117a1565b820191906000526020600020905b81548152906001019060200180831161178457829003601f168201915b505050505081526020016002820180546117ba90614a38565b80601f01602080910402602001604051908101604052809291908181526020018280546117e690614a38565b80156118335780601f1061180857610100808354040283529160200191611833565b820191906000526020600020905b81548152906001019060200180831161181657829003601f168201915b50505050508152602001600382015481526020016004820160009054906101000a900473ffffffffffffffffffffffffffffffffffffffff1673ffffffffffffffffffffffffffffffffffffffff1673ffffffffffffffffffffffffffffffffffffffff1681525050815260200184815260200183815260200187815260200186815260200182815250600b600060115481526020019081526020016000206000820151816000015560208201518160010160008201518160000155602082015181600101908051906020019061190b929190613a5c565b506040820151816002019080519060200190611928929190613a5c565b506060820151816003015560808201518160040160006101000a81548173ffffffffffffffffffffffffffffffffffffffff021916908373ffffffffffffffffffffffffffffffffffffffff16021790555050506040820151816006019080519060200190611998929190613a5c565b5060608201518160070190805190602001906119b5929190613a5c565b506080820151816008015560a0820151816009015560c082015181600a01559050507fc1d8dfa99b3f84f95d3f0bc4a768addeb97b83b20aef7f9cb6729e126bafd2f960125485856000601360009054906101000a900473ffffffffffffffffffffffffffffffffffffffff16604051611a33959493929190614f2c565b60405180910390a17fb5c81648406183bffdea7566bac0ed978ae944671b4599c84fbe7b47f9f52429601154600a6000601254815260200190815260200160002085858a8a87604051611a8c979695949392919061512b565b60405180910390a1505050505050565b60096020528060005260406000206000915054906101000a900460ff1681565b600c6020528060005260406000206000915054906101000a900473ffffffffffffffffffffffffffffffffffffffff1681565b600b602052806000526040600020600091509050806000015490806001016040518060a001604052908160008201548152602001600182018054611b3290614a38565b80601f0160208091040260200160405190810160405280929190818152602001828054611b5e90614a38565b8015611bab5780601f10611b8057610100808354040283529160200191611bab565b820191906000526020600020905b815481529060010190602001808311611b8e57829003601f168201915b50505050508152602001600282018054611bc490614a38565b80601f0160208091040260200160405190810160405280929190818152602001828054611bf090614a38565b8015611c3d5780601f10611c1257610100808354040283529160200191611c3d565b820191906000526020600020905b815481529060010190602001808311611c2057829003601f168201915b50505050508152602001600382015481526020016004820160009054906101000a900473ffffffffffffffffffffffffffffffffffffffff1673ffffffffffffffffffffffffffffffffffffffff1673ffffffffffffffffffffffffffffffffffffffff168152505090806006018054611cb690614a38565b80601f0160208091040260200160405190810160405280929190818152602001828054611ce290614a38565b8015611d2f5780601f10611d0457610100808354040283529160200191611d2f565b820191906000526020600020905b815481529060010190602001808311611d1257829003601f168201915b505050505090806007018054611d4490614a38565b80601f0160208091040260200160405190810160405280929190818152602001828054611d7090614a38565b8015611dbd5780601f10611d9257610100808354040283529160200191611dbd565b820191906000526020600020905b815481529060010190602001808311611da057829003601f168201915b50505050509080600801549080600901549080600a0154905087565b600a602052806000526040600020600091509050806000015490806001018054611e0290614a38565b80601f0160208091040260200160405190810160405280929190818152602001828054611e2e90614a38565b8015611e7b5780601f10611e5057610100808354040283529160200191611e7b565b820191906000526020600020905b815481529060010190602001808311611e5e57829003601f168201915b505050505090806002018054611e9090614a38565b80601f0160208091040260200160405190810160405280929190818152602001828054611ebc90614a38565b8015611f095780601f10611ede57610100808354040283529160200191611f09565b820191906000526020600020905b815481529060010190602001808311611eec57829003601f168201915b5050505050908060030154908060040160009054906101000a900473ffffffffffffffffffffffffffffffffffffffff16905085565b601360009054906101000a900473ffffffffffffffffffffffffffffffffffffffff1681565b60125481565b60048054611f7890614a38565b80601f0160208091040260200160405190810160405280929190818152602001828054611fa490614a38565b8015611ff15780601f10611fc657610100808354040283529160200191611ff1565b820191906000526020600020905b815481529060010190602001808311611fd457829003601f168201915b505050505081565b601360009054906101000a900473ffffffffffffffffffffffffffffffffffffffff1673ffffffffffffffffffffffffffffffffffffffff163373ffffffffffffffffffffffffffffffffffffffff1614806120a5575060011515600e60003373ffffffffffffffffffffffffffffffffffffffff1673ffffffffffffffffffffffffffffffffffffffff16815260200190815260200160002060009054906101000a900460ff161515145b6120e4576040517f08c379a00000000000000000000000000000000000000000000000000000000081526004016120db90614b48565b60405180910390fd5b61210933848468056bc75e2d6310000060405180602001604052806000815250612d81565b505050565b60106020528060005260406000206000915090505481565b8173ffffffffffffffffffffffffffffffffffffffff16612145612ee3565b73ffffffffffffffffffffffffffffffffffffffff16141561219c576040517f08c379a000000000000000000000000000000000000000000000000000000000815260040161219390615221565b60405180910390fd5b80600160006121a9612ee3565b73ffffffffffffffffffffffffffffffffffffffff1673ffffffffffffffffffffffffffffffffffffffff16815260200190815260200160002060008473ffffffffffffffffffffffffffffffffffffffff1673ffffffffffffffffffffffffffffffffffffffff16815260200190815260200160002060006101000a81548160ff0219169083151502179055508173ffffffffffffffffffffffffffffffffffffffff16612256612ee3565b73ffffffffffffffffffffffffffffffffffffffff167f17307eab39ab6107e8899845ad3d59bd9653f200f220920489ca2b5937696c318360405161229b9190613c59565b60405180910390a35050565b60115481565b60086020528060005260406000206000915054906101000a900460ff1681565b6000801b600b60008781526020019081526020016000206007016040516122f491906152e0565b60405180910390201161233c576040517f08c379a000000000000000000000000000000000000000000000000000000000815260040161233390615343565b60405180910390fd5b6040518060400160405280600781526020017f57616974696e670000000000000000000000000000000000000000000000000081525080519060200120600560009054906101000a900473ffffffffffffffffffffffffffffffffffffffff1673ffffffffffffffffffffffffffffffffffffffff166335b67731876040518263ffffffff1660e01b81526004016123d49190613bf6565b600060405180830381865afa1580156123f1573d6000803e3d6000fd5b505050506040513d6000823e3d601f19601f8201168201806040525081019061241a91906153d3565b805190602001201415612462576040517f08c379a000000000000000000000000000000000000000000000000000000000815260040161245990615468565b60405180910390fd5b6000821180156124bf5750601360009054906101000a900473ffffffffffffffffffffffffffffffffffffffff1673ffffffffffffffffffffffffffffffffffffffff168673ffffffffffffffffffffffffffffffffffffffff16145b80156125ad57506040518060400160405280600481526020017f427573790000000000000000000000000000000000000000000000000000000081525080519060200120600560009054906101000a900473ffffffffffffffffffffffffffffffffffffffff1673ffffffffffffffffffffffffffffffffffffffff166335b67731876040518263ffffffff1660e01b815260040161255e9190613bf6565b600060405180830381865afa15801561257b573d6000803e3d6000fd5b505050506040513d6000823e3d601f19601f820116820180604052508101906125a491906153d3565b80519060200120145b156126d057600560009054906101000a900473ffffffffffffffffffffffffffffffffffffffff1673ffffffffffffffffffffffffffffffffffffffff16634bbbff0686846040518363ffffffff1660e01b815260040161260f929190615488565b6020604051808303816000875af115801561262e573d6000803e3d6000fd5b505050506040513d601f19601f820116820180604052508101906126529190614eba565b156126cb57612674878787600160405180602001604052806000815250612d81565b86600c600087815260200190815260200160002060006101000a81548173ffffffffffffffffffffffffffffffffffffffff021916908373ffffffffffffffffffffffffffffffffffffffff160217905550612ce4565b612ce3565b601360009054906101000a900473ffffffffffffffffffffffffffffffffffffffff1673ffffffffffffffffffffffffffffffffffffffff168673ffffffffffffffffffffffffffffffffffffffff1614801561280f57506040518060400160405280600a81526020017f5072656f7264657265640000000000000000000000000000000000000000000081525080519060200120600560009054906101000a900473ffffffffffffffffffffffffffffffffffffffff1673ffffffffffffffffffffffffffffffffffffffff166335b67731876040518263ffffffff1660e01b81526004016127c09190613bf6565b600060405180830381865afa1580156127dd573d6000803e3d6000fd5b505050506040513d6000823e3d601f19601f8201168201806040525081019061280691906153d3565b80519060200120145b1561281957612ce4565b601360009054906101000a900473ffffffffffffffffffffffffffffffffffffffff1673ffffffffffffffffffffffffffffffffffffffff168773ffffffffffffffffffffffffffffffffffffffff161415612ce25783801561287a575082155b80156128865750600081115b156129d857600560009054906101000a900473ffffffffffffffffffffffffffffffffffffffff1673ffffffffffffffffffffffffffffffffffffffff16633097c98e838388336040518563ffffffff1660e01b81526004016128ec94939291906154b1565b6020604051808303816000875af115801561290b573d6000803e3d6000fd5b505050506040513d601f19601f8201168201806040525081019061292f9190614eba565b156129d35761297c8688600b6000898152602001908152602001600020600a0154600b60008a81526020019081526020016000206009015460405180602001604052806000815250612d81565b85600c600087815260200190815260200160002060006101000a81548173ffffffffffffffffffffffffffffffffffffffff021916908373ffffffffffffffffffffffffffffffffffffffff160217905550612ce4565b612ce4565b8280156129e3575083155b8015612a4d57503373ffffffffffffffffffffffffffffffffffffffff16600c600087815260200190815260200160002060009054906101000a900473ffffffffffffffffffffffffffffffffffffffff1673ffffffffffffffffffffffffffffffffffffffff16145b15612b4557600560009054906101000a900473ffffffffffffffffffffffffffffffffffffffff1673ffffffffffffffffffffffffffffffffffffffff16631b227ed786336040518363ffffffff1660e01b8152600401612aaf9291906154f6565b6020604051808303816000875af1158015612ace573d6000803e3d6000fd5b505050506040513d601f19601f82011682018060405250810190612af29190614eba565b15612b4057612b3f8688600b6000898152602001908152602001600020600a0154600b60008a81526020019081526020016000206008015460405180602001604052806000815250612d81565b5b612ce4565b600081118015612b525750825b8015612b5b5750835b15612ce157600560009054906101000a900473ffffffffffffffffffffffffffffffffffffffff1673ffffffffffffffffffffffffffffffffffffffff1663d9d92d1e8633846040518463ffffffff1660e01b8152600401612bbf9392919061551f565b6020604051808303816000875af1158015612bde573d6000803e3d6000fd5b505050506040513d601f19601f82011682018060405250810190612c029190614eba565b15612ce057612c708688600b6000898152602001908152602001600020600a0154600b60008a815260200190815260200160002060090154600b60008b815260200190815260200160002060080154612c5b9190615556565b60405180602001604052806000815250612d81565b612c8d878787600160405180602001604052806000815250612d81565b85600c600087815260200190815260200160002060006101000a81548173ffffffffffffffffffffffffffffffffffffffff021916908373ffffffffffffffffffffffffffffffffffffffff1602179055505b5b5b5b5b50505050505050565b6000600160008473ffffffffffffffffffffffffffffffffffffffff1673ffffffffffffffffffffffffffffffffffffffff16815260200190815260200160002060008373ffffffffffffffffffffffffffffffffffffffff1673ffffffffffffffffffffffffffffffffffffffff16815260200190815260200160002060009054906101000a900460ff16905092915050565b612d89612ee3565b73ffffffffffffffffffffffffffffffffffffffff168573ffffffffffffffffffffffffffffffffffffffff161480612dcf5750612dce85612dc9612ee3565b612ced565b5b612e0e576040517f08c379a0000000000000000000000000000000000000000000000000000000008152600401612e059061561e565b60405180910390fd5b612e1b8585858585613395565b5050505050565b600d6020528060005260406000206000915090505481565b60068181548110612e4a57600080fd5b906000526020600020016000915054906101000a900473ffffffffffffffffffffffffffffffffffffffff1681565b60007f01ffc9a7000000000000000000000000000000000000000000000000000000007bffffffffffffffffffffffffffffffffffffffffffffffffffffffff1916827bffffffffffffffffffffffffffffffffffffffffffffffffffffffff1916149050919050565b600033905090565b8151835114612f2f576040517f08c379a0000000000000000000000000000000000000000000000000000000008152600401612f26906156b0565b60405180910390fd5b600073ffffffffffffffffffffffffffffffffffffffff168473ffffffffffffffffffffffffffffffffffffffff161415612f9f576040517f08c379a0000000000000000000000000000000000000000000000000000000008152600401612f9690615742565b60405180910390fd5b6000612fa9612ee3565b9050612fb9818787878787613617565b60005b845181101561316a576000858281518110612fda57612fd9614d90565b5b602002602001015190506000858381518110612ff957612ff8614d90565b5b60200260200101519050600080600084815260200190815260200160002060008b73ffffffffffffffffffffffffffffffffffffffff1673ffffffffffffffffffffffffffffffffffffffff1681526020019081526020016000205490508181101561309a576040517f08c379a0000000000000000000000000000000000000000000000000000000008152600401613091906157d4565b60405180910390fd5b81810360008085815260200190815260200160002060008c73ffffffffffffffffffffffffffffffffffffffff1673ffffffffffffffffffffffffffffffffffffffff168152602001908152602001600020819055508160008085815260200190815260200160002060008b73ffffffffffffffffffffffffffffffffffffffff1673ffffffffffffffffffffffffffffffffffffffff168152602001908152602001600020600082825461314f9190615556565b925050819055505050508061316390614b97565b9050612fbc565b508473ffffffffffffffffffffffffffffffffffffffff168673ffffffffffffffffffffffffffffffffffffffff168273ffffffffffffffffffffffffffffffffffffffff167f4a39dc06d4c0dbc64b70af90fd698a233a518aa5d07e595d983b8c0526c8f7fb87876040516131e19291906157f4565b60405180910390a46131f781878787878761361f565b505050505050565b600073ffffffffffffffffffffffffffffffffffffffff168473ffffffffffffffffffffffffffffffffffffffff16141561326f576040517f08c379a00000000000000000000000000000000000000000000000000000000081526004016132669061589d565b60405180910390fd5b6000613279612ee3565b905061329a8160008761328b886137f7565b613294886137f7565b87613617565b8260008086815260200190815260200160002060008773ffffffffffffffffffffffffffffffffffffffff1673ffffffffffffffffffffffffffffffffffffffff16815260200190815260200160002060008282546132f99190615556565b925050819055508473ffffffffffffffffffffffffffffffffffffffff16600073ffffffffffffffffffffffffffffffffffffffff168273ffffffffffffffffffffffffffffffffffffffff167fc3d58168c5ae7397731d063d5bbf3d657854427343f4c083240f7aacaa2d0f628787604051613377929190615488565b60405180910390a461338e81600087878787613871565b5050505050565b600073ffffffffffffffffffffffffffffffffffffffff168473ffffffffffffffffffffffffffffffffffffffff161415613405576040517f08c379a00000000000000000000000000000000000000000000000000000000081526004016133fc90615742565b60405180910390fd5b600061340f612ee3565b905061342f818787613420886137f7565b613429886137f7565b87613617565b600080600086815260200190815260200160002060008873ffffffffffffffffffffffffffffffffffffffff1673ffffffffffffffffffffffffffffffffffffffff168152602001908152602001600020549050838110156134c6576040517f08c379a00000000000000000000000000000000000000000000000000000000081526004016134bd906157d4565b60405180910390fd5b83810360008087815260200190815260200160002060008973ffffffffffffffffffffffffffffffffffffffff1673ffffffffffffffffffffffffffffffffffffffff168152602001908152602001600020819055508360008087815260200190815260200160002060008873ffffffffffffffffffffffffffffffffffffffff1673ffffffffffffffffffffffffffffffffffffffff168152602001908152602001600020600082825461357b9190615556565b925050819055508573ffffffffffffffffffffffffffffffffffffffff168773ffffffffffffffffffffffffffffffffffffffff168373ffffffffffffffffffffffffffffffffffffffff167fc3d58168c5ae7397731d063d5bbf3d657854427343f4c083240f7aacaa2d0f6288886040516135f8929190615488565b60405180910390a461360e828888888888613871565b50505050505050565b505050505050565b61363e8473ffffffffffffffffffffffffffffffffffffffff16613a49565b156137ef578373ffffffffffffffffffffffffffffffffffffffff1663bc197c8187878686866040518663ffffffff1660e01b8152600401613684959493929190615912565b6020604051808303816000875af19250505080156136c057506040513d601f19601f820116820180604052508101906136bd919061598f565b60015b613766576136cc6159c9565b806308c379a0141561372957506136e16159eb565b806136ec575061372b565b806040517f08c379a00000000000000000000000000000000000000000000000000000000081526004016137209190613d92565b60405180910390fd5b505b6040517f08c379a000000000000000000000000000000000000000000000000000000000815260040161375d90615af3565b60405180910390fd5b63bc197c8160e01b7bffffffffffffffffffffffffffffffffffffffffffffffffffffffff1916817bffffffffffffffffffffffffffffffffffffffffffffffffffffffff1916146137ed576040517f08c379a00000000000000000000000000000000000000000000000000000000081526004016137e490615b85565b60405180910390fd5b505b505050505050565b60606000600167ffffffffffffffff81111561381657613815613de6565b5b6040519080825280602002602001820160405280156138445781602001602082028036833780820191505090505b509050828160008151811061385c5761385b614d90565b5b60200260200101818152505080915050919050565b6138908473ffffffffffffffffffffffffffffffffffffffff16613a49565b15613a41578373ffffffffffffffffffffffffffffffffffffffff1663f23a6e6187878686866040518663ffffffff1660e01b81526004016138d6959493929190615ba5565b6020604051808303816000875af192505050801561391257506040513d601f19601f8201168201806040525081019061390f919061598f565b60015b6139b85761391e6159c9565b806308c379a0141561397b57506139336159eb565b8061393e575061397d565b806040517f08c379a00000000000000000000000000000000000000000000000000000000081526004016139729190613d92565b60405180910390fd5b505b6040517f08c379a00000000000000000000000000000000000000000000000000000000081526004016139af90615af3565b60405180910390fd5b63f23a6e6160e01b7bffffffffffffffffffffffffffffffffffffffffffffffffffffffff1916817bffffffffffffffffffffffffffffffffffffffffffffffffffffffff191614613a3f576040517f08c379a0000000000000000000000000000000000000000000000000000000008152600401613a3690615b85565b60405180910390fd5b505b505050505050565b600080823b905060008111915050919050565b828054613a6890614a38565b90600052602060002090601f016020900481019282613a8a5760008555613ad1565b82601f10613aa357805160ff1916838001178555613ad1565b82800160010185558215613ad1579182015b82811115613ad0578251825591602001919060010190613ab5565b5b509050613ade9190613ae2565b5090565b5b80821115613afb576000816000905550600101613ae3565b5090565b6000604051905090565b600080fd5b600080fd5b600073ffffffffffffffffffffffffffffffffffffffff82169050919050565b6000613b3e82613b13565b9050919050565b613b4e81613b33565b8114613b5957600080fd5b50565b600081359050613b6b81613b45565b92915050565b6000819050919050565b613b8481613b71565b8114613b8f57600080fd5b50565b600081359050613ba181613b7b565b92915050565b60008060408385031215613bbe57613bbd613b09565b5b6000613bcc85828601613b5c565b9250506020613bdd85828601613b92565b9150509250929050565b613bf081613b71565b82525050565b6000602082019050613c0b6000830184613be7565b92915050565b600060208284031215613c2757613c26613b09565b5b6000613c3584828501613b5c565b91505092915050565b60008115159050919050565b613c5381613c3e565b82525050565b6000602082019050613c6e6000830184613c4a565b92915050565b60007fffffffff0000000000000000000000000000000000000000000000000000000082169050919050565b613ca981613c74565b8114613cb457600080fd5b50565b600081359050613cc681613ca0565b92915050565b600060208284031215613ce257613ce1613b09565b5b6000613cf084828501613cb7565b91505092915050565b600081519050919050565b600082825260208201905092915050565b60005b83811015613d33578082015181840152602081019050613d18565b83811115613d42576000848401525b50505050565b6000601f19601f8301169050919050565b6000613d6482613cf9565b613d6e8185613d04565b9350613d7e818560208601613d15565b613d8781613d48565b840191505092915050565b60006020820190508181036000830152613dac8184613d59565b905092915050565b600060208284031215613dca57613dc9613b09565b5b6000613dd884828501613b92565b91505092915050565b600080fd5b7f4e487b7100000000000000000000000000000000000000000000000000000000600052604160045260246000fd5b613e1e82613d48565b810181811067ffffffffffffffff82111715613e3d57613e3c613de6565b5b80604052505050565b6000613e50613aff565b9050613e5c8282613e15565b919050565b600067ffffffffffffffff821115613e7c57613e7b613de6565b5b602082029050602081019050919050565b600080fd5b6000613ea5613ea084613e61565b613e46565b90508083825260208201905060208402830185811115613ec857613ec7613e8d565b5b835b81811015613ef15780613edd8882613b92565b845260208401935050602081019050613eca565b5050509392505050565b600082601f830112613f1057613f0f613de1565b5b8135613f20848260208601613e92565b91505092915050565b600080fd5b600067ffffffffffffffff821115613f4957613f48613de6565b5b613f5282613d48565b9050602081019050919050565b82818337600083830152505050565b6000613f81613f7c84613f2e565b613e46565b905082815260208101848484011115613f9d57613f9c613f29565b5b613fa8848285613f5f565b509392505050565b600082601f830112613fc557613fc4613de1565b5b8135613fd5848260208601613f6e565b91505092915050565b600080600080600060a08688031215613ffa57613ff9613b09565b5b600061400888828901613b5c565b955050602061401988828901613b5c565b945050604086013567ffffffffffffffff81111561403a57614039613b0e565b5b61404688828901613efb565b935050606086013567ffffffffffffffff81111561406757614066613b0e565b5b61407388828901613efb565b925050608086013567ffffffffffffffff81111561409457614093613b0e565b5b6140a088828901613fb0565b9150509295509295909350565b600067ffffffffffffffff8211156140c8576140c7613de6565b5b6140d182613d48565b9050602081019050919050565b60006140f16140ec846140ad565b613e46565b90508281526020810184848401111561410d5761410c613f29565b5b614118848285613f5f565b509392505050565b600082601f83011261413557614134613de1565b5b81356141458482602086016140de565b91505092915050565b60008060006060848603121561416757614166613b09565b5b600061417586828701613b92565b935050602084013567ffffffffffffffff81111561419657614195613b0e565b5b6141a286828701614120565b925050604084013567ffffffffffffffff8111156141c3576141c2613b0e565b5b6141cf86828701614120565b9150509250925092565b60006060820190506141ee6000830186613be7565b81810360208301526142008185613d59565b905081810360408301526142148184613d59565b9050949350505050565b6000806040838503121561423557614234613b09565b5b600061424385828601613b92565b925050602061425485828601613b92565b9150509250929050565b600067ffffffffffffffff82111561427957614278613de6565b5b602082029050602081019050919050565b600061429d6142988461425e565b613e46565b905080838252602082019050602084028301858111156142c0576142bf613e8d565b5b835b818110156142e957806142d58882613b5c565b8452602084019350506020810190506142c2565b5050509392505050565b600082601f83011261430857614307613de1565b5b813561431884826020860161428a565b91505092915050565b6000806040838503121561433857614337613b09565b5b600083013567ffffffffffffffff81111561435657614355613b0e565b5b614362858286016142f3565b925050602083013567ffffffffffffffff81111561438357614382613b0e565b5b61438f85828601613efb565b9150509250929050565b600081519050919050565b600082825260208201905092915050565b6000819050602082019050919050565b6143ce81613b71565b82525050565b60006143e083836143c5565b60208301905092915050565b6000602082019050919050565b600061440482614399565b61440e81856143a4565b9350614419836143b5565b8060005b8381101561444a57815161443188826143d4565b975061443c836143ec565b92505060018101905061441d565b5085935050505092915050565b6000602082019050818103600083015261447181846143f9565b905092915050565b61448281613c3e565b811461448d57600080fd5b50565b60008135905061449f81614479565b92915050565b600080604083850312156144bc576144bb613b09565b5b60006144ca85828601613b5c565b92505060206144db85828601614490565b9150509250929050565b60008060008060008060c0878903121561450257614501613b09565b5b600061451089828a01613b92565b965050602061452189828a01613b92565b955050604087013567ffffffffffffffff81111561454257614541613b0e565b5b61454e89828a01614120565b945050606087013567ffffffffffffffff81111561456f5761456e613b0e565b5b61457b89828a01614120565b935050608087013567ffffffffffffffff81111561459c5761459b613b0e565b5b6145a889828a01614120565b92505060a06145b989828a01613b92565b9150509295509295509295565b6145cf81613b33565b82525050565b60006020820190506145ea60008301846145c6565b92915050565b600082825260208201905092915050565b600061460c82613cf9565b61461681856145f0565b9350614626818560208601613d15565b61462f81613d48565b840191505092915050565b61464381613b33565b82525050565b600060a08301600083015161466160008601826143c5565b50602083015184820360208601526146798282614601565b915050604083015184820360408601526146938282614601565b91505060608301516146a860608601826143c5565b5060808301516146bb608086018261463a565b508091505092915050565b600060e0820190506146db600083018a613be7565b81810360208301526146ed8189614649565b905081810360408301526147018188613d59565b905081810360608301526147158187613d59565b90506147246080830186613be7565b61473160a0830185613be7565b61473e60c0830184613be7565b98975050505050505050565b600060a08201905061475f6000830188613be7565b81810360208301526147718187613d59565b905081810360408301526147858186613d59565b90506147946060830185613be7565b6147a160808301846145c6565b9695505050505050565b6000806000606084860312156147c4576147c3613b09565b5b60006147d286828701613b5c565b93505060206147e386828701613b92565b92505060406147f486828701613b92565b9150509250925092565b600080600080600080600060e0888a03121561481d5761481c613b09565b5b600061482b8a828b01613b5c565b975050602061483c8a828b01613b5c565b965050604061484d8a828b01613b92565b955050606061485e8a828b01614490565b945050608061486f8a828b01614490565b93505060a06148808a828b01613b92565b92505060c06148918a828b01613b92565b91505092959891949750929550565b600080604083850312156148b7576148b6613b09565b5b60006148c585828601613b5c565b92505060206148d685828601613b5c565b9150509250929050565b600080600080600060a086880312156148fc576148fb613b09565b5b600061490a88828901613b5c565b955050602061491b88828901613b5c565b945050604061492c88828901613b92565b935050606061493d88828901613b92565b925050608086013567ffffffffffffffff81111561495e5761495d613b0e565b5b61496a88828901613fb0565b9150509295509295909350565b7f455243313135353a2062616c616e636520717565727920666f7220746865207a60008201527f65726f2061646472657373000000000000000000000000000000000000000000602082015250565b60006149d3602b83613d04565b91506149de82614977565b604082019050919050565b60006020820190508181036000830152614a02816149c6565b9050919050565b7f4e487b7100000000000000000000000000000000000000000000000000000000600052602260045260246000fd5b60006002820490506001821680614a5057607f821691505b60208210811415614a6457614a63614a09565b5b50919050565b7f455243313135353a207472616e736665722063616c6c6572206973206e6f742060008201527f6f776e6572206e6f7220617070726f7665640000000000000000000000000000602082015250565b6000614ac6603283613d04565b9150614ad182614a6a565b604082019050919050565b60006020820190508181036000830152614af581614ab9565b9050919050565b7f536f6c6f20696c2070726f70726965746172696f000000000000000000000000600082015250565b6000614b32601483613d04565b9150614b3d82614afc565b602082019050919050565b60006020820190508181036000830152614b6181614b25565b9050919050565b7f4e487b7100000000000000000000000000000000000000000000000000000000600052601160045260246000fd5b6000614ba282613b71565b91507fffffffffffffffffffffffffffffffffffffffffffffffffffffffffffffffff821415614bd557614bd4614b68565b5b600182019050919050565b50565b6000614bf0600083613d04565b9150614bfb82614be0565b600082019050919050565b60006020820190508181036000830152614c1f81614be3565b9050919050565b7f6974656d206e6f74206578697374730000000000000000000000000000000000600082015250565b6000614c5c600f83613d04565b9150614c6782614c26565b602082019050919050565b60006020820190508181036000830152614c8b81614c4f565b9050919050565b7f546f6b656e206e6f742065786973747300000000000000000000000000000000600082015250565b6000614cc8601083613d04565b9150614cd382614c92565b602082019050919050565b60006020820190508181036000830152614cf781614cbb565b9050919050565b7f455243313135353a206163636f756e747320616e6420696473206c656e67746860008201527f206d69736d617463680000000000000000000000000000000000000000000000602082015250565b6000614d5a602983613d04565b9150614d6582614cfe565b604082019050919050565b60006020820190508181036000830152614d8981614d4d565b9050919050565b7f4e487b7100000000000000000000000000000000000000000000000000000000600052603260045260246000fd5b7f436f696e204e6f74206578697374000000000000000000000000000000000000600082015250565b6000614df5600e83613d04565b9150614e0082614dbf565b602082019050919050565b60006020820190508181036000830152614e2481614de8565b9050919050565b7f417661696c61626c650000000000000000000000000000000000000000000000600082015250565b6000614e61600983613d04565b9150614e6c82614e2b565b602082019050919050565b6000604082019050614e8c6000830184613be7565b8181036020830152614e9d81614e54565b905092915050565b600081519050614eb481614479565b92915050565b600060208284031215614ed057614ecf613b09565b5b6000614ede84828501614ea5565b91505092915050565b6000819050919050565b6000819050919050565b6000614f16614f11614f0c84614ee7565b614ef1565b613b71565b9050919050565b614f2681614efb565b82525050565b600060a082019050614f416000830188613be7565b8181036020830152614f538187613d59565b90508181036040830152614f678186613d59565b9050614f766060830185614f1d565b614f8360808301846145c6565b9695505050505050565b60008160001c9050919050565b6000819050919050565b6000614fb7614fb283614f8d565b614f9a565b9050919050565b60008190508160005260206000209050919050565b60008154614fe081614a38565b614fea81866145f0565b9450600182166000811461500557600181146150175761504a565b60ff198316865260208601935061504a565b61502085614fbe565b60005b8381101561504257815481890152600182019150602081019050615023565b808801955050505b50505092915050565b600073ffffffffffffffffffffffffffffffffffffffff82169050919050565b600061508661508183614f8d565b615053565b9050919050565b600060a0830160008084015490506150a481614fa4565b6150b160008701826143c5565b506001840185830360208701526150c88382614fd3565b9250506002840185830360408701526150e18382614fd3565b925050600384015490506150f481614fa4565b61510160608701826143c5565b506004840154905061511281615073565b61511f608087018261463a565b50819250505092915050565b600060e082019050615140600083018a613be7565b8181036020830152615152818961508d565b905081810360408301526151668188613d59565b9050818103606083015261517a8187613d59565b90506151896080830186613be7565b61519660a0830185613be7565b6151a360c0830184613be7565b98975050505050505050565b7f455243313135353a2073657474696e6720617070726f76616c2073746174757360008201527f20666f722073656c660000000000000000000000000000000000000000000000602082015250565b600061520b602983613d04565b9150615216826151af565b604082019050919050565b6000602082019050818103600083015261523a816151fe565b9050919050565b600081905092915050565b60008190508160005260206000209050919050565b6000815461526e81614a38565b6152788186615241565b9450600182166000811461529357600181146152a4576152d7565b60ff198316865281860193506152d7565b6152ad8561524c565b60005b838110156152cf578154818901526001820191506020810190506152b0565b838801955050505b50505092915050565b60006152ec8284615261565b915081905092915050565b7f746f6b656e206e6f742074727565000000000000000000000000000000000000600082015250565b600061532d600e83613d04565b9150615338826152f7565b602082019050919050565b6000602082019050818103600083015261535c81615320565b9050919050565b6000615376615371846140ad565b613e46565b90508281526020810184848401111561539257615391613f29565b5b61539d848285613d15565b509392505050565b600082601f8301126153ba576153b9613de1565b5b81516153ca848260208601615363565b91505092915050565b6000602082840312156153e9576153e8613b09565b5b600082015167ffffffffffffffff81111561540757615406613b0e565b5b615413848285016153a5565b91505092915050565b7f746f6b656e2069732077616974696e6720000000000000000000000000000000600082015250565b6000615452601183613d04565b915061545d8261541c565b602082019050919050565b6000602082019050818103600083015261548181615445565b9050919050565b600060408201905061549d6000830185613be7565b6154aa6020830184613be7565b9392505050565b60006080820190506154c66000830187613be7565b6154d36020830186613be7565b6154e06040830185613be7565b6154ed60608301846145c6565b95945050505050565b600060408201905061550b6000830185613be7565b61551860208301846145c6565b9392505050565b60006060820190506155346000830186613be7565b61554160208301856145c6565b61554e6040830184613be7565b949350505050565b600061556182613b71565b915061556c83613b71565b9250827fffffffffffffffffffffffffffffffffffffffffffffffffffffffffffffffff038211156155a1576155a0614b68565b5b828201905092915050565b7f455243313135353a2063616c6c6572206973206e6f74206f776e6572206e6f7260008201527f20617070726f7665640000000000000000000000000000000000000000000000602082015250565b6000615608602983613d04565b9150615613826155ac565b604082019050919050565b60006020820190508181036000830152615637816155fb565b9050919050565b7f455243313135353a2069647320616e6420616d6f756e7473206c656e6774682060008201527f6d69736d61746368000000000000000000000000000000000000000000000000602082015250565b600061569a602883613d04565b91506156a58261563e565b604082019050919050565b600060208201905081810360008301526156c98161568d565b9050919050565b7f455243313135353a207472616e7366657220746f20746865207a65726f20616460008201527f6472657373000000000000000000000000000000000000000000000000000000602082015250565b600061572c602583613d04565b9150615737826156d0565b604082019050919050565b6000602082019050818103600083015261575b8161571f565b9050919050565b7f455243313135353a20696e73756666696369656e742062616c616e636520666f60008201527f72207472616e7366657200000000000000000000000000000000000000000000602082015250565b60006157be602a83613d04565b91506157c982615762565b604082019050919050565b600060208201905081810360008301526157ed816157b1565b9050919050565b6000604082019050818103600083015261580e81856143f9565b9050818103602083015261582281846143f9565b90509392505050565b7f455243313135353a206d696e7420746f20746865207a65726f2061646472657360008201527f7300000000000000000000000000000000000000000000000000000000000000602082015250565b6000615887602183613d04565b91506158928261582b565b604082019050919050565b600060208201905081810360008301526158b68161587a565b9050919050565b600081519050919050565b600082825260208201905092915050565b60006158e4826158bd565b6158ee81856158c8565b93506158fe818560208601613d15565b61590781613d48565b840191505092915050565b600060a08201905061592760008301886145c6565b61593460208301876145c6565b818103604083015261594681866143f9565b9050818103606083015261595a81856143f9565b9050818103608083015261596e81846158d9565b90509695505050505050565b60008151905061598981613ca0565b92915050565b6000602082840312156159a5576159a4613b09565b5b60006159b38482850161597a565b91505092915050565b60008160e01c9050919050565b600060033d11156159e85760046000803e6159e56000516159bc565b90505b90565b600060443d10156159fb57615a7e565b615a03613aff565b60043d036004823e80513d602482011167ffffffffffffffff82111715615a2b575050615a7e565b808201805167ffffffffffffffff811115615a495750505050615a7e565b80602083010160043d038501811115615a66575050505050615a7e565b615a7582602001850186613e15565b82955050505050505b90565b7f455243313135353a207472616e7366657220746f206e6f6e204552433131353560008201527f526563656976657220696d706c656d656e746572000000000000000000000000602082015250565b6000615add603483613d04565b9150615ae882615a81565b604082019050919050565b60006020820190508181036000830152615b0c81615ad0565b9050919050565b7f455243313135353a204552433131353552656365697665722072656a6563746560008201527f6420746f6b656e73000000000000000000000000000000000000000000000000602082015250565b6000615b6f602883613d04565b9150615b7a82615b13565b604082019050919050565b60006020820190508181036000830152615b9e81615b62565b9050919050565b600060a082019050615bba60008301886145c6565b615bc760208301876145c6565b615bd46040830186613be7565b615be16060830185613be7565b8181036080830152615bf381846158d9565b9050969550505050505056fea26469706673582212202a2e711e168fdbe44ff099761456d2cc034073e21a05ec8157161590155b926b64736f6c634300080a0033",
  "immutableReferences": {},
  "source": "// contracts/LoanItem.sol\r\n// SPDX-License-Identifier: MIT\r\npragma solidity ^0.8.0;\r\n\r\nimport \"@openzeppelin/contracts/token/ERC1155/ERC1155.sol\";\r\nimport\"./LitemCalendar.sol\";\r\ncontract LoanItem is ERC1155{\r\n    \r\n    string public name = \"LoanItem\";\r\n    string  public symbol = \"LI\";\r\n    Calendar Calendario;\r\n    \r\n    address[] public stakers;\r\n    mapping(address => uint) public stakingBalance;\r\n    mapping(address => bool) public hasStaked;\r\n    mapping(address => bool) public isStaking;\r\n    \r\n   \r\n     mapping(uint => Image)public images;\r\n     mapping(uint => TokenNFT)public tokenId;\r\n     mapping(uint => address)public CautionId;\r\n     mapping(uint256 => uint256) public ids;\r\n\r\n     mapping(address => bool) public permissions;\r\n\r\n     mapping(uint256 => CoinFT) public CoinId;\r\n     mapping(uint256 => uint256) public Cds;\r\n   \r\n\r\n\r\n    struct Image {\r\n      uint id;\r\n      string hash;\r\n      string description;\r\n      uint tokenId;\r\n      address author;\r\n    }\r\n\r\n    event ImageCreated(\r\n      uint id,\r\n      string hash,\r\n      string description,\r\n      uint tokenId,\r\n      address  author\r\n      );\r\n\r\n     struct TokenNFT {\r\n      uint id;\r\n      Image  phots;\r\n      string description;\r\n      string namet;\r\n      uint256 pricel;\r\n      uint256 caution;\r\n      uint256 Cid;\r\n      \r\n    }\r\n    event TokenNFTCreated(\r\n      uint id,\r\n      Image  phots,\r\n      string description,\r\n      string namet,\r\n      uint256 pricel,\r\n      uint256 caution,\r\n      uint256 Cid\r\n      );\r\n\r\n     struct CoinFT {\r\n      uint id;\r\n      //Image  phots;\r\n      string description;\r\n      string namec;\r\n    }\r\n    event CoinFTCreated(\r\n      uint id,\r\n      //Image  phots,\r\n      string description,\r\n      string namec\r\n      );\r\n\r\n\r\n    uint256 public countAttrezzi;\r\n    uint256 public imageCount;\r\n    address public owner;\r\n   \r\n\r\n  constructor(address _owner,Calendar Cad) public ERC1155(\"\") {  \r\n         owner = _owner;\r\n         permissions[owner]= true;\r\n         Calendario = Cad;\r\n         }\r\n    \r\n\r\n\r\n // function addMoreCoin()public{}\r\n\r\n\r\n  function addNewCoin( uint256 value,string memory Name,string memory description )external {\r\n          require (msg.sender == owner || permissions[msg.sender]== true , \"Solo il proprietario\");\r\n          require(bytes(Name).length>0);\r\n          require(value>0);\r\n          countAttrezzi++;\r\n         _mint(msg.sender, countAttrezzi, value, \"\");\r\n          Cds[countAttrezzi]= countAttrezzi;\r\n          CoinId[countAttrezzi]= CoinFT(countAttrezzi,description,Name);\r\n          emit CoinFTCreated(countAttrezzi,description,Name);\r\n      } \r\n\r\n\r\n\r\n    modifier propriety(){ \r\n\r\n        require (msg.sender == owner || permissions[msg.sender]== true , \"Solo il proprietario\");       \r\n        _;\r\n    }\r\n      function setPermissions(address ute,bool setting) external propriety {\r\n\r\n      \r\n        permissions[ute]= setting;\r\n\r\n      }\r\n    \r\n\r\n      function addNewItem(uint256 price,uint256 caution,string memory _imgHash,string memory _description, string memory namef,uint256 Cid) external propriety {\r\n     \r\n      \r\n        require(caution > 0);\r\n        require(bytes(namef).length > 0);\r\n        require((price) > 0);\r\n        require(bytes(_description).length > 0);\r\n        require(bytes(_imgHash).length > 0);\r\n        require(msg.sender != address(0x0));\r\n        require(bytes(CoinId[Cid].namec).length > 0,\"Coin Not exist\");//controllo che il coin esiste aggiungere che il coin esiste\r\n\r\n        imageCount ++;\r\n        countAttrezzi++;\r\n       \r\n        Calendario.setAvailable(countAttrezzi,\"Available\"); \r\n     \r\n\r\n      \r\n        ids[countAttrezzi]=countAttrezzi;\r\n          \r\n        _mint(msg.sender, ids[countAttrezzi], 1, \"\");\r\n  \r\n  \r\n        images[imageCount] = Image(imageCount,_imgHash,_description,0,owner);\r\n        tokenId[countAttrezzi] = TokenNFT(countAttrezzi,images[imageCount],_description,namef,price,caution,Cid);\r\n        //causa l'evento \r\n        emit ImageCreated(imageCount,_imgHash,_description,0,owner);\r\n        emit TokenNFTCreated(countAttrezzi,images[imageCount],_description,namef,price,caution,Cid);    \r\n    }\r\n   \r\n      function TrasferTest(address _from, address _to, uint256 _id,bool pre,bool acq,uint256 dateS,uint256 dateF) external {\r\n\r\n        //aggiungere il metodo che controlla le prenotazioni \r\n\r\n          //require(address(_from)!=address(0x0), \"address _from is 0x0\");\r\n          //require(address(_to)!=address(0x0), \"address _to is 0x0\");\r\n          require(keccak256(bytes(tokenId[_id].namet))> 0, \"token not true\");  \r\n          require(keccak256(bytes(Calendario.Available(_id))) != keccak256(bytes(\"Waiting\")),\"token is waiting \");\r\n          \r\n          if(dateS>0 &&_to == owner  && keccak256(bytes(Calendario.Available(_id))) == keccak256(bytes(\"Busy\"))){\r\n            //riconsegna item\r\n            if(Calendario.Back(_id,dateS)){\r\n            safeTransferFrom( _from,_to, _id,1,\"\");\r\n            CautionId[_id]= _from;\r\n            return;\r\n          }\r\n            }\r\n            else if(_to == owner  && keccak256(bytes(Calendario.Available(_id))) == keccak256(bytes(\"Preordered\"))){\r\n              //caso in cui voglio cancellare una prenotazione\r\n              return;\r\n            }\r\n            else if(_from == owner/*&& Calendario.CheckAvialable()*/){\r\n              if(pre && !(acq) && dateF>0){//preOrder pago la cauzione in anticipo\r\n                      \r\n                if(Calendario.Pre_Order(dateS,dateF,_id,msg.sender)) {\r\n                 safeTransferFrom( _to,_from,tokenId[_id].Cid,tokenId[_id].caution,\"\");\r\n                 CautionId[_id]= _to;\r\n                 return;\r\n              }\r\n                return;\r\n            }\r\n              if(acq && !(pre) &&  CautionId[_id]== msg.sender){\r\n                //per fare l'acquire di un oggetto prenotato devo verificare la data inizio\r\n                //e poi pagare l'oggetto \r\n                if(Calendario.AcquirePre(_id,msg.sender)){\r\n\r\n                   safeTransferFrom( _to,_from,tokenId[_id].Cid,tokenId[_id].pricel,\"\");\r\n                }\r\n                return;\r\n              }\r\n\r\n              //in caso di acquisto normale \r\n              if(dateF>0 && acq && pre){\r\n              if(Calendario.Acquire(_id,msg.sender,dateF)){\r\n              safeTransferFrom( _to,_from,tokenId[_id].Cid,tokenId[_id].pricel+tokenId[_id].caution,\"\");  \r\n              safeTransferFrom( _from,_to, _id,1,\"\");\r\n              CautionId[_id]= _to;\r\n            }}}\r\n          return;\r\n      }\r\n  \r\n      \r\n      function GiveToken(address _to,uint256 coin,uint256 value) external propriety {\r\n        safeTransferFrom( msg.sender,_to, coin,100000000000000000000,\"\");\r\n      }\r\n\r\n      function ReleseW(uint256 _id, uint256 caution )  external propriety{\r\n    //si potrebbe gestire il caso in cui la cauzione restituita sia variabile\r\n        require(_id>0,\"\");\r\n        require(_id<=countAttrezzi,\"item not exists\");\r\n        require(ids[_id]>0,\"Token not exists\" );\r\n       \r\n       Calendario.Relese(_id);\r\n\r\n        safeTransferFrom( msg.sender,CautionId[_id], 1, tokenId[_id].caution,\"\");\r\n        CautionId[_id]= address(0x0);\r\n         \r\n         \r\n      }\r\n    \r\n   \r\n    }\r\n\r\n\r\n\r\n\r\n\r\n\r\n\r\n\r\n\r\n",
  "sourcePath": "C:\\Users\\Luca\\Desktop\\tesi\\My-tesi\\src\\contracts\\LoanItem.sol",
  "compiler": {
    "name": "solc",
    "version": "0.8.10+commit.fc410830.Emscripten.clang"
  },
  "schemaVersion": "3.4.1",
  "updatedAt": "2021-12-01T14:57:32.483Z",
  "devdoc": {
    "kind": "dev",
    "methods": {
      "balanceOf(address,uint256)": {
        "details": "See {IERC1155-balanceOf}. Requirements: - `account` cannot be the zero address."
      },
      "balanceOfBatch(address[],uint256[])": {
        "details": "See {IERC1155-balanceOfBatch}. Requirements: - `accounts` and `ids` must have the same length."
      },
      "isApprovedForAll(address,address)": {
        "details": "See {IERC1155-isApprovedForAll}."
      },
      "safeBatchTransferFrom(address,address,uint256[],uint256[],bytes)": {
        "details": "See {IERC1155-safeBatchTransferFrom}."
      },
      "safeTransferFrom(address,address,uint256,uint256,bytes)": {
        "details": "See {IERC1155-safeTransferFrom}."
      },
      "setApprovalForAll(address,bool)": {
        "details": "See {IERC1155-setApprovalForAll}."
      },
      "supportsInterface(bytes4)": {
        "details": "See {IERC165-supportsInterface}."
      },
      "uri(uint256)": {
        "details": "See {IERC1155MetadataURI-uri}. This implementation returns the same URI for *all* token types. It relies on the token type ID substitution mechanism https://eips.ethereum.org/EIPS/eip-1155#metadata[defined in the EIP]. Clients calling this function must replace the `\\{id\\}` substring with the actual token type ID."
      }
    },
    "version": 1
  },
  "userdoc": {
    "kind": "user",
    "methods": {},
    "version": 1
  }
}