{
  "contractName": "LoanItem",
  "abi": [
    {
      "inputs": [
        {
          "internalType": "address",
          "name": "_owner",
          "type": "address"
        },
        {
          "internalType": "contract Calendar",
          "name": "Cad",
          "type": "address"
        }
      ],
      "stateMutability": "nonpayable",
      "type": "constructor"
    },
    {
      "anonymous": false,
      "inputs": [
        {
          "indexed": true,
          "internalType": "address",
          "name": "account",
          "type": "address"
        },
        {
          "indexed": true,
          "internalType": "address",
          "name": "operator",
          "type": "address"
        },
        {
          "indexed": false,
          "internalType": "bool",
          "name": "approved",
          "type": "bool"
        }
      ],
      "name": "ApprovalForAll",
      "type": "event"
    },
    {
      "anonymous": false,
      "inputs": [
        {
          "indexed": false,
          "internalType": "uint256",
          "name": "id",
          "type": "uint256"
        },
        {
          "indexed": false,
          "internalType": "string",
          "name": "description",
          "type": "string"
        },
        {
          "indexed": false,
          "internalType": "string",
          "name": "namec",
          "type": "string"
        }
      ],
      "name": "CoinFTCreated",
      "type": "event"
    },
    {
      "anonymous": false,
      "inputs": [
        {
          "indexed": false,
          "internalType": "uint256",
          "name": "id",
          "type": "uint256"
        },
        {
          "indexed": false,
          "internalType": "string",
          "name": "hash",
          "type": "string"
        },
        {
          "indexed": false,
          "internalType": "string",
          "name": "description",
          "type": "string"
        },
        {
          "indexed": false,
          "internalType": "uint256",
          "name": "tokenId",
          "type": "uint256"
        },
        {
          "indexed": false,
          "internalType": "address",
          "name": "author",
          "type": "address"
        }
      ],
      "name": "ImageCreated",
      "type": "event"
    },
    {
      "anonymous": false,
      "inputs": [
        {
          "indexed": false,
          "internalType": "uint256",
          "name": "id",
          "type": "uint256"
        },
        {
          "components": [
            {
              "internalType": "uint256",
              "name": "id",
              "type": "uint256"
            },
            {
              "internalType": "string",
              "name": "hash",
              "type": "string"
            },
            {
              "internalType": "string",
              "name": "description",
              "type": "string"
            },
            {
              "internalType": "uint256",
              "name": "tokenId",
              "type": "uint256"
            },
            {
              "internalType": "address",
              "name": "author",
              "type": "address"
            }
          ],
          "indexed": false,
          "internalType": "struct LoanItem.Image",
          "name": "phots",
          "type": "tuple"
        },
        {
          "indexed": false,
          "internalType": "string",
          "name": "description",
          "type": "string"
        },
        {
          "indexed": false,
          "internalType": "string",
          "name": "namet",
          "type": "string"
        },
        {
          "indexed": false,
          "internalType": "uint256",
          "name": "pricel",
          "type": "uint256"
        },
        {
          "indexed": false,
          "internalType": "uint256",
          "name": "caution",
          "type": "uint256"
        },
        {
          "indexed": false,
          "internalType": "uint256",
          "name": "Cid",
          "type": "uint256"
        }
      ],
      "name": "TokenNFTCreated",
      "type": "event"
    },
    {
      "anonymous": false,
      "inputs": [
        {
          "indexed": true,
          "internalType": "address",
          "name": "operator",
          "type": "address"
        },
        {
          "indexed": true,
          "internalType": "address",
          "name": "from",
          "type": "address"
        },
        {
          "indexed": true,
          "internalType": "address",
          "name": "to",
          "type": "address"
        },
        {
          "indexed": false,
          "internalType": "uint256[]",
          "name": "ids",
          "type": "uint256[]"
        },
        {
          "indexed": false,
          "internalType": "uint256[]",
          "name": "values",
          "type": "uint256[]"
        }
      ],
      "name": "TransferBatch",
      "type": "event"
    },
    {
      "anonymous": false,
      "inputs": [
        {
          "indexed": true,
          "internalType": "address",
          "name": "operator",
          "type": "address"
        },
        {
          "indexed": true,
          "internalType": "address",
          "name": "from",
          "type": "address"
        },
        {
          "indexed": true,
          "internalType": "address",
          "name": "to",
          "type": "address"
        },
        {
          "indexed": false,
          "internalType": "uint256",
          "name": "id",
          "type": "uint256"
        },
        {
          "indexed": false,
          "internalType": "uint256",
          "name": "value",
          "type": "uint256"
        }
      ],
      "name": "TransferSingle",
      "type": "event"
    },
    {
      "anonymous": false,
      "inputs": [
        {
          "indexed": false,
          "internalType": "string",
          "name": "value",
          "type": "string"
        },
        {
          "indexed": true,
          "internalType": "uint256",
          "name": "id",
          "type": "uint256"
        }
      ],
      "name": "URI",
      "type": "event"
    },
    {
      "inputs": [
        {
          "internalType": "uint256",
          "name": "",
          "type": "uint256"
        }
      ],
      "name": "CautionId",
      "outputs": [
        {
          "internalType": "address",
          "name": "",
          "type": "address"
        }
      ],
      "stateMutability": "view",
      "type": "function"
    },
    {
      "inputs": [
        {
          "internalType": "uint256",
          "name": "",
          "type": "uint256"
        }
      ],
      "name": "Cds",
      "outputs": [
        {
          "internalType": "uint256",
          "name": "",
          "type": "uint256"
        }
      ],
      "stateMutability": "view",
      "type": "function"
    },
    {
      "inputs": [
        {
          "internalType": "uint256",
          "name": "",
          "type": "uint256"
        }
      ],
      "name": "CoinId",
      "outputs": [
        {
          "internalType": "uint256",
          "name": "id",
          "type": "uint256"
        },
        {
          "internalType": "string",
          "name": "description",
          "type": "string"
        },
        {
          "internalType": "string",
          "name": "namec",
          "type": "string"
        }
      ],
      "stateMutability": "view",
      "type": "function"
    },
    {
      "inputs": [
        {
          "internalType": "address",
          "name": "account",
          "type": "address"
        },
        {
          "internalType": "uint256",
          "name": "id",
          "type": "uint256"
        }
      ],
      "name": "balanceOf",
      "outputs": [
        {
          "internalType": "uint256",
          "name": "",
          "type": "uint256"
        }
      ],
      "stateMutability": "view",
      "type": "function"
    },
    {
      "inputs": [
        {
          "internalType": "address[]",
          "name": "accounts",
          "type": "address[]"
        },
        {
          "internalType": "uint256[]",
          "name": "ids",
          "type": "uint256[]"
        }
      ],
      "name": "balanceOfBatch",
      "outputs": [
        {
          "internalType": "uint256[]",
          "name": "",
          "type": "uint256[]"
        }
      ],
      "stateMutability": "view",
      "type": "function"
    },
    {
      "inputs": [],
      "name": "countAttrezzi",
      "outputs": [
        {
          "internalType": "uint256",
          "name": "",
          "type": "uint256"
        }
      ],
      "stateMutability": "view",
      "type": "function"
    },
    {
      "inputs": [
        {
          "internalType": "address",
          "name": "",
          "type": "address"
        }
      ],
      "name": "hasStaked",
      "outputs": [
        {
          "internalType": "bool",
          "name": "",
          "type": "bool"
        }
      ],
      "stateMutability": "view",
      "type": "function"
    },
    {
      "inputs": [
        {
          "internalType": "uint256",
          "name": "",
          "type": "uint256"
        }
      ],
      "name": "ids",
      "outputs": [
        {
          "internalType": "uint256",
          "name": "",
          "type": "uint256"
        }
      ],
      "stateMutability": "view",
      "type": "function"
    },
    {
      "inputs": [],
      "name": "imageCount",
      "outputs": [
        {
          "internalType": "uint256",
          "name": "",
          "type": "uint256"
        }
      ],
      "stateMutability": "view",
      "type": "function"
    },
    {
      "inputs": [
        {
          "internalType": "uint256",
          "name": "",
          "type": "uint256"
        }
      ],
      "name": "images",
      "outputs": [
        {
          "internalType": "uint256",
          "name": "id",
          "type": "uint256"
        },
        {
          "internalType": "string",
          "name": "hash",
          "type": "string"
        },
        {
          "internalType": "string",
          "name": "description",
          "type": "string"
        },
        {
          "internalType": "uint256",
          "name": "tokenId",
          "type": "uint256"
        },
        {
          "internalType": "address",
          "name": "author",
          "type": "address"
        }
      ],
      "stateMutability": "view",
      "type": "function"
    },
    {
      "inputs": [
        {
          "internalType": "address",
          "name": "account",
          "type": "address"
        },
        {
          "internalType": "address",
          "name": "operator",
          "type": "address"
        }
      ],
      "name": "isApprovedForAll",
      "outputs": [
        {
          "internalType": "bool",
          "name": "",
          "type": "bool"
        }
      ],
      "stateMutability": "view",
      "type": "function"
    },
    {
      "inputs": [
        {
          "internalType": "address",
          "name": "",
          "type": "address"
        }
      ],
      "name": "isStaking",
      "outputs": [
        {
          "internalType": "bool",
          "name": "",
          "type": "bool"
        }
      ],
      "stateMutability": "view",
      "type": "function"
    },
    {
      "inputs": [],
      "name": "name",
      "outputs": [
        {
          "internalType": "string",
          "name": "",
          "type": "string"
        }
      ],
      "stateMutability": "view",
      "type": "function"
    },
    {
      "inputs": [],
      "name": "owner",
      "outputs": [
        {
          "internalType": "address",
          "name": "",
          "type": "address"
        }
      ],
      "stateMutability": "view",
      "type": "function"
    },
    {
      "inputs": [
        {
          "internalType": "address",
          "name": "",
          "type": "address"
        }
      ],
      "name": "permissions",
      "outputs": [
        {
          "internalType": "bool",
          "name": "",
          "type": "bool"
        }
      ],
      "stateMutability": "view",
      "type": "function"
    },
    {
      "inputs": [
        {
          "internalType": "address",
          "name": "from",
          "type": "address"
        },
        {
          "internalType": "address",
          "name": "to",
          "type": "address"
        },
        {
          "internalType": "uint256[]",
          "name": "ids",
          "type": "uint256[]"
        },
        {
          "internalType": "uint256[]",
          "name": "amounts",
          "type": "uint256[]"
        },
        {
          "internalType": "bytes",
          "name": "data",
          "type": "bytes"
        }
      ],
      "name": "safeBatchTransferFrom",
      "outputs": [],
      "stateMutability": "nonpayable",
      "type": "function"
    },
    {
      "inputs": [
        {
          "internalType": "address",
          "name": "from",
          "type": "address"
        },
        {
          "internalType": "address",
          "name": "to",
          "type": "address"
        },
        {
          "internalType": "uint256",
          "name": "id",
          "type": "uint256"
        },
        {
          "internalType": "uint256",
          "name": "amount",
          "type": "uint256"
        },
        {
          "internalType": "bytes",
          "name": "data",
          "type": "bytes"
        }
      ],
      "name": "safeTransferFrom",
      "outputs": [],
      "stateMutability": "nonpayable",
      "type": "function"
    },
    {
      "inputs": [
        {
          "internalType": "address",
          "name": "operator",
          "type": "address"
        },
        {
          "internalType": "bool",
          "name": "approved",
          "type": "bool"
        }
      ],
      "name": "setApprovalForAll",
      "outputs": [],
      "stateMutability": "nonpayable",
      "type": "function"
    },
    {
      "inputs": [
        {
          "internalType": "uint256",
          "name": "",
          "type": "uint256"
        }
      ],
      "name": "stakers",
      "outputs": [
        {
          "internalType": "address",
          "name": "",
          "type": "address"
        }
      ],
      "stateMutability": "view",
      "type": "function"
    },
    {
      "inputs": [
        {
          "internalType": "address",
          "name": "",
          "type": "address"
        }
      ],
      "name": "stakingBalance",
      "outputs": [
        {
          "internalType": "uint256",
          "name": "",
          "type": "uint256"
        }
      ],
      "stateMutability": "view",
      "type": "function"
    },
    {
      "inputs": [
        {
          "internalType": "bytes4",
          "name": "interfaceId",
          "type": "bytes4"
        }
      ],
      "name": "supportsInterface",
      "outputs": [
        {
          "internalType": "bool",
          "name": "",
          "type": "bool"
        }
      ],
      "stateMutability": "view",
      "type": "function"
    },
    {
      "inputs": [],
      "name": "symbol",
      "outputs": [
        {
          "internalType": "string",
          "name": "",
          "type": "string"
        }
      ],
      "stateMutability": "view",
      "type": "function"
    },
    {
      "inputs": [
        {
          "internalType": "uint256",
          "name": "",
          "type": "uint256"
        }
      ],
      "name": "tokenId",
      "outputs": [
        {
          "internalType": "uint256",
          "name": "id",
          "type": "uint256"
        },
        {
          "components": [
            {
              "internalType": "uint256",
              "name": "id",
              "type": "uint256"
            },
            {
              "internalType": "string",
              "name": "hash",
              "type": "string"
            },
            {
              "internalType": "string",
              "name": "description",
              "type": "string"
            },
            {
              "internalType": "uint256",
              "name": "tokenId",
              "type": "uint256"
            },
            {
              "internalType": "address",
              "name": "author",
              "type": "address"
            }
          ],
          "internalType": "struct LoanItem.Image",
          "name": "phots",
          "type": "tuple"
        },
        {
          "internalType": "string",
          "name": "description",
          "type": "string"
        },
        {
          "internalType": "string",
          "name": "namet",
          "type": "string"
        },
        {
          "internalType": "uint256",
          "name": "pricel",
          "type": "uint256"
        },
        {
          "internalType": "uint256",
          "name": "caution",
          "type": "uint256"
        },
        {
          "internalType": "uint256",
          "name": "Cid",
          "type": "uint256"
        }
      ],
      "stateMutability": "view",
      "type": "function"
    },
    {
      "inputs": [
        {
          "internalType": "uint256",
          "name": "",
          "type": "uint256"
        }
      ],
      "name": "uri",
      "outputs": [
        {
          "internalType": "string",
          "name": "",
          "type": "string"
        }
      ],
      "stateMutability": "view",
      "type": "function"
    },
    {
      "inputs": [
        {
          "internalType": "uint256",
          "name": "value",
          "type": "uint256"
        },
        {
          "internalType": "string",
          "name": "Name",
          "type": "string"
        },
        {
          "internalType": "string",
          "name": "description",
          "type": "string"
        }
      ],
      "name": "addNewCoin",
      "outputs": [],
      "stateMutability": "nonpayable",
      "type": "function"
    },
    {
      "inputs": [
        {
          "internalType": "address",
          "name": "ute",
          "type": "address"
        },
        {
          "internalType": "bool",
          "name": "setting",
          "type": "bool"
        }
      ],
      "name": "setPermissions",
      "outputs": [],
      "stateMutability": "nonpayable",
      "type": "function"
    },
    {
      "inputs": [
        {
          "internalType": "uint256",
          "name": "price",
          "type": "uint256"
        },
        {
          "internalType": "uint256",
          "name": "caution",
          "type": "uint256"
        },
        {
          "internalType": "string",
          "name": "_imgHash",
          "type": "string"
        },
        {
          "internalType": "string",
          "name": "_description",
          "type": "string"
        },
        {
          "internalType": "string",
          "name": "namef",
          "type": "string"
        },
        {
          "internalType": "uint256",
          "name": "Cid",
          "type": "uint256"
        }
      ],
      "name": "addNewItem",
      "outputs": [],
      "stateMutability": "nonpayable",
      "type": "function"
    },
    {
      "inputs": [
        {
          "internalType": "address",
          "name": "_from",
          "type": "address"
        },
        {
          "internalType": "address",
          "name": "_to",
          "type": "address"
        },
        {
          "internalType": "uint256",
          "name": "_id",
          "type": "uint256"
        }
      ],
      "name": "TrasferTest",
      "outputs": [],
      "stateMutability": "nonpayable",
      "type": "function"
    },
    {
      "inputs": [
        {
          "internalType": "address",
          "name": "_to",
          "type": "address"
        },
        {
          "internalType": "uint256",
          "name": "coin",
          "type": "uint256"
        },
        {
          "internalType": "uint256",
          "name": "value",
          "type": "uint256"
        }
      ],
      "name": "GiveToken",
      "outputs": [],
      "stateMutability": "nonpayable",
      "type": "function"
    },
    {
      "inputs": [
        {
          "internalType": "uint256",
          "name": "_id",
          "type": "uint256"
        },
        {
          "internalType": "uint256",
          "name": "caution",
          "type": "uint256"
        }
      ],
      "name": "ReleseW",
      "outputs": [],
      "stateMutability": "nonpayable",
      "type": "function"
    }
  ],
  "bytecode": "0x60806040526040518060400160405280600881526020017f4c6f616e4974656d000000000000000000000000000000000000000000000000815250600390805190602001906200005192919062000215565b506040518060400160405280600281526020017f4c49000000000000000000000000000000000000000000000000000000000000815250600490805190602001906200009f92919062000215565b50348015620000ad57600080fd5b5060405162006152380380620061528339818101604052810190620000d3919062000374565b60405180602001604052806000815250620000f481620001f960201b60201c565b5081601360006101000a81548173ffffffffffffffffffffffffffffffffffffffff021916908373ffffffffffffffffffffffffffffffffffffffff1602179055506001600e6000601360009054906101000a900473ffffffffffffffffffffffffffffffffffffffff1673ffffffffffffffffffffffffffffffffffffffff1673ffffffffffffffffffffffffffffffffffffffff16815260200190815260200160002060006101000a81548160ff02191690831515021790555080600560006101000a81548173ffffffffffffffffffffffffffffffffffffffff021916908373ffffffffffffffffffffffffffffffffffffffff160217905550505062000420565b80600290805190602001906200021192919062000215565b5050565b8280546200022390620003ea565b90600052602060002090601f01602090048101928262000247576000855562000293565b82601f106200026257805160ff191683800117855562000293565b8280016001018555821562000293579182015b828111156200029257825182559160200191906001019062000275565b5b509050620002a29190620002a6565b5090565b5b80821115620002c1576000816000905550600101620002a7565b5090565b600080fd5b600073ffffffffffffffffffffffffffffffffffffffff82169050919050565b6000620002f782620002ca565b9050919050565b6200030981620002ea565b81146200031557600080fd5b50565b6000815190506200032981620002fe565b92915050565b60006200033c82620002ea565b9050919050565b6200034e816200032f565b81146200035a57600080fd5b50565b6000815190506200036e8162000343565b92915050565b600080604083850312156200038e576200038d620002c5565b5b60006200039e8582860162000318565b9250506020620003b1858286016200035d565b9150509250929050565b7f4e487b7100000000000000000000000000000000000000000000000000000000600052602260045260246000fd5b600060028204905060018216806200040357607f821691505b602082108114156200041a5762000419620003bb565b5b50919050565b615d2280620004306000396000f3fe608060405234801561001057600080fd5b50600436106101d95760003560e01c80637a8ad59411610104578063a1af645f116100a2578063e985e9c511610071578063e985e9c5146105d0578063f242432a14610600578063fac333ac1461061c578063fd5e6dd11461064c576101d9565b8063a1af645f14610536578063a22cb46514610566578063a963cff714610582578063c93c8f34146105a0576101d9565b80638da5cb5b116100de5780638da5cb5b146104c057806392053b63146104de57806395d89b41146104fc578063a166754b1461051a576101d9565b80637a8ad594146104265780637dcb0e5f14610456578063848564821461048c576101d9565b80633a712e831161017c5780634e1273f41161014b5780634e1273f41461038e5780636165234c146103be578063689ceaac146103da5780636f49712b146103f6576101d9565b80633a712e83146102f457806345bc78ab14610310578063499ea4b3146103405780634ac726c114610372576101d9565b8063054d4239116101b8578063054d42391461026e57806306fdde031461028a5780630e89341c146102a85780632eb2c2d6146102d8576101d9565b8062fdd58e146101de57806301e882081461020e57806301ffc9a71461023e575b600080fd5b6101f860048036038101906101f39190613a76565b61067c565b6040516102059190613ac5565b60405180910390f35b61022860048036038101906102239190613ae0565b610745565b6040516102359190613b28565b60405180910390f35b61025860048036038101906102539190613b9b565b610765565b6040516102659190613b28565b60405180910390f35b61028860048036038101906102839190613bc8565b610847565b005b610292610fea565b60405161029f9190613cb4565b60405180910390f35b6102c260048036038101906102bd9190613cd6565b611078565b6040516102cf9190613cb4565b60405180910390f35b6102f260048036038101906102ed9190613f00565b61110c565b005b61030e60048036038101906103099190614070565b6111ad565b005b61032a60048036038101906103259190613ae0565b6113bf565b6040516103379190613ac5565b60405180910390f35b61035a60048036038101906103559190613cd6565b6113d7565b604051610369939291906140fb565b60405180910390f35b61038c60048036038101906103879190614140565b611511565b005b6103a860048036038101906103a39190614243565b611970565b6040516103b59190614379565b60405180910390f35b6103d860048036038101906103d391906143c7565b611a89565b005b6103f460048036038101906103ef9190614407565b611bcf565b005b610410600480360381019061040b9190613ae0565b61238b565b60405161041d9190613b28565b60405180910390f35b610440600480360381019061043b9190613cd6565b6123ab565b60405161044d91906144f7565b60405180910390f35b610470600480360381019061046b9190613cd6565b6123de565b60405161048397969594939291906145e8565b60405180910390f35b6104a660048036038101906104a19190613cd6565b6126c8565b6040516104b795949392919061466c565b60405180910390f35b6104c861282e565b6040516104d591906144f7565b60405180910390f35b6104e6612854565b6040516104f39190613ac5565b60405180910390f35b61050461285a565b6040516105119190613cb4565b60405180910390f35b610534600480360381019061052f91906146cd565b6128e8565b005b610550600480360381019061054b9190613cd6565b6129fd565b60405161055d9190613ac5565b60405180910390f35b610580600480360381019061057b91906143c7565b612a15565b005b61058a612b96565b6040516105979190613ac5565b60405180910390f35b6105ba60048036038101906105b59190613ae0565b612b9c565b6040516105c79190613b28565b60405180910390f35b6105ea60048036038101906105e59190614720565b612bbc565b6040516105f79190613b28565b60405180910390f35b61061a60048036038101906106159190614760565b612c50565b005b61063660048036038101906106319190613cd6565b612cf1565b6040516106439190613ac5565b60405180910390f35b61066660048036038101906106619190613cd6565b612d09565b60405161067391906144f7565b60405180910390f35b60008073ffffffffffffffffffffffffffffffffffffffff168373ffffffffffffffffffffffffffffffffffffffff1614156106ed576040517f08c379a00000000000000000000000000000000000000000000000000000000081526004016106e490614869565b60405180910390fd5b60008083815260200190815260200160002060008473ffffffffffffffffffffffffffffffffffffffff1673ffffffffffffffffffffffffffffffffffffffff16815260200190815260200160002054905092915050565b600e6020528060005260406000206000915054906101000a900460ff1681565b60007fd9b67a26000000000000000000000000000000000000000000000000000000007bffffffffffffffffffffffffffffffffffffffffffffffffffffffff1916827bffffffffffffffffffffffffffffffffffffffffffffffffffffffff1916148061083057507f0e89341c000000000000000000000000000000000000000000000000000000007bffffffffffffffffffffffffffffffffffffffffffffffffffffffff1916827bffffffffffffffffffffffffffffffffffffffffffffffffffffffff1916145b80610840575061083f82612d48565b5b9050919050565b600073ffffffffffffffffffffffffffffffffffffffff168373ffffffffffffffffffffffffffffffffffffffff1614156108b7576040517f08c379a00000000000000000000000000000000000000000000000000000000081526004016108ae906148fb565b60405180910390fd5b600073ffffffffffffffffffffffffffffffffffffffff168273ffffffffffffffffffffffffffffffffffffffff161415610927576040517f08c379a000000000000000000000000000000000000000000000000000000000815260040161091e90614967565b60405180910390fd5b6000811161096a576040517f08c379a0000000000000000000000000000000000000000000000000000000008152600401610961906149d3565b60405180910390fd5b6040518060400160405280600781526020017f57616974696e670000000000000000000000000000000000000000000000000081525080519060200120600560009054906101000a900473ffffffffffffffffffffffffffffffffffffffff1673ffffffffffffffffffffffffffffffffffffffff166335b67731836040518263ffffffff1660e01b8152600401610a029190613ac5565b600060405180830381865afa158015610a1f573d6000803e3d6000fd5b505050506040513d6000823e3d601f19601f82011682018060405250810190610a489190614a63565b805190602001201415610a90576040517f08c379a0000000000000000000000000000000000000000000000000000000008152600401610a8790614b1e565b60405180910390fd5b601360009054906101000a900473ffffffffffffffffffffffffffffffffffffffff1673ffffffffffffffffffffffffffffffffffffffff168273ffffffffffffffffffffffffffffffffffffffff16148015610bcf57506040518060400160405280600481526020017f427573790000000000000000000000000000000000000000000000000000000081525080519060200120600560009054906101000a900473ffffffffffffffffffffffffffffffffffffffff1673ffffffffffffffffffffffffffffffffffffffff166335b67731836040518263ffffffff1660e01b8152600401610b809190613ac5565b600060405180830381865afa158015610b9d573d6000803e3d6000fd5b505050506040513d6000823e3d601f19601f82011682018060405250810190610bc69190614a63565b80519060200120145b15610d32576000600560009054906101000a900473ffffffffffffffffffffffffffffffffffffffff1673ffffffffffffffffffffffffffffffffffffffff16639ff3b46d836040518263ffffffff1660e01b8152600401610c319190614b8a565b6020604051808303816000875af1158015610c50573d6000803e3d6000fd5b505050506040513d601f19601f82011682018060405250810190610c749190614bcd565b90506001151581151514610cbd576040517f08c379a0000000000000000000000000000000000000000000000000000000008152600401610cb490614c46565b60405180910390fd5b610cda848484600160405180602001604052806000815250612c50565b83600c600084815260200190815260200160002060006101000a81548173ffffffffffffffffffffffffffffffffffffffff021916908373ffffffffffffffffffffffffffffffffffffffff16021790555050610fe5565b601360009054906101000a900473ffffffffffffffffffffffffffffffffffffffff1673ffffffffffffffffffffffffffffffffffffffff168373ffffffffffffffffffffffffffffffffffffffff161415610fe457610da882600b6000848152602001908152602001600020600a015461067c565b600b600083815260200190815260200160002060090154600b600084815260200190815260200160002060080154610de09190614c95565b1115610e21576040517f08c379a0000000000000000000000000000000000000000000000000000000008152600401610e1890614d37565b60405180910390fd5b610e8a8284600b6000858152602001908152602001600020600a0154600b600086815260200190815260200160002060090154600b600087815260200190815260200160002060080154610e759190614c95565b60405180602001604052806000815250612c50565b610ea7838383600160405180602001604052806000815250612c50565b6000600560009054906101000a900473ffffffffffffffffffffffffffffffffffffffff1673ffffffffffffffffffffffffffffffffffffffff16639ff3b46d836040518263ffffffff1660e01b8152600401610f049190614da3565b6020604051808303816000875af1158015610f23573d6000803e3d6000fd5b505050506040513d601f19601f82011682018060405250810190610f479190614bcd565b90506001151581151514610f90576040517f08c379a0000000000000000000000000000000000000000000000000000000008152600401610f8790614e1d565b60405180910390fd5b82600c600084815260200190815260200160002060006101000a81548173ffffffffffffffffffffffffffffffffffffffff021916908373ffffffffffffffffffffffffffffffffffffffff160217905550505b5b505050565b60038054610ff790614e6c565b80601f016020809104026020016040519081016040528092919081815260200182805461102390614e6c565b80156110705780601f1061104557610100808354040283529160200191611070565b820191906000526020600020905b81548152906001019060200180831161105357829003601f168201915b505050505081565b60606002805461108790614e6c565b80601f01602080910402602001604051908101604052809291908181526020018280546110b390614e6c565b80156111005780601f106110d557610100808354040283529160200191611100565b820191906000526020600020905b8154815290600101906020018083116110e357829003601f168201915b50505050509050919050565b611114612db2565b73ffffffffffffffffffffffffffffffffffffffff168573ffffffffffffffffffffffffffffffffffffffff16148061115a575061115985611154612db2565b612bbc565b5b611199576040517f08c379a000000000000000000000000000000000000000000000000000000000815260040161119090614f10565b60405180910390fd5b6111a68585858585612dba565b5050505050565b601360009054906101000a900473ffffffffffffffffffffffffffffffffffffffff1673ffffffffffffffffffffffffffffffffffffffff163373ffffffffffffffffffffffffffffffffffffffff161480611259575060011515600e60003373ffffffffffffffffffffffffffffffffffffffff1673ffffffffffffffffffffffffffffffffffffffff16815260200190815260200160002060009054906101000a900460ff161515145b611298576040517f08c379a000000000000000000000000000000000000000000000000000000000815260040161128f90614f7c565b60405180910390fd5b60008251116112a657600080fd5b600083116112b357600080fd5b601160008154809291906112c690614f9c565b91905055506112e83360115485604051806020016040528060008152506130ce565b601154601060006011548152602001908152602001600020819055506040518060600160405280601154815260200182815260200183815250600f6000601154815260200190815260200160002060008201518160000155602082015181600101908051906020019061135c92919061392b565b50604082015181600201908051906020019061137992919061392b565b509050507faf4b1085b3f4f980233bd54e1a354fed0504d6aa21ed37949c8b5aabae94653c60115482846040516113b2939291906140fb565b60405180910390a1505050565b60076020528060005260406000206000915090505481565b600f60205280600052604060002060009150905080600001549080600101805461140090614e6c565b80601f016020809104026020016040519081016040528092919081815260200182805461142c90614e6c565b80156114795780601f1061144e57610100808354040283529160200191611479565b820191906000526020600020905b81548152906001019060200180831161145c57829003601f168201915b50505050509080600201805461148e90614e6c565b80601f01602080910402602001604051908101604052809291908181526020018280546114ba90614e6c565b80156115075780601f106114dc57610100808354040283529160200191611507565b820191906000526020600020905b8154815290600101906020018083116114ea57829003601f168201915b5050505050905083565b601360009054906101000a900473ffffffffffffffffffffffffffffffffffffffff1673ffffffffffffffffffffffffffffffffffffffff163373ffffffffffffffffffffffffffffffffffffffff1614806115bd575060011515600e60003373ffffffffffffffffffffffffffffffffffffffff1673ffffffffffffffffffffffffffffffffffffffff16815260200190815260200160002060009054906101000a900460ff161515145b6115fc576040517f08c379a00000000000000000000000000000000000000000000000000000000081526004016115f390614f7c565b60405180910390fd5b6000821161163f576040517f08c379a00000000000000000000000000000000000000000000000000000000081526004016116369061500b565b60405180910390fd5b601154821115611684576040517f08c379a000000000000000000000000000000000000000000000000000000000815260040161167b90615077565b60405180910390fd5b6000600d600084815260200190815260200160002054116116da576040517f08c379a00000000000000000000000000000000000000000000000000000000081526004016116d1906150e3565b60405180910390fd5b6040518060400160405280600781526020017f57616974696e670000000000000000000000000000000000000000000000000081525080519060200120600560009054906101000a900473ffffffffffffffffffffffffffffffffffffffff1673ffffffffffffffffffffffffffffffffffffffff166335b67731846040518263ffffffff1660e01b81526004016117729190613ac5565b600060405180830381865afa15801561178f573d6000803e3d6000fd5b505050506040513d6000823e3d601f19601f820116820180604052508101906117b89190614a63565b80519060200120146117c957600080fd5b61182f33600c600085815260200190815260200160002060009054906101000a900473ffffffffffffffffffffffffffffffffffffffff166001600b60008781526020019081526020016000206009015460405180602001604052806000815250612c50565b6000600c600084815260200190815260200160002060006101000a81548173ffffffffffffffffffffffffffffffffffffffff021916908373ffffffffffffffffffffffffffffffffffffffff1602179055506000600560009054906101000a900473ffffffffffffffffffffffffffffffffffffffff1673ffffffffffffffffffffffffffffffffffffffff16639ff3b46d846040518263ffffffff1660e01b81526004016118df919061514f565b6020604051808303816000875af11580156118fe573d6000803e3d6000fd5b505050506040513d601f19601f820116820180604052508101906119229190614bcd565b9050600115158115151461196b576040517f08c379a0000000000000000000000000000000000000000000000000000000008152600401611962906151c9565b60405180910390fd5b505050565b606081518351146119b6576040517f08c379a00000000000000000000000000000000000000000000000000000000081526004016119ad9061525b565b60405180910390fd5b6000835167ffffffffffffffff8111156119d3576119d2613d08565b5b604051908082528060200260200182016040528015611a015781602001602082028036833780820191505090505b50905060005b8451811015611a7e57611a4e858281518110611a2657611a2561527b565b5b6020026020010151858381518110611a4157611a4061527b565b5b602002602001015161067c565b828281518110611a6157611a6061527b565b5b60200260200101818152505080611a7790614f9c565b9050611a07565b508091505092915050565b601360009054906101000a900473ffffffffffffffffffffffffffffffffffffffff1673ffffffffffffffffffffffffffffffffffffffff163373ffffffffffffffffffffffffffffffffffffffff161480611b35575060011515600e60003373ffffffffffffffffffffffffffffffffffffffff1673ffffffffffffffffffffffffffffffffffffffff16815260200190815260200160002060009054906101000a900460ff161515145b611b74576040517f08c379a0000000000000000000000000000000000000000000000000000000008152600401611b6b90614f7c565b60405180910390fd5b80600e60008473ffffffffffffffffffffffffffffffffffffffff1673ffffffffffffffffffffffffffffffffffffffff16815260200190815260200160002060006101000a81548160ff0219169083151502179055505050565b601360009054906101000a900473ffffffffffffffffffffffffffffffffffffffff1673ffffffffffffffffffffffffffffffffffffffff163373ffffffffffffffffffffffffffffffffffffffff161480611c7b575060011515600e60003373ffffffffffffffffffffffffffffffffffffffff1673ffffffffffffffffffffffffffffffffffffffff16815260200190815260200160002060009054906101000a900460ff161515145b611cba576040517f08c379a0000000000000000000000000000000000000000000000000000000008152600401611cb190614f7c565b60405180910390fd5b60008511611cc757600080fd5b6000825111611cd557600080fd5b60008611611ce257600080fd5b6000835111611cf057600080fd5b6000845111611cfe57600080fd5b600073ffffffffffffffffffffffffffffffffffffffff163373ffffffffffffffffffffffffffffffffffffffff161415611d3857600080fd5b6000600f60008381526020019081526020016000206002018054611d5b90614e6c565b905011611d9d576040517f08c379a0000000000000000000000000000000000000000000000000000000008152600401611d94906152f6565b60405180910390fd5b60126000815480929190611db090614f9c565b919050555060116000815480929190611dc890614f9c565b9190505550600560009054906101000a900473ffffffffffffffffffffffffffffffffffffffff1673ffffffffffffffffffffffffffffffffffffffff16639ff3b46d6011546040518263ffffffff1660e01b8152600401611e2a919061514f565b6020604051808303816000875af1158015611e49573d6000803e3d6000fd5b505050506040513d601f19601f82011682018060405250810190611e6d9190614bcd565b50601154600d6000601154815260200190815260200160002081905550611ebb33600d60006011548152602001908152602001600020546001604051806020016040528060008152506130ce565b6040518060a00160405280601254815260200185815260200184815260200160008152602001601360009054906101000a900473ffffffffffffffffffffffffffffffffffffffff1673ffffffffffffffffffffffffffffffffffffffff16815250600a60006012548152602001908152602001600020600082015181600001556020820151816001019080519060200190611f5892919061392b565b506040820151816002019080519060200190611f7592919061392b565b506060820151816003015560808201518160040160006101000a81548173ffffffffffffffffffffffffffffffffffffffff021916908373ffffffffffffffffffffffffffffffffffffffff1602179055509050506040518060e001604052806011548152602001600a600060125481526020019081526020016000206040518060a00160405290816000820154815260200160018201805461201790614e6c565b80601f016020809104026020016040519081016040528092919081815260200182805461204390614e6c565b80156120905780601f1061206557610100808354040283529160200191612090565b820191906000526020600020905b81548152906001019060200180831161207357829003601f168201915b505050505081526020016002820180546120a990614e6c565b80601f01602080910402602001604051908101604052809291908181526020018280546120d590614e6c565b80156121225780601f106120f757610100808354040283529160200191612122565b820191906000526020600020905b81548152906001019060200180831161210557829003601f168201915b50505050508152602001600382015481526020016004820160009054906101000a900473ffffffffffffffffffffffffffffffffffffffff1673ffffffffffffffffffffffffffffffffffffffff1673ffffffffffffffffffffffffffffffffffffffff1681525050815260200184815260200183815260200187815260200186815260200182815250600b60006011548152602001908152602001600020600082015181600001556020820151816001016000820151816000015560208201518160010190805190602001906121fa92919061392b565b50604082015181600201908051906020019061221792919061392b565b506060820151816003015560808201518160040160006101000a81548173ffffffffffffffffffffffffffffffffffffffff021916908373ffffffffffffffffffffffffffffffffffffffff1602179055505050604082015181600601908051906020019061228792919061392b565b5060608201518160070190805190602001906122a492919061392b565b506080820151816008015560a0820151816009015560c082015181600a01559050507fc1d8dfa99b3f84f95d3f0bc4a768addeb97b83b20aef7f9cb6729e126bafd2f960125485856000601360009054906101000a900473ffffffffffffffffffffffffffffffffffffffff1660405161232295949392919061535b565b60405180910390a17fb5c81648406183bffdea7566bac0ed978ae944671b4599c84fbe7b47f9f52429601154600a6000601254815260200190815260200160002085858a8a8760405161237b979695949392919061555a565b60405180910390a1505050505050565b60096020528060005260406000206000915054906101000a900460ff1681565b600c6020528060005260406000206000915054906101000a900473ffffffffffffffffffffffffffffffffffffffff1681565b600b602052806000526040600020600091509050806000015490806001016040518060a00160405290816000820154815260200160018201805461242190614e6c565b80601f016020809104026020016040519081016040528092919081815260200182805461244d90614e6c565b801561249a5780601f1061246f5761010080835404028352916020019161249a565b820191906000526020600020905b81548152906001019060200180831161247d57829003601f168201915b505050505081526020016002820180546124b390614e6c565b80601f01602080910402602001604051908101604052809291908181526020018280546124df90614e6c565b801561252c5780601f106125015761010080835404028352916020019161252c565b820191906000526020600020905b81548152906001019060200180831161250f57829003601f168201915b50505050508152602001600382015481526020016004820160009054906101000a900473ffffffffffffffffffffffffffffffffffffffff1673ffffffffffffffffffffffffffffffffffffffff1673ffffffffffffffffffffffffffffffffffffffff1681525050908060060180546125a590614e6c565b80601f01602080910402602001604051908101604052809291908181526020018280546125d190614e6c565b801561261e5780601f106125f35761010080835404028352916020019161261e565b820191906000526020600020905b81548152906001019060200180831161260157829003601f168201915b50505050509080600701805461263390614e6c565b80601f016020809104026020016040519081016040528092919081815260200182805461265f90614e6c565b80156126ac5780601f10612681576101008083540402835291602001916126ac565b820191906000526020600020905b81548152906001019060200180831161268f57829003601f168201915b50505050509080600801549080600901549080600a0154905087565b600a6020528060005260406000206000915090508060000154908060010180546126f190614e6c565b80601f016020809104026020016040519081016040528092919081815260200182805461271d90614e6c565b801561276a5780601f1061273f5761010080835404028352916020019161276a565b820191906000526020600020905b81548152906001019060200180831161274d57829003601f168201915b50505050509080600201805461277f90614e6c565b80601f01602080910402602001604051908101604052809291908181526020018280546127ab90614e6c565b80156127f85780601f106127cd576101008083540402835291602001916127f8565b820191906000526020600020905b8154815290600101906020018083116127db57829003601f168201915b5050505050908060030154908060040160009054906101000a900473ffffffffffffffffffffffffffffffffffffffff16905085565b601360009054906101000a900473ffffffffffffffffffffffffffffffffffffffff1681565b60125481565b6004805461286790614e6c565b80601f016020809104026020016040519081016040528092919081815260200182805461289390614e6c565b80156128e05780601f106128b5576101008083540402835291602001916128e0565b820191906000526020600020905b8154815290600101906020018083116128c357829003601f168201915b505050505081565b601360009054906101000a900473ffffffffffffffffffffffffffffffffffffffff1673ffffffffffffffffffffffffffffffffffffffff163373ffffffffffffffffffffffffffffffffffffffff161480612994575060011515600e60003373ffffffffffffffffffffffffffffffffffffffff1673ffffffffffffffffffffffffffffffffffffffff16815260200190815260200160002060009054906101000a900460ff161515145b6129d3576040517f08c379a00000000000000000000000000000000000000000000000000000000081526004016129ca90614f7c565b60405180910390fd5b6129f833848468056bc75e2d6310000060405180602001604052806000815250612c50565b505050565b60106020528060005260406000206000915090505481565b8173ffffffffffffffffffffffffffffffffffffffff16612a34612db2565b73ffffffffffffffffffffffffffffffffffffffff161415612a8b576040517f08c379a0000000000000000000000000000000000000000000000000000000008152600401612a8290615650565b60405180910390fd5b8060016000612a98612db2565b73ffffffffffffffffffffffffffffffffffffffff1673ffffffffffffffffffffffffffffffffffffffff16815260200190815260200160002060008473ffffffffffffffffffffffffffffffffffffffff1673ffffffffffffffffffffffffffffffffffffffff16815260200190815260200160002060006101000a81548160ff0219169083151502179055508173ffffffffffffffffffffffffffffffffffffffff16612b45612db2565b73ffffffffffffffffffffffffffffffffffffffff167f17307eab39ab6107e8899845ad3d59bd9653f200f220920489ca2b5937696c3183604051612b8a9190613b28565b60405180910390a35050565b60115481565b60086020528060005260406000206000915054906101000a900460ff1681565b6000600160008473ffffffffffffffffffffffffffffffffffffffff1673ffffffffffffffffffffffffffffffffffffffff16815260200190815260200160002060008373ffffffffffffffffffffffffffffffffffffffff1673ffffffffffffffffffffffffffffffffffffffff16815260200190815260200160002060009054906101000a900460ff16905092915050565b612c58612db2565b73ffffffffffffffffffffffffffffffffffffffff168573ffffffffffffffffffffffffffffffffffffffff161480612c9e5750612c9d85612c98612db2565b612bbc565b5b612cdd576040517f08c379a0000000000000000000000000000000000000000000000000000000008152600401612cd4906156e2565b60405180910390fd5b612cea8585858585613264565b5050505050565b600d6020528060005260406000206000915090505481565b60068181548110612d1957600080fd5b906000526020600020016000915054906101000a900473ffffffffffffffffffffffffffffffffffffffff1681565b60007f01ffc9a7000000000000000000000000000000000000000000000000000000007bffffffffffffffffffffffffffffffffffffffffffffffffffffffff1916827bffffffffffffffffffffffffffffffffffffffffffffffffffffffff1916149050919050565b600033905090565b8151835114612dfe576040517f08c379a0000000000000000000000000000000000000000000000000000000008152600401612df590615774565b60405180910390fd5b600073ffffffffffffffffffffffffffffffffffffffff168473ffffffffffffffffffffffffffffffffffffffff161415612e6e576040517f08c379a0000000000000000000000000000000000000000000000000000000008152600401612e6590615806565b60405180910390fd5b6000612e78612db2565b9050612e888187878787876134e6565b60005b8451811015613039576000858281518110612ea957612ea861527b565b5b602002602001015190506000858381518110612ec857612ec761527b565b5b60200260200101519050600080600084815260200190815260200160002060008b73ffffffffffffffffffffffffffffffffffffffff1673ffffffffffffffffffffffffffffffffffffffff16815260200190815260200160002054905081811015612f69576040517f08c379a0000000000000000000000000000000000000000000000000000000008152600401612f6090615898565b60405180910390fd5b81810360008085815260200190815260200160002060008c73ffffffffffffffffffffffffffffffffffffffff1673ffffffffffffffffffffffffffffffffffffffff168152602001908152602001600020819055508160008085815260200190815260200160002060008b73ffffffffffffffffffffffffffffffffffffffff1673ffffffffffffffffffffffffffffffffffffffff168152602001908152602001600020600082825461301e9190614c95565b925050819055505050508061303290614f9c565b9050612e8b565b508473ffffffffffffffffffffffffffffffffffffffff168673ffffffffffffffffffffffffffffffffffffffff168273ffffffffffffffffffffffffffffffffffffffff167f4a39dc06d4c0dbc64b70af90fd698a233a518aa5d07e595d983b8c0526c8f7fb87876040516130b09291906158b8565b60405180910390a46130c68187878787876134ee565b505050505050565b600073ffffffffffffffffffffffffffffffffffffffff168473ffffffffffffffffffffffffffffffffffffffff16141561313e576040517f08c379a000000000000000000000000000000000000000000000000000000000815260040161313590615961565b60405180910390fd5b6000613148612db2565b90506131698160008761315a886136c6565b613163886136c6565b876134e6565b8260008086815260200190815260200160002060008773ffffffffffffffffffffffffffffffffffffffff1673ffffffffffffffffffffffffffffffffffffffff16815260200190815260200160002060008282546131c89190614c95565b925050819055508473ffffffffffffffffffffffffffffffffffffffff16600073ffffffffffffffffffffffffffffffffffffffff168273ffffffffffffffffffffffffffffffffffffffff167fc3d58168c5ae7397731d063d5bbf3d657854427343f4c083240f7aacaa2d0f628787604051613246929190615981565b60405180910390a461325d81600087878787613740565b5050505050565b600073ffffffffffffffffffffffffffffffffffffffff168473ffffffffffffffffffffffffffffffffffffffff1614156132d4576040517f08c379a00000000000000000000000000000000000000000000000000000000081526004016132cb90615806565b60405180910390fd5b60006132de612db2565b90506132fe8187876132ef886136c6565b6132f8886136c6565b876134e6565b600080600086815260200190815260200160002060008873ffffffffffffffffffffffffffffffffffffffff1673ffffffffffffffffffffffffffffffffffffffff16815260200190815260200160002054905083811015613395576040517f08c379a000000000000000000000000000000000000000000000000000000000815260040161338c90615898565b60405180910390fd5b83810360008087815260200190815260200160002060008973ffffffffffffffffffffffffffffffffffffffff1673ffffffffffffffffffffffffffffffffffffffff168152602001908152602001600020819055508360008087815260200190815260200160002060008873ffffffffffffffffffffffffffffffffffffffff1673ffffffffffffffffffffffffffffffffffffffff168152602001908152602001600020600082825461344a9190614c95565b925050819055508573ffffffffffffffffffffffffffffffffffffffff168773ffffffffffffffffffffffffffffffffffffffff168373ffffffffffffffffffffffffffffffffffffffff167fc3d58168c5ae7397731d063d5bbf3d657854427343f4c083240f7aacaa2d0f6288886040516134c7929190615981565b60405180910390a46134dd828888888888613740565b50505050505050565b505050505050565b61350d8473ffffffffffffffffffffffffffffffffffffffff16613918565b156136be578373ffffffffffffffffffffffffffffffffffffffff1663bc197c8187878686866040518663ffffffff1660e01b81526004016135539594939291906159ff565b6020604051808303816000875af192505050801561358f57506040513d601f19601f8201168201806040525081019061358c9190615a7c565b60015b6136355761359b615ab6565b806308c379a014156135f857506135b0615ad8565b806135bb57506135fa565b806040517f08c379a00000000000000000000000000000000000000000000000000000000081526004016135ef9190613cb4565b60405180910390fd5b505b6040517f08c379a000000000000000000000000000000000000000000000000000000000815260040161362c90615be0565b60405180910390fd5b63bc197c8160e01b7bffffffffffffffffffffffffffffffffffffffffffffffffffffffff1916817bffffffffffffffffffffffffffffffffffffffffffffffffffffffff1916146136bc576040517f08c379a00000000000000000000000000000000000000000000000000000000081526004016136b390615c72565b60405180910390fd5b505b505050505050565b60606000600167ffffffffffffffff8111156136e5576136e4613d08565b5b6040519080825280602002602001820160405280156137135781602001602082028036833780820191505090505b509050828160008151811061372b5761372a61527b565b5b60200260200101818152505080915050919050565b61375f8473ffffffffffffffffffffffffffffffffffffffff16613918565b15613910578373ffffffffffffffffffffffffffffffffffffffff1663f23a6e6187878686866040518663ffffffff1660e01b81526004016137a5959493929190615c92565b6020604051808303816000875af19250505080156137e157506040513d601f19601f820116820180604052508101906137de9190615a7c565b60015b613887576137ed615ab6565b806308c379a0141561384a5750613802615ad8565b8061380d575061384c565b806040517f08c379a00000000000000000000000000000000000000000000000000000000081526004016138419190613cb4565b60405180910390fd5b505b6040517f08c379a000000000000000000000000000000000000000000000000000000000815260040161387e90615be0565b60405180910390fd5b63f23a6e6160e01b7bffffffffffffffffffffffffffffffffffffffffffffffffffffffff1916817bffffffffffffffffffffffffffffffffffffffffffffffffffffffff19161461390e576040517f08c379a000000000000000000000000000000000000000000000000000000000815260040161390590615c72565b60405180910390fd5b505b505050505050565b600080823b905060008111915050919050565b82805461393790614e6c565b90600052602060002090601f01602090048101928261395957600085556139a0565b82601f1061397257805160ff19168380011785556139a0565b828001600101855582156139a0579182015b8281111561399f578251825591602001919060010190613984565b5b5090506139ad91906139b1565b5090565b5b808211156139ca5760008160009055506001016139b2565b5090565b6000604051905090565b600080fd5b600080fd5b600073ffffffffffffffffffffffffffffffffffffffff82169050919050565b6000613a0d826139e2565b9050919050565b613a1d81613a02565b8114613a2857600080fd5b50565b600081359050613a3a81613a14565b92915050565b6000819050919050565b613a5381613a40565b8114613a5e57600080fd5b50565b600081359050613a7081613a4a565b92915050565b60008060408385031215613a8d57613a8c6139d8565b5b6000613a9b85828601613a2b565b9250506020613aac85828601613a61565b9150509250929050565b613abf81613a40565b82525050565b6000602082019050613ada6000830184613ab6565b92915050565b600060208284031215613af657613af56139d8565b5b6000613b0484828501613a2b565b91505092915050565b60008115159050919050565b613b2281613b0d565b82525050565b6000602082019050613b3d6000830184613b19565b92915050565b60007fffffffff0000000000000000000000000000000000000000000000000000000082169050919050565b613b7881613b43565b8114613b8357600080fd5b50565b600081359050613b9581613b6f565b92915050565b600060208284031215613bb157613bb06139d8565b5b6000613bbf84828501613b86565b91505092915050565b600080600060608486031215613be157613be06139d8565b5b6000613bef86828701613a2b565b9350506020613c0086828701613a2b565b9250506040613c1186828701613a61565b9150509250925092565b600081519050919050565b600082825260208201905092915050565b60005b83811015613c55578082015181840152602081019050613c3a565b83811115613c64576000848401525b50505050565b6000601f19601f8301169050919050565b6000613c8682613c1b565b613c908185613c26565b9350613ca0818560208601613c37565b613ca981613c6a565b840191505092915050565b60006020820190508181036000830152613cce8184613c7b565b905092915050565b600060208284031215613cec57613ceb6139d8565b5b6000613cfa84828501613a61565b91505092915050565b600080fd5b7f4e487b7100000000000000000000000000000000000000000000000000000000600052604160045260246000fd5b613d4082613c6a565b810181811067ffffffffffffffff82111715613d5f57613d5e613d08565b5b80604052505050565b6000613d726139ce565b9050613d7e8282613d37565b919050565b600067ffffffffffffffff821115613d9e57613d9d613d08565b5b602082029050602081019050919050565b600080fd5b6000613dc7613dc284613d83565b613d68565b90508083825260208201905060208402830185811115613dea57613de9613daf565b5b835b81811015613e135780613dff8882613a61565b845260208401935050602081019050613dec565b5050509392505050565b600082601f830112613e3257613e31613d03565b5b8135613e42848260208601613db4565b91505092915050565b600080fd5b600067ffffffffffffffff821115613e6b57613e6a613d08565b5b613e7482613c6a565b9050602081019050919050565b82818337600083830152505050565b6000613ea3613e9e84613e50565b613d68565b905082815260208101848484011115613ebf57613ebe613e4b565b5b613eca848285613e81565b509392505050565b600082601f830112613ee757613ee6613d03565b5b8135613ef7848260208601613e90565b91505092915050565b600080600080600060a08688031215613f1c57613f1b6139d8565b5b6000613f2a88828901613a2b565b9550506020613f3b88828901613a2b565b945050604086013567ffffffffffffffff811115613f5c57613f5b6139dd565b5b613f6888828901613e1d565b935050606086013567ffffffffffffffff811115613f8957613f886139dd565b5b613f9588828901613e1d565b925050608086013567ffffffffffffffff811115613fb657613fb56139dd565b5b613fc288828901613ed2565b9150509295509295909350565b600067ffffffffffffffff821115613fea57613fe9613d08565b5b613ff382613c6a565b9050602081019050919050565b600061401361400e84613fcf565b613d68565b90508281526020810184848401111561402f5761402e613e4b565b5b61403a848285613e81565b509392505050565b600082601f83011261405757614056613d03565b5b8135614067848260208601614000565b91505092915050565b600080600060608486031215614089576140886139d8565b5b600061409786828701613a61565b935050602084013567ffffffffffffffff8111156140b8576140b76139dd565b5b6140c486828701614042565b925050604084013567ffffffffffffffff8111156140e5576140e46139dd565b5b6140f186828701614042565b9150509250925092565b60006060820190506141106000830186613ab6565b81810360208301526141228185613c7b565b905081810360408301526141368184613c7b565b9050949350505050565b60008060408385031215614157576141566139d8565b5b600061416585828601613a61565b925050602061417685828601613a61565b9150509250929050565b600067ffffffffffffffff82111561419b5761419a613d08565b5b602082029050602081019050919050565b60006141bf6141ba84614180565b613d68565b905080838252602082019050602084028301858111156141e2576141e1613daf565b5b835b8181101561420b57806141f78882613a2b565b8452602084019350506020810190506141e4565b5050509392505050565b600082601f83011261422a57614229613d03565b5b813561423a8482602086016141ac565b91505092915050565b6000806040838503121561425a576142596139d8565b5b600083013567ffffffffffffffff811115614278576142776139dd565b5b61428485828601614215565b925050602083013567ffffffffffffffff8111156142a5576142a46139dd565b5b6142b185828601613e1d565b9150509250929050565b600081519050919050565b600082825260208201905092915050565b6000819050602082019050919050565b6142f081613a40565b82525050565b600061430283836142e7565b60208301905092915050565b6000602082019050919050565b6000614326826142bb565b61433081856142c6565b935061433b836142d7565b8060005b8381101561436c57815161435388826142f6565b975061435e8361430e565b92505060018101905061433f565b5085935050505092915050565b60006020820190508181036000830152614393818461431b565b905092915050565b6143a481613b0d565b81146143af57600080fd5b50565b6000813590506143c18161439b565b92915050565b600080604083850312156143de576143dd6139d8565b5b60006143ec85828601613a2b565b92505060206143fd858286016143b2565b9150509250929050565b60008060008060008060c08789031215614424576144236139d8565b5b600061443289828a01613a61565b965050602061444389828a01613a61565b955050604087013567ffffffffffffffff811115614464576144636139dd565b5b61447089828a01614042565b945050606087013567ffffffffffffffff811115614491576144906139dd565b5b61449d89828a01614042565b935050608087013567ffffffffffffffff8111156144be576144bd6139dd565b5b6144ca89828a01614042565b92505060a06144db89828a01613a61565b9150509295509295509295565b6144f181613a02565b82525050565b600060208201905061450c60008301846144e8565b92915050565b600082825260208201905092915050565b600061452e82613c1b565b6145388185614512565b9350614548818560208601613c37565b61455181613c6a565b840191505092915050565b61456581613a02565b82525050565b600060a08301600083015161458360008601826142e7565b506020830151848203602086015261459b8282614523565b915050604083015184820360408601526145b58282614523565b91505060608301516145ca60608601826142e7565b5060808301516145dd608086018261455c565b508091505092915050565b600060e0820190506145fd600083018a613ab6565b818103602083015261460f818961456b565b905081810360408301526146238188613c7b565b905081810360608301526146378187613c7b565b90506146466080830186613ab6565b61465360a0830185613ab6565b61466060c0830184613ab6565b98975050505050505050565b600060a0820190506146816000830188613ab6565b81810360208301526146938187613c7b565b905081810360408301526146a78186613c7b565b90506146b66060830185613ab6565b6146c360808301846144e8565b9695505050505050565b6000806000606084860312156146e6576146e56139d8565b5b60006146f486828701613a2b565b935050602061470586828701613a61565b925050604061471686828701613a61565b9150509250925092565b60008060408385031215614737576147366139d8565b5b600061474585828601613a2b565b925050602061475685828601613a2b565b9150509250929050565b600080600080600060a0868803121561477c5761477b6139d8565b5b600061478a88828901613a2b565b955050602061479b88828901613a2b565b94505060406147ac88828901613a61565b93505060606147bd88828901613a61565b925050608086013567ffffffffffffffff8111156147de576147dd6139dd565b5b6147ea88828901613ed2565b9150509295509295909350565b7f455243313135353a2062616c616e636520717565727920666f7220746865207a60008201527f65726f2061646472657373000000000000000000000000000000000000000000602082015250565b6000614853602b83613c26565b915061485e826147f7565b604082019050919050565b6000602082019050818103600083015261488281614846565b9050919050565b7f4572726f7220747261736665722061646472657373205f66726f6d206973203060008201527f7830000000000000000000000000000000000000000000000000000000000000602082015250565b60006148e5602283613c26565b91506148f082614889565b604082019050919050565b60006020820190508181036000830152614914816148d8565b9050919050565b7f4572726f7220747261736665722061646472657373205f746f20697320307830600082015250565b6000614951602083613c26565b915061495c8261491b565b602082019050919050565b6000602082019050818103600083015261498081614944565b9050919050565b7f4572726f72207472617366657220746f6b656e20696420697320300000000000600082015250565b60006149bd601b83613c26565b91506149c882614987565b602082019050919050565b600060208201905081810360008301526149ec816149b0565b9050919050565b6000614a06614a0184613fcf565b613d68565b905082815260208101848484011115614a2257614a21613e4b565b5b614a2d848285613c37565b509392505050565b600082601f830112614a4a57614a49613d03565b5b8151614a5a8482602086016149f3565b91505092915050565b600060208284031215614a7957614a786139d8565b5b600082015167ffffffffffffffff811115614a9757614a966139dd565b5b614aa384828501614a35565b91505092915050565b7f4572726f7220746f6b656e20417661696c61626c652069732077616974696e6760008201527f2000000000000000000000000000000000000000000000000000000000000000602082015250565b6000614b08602183613c26565b9150614b1382614aac565b604082019050919050565b60006020820190508181036000830152614b3781614afb565b9050919050565b7f57616974696e6700000000000000000000000000000000000000000000000000600082015250565b6000614b74600783613c26565b9150614b7f82614b3e565b602082019050919050565b6000604082019050614b9f6000830184613ab6565b8181036020830152614bb081614b67565b905092915050565b600081519050614bc78161439b565b92915050565b600060208284031215614be357614be26139d8565b5b6000614bf184828501614bb8565b91505092915050565b7f4e6f6e20646973706f6e6962696c653100000000000000000000000000000000600082015250565b6000614c30601083613c26565b9150614c3b82614bfa565b602082019050919050565b60006020820190508181036000830152614c5f81614c23565b9050919050565b7f4e487b7100000000000000000000000000000000000000000000000000000000600052601160045260246000fd5b6000614ca082613a40565b9150614cab83613a40565b9250827fffffffffffffffffffffffffffffffffffffffffffffffffffffffffffffffff03821115614ce057614cdf614c66565b5b828201905092915050565b7f62696c616e63696f206e6f6e20737566666963656e7465000000000000000000600082015250565b6000614d21601783613c26565b9150614d2c82614ceb565b602082019050919050565b60006020820190508181036000830152614d5081614d14565b9050919050565b7f4275737900000000000000000000000000000000000000000000000000000000600082015250565b6000614d8d600483613c26565b9150614d9882614d57565b602082019050919050565b6000604082019050614db86000830184613ab6565b8181036020830152614dc981614d80565b905092915050565b7f4e6f6e20646973706f6e6962696c653200000000000000000000000000000000600082015250565b6000614e07601083613c26565b9150614e1282614dd1565b602082019050919050565b60006020820190508181036000830152614e3681614dfa565b9050919050565b7f4e487b7100000000000000000000000000000000000000000000000000000000600052602260045260246000fd5b60006002820490506001821680614e8457607f821691505b60208210811415614e9857614e97614e3d565b5b50919050565b7f455243313135353a207472616e736665722063616c6c6572206973206e6f742060008201527f6f776e6572206e6f7220617070726f7665640000000000000000000000000000602082015250565b6000614efa603283613c26565b9150614f0582614e9e565b604082019050919050565b60006020820190508181036000830152614f2981614eed565b9050919050565b7f536f6c6f20696c2070726f70726965746172696f000000000000000000000000600082015250565b6000614f66601483613c26565b9150614f7182614f30565b602082019050919050565b60006020820190508181036000830152614f9581614f59565b9050919050565b6000614fa782613a40565b91507fffffffffffffffffffffffffffffffffffffffffffffffffffffffffffffffff821415614fda57614fd9614c66565b5b600182019050919050565b50565b6000614ff5600083613c26565b915061500082614fe5565b600082019050919050565b6000602082019050818103600083015261502481614fe8565b9050919050565b7f6974656d206e6f74206578697374730000000000000000000000000000000000600082015250565b6000615061600f83613c26565b915061506c8261502b565b602082019050919050565b6000602082019050818103600083015261509081615054565b9050919050565b7f546f6b656e206e6f742065786973747300000000000000000000000000000000600082015250565b60006150cd601083613c26565b91506150d882615097565b602082019050919050565b600060208201905081810360008301526150fc816150c0565b9050919050565b7f417661696c61626c650000000000000000000000000000000000000000000000600082015250565b6000615139600983613c26565b915061514482615103565b602082019050919050565b60006040820190506151646000830184613ab6565b81810360208301526151758161512c565b905092915050565b7f4e6f6e20646973706f6e6962696c653300000000000000000000000000000000600082015250565b60006151b3601083613c26565b91506151be8261517d565b602082019050919050565b600060208201905081810360008301526151e2816151a6565b9050919050565b7f455243313135353a206163636f756e747320616e6420696473206c656e67746860008201527f206d69736d617463680000000000000000000000000000000000000000000000602082015250565b6000615245602983613c26565b9150615250826151e9565b604082019050919050565b6000602082019050818103600083015261527481615238565b9050919050565b7f4e487b7100000000000000000000000000000000000000000000000000000000600052603260045260246000fd5b7f436f696e204e6f74206578697374000000000000000000000000000000000000600082015250565b60006152e0600e83613c26565b91506152eb826152aa565b602082019050919050565b6000602082019050818103600083015261530f816152d3565b9050919050565b6000819050919050565b6000819050919050565b600061534561534061533b84615316565b615320565b613a40565b9050919050565b6153558161532a565b82525050565b600060a0820190506153706000830188613ab6565b81810360208301526153828187613c7b565b905081810360408301526153968186613c7b565b90506153a5606083018561534c565b6153b260808301846144e8565b9695505050505050565b60008160001c9050919050565b6000819050919050565b60006153e66153e1836153bc565b6153c9565b9050919050565b60008190508160005260206000209050919050565b6000815461540f81614e6c565b6154198186614512565b94506001821660008114615434576001811461544657615479565b60ff1983168652602086019350615479565b61544f856153ed565b60005b8381101561547157815481890152600182019150602081019050615452565b808801955050505b50505092915050565b600073ffffffffffffffffffffffffffffffffffffffff82169050919050565b60006154b56154b0836153bc565b615482565b9050919050565b600060a0830160008084015490506154d3816153d3565b6154e060008701826142e7565b506001840185830360208701526154f78382615402565b9250506002840185830360408701526155108382615402565b92505060038401549050615523816153d3565b61553060608701826142e7565b5060048401549050615541816154a2565b61554e608087018261455c565b50819250505092915050565b600060e08201905061556f600083018a613ab6565b818103602083015261558181896154bc565b905081810360408301526155958188613c7b565b905081810360608301526155a98187613c7b565b90506155b86080830186613ab6565b6155c560a0830185613ab6565b6155d260c0830184613ab6565b98975050505050505050565b7f455243313135353a2073657474696e6720617070726f76616c2073746174757360008201527f20666f722073656c660000000000000000000000000000000000000000000000602082015250565b600061563a602983613c26565b9150615645826155de565b604082019050919050565b600060208201905081810360008301526156698161562d565b9050919050565b7f455243313135353a2063616c6c6572206973206e6f74206f776e6572206e6f7260008201527f20617070726f7665640000000000000000000000000000000000000000000000602082015250565b60006156cc602983613c26565b91506156d782615670565b604082019050919050565b600060208201905081810360008301526156fb816156bf565b9050919050565b7f455243313135353a2069647320616e6420616d6f756e7473206c656e6774682060008201527f6d69736d61746368000000000000000000000000000000000000000000000000602082015250565b600061575e602883613c26565b915061576982615702565b604082019050919050565b6000602082019050818103600083015261578d81615751565b9050919050565b7f455243313135353a207472616e7366657220746f20746865207a65726f20616460008201527f6472657373000000000000000000000000000000000000000000000000000000602082015250565b60006157f0602583613c26565b91506157fb82615794565b604082019050919050565b6000602082019050818103600083015261581f816157e3565b9050919050565b7f455243313135353a20696e73756666696369656e742062616c616e636520666f60008201527f72207472616e7366657200000000000000000000000000000000000000000000602082015250565b6000615882602a83613c26565b915061588d82615826565b604082019050919050565b600060208201905081810360008301526158b181615875565b9050919050565b600060408201905081810360008301526158d2818561431b565b905081810360208301526158e6818461431b565b90509392505050565b7f455243313135353a206d696e7420746f20746865207a65726f2061646472657360008201527f7300000000000000000000000000000000000000000000000000000000000000602082015250565b600061594b602183613c26565b9150615956826158ef565b604082019050919050565b6000602082019050818103600083015261597a8161593e565b9050919050565b60006040820190506159966000830185613ab6565b6159a36020830184613ab6565b9392505050565b600081519050919050565b600082825260208201905092915050565b60006159d1826159aa565b6159db81856159b5565b93506159eb818560208601613c37565b6159f481613c6a565b840191505092915050565b600060a082019050615a1460008301886144e8565b615a2160208301876144e8565b8181036040830152615a33818661431b565b90508181036060830152615a47818561431b565b90508181036080830152615a5b81846159c6565b90509695505050505050565b600081519050615a7681613b6f565b92915050565b600060208284031215615a9257615a916139d8565b5b6000615aa084828501615a67565b91505092915050565b60008160e01c9050919050565b600060033d1115615ad55760046000803e615ad2600051615aa9565b90505b90565b600060443d1015615ae857615b6b565b615af06139ce565b60043d036004823e80513d602482011167ffffffffffffffff82111715615b18575050615b6b565b808201805167ffffffffffffffff811115615b365750505050615b6b565b80602083010160043d038501811115615b53575050505050615b6b565b615b6282602001850186613d37565b82955050505050505b90565b7f455243313135353a207472616e7366657220746f206e6f6e204552433131353560008201527f526563656976657220696d706c656d656e746572000000000000000000000000602082015250565b6000615bca603483613c26565b9150615bd582615b6e565b604082019050919050565b60006020820190508181036000830152615bf981615bbd565b9050919050565b7f455243313135353a204552433131353552656365697665722072656a6563746560008201527f6420746f6b656e73000000000000000000000000000000000000000000000000602082015250565b6000615c5c602883613c26565b9150615c6782615c00565b604082019050919050565b60006020820190508181036000830152615c8b81615c4f565b9050919050565b600060a082019050615ca760008301886144e8565b615cb460208301876144e8565b615cc16040830186613ab6565b615cce6060830185613ab6565b8181036080830152615ce081846159c6565b9050969550505050505056fea264697066735822122038e6af6d72d699f1cfd819358b6f05660fb98ce70d83bc3aa29f51205006f2a064736f6c634300080a0033",
  "immutableReferences": {},
  "source": "// contracts/LoanItem.sol\r\n// SPDX-License-Identifier: MIT\r\npragma solidity ^0.8.0;\r\n\r\nimport \"@openzeppelin/contracts/token/ERC1155/ERC1155.sol\";\r\nimport\"./LItemUtils.sol\";\r\nimport\"./LitemCalendar.sol\";\r\ncontract LoanItem is ERC1155{\r\n    \r\n    string public name = \"LoanItem\";\r\n    string  public symbol = \"LI\";\r\n    Calendar Calendario;\r\n    \r\n    address[] public stakers;\r\n    mapping(address => uint) public stakingBalance;\r\n    mapping(address => bool) public hasStaked;\r\n    mapping(address => bool) public isStaking;\r\n    \r\n    // mapping(uint256 => string) public Available;\r\n     mapping(uint => Image)public images;\r\n     mapping(uint => TokenNFT)public tokenId;\r\n     mapping(uint => address)public CautionId;\r\n     mapping(uint256 => uint256) public ids;\r\n\r\n     mapping(address => bool) public permissions;\r\n\r\n     mapping(uint256 => CoinFT) public CoinId;\r\n     mapping(uint256 => uint256) public Cds;\r\n     //mapping(uint256=>mapping(uint256=>address)) public Preorderstart;\r\n\r\n\r\n    struct Image {\r\n      uint id;\r\n      string hash;\r\n      string description;\r\n      uint tokenId;\r\n      address author;\r\n    }\r\n\r\n    event ImageCreated(\r\n      uint id,\r\n      string hash,\r\n      string description,\r\n      uint tokenId,\r\n      address  author\r\n      );\r\n\r\n     struct TokenNFT {\r\n      uint id;\r\n      Image  phots;\r\n      string description;\r\n      string namet;\r\n      uint256 pricel;\r\n      uint256 caution;\r\n      uint256 Cid;\r\n      \r\n    }\r\n    event TokenNFTCreated(\r\n      uint id,\r\n      Image  phots,\r\n      string description,\r\n      string namet,\r\n      uint256 pricel,\r\n      uint256 caution,\r\n      uint256 Cid\r\n      );\r\n\r\n     struct CoinFT {\r\n      uint id;\r\n      //Image  phots;\r\n      string description;\r\n      string namec;\r\n    }\r\n    event CoinFTCreated(\r\n      uint id,\r\n      //Image  phots,\r\n      string description,\r\n      string namec\r\n      );\r\n\r\n\r\n    uint256 public countAttrezzi;\r\n    uint256 public imageCount;\r\n    address public owner;\r\n   \r\n\r\n  constructor(address _owner,Calendar Cad) public ERC1155(\"\") {  \r\n         owner = _owner;\r\n         permissions[owner]= true;\r\n         Calendario = Cad;\r\n         }\r\n    \r\n\r\n\r\n // function addMoreCoin()public{}\r\n\r\n\r\n  function addNewCoin( uint256 value,string memory Name,string memory description )external {\r\n          require (msg.sender == owner || permissions[msg.sender]== true , \"Solo il proprietario\");\r\n          require(bytes(Name).length>0);\r\n          require(value>0);\r\n          countAttrezzi++;\r\n         _mint(msg.sender, countAttrezzi, value, \"\");\r\n          Cds[countAttrezzi]= countAttrezzi;\r\n          CoinId[countAttrezzi]= CoinFT(countAttrezzi,description,Name);\r\n          emit CoinFTCreated(countAttrezzi,description,Name);\r\n      } \r\n\r\n\r\n\r\n    modifier propriety(){ \r\n\r\n        require (msg.sender == owner || permissions[msg.sender]== true , \"Solo il proprietario\");       \r\n        _;\r\n    }\r\n      function setPermissions(address ute,bool setting) external propriety {\r\n\r\n      \r\n        permissions[ute]= setting;\r\n\r\n      }\r\n    \r\n\r\n      function addNewItem(uint256 price,uint256 caution,string memory _imgHash,string memory _description, string memory namef,uint256 Cid) external propriety {\r\n     \r\n      \r\n        require(caution > 0);\r\n        require(bytes(namef).length > 0);\r\n        require((price) > 0);\r\n        require(bytes(_description).length > 0);\r\n        require(bytes(_imgHash).length > 0);\r\n        require(msg.sender != address(0x0));\r\n        require(bytes(CoinId[Cid].namec).length > 0,\"Coin Not exist\");//controllo che il coin esiste aggiungere che il coin esiste\r\n\r\n        imageCount ++;\r\n        countAttrezzi++;\r\n       \r\n        Calendario.setAvailable(countAttrezzi,\"Available\"); \r\n     \r\n\r\n      \r\n        ids[countAttrezzi]=countAttrezzi;\r\n          \r\n        _mint(msg.sender, ids[countAttrezzi], 1, \"\");\r\n  \r\n  \r\n        images[imageCount] = Image(imageCount,_imgHash,_description,0,owner);\r\n        tokenId[countAttrezzi] = TokenNFT(countAttrezzi,images[imageCount],_description,namef,price,caution,Cid);\r\n        //causa l'evento \r\n        emit ImageCreated(imageCount,_imgHash,_description,0,owner);\r\n        emit TokenNFTCreated(countAttrezzi,images[imageCount],_description,namef,price,caution,Cid);    \r\n    }\r\n   \r\n      function TrasferTest(address _from, address _to, uint256 _id) external {\r\n\r\n        //aggiungere il metodo che controlla le prenotazioni \r\n\r\n          require(address(_from)!=address(0x0), \"Error trasfer address _from is 0x0\");\r\n          require(address(_to)!=address(0x0), \"Error trasfer address _to is 0x0\");\r\n          require(uint256(_id) > 0, \"Error trasfer token id is 0\");  \r\n          require(keccak256(bytes(Calendario.Available(_id))) != keccak256(bytes(\"Waiting\")),\"Error token Available is waiting \");\r\n          \r\n          if(_to == owner  && keccak256(bytes(Calendario.Available(_id))) == keccak256(bytes(\"Busy\"))){\r\n            bool l;\r\n            l =  Calendario.setAvailable(_id,\"Waiting\"); \r\n            require(l == true, \"Non disponibile1\");\r\n\r\n            safeTransferFrom( _from,_to, _id,1,\"\");\r\n            CautionId[_id]= _from;\r\n            }\r\n            else if(_from == owner){\r\n              require(tokenId[_id].pricel+tokenId[_id].caution<= balanceOf(_to,tokenId[_id].Cid),\"bilancio non sufficente\"); \r\n              safeTransferFrom( _to,_from,tokenId[_id].Cid,tokenId[_id].pricel+tokenId[_id].caution,\"\");  \r\n              safeTransferFrom( _from,_to, _id,1,\"\");\r\n             \r\n              bool k;\r\n              k =  Calendario.setAvailable(_id,\"Busy\"); \r\n              require(k == true, \"Non disponibile2\");\r\n              CautionId[_id]= _to;\r\n            }\r\n          return;\r\n      }\r\n  \r\n      \r\n      function GiveToken(address _to,uint256 coin,uint256 value) external propriety {\r\n        safeTransferFrom( msg.sender,_to, coin,100000000000000000000,\"\");\r\n      }\r\n\r\n      function ReleseW(uint256 _id, uint256 caution )  external propriety{\r\n    //si potrebbe gestire il caso in cui la cauzione restituita sia variabile\r\n        require(_id>0,\"\");\r\n        require(_id<=countAttrezzi,\"item not exists\");\r\n        require(ids[_id]>0,\"Token not exists\" );\r\n        require(keccak256(bytes(Calendario.Available(_id))) == keccak256(bytes(\"Waiting\")));\r\n\r\n        safeTransferFrom( msg.sender,CautionId[_id], 1, tokenId[_id].caution,\"\");\r\n        CautionId[_id]= address(0x0);\r\n          bool k;\r\n          k =  Calendario.setAvailable(_id,\"Available\"); \r\n          require(k == true, \"Non disponibile3\");\r\n      }\r\n    \r\n   \r\n    }\r\n\r\n\r\n\r\n\r\n\r\n\r\n\r\n\r\n\r\n",
  "sourcePath": "C:\\Users\\Luca\\Desktop\\tesi\\My-tesi\\src\\contracts\\LoanItem.sol",
  "compiler": {
    "name": "solc",
    "version": "0.8.10+commit.fc410830.Emscripten.clang"
  },
  "schemaVersion": "3.4.1",
  "updatedAt": "2021-11-18T16:10:27.609Z",
  "devdoc": {
    "kind": "dev",
    "methods": {
      "balanceOf(address,uint256)": {
        "details": "See {IERC1155-balanceOf}. Requirements: - `account` cannot be the zero address."
      },
      "balanceOfBatch(address[],uint256[])": {
        "details": "See {IERC1155-balanceOfBatch}. Requirements: - `accounts` and `ids` must have the same length."
      },
      "isApprovedForAll(address,address)": {
        "details": "See {IERC1155-isApprovedForAll}."
      },
      "safeBatchTransferFrom(address,address,uint256[],uint256[],bytes)": {
        "details": "See {IERC1155-safeBatchTransferFrom}."
      },
      "safeTransferFrom(address,address,uint256,uint256,bytes)": {
        "details": "See {IERC1155-safeTransferFrom}."
      },
      "setApprovalForAll(address,bool)": {
        "details": "See {IERC1155-setApprovalForAll}."
      },
      "supportsInterface(bytes4)": {
        "details": "See {IERC165-supportsInterface}."
      },
      "uri(uint256)": {
        "details": "See {IERC1155MetadataURI-uri}. This implementation returns the same URI for *all* token types. It relies on the token type ID substitution mechanism https://eips.ethereum.org/EIPS/eip-1155#metadata[defined in the EIP]. Clients calling this function must replace the `\\{id\\}` substring with the actual token type ID."
      }
    },
    "version": 1
  },
  "userdoc": {
    "kind": "user",
    "methods": {},
    "version": 1
  }
}