{
  "contractName": "LoanItem",
  "abi": [
    {
      "inputs": [
        {
          "internalType": "address",
          "name": "_owner",
          "type": "address"
        },
        {
          "internalType": "contract Calendar",
          "name": "Cad",
          "type": "address"
        }
      ],
      "stateMutability": "nonpayable",
      "type": "constructor"
    },
    {
      "anonymous": false,
      "inputs": [
        {
          "indexed": true,
          "internalType": "address",
          "name": "account",
          "type": "address"
        },
        {
          "indexed": true,
          "internalType": "address",
          "name": "operator",
          "type": "address"
        },
        {
          "indexed": false,
          "internalType": "bool",
          "name": "approved",
          "type": "bool"
        }
      ],
      "name": "ApprovalForAll",
      "type": "event"
    },
    {
      "anonymous": false,
      "inputs": [
        {
          "indexed": false,
          "internalType": "uint256",
          "name": "id",
          "type": "uint256"
        },
        {
          "indexed": false,
          "internalType": "string",
          "name": "description",
          "type": "string"
        },
        {
          "indexed": false,
          "internalType": "string",
          "name": "namec",
          "type": "string"
        }
      ],
      "name": "CoinFTCreated",
      "type": "event"
    },
    {
      "anonymous": false,
      "inputs": [
        {
          "indexed": false,
          "internalType": "uint256",
          "name": "id",
          "type": "uint256"
        },
        {
          "indexed": false,
          "internalType": "string",
          "name": "hash",
          "type": "string"
        },
        {
          "indexed": false,
          "internalType": "string",
          "name": "description",
          "type": "string"
        },
        {
          "indexed": false,
          "internalType": "uint256",
          "name": "tokenId",
          "type": "uint256"
        },
        {
          "indexed": false,
          "internalType": "address",
          "name": "author",
          "type": "address"
        }
      ],
      "name": "ImageCreated",
      "type": "event"
    },
    {
      "anonymous": false,
      "inputs": [
        {
          "indexed": false,
          "internalType": "uint256",
          "name": "id",
          "type": "uint256"
        },
        {
          "components": [
            {
              "internalType": "uint256",
              "name": "id",
              "type": "uint256"
            },
            {
              "internalType": "string",
              "name": "hash",
              "type": "string"
            },
            {
              "internalType": "string",
              "name": "description",
              "type": "string"
            },
            {
              "internalType": "uint256",
              "name": "tokenId",
              "type": "uint256"
            },
            {
              "internalType": "address",
              "name": "author",
              "type": "address"
            }
          ],
          "indexed": false,
          "internalType": "struct LoanItem.Image",
          "name": "phots",
          "type": "tuple"
        },
        {
          "indexed": false,
          "internalType": "string",
          "name": "description",
          "type": "string"
        },
        {
          "indexed": false,
          "internalType": "string",
          "name": "namet",
          "type": "string"
        },
        {
          "indexed": false,
          "internalType": "uint256",
          "name": "pricel",
          "type": "uint256"
        },
        {
          "indexed": false,
          "internalType": "uint256",
          "name": "caution",
          "type": "uint256"
        },
        {
          "indexed": false,
          "internalType": "uint256",
          "name": "Cid",
          "type": "uint256"
        }
      ],
      "name": "TokenNFTCreated",
      "type": "event"
    },
    {
      "anonymous": false,
      "inputs": [
        {
          "indexed": true,
          "internalType": "address",
          "name": "operator",
          "type": "address"
        },
        {
          "indexed": true,
          "internalType": "address",
          "name": "from",
          "type": "address"
        },
        {
          "indexed": true,
          "internalType": "address",
          "name": "to",
          "type": "address"
        },
        {
          "indexed": false,
          "internalType": "uint256[]",
          "name": "ids",
          "type": "uint256[]"
        },
        {
          "indexed": false,
          "internalType": "uint256[]",
          "name": "values",
          "type": "uint256[]"
        }
      ],
      "name": "TransferBatch",
      "type": "event"
    },
    {
      "anonymous": false,
      "inputs": [
        {
          "indexed": true,
          "internalType": "address",
          "name": "operator",
          "type": "address"
        },
        {
          "indexed": true,
          "internalType": "address",
          "name": "from",
          "type": "address"
        },
        {
          "indexed": true,
          "internalType": "address",
          "name": "to",
          "type": "address"
        },
        {
          "indexed": false,
          "internalType": "uint256",
          "name": "id",
          "type": "uint256"
        },
        {
          "indexed": false,
          "internalType": "uint256",
          "name": "value",
          "type": "uint256"
        }
      ],
      "name": "TransferSingle",
      "type": "event"
    },
    {
      "anonymous": false,
      "inputs": [
        {
          "indexed": false,
          "internalType": "string",
          "name": "value",
          "type": "string"
        },
        {
          "indexed": true,
          "internalType": "uint256",
          "name": "id",
          "type": "uint256"
        }
      ],
      "name": "URI",
      "type": "event"
    },
    {
      "inputs": [
        {
          "internalType": "uint256",
          "name": "",
          "type": "uint256"
        },
        {
          "internalType": "uint256",
          "name": "",
          "type": "uint256"
        }
      ],
      "name": "CautionId",
      "outputs": [
        {
          "internalType": "address",
          "name": "",
          "type": "address"
        }
      ],
      "stateMutability": "view",
      "type": "function"
    },
    {
      "inputs": [
        {
          "internalType": "uint256",
          "name": "",
          "type": "uint256"
        }
      ],
      "name": "Cds",
      "outputs": [
        {
          "internalType": "uint256",
          "name": "",
          "type": "uint256"
        }
      ],
      "stateMutability": "view",
      "type": "function"
    },
    {
      "inputs": [
        {
          "internalType": "uint256",
          "name": "",
          "type": "uint256"
        }
      ],
      "name": "CoinId",
      "outputs": [
        {
          "internalType": "uint256",
          "name": "id",
          "type": "uint256"
        },
        {
          "internalType": "string",
          "name": "description",
          "type": "string"
        },
        {
          "internalType": "string",
          "name": "namec",
          "type": "string"
        }
      ],
      "stateMutability": "view",
      "type": "function"
    },
    {
      "inputs": [
        {
          "internalType": "address",
          "name": "account",
          "type": "address"
        },
        {
          "internalType": "uint256",
          "name": "id",
          "type": "uint256"
        }
      ],
      "name": "balanceOf",
      "outputs": [
        {
          "internalType": "uint256",
          "name": "",
          "type": "uint256"
        }
      ],
      "stateMutability": "view",
      "type": "function"
    },
    {
      "inputs": [
        {
          "internalType": "address[]",
          "name": "accounts",
          "type": "address[]"
        },
        {
          "internalType": "uint256[]",
          "name": "ids",
          "type": "uint256[]"
        }
      ],
      "name": "balanceOfBatch",
      "outputs": [
        {
          "internalType": "uint256[]",
          "name": "",
          "type": "uint256[]"
        }
      ],
      "stateMutability": "view",
      "type": "function"
    },
    {
      "inputs": [],
      "name": "countAttrezzi",
      "outputs": [
        {
          "internalType": "uint256",
          "name": "",
          "type": "uint256"
        }
      ],
      "stateMutability": "view",
      "type": "function"
    },
    {
      "inputs": [
        {
          "internalType": "address",
          "name": "",
          "type": "address"
        }
      ],
      "name": "hasStaked",
      "outputs": [
        {
          "internalType": "bool",
          "name": "",
          "type": "bool"
        }
      ],
      "stateMutability": "view",
      "type": "function"
    },
    {
      "inputs": [
        {
          "internalType": "uint256",
          "name": "",
          "type": "uint256"
        }
      ],
      "name": "ids",
      "outputs": [
        {
          "internalType": "uint256",
          "name": "",
          "type": "uint256"
        }
      ],
      "stateMutability": "view",
      "type": "function"
    },
    {
      "inputs": [],
      "name": "imageCount",
      "outputs": [
        {
          "internalType": "uint256",
          "name": "",
          "type": "uint256"
        }
      ],
      "stateMutability": "view",
      "type": "function"
    },
    {
      "inputs": [
        {
          "internalType": "uint256",
          "name": "",
          "type": "uint256"
        }
      ],
      "name": "images",
      "outputs": [
        {
          "internalType": "uint256",
          "name": "id",
          "type": "uint256"
        },
        {
          "internalType": "string",
          "name": "hash",
          "type": "string"
        },
        {
          "internalType": "string",
          "name": "description",
          "type": "string"
        },
        {
          "internalType": "uint256",
          "name": "tokenId",
          "type": "uint256"
        },
        {
          "internalType": "address",
          "name": "author",
          "type": "address"
        }
      ],
      "stateMutability": "view",
      "type": "function"
    },
    {
      "inputs": [
        {
          "internalType": "address",
          "name": "account",
          "type": "address"
        },
        {
          "internalType": "address",
          "name": "operator",
          "type": "address"
        }
      ],
      "name": "isApprovedForAll",
      "outputs": [
        {
          "internalType": "bool",
          "name": "",
          "type": "bool"
        }
      ],
      "stateMutability": "view",
      "type": "function"
    },
    {
      "inputs": [
        {
          "internalType": "address",
          "name": "",
          "type": "address"
        }
      ],
      "name": "isStaking",
      "outputs": [
        {
          "internalType": "bool",
          "name": "",
          "type": "bool"
        }
      ],
      "stateMutability": "view",
      "type": "function"
    },
    {
      "inputs": [],
      "name": "name",
      "outputs": [
        {
          "internalType": "string",
          "name": "",
          "type": "string"
        }
      ],
      "stateMutability": "view",
      "type": "function"
    },
    {
      "inputs": [],
      "name": "owner",
      "outputs": [
        {
          "internalType": "address",
          "name": "",
          "type": "address"
        }
      ],
      "stateMutability": "view",
      "type": "function"
    },
    {
      "inputs": [
        {
          "internalType": "address",
          "name": "",
          "type": "address"
        }
      ],
      "name": "permissions",
      "outputs": [
        {
          "internalType": "bool",
          "name": "",
          "type": "bool"
        }
      ],
      "stateMutability": "view",
      "type": "function"
    },
    {
      "inputs": [
        {
          "internalType": "address",
          "name": "from",
          "type": "address"
        },
        {
          "internalType": "address",
          "name": "to",
          "type": "address"
        },
        {
          "internalType": "uint256[]",
          "name": "ids",
          "type": "uint256[]"
        },
        {
          "internalType": "uint256[]",
          "name": "amounts",
          "type": "uint256[]"
        },
        {
          "internalType": "bytes",
          "name": "data",
          "type": "bytes"
        }
      ],
      "name": "safeBatchTransferFrom",
      "outputs": [],
      "stateMutability": "nonpayable",
      "type": "function"
    },
    {
      "inputs": [
        {
          "internalType": "address",
          "name": "from",
          "type": "address"
        },
        {
          "internalType": "address",
          "name": "to",
          "type": "address"
        },
        {
          "internalType": "uint256",
          "name": "id",
          "type": "uint256"
        },
        {
          "internalType": "uint256",
          "name": "amount",
          "type": "uint256"
        },
        {
          "internalType": "bytes",
          "name": "data",
          "type": "bytes"
        }
      ],
      "name": "safeTransferFrom",
      "outputs": [],
      "stateMutability": "nonpayable",
      "type": "function"
    },
    {
      "inputs": [
        {
          "internalType": "address",
          "name": "operator",
          "type": "address"
        },
        {
          "internalType": "bool",
          "name": "approved",
          "type": "bool"
        }
      ],
      "name": "setApprovalForAll",
      "outputs": [],
      "stateMutability": "nonpayable",
      "type": "function"
    },
    {
      "inputs": [
        {
          "internalType": "uint256",
          "name": "",
          "type": "uint256"
        }
      ],
      "name": "stakers",
      "outputs": [
        {
          "internalType": "address",
          "name": "",
          "type": "address"
        }
      ],
      "stateMutability": "view",
      "type": "function"
    },
    {
      "inputs": [
        {
          "internalType": "address",
          "name": "",
          "type": "address"
        }
      ],
      "name": "stakingBalance",
      "outputs": [
        {
          "internalType": "uint256",
          "name": "",
          "type": "uint256"
        }
      ],
      "stateMutability": "view",
      "type": "function"
    },
    {
      "inputs": [
        {
          "internalType": "bytes4",
          "name": "interfaceId",
          "type": "bytes4"
        }
      ],
      "name": "supportsInterface",
      "outputs": [
        {
          "internalType": "bool",
          "name": "",
          "type": "bool"
        }
      ],
      "stateMutability": "view",
      "type": "function"
    },
    {
      "inputs": [],
      "name": "symbol",
      "outputs": [
        {
          "internalType": "string",
          "name": "",
          "type": "string"
        }
      ],
      "stateMutability": "view",
      "type": "function"
    },
    {
      "inputs": [
        {
          "internalType": "uint256",
          "name": "",
          "type": "uint256"
        }
      ],
      "name": "tokenId",
      "outputs": [
        {
          "internalType": "uint256",
          "name": "id",
          "type": "uint256"
        },
        {
          "components": [
            {
              "internalType": "uint256",
              "name": "id",
              "type": "uint256"
            },
            {
              "internalType": "string",
              "name": "hash",
              "type": "string"
            },
            {
              "internalType": "string",
              "name": "description",
              "type": "string"
            },
            {
              "internalType": "uint256",
              "name": "tokenId",
              "type": "uint256"
            },
            {
              "internalType": "address",
              "name": "author",
              "type": "address"
            }
          ],
          "internalType": "struct LoanItem.Image",
          "name": "phots",
          "type": "tuple"
        },
        {
          "internalType": "string",
          "name": "description",
          "type": "string"
        },
        {
          "internalType": "string",
          "name": "namet",
          "type": "string"
        },
        {
          "internalType": "uint256",
          "name": "pricel",
          "type": "uint256"
        },
        {
          "internalType": "uint256",
          "name": "caution",
          "type": "uint256"
        },
        {
          "internalType": "uint256",
          "name": "Cid",
          "type": "uint256"
        }
      ],
      "stateMutability": "view",
      "type": "function"
    },
    {
      "inputs": [
        {
          "internalType": "uint256",
          "name": "",
          "type": "uint256"
        }
      ],
      "name": "uri",
      "outputs": [
        {
          "internalType": "string",
          "name": "",
          "type": "string"
        }
      ],
      "stateMutability": "view",
      "type": "function"
    },
    {
      "inputs": [
        {
          "internalType": "uint256",
          "name": "value",
          "type": "uint256"
        },
        {
          "internalType": "string",
          "name": "Name",
          "type": "string"
        },
        {
          "internalType": "string",
          "name": "description",
          "type": "string"
        }
      ],
      "name": "addNewCoin",
      "outputs": [],
      "stateMutability": "nonpayable",
      "type": "function"
    },
    {
      "inputs": [
        {
          "internalType": "address",
          "name": "ute",
          "type": "address"
        },
        {
          "internalType": "bool",
          "name": "setting",
          "type": "bool"
        }
      ],
      "name": "setPermissions",
      "outputs": [],
      "stateMutability": "nonpayable",
      "type": "function"
    },
    {
      "inputs": [
        {
          "internalType": "uint256",
          "name": "price",
          "type": "uint256"
        },
        {
          "internalType": "uint256",
          "name": "caution",
          "type": "uint256"
        },
        {
          "internalType": "string",
          "name": "_imgHash",
          "type": "string"
        },
        {
          "internalType": "string",
          "name": "_description",
          "type": "string"
        },
        {
          "internalType": "string",
          "name": "namef",
          "type": "string"
        },
        {
          "internalType": "uint256",
          "name": "Cid",
          "type": "uint256"
        }
      ],
      "name": "addNewItem",
      "outputs": [],
      "stateMutability": "nonpayable",
      "type": "function"
    },
    {
      "inputs": [
        {
          "internalType": "address",
          "name": "_from",
          "type": "address"
        },
        {
          "internalType": "address",
          "name": "_to",
          "type": "address"
        },
        {
          "internalType": "uint256",
          "name": "_id",
          "type": "uint256"
        },
        {
          "internalType": "bool",
          "name": "pre",
          "type": "bool"
        },
        {
          "internalType": "bool",
          "name": "acq",
          "type": "bool"
        },
        {
          "internalType": "uint256",
          "name": "dateS",
          "type": "uint256"
        },
        {
          "internalType": "uint256",
          "name": "dateF",
          "type": "uint256"
        }
      ],
      "name": "TrasferTest",
      "outputs": [],
      "stateMutability": "nonpayable",
      "type": "function"
    },
    {
      "inputs": [
        {
          "internalType": "address",
          "name": "_to",
          "type": "address"
        },
        {
          "internalType": "uint256",
          "name": "coin",
          "type": "uint256"
        },
        {
          "internalType": "uint256",
          "name": "value",
          "type": "uint256"
        }
      ],
      "name": "GiveToken",
      "outputs": [],
      "stateMutability": "nonpayable",
      "type": "function"
    },
    {
      "inputs": [
        {
          "internalType": "uint256",
          "name": "_id",
          "type": "uint256"
        },
        {
          "internalType": "address",
          "name": "_usr",
          "type": "address"
        },
        {
          "internalType": "uint256",
          "name": "_caution",
          "type": "uint256"
        }
      ],
      "name": "ReleseW",
      "outputs": [],
      "stateMutability": "nonpayable",
      "type": "function"
    }
  ],
  "bytecode": "0x60806040526040518060400160405280600881526020017f4c6f616e4974656d000000000000000000000000000000000000000000000000815250600390805190602001906200005192919062000215565b506040518060400160405280600281526020017f4c49000000000000000000000000000000000000000000000000000000000000815250600490805190602001906200009f92919062000215565b50348015620000ad57600080fd5b5060405162006264380380620062648339818101604052810190620000d3919062000374565b60405180602001604052806000815250620000f481620001f960201b60201c565b5081601360006101000a81548173ffffffffffffffffffffffffffffffffffffffff021916908373ffffffffffffffffffffffffffffffffffffffff1602179055506001600e6000601360009054906101000a900473ffffffffffffffffffffffffffffffffffffffff1673ffffffffffffffffffffffffffffffffffffffff1673ffffffffffffffffffffffffffffffffffffffff16815260200190815260200160002060006101000a81548160ff02191690831515021790555080600560006101000a81548173ffffffffffffffffffffffffffffffffffffffff021916908373ffffffffffffffffffffffffffffffffffffffff160217905550505062000420565b80600290805190602001906200021192919062000215565b5050565b8280546200022390620003ea565b90600052602060002090601f01602090048101928262000247576000855562000293565b82601f106200026257805160ff191683800117855562000293565b8280016001018555821562000293579182015b828111156200029257825182559160200191906001019062000275565b5b509050620002a29190620002a6565b5090565b5b80821115620002c1576000816000905550600101620002a7565b5090565b600080fd5b600073ffffffffffffffffffffffffffffffffffffffff82169050919050565b6000620002f782620002ca565b9050919050565b6200030981620002ea565b81146200031557600080fd5b50565b6000815190506200032981620002fe565b92915050565b60006200033c82620002ea565b9050919050565b6200034e816200032f565b81146200035a57600080fd5b50565b6000815190506200036e8162000343565b92915050565b600080604083850312156200038e576200038d620002c5565b5b60006200039e8582860162000318565b9250506020620003b1858286016200035d565b9150509250929050565b7f4e487b7100000000000000000000000000000000000000000000000000000000600052602260045260246000fd5b600060028204905060018216806200040357607f821691505b602082108114156200041a5762000419620003bb565b5b50919050565b615e3480620004306000396000f3fe608060405234801561001057600080fd5b50600436106101d95760003560e01c80638da5cb5b11610104578063c93c8f34116100a2578063f31f8f6b11610071578063f31f8f6b146105d0578063f9c93e47146105ec578063fac333ac1461061c578063fd5e6dd11461064c576101d9565b8063c93c8f3414610538578063d4c35d3014610568578063e985e9c514610584578063f242432a146105b4576101d9565b8063a166754b116100de578063a166754b146104b2578063a1af645f146104ce578063a22cb465146104fe578063a963cff71461051a576101d9565b80638da5cb5b1461045857806392053b631461047657806395d89b4114610494576101d9565b806345bc78ab1161017c578063689ceaac1161014b578063689ceaac146103a25780636f49712b146103be5780637dcb0e5f146103ee5780638485648214610424576101d9565b806345bc78ab146102f4578063499ea4b3146103245780634e1273f4146103565780636165234c14610386576101d9565b806306fdde03116101b857806306fdde031461026e5780630e89341c1461028c5780632eb2c2d6146102bc5780633a712e83146102d8576101d9565b8062fdd58e146101de57806301e882081461020e57806301ffc9a71461023e575b600080fd5b6101f860048036038101906101f39190613d53565b61067c565b6040516102059190613da2565b60405180910390f35b61022860048036038101906102239190613dbd565b610745565b6040516102359190613e05565b60405180910390f35b61025860048036038101906102539190613e78565b610765565b6040516102659190613e05565b60405180910390f35b610276610847565b6040516102839190613f3e565b60405180910390f35b6102a660048036038101906102a19190613f60565b6108d5565b6040516102b39190613f3e565b60405180910390f35b6102d660048036038101906102d1919061418a565b610969565b005b6102f260048036038101906102ed91906142fa565b610a0a565b005b61030e60048036038101906103099190613dbd565b610c1c565b60405161031b9190613da2565b60405180910390f35b61033e60048036038101906103399190613f60565b610c34565b60405161034d93929190614385565b60405180910390f35b610370600480360381019061036b919061448d565b610d6e565b60405161037d91906145c3565b60405180910390f35b6103a0600480360381019061039b9190614611565b610e87565b005b6103bc60048036038101906103b79190614651565b610fcd565b005b6103d860048036038101906103d39190613dbd565b611789565b6040516103e59190613e05565b60405180910390f35b61040860048036038101906104039190613f60565b6117a9565b60405161041b9796959493929190614808565b60405180910390f35b61043e60048036038101906104399190613f60565b611a93565b60405161044f95949392919061489b565b60405180910390f35b610460611bf9565b60405161046d91906148fc565b60405180910390f35b61047e611c1f565b60405161048b9190613da2565b60405180910390f35b61049c611c25565b6040516104a99190613f3e565b60405180910390f35b6104cc60048036038101906104c79190614917565b611cb3565b005b6104e860048036038101906104e39190613f60565b611dc8565b6040516104f59190613da2565b60405180910390f35b61051860048036038101906105139190614611565b611de0565b005b610522611f61565b60405161052f9190613da2565b60405180910390f35b610552600480360381019061054d9190613dbd565b611f67565b60405161055f9190613e05565b60405180910390f35b610582600480360381019061057d919061496a565b611f87565b005b61059e60048036038101906105999190614a0c565b612a5d565b6040516105ab9190613e05565b60405180910390f35b6105ce60048036038101906105c99190614a4c565b612af1565b005b6105ea60048036038101906105e59190614ae3565b612b92565b005b61060660048036038101906106019190614b36565b612f80565b60405161061391906148fc565b60405180910390f35b61063660048036038101906106319190613f60565b612fce565b6040516106439190613da2565b60405180910390f35b61066660048036038101906106619190613f60565b612fe6565b60405161067391906148fc565b60405180910390f35b60008073ffffffffffffffffffffffffffffffffffffffff168373ffffffffffffffffffffffffffffffffffffffff1614156106ed576040517f08c379a00000000000000000000000000000000000000000000000000000000081526004016106e490614be8565b60405180910390fd5b60008083815260200190815260200160002060008473ffffffffffffffffffffffffffffffffffffffff1673ffffffffffffffffffffffffffffffffffffffff16815260200190815260200160002054905092915050565b600e6020528060005260406000206000915054906101000a900460ff1681565b60007fd9b67a26000000000000000000000000000000000000000000000000000000007bffffffffffffffffffffffffffffffffffffffffffffffffffffffff1916827bffffffffffffffffffffffffffffffffffffffffffffffffffffffff1916148061083057507f0e89341c000000000000000000000000000000000000000000000000000000007bffffffffffffffffffffffffffffffffffffffffffffffffffffffff1916827bffffffffffffffffffffffffffffffffffffffffffffffffffffffff1916145b80610840575061083f82613025565b5b9050919050565b6003805461085490614c37565b80601f016020809104026020016040519081016040528092919081815260200182805461088090614c37565b80156108cd5780601f106108a2576101008083540402835291602001916108cd565b820191906000526020600020905b8154815290600101906020018083116108b057829003601f168201915b505050505081565b6060600280546108e490614c37565b80601f016020809104026020016040519081016040528092919081815260200182805461091090614c37565b801561095d5780601f106109325761010080835404028352916020019161095d565b820191906000526020600020905b81548152906001019060200180831161094057829003601f168201915b50505050509050919050565b61097161308f565b73ffffffffffffffffffffffffffffffffffffffff168573ffffffffffffffffffffffffffffffffffffffff1614806109b757506109b6856109b161308f565b612a5d565b5b6109f6576040517f08c379a00000000000000000000000000000000000000000000000000000000081526004016109ed90614cdb565b60405180910390fd5b610a038585858585613097565b5050505050565b601360009054906101000a900473ffffffffffffffffffffffffffffffffffffffff1673ffffffffffffffffffffffffffffffffffffffff163373ffffffffffffffffffffffffffffffffffffffff161480610ab6575060011515600e60003373ffffffffffffffffffffffffffffffffffffffff1673ffffffffffffffffffffffffffffffffffffffff16815260200190815260200160002060009054906101000a900460ff161515145b610af5576040517f08c379a0000000000000000000000000000000000000000000000000000000008152600401610aec90614d47565b60405180910390fd5b6000825111610b0357600080fd5b60008311610b1057600080fd5b60116000815480929190610b2390614d96565b9190505550610b453360115485604051806020016040528060008152506133ab565b601154601060006011548152602001908152602001600020819055506040518060600160405280601154815260200182815260200183815250600f60006011548152602001908152602001600020600082015181600001556020820151816001019080519060200190610bb9929190613c08565b506040820151816002019080519060200190610bd6929190613c08565b509050507faf4b1085b3f4f980233bd54e1a354fed0504d6aa21ed37949c8b5aabae94653c6011548284604051610c0f93929190614385565b60405180910390a1505050565b60076020528060005260406000206000915090505481565b600f602052806000526040600020600091509050806000015490806001018054610c5d90614c37565b80601f0160208091040260200160405190810160405280929190818152602001828054610c8990614c37565b8015610cd65780601f10610cab57610100808354040283529160200191610cd6565b820191906000526020600020905b815481529060010190602001808311610cb957829003601f168201915b505050505090806002018054610ceb90614c37565b80601f0160208091040260200160405190810160405280929190818152602001828054610d1790614c37565b8015610d645780601f10610d3957610100808354040283529160200191610d64565b820191906000526020600020905b815481529060010190602001808311610d4757829003601f168201915b5050505050905083565b60608151835114610db4576040517f08c379a0000000000000000000000000000000000000000000000000000000008152600401610dab90614e51565b60405180910390fd5b6000835167ffffffffffffffff811115610dd157610dd0613f92565b5b604051908082528060200260200182016040528015610dff5781602001602082028036833780820191505090505b50905060005b8451811015610e7c57610e4c858281518110610e2457610e23614e71565b5b6020026020010151858381518110610e3f57610e3e614e71565b5b602002602001015161067c565b828281518110610e5f57610e5e614e71565b5b60200260200101818152505080610e7590614d96565b9050610e05565b508091505092915050565b601360009054906101000a900473ffffffffffffffffffffffffffffffffffffffff1673ffffffffffffffffffffffffffffffffffffffff163373ffffffffffffffffffffffffffffffffffffffff161480610f33575060011515600e60003373ffffffffffffffffffffffffffffffffffffffff1673ffffffffffffffffffffffffffffffffffffffff16815260200190815260200160002060009054906101000a900460ff161515145b610f72576040517f08c379a0000000000000000000000000000000000000000000000000000000008152600401610f6990614d47565b60405180910390fd5b80600e60008473ffffffffffffffffffffffffffffffffffffffff1673ffffffffffffffffffffffffffffffffffffffff16815260200190815260200160002060006101000a81548160ff0219169083151502179055505050565b601360009054906101000a900473ffffffffffffffffffffffffffffffffffffffff1673ffffffffffffffffffffffffffffffffffffffff163373ffffffffffffffffffffffffffffffffffffffff161480611079575060011515600e60003373ffffffffffffffffffffffffffffffffffffffff1673ffffffffffffffffffffffffffffffffffffffff16815260200190815260200160002060009054906101000a900460ff161515145b6110b8576040517f08c379a00000000000000000000000000000000000000000000000000000000081526004016110af90614d47565b60405180910390fd5b600085116110c557600080fd5b60008251116110d357600080fd5b600086116110e057600080fd5b60008351116110ee57600080fd5b60008451116110fc57600080fd5b600073ffffffffffffffffffffffffffffffffffffffff163373ffffffffffffffffffffffffffffffffffffffff16141561113657600080fd5b6000600f6000838152602001908152602001600020600201805461115990614c37565b90501161119b576040517f08c379a000000000000000000000000000000000000000000000000000000000815260040161119290614eec565b60405180910390fd5b601260008154809291906111ae90614d96565b9190505550601160008154809291906111c690614d96565b9190505550600560009054906101000a900473ffffffffffffffffffffffffffffffffffffffff1673ffffffffffffffffffffffffffffffffffffffff16639ff3b46d6011546040518263ffffffff1660e01b81526004016112289190614f58565b6020604051808303816000875af1158015611247573d6000803e3d6000fd5b505050506040513d601f19601f8201168201806040525081019061126b9190614f9b565b50601154600d60006011548152602001908152602001600020819055506112b933600d60006011548152602001908152602001600020546001604051806020016040528060008152506133ab565b6040518060a00160405280601254815260200185815260200184815260200160008152602001601360009054906101000a900473ffffffffffffffffffffffffffffffffffffffff1673ffffffffffffffffffffffffffffffffffffffff16815250600a60006012548152602001908152602001600020600082015181600001556020820151816001019080519060200190611356929190613c08565b506040820151816002019080519060200190611373929190613c08565b506060820151816003015560808201518160040160006101000a81548173ffffffffffffffffffffffffffffffffffffffff021916908373ffffffffffffffffffffffffffffffffffffffff1602179055509050506040518060e001604052806011548152602001600a600060125481526020019081526020016000206040518060a00160405290816000820154815260200160018201805461141590614c37565b80601f016020809104026020016040519081016040528092919081815260200182805461144190614c37565b801561148e5780601f106114635761010080835404028352916020019161148e565b820191906000526020600020905b81548152906001019060200180831161147157829003601f168201915b505050505081526020016002820180546114a790614c37565b80601f01602080910402602001604051908101604052809291908181526020018280546114d390614c37565b80156115205780601f106114f557610100808354040283529160200191611520565b820191906000526020600020905b81548152906001019060200180831161150357829003601f168201915b50505050508152602001600382015481526020016004820160009054906101000a900473ffffffffffffffffffffffffffffffffffffffff1673ffffffffffffffffffffffffffffffffffffffff1673ffffffffffffffffffffffffffffffffffffffff1681525050815260200184815260200183815260200187815260200186815260200182815250600b60006011548152602001908152602001600020600082015181600001556020820151816001016000820151816000015560208201518160010190805190602001906115f8929190613c08565b506040820151816002019080519060200190611615929190613c08565b506060820151816003015560808201518160040160006101000a81548173ffffffffffffffffffffffffffffffffffffffff021916908373ffffffffffffffffffffffffffffffffffffffff16021790555050506040820151816006019080519060200190611685929190613c08565b5060608201518160070190805190602001906116a2929190613c08565b506080820151816008015560a0820151816009015560c082015181600a01559050507fc1d8dfa99b3f84f95d3f0bc4a768addeb97b83b20aef7f9cb6729e126bafd2f960125485856000601360009054906101000a900473ffffffffffffffffffffffffffffffffffffffff1660405161172095949392919061500d565b60405180910390a17fb5c81648406183bffdea7566bac0ed978ae944671b4599c84fbe7b47f9f52429601154600a6000601254815260200190815260200160002085858a8a87604051611779979695949392919061520c565b60405180910390a1505050505050565b60096020528060005260406000206000915054906101000a900460ff1681565b600b602052806000526040600020600091509050806000015490806001016040518060a0016040529081600082015481526020016001820180546117ec90614c37565b80601f016020809104026020016040519081016040528092919081815260200182805461181890614c37565b80156118655780601f1061183a57610100808354040283529160200191611865565b820191906000526020600020905b81548152906001019060200180831161184857829003601f168201915b5050505050815260200160028201805461187e90614c37565b80601f01602080910402602001604051908101604052809291908181526020018280546118aa90614c37565b80156118f75780601f106118cc576101008083540402835291602001916118f7565b820191906000526020600020905b8154815290600101906020018083116118da57829003601f168201915b50505050508152602001600382015481526020016004820160009054906101000a900473ffffffffffffffffffffffffffffffffffffffff1673ffffffffffffffffffffffffffffffffffffffff1673ffffffffffffffffffffffffffffffffffffffff16815250509080600601805461197090614c37565b80601f016020809104026020016040519081016040528092919081815260200182805461199c90614c37565b80156119e95780601f106119be576101008083540402835291602001916119e9565b820191906000526020600020905b8154815290600101906020018083116119cc57829003601f168201915b5050505050908060070180546119fe90614c37565b80601f0160208091040260200160405190810160405280929190818152602001828054611a2a90614c37565b8015611a775780601f10611a4c57610100808354040283529160200191611a77565b820191906000526020600020905b815481529060010190602001808311611a5a57829003601f168201915b50505050509080600801549080600901549080600a0154905087565b600a602052806000526040600020600091509050806000015490806001018054611abc90614c37565b80601f0160208091040260200160405190810160405280929190818152602001828054611ae890614c37565b8015611b355780601f10611b0a57610100808354040283529160200191611b35565b820191906000526020600020905b815481529060010190602001808311611b1857829003601f168201915b505050505090806002018054611b4a90614c37565b80601f0160208091040260200160405190810160405280929190818152602001828054611b7690614c37565b8015611bc35780601f10611b9857610100808354040283529160200191611bc3565b820191906000526020600020905b815481529060010190602001808311611ba657829003601f168201915b5050505050908060030154908060040160009054906101000a900473ffffffffffffffffffffffffffffffffffffffff16905085565b601360009054906101000a900473ffffffffffffffffffffffffffffffffffffffff1681565b60125481565b60048054611c3290614c37565b80601f0160208091040260200160405190810160405280929190818152602001828054611c5e90614c37565b8015611cab5780601f10611c8057610100808354040283529160200191611cab565b820191906000526020600020905b815481529060010190602001808311611c8e57829003601f168201915b505050505081565b601360009054906101000a900473ffffffffffffffffffffffffffffffffffffffff1673ffffffffffffffffffffffffffffffffffffffff163373ffffffffffffffffffffffffffffffffffffffff161480611d5f575060011515600e60003373ffffffffffffffffffffffffffffffffffffffff1673ffffffffffffffffffffffffffffffffffffffff16815260200190815260200160002060009054906101000a900460ff161515145b611d9e576040517f08c379a0000000000000000000000000000000000000000000000000000000008152600401611d9590614d47565b60405180910390fd5b611dc333848468056bc75e2d6310000060405180602001604052806000815250612af1565b505050565b60106020528060005260406000206000915090505481565b8173ffffffffffffffffffffffffffffffffffffffff16611dff61308f565b73ffffffffffffffffffffffffffffffffffffffff161415611e56576040517f08c379a0000000000000000000000000000000000000000000000000000000008152600401611e4d90615302565b60405180910390fd5b8060016000611e6361308f565b73ffffffffffffffffffffffffffffffffffffffff1673ffffffffffffffffffffffffffffffffffffffff16815260200190815260200160002060008473ffffffffffffffffffffffffffffffffffffffff1673ffffffffffffffffffffffffffffffffffffffff16815260200190815260200160002060006101000a81548160ff0219169083151502179055508173ffffffffffffffffffffffffffffffffffffffff16611f1061308f565b73ffffffffffffffffffffffffffffffffffffffff167f17307eab39ab6107e8899845ad3d59bd9653f200f220920489ca2b5937696c3183604051611f559190613e05565b60405180910390a35050565b60115481565b60086020528060005260406000206000915054906101000a900460ff1681565b6000801b600b6000878152602001908152602001600020600701604051611fae91906153c1565b604051809103902011611ff6576040517f08c379a0000000000000000000000000000000000000000000000000000000008152600401611fed90615424565b60405180910390fd5b6040518060400160405280600781526020017f57616974696e670000000000000000000000000000000000000000000000000081525080519060200120600560009054906101000a900473ffffffffffffffffffffffffffffffffffffffff1673ffffffffffffffffffffffffffffffffffffffff166335b67731876040518263ffffffff1660e01b815260040161208e9190613da2565b600060405180830381865afa1580156120ab573d6000803e3d6000fd5b505050506040513d6000823e3d601f19601f820116820180604052508101906120d491906154b4565b80519060200120141561211c576040517f08c379a000000000000000000000000000000000000000000000000000000000815260040161211390615549565b60405180910390fd5b6000821180156121795750601360009054906101000a900473ffffffffffffffffffffffffffffffffffffffff1673ffffffffffffffffffffffffffffffffffffffff168673ffffffffffffffffffffffffffffffffffffffff16145b801561226757506040518060400160405280600481526020017f427573790000000000000000000000000000000000000000000000000000000081525080519060200120600560009054906101000a900473ffffffffffffffffffffffffffffffffffffffff1673ffffffffffffffffffffffffffffffffffffffff166335b67731876040518263ffffffff1660e01b81526004016122189190613da2565b600060405180830381865afa158015612235573d6000803e3d6000fd5b505050506040513d6000823e3d601f19601f8201168201806040525081019061225e91906154b4565b80519060200120145b156123ac57600560009054906101000a900473ffffffffffffffffffffffffffffffffffffffff1673ffffffffffffffffffffffffffffffffffffffff16634bbbff0686846040518363ffffffff1660e01b81526004016122c9929190615569565b6020604051808303816000875af11580156122e8573d6000803e3d6000fd5b505050506040513d601f19601f8201168201806040525081019061230c9190614f9b565b156123a75761232e878787600160405180602001604052806000815250612af1565b600c6000868152602001908152602001600020879080600181540180825580915050600190039060005260206000200160009091909190916101000a81548173ffffffffffffffffffffffffffffffffffffffff021916908373ffffffffffffffffffffffffffffffffffffffff160217905550612a54565b612a53565b601360009054906101000a900473ffffffffffffffffffffffffffffffffffffffff1673ffffffffffffffffffffffffffffffffffffffff168673ffffffffffffffffffffffffffffffffffffffff161480156124eb57506040518060400160405280600a81526020017f5072656f7264657265640000000000000000000000000000000000000000000081525080519060200120600560009054906101000a900473ffffffffffffffffffffffffffffffffffffffff1673ffffffffffffffffffffffffffffffffffffffff166335b67731876040518263ffffffff1660e01b815260040161249c9190613da2565b600060405180830381865afa1580156124b9573d6000803e3d6000fd5b505050506040513d6000823e3d601f19601f820116820180604052508101906124e291906154b4565b80519060200120145b156124f557612a54565b601360009054906101000a900473ffffffffffffffffffffffffffffffffffffffff1673ffffffffffffffffffffffffffffffffffffffff168773ffffffffffffffffffffffffffffffffffffffff161415612a5257838015612556575082155b80156125625750600081115b156126d657600560009054906101000a900473ffffffffffffffffffffffffffffffffffffffff1673ffffffffffffffffffffffffffffffffffffffff16633097c98e838388336040518563ffffffff1660e01b81526004016125c89493929190615592565b6020604051808303816000875af11580156125e7573d6000803e3d6000fd5b505050506040513d601f19601f8201168201806040525081019061260b9190614f9b565b156126d1576126588688600b6000898152602001908152602001600020600a0154600b60008a81526020019081526020016000206009015460405180602001604052806000815250612af1565b600c6000868152602001908152602001600020869080600181540180825580915050600190039060005260206000200160009091909190916101000a81548173ffffffffffffffffffffffffffffffffffffffff021916908373ffffffffffffffffffffffffffffffffffffffff160217905550612a54565b612a54565b8280156126e1575083155b156128935760005b600c600087815260200190815260200160002080549050811015612891573373ffffffffffffffffffffffffffffffffffffffff16600c6000888152602001908152602001600020828154811061274357612742614e71565b5b9060005260206000200160009054906101000a900473ffffffffffffffffffffffffffffffffffffffff1673ffffffffffffffffffffffffffffffffffffffff16141561287e57600560009054906101000a900473ffffffffffffffffffffffffffffffffffffffff1673ffffffffffffffffffffffffffffffffffffffff16631b227ed787336040518363ffffffff1660e01b81526004016127e79291906155d7565b6020604051808303816000875af1158015612806573d6000803e3d6000fd5b505050506040513d601f19601f8201168201806040525081019061282a9190614f9b565b1561287d576128778789600b60008a8152602001908152602001600020600a0154600b60008b81526020019081526020016000206008015460405180602001604052806000815250612af1565b50612a54565b5b808061288990614d96565b9150506126e9565b505b6000811180156128a05750825b80156128a95750835b15612a5157600560009054906101000a900473ffffffffffffffffffffffffffffffffffffffff1673ffffffffffffffffffffffffffffffffffffffff1663d9d92d1e8633846040518463ffffffff1660e01b815260040161290d93929190615600565b6020604051808303816000875af115801561292c573d6000803e3d6000fd5b505050506040513d601f19601f820116820180604052508101906129509190614f9b565b15612a50576129be8688600b6000898152602001908152602001600020600a0154600b60008a815260200190815260200160002060090154600b60008b8152602001908152602001600020600801546129a99190615637565b60405180602001604052806000815250612af1565b6129db878787600160405180602001604052806000815250612af1565b600c6000868152602001908152602001600020869080600181540180825580915050600190039060005260206000200160009091909190916101000a81548173ffffffffffffffffffffffffffffffffffffffff021916908373ffffffffffffffffffffffffffffffffffffffff1602179055505b5b5b5b5b50505050505050565b6000600160008473ffffffffffffffffffffffffffffffffffffffff1673ffffffffffffffffffffffffffffffffffffffff16815260200190815260200160002060008373ffffffffffffffffffffffffffffffffffffffff1673ffffffffffffffffffffffffffffffffffffffff16815260200190815260200160002060009054906101000a900460ff16905092915050565b612af961308f565b73ffffffffffffffffffffffffffffffffffffffff168573ffffffffffffffffffffffffffffffffffffffff161480612b3f5750612b3e85612b3961308f565b612a5d565b5b612b7e576040517f08c379a0000000000000000000000000000000000000000000000000000000008152600401612b75906156ff565b60405180910390fd5b612b8b8585858585613541565b5050505050565b601360009054906101000a900473ffffffffffffffffffffffffffffffffffffffff1673ffffffffffffffffffffffffffffffffffffffff163373ffffffffffffffffffffffffffffffffffffffff161480612c3e575060011515600e60003373ffffffffffffffffffffffffffffffffffffffff1673ffffffffffffffffffffffffffffffffffffffff16815260200190815260200160002060009054906101000a900460ff161515145b612c7d576040517f08c379a0000000000000000000000000000000000000000000000000000000008152600401612c7490614d47565b60405180910390fd5b60008311612cc0576040517f08c379a0000000000000000000000000000000000000000000000000000000008152600401612cb790615745565b60405180910390fd5b601154831115612d05576040517f08c379a0000000000000000000000000000000000000000000000000000000008152600401612cfc906157b1565b60405180910390fd5b6000600d60008581526020019081526020016000205411612d5b576040517f08c379a0000000000000000000000000000000000000000000000000000000008152600401612d529061581d565b60405180910390fd5b60005b600c600085815260200190815260200160002080549050811015612f79578273ffffffffffffffffffffffffffffffffffffffff16600c60008681526020019081526020016000208281548110612db857612db7614e71565b5b9060005260206000200160009054906101000a900473ffffffffffffffffffffffffffffffffffffffff1673ffffffffffffffffffffffffffffffffffffffff161415612f6657600560009054906101000a900473ffffffffffffffffffffffffffffffffffffffff1673ffffffffffffffffffffffffffffffffffffffff16634abc9325856040518263ffffffff1660e01b8152600401612e5a9190613da2565b600060405180830381600087803b158015612e7457600080fd5b505af1158015612e88573d6000803e3d6000fd5b50505050612f0e33600c60008781526020019081526020016000208381548110612eb557612eb4614e71565b5b9060005260206000200160009054906101000a900473ffffffffffffffffffffffffffffffffffffffff166001600b60008981526020019081526020016000206009015460405180602001604052806000815250612af1565b600c60008581526020019081526020016000208181548110612f3357612f32614e71565b5b9060005260206000200160006101000a81549073ffffffffffffffffffffffffffffffffffffffff021916905550612f7b565b8080612f7190614d96565b915050612d5e565b505b505050565b600c6020528160005260406000208181548110612f9c57600080fd5b906000526020600020016000915091509054906101000a900473ffffffffffffffffffffffffffffffffffffffff1681565b600d6020528060005260406000206000915090505481565b60068181548110612ff657600080fd5b906000526020600020016000915054906101000a900473ffffffffffffffffffffffffffffffffffffffff1681565b60007f01ffc9a7000000000000000000000000000000000000000000000000000000007bffffffffffffffffffffffffffffffffffffffffffffffffffffffff1916827bffffffffffffffffffffffffffffffffffffffffffffffffffffffff1916149050919050565b600033905090565b81518351146130db576040517f08c379a00000000000000000000000000000000000000000000000000000000081526004016130d2906158af565b60405180910390fd5b600073ffffffffffffffffffffffffffffffffffffffff168473ffffffffffffffffffffffffffffffffffffffff16141561314b576040517f08c379a000000000000000000000000000000000000000000000000000000000815260040161314290615941565b60405180910390fd5b600061315561308f565b90506131658187878787876137c3565b60005b845181101561331657600085828151811061318657613185614e71565b5b6020026020010151905060008583815181106131a5576131a4614e71565b5b60200260200101519050600080600084815260200190815260200160002060008b73ffffffffffffffffffffffffffffffffffffffff1673ffffffffffffffffffffffffffffffffffffffff16815260200190815260200160002054905081811015613246576040517f08c379a000000000000000000000000000000000000000000000000000000000815260040161323d906159d3565b60405180910390fd5b81810360008085815260200190815260200160002060008c73ffffffffffffffffffffffffffffffffffffffff1673ffffffffffffffffffffffffffffffffffffffff168152602001908152602001600020819055508160008085815260200190815260200160002060008b73ffffffffffffffffffffffffffffffffffffffff1673ffffffffffffffffffffffffffffffffffffffff16815260200190815260200160002060008282546132fb9190615637565b925050819055505050508061330f90614d96565b9050613168565b508473ffffffffffffffffffffffffffffffffffffffff168673ffffffffffffffffffffffffffffffffffffffff168273ffffffffffffffffffffffffffffffffffffffff167f4a39dc06d4c0dbc64b70af90fd698a233a518aa5d07e595d983b8c0526c8f7fb878760405161338d9291906159f3565b60405180910390a46133a38187878787876137cb565b505050505050565b600073ffffffffffffffffffffffffffffffffffffffff168473ffffffffffffffffffffffffffffffffffffffff16141561341b576040517f08c379a000000000000000000000000000000000000000000000000000000000815260040161341290615a9c565b60405180910390fd5b600061342561308f565b905061344681600087613437886139a3565b613440886139a3565b876137c3565b8260008086815260200190815260200160002060008773ffffffffffffffffffffffffffffffffffffffff1673ffffffffffffffffffffffffffffffffffffffff16815260200190815260200160002060008282546134a59190615637565b925050819055508473ffffffffffffffffffffffffffffffffffffffff16600073ffffffffffffffffffffffffffffffffffffffff168273ffffffffffffffffffffffffffffffffffffffff167fc3d58168c5ae7397731d063d5bbf3d657854427343f4c083240f7aacaa2d0f628787604051613523929190615569565b60405180910390a461353a81600087878787613a1d565b5050505050565b600073ffffffffffffffffffffffffffffffffffffffff168473ffffffffffffffffffffffffffffffffffffffff1614156135b1576040517f08c379a00000000000000000000000000000000000000000000000000000000081526004016135a890615941565b60405180910390fd5b60006135bb61308f565b90506135db8187876135cc886139a3565b6135d5886139a3565b876137c3565b600080600086815260200190815260200160002060008873ffffffffffffffffffffffffffffffffffffffff1673ffffffffffffffffffffffffffffffffffffffff16815260200190815260200160002054905083811015613672576040517f08c379a0000000000000000000000000000000000000000000000000000000008152600401613669906159d3565b60405180910390fd5b83810360008087815260200190815260200160002060008973ffffffffffffffffffffffffffffffffffffffff1673ffffffffffffffffffffffffffffffffffffffff168152602001908152602001600020819055508360008087815260200190815260200160002060008873ffffffffffffffffffffffffffffffffffffffff1673ffffffffffffffffffffffffffffffffffffffff16815260200190815260200160002060008282546137279190615637565b925050819055508573ffffffffffffffffffffffffffffffffffffffff168773ffffffffffffffffffffffffffffffffffffffff168373ffffffffffffffffffffffffffffffffffffffff167fc3d58168c5ae7397731d063d5bbf3d657854427343f4c083240f7aacaa2d0f6288886040516137a4929190615569565b60405180910390a46137ba828888888888613a1d565b50505050505050565b505050505050565b6137ea8473ffffffffffffffffffffffffffffffffffffffff16613bf5565b1561399b578373ffffffffffffffffffffffffffffffffffffffff1663bc197c8187878686866040518663ffffffff1660e01b8152600401613830959493929190615b11565b6020604051808303816000875af192505050801561386c57506040513d601f19601f820116820180604052508101906138699190615b8e565b60015b61391257613878615bc8565b806308c379a014156138d5575061388d615bea565b8061389857506138d7565b806040517f08c379a00000000000000000000000000000000000000000000000000000000081526004016138cc9190613f3e565b60405180910390fd5b505b6040517f08c379a000000000000000000000000000000000000000000000000000000000815260040161390990615cf2565b60405180910390fd5b63bc197c8160e01b7bffffffffffffffffffffffffffffffffffffffffffffffffffffffff1916817bffffffffffffffffffffffffffffffffffffffffffffffffffffffff191614613999576040517f08c379a000000000000000000000000000000000000000000000000000000000815260040161399090615d84565b60405180910390fd5b505b505050505050565b60606000600167ffffffffffffffff8111156139c2576139c1613f92565b5b6040519080825280602002602001820160405280156139f05781602001602082028036833780820191505090505b5090508281600081518110613a0857613a07614e71565b5b60200260200101818152505080915050919050565b613a3c8473ffffffffffffffffffffffffffffffffffffffff16613bf5565b15613bed578373ffffffffffffffffffffffffffffffffffffffff1663f23a6e6187878686866040518663ffffffff1660e01b8152600401613a82959493929190615da4565b6020604051808303816000875af1925050508015613abe57506040513d601f19601f82011682018060405250810190613abb9190615b8e565b60015b613b6457613aca615bc8565b806308c379a01415613b275750613adf615bea565b80613aea5750613b29565b806040517f08c379a0000000000000000000000000000000000000000000000000000000008152600401613b1e9190613f3e565b60405180910390fd5b505b6040517f08c379a0000000000000000000000000000000000000000000000000000000008152600401613b5b90615cf2565b60405180910390fd5b63f23a6e6160e01b7bffffffffffffffffffffffffffffffffffffffffffffffffffffffff1916817bffffffffffffffffffffffffffffffffffffffffffffffffffffffff191614613beb576040517f08c379a0000000000000000000000000000000000000000000000000000000008152600401613be290615d84565b60405180910390fd5b505b505050505050565b600080823b905060008111915050919050565b828054613c1490614c37565b90600052602060002090601f016020900481019282613c365760008555613c7d565b82601f10613c4f57805160ff1916838001178555613c7d565b82800160010185558215613c7d579182015b82811115613c7c578251825591602001919060010190613c61565b5b509050613c8a9190613c8e565b5090565b5b80821115613ca7576000816000905550600101613c8f565b5090565b6000604051905090565b600080fd5b600080fd5b600073ffffffffffffffffffffffffffffffffffffffff82169050919050565b6000613cea82613cbf565b9050919050565b613cfa81613cdf565b8114613d0557600080fd5b50565b600081359050613d1781613cf1565b92915050565b6000819050919050565b613d3081613d1d565b8114613d3b57600080fd5b50565b600081359050613d4d81613d27565b92915050565b60008060408385031215613d6a57613d69613cb5565b5b6000613d7885828601613d08565b9250506020613d8985828601613d3e565b9150509250929050565b613d9c81613d1d565b82525050565b6000602082019050613db76000830184613d93565b92915050565b600060208284031215613dd357613dd2613cb5565b5b6000613de184828501613d08565b91505092915050565b60008115159050919050565b613dff81613dea565b82525050565b6000602082019050613e1a6000830184613df6565b92915050565b60007fffffffff0000000000000000000000000000000000000000000000000000000082169050919050565b613e5581613e20565b8114613e6057600080fd5b50565b600081359050613e7281613e4c565b92915050565b600060208284031215613e8e57613e8d613cb5565b5b6000613e9c84828501613e63565b91505092915050565b600081519050919050565b600082825260208201905092915050565b60005b83811015613edf578082015181840152602081019050613ec4565b83811115613eee576000848401525b50505050565b6000601f19601f8301169050919050565b6000613f1082613ea5565b613f1a8185613eb0565b9350613f2a818560208601613ec1565b613f3381613ef4565b840191505092915050565b60006020820190508181036000830152613f588184613f05565b905092915050565b600060208284031215613f7657613f75613cb5565b5b6000613f8484828501613d3e565b91505092915050565b600080fd5b7f4e487b7100000000000000000000000000000000000000000000000000000000600052604160045260246000fd5b613fca82613ef4565b810181811067ffffffffffffffff82111715613fe957613fe8613f92565b5b80604052505050565b6000613ffc613cab565b90506140088282613fc1565b919050565b600067ffffffffffffffff82111561402857614027613f92565b5b602082029050602081019050919050565b600080fd5b600061405161404c8461400d565b613ff2565b9050808382526020820190506020840283018581111561407457614073614039565b5b835b8181101561409d57806140898882613d3e565b845260208401935050602081019050614076565b5050509392505050565b600082601f8301126140bc576140bb613f8d565b5b81356140cc84826020860161403e565b91505092915050565b600080fd5b600067ffffffffffffffff8211156140f5576140f4613f92565b5b6140fe82613ef4565b9050602081019050919050565b82818337600083830152505050565b600061412d614128846140da565b613ff2565b905082815260208101848484011115614149576141486140d5565b5b61415484828561410b565b509392505050565b600082601f83011261417157614170613f8d565b5b813561418184826020860161411a565b91505092915050565b600080600080600060a086880312156141a6576141a5613cb5565b5b60006141b488828901613d08565b95505060206141c588828901613d08565b945050604086013567ffffffffffffffff8111156141e6576141e5613cba565b5b6141f2888289016140a7565b935050606086013567ffffffffffffffff81111561421357614212613cba565b5b61421f888289016140a7565b925050608086013567ffffffffffffffff8111156142405761423f613cba565b5b61424c8882890161415c565b9150509295509295909350565b600067ffffffffffffffff82111561427457614273613f92565b5b61427d82613ef4565b9050602081019050919050565b600061429d61429884614259565b613ff2565b9050828152602081018484840111156142b9576142b86140d5565b5b6142c484828561410b565b509392505050565b600082601f8301126142e1576142e0613f8d565b5b81356142f184826020860161428a565b91505092915050565b60008060006060848603121561431357614312613cb5565b5b600061432186828701613d3e565b935050602084013567ffffffffffffffff81111561434257614341613cba565b5b61434e868287016142cc565b925050604084013567ffffffffffffffff81111561436f5761436e613cba565b5b61437b868287016142cc565b9150509250925092565b600060608201905061439a6000830186613d93565b81810360208301526143ac8185613f05565b905081810360408301526143c08184613f05565b9050949350505050565b600067ffffffffffffffff8211156143e5576143e4613f92565b5b602082029050602081019050919050565b6000614409614404846143ca565b613ff2565b9050808382526020820190506020840283018581111561442c5761442b614039565b5b835b8181101561445557806144418882613d08565b84526020840193505060208101905061442e565b5050509392505050565b600082601f83011261447457614473613f8d565b5b81356144848482602086016143f6565b91505092915050565b600080604083850312156144a4576144a3613cb5565b5b600083013567ffffffffffffffff8111156144c2576144c1613cba565b5b6144ce8582860161445f565b925050602083013567ffffffffffffffff8111156144ef576144ee613cba565b5b6144fb858286016140a7565b9150509250929050565b600081519050919050565b600082825260208201905092915050565b6000819050602082019050919050565b61453a81613d1d565b82525050565b600061454c8383614531565b60208301905092915050565b6000602082019050919050565b600061457082614505565b61457a8185614510565b935061458583614521565b8060005b838110156145b657815161459d8882614540565b97506145a883614558565b925050600181019050614589565b5085935050505092915050565b600060208201905081810360008301526145dd8184614565565b905092915050565b6145ee81613dea565b81146145f957600080fd5b50565b60008135905061460b816145e5565b92915050565b6000806040838503121561462857614627613cb5565b5b600061463685828601613d08565b9250506020614647858286016145fc565b9150509250929050565b60008060008060008060c0878903121561466e5761466d613cb5565b5b600061467c89828a01613d3e565b965050602061468d89828a01613d3e565b955050604087013567ffffffffffffffff8111156146ae576146ad613cba565b5b6146ba89828a016142cc565b945050606087013567ffffffffffffffff8111156146db576146da613cba565b5b6146e789828a016142cc565b935050608087013567ffffffffffffffff81111561470857614707613cba565b5b61471489828a016142cc565b92505060a061472589828a01613d3e565b9150509295509295509295565b600082825260208201905092915050565b600061474e82613ea5565b6147588185614732565b9350614768818560208601613ec1565b61477181613ef4565b840191505092915050565b61478581613cdf565b82525050565b600060a0830160008301516147a36000860182614531565b50602083015184820360208601526147bb8282614743565b915050604083015184820360408601526147d58282614743565b91505060608301516147ea6060860182614531565b5060808301516147fd608086018261477c565b508091505092915050565b600060e08201905061481d600083018a613d93565b818103602083015261482f818961478b565b905081810360408301526148438188613f05565b905081810360608301526148578187613f05565b90506148666080830186613d93565b61487360a0830185613d93565b61488060c0830184613d93565b98975050505050505050565b61489581613cdf565b82525050565b600060a0820190506148b06000830188613d93565b81810360208301526148c28187613f05565b905081810360408301526148d68186613f05565b90506148e56060830185613d93565b6148f2608083018461488c565b9695505050505050565b6000602082019050614911600083018461488c565b92915050565b6000806000606084860312156149305761492f613cb5565b5b600061493e86828701613d08565b935050602061494f86828701613d3e565b925050604061496086828701613d3e565b9150509250925092565b600080600080600080600060e0888a03121561498957614988613cb5565b5b60006149978a828b01613d08565b97505060206149a88a828b01613d08565b96505060406149b98a828b01613d3e565b95505060606149ca8a828b016145fc565b94505060806149db8a828b016145fc565b93505060a06149ec8a828b01613d3e565b92505060c06149fd8a828b01613d3e565b91505092959891949750929550565b60008060408385031215614a2357614a22613cb5565b5b6000614a3185828601613d08565b9250506020614a4285828601613d08565b9150509250929050565b600080600080600060a08688031215614a6857614a67613cb5565b5b6000614a7688828901613d08565b9550506020614a8788828901613d08565b9450506040614a9888828901613d3e565b9350506060614aa988828901613d3e565b925050608086013567ffffffffffffffff811115614aca57614ac9613cba565b5b614ad68882890161415c565b9150509295509295909350565b600080600060608486031215614afc57614afb613cb5565b5b6000614b0a86828701613d3e565b9350506020614b1b86828701613d08565b9250506040614b2c86828701613d3e565b9150509250925092565b60008060408385031215614b4d57614b4c613cb5565b5b6000614b5b85828601613d3e565b9250506020614b6c85828601613d3e565b9150509250929050565b7f455243313135353a2062616c616e636520717565727920666f7220746865207a60008201527f65726f2061646472657373000000000000000000000000000000000000000000602082015250565b6000614bd2602b83613eb0565b9150614bdd82614b76565b604082019050919050565b60006020820190508181036000830152614c0181614bc5565b9050919050565b7f4e487b7100000000000000000000000000000000000000000000000000000000600052602260045260246000fd5b60006002820490506001821680614c4f57607f821691505b60208210811415614c6357614c62614c08565b5b50919050565b7f455243313135353a207472616e736665722063616c6c6572206973206e6f742060008201527f6f776e6572206e6f7220617070726f7665640000000000000000000000000000602082015250565b6000614cc5603283613eb0565b9150614cd082614c69565b604082019050919050565b60006020820190508181036000830152614cf481614cb8565b9050919050565b7f536f6c6f20696c2070726f70726965746172696f000000000000000000000000600082015250565b6000614d31601483613eb0565b9150614d3c82614cfb565b602082019050919050565b60006020820190508181036000830152614d6081614d24565b9050919050565b7f4e487b7100000000000000000000000000000000000000000000000000000000600052601160045260246000fd5b6000614da182613d1d565b91507fffffffffffffffffffffffffffffffffffffffffffffffffffffffffffffffff821415614dd457614dd3614d67565b5b600182019050919050565b7f455243313135353a206163636f756e747320616e6420696473206c656e67746860008201527f206d69736d617463680000000000000000000000000000000000000000000000602082015250565b6000614e3b602983613eb0565b9150614e4682614ddf565b604082019050919050565b60006020820190508181036000830152614e6a81614e2e565b9050919050565b7f4e487b7100000000000000000000000000000000000000000000000000000000600052603260045260246000fd5b7f436f696e204e6f74206578697374000000000000000000000000000000000000600082015250565b6000614ed6600e83613eb0565b9150614ee182614ea0565b602082019050919050565b60006020820190508181036000830152614f0581614ec9565b9050919050565b7f417661696c61626c650000000000000000000000000000000000000000000000600082015250565b6000614f42600983613eb0565b9150614f4d82614f0c565b602082019050919050565b6000604082019050614f6d6000830184613d93565b8181036020830152614f7e81614f35565b905092915050565b600081519050614f95816145e5565b92915050565b600060208284031215614fb157614fb0613cb5565b5b6000614fbf84828501614f86565b91505092915050565b6000819050919050565b6000819050919050565b6000614ff7614ff2614fed84614fc8565b614fd2565b613d1d565b9050919050565b61500781614fdc565b82525050565b600060a0820190506150226000830188613d93565b81810360208301526150348187613f05565b905081810360408301526150488186613f05565b90506150576060830185614ffe565b615064608083018461488c565b9695505050505050565b60008160001c9050919050565b6000819050919050565b60006150986150938361506e565b61507b565b9050919050565b60008190508160005260206000209050919050565b600081546150c181614c37565b6150cb8186614732565b945060018216600081146150e657600181146150f85761512b565b60ff198316865260208601935061512b565b6151018561509f565b60005b8381101561512357815481890152600182019150602081019050615104565b808801955050505b50505092915050565b600073ffffffffffffffffffffffffffffffffffffffff82169050919050565b60006151676151628361506e565b615134565b9050919050565b600060a08301600080840154905061518581615085565b6151926000870182614531565b506001840185830360208701526151a983826150b4565b9250506002840185830360408701526151c283826150b4565b925050600384015490506151d581615085565b6151e26060870182614531565b50600484015490506151f381615154565b615200608087018261477c565b50819250505092915050565b600060e082019050615221600083018a613d93565b8181036020830152615233818961516e565b905081810360408301526152478188613f05565b9050818103606083015261525b8187613f05565b905061526a6080830186613d93565b61527760a0830185613d93565b61528460c0830184613d93565b98975050505050505050565b7f455243313135353a2073657474696e6720617070726f76616c2073746174757360008201527f20666f722073656c660000000000000000000000000000000000000000000000602082015250565b60006152ec602983613eb0565b91506152f782615290565b604082019050919050565b6000602082019050818103600083015261531b816152df565b9050919050565b600081905092915050565b60008190508160005260206000209050919050565b6000815461534f81614c37565b6153598186615322565b945060018216600081146153745760018114615385576153b8565b60ff198316865281860193506153b8565b61538e8561532d565b60005b838110156153b057815481890152600182019150602081019050615391565b838801955050505b50505092915050565b60006153cd8284615342565b915081905092915050565b7f746f6b656e206e6f742074727565000000000000000000000000000000000000600082015250565b600061540e600e83613eb0565b9150615419826153d8565b602082019050919050565b6000602082019050818103600083015261543d81615401565b9050919050565b600061545761545284614259565b613ff2565b905082815260208101848484011115615473576154726140d5565b5b61547e848285613ec1565b509392505050565b600082601f83011261549b5761549a613f8d565b5b81516154ab848260208601615444565b91505092915050565b6000602082840312156154ca576154c9613cb5565b5b600082015167ffffffffffffffff8111156154e8576154e7613cba565b5b6154f484828501615486565b91505092915050565b7f746f6b656e2069732077616974696e6720000000000000000000000000000000600082015250565b6000615533601183613eb0565b915061553e826154fd565b602082019050919050565b6000602082019050818103600083015261556281615526565b9050919050565b600060408201905061557e6000830185613d93565b61558b6020830184613d93565b9392505050565b60006080820190506155a76000830187613d93565b6155b46020830186613d93565b6155c16040830185613d93565b6155ce606083018461488c565b95945050505050565b60006040820190506155ec6000830185613d93565b6155f9602083018461488c565b9392505050565b60006060820190506156156000830186613d93565b615622602083018561488c565b61562f6040830184613d93565b949350505050565b600061564282613d1d565b915061564d83613d1d565b9250827fffffffffffffffffffffffffffffffffffffffffffffffffffffffffffffffff0382111561568257615681614d67565b5b828201905092915050565b7f455243313135353a2063616c6c6572206973206e6f74206f776e6572206e6f7260008201527f20617070726f7665640000000000000000000000000000000000000000000000602082015250565b60006156e9602983613eb0565b91506156f48261568d565b604082019050919050565b60006020820190508181036000830152615718816156dc565b9050919050565b50565b600061572f600083613eb0565b915061573a8261571f565b600082019050919050565b6000602082019050818103600083015261575e81615722565b9050919050565b7f6974656d206e6f74206578697374730000000000000000000000000000000000600082015250565b600061579b600f83613eb0565b91506157a682615765565b602082019050919050565b600060208201905081810360008301526157ca8161578e565b9050919050565b7f546f6b656e206e6f742065786973747300000000000000000000000000000000600082015250565b6000615807601083613eb0565b9150615812826157d1565b602082019050919050565b60006020820190508181036000830152615836816157fa565b9050919050565b7f455243313135353a2069647320616e6420616d6f756e7473206c656e6774682060008201527f6d69736d61746368000000000000000000000000000000000000000000000000602082015250565b6000615899602883613eb0565b91506158a48261583d565b604082019050919050565b600060208201905081810360008301526158c88161588c565b9050919050565b7f455243313135353a207472616e7366657220746f20746865207a65726f20616460008201527f6472657373000000000000000000000000000000000000000000000000000000602082015250565b600061592b602583613eb0565b9150615936826158cf565b604082019050919050565b6000602082019050818103600083015261595a8161591e565b9050919050565b7f455243313135353a20696e73756666696369656e742062616c616e636520666f60008201527f72207472616e7366657200000000000000000000000000000000000000000000602082015250565b60006159bd602a83613eb0565b91506159c882615961565b604082019050919050565b600060208201905081810360008301526159ec816159b0565b9050919050565b60006040820190508181036000830152615a0d8185614565565b90508181036020830152615a218184614565565b90509392505050565b7f455243313135353a206d696e7420746f20746865207a65726f2061646472657360008201527f7300000000000000000000000000000000000000000000000000000000000000602082015250565b6000615a86602183613eb0565b9150615a9182615a2a565b604082019050919050565b60006020820190508181036000830152615ab581615a79565b9050919050565b600081519050919050565b600082825260208201905092915050565b6000615ae382615abc565b615aed8185615ac7565b9350615afd818560208601613ec1565b615b0681613ef4565b840191505092915050565b600060a082019050615b26600083018861488c565b615b33602083018761488c565b8181036040830152615b458186614565565b90508181036060830152615b598185614565565b90508181036080830152615b6d8184615ad8565b90509695505050505050565b600081519050615b8881613e4c565b92915050565b600060208284031215615ba457615ba3613cb5565b5b6000615bb284828501615b79565b91505092915050565b60008160e01c9050919050565b600060033d1115615be75760046000803e615be4600051615bbb565b90505b90565b600060443d1015615bfa57615c7d565b615c02613cab565b60043d036004823e80513d602482011167ffffffffffffffff82111715615c2a575050615c7d565b808201805167ffffffffffffffff811115615c485750505050615c7d565b80602083010160043d038501811115615c65575050505050615c7d565b615c7482602001850186613fc1565b82955050505050505b90565b7f455243313135353a207472616e7366657220746f206e6f6e204552433131353560008201527f526563656976657220696d706c656d656e746572000000000000000000000000602082015250565b6000615cdc603483613eb0565b9150615ce782615c80565b604082019050919050565b60006020820190508181036000830152615d0b81615ccf565b9050919050565b7f455243313135353a204552433131353552656365697665722072656a6563746560008201527f6420746f6b656e73000000000000000000000000000000000000000000000000602082015250565b6000615d6e602883613eb0565b9150615d7982615d12565b604082019050919050565b60006020820190508181036000830152615d9d81615d61565b9050919050565b600060a082019050615db9600083018861488c565b615dc6602083018761488c565b615dd36040830186613d93565b615de06060830185613d93565b8181036080830152615df28184615ad8565b9050969550505050505056fea2646970667358221220c239bc0b4d44660921912d7b643dee26264d5d075bea1541f59db6b7c0fa208864736f6c634300080a0033",
  "immutableReferences": {},
  "source": "// contracts/LoanItem.sol\r\n// SPDX-License-Identifier: MIT\r\npragma solidity ^0.8.0;\r\n\r\nimport \"@openzeppelin/contracts/token/ERC1155/ERC1155.sol\";\r\nimport\"./LitemCalendar.sol\";\r\ncontract LoanItem is ERC1155{\r\n    \r\n    string public name = \"LoanItem\";\r\n    string  public symbol = \"LI\";\r\n    Calendar Calendario;\r\n    \r\n    address[] public stakers;\r\n    mapping(address => uint) public stakingBalance;\r\n    mapping(address => bool) public hasStaked;\r\n    mapping(address => bool) public isStaking;\r\n    \r\n   \r\n     mapping(uint => Image)public images;\r\n     mapping(uint => TokenNFT)public tokenId;\r\n     mapping(uint256=>address[]) public CautionId;\r\n     mapping(uint256 => uint256) public ids;\r\n\r\n     mapping(address => bool) public permissions;\r\n\r\n     mapping(uint256 => CoinFT) public CoinId;\r\n     mapping(uint256 => uint256) public Cds;\r\n   \r\n\r\n\r\n    struct Image {\r\n      uint id;\r\n      string hash;\r\n      string description;\r\n      uint tokenId;\r\n      address author;\r\n    }\r\n\r\n    event ImageCreated(\r\n      uint id,\r\n      string hash,\r\n      string description,\r\n      uint tokenId,\r\n      address  author\r\n      );\r\n\r\n     struct TokenNFT {\r\n      uint id;\r\n      Image  phots;\r\n      string description;\r\n      string namet;\r\n      uint256 pricel;\r\n      uint256 caution;\r\n      uint256 Cid;\r\n      \r\n    }\r\n    event TokenNFTCreated(\r\n      uint id,\r\n      Image  phots,\r\n      string description,\r\n      string namet,\r\n      uint256 pricel,\r\n      uint256 caution,\r\n      uint256 Cid\r\n      );\r\n\r\n     struct CoinFT {\r\n      uint id;\r\n      //Image  phots;\r\n      string description;\r\n      string namec;\r\n    }\r\n    event CoinFTCreated(\r\n      uint id,\r\n      //Image  phots,\r\n      string description,\r\n      string namec\r\n      );\r\n\r\n\r\n    uint256 public countAttrezzi;\r\n    uint256 public imageCount;\r\n    address public owner;\r\n   \r\n\r\n  constructor(address _owner,Calendar Cad) public ERC1155(\"\") {  \r\n         owner = _owner;\r\n         permissions[owner]= true;\r\n         Calendario = Cad;\r\n         }\r\n    \r\n\r\n\r\n // function addMoreCoin()public{}\r\n\r\n\r\n  function addNewCoin( uint256 value,string memory Name,string memory description )external {\r\n          require (msg.sender == owner || permissions[msg.sender]== true , \"Solo il proprietario\");\r\n          require(bytes(Name).length>0);\r\n          require(value>0);\r\n          countAttrezzi++;\r\n         _mint(msg.sender, countAttrezzi, value, \"\");\r\n          Cds[countAttrezzi]= countAttrezzi;\r\n          CoinId[countAttrezzi]= CoinFT(countAttrezzi,description,Name);\r\n          emit CoinFTCreated(countAttrezzi,description,Name);\r\n      } \r\n\r\n\r\n\r\n    modifier propriety(){ \r\n\r\n        require (msg.sender == owner || permissions[msg.sender]== true , \"Solo il proprietario\");       \r\n        _;\r\n    }\r\n      function setPermissions(address ute,bool setting) external propriety {\r\n\r\n      \r\n        permissions[ute]= setting;\r\n\r\n      }\r\n    \r\n\r\n      function addNewItem(uint256 price,uint256 caution,string memory _imgHash,string memory _description, string memory namef,uint256 Cid) external propriety {\r\n     \r\n      \r\n        require(caution > 0);\r\n        require(bytes(namef).length > 0);\r\n        require((price) > 0);\r\n        require(bytes(_description).length > 0);\r\n        require(bytes(_imgHash).length > 0);\r\n        require(msg.sender != address(0x0));\r\n        require(bytes(CoinId[Cid].namec).length > 0,\"Coin Not exist\");//controllo che il coin esiste aggiungere che il coin esiste\r\n\r\n        imageCount ++;\r\n        countAttrezzi++;\r\n       \r\n        Calendario.setAvailable(countAttrezzi,\"Available\"); \r\n     \r\n\r\n      \r\n        ids[countAttrezzi]=countAttrezzi;\r\n          \r\n        _mint(msg.sender, ids[countAttrezzi], 1, \"\");\r\n  \r\n  \r\n        images[imageCount] = Image(imageCount,_imgHash,_description,0,owner);\r\n        tokenId[countAttrezzi] = TokenNFT(countAttrezzi,images[imageCount],_description,namef,price,caution,Cid);\r\n        //causa l'evento \r\n        emit ImageCreated(imageCount,_imgHash,_description,0,owner);\r\n        emit TokenNFTCreated(countAttrezzi,images[imageCount],_description,namef,price,caution,Cid);    \r\n    }\r\n   \r\n      function TrasferTest(address _from, address _to, uint256 _id,bool pre,bool acq,uint256 dateS,uint256 dateF) external {\r\n\r\n        //aggiungere il metodo che controlla le prenotazioni \r\n\r\n          //require(address(_from)!=address(0x0), \"address _from is 0x0\");\r\n          //require(address(_to)!=address(0x0), \"address _to is 0x0\");\r\n          require(keccak256(bytes(tokenId[_id].namet))> 0, \"token not true\");  \r\n          require(keccak256(bytes(Calendario.Available(_id))) != keccak256(bytes(\"Waiting\")),\"token is waiting \");\r\n          \r\n          if(dateS>0 &&_to == owner  && keccak256(bytes(Calendario.Available(_id))) == keccak256(bytes(\"Busy\"))){\r\n            //riconsegna item\r\n            if(Calendario.Back(_id,dateS)){\r\n            safeTransferFrom( _from,_to, _id,1,\"\");\r\n            CautionId[_id].push(_from);\r\n            return;\r\n          }\r\n            }\r\n            else if(_to == owner  && keccak256(bytes(Calendario.Available(_id))) == keccak256(bytes(\"Preordered\"))){\r\n              //caso in cui voglio cancellare una prenotazione\r\n              return;\r\n            }\r\n            else if(_from == owner/*&& Calendario.CheckAvialable()*/){\r\n              if(pre && !(acq) && dateF>0){//preOrder pago la cauzione in anticipo\r\n                      \r\n                if(Calendario.Pre_Order(dateS,dateF,_id,msg.sender)) {\r\n                 safeTransferFrom( _to,_from,tokenId[_id].Cid,tokenId[_id].caution,\"\");\r\n                 CautionId[_id].push(_to);\r\n                 return;\r\n              }\r\n                return;\r\n            }\r\n              if(acq && !(pre)){ \r\n\r\n                for(uint256 i; i < CautionId[_id].length;i++){\r\n                if(CautionId[_id][i]== msg.sender){\r\n                //per fare l'acquire di un oggetto prenotato devo verificare la data inizio\r\n                //e poi pagare l'oggetto \r\n                if(Calendario.AcquirePre(_id,msg.sender)){\r\n\r\n                   safeTransferFrom( _to,_from,tokenId[_id].Cid,tokenId[_id].pricel,\"\");\r\n                    return;\r\n              }}}\r\n                \r\n              }\r\n\r\n              //in caso di acquisto normale \r\n              if(dateF>0 && acq && pre){\r\n              if(Calendario.Acquire(_id,msg.sender,dateF)){\r\n              safeTransferFrom( _to,_from,tokenId[_id].Cid,tokenId[_id].pricel+tokenId[_id].caution,\"\");  \r\n              safeTransferFrom( _from,_to, _id,1,\"\");\r\n              CautionId[_id].push(_to);\r\n            }}}\r\n          return;\r\n      }\r\n  \r\n      \r\n      function GiveToken(address _to,uint256 coin,uint256 value) external propriety {\r\n        safeTransferFrom( msg.sender,_to, coin,100000000000000000000,\"\");\r\n      }\r\n\r\n      function ReleseW(uint256 _id,address _usr, uint256 _caution )  external propriety{\r\n    //si potrebbe gestire il caso in cui la cauzione restituita sia variabile\r\n        require(_id>0,\"\");\r\n        require(_id<=countAttrezzi,\"item not exists\");\r\n        require(ids[_id]>0,\"Token not exists\" );\r\n       \r\n\r\n       \r\n       for(uint256 i; i<CautionId[_id].length;i++){\r\n        if(CautionId[_id][i]==_usr){\r\n        Calendario.Relese(_id);\r\n        safeTransferFrom( msg.sender,CautionId[_id][i], 1, tokenId[_id].caution,\"\");\r\n        delete CautionId[_id][i];\r\n         return;\r\n         }}\r\n         \r\n      }\r\n    \r\n   \r\n    }\r\n\r\n\r\n\r\n\r\n\r\n\r\n\r\n\r\n\r\n",
  "sourcePath": "C:\\Users\\Luca\\Desktop\\tesi\\My-tesi\\src\\contracts\\LoanItem.sol",
  "compiler": {
    "name": "solc",
    "version": "0.8.10+commit.fc410830.Emscripten.clang"
  },
  "schemaVersion": "3.4.1",
  "updatedAt": "2021-12-03T11:34:38.804Z",
  "devdoc": {
    "kind": "dev",
    "methods": {
      "balanceOf(address,uint256)": {
        "details": "See {IERC1155-balanceOf}. Requirements: - `account` cannot be the zero address."
      },
      "balanceOfBatch(address[],uint256[])": {
        "details": "See {IERC1155-balanceOfBatch}. Requirements: - `accounts` and `ids` must have the same length."
      },
      "isApprovedForAll(address,address)": {
        "details": "See {IERC1155-isApprovedForAll}."
      },
      "safeBatchTransferFrom(address,address,uint256[],uint256[],bytes)": {
        "details": "See {IERC1155-safeBatchTransferFrom}."
      },
      "safeTransferFrom(address,address,uint256,uint256,bytes)": {
        "details": "See {IERC1155-safeTransferFrom}."
      },
      "setApprovalForAll(address,bool)": {
        "details": "See {IERC1155-setApprovalForAll}."
      },
      "supportsInterface(bytes4)": {
        "details": "See {IERC165-supportsInterface}."
      },
      "uri(uint256)": {
        "details": "See {IERC1155MetadataURI-uri}. This implementation returns the same URI for *all* token types. It relies on the token type ID substitution mechanism https://eips.ethereum.org/EIPS/eip-1155#metadata[defined in the EIP]. Clients calling this function must replace the `\\{id\\}` substring with the actual token type ID."
      }
    },
    "version": 1
  },
  "userdoc": {
    "kind": "user",
    "methods": {},
    "version": 1
  }
}