{
  "contractName": "TokenFactory",
  "abi": [
    {
      "inputs": [],
      "stateMutability": "nonpayable",
      "type": "constructor"
    },
    {
      "anonymous": false,
      "inputs": [
        {
          "indexed": true,
          "internalType": "address",
          "name": "_from",
          "type": "address"
        },
        {
          "indexed": true,
          "internalType": "address",
          "name": "_who",
          "type": "address"
        }
      ],
      "name": "AdminAdded",
      "type": "event"
    },
    {
      "anonymous": false,
      "inputs": [
        {
          "indexed": true,
          "internalType": "address",
          "name": "_from",
          "type": "address"
        },
        {
          "indexed": false,
          "internalType": "uint256",
          "name": "_timestamp",
          "type": "uint256"
        },
        {
          "indexed": false,
          "internalType": "address",
          "name": "_contractAddress",
          "type": "address"
        },
        {
          "indexed": false,
          "internalType": "string",
          "name": "_name",
          "type": "string"
        },
        {
          "indexed": false,
          "internalType": "string",
          "name": "_symbol",
          "type": "string"
        },
        {
          "indexed": false,
          "internalType": "uint8",
          "name": "_decimals",
          "type": "uint8"
        },
        {
          "indexed": false,
          "internalType": "string",
          "name": "_logoURL",
          "type": "string"
        },
        {
          "indexed": false,
          "internalType": "uint256",
          "name": "_hardCap",
          "type": "uint256"
        }
      ],
      "name": "TokenAdded",
      "type": "event"
    },
    {
      "anonymous": false,
      "inputs": [
        {
          "indexed": true,
          "internalType": "address",
          "name": "_from",
          "type": "address"
        },
        {
          "indexed": false,
          "internalType": "string",
          "name": "_op",
          "type": "string"
        },
        {
          "indexed": false,
          "internalType": "string",
          "name": "_msg",
          "type": "string"
        }
      ],
      "name": "factoryDebug",
      "type": "event"
    },
    {
      "inputs": [
        {
          "internalType": "address",
          "name": "_address",
          "type": "address"
        }
      ],
      "name": "makeAdmin",
      "outputs": [],
      "stateMutability": "nonpayable",
      "type": "function"
    },
    {
      "inputs": [],
      "name": "getAllTokenAddresses",
      "outputs": [
        {
          "internalType": "address[]",
          "name": "",
          "type": "address[]"
        }
      ],
      "stateMutability": "view",
      "type": "function"
    },
    {
      "inputs": [
        {
          "internalType": "address",
          "name": "tokenAddress",
          "type": "address"
        }
      ],
      "name": "getTokenByAddress",
      "outputs": [
        {
          "internalType": "address",
          "name": "",
          "type": "address"
        },
        {
          "internalType": "string",
          "name": "",
          "type": "string"
        },
        {
          "internalType": "string",
          "name": "",
          "type": "string"
        },
        {
          "internalType": "uint8",
          "name": "",
          "type": "uint8"
        },
        {
          "internalType": "string",
          "name": "",
          "type": "string"
        },
        {
          "internalType": "address",
          "name": "",
          "type": "address"
        },
        {
          "internalType": "bool",
          "name": "",
          "type": "bool"
        }
      ],
      "stateMutability": "view",
      "type": "function"
    },
    {
      "inputs": [
        {
          "internalType": "string",
          "name": "symbol",
          "type": "string"
        }
      ],
      "name": "getToken",
      "outputs": [
        {
          "internalType": "address",
          "name": "",
          "type": "address"
        },
        {
          "internalType": "string",
          "name": "",
          "type": "string"
        },
        {
          "internalType": "string",
          "name": "",
          "type": "string"
        },
        {
          "internalType": "uint8",
          "name": "",
          "type": "uint8"
        },
        {
          "internalType": "string",
          "name": "",
          "type": "string"
        },
        {
          "internalType": "address",
          "name": "",
          "type": "address"
        },
        {
          "internalType": "bool",
          "name": "",
          "type": "bool"
        }
      ],
      "stateMutability": "view",
      "type": "function"
    },
    {
      "inputs": [
        {
          "internalType": "address",
          "name": "_possessor",
          "type": "address"
        },
        {
          "internalType": "address",
          "name": "_tokenAddress",
          "type": "address"
        }
      ],
      "name": "addToPossessed",
      "outputs": [],
      "stateMutability": "nonpayable",
      "type": "function"
    },
    {
      "inputs": [
        {
          "internalType": "address",
          "name": "_possessor",
          "type": "address"
        }
      ],
      "name": "getPossessedTokens",
      "outputs": [
        {
          "internalType": "address[]",
          "name": "",
          "type": "address[]"
        }
      ],
      "stateMutability": "view",
      "type": "function"
    },
    {
      "inputs": [
        {
          "internalType": "string",
          "name": "_name",
          "type": "string"
        },
        {
          "internalType": "string",
          "name": "_symbol",
          "type": "string"
        },
        {
          "internalType": "uint8",
          "name": "_decimals",
          "type": "uint8"
        },
        {
          "internalType": "string",
          "name": "_logoURL",
          "type": "string"
        },
        {
          "internalType": "string",
          "name": "_logoHash",
          "type": "string"
        },
        {
          "internalType": "uint256",
          "name": "_hardCap",
          "type": "uint256"
        },
        {
          "internalType": "string",
          "name": "_contractHash",
          "type": "string"
        }
      ],
      "name": "createToken",
      "outputs": [],
      "stateMutability": "nonpayable",
      "type": "function"
    }
  ],
  "bytecode": "0x608060405234801561001057600080fd5b506001600360003373ffffffffffffffffffffffffffffffffffffffff1673ffffffffffffffffffffffffffffffffffffffff16815260200190815260200160002060006101000a81548160ff0219169083151502179055503373ffffffffffffffffffffffffffffffffffffffff16600073ffffffffffffffffffffffffffffffffffffffff167fbf3f493c772c8c283fd124432c2d0f539ab343faa04258fe88e52912d36b102b60405160405180910390a36141f9806100d36000396000f3fe60806040523480156200001157600080fd5b5060043610620000885760003560e01c80639a1c4f1711620000635780639a1c4f17146200010b578063b2c57dea146200012b578063c1733f681462000161578063c8eef2a9146200019d5762000088565b8063472905ca146200008d5780636d4ae68014620000ad57806391ded8fa14620000cf575b600080fd5b620000ab6004803603810190620000a5919062001790565b620001bd565b005b620000b762000301565b604051620000c6919062001890565b60405180910390f35b620000ed6004803603810190620000e7919062001790565b62000391565b604051620001029796959493929190620019a4565b60405180910390f35b62000129600480360381019062000123919062001bf3565b6200079e565b005b62000149600480360381019062000143919062001790565b62000cd0565b60405162000158919062001890565b60405180910390f35b6200017f600480360381019062000179919062001d41565b62000da2565b604051620001949796959493929190620019a4565b60405180910390f35b620001bb6004803603810190620001b5919062001d92565b620010d6565b005b600360003373ffffffffffffffffffffffffffffffffffffffff1673ffffffffffffffffffffffffffffffffffffffff16815260200190815260200160002060009054906101000a900460ff166200024c576040517f08c379a0000000000000000000000000000000000000000000000000000000008152600401620002439062001e4f565b60405180910390fd5b6001600360008373ffffffffffffffffffffffffffffffffffffffff1673ffffffffffffffffffffffffffffffffffffffff16815260200190815260200160002060006101000a81548160ff0219169083151502179055508073ffffffffffffffffffffffffffffffffffffffff163373ffffffffffffffffffffffffffffffffffffffff167fbf3f493c772c8c283fd124432c2d0f539ab343faa04258fe88e52912d36b102b60405160405180910390a350565b606060058054806020026020016040519081016040528092919081815260200182805480156200038757602002820191906000526020600020905b8160009054906101000a900473ffffffffffffffffffffffffffffffffffffffff1673ffffffffffffffffffffffffffffffffffffffff16815260200190600101908083116200033c575b5050505050905090565b600060608060006060600080600160008973ffffffffffffffffffffffffffffffffffffffff1673ffffffffffffffffffffffffffffffffffffffff16815260200190815260200160002060000160009054906101000a900473ffffffffffffffffffffffffffffffffffffffff16600160008a73ffffffffffffffffffffffffffffffffffffffff1673ffffffffffffffffffffffffffffffffffffffff168152602001908152602001600020600101600160008b73ffffffffffffffffffffffffffffffffffffffff1673ffffffffffffffffffffffffffffffffffffffff168152602001908152602001600020600201600160008c73ffffffffffffffffffffffffffffffffffffffff1673ffffffffffffffffffffffffffffffffffffffff16815260200190815260200160002060030160009054906101000a900460ff16600160008d73ffffffffffffffffffffffffffffffffffffffff1673ffffffffffffffffffffffffffffffffffffffff168152602001908152602001600020600401600160008e73ffffffffffffffffffffffffffffffffffffffff1673ffffffffffffffffffffffffffffffffffffffff16815260200190815260200160002060050160009054906101000a900473ffffffffffffffffffffffffffffffffffffffff16600160008f73ffffffffffffffffffffffffffffffffffffffff1673ffffffffffffffffffffffffffffffffffffffff16815260200190815260200160002060070160009054906101000a900460ff16858054620005d79062001ea0565b80601f0160208091040260200160405190810160405280929190818152602001828054620006059062001ea0565b8015620006565780601f106200062a5761010080835404028352916020019162000656565b820191906000526020600020905b8154815290600101906020018083116200063857829003601f168201915b505050505095508480546200066b9062001ea0565b80601f0160208091040260200160405190810160405280929190818152602001828054620006999062001ea0565b8015620006ea5780601f10620006be57610100808354040283529160200191620006ea565b820191906000526020600020905b815481529060010190602001808311620006cc57829003601f168201915b50505050509450828054620006ff9062001ea0565b80601f01602080910402602001604051908101604052809291908181526020018280546200072d9062001ea0565b80156200077e5780601f1062000752576101008083540402835291602001916200077e565b820191906000526020600020905b8154815290600101906020018083116200076057829003601f168201915b505050505092509650965096509650965096509650919395979092949650565b60001515600087604051620007b4919062001f18565b908152602001604051809103902060009054906101000a900460ff1615151462000815576040517f08c379a00000000000000000000000000000000000000000000000000000000081526004016200080c9062001fcd565b60405180910390fd5b60008787878787873388306040516200082e9062001602565b620008429998979695949392919062002000565b604051809103906000f0801580156200085f573d6000803e3d6000fd5b50905060006040518061010001604052808373ffffffffffffffffffffffffffffffffffffffff1681526020018a81526020018981526020018860ff1681526020018781526020013373ffffffffffffffffffffffffffffffffffffffff1681526020018581526020016000151581525090506000841415620008ee5760018160e00190151590811515815250505b80600160008473ffffffffffffffffffffffffffffffffffffffff1673ffffffffffffffffffffffffffffffffffffffff16815260200190815260200160002060008201518160000160006101000a81548173ffffffffffffffffffffffffffffffffffffffff021916908373ffffffffffffffffffffffffffffffffffffffff16021790555060208201518160010190805190602001906200099392919062001610565b506040820151816002019080519060200190620009b292919062001610565b5060608201518160030160006101000a81548160ff021916908360ff1602179055506080820151816004019080519060200190620009f292919062001610565b5060a08201518160050160006101000a81548173ffffffffffffffffffffffffffffffffffffffff021916908373ffffffffffffffffffffffffffffffffffffffff16021790555060c0820151816006015560e08201518160070160006101000a81548160ff0219169083151502179055509050508060028960405162000a7a919062001f18565b908152602001604051809103902060008201518160000160006101000a81548173ffffffffffffffffffffffffffffffffffffffff021916908373ffffffffffffffffffffffffffffffffffffffff160217905550602082015181600101908051906020019062000aed92919062001610565b50604082015181600201908051906020019062000b0c92919062001610565b5060608201518160030160006101000a81548160ff021916908360ff160217905550608082015181600401908051906020019062000b4c92919062001610565b5060a08201518160050160006101000a81548173ffffffffffffffffffffffffffffffffffffffff021916908373ffffffffffffffffffffffffffffffffffffffff16021790555060c0820151816006015560e08201518160070160006101000a81548160ff021916908315150217905550905050600160008960405162000bd5919062001f18565b908152602001604051809103902060006101000a81548160ff0219169083151502179055506005829080600181540180825580915050600190039060005260206000200160009091909190916101000a81548173ffffffffffffffffffffffffffffffffffffffff021916908373ffffffffffffffffffffffffffffffffffffffff16021790555062000c693383620013ce565b3373ffffffffffffffffffffffffffffffffffffffff167f9aeaaaeb259d07bb4dd3a7108b98292916901127a8ea11957ac316cffd02c3ae42848c8c8c8c8b60405162000cbd9796959493929190620020c2565b60405180910390a2505050505050505050565b6060600460008373ffffffffffffffffffffffffffffffffffffffff1673ffffffffffffffffffffffffffffffffffffffff16815260200190815260200160002060000180548060200260200160405190810160405280929190818152602001828054801562000d9657602002820191906000526020600020905b8160009054906101000a900473ffffffffffffffffffffffffffffffffffffffff1673ffffffffffffffffffffffffffffffffffffffff168152602001906001019080831162000d4b575b50505050509050919050565b60006060806000606060008060028860405162000dc0919062001f18565b908152602001604051809103902060000160009054906101000a900473ffffffffffffffffffffffffffffffffffffffff1660028960405162000e04919062001f18565b908152602001604051809103902060010160028a60405162000e27919062001f18565b908152602001604051809103902060020160028b60405162000e4a919062001f18565b908152602001604051809103902060030160009054906101000a900460ff1660028c60405162000e7b919062001f18565b908152602001604051809103902060040160028d60405162000e9e919062001f18565b908152602001604051809103902060050160009054906101000a900473ffffffffffffffffffffffffffffffffffffffff1660028e60405162000ee2919062001f18565b908152602001604051809103902060070160009054906101000a900460ff1685805462000f0f9062001ea0565b80601f016020809104026020016040519081016040528092919081815260200182805462000f3d9062001ea0565b801562000f8e5780601f1062000f625761010080835404028352916020019162000f8e565b820191906000526020600020905b81548152906001019060200180831162000f7057829003601f168201915b5050505050955084805462000fa39062001ea0565b80601f016020809104026020016040519081016040528092919081815260200182805462000fd19062001ea0565b8015620010225780601f1062000ff65761010080835404028352916020019162001022565b820191906000526020600020905b8154815290600101906020018083116200100457829003601f168201915b50505050509450828054620010379062001ea0565b80601f0160208091040260200160405190810160405280929190818152602001828054620010659062001ea0565b8015620010b65780601f106200108a57610100808354040283529160200191620010b6565b820191906000526020600020905b8154815290600101906020018083116200109857829003601f168201915b505050505092509650965096509650965096509650919395979092949650565b60008173ffffffffffffffffffffffffffffffffffffffff166370a08231846040518263ffffffff1660e01b815260040162001113919062002154565b602060405180830381865afa15801562001131573d6000803e3d6000fd5b505050506040513d601f19601f8201168201806040525081019062001157919062002188565b116200119a576040517f08c379a0000000000000000000000000000000000000000000000000000000008152600401620011919062002256565b60405180910390fd5b60001515600460008473ffffffffffffffffffffffffffffffffffffffff1673ffffffffffffffffffffffffffffffffffffffff16815260200190815260200160002060010160008373ffffffffffffffffffffffffffffffffffffffff1673ffffffffffffffffffffffffffffffffffffffff16815260200190815260200160002060009054906101000a900460ff1615151415620013ca576000600460008473ffffffffffffffffffffffffffffffffffffffff1673ffffffffffffffffffffffffffffffffffffffff168152602001908152602001600020600001905080829080600181540180825580915050600190039060005260206000200160009091909190916101000a81548173ffffffffffffffffffffffffffffffffffffffff021916908373ffffffffffffffffffffffffffffffffffffffff16021790555080600460008573ffffffffffffffffffffffffffffffffffffffff1673ffffffffffffffffffffffffffffffffffffffff1681526020019081526020016000206000019080546200132f929190620016a1565b506001600460008573ffffffffffffffffffffffffffffffffffffffff1673ffffffffffffffffffffffffffffffffffffffff16815260200190815260200160002060010160008473ffffffffffffffffffffffffffffffffffffffff1673ffffffffffffffffffffffffffffffffffffffff16815260200190815260200160002060006101000a81548160ff021916908315150217905550505b5050565b60001515600460008473ffffffffffffffffffffffffffffffffffffffff1673ffffffffffffffffffffffffffffffffffffffff16815260200190815260200160002060010160008373ffffffffffffffffffffffffffffffffffffffff1673ffffffffffffffffffffffffffffffffffffffff16815260200190815260200160002060009054906101000a900460ff1615151415620015fe576000600460008473ffffffffffffffffffffffffffffffffffffffff1673ffffffffffffffffffffffffffffffffffffffff168152602001908152602001600020600001905080829080600181540180825580915050600190039060005260206000200160009091909190916101000a81548173ffffffffffffffffffffffffffffffffffffffff021916908373ffffffffffffffffffffffffffffffffffffffff16021790555080600460008573ffffffffffffffffffffffffffffffffffffffff1673ffffffffffffffffffffffffffffffffffffffff16815260200190815260200160002060000190805462001563929190620016a1565b506001600460008573ffffffffffffffffffffffffffffffffffffffff1673ffffffffffffffffffffffffffffffffffffffff16815260200190815260200160002060010160008473ffffffffffffffffffffffffffffffffffffffff1673ffffffffffffffffffffffffffffffffffffffff16815260200190815260200160002060006101000a81548160ff021916908315150217905550505b5050565b611f4b806200227983390190565b8280546200161e9062001ea0565b90600052602060002090601f0160209004810192826200164257600085556200168e565b82601f106200165d57805160ff19168380011785556200168e565b828001600101855582156200168e579182015b828111156200168d57825182559160200191906001019062001670565b5b5090506200169d9190620016f8565b5090565b828054828255906000526020600020908101928215620016e55760005260206000209182015b82811115620016e4578254825591600101919060010190620016c7565b5b509050620016f49190620016f8565b5090565b5b8082111562001713576000816000905550600101620016f9565b5090565b6000604051905090565b600080fd5b600080fd5b600073ffffffffffffffffffffffffffffffffffffffff82169050919050565b600062001758826200172b565b9050919050565b6200176a816200174b565b81146200177657600080fd5b50565b6000813590506200178a816200175f565b92915050565b600060208284031215620017a957620017a862001721565b5b6000620017b98482850162001779565b91505092915050565b600081519050919050565b600082825260208201905092915050565b6000819050602082019050919050565b620017f9816200174b565b82525050565b60006200180d8383620017ee565b60208301905092915050565b6000602082019050919050565b60006200183382620017c2565b6200183f8185620017cd565b93506200184c83620017de565b8060005b8381101562001883578151620018678882620017ff565b9750620018748362001819565b92505060018101905062001850565b5085935050505092915050565b60006020820190508181036000830152620018ac818462001826565b905092915050565b620018bf816200174b565b82525050565b600081519050919050565b600082825260208201905092915050565b60005b8381101562001901578082015181840152602081019050620018e4565b8381111562001911576000848401525b50505050565b6000601f19601f8301169050919050565b60006200193582620018c5565b620019418185620018d0565b935062001953818560208601620018e1565b6200195e8162001917565b840191505092915050565b600060ff82169050919050565b620019818162001969565b82525050565b60008115159050919050565b6200199e8162001987565b82525050565b600060e082019050620019bb600083018a620018b4565b8181036020830152620019cf818962001928565b90508181036040830152620019e5818862001928565b9050620019f6606083018762001976565b818103608083015262001a0a818662001928565b905062001a1b60a0830185620018b4565b62001a2a60c083018462001993565b98975050505050505050565b600080fd5b600080fd5b7f4e487b7100000000000000000000000000000000000000000000000000000000600052604160045260246000fd5b62001a7a8262001917565b810181811067ffffffffffffffff8211171562001a9c5762001a9b62001a40565b5b80604052505050565b600062001ab162001717565b905062001abf828262001a6f565b919050565b600067ffffffffffffffff82111562001ae25762001ae162001a40565b5b62001aed8262001917565b9050602081019050919050565b82818337600083830152505050565b600062001b2062001b1a8462001ac4565b62001aa5565b90508281526020810184848401111562001b3f5762001b3e62001a3b565b5b62001b4c84828562001afa565b509392505050565b600082601f83011262001b6c5762001b6b62001a36565b5b813562001b7e84826020860162001b09565b91505092915050565b62001b928162001969565b811462001b9e57600080fd5b50565b60008135905062001bb28162001b87565b92915050565b6000819050919050565b62001bcd8162001bb8565b811462001bd957600080fd5b50565b60008135905062001bed8162001bc2565b92915050565b600080600080600080600060e0888a03121562001c155762001c1462001721565b5b600088013567ffffffffffffffff81111562001c365762001c3562001726565b5b62001c448a828b0162001b54565b975050602088013567ffffffffffffffff81111562001c685762001c6762001726565b5b62001c768a828b0162001b54565b965050604062001c898a828b0162001ba1565b955050606088013567ffffffffffffffff81111562001cad5762001cac62001726565b5b62001cbb8a828b0162001b54565b945050608088013567ffffffffffffffff81111562001cdf5762001cde62001726565b5b62001ced8a828b0162001b54565b93505060a062001d008a828b0162001bdc565b92505060c088013567ffffffffffffffff81111562001d245762001d2362001726565b5b62001d328a828b0162001b54565b91505092959891949750929550565b60006020828403121562001d5a5762001d5962001721565b5b600082013567ffffffffffffffff81111562001d7b5762001d7a62001726565b5b62001d898482850162001b54565b91505092915050565b6000806040838503121562001dac5762001dab62001721565b5b600062001dbc8582860162001779565b925050602062001dcf8582860162001779565b9150509250929050565b7f4d7573742062652061646d696e20746f2063726561746520616e6f746865722060008201527f61646d696e000000000000000000000000000000000000000000000000000000602082015250565b600062001e37602583620018d0565b915062001e448262001dd9565b604082019050919050565b6000602082019050818103600083015262001e6a8162001e28565b9050919050565b7f4e487b7100000000000000000000000000000000000000000000000000000000600052602260045260246000fd5b6000600282049050600182168062001eb957607f821691505b6020821081141562001ed05762001ecf62001e71565b5b50919050565b600081905092915050565b600062001eee82620018c5565b62001efa818562001ed6565b935062001f0c818560208601620018e1565b80840191505092915050565b600062001f26828462001ee1565b915081905092915050565b7f73796d626f6c206d757374206e6f7420626520616c726561647920626520637260008201527f656174656420666f72207468697320746f6b656e2c2073696e6365206974277360208201527f20756e6971756500000000000000000000000000000000000000000000000000604082015250565b600062001fb5604783620018d0565b915062001fc28262001f31565b606082019050919050565b6000602082019050818103600083015262001fe88162001fa6565b9050919050565b62001ffa8162001bb8565b82525050565b60006101208201905081810360008301526200201d818c62001928565b9050818103602083015262002033818b62001928565b905062002044604083018a62001976565b818103606083015262002058818962001928565b905081810360808301526200206e818862001928565b90506200207f60a083018762001fef565b6200208e60c0830186620018b4565b81810360e0830152620020a2818562001928565b9050620020b4610100830184620018b4565b9a9950505050505050505050565b600060e082019050620020d9600083018a62001fef565b620020e86020830189620018b4565b8181036040830152620020fc818862001928565b9050818103606083015262002112818762001928565b905062002123608083018662001976565b81810360a083015262002137818562001928565b90506200214860c083018462001fef565b98975050505050505050565b60006020820190506200216b6000830184620018b4565b92915050565b600081519050620021828162001bc2565b92915050565b600060208284031215620021a157620021a062001721565b5b6000620021b18482850162002171565b91505092915050565b7f5f706f73736573736f72206d757374206861766520736f6d6520616d6f756e7460008201527f206f66207468697320746f6b656e20746f2061646420697420746f206869732060208201527f706f7373657373696f6e73000000000000000000000000000000000000000000604082015250565b60006200223e604b83620018d0565b91506200224b82620021ba565b606082019050919050565b6000602082019050818103600083015262002271816200222f565b905091905056fe60806040523480156200001157600080fd5b5060405162001f4b38038062001f4b833981810160405281019062000037919062000696565b88604051806020016040528060008152508160039080519060200190620000609291906200036b565b508060049080519060200190620000799291906200036b565b505050600073ffffffffffffffffffffffffffffffffffffffff168373ffffffffffffffffffffffffffffffffffffffff161415620000ef576040517f08c379a0000000000000000000000000000000000000000000000000000000008152600401620000e69062000871565b60405180910390fd5b8560069080519060200190620001079291906200036b565b5060008411156200012557620001248385620001e860201b60201c565b5b82600560006101000a81548173ffffffffffffffffffffffffffffffffffffffff021916908373ffffffffffffffffffffffffffffffffffffffff16021790555081600890805190602001906200017e9291906200036b565b508460079080519060200190620001979291906200036b565b5080600960006101000a81548173ffffffffffffffffffffffffffffffffffffffff021916908373ffffffffffffffffffffffffffffffffffffffff16021790555050505050505050505062000a24565b600073ffffffffffffffffffffffffffffffffffffffff168273ffffffffffffffffffffffffffffffffffffffff1614156200025b576040517f08c379a00000000000000000000000000000000000000000000000000000000081526004016200025290620008e3565b60405180910390fd5b6200026f600083836200036160201b60201c565b806002600082825462000283919062000934565b92505081905550806000808473ffffffffffffffffffffffffffffffffffffffff1673ffffffffffffffffffffffffffffffffffffffff1681526020019081526020016000206000828254620002da919062000934565b925050819055508173ffffffffffffffffffffffffffffffffffffffff16600073ffffffffffffffffffffffffffffffffffffffff167fddf252ad1be2c89b69c2b068fc378daa952ba7f163c4a11628f55a4df523b3ef83604051620003419190620009a2565b60405180910390a36200035d600083836200036660201b60201c565b5050565b505050565b505050565b8280546200037990620009ee565b90600052602060002090601f0160209004810192826200039d5760008555620003e9565b82601f10620003b857805160ff1916838001178555620003e9565b82800160010185558215620003e9579182015b82811115620003e8578251825591602001919060010190620003cb565b5b509050620003f89190620003fc565b5090565b5b8082111562000417576000816000905550600101620003fd565b5090565b6000604051905090565b600080fd5b600080fd5b600080fd5b600080fd5b6000601f19601f8301169050919050565b7f4e487b7100000000000000000000000000000000000000000000000000000000600052604160045260246000fd5b620004848262000439565b810181811067ffffffffffffffff82111715620004a657620004a56200044a565b5b80604052505050565b6000620004bb6200041b565b9050620004c9828262000479565b919050565b600067ffffffffffffffff821115620004ec57620004eb6200044a565b5b620004f78262000439565b9050602081019050919050565b60005b838110156200052457808201518184015260208101905062000507565b8381111562000534576000848401525b50505050565b6000620005516200054b84620004ce565b620004af565b90508281526020810184848401111562000570576200056f62000434565b5b6200057d84828562000504565b509392505050565b600082601f8301126200059d576200059c6200042f565b5b8151620005af8482602086016200053a565b91505092915050565b600060ff82169050919050565b620005d081620005b8565b8114620005dc57600080fd5b50565b600081519050620005f081620005c5565b92915050565b6000819050919050565b6200060b81620005f6565b81146200061757600080fd5b50565b6000815190506200062b8162000600565b92915050565b600073ffffffffffffffffffffffffffffffffffffffff82169050919050565b60006200065e8262000631565b9050919050565b620006708162000651565b81146200067c57600080fd5b50565b600081519050620006908162000665565b92915050565b60008060008060008060008060006101208a8c031215620006bc57620006bb62000425565b5b60008a015167ffffffffffffffff811115620006dd57620006dc6200042a565b5b620006eb8c828d0162000585565b99505060208a015167ffffffffffffffff8111156200070f576200070e6200042a565b5b6200071d8c828d0162000585565b9850506040620007308c828d01620005df565b97505060608a015167ffffffffffffffff8111156200075457620007536200042a565b5b620007628c828d0162000585565b96505060808a015167ffffffffffffffff8111156200078657620007856200042a565b5b620007948c828d0162000585565b95505060a0620007a78c828d016200061a565b94505060c0620007ba8c828d016200067f565b93505060e08a015167ffffffffffffffff811115620007de57620007dd6200042a565b5b620007ec8c828d0162000585565b925050610100620008008c828d016200067f565b9150509295985092959850929598565b600082825260208201905092915050565b7f4f776e6572206d75737420626520646566696e65640000000000000000000000600082015250565b60006200085960158362000810565b9150620008668262000821565b602082019050919050565b600060208201905081810360008301526200088c816200084a565b9050919050565b7f45524332303a206d696e7420746f20746865207a65726f206164647265737300600082015250565b6000620008cb601f8362000810565b9150620008d88262000893565b602082019050919050565b60006020820190508181036000830152620008fe81620008bc565b9050919050565b7f4e487b7100000000000000000000000000000000000000000000000000000000600052601160045260246000fd5b60006200094182620005f6565b91506200094e83620005f6565b9250827fffffffffffffffffffffffffffffffffffffffffffffffffffffffffffffffff0382111562000986576200098562000905565b5b828201905092915050565b6200099c81620005f6565b82525050565b6000602082019050620009b9600083018462000991565b92915050565b7f4e487b7100000000000000000000000000000000000000000000000000000000600052602260045260246000fd5b6000600282049050600182168062000a0757607f821691505b6020821081141562000a1e5762000a1d620009bf565b5b50919050565b6115178062000a346000396000f3fe608060405234801561001057600080fd5b50600436106100b45760003560e01c806370a082311161007157806370a08231146101a357806395d89b41146101d3578063a457c2d7146101f1578063a9059cbb14610221578063dbba0f0114610251578063dd62ed3e14610281576100b4565b806306fdde03146100b9578063095ea7b3146100d757806318160ddd1461010757806323b872dd14610125578063313ce567146101555780633950935114610173575b600080fd5b6100c16102b1565b6040516100ce9190610d20565b60405180910390f35b6100f160048036038101906100ec9190610ddb565b610343565b6040516100fe9190610e36565b60405180910390f35b61010f610361565b60405161011c9190610e60565b60405180910390f35b61013f600480360381019061013a9190610e7b565b61036b565b60405161014c9190610e36565b60405180910390f35b61015d610463565b60405161016a9190610eea565b60405180910390f35b61018d60048036038101906101889190610ddb565b61046c565b60405161019a9190610e36565b60405180910390f35b6101bd60048036038101906101b89190610f05565b610518565b6040516101ca9190610e60565b60405180910390f35b6101db610560565b6040516101e89190610d20565b60405180910390f35b61020b60048036038101906102069190610ddb565b6105f2565b6040516102189190610e36565b60405180910390f35b61023b60048036038101906102369190610ddb565b6106dd565b6040516102489190610e36565b60405180910390f35b61026b60048036038101906102669190610f32565b6106fb565b6040516102789190610e36565b60405180910390f35b61029b60048036038101906102969190610f85565b6107a2565b6040516102a89190610e60565b60405180910390f35b6060600380546102c090610ff4565b80601f01602080910402602001604051908101604052809291908181526020018280546102ec90610ff4565b80156103395780601f1061030e57610100808354040283529160200191610339565b820191906000526020600020905b81548152906001019060200180831161031c57829003601f168201915b5050505050905090565b6000610357610350610829565b8484610831565b6001905092915050565b6000600254905090565b60006103788484846109fc565b6000600160008673ffffffffffffffffffffffffffffffffffffffff1673ffffffffffffffffffffffffffffffffffffffff16815260200190815260200160002060006103c3610829565b73ffffffffffffffffffffffffffffffffffffffff1673ffffffffffffffffffffffffffffffffffffffff16815260200190815260200160002054905082811015610443576040517f08c379a000000000000000000000000000000000000000000000000000000000815260040161043a90611098565b60405180910390fd5b6104578561044f610829565b858403610831565b60019150509392505050565b60006012905090565b600061050e610479610829565b848460016000610487610829565b73ffffffffffffffffffffffffffffffffffffffff1673ffffffffffffffffffffffffffffffffffffffff16815260200190815260200160002060008873ffffffffffffffffffffffffffffffffffffffff1673ffffffffffffffffffffffffffffffffffffffff1681526020019081526020016000205461050991906110e7565b610831565b6001905092915050565b60008060008373ffffffffffffffffffffffffffffffffffffffff1673ffffffffffffffffffffffffffffffffffffffff168152602001908152602001600020549050919050565b60606004805461056f90610ff4565b80601f016020809104026020016040519081016040528092919081815260200182805461059b90610ff4565b80156105e85780601f106105bd576101008083540402835291602001916105e8565b820191906000526020600020905b8154815290600101906020018083116105cb57829003601f168201915b5050505050905090565b60008060016000610601610829565b73ffffffffffffffffffffffffffffffffffffffff1673ffffffffffffffffffffffffffffffffffffffff16815260200190815260200160002060008573ffffffffffffffffffffffffffffffffffffffff1673ffffffffffffffffffffffffffffffffffffffff168152602001908152602001600020549050828110156106be576040517f08c379a00000000000000000000000000000000000000000000000000000000081526004016106b5906111af565b60405180910390fd5b6106d26106c9610829565b85858403610831565b600191505092915050565b60006106f16106ea610829565b84846109fc565b6001905092915050565b60006107088483856109fc565b600960009054906101000a900473ffffffffffffffffffffffffffffffffffffffff1673ffffffffffffffffffffffffffffffffffffffff1663c8eef2a985306040518363ffffffff1660e01b81526004016107659291906111de565b600060405180830381600087803b15801561077f57600080fd5b505af1158015610793573d6000803e3d6000fd5b50505050600190509392505050565b6000600160008473ffffffffffffffffffffffffffffffffffffffff1673ffffffffffffffffffffffffffffffffffffffff16815260200190815260200160002060008373ffffffffffffffffffffffffffffffffffffffff1673ffffffffffffffffffffffffffffffffffffffff16815260200190815260200160002054905092915050565b600033905090565b600073ffffffffffffffffffffffffffffffffffffffff168373ffffffffffffffffffffffffffffffffffffffff1614156108a1576040517f08c379a000000000000000000000000000000000000000000000000000000000815260040161089890611279565b60405180910390fd5b600073ffffffffffffffffffffffffffffffffffffffff168273ffffffffffffffffffffffffffffffffffffffff161415610911576040517f08c379a00000000000000000000000000000000000000000000000000000000081526004016109089061130b565b60405180910390fd5b80600160008573ffffffffffffffffffffffffffffffffffffffff1673ffffffffffffffffffffffffffffffffffffffff16815260200190815260200160002060008473ffffffffffffffffffffffffffffffffffffffff1673ffffffffffffffffffffffffffffffffffffffff168152602001908152602001600020819055508173ffffffffffffffffffffffffffffffffffffffff168373ffffffffffffffffffffffffffffffffffffffff167f8c5be1e5ebec7d5bd14f71427d1e84f3dd0314c0f7b2291e5b200ac8c7c3b925836040516109ef9190610e60565b60405180910390a3505050565b600073ffffffffffffffffffffffffffffffffffffffff168373ffffffffffffffffffffffffffffffffffffffff161415610a6c576040517f08c379a0000000000000000000000000000000000000000000000000000000008152600401610a639061139d565b60405180910390fd5b600073ffffffffffffffffffffffffffffffffffffffff168273ffffffffffffffffffffffffffffffffffffffff161415610adc576040517f08c379a0000000000000000000000000000000000000000000000000000000008152600401610ad39061142f565b60405180910390fd5b610ae7838383610c7d565b60008060008573ffffffffffffffffffffffffffffffffffffffff1673ffffffffffffffffffffffffffffffffffffffff16815260200190815260200160002054905081811015610b6d576040517f08c379a0000000000000000000000000000000000000000000000000000000008152600401610b64906114c1565b60405180910390fd5b8181036000808673ffffffffffffffffffffffffffffffffffffffff1673ffffffffffffffffffffffffffffffffffffffff16815260200190815260200160002081905550816000808573ffffffffffffffffffffffffffffffffffffffff1673ffffffffffffffffffffffffffffffffffffffff1681526020019081526020016000206000828254610c0091906110e7565b925050819055508273ffffffffffffffffffffffffffffffffffffffff168473ffffffffffffffffffffffffffffffffffffffff167fddf252ad1be2c89b69c2b068fc378daa952ba7f163c4a11628f55a4df523b3ef84604051610c649190610e60565b60405180910390a3610c77848484610c82565b50505050565b505050565b505050565b600081519050919050565b600082825260208201905092915050565b60005b83811015610cc1578082015181840152602081019050610ca6565b83811115610cd0576000848401525b50505050565b6000601f19601f8301169050919050565b6000610cf282610c87565b610cfc8185610c92565b9350610d0c818560208601610ca3565b610d1581610cd6565b840191505092915050565b60006020820190508181036000830152610d3a8184610ce7565b905092915050565b600080fd5b600073ffffffffffffffffffffffffffffffffffffffff82169050919050565b6000610d7282610d47565b9050919050565b610d8281610d67565b8114610d8d57600080fd5b50565b600081359050610d9f81610d79565b92915050565b6000819050919050565b610db881610da5565b8114610dc357600080fd5b50565b600081359050610dd581610daf565b92915050565b60008060408385031215610df257610df1610d42565b5b6000610e0085828601610d90565b9250506020610e1185828601610dc6565b9150509250929050565b60008115159050919050565b610e3081610e1b565b82525050565b6000602082019050610e4b6000830184610e27565b92915050565b610e5a81610da5565b82525050565b6000602082019050610e756000830184610e51565b92915050565b600080600060608486031215610e9457610e93610d42565b5b6000610ea286828701610d90565b9350506020610eb386828701610d90565b9250506040610ec486828701610dc6565b9150509250925092565b600060ff82169050919050565b610ee481610ece565b82525050565b6000602082019050610eff6000830184610edb565b92915050565b600060208284031215610f1b57610f1a610d42565b5b6000610f2984828501610d90565b91505092915050565b600080600060608486031215610f4b57610f4a610d42565b5b6000610f5986828701610d90565b9350506020610f6a86828701610dc6565b9250506040610f7b86828701610d90565b9150509250925092565b60008060408385031215610f9c57610f9b610d42565b5b6000610faa85828601610d90565b9250506020610fbb85828601610d90565b9150509250929050565b7f4e487b7100000000000000000000000000000000000000000000000000000000600052602260045260246000fd5b6000600282049050600182168061100c57607f821691505b602082108114156110205761101f610fc5565b5b50919050565b7f45524332303a207472616e7366657220616d6f756e742065786365656473206160008201527f6c6c6f77616e6365000000000000000000000000000000000000000000000000602082015250565b6000611082602883610c92565b915061108d82611026565b604082019050919050565b600060208201905081810360008301526110b181611075565b9050919050565b7f4e487b7100000000000000000000000000000000000000000000000000000000600052601160045260246000fd5b60006110f282610da5565b91506110fd83610da5565b9250827fffffffffffffffffffffffffffffffffffffffffffffffffffffffffffffffff03821115611132576111316110b8565b5b828201905092915050565b7f45524332303a2064656372656173656420616c6c6f77616e63652062656c6f7760008201527f207a65726f000000000000000000000000000000000000000000000000000000602082015250565b6000611199602583610c92565b91506111a48261113d565b604082019050919050565b600060208201905081810360008301526111c88161118c565b9050919050565b6111d881610d67565b82525050565b60006040820190506111f360008301856111cf565b61120060208301846111cf565b9392505050565b7f45524332303a20617070726f76652066726f6d20746865207a65726f2061646460008201527f7265737300000000000000000000000000000000000000000000000000000000602082015250565b6000611263602483610c92565b915061126e82611207565b604082019050919050565b6000602082019050818103600083015261129281611256565b9050919050565b7f45524332303a20617070726f766520746f20746865207a65726f20616464726560008201527f7373000000000000000000000000000000000000000000000000000000000000602082015250565b60006112f5602283610c92565b915061130082611299565b604082019050919050565b60006020820190508181036000830152611324816112e8565b9050919050565b7f45524332303a207472616e736665722066726f6d20746865207a65726f20616460008201527f6472657373000000000000000000000000000000000000000000000000000000602082015250565b6000611387602583610c92565b91506113928261132b565b604082019050919050565b600060208201905081810360008301526113b68161137a565b9050919050565b7f45524332303a207472616e7366657220746f20746865207a65726f206164647260008201527f6573730000000000000000000000000000000000000000000000000000000000602082015250565b6000611419602383610c92565b9150611424826113bd565b604082019050919050565b600060208201905081810360008301526114488161140c565b9050919050565b7f45524332303a207472616e7366657220616d6f756e742065786365656473206260008201527f616c616e63650000000000000000000000000000000000000000000000000000602082015250565b60006114ab602683610c92565b91506114b68261144f565b604082019050919050565b600060208201905081810360008301526114da8161149e565b905091905056fea264697066735822122051dc510fa457b053b8ad0f7d9ec0ae90bfa993c5c78e72e762626f22c615b94064736f6c634300080c0033a26469706673582212206aaa47eb3a70f6beb37f3da809ece5cc553532e71a8267c7062de1cea7cec8c964736f6c634300080c0033",
  "immutableReferences": {},
  "source": "pragma solidity ^0.8.0;\r\n\r\nimport \"./TokenTemplate.sol\";\r\nimport \"@openzeppelin/contracts/utils/math/SafeMath.sol\";\r\n/**\r\n * @title TokenFactory is a contract following Factory\r\n *        Pattern to generate tokens.\r\n */\r\ncontract TokenFactory {\r\n    using SafeMath for uint256;\r\n\r\n    struct TokenData {\r\n        address contractAddress;\r\n        string name;\r\n        string symbol;\r\n        uint8 decimals;\r\n        string logoURL;\r\n        address owner;\r\n        uint256 hardCap;\r\n        bool mintable;\r\n    }\r\n\r\n    struct Registry {\r\n        address[] tokenAddresses; //this will contain the addresses of the tokens possessed by an owner\r\n        mapping(address => bool) alreadyIn; //this is just to help in fast checks (to avoid iterating over an array)\r\n    }\r\n\r\n    mapping(string => bool) internal usedSymbols;\r\n    mapping(address => TokenData) internal tokensByAddress;\r\n    mapping(string => TokenData) internal tokensBySymbol;\r\n    mapping(address => bool) internal isAdmin;\r\n    mapping(address => Registry) internal possessedTokens; //the key address is an owner\r\n    address[] internal tokenCreatedAddresses;\r\n\r\n    event TokenAdded(\r\n        address indexed _from,\r\n        uint256 _timestamp,\r\n        address _contractAddress,\r\n        string _name,\r\n        string _symbol,\r\n        uint8 _decimals,\r\n        string _logoURL,\r\n        uint256 _hardCap\r\n    );\r\n    event AdminAdded(address indexed _from, address indexed _who);\r\n\r\n    event factoryDebug(address indexed _from, string _op, string _msg);\r\n\r\n    constructor() public {\r\n        isAdmin[msg.sender] = true;\r\n        emit AdminAdded(address(0), msg.sender);\r\n    }\r\n\r\n    /**\r\n     * @dev Callable only by an admin, makeAdmin adds another specified address as admin\r\n     *      of the TokenFactory.\r\n     * @param _address the address to make admin\r\n     */\r\n    function makeAdmin(address _address) public {\r\n        require(isAdmin[msg.sender], \"Must be admin to create another admin\");\r\n        isAdmin[_address] = true;\r\n        emit AdminAdded(msg.sender, _address);\r\n    }\r\n\r\n    function getAllTokenAddresses() public view returns(address[] memory){\r\n        return tokenCreatedAddresses;\r\n    }\r\n\r\n    /**\r\n     * @dev getToken gets a created Token data by its symbol.\r\n     * @param tokenAddress the address of the Token.\r\n     * @return the Token data in array form.\r\n     */\r\n    function getTokenByAddress(address tokenAddress) public view\r\n    returns(address, string memory, string memory, uint8, string memory, address, bool) {\r\n        return (\r\n        tokensByAddress[tokenAddress].contractAddress,\r\n        tokensByAddress[tokenAddress].name,\r\n        tokensByAddress[tokenAddress].symbol,\r\n        tokensByAddress[tokenAddress].decimals,\r\n        tokensByAddress[tokenAddress].logoURL,\r\n        tokensByAddress[tokenAddress].owner,\r\n        tokensByAddress[tokenAddress].mintable\r\n        );\r\n    }\r\n    /**\r\n     * overload. As above but\r\n     * @param symbol the symbol of the coin\r\n     */\r\n    function getToken(string memory symbol) public view\r\n    returns(address, string memory, string memory, uint8, string memory, address, bool) {\r\n        return (\r\n        tokensBySymbol[symbol].contractAddress,\r\n        tokensBySymbol[symbol].name,\r\n        tokensBySymbol[symbol].symbol,\r\n        tokensBySymbol[symbol].decimals,\r\n        tokensBySymbol[symbol].logoURL,\r\n        tokensBySymbol[symbol].owner,\r\n        tokensBySymbol[symbol].mintable\r\n        );\r\n    }\r\n\r\n    /**\r\n     * @dev this function is called usually by a tokenTempalte to add the coin in the list of those possessed by the user\r\n     *      after a transfer executed successfully\r\n     *      We check the balance is > 0 to avoid that some malevolent person/contract tries to add garbage to an unrelated\r\n     *      address.\r\n     * @param _possessor the address of the wallet of which we have to update the possessedTokens array\r\n     * @param _tokenAddress the address of the token to add\r\n     */\r\n    function addToPossessed(address _possessor, address _tokenAddress) public{\r\n        require(TokenTemplate(_tokenAddress).balanceOf(_possessor) > 0,\r\n            \"_possessor must have some amount of this token to add it to his possessions\");\r\n        if(possessedTokens[_possessor].alreadyIn[_tokenAddress] == false){ //else is already correctly populated\r\n            address[] storage newPossessed = possessedTokens[_possessor].tokenAddresses;\r\n            newPossessed.push(_tokenAddress);\r\n            possessedTokens[_possessor].tokenAddresses = newPossessed;\r\n            possessedTokens[_possessor].alreadyIn[_tokenAddress] = true;\r\n        }\r\n    }\r\n\r\n    /**\r\n     * @dev as above but without the check on balance and private, this is to be used internally when creating a new token.\r\n     */\r\n    function addToPossessedOnCreation(address _possessor, address _tokenAddress) internal{\r\n        if(possessedTokens[_possessor].alreadyIn[_tokenAddress] == false){ //else is already correctly populated\r\n            address[] storage newPossessed = possessedTokens[_possessor].tokenAddresses;\r\n            newPossessed.push(_tokenAddress);\r\n            possessedTokens[_possessor].tokenAddresses = newPossessed;\r\n            possessedTokens[_possessor].alreadyIn[_tokenAddress] = true;\r\n        }\r\n    }\r\n\r\n    /**\r\n     * @param _possessor the address of which we want to know which tokens it posses\r\n     * @return the array containing the adresses of tokens possesed by the user\r\n     */\r\n    function getPossessedTokens(address _possessor) public view returns(address[] memory){\r\n        return possessedTokens[_possessor].tokenAddresses;\r\n    }\r\n\r\n    /**\r\n     * @dev createToken creates a new TokenTemplate instance.\r\n     * @param _name the name of the Token\r\n     * @param _symbol the symbol of the Token.\r\n     * @param _decimals the decimals of the Token. Must be between 0 and 18 included.\r\n     * @param _logoURL the URL of the image representing the logo of the Token.\r\n     * @param _logoHash the Hash of the image pointed by _logoURL, to ensure it has not been altered.\r\n     * @param _hardCap the total supply of the Token.\r\n     * @param _contractHash the Hash of the PDF contract bound to this Token.\r\n     */\r\n    function createToken(\r\n        string memory _name,\r\n        string memory _symbol,\r\n        uint8 _decimals,\r\n        string memory _logoURL,\r\n        string memory _logoHash,\r\n        uint256 _hardCap,\r\n        string memory _contractHash\r\n    ) public {\r\n        // symbol must not be already be created for this token, since it's unique,\r\n        // so we check for 0 value struct (with 0 value contract address).\r\n        require(\r\n            usedSymbols[_symbol] == false,\r\n            \"symbol must not be already be created for this token, since it's unique\"\r\n        );\r\n\r\n        // Generates the new contract and stores its address.\r\n        // if hardCap = 0 token is mintable, otherwise it is capped to hardCap and all money is transfered to the creator\r\n        // of the token.\r\n        TokenTemplate tokenContract = new TokenTemplate(_name, _symbol, _decimals, _logoURL, _logoHash, _hardCap, msg.sender, _contractHash, address(this));\r\n\r\n        TokenData memory tempTokenData = TokenData({\r\n        contractAddress: address(tokenContract),\r\n        name: _name,\r\n        symbol: _symbol,\r\n        decimals: _decimals,\r\n        logoURL:_logoURL,\r\n        owner: msg.sender,\r\n        hardCap: _hardCap,\r\n        mintable: false\r\n        });\r\n\r\n        if (_hardCap == 0) {\r\n            // set mintable to true\r\n            tempTokenData.mintable = true;\r\n            // mint permission for all admins tokenContract.addMinter(admin)\r\n        }\r\n\r\n        tokensByAddress[address(tokenContract)] = tempTokenData;\r\n        tokensBySymbol[_symbol] = tempTokenData;\r\n        usedSymbols[_symbol] = true;\r\n\r\n        tokenCreatedAddresses.push(address(tokenContract));\r\n        addToPossessedOnCreation(msg.sender, address(tokenContract));\r\n\r\n        //fullData.push(tempTokenData);\r\n\r\n        emit TokenAdded(\r\n            msg.sender,\r\n            block.timestamp,\r\n            address(tokenContract),\r\n            _name,\r\n            _symbol,\r\n            _decimals,\r\n            _logoURL,\r\n            _hardCap\r\n        );\r\n    }\r\n}",
  "sourcePath": "C:\\Users\\Luca\\Desktop\\tesi\\My-tesi\\src\\contracts\\TokenFactory.sol",
  "compiler": {
    "name": "solc",
    "version": "0.8.12+commit.f00d7308.Emscripten.clang"
  },
  "schemaVersion": "3.4.1",
  "updatedAt": "2022-02-21T09:24:04.685Z",
  "devdoc": {
    "kind": "dev",
    "methods": {
      "addToPossessed(address,address)": {
        "details": "this function is called usually by a tokenTempalte to add the coin in the list of those possessed by the user      after a transfer executed successfully      We check the balance is > 0 to avoid that some malevolent person/contract tries to add garbage to an unrelated      address.",
        "params": {
          "_possessor": "the address of the wallet of which we have to update the possessedTokens array",
          "_tokenAddress": "the address of the token to add"
        }
      },
      "createToken(string,string,uint8,string,string,uint256,string)": {
        "details": "createToken creates a new TokenTemplate instance.",
        "params": {
          "_contractHash": "the Hash of the PDF contract bound to this Token.",
          "_decimals": "the decimals of the Token. Must be between 0 and 18 included.",
          "_hardCap": "the total supply of the Token.",
          "_logoHash": "the Hash of the image pointed by _logoURL, to ensure it has not been altered.",
          "_logoURL": "the URL of the image representing the logo of the Token.",
          "_name": "the name of the Token",
          "_symbol": "the symbol of the Token."
        }
      },
      "getPossessedTokens(address)": {
        "params": {
          "_possessor": "the address of which we want to know which tokens it posses"
        },
        "returns": {
          "_0": "the array containing the adresses of tokens possesed by the user"
        }
      },
      "getToken(string)": {
        "params": {
          "symbol": "the symbol of the coin"
        }
      },
      "getTokenByAddress(address)": {
        "details": "getToken gets a created Token data by its symbol.",
        "params": {
          "tokenAddress": "the address of the Token."
        },
        "returns": {
          "_0": "the Token data in array form."
        }
      },
      "makeAdmin(address)": {
        "details": "Callable only by an admin, makeAdmin adds another specified address as admin      of the TokenFactory.",
        "params": {
          "_address": "the address to make admin"
        }
      }
    },
    "title": "TokenFactory is a contract following Factory        Pattern to generate tokens.",
    "version": 1
  },
  "userdoc": {
    "kind": "user",
    "methods": {
      "getToken(string)": {
        "notice": "overload. As above but"
      }
    },
    "version": 1
  }
}