{
  "contractName": "TokenTemplate",
  "abi": [
    {
      "inputs": [
        {
          "internalType": "string",
          "name": "name",
          "type": "string"
        },
        {
          "internalType": "string",
          "name": "symbol",
          "type": "string"
        },
        {
          "internalType": "uint8",
          "name": "decimals",
          "type": "uint8"
        },
        {
          "internalType": "string",
          "name": "logoURL",
          "type": "string"
        },
        {
          "internalType": "string",
          "name": "logoHash",
          "type": "string"
        },
        {
          "internalType": "uint256",
          "name": "totalSupply",
          "type": "uint256"
        },
        {
          "internalType": "address",
          "name": "owner",
          "type": "address"
        },
        {
          "internalType": "string",
          "name": "contractHash",
          "type": "string"
        },
        {
          "internalType": "address",
          "name": "tokenFactoryAddress",
          "type": "address"
        }
      ],
      "stateMutability": "nonpayable",
      "type": "constructor"
    },
    {
      "anonymous": false,
      "inputs": [
        {
          "indexed": true,
          "internalType": "address",
          "name": "owner",
          "type": "address"
        },
        {
          "indexed": true,
          "internalType": "address",
          "name": "spender",
          "type": "address"
        },
        {
          "indexed": false,
          "internalType": "uint256",
          "name": "value",
          "type": "uint256"
        }
      ],
      "name": "Approval",
      "type": "event"
    },
    {
      "anonymous": false,
      "inputs": [
        {
          "indexed": false,
          "internalType": "string",
          "name": "_message",
          "type": "string"
        }
      ],
      "name": "Debug",
      "type": "event"
    },
    {
      "anonymous": false,
      "inputs": [
        {
          "indexed": true,
          "internalType": "address",
          "name": "from",
          "type": "address"
        },
        {
          "indexed": true,
          "internalType": "address",
          "name": "to",
          "type": "address"
        },
        {
          "indexed": false,
          "internalType": "uint256",
          "name": "value",
          "type": "uint256"
        }
      ],
      "name": "Transfer",
      "type": "event"
    },
    {
      "inputs": [
        {
          "internalType": "address",
          "name": "owner",
          "type": "address"
        },
        {
          "internalType": "address",
          "name": "spender",
          "type": "address"
        }
      ],
      "name": "allowance",
      "outputs": [
        {
          "internalType": "uint256",
          "name": "",
          "type": "uint256"
        }
      ],
      "stateMutability": "view",
      "type": "function"
    },
    {
      "inputs": [
        {
          "internalType": "address",
          "name": "spender",
          "type": "address"
        },
        {
          "internalType": "uint256",
          "name": "amount",
          "type": "uint256"
        }
      ],
      "name": "approve",
      "outputs": [
        {
          "internalType": "bool",
          "name": "",
          "type": "bool"
        }
      ],
      "stateMutability": "nonpayable",
      "type": "function"
    },
    {
      "inputs": [
        {
          "internalType": "address",
          "name": "account",
          "type": "address"
        }
      ],
      "name": "balanceOf",
      "outputs": [
        {
          "internalType": "uint256",
          "name": "",
          "type": "uint256"
        }
      ],
      "stateMutability": "view",
      "type": "function"
    },
    {
      "inputs": [],
      "name": "decimals",
      "outputs": [
        {
          "internalType": "uint8",
          "name": "",
          "type": "uint8"
        }
      ],
      "stateMutability": "view",
      "type": "function"
    },
    {
      "inputs": [
        {
          "internalType": "address",
          "name": "spender",
          "type": "address"
        },
        {
          "internalType": "uint256",
          "name": "subtractedValue",
          "type": "uint256"
        }
      ],
      "name": "decreaseAllowance",
      "outputs": [
        {
          "internalType": "bool",
          "name": "",
          "type": "bool"
        }
      ],
      "stateMutability": "nonpayable",
      "type": "function"
    },
    {
      "inputs": [
        {
          "internalType": "address",
          "name": "spender",
          "type": "address"
        },
        {
          "internalType": "uint256",
          "name": "addedValue",
          "type": "uint256"
        }
      ],
      "name": "increaseAllowance",
      "outputs": [
        {
          "internalType": "bool",
          "name": "",
          "type": "bool"
        }
      ],
      "stateMutability": "nonpayable",
      "type": "function"
    },
    {
      "inputs": [],
      "name": "name",
      "outputs": [
        {
          "internalType": "string",
          "name": "",
          "type": "string"
        }
      ],
      "stateMutability": "view",
      "type": "function"
    },
    {
      "inputs": [],
      "name": "symbol",
      "outputs": [
        {
          "internalType": "string",
          "name": "",
          "type": "string"
        }
      ],
      "stateMutability": "view",
      "type": "function"
    },
    {
      "inputs": [],
      "name": "totalSupply",
      "outputs": [
        {
          "internalType": "uint256",
          "name": "",
          "type": "uint256"
        }
      ],
      "stateMutability": "view",
      "type": "function"
    },
    {
      "inputs": [
        {
          "internalType": "address",
          "name": "sender",
          "type": "address"
        },
        {
          "internalType": "address",
          "name": "recipient",
          "type": "address"
        },
        {
          "internalType": "uint256",
          "name": "amount",
          "type": "uint256"
        }
      ],
      "name": "transferFrom",
      "outputs": [
        {
          "internalType": "bool",
          "name": "",
          "type": "bool"
        }
      ],
      "stateMutability": "nonpayable",
      "type": "function"
    },
    {
      "inputs": [
        {
          "internalType": "address",
          "name": "recipient",
          "type": "address"
        },
        {
          "internalType": "uint256",
          "name": "amount",
          "type": "uint256"
        }
      ],
      "name": "transfer",
      "outputs": [
        {
          "internalType": "bool",
          "name": "",
          "type": "bool"
        }
      ],
      "stateMutability": "nonpayable",
      "type": "function"
    },
    {
      "inputs": [
        {
          "internalType": "address",
          "name": "recipient",
          "type": "address"
        },
        {
          "internalType": "uint256",
          "name": "amount",
          "type": "uint256"
        },
        {
          "internalType": "address",
          "name": "owner",
          "type": "address"
        }
      ],
      "name": "transfer",
      "outputs": [
        {
          "internalType": "bool",
          "name": "",
          "type": "bool"
        }
      ],
      "stateMutability": "nonpayable",
      "type": "function"
    }
  ],
  "bytecode": "0x60806040523480156200001157600080fd5b5060405162001f4b38038062001f4b833981810160405281019062000037919062000696565b88604051806020016040528060008152508160039080519060200190620000609291906200036b565b508060049080519060200190620000799291906200036b565b505050600073ffffffffffffffffffffffffffffffffffffffff168373ffffffffffffffffffffffffffffffffffffffff161415620000ef576040517f08c379a0000000000000000000000000000000000000000000000000000000008152600401620000e69062000871565b60405180910390fd5b8560069080519060200190620001079291906200036b565b5060008411156200012557620001248385620001e860201b60201c565b5b82600560006101000a81548173ffffffffffffffffffffffffffffffffffffffff021916908373ffffffffffffffffffffffffffffffffffffffff16021790555081600890805190602001906200017e9291906200036b565b508460079080519060200190620001979291906200036b565b5080600960006101000a81548173ffffffffffffffffffffffffffffffffffffffff021916908373ffffffffffffffffffffffffffffffffffffffff16021790555050505050505050505062000a24565b600073ffffffffffffffffffffffffffffffffffffffff168273ffffffffffffffffffffffffffffffffffffffff1614156200025b576040517f08c379a00000000000000000000000000000000000000000000000000000000081526004016200025290620008e3565b60405180910390fd5b6200026f600083836200036160201b60201c565b806002600082825462000283919062000934565b92505081905550806000808473ffffffffffffffffffffffffffffffffffffffff1673ffffffffffffffffffffffffffffffffffffffff1681526020019081526020016000206000828254620002da919062000934565b925050819055508173ffffffffffffffffffffffffffffffffffffffff16600073ffffffffffffffffffffffffffffffffffffffff167fddf252ad1be2c89b69c2b068fc378daa952ba7f163c4a11628f55a4df523b3ef83604051620003419190620009a2565b60405180910390a36200035d600083836200036660201b60201c565b5050565b505050565b505050565b8280546200037990620009ee565b90600052602060002090601f0160209004810192826200039d5760008555620003e9565b82601f10620003b857805160ff1916838001178555620003e9565b82800160010185558215620003e9579182015b82811115620003e8578251825591602001919060010190620003cb565b5b509050620003f89190620003fc565b5090565b5b8082111562000417576000816000905550600101620003fd565b5090565b6000604051905090565b600080fd5b600080fd5b600080fd5b600080fd5b6000601f19601f8301169050919050565b7f4e487b7100000000000000000000000000000000000000000000000000000000600052604160045260246000fd5b620004848262000439565b810181811067ffffffffffffffff82111715620004a657620004a56200044a565b5b80604052505050565b6000620004bb6200041b565b9050620004c9828262000479565b919050565b600067ffffffffffffffff821115620004ec57620004eb6200044a565b5b620004f78262000439565b9050602081019050919050565b60005b838110156200052457808201518184015260208101905062000507565b8381111562000534576000848401525b50505050565b6000620005516200054b84620004ce565b620004af565b90508281526020810184848401111562000570576200056f62000434565b5b6200057d84828562000504565b509392505050565b600082601f8301126200059d576200059c6200042f565b5b8151620005af8482602086016200053a565b91505092915050565b600060ff82169050919050565b620005d081620005b8565b8114620005dc57600080fd5b50565b600081519050620005f081620005c5565b92915050565b6000819050919050565b6200060b81620005f6565b81146200061757600080fd5b50565b6000815190506200062b8162000600565b92915050565b600073ffffffffffffffffffffffffffffffffffffffff82169050919050565b60006200065e8262000631565b9050919050565b620006708162000651565b81146200067c57600080fd5b50565b600081519050620006908162000665565b92915050565b60008060008060008060008060006101208a8c031215620006bc57620006bb62000425565b5b60008a015167ffffffffffffffff811115620006dd57620006dc6200042a565b5b620006eb8c828d0162000585565b99505060208a015167ffffffffffffffff8111156200070f576200070e6200042a565b5b6200071d8c828d0162000585565b9850506040620007308c828d01620005df565b97505060608a015167ffffffffffffffff8111156200075457620007536200042a565b5b620007628c828d0162000585565b96505060808a015167ffffffffffffffff8111156200078657620007856200042a565b5b620007948c828d0162000585565b95505060a0620007a78c828d016200061a565b94505060c0620007ba8c828d016200067f565b93505060e08a015167ffffffffffffffff811115620007de57620007dd6200042a565b5b620007ec8c828d0162000585565b925050610100620008008c828d016200067f565b9150509295985092959850929598565b600082825260208201905092915050565b7f4f776e6572206d75737420626520646566696e65640000000000000000000000600082015250565b60006200085960158362000810565b9150620008668262000821565b602082019050919050565b600060208201905081810360008301526200088c816200084a565b9050919050565b7f45524332303a206d696e7420746f20746865207a65726f206164647265737300600082015250565b6000620008cb601f8362000810565b9150620008d88262000893565b602082019050919050565b60006020820190508181036000830152620008fe81620008bc565b9050919050565b7f4e487b7100000000000000000000000000000000000000000000000000000000600052601160045260246000fd5b60006200094182620005f6565b91506200094e83620005f6565b9250827fffffffffffffffffffffffffffffffffffffffffffffffffffffffffffffffff0382111562000986576200098562000905565b5b828201905092915050565b6200099c81620005f6565b82525050565b6000602082019050620009b9600083018462000991565b92915050565b7f4e487b7100000000000000000000000000000000000000000000000000000000600052602260045260246000fd5b6000600282049050600182168062000a0757607f821691505b6020821081141562000a1e5762000a1d620009bf565b5b50919050565b6115178062000a346000396000f3fe608060405234801561001057600080fd5b50600436106100b45760003560e01c806370a082311161007157806370a08231146101a357806395d89b41146101d3578063a457c2d7146101f1578063a9059cbb14610221578063dbba0f0114610251578063dd62ed3e14610281576100b4565b806306fdde03146100b9578063095ea7b3146100d757806318160ddd1461010757806323b872dd14610125578063313ce567146101555780633950935114610173575b600080fd5b6100c16102b1565b6040516100ce9190610d20565b60405180910390f35b6100f160048036038101906100ec9190610ddb565b610343565b6040516100fe9190610e36565b60405180910390f35b61010f610361565b60405161011c9190610e60565b60405180910390f35b61013f600480360381019061013a9190610e7b565b61036b565b60405161014c9190610e36565b60405180910390f35b61015d610463565b60405161016a9190610eea565b60405180910390f35b61018d60048036038101906101889190610ddb565b61046c565b60405161019a9190610e36565b60405180910390f35b6101bd60048036038101906101b89190610f05565b610518565b6040516101ca9190610e60565b60405180910390f35b6101db610560565b6040516101e89190610d20565b60405180910390f35b61020b60048036038101906102069190610ddb565b6105f2565b6040516102189190610e36565b60405180910390f35b61023b60048036038101906102369190610ddb565b6106dd565b6040516102489190610e36565b60405180910390f35b61026b60048036038101906102669190610f32565b6106fb565b6040516102789190610e36565b60405180910390f35b61029b60048036038101906102969190610f85565b6107a2565b6040516102a89190610e60565b60405180910390f35b6060600380546102c090610ff4565b80601f01602080910402602001604051908101604052809291908181526020018280546102ec90610ff4565b80156103395780601f1061030e57610100808354040283529160200191610339565b820191906000526020600020905b81548152906001019060200180831161031c57829003601f168201915b5050505050905090565b6000610357610350610829565b8484610831565b6001905092915050565b6000600254905090565b60006103788484846109fc565b6000600160008673ffffffffffffffffffffffffffffffffffffffff1673ffffffffffffffffffffffffffffffffffffffff16815260200190815260200160002060006103c3610829565b73ffffffffffffffffffffffffffffffffffffffff1673ffffffffffffffffffffffffffffffffffffffff16815260200190815260200160002054905082811015610443576040517f08c379a000000000000000000000000000000000000000000000000000000000815260040161043a90611098565b60405180910390fd5b6104578561044f610829565b858403610831565b60019150509392505050565b60006012905090565b600061050e610479610829565b848460016000610487610829565b73ffffffffffffffffffffffffffffffffffffffff1673ffffffffffffffffffffffffffffffffffffffff16815260200190815260200160002060008873ffffffffffffffffffffffffffffffffffffffff1673ffffffffffffffffffffffffffffffffffffffff1681526020019081526020016000205461050991906110e7565b610831565b6001905092915050565b60008060008373ffffffffffffffffffffffffffffffffffffffff1673ffffffffffffffffffffffffffffffffffffffff168152602001908152602001600020549050919050565b60606004805461056f90610ff4565b80601f016020809104026020016040519081016040528092919081815260200182805461059b90610ff4565b80156105e85780601f106105bd576101008083540402835291602001916105e8565b820191906000526020600020905b8154815290600101906020018083116105cb57829003601f168201915b5050505050905090565b60008060016000610601610829565b73ffffffffffffffffffffffffffffffffffffffff1673ffffffffffffffffffffffffffffffffffffffff16815260200190815260200160002060008573ffffffffffffffffffffffffffffffffffffffff1673ffffffffffffffffffffffffffffffffffffffff168152602001908152602001600020549050828110156106be576040517f08c379a00000000000000000000000000000000000000000000000000000000081526004016106b5906111af565b60405180910390fd5b6106d26106c9610829565b85858403610831565b600191505092915050565b60006106f16106ea610829565b84846109fc565b6001905092915050565b60006107088483856109fc565b600960009054906101000a900473ffffffffffffffffffffffffffffffffffffffff1673ffffffffffffffffffffffffffffffffffffffff1663c8eef2a985306040518363ffffffff1660e01b81526004016107659291906111de565b600060405180830381600087803b15801561077f57600080fd5b505af1158015610793573d6000803e3d6000fd5b50505050600190509392505050565b6000600160008473ffffffffffffffffffffffffffffffffffffffff1673ffffffffffffffffffffffffffffffffffffffff16815260200190815260200160002060008373ffffffffffffffffffffffffffffffffffffffff1673ffffffffffffffffffffffffffffffffffffffff16815260200190815260200160002054905092915050565b600033905090565b600073ffffffffffffffffffffffffffffffffffffffff168373ffffffffffffffffffffffffffffffffffffffff1614156108a1576040517f08c379a000000000000000000000000000000000000000000000000000000000815260040161089890611279565b60405180910390fd5b600073ffffffffffffffffffffffffffffffffffffffff168273ffffffffffffffffffffffffffffffffffffffff161415610911576040517f08c379a00000000000000000000000000000000000000000000000000000000081526004016109089061130b565b60405180910390fd5b80600160008573ffffffffffffffffffffffffffffffffffffffff1673ffffffffffffffffffffffffffffffffffffffff16815260200190815260200160002060008473ffffffffffffffffffffffffffffffffffffffff1673ffffffffffffffffffffffffffffffffffffffff168152602001908152602001600020819055508173ffffffffffffffffffffffffffffffffffffffff168373ffffffffffffffffffffffffffffffffffffffff167f8c5be1e5ebec7d5bd14f71427d1e84f3dd0314c0f7b2291e5b200ac8c7c3b925836040516109ef9190610e60565b60405180910390a3505050565b600073ffffffffffffffffffffffffffffffffffffffff168373ffffffffffffffffffffffffffffffffffffffff161415610a6c576040517f08c379a0000000000000000000000000000000000000000000000000000000008152600401610a639061139d565b60405180910390fd5b600073ffffffffffffffffffffffffffffffffffffffff168273ffffffffffffffffffffffffffffffffffffffff161415610adc576040517f08c379a0000000000000000000000000000000000000000000000000000000008152600401610ad39061142f565b60405180910390fd5b610ae7838383610c7d565b60008060008573ffffffffffffffffffffffffffffffffffffffff1673ffffffffffffffffffffffffffffffffffffffff16815260200190815260200160002054905081811015610b6d576040517f08c379a0000000000000000000000000000000000000000000000000000000008152600401610b64906114c1565b60405180910390fd5b8181036000808673ffffffffffffffffffffffffffffffffffffffff1673ffffffffffffffffffffffffffffffffffffffff16815260200190815260200160002081905550816000808573ffffffffffffffffffffffffffffffffffffffff1673ffffffffffffffffffffffffffffffffffffffff1681526020019081526020016000206000828254610c0091906110e7565b925050819055508273ffffffffffffffffffffffffffffffffffffffff168473ffffffffffffffffffffffffffffffffffffffff167fddf252ad1be2c89b69c2b068fc378daa952ba7f163c4a11628f55a4df523b3ef84604051610c649190610e60565b60405180910390a3610c77848484610c82565b50505050565b505050565b505050565b600081519050919050565b600082825260208201905092915050565b60005b83811015610cc1578082015181840152602081019050610ca6565b83811115610cd0576000848401525b50505050565b6000601f19601f8301169050919050565b6000610cf282610c87565b610cfc8185610c92565b9350610d0c818560208601610ca3565b610d1581610cd6565b840191505092915050565b60006020820190508181036000830152610d3a8184610ce7565b905092915050565b600080fd5b600073ffffffffffffffffffffffffffffffffffffffff82169050919050565b6000610d7282610d47565b9050919050565b610d8281610d67565b8114610d8d57600080fd5b50565b600081359050610d9f81610d79565b92915050565b6000819050919050565b610db881610da5565b8114610dc357600080fd5b50565b600081359050610dd581610daf565b92915050565b60008060408385031215610df257610df1610d42565b5b6000610e0085828601610d90565b9250506020610e1185828601610dc6565b9150509250929050565b60008115159050919050565b610e3081610e1b565b82525050565b6000602082019050610e4b6000830184610e27565b92915050565b610e5a81610da5565b82525050565b6000602082019050610e756000830184610e51565b92915050565b600080600060608486031215610e9457610e93610d42565b5b6000610ea286828701610d90565b9350506020610eb386828701610d90565b9250506040610ec486828701610dc6565b9150509250925092565b600060ff82169050919050565b610ee481610ece565b82525050565b6000602082019050610eff6000830184610edb565b92915050565b600060208284031215610f1b57610f1a610d42565b5b6000610f2984828501610d90565b91505092915050565b600080600060608486031215610f4b57610f4a610d42565b5b6000610f5986828701610d90565b9350506020610f6a86828701610dc6565b9250506040610f7b86828701610d90565b9150509250925092565b60008060408385031215610f9c57610f9b610d42565b5b6000610faa85828601610d90565b9250506020610fbb85828601610d90565b9150509250929050565b7f4e487b7100000000000000000000000000000000000000000000000000000000600052602260045260246000fd5b6000600282049050600182168061100c57607f821691505b602082108114156110205761101f610fc5565b5b50919050565b7f45524332303a207472616e7366657220616d6f756e742065786365656473206160008201527f6c6c6f77616e6365000000000000000000000000000000000000000000000000602082015250565b6000611082602883610c92565b915061108d82611026565b604082019050919050565b600060208201905081810360008301526110b181611075565b9050919050565b7f4e487b7100000000000000000000000000000000000000000000000000000000600052601160045260246000fd5b60006110f282610da5565b91506110fd83610da5565b9250827fffffffffffffffffffffffffffffffffffffffffffffffffffffffffffffffff03821115611132576111316110b8565b5b828201905092915050565b7f45524332303a2064656372656173656420616c6c6f77616e63652062656c6f7760008201527f207a65726f000000000000000000000000000000000000000000000000000000602082015250565b6000611199602583610c92565b91506111a48261113d565b604082019050919050565b600060208201905081810360008301526111c88161118c565b9050919050565b6111d881610d67565b82525050565b60006040820190506111f360008301856111cf565b61120060208301846111cf565b9392505050565b7f45524332303a20617070726f76652066726f6d20746865207a65726f2061646460008201527f7265737300000000000000000000000000000000000000000000000000000000602082015250565b6000611263602483610c92565b915061126e82611207565b604082019050919050565b6000602082019050818103600083015261129281611256565b9050919050565b7f45524332303a20617070726f766520746f20746865207a65726f20616464726560008201527f7373000000000000000000000000000000000000000000000000000000000000602082015250565b60006112f5602283610c92565b915061130082611299565b604082019050919050565b60006020820190508181036000830152611324816112e8565b9050919050565b7f45524332303a207472616e736665722066726f6d20746865207a65726f20616460008201527f6472657373000000000000000000000000000000000000000000000000000000602082015250565b6000611387602583610c92565b91506113928261132b565b604082019050919050565b600060208201905081810360008301526113b68161137a565b9050919050565b7f45524332303a207472616e7366657220746f20746865207a65726f206164647260008201527f6573730000000000000000000000000000000000000000000000000000000000602082015250565b6000611419602383610c92565b9150611424826113bd565b604082019050919050565b600060208201905081810360008301526114488161140c565b9050919050565b7f45524332303a207472616e7366657220616d6f756e742065786365656473206260008201527f616c616e63650000000000000000000000000000000000000000000000000000602082015250565b60006114ab602683610c92565b91506114b68261144f565b604082019050919050565b600060208201905081810360008301526114da8161149e565b905091905056fea2646970667358221220bd1a14b59c2dc28c7ab9b88b6b6b7c0faf3884bb2238146bd02a96ddfcb6238f64736f6c634300080b0033",
  "immutableReferences": {},
  "source": "pragma solidity ^0.8.0;\r\n\r\n\r\nimport \"./TokenFactory.sol\";\r\nimport \"@openzeppelin/contracts/token/ERC20/ERC20.sol\";\r\n/**\r\n * @title TokenTemplate\r\n * @dev Very simple ERC20 Token that can be minted.\r\n * It is meant to be used in all crowdsale contracts.\r\n */\r\ncontract TokenTemplate is ERC20 {\r\n    event Debug(string _message);\r\n\r\n    address private _owner;\r\n    string private _logoURL;\r\n    string private _logoHash;\r\n    string private _contractHash;\r\n    TokenFactory private _tokenFactory;\r\n\r\n\r\n\r\n\r\n\r\n    constructor(\r\n        string memory name,\r\n        string memory symbol,\r\n        uint8 decimals,\r\n        string memory logoURL,\r\n        string memory logoHash,\r\n        uint256 totalSupply,\r\n        address owner,\r\n        string memory contractHash,\r\n        address tokenFactoryAddress\r\n    ) ERC20(name,\"\") public {\r\n        require(owner != address(0), \"Owner must be defined\");\r\n        _logoURL = logoURL;\r\n        \r\n        if (totalSupply > 0) {\r\n            _mint(owner, totalSupply);\r\n        }\r\n\r\n        _owner = owner;\r\n        _contractHash = contractHash;\r\n        _logoHash = logoHash;\r\n        _tokenFactory = TokenFactory(tokenFactoryAddress);\r\n    }\r\n\r\n    /**\r\n     * override of erc20 transfer\r\n     */\r\n    function transfer(address recipient, uint256 amount,address owner)public returns (bool) {\r\n        \r\n       \r\n        _transfer(recipient, owner, amount); //call to erc20 standard transfer\r\n        \r\n        _tokenFactory.addToPossessed(recipient, address(this));\r\n        return true;\r\n    }\r\n\r\n   \r\n\r\n}",
  "sourcePath": "C:\\Users\\Luca\\Desktop\\tesi\\My-tesi\\src\\contracts\\TokenTemplate.sol",
  "compiler": {
    "name": "solc",
    "version": "0.8.11+commit.d7f03943.Emscripten.clang"
  },
  "schemaVersion": "3.4.1",
  "updatedAt": "2022-02-05T17:13:22.463Z",
  "devdoc": {
    "details": "Very simple ERC20 Token that can be minted. It is meant to be used in all crowdsale contracts.",
    "kind": "dev",
    "methods": {
      "allowance(address,address)": {
        "details": "See {IERC20-allowance}."
      },
      "approve(address,uint256)": {
        "details": "See {IERC20-approve}. Requirements: - `spender` cannot be the zero address."
      },
      "balanceOf(address)": {
        "details": "See {IERC20-balanceOf}."
      },
      "decimals()": {
        "details": "Returns the number of decimals used to get its user representation. For example, if `decimals` equals `2`, a balance of `505` tokens should be displayed to a user as `5.05` (`505 / 10 ** 2`). Tokens usually opt for a value of 18, imitating the relationship between Ether and Wei. This is the value {ERC20} uses, unless this function is overridden; NOTE: This information is only used for _display_ purposes: it in no way affects any of the arithmetic of the contract, including {IERC20-balanceOf} and {IERC20-transfer}."
      },
      "decreaseAllowance(address,uint256)": {
        "details": "Atomically decreases the allowance granted to `spender` by the caller. This is an alternative to {approve} that can be used as a mitigation for problems described in {IERC20-approve}. Emits an {Approval} event indicating the updated allowance. Requirements: - `spender` cannot be the zero address. - `spender` must have allowance for the caller of at least `subtractedValue`."
      },
      "increaseAllowance(address,uint256)": {
        "details": "Atomically increases the allowance granted to `spender` by the caller. This is an alternative to {approve} that can be used as a mitigation for problems described in {IERC20-approve}. Emits an {Approval} event indicating the updated allowance. Requirements: - `spender` cannot be the zero address."
      },
      "name()": {
        "details": "Returns the name of the token."
      },
      "symbol()": {
        "details": "Returns the symbol of the token, usually a shorter version of the name."
      },
      "totalSupply()": {
        "details": "See {IERC20-totalSupply}."
      },
      "transfer(address,uint256)": {
        "details": "See {IERC20-transfer}. Requirements: - `recipient` cannot be the zero address. - the caller must have a balance of at least `amount`."
      },
      "transferFrom(address,address,uint256)": {
        "details": "See {IERC20-transferFrom}. Emits an {Approval} event indicating the updated allowance. This is not required by the EIP. See the note at the beginning of {ERC20}. Requirements: - `sender` and `recipient` cannot be the zero address. - `sender` must have a balance of at least `amount`. - the caller must have allowance for ``sender``'s tokens of at least `amount`."
      }
    },
    "title": "TokenTemplate",
    "version": 1
  },
  "userdoc": {
    "kind": "user",
    "methods": {
      "transfer(address,uint256,address)": {
        "notice": "override of erc20 transfer"
      }
    },
    "version": 1
  }
}